{
  "_format": "hh-sol-artifact-1",
  "contractName": "Autobet",
  "sourceName": "Contract/Phase_3.1_SEPOLIA_ETH/SplittedContract/autobet.sol",
  "abi": [
    {
      "inputs": [
        {
          "internalType": "address",
          "name": "_tokenAddress",
          "type": "address"
        },
        {
          "internalType": "address",
          "name": "_autobetUseraddress",
          "type": "address"
        }
      ],
      "stateMutability": "nonpayable",
      "type": "constructor"
    },
    {
      "anonymous": false,
      "inputs": [
        {
          "indexed": false,
          "internalType": "address",
          "name": "creatorAddress",
          "type": "address"
        },
        {
          "indexed": false,
          "internalType": "uint256[]",
          "name": "numbers",
          "type": "uint256[]"
        },
        {
          "indexed": true,
          "internalType": "uint256",
          "name": "lotteryId",
          "type": "uint256"
        },
        {
          "indexed": false,
          "internalType": "uint256",
          "name": "boughtOn",
          "type": "uint256"
        },
        {
          "indexed": true,
          "internalType": "address",
          "name": "useraddress",
          "type": "address"
        },
        {
          "indexed": false,
          "internalType": "uint256",
          "name": "paid",
          "type": "uint256"
        }
      ],
      "name": "LotteryBought",
      "type": "event"
    },
    {
      "anonymous": false,
      "inputs": [
        {
          "indexed": false,
          "internalType": "address",
          "name": "owner",
          "type": "address"
        },
        {
          "indexed": false,
          "internalType": "uint256",
          "name": "lotteryId",
          "type": "uint256"
        },
        {
          "indexed": false,
          "internalType": "uint256",
          "name": "entryfee",
          "type": "uint256"
        },
        {
          "indexed": false,
          "internalType": "uint256",
          "name": "totalPrize",
          "type": "uint256"
        },
        {
          "indexed": false,
          "internalType": "uint256",
          "name": "startTime",
          "type": "uint256"
        },
        {
          "indexed": false,
          "internalType": "uint256",
          "name": "endtime",
          "type": "uint256"
        },
        {
          "indexed": false,
          "internalType": "uint256",
          "name": "drawtime",
          "type": "uint256"
        },
        {
          "indexed": false,
          "internalType": "address",
          "name": "partner",
          "type": "address"
        },
        {
          "indexed": false,
          "internalType": "uint256",
          "name": "types",
          "type": "uint256"
        }
      ],
      "name": "LotteryCreated",
      "type": "event"
    },
    {
      "anonymous": false,
      "inputs": [
        {
          "indexed": false,
          "internalType": "address",
          "name": "useraddressdata",
          "type": "address"
        },
        {
          "indexed": false,
          "internalType": "address",
          "name": "creatorAddress",
          "type": "address"
        },
        {
          "indexed": true,
          "internalType": "uint256",
          "name": "lotteryId",
          "type": "uint256"
        },
        {
          "indexed": false,
          "internalType": "uint256",
          "name": "drawOn",
          "type": "uint256"
        },
        {
          "indexed": false,
          "internalType": "string",
          "name": "number",
          "type": "string"
        }
      ],
      "name": "LotteryResult",
      "type": "event"
    },
    {
      "anonymous": false,
      "inputs": [
        {
          "indexed": false,
          "internalType": "address",
          "name": "useraddressdata",
          "type": "address"
        },
        {
          "indexed": true,
          "internalType": "uint256",
          "name": "lotteryId",
          "type": "uint256"
        },
        {
          "indexed": false,
          "internalType": "uint256",
          "name": "drawOn",
          "type": "uint256"
        },
        {
          "indexed": false,
          "internalType": "uint256",
          "name": "number",
          "type": "uint256"
        }
      ],
      "name": "LotterySaleResult",
      "type": "event"
    },
    {
      "anonymous": false,
      "inputs": [
        {
          "indexed": true,
          "internalType": "address",
          "name": "from",
          "type": "address"
        },
        {
          "indexed": true,
          "internalType": "address",
          "name": "to",
          "type": "address"
        }
      ],
      "name": "OwnershipTransferRequested",
      "type": "event"
    },
    {
      "anonymous": false,
      "inputs": [
        {
          "indexed": true,
          "internalType": "address",
          "name": "from",
          "type": "address"
        },
        {
          "indexed": true,
          "internalType": "address",
          "name": "to",
          "type": "address"
        }
      ],
      "name": "OwnershipTransferred",
      "type": "event"
    },
    {
      "anonymous": false,
      "inputs": [
        {
          "indexed": false,
          "internalType": "string",
          "name": "name",
          "type": "string"
        },
        {
          "indexed": false,
          "internalType": "string",
          "name": "logoHash",
          "type": "string"
        },
        {
          "indexed": false,
          "internalType": "bool",
          "name": "status",
          "type": "bool"
        },
        {
          "indexed": false,
          "internalType": "string",
          "name": "websiteAdd",
          "type": "string"
        },
        {
          "indexed": false,
          "internalType": "address",
          "name": "partnerAddress",
          "type": "address"
        },
        {
          "indexed": false,
          "internalType": "uint256",
          "name": "createdOn",
          "type": "uint256"
        }
      ],
      "name": "PartnerCreated",
      "type": "event"
    },
    {
      "anonymous": false,
      "inputs": [
        {
          "indexed": false,
          "internalType": "address",
          "name": "ownerAddress",
          "type": "address"
        },
        {
          "indexed": true,
          "internalType": "address",
          "name": "partneradddress",
          "type": "address"
        },
        {
          "indexed": true,
          "internalType": "uint256",
          "name": "lotteryId",
          "type": "uint256"
        },
        {
          "indexed": false,
          "internalType": "uint256",
          "name": "amountpaid",
          "type": "uint256"
        }
      ],
      "name": "PartnerPaid",
      "type": "event"
    },
    {
      "anonymous": false,
      "inputs": [
        {
          "indexed": false,
          "internalType": "address",
          "name": "creatorAddress",
          "type": "address"
        },
        {
          "indexed": false,
          "internalType": "uint256",
          "name": "lotteryId",
          "type": "uint256"
        },
        {
          "indexed": false,
          "internalType": "uint256",
          "name": "rolloverDays",
          "type": "uint256"
        },
        {
          "indexed": false,
          "internalType": "uint256",
          "name": "rolloverperct",
          "type": "uint256"
        }
      ],
      "name": "RolloverHappened",
      "type": "event"
    },
    {
      "anonymous": false,
      "inputs": [
        {
          "indexed": true,
          "internalType": "address",
          "name": "useraddressdata",
          "type": "address"
        },
        {
          "indexed": false,
          "internalType": "address",
          "name": "creatorAddress",
          "type": "address"
        },
        {
          "indexed": true,
          "internalType": "uint256",
          "name": "lotteryId",
          "type": "uint256"
        },
        {
          "indexed": false,
          "internalType": "uint256",
          "name": "selectedNum",
          "type": "uint256"
        },
        {
          "indexed": false,
          "internalType": "uint256",
          "name": "winnerNum",
          "type": "uint256"
        },
        {
          "indexed": false,
          "internalType": "uint256",
          "name": "date",
          "type": "uint256"
        }
      ],
      "name": "SpinLotteryResult",
      "type": "event"
    },
    {
      "anonymous": false,
      "inputs": [
        {
          "indexed": false,
          "internalType": "address",
          "name": "creatorAddress",
          "type": "address"
        },
        {
          "indexed": true,
          "internalType": "address",
          "name": "useraddressdata",
          "type": "address"
        },
        {
          "indexed": true,
          "internalType": "uint256",
          "name": "lotteryId",
          "type": "uint256"
        },
        {
          "indexed": false,
          "internalType": "uint256",
          "name": "amountwon",
          "type": "uint256"
        }
      ],
      "name": "WinnerPaid",
      "type": "event"
    },
    {
      "anonymous": false,
      "inputs": [
        {
          "indexed": false,
          "internalType": "uint256",
          "name": "requestId",
          "type": "uint256"
        },
        {
          "indexed": false,
          "internalType": "uint256",
          "name": "lotteryId",
          "type": "uint256"
        }
      ],
      "name": "lotRequestIds",
      "type": "event"
    },
    {
      "inputs": [
        {
          "internalType": "string",
          "name": "",
          "type": "string"
        }
      ],
      "name": "TicketsList",
      "outputs": [
        {
          "internalType": "address",
          "name": "",
          "type": "address"
        }
      ],
      "stateMutability": "view",
      "type": "function"
    },
    {
      "inputs": [],
      "name": "acceptOwnership",
      "outputs": [],
      "stateMutability": "nonpayable",
      "type": "function"
    },
    {
      "inputs": [
        {
          "internalType": "string",
          "name": "_name",
          "type": "string"
        },
        {
          "internalType": "string",
          "name": "_logoHash",
          "type": "string"
        },
        {
          "internalType": "bool",
          "name": "_status",
          "type": "bool"
        },
        {
          "internalType": "string",
          "name": "_websiteAdd",
          "type": "string"
        },
        {
          "internalType": "address",
          "name": "_partnerAddress",
          "type": "address"
        },
        {
          "internalType": "uint256",
          "name": "_createdOn",
          "type": "uint256"
        }
      ],
      "name": "addEditPartnerDetails",
      "outputs": [],
      "stateMutability": "nonpayable",
      "type": "function"
    },
    {
      "inputs": [],
      "name": "admin",
      "outputs": [
        {
          "internalType": "address",
          "name": "",
          "type": "address"
        }
      ],
      "stateMutability": "view",
      "type": "function"
    },
    {
      "inputs": [
        {
          "internalType": "address",
          "name": "",
          "type": "address"
        }
      ],
      "name": "amountEarned",
      "outputs": [
        {
          "internalType": "uint256",
          "name": "",
          "type": "uint256"
        }
      ],
      "stateMutability": "view",
      "type": "function"
    },
    {
      "inputs": [
        {
          "internalType": "address",
          "name": "",
          "type": "address"
        }
      ],
      "name": "amountLocked",
      "outputs": [
        {
          "internalType": "uint256",
          "name": "",
          "type": "uint256"
        }
      ],
      "stateMutability": "view",
      "type": "function"
    },
    {
      "inputs": [
        {
          "internalType": "address",
          "name": "",
          "type": "address"
        }
      ],
      "name": "amountspend",
      "outputs": [
        {
          "internalType": "uint256",
          "name": "",
          "type": "uint256"
        }
      ],
      "stateMutability": "view",
      "type": "function"
    },
    {
      "inputs": [
        {
          "internalType": "address",
          "name": "",
          "type": "address"
        }
      ],
      "name": "amountwon",
      "outputs": [
        {
          "internalType": "uint256",
          "name": "",
          "type": "uint256"
        }
      ],
      "stateMutability": "view",
      "type": "function"
    },
    {
      "inputs": [],
      "name": "autobetUseraddress",
      "outputs": [
        {
          "internalType": "address",
          "name": "",
          "type": "address"
        }
      ],
      "stateMutability": "view",
      "type": "function"
    },
    {
      "inputs": [
        {
          "internalType": "string",
          "name": "code",
          "type": "string"
        },
        {
          "internalType": "uint256",
          "name": "lotteryid",
          "type": "uint256"
        }
      ],
      "name": "buyMissilelottery",
      "outputs": [],
      "stateMutability": "payable",
      "type": "function"
    },
    {
      "inputs": [
        {
          "internalType": "uint256[]",
          "name": "numbers",
          "type": "uint256[]"
        },
        {
          "internalType": "uint256",
          "name": "lotteryid",
          "type": "uint256"
        }
      ],
      "name": "buyNormalLottery",
      "outputs": [],
      "stateMutability": "payable",
      "type": "function"
    },
    {
      "inputs": [
        {
          "internalType": "uint256",
          "name": "numbers",
          "type": "uint256"
        },
        {
          "internalType": "uint256",
          "name": "lotteryid",
          "type": "uint256"
        }
      ],
      "name": "buySpinnerLottery",
      "outputs": [],
      "stateMutability": "payable",
      "type": "function"
    },
    {
      "inputs": [],
      "name": "callresult",
      "outputs": [
        {
          "internalType": "bool",
          "name": "",
          "type": "bool"
        }
      ],
      "stateMutability": "view",
      "type": "function"
    },
    {
      "inputs": [
        {
          "internalType": "bytes",
          "name": "",
          "type": "bytes"
        }
      ],
      "name": "checkUpkeep",
      "outputs": [
        {
          "internalType": "bool",
          "name": "upkeepNeeded",
          "type": "bool"
        },
        {
          "internalType": "bytes",
          "name": "result",
          "type": "bytes"
        }
      ],
      "stateMutability": "view",
      "type": "function"
    },
    {
      "inputs": [
        {
          "internalType": "address",
          "name": "",
          "type": "address"
        }
      ],
      "name": "commissionEarned",
      "outputs": [
        {
          "internalType": "uint256",
          "name": "",
          "type": "uint256"
        }
      ],
      "stateMutability": "view",
      "type": "function"
    },
    {
      "inputs": [
        {
          "internalType": "uint256",
          "name": "entryfee",
          "type": "uint256"
        },
        {
          "internalType": "uint256",
          "name": "picknumbers",
          "type": "uint256"
        },
        {
          "internalType": "uint256",
          "name": "totalPrize",
          "type": "uint256"
        },
        {
          "internalType": "uint256",
          "name": "startTime",
          "type": "uint256"
        },
        {
          "internalType": "uint256",
          "name": "endtime",
          "type": "uint256"
        },
        {
          "internalType": "uint256",
          "name": "drawtime",
          "type": "uint256"
        },
        {
          "internalType": "uint256",
          "name": "capacity",
          "type": "uint256"
        },
        {
          "internalType": "uint256",
          "name": "rolloverperct",
          "type": "uint256"
        },
        {
          "internalType": "uint256",
          "name": "rolloverday",
          "type": "uint256"
        },
        {
          "internalType": "uint256",
          "name": "partnershare",
          "type": "uint256"
        },
        {
          "internalType": "address",
          "name": "partner",
          "type": "address"
        },
        {
          "internalType": "enum Autobet.LotteryType",
          "name": "lottype",
          "type": "uint8"
        }
      ],
      "name": "createLottery",
      "outputs": [],
      "stateMutability": "payable",
      "type": "function"
    },
    {
      "inputs": [],
      "name": "defaultRolloverday",
      "outputs": [
        {
          "internalType": "uint256",
          "name": "",
          "type": "uint256"
        }
      ],
      "stateMutability": "view",
      "type": "function"
    },
    {
      "inputs": [
        {
          "internalType": "uint256",
          "name": "lotteryid",
          "type": "uint256"
        }
      ],
      "name": "getLotteryNumbers",
      "outputs": [
        {
          "internalType": "uint256[]",
          "name": "tickets",
          "type": "uint256[]"
        },
        {
          "internalType": "address[]",
          "name": "useraddress",
          "type": "address[]"
        }
      ],
      "stateMutability": "view",
      "type": "function"
    },
    {
      "inputs": [
        {
          "internalType": "uint256",
          "name": "lotteryid",
          "type": "uint256"
        }
      ],
      "name": "getMineLotteryNumbers",
      "outputs": [
        {
          "internalType": "uint256[]",
          "name": "numbers",
          "type": "uint256[]"
        }
      ],
      "stateMutability": "view",
      "type": "function"
    },
    {
      "inputs": [
        {
          "internalType": "address",
          "name": "useraddress",
          "type": "address"
        }
      ],
      "name": "getOrglotteries",
      "outputs": [
        {
          "internalType": "uint256[]",
          "name": "lotterids",
          "type": "uint256[]"
        }
      ],
      "stateMutability": "view",
      "type": "function"
    },
    {
      "inputs": [
        {
          "internalType": "address",
          "name": "partneraddress",
          "type": "address"
        }
      ],
      "name": "getPartnerlotteries",
      "outputs": [
        {
          "internalType": "uint256[]",
          "name": "lotteryids",
          "type": "uint256[]"
        }
      ],
      "stateMutability": "view",
      "type": "function"
    },
    {
      "inputs": [
        {
          "internalType": "address",
          "name": "useraddress",
          "type": "address"
        }
      ],
      "name": "getUserlotteries",
      "outputs": [
        {
          "internalType": "uint256[]",
          "name": "lotteryids",
          "type": "uint256[]"
        }
      ],
      "stateMutability": "view",
      "type": "function"
    },
    {
      "inputs": [],
      "name": "lastresult",
      "outputs": [
        {
          "internalType": "string",
          "name": "",
          "type": "string"
        }
      ],
      "stateMutability": "view",
      "type": "function"
    },
    {
      "inputs": [
        {
          "internalType": "uint256",
          "name": "",
          "type": "uint256"
        }
      ],
      "name": "lottery",
      "outputs": [
        {
          "internalType": "uint256",
          "name": "lotteryId",
          "type": "uint256"
        },
        {
          "internalType": "uint256",
          "name": "pickNumbers",
          "type": "uint256"
        },
        {
          "internalType": "uint256",
          "name": "capacity",
          "type": "uint256"
        },
        {
          "internalType": "uint256",
          "name": "entryFee",
          "type": "uint256"
        },
        {
          "internalType": "uint256",
          "name": "totalPrize",
          "type": "uint256"
        },
        {
          "internalType": "uint256",
          "name": "minPlayers",
          "type": "uint256"
        },
        {
          "internalType": "uint256",
          "name": "partnershare",
          "type": "uint256"
        },
        {
          "internalType": "uint256",
          "name": "rolloverperct",
          "type": "uint256"
        },
        {
          "internalType": "uint256",
          "name": "deployedOn",
          "type": "uint256"
        },
        {
          "internalType": "address",
          "name": "partnerAddress",
          "type": "address"
        },
        {
          "internalType": "address",
          "name": "lotteryWinner",
          "type": "address"
        },
        {
          "internalType": "address",
          "name": "ownerAddress",
          "type": "address"
        },
        {
          "internalType": "enum Autobet.LotteryState",
          "name": "status",
          "type": "uint8"
        },
        {
          "internalType": "enum Autobet.LotteryType",
          "name": "lotteryType",
          "type": "uint8"
        }
      ],
      "stateMutability": "view",
      "type": "function"
    },
    {
      "inputs": [],
      "name": "lotteryCreateFee",
      "outputs": [
        {
          "internalType": "uint256",
          "name": "",
          "type": "uint256"
        }
      ],
      "stateMutability": "view",
      "type": "function"
    },
    {
      "inputs": [
        {
          "internalType": "uint256",
          "name": "",
          "type": "uint256"
        }
      ],
      "name": "lotteryDates",
      "outputs": [
        {
          "internalType": "uint256",
          "name": "lotteryId",
          "type": "uint256"
        },
        {
          "internalType": "uint256",
          "name": "startTime",
          "type": "uint256"
        },
        {
          "internalType": "uint256",
          "name": "endTime",
          "type": "uint256"
        },
        {
          "internalType": "uint256",
          "name": "drawTime",
          "type": "uint256"
        },
        {
          "internalType": "uint256",
          "name": "rolloverdays",
          "type": "uint256"
        },
        {
          "internalType": "uint16",
          "name": "level",
          "type": "uint16"
        }
      ],
      "stateMutability": "view",
      "type": "function"
    },
    {
      "inputs": [],
      "name": "lotteryId",
      "outputs": [
        {
          "internalType": "uint256",
          "name": "",
          "type": "uint256"
        }
      ],
      "stateMutability": "view",
      "type": "function"
    },
    {
      "inputs": [
        {
          "internalType": "uint256",
          "name": "",
          "type": "uint256"
        }
      ],
      "name": "lotterySales",
      "outputs": [
        {
          "internalType": "uint256",
          "name": "",
          "type": "uint256"
        }
      ],
      "stateMutability": "view",
      "type": "function"
    },
    {
      "inputs": [
        {
          "internalType": "uint256",
          "name": "",
          "type": "uint256"
        },
        {
          "internalType": "address",
          "name": "",
          "type": "address"
        }
      ],
      "name": "lotteryTickets",
      "outputs": [
        {
          "internalType": "uint256",
          "name": "",
          "type": "uint256"
        }
      ],
      "stateMutability": "view",
      "type": "function"
    },
    {
      "inputs": [
        {
          "internalType": "uint256",
          "name": "",
          "type": "uint256"
        },
        {
          "internalType": "uint256",
          "name": "",
          "type": "uint256"
        }
      ],
      "name": "minelottery",
      "outputs": [
        {
          "internalType": "uint256",
          "name": "",
          "type": "uint256"
        }
      ],
      "stateMutability": "view",
      "type": "function"
    },
    {
      "inputs": [],
      "name": "minimumRollover",
      "outputs": [
        {
          "internalType": "uint256",
          "name": "",
          "type": "uint256"
        }
      ],
      "stateMutability": "view",
      "type": "function"
    },
    {
      "inputs": [],
      "name": "owner",
      "outputs": [
        {
          "internalType": "address",
          "name": "",
          "type": "address"
        }
      ],
      "stateMutability": "view",
      "type": "function"
    },
    {
      "inputs": [],
      "name": "partnerId",
      "outputs": [
        {
          "internalType": "uint256",
          "name": "",
          "type": "uint256"
        }
      ],
      "stateMutability": "view",
      "type": "function"
    },
    {
      "inputs": [
        {
          "internalType": "address",
          "name": "",
          "type": "address"
        }
      ],
      "name": "partnerPayAmount",
      "outputs": [
        {
          "internalType": "uint256",
          "name": "",
          "type": "uint256"
        }
      ],
      "stateMutability": "view",
      "type": "function"
    },
    {
      "inputs": [
        {
          "internalType": "address",
          "name": "",
          "type": "address"
        }
      ],
      "name": "partnerbyaddr",
      "outputs": [
        {
          "internalType": "string",
          "name": "name",
          "type": "string"
        },
        {
          "internalType": "string",
          "name": "logoHash",
          "type": "string"
        },
        {
          "internalType": "bool",
          "name": "status",
          "type": "bool"
        },
        {
          "internalType": "string",
          "name": "websiteAdd",
          "type": "string"
        },
        {
          "internalType": "address",
          "name": "partnerAddress",
          "type": "address"
        },
        {
          "internalType": "uint256",
          "name": "createdOn",
          "type": "uint256"
        },
        {
          "internalType": "uint256",
          "name": "partnerId",
          "type": "uint256"
        }
      ],
      "stateMutability": "view",
      "type": "function"
    },
    {
      "inputs": [
        {
          "internalType": "uint256",
          "name": "",
          "type": "uint256"
        }
      ],
      "name": "partnerids",
      "outputs": [
        {
          "internalType": "address",
          "name": "",
          "type": "address"
        }
      ],
      "stateMutability": "view",
      "type": "function"
    },
    {
      "inputs": [
        {
          "internalType": "uint256",
          "name": "lotteryid",
          "type": "uint256"
        },
        {
          "internalType": "uint256",
          "name": "requestId",
          "type": "uint256"
        }
      ],
      "name": "paywinner",
      "outputs": [],
      "stateMutability": "payable",
      "type": "function"
    },
    {
      "inputs": [
        {
          "internalType": "bytes",
          "name": "",
          "type": "bytes"
        }
      ],
      "name": "performUpkeep",
      "outputs": [],
      "stateMutability": "nonpayable",
      "type": "function"
    },
    {
      "inputs": [
        {
          "internalType": "uint256",
          "name": "",
          "type": "uint256"
        }
      ],
      "name": "randomNumber",
      "outputs": [
        {
          "internalType": "uint256",
          "name": "",
          "type": "uint256"
        }
      ],
      "stateMutability": "view",
      "type": "function"
    },
    {
      "inputs": [
        {
          "internalType": "uint256",
          "name": "_requestId",
          "type": "uint256"
        },
        {
          "internalType": "uint256[]",
          "name": "_randomWords",
          "type": "uint256[]"
        }
      ],
      "name": "rawFulfillRandomWords",
      "outputs": [],
      "stateMutability": "nonpayable",
      "type": "function"
    },
    {
      "inputs": [],
      "name": "redeemTokens",
      "outputs": [],
      "stateMutability": "nonpayable",
      "type": "function"
    },
    {
      "inputs": [
        {
          "internalType": "address",
          "name": "",
          "type": "address"
        }
      ],
      "name": "refereeEarned",
      "outputs": [
        {
          "internalType": "uint256",
          "name": "",
          "type": "uint256"
        }
      ],
      "stateMutability": "view",
      "type": "function"
    },
    {
      "inputs": [
        {
          "internalType": "uint256",
          "name": "",
          "type": "uint256"
        }
      ],
      "name": "requestIds",
      "outputs": [
        {
          "internalType": "uint256",
          "name": "",
          "type": "uint256"
        }
      ],
      "stateMutability": "view",
      "type": "function"
    },
    {
      "inputs": [
        {
          "internalType": "uint256",
          "name": "",
          "type": "uint256"
        }
      ],
      "name": "s_requests",
      "outputs": [
        {
          "internalType": "uint256",
          "name": "paid",
          "type": "uint256"
        },
        {
          "internalType": "bool",
          "name": "fulfilled",
          "type": "bool"
        },
        {
          "internalType": "bool",
          "name": "draw",
          "type": "bool"
        }
      ],
      "stateMutability": "view",
      "type": "function"
    },
    {
      "inputs": [
        {
          "internalType": "bool",
          "name": "_callresult",
          "type": "bool"
        }
      ],
      "name": "setCallresult",
      "outputs": [],
      "stateMutability": "nonpayable",
      "type": "function"
    },
    {
      "inputs": [
        {
          "internalType": "address",
          "name": "_tokenAddress",
          "type": "address"
        }
      ],
      "name": "setTokenAddress",
      "outputs": [],
      "stateMutability": "nonpayable",
      "type": "function"
    },
    {
      "inputs": [
        {
          "internalType": "uint256",
          "name": "",
          "type": "uint256"
        }
      ],
      "name": "spinBuyer",
      "outputs": [
        {
          "internalType": "address",
          "name": "",
          "type": "address"
        }
      ],
      "stateMutability": "view",
      "type": "function"
    },
    {
      "inputs": [
        {
          "internalType": "uint256",
          "name": "",
          "type": "uint256"
        }
      ],
      "name": "spinNumbers",
      "outputs": [
        {
          "internalType": "uint256",
          "name": "",
          "type": "uint256"
        }
      ],
      "stateMutability": "view",
      "type": "function"
    },
    {
      "inputs": [
        {
          "internalType": "string",
          "name": "s",
          "type": "string"
        }
      ],
      "name": "stringToUint",
      "outputs": [
        {
          "internalType": "uint256",
          "name": "",
          "type": "uint256"
        }
      ],
      "stateMutability": "pure",
      "type": "function"
    },
    {
      "inputs": [
        {
          "internalType": "string",
          "name": "str",
          "type": "string"
        },
        {
          "internalType": "uint256",
          "name": "startIndex",
          "type": "uint256"
        },
        {
          "internalType": "uint256",
          "name": "endIndex",
          "type": "uint256"
        }
      ],
      "name": "substring",
      "outputs": [
        {
          "internalType": "string",
          "name": "",
          "type": "string"
        }
      ],
      "stateMutability": "pure",
      "type": "function"
    },
    {
      "inputs": [],
      "name": "tokenAddress",
      "outputs": [
        {
          "internalType": "address",
          "name": "",
          "type": "address"
        }
      ],
      "stateMutability": "view",
      "type": "function"
    },
    {
      "inputs": [],
      "name": "tokenEarnPercent",
      "outputs": [
        {
          "internalType": "uint256",
          "name": "",
          "type": "uint256"
        }
      ],
      "stateMutability": "view",
      "type": "function"
    },
    {
      "inputs": [
        {
          "internalType": "address",
          "name": "",
          "type": "address"
        }
      ],
      "name": "tokenearned",
      "outputs": [
        {
          "internalType": "uint256",
          "name": "",
          "type": "uint256"
        }
      ],
      "stateMutability": "view",
      "type": "function"
    },
    {
      "inputs": [
        {
          "internalType": "address",
          "name": "",
          "type": "address"
        }
      ],
      "name": "tokenredeemed",
      "outputs": [
        {
          "internalType": "uint256",
          "name": "",
          "type": "uint256"
        }
      ],
      "stateMutability": "view",
      "type": "function"
    },
    {
      "inputs": [],
      "name": "totalCommissionEarned",
      "outputs": [
        {
          "internalType": "uint256",
          "name": "",
          "type": "uint256"
        }
      ],
      "stateMutability": "view",
      "type": "function"
    },
    {
      "inputs": [],
      "name": "totalDraws",
      "outputs": [
        {
          "internalType": "uint256",
          "name": "",
          "type": "uint256"
        }
      ],
      "stateMutability": "view",
      "type": "function"
    },
    {
      "inputs": [
        {
          "internalType": "address",
          "name": "",
          "type": "address"
        }
      ],
      "name": "totalLotteryCreationFees",
      "outputs": [
        {
          "internalType": "uint256",
          "name": "",
          "type": "uint256"
        }
      ],
      "stateMutability": "view",
      "type": "function"
    },
    {
      "inputs": [],
      "name": "totalPartnerPay",
      "outputs": [
        {
          "internalType": "uint256",
          "name": "",
          "type": "uint256"
        }
      ],
      "stateMutability": "view",
      "type": "function"
    },
    {
      "inputs": [
        {
          "internalType": "uint256",
          "name": "",
          "type": "uint256"
        }
      ],
      "name": "totalProfits",
      "outputs": [
        {
          "internalType": "uint256",
          "name": "",
          "type": "uint256"
        }
      ],
      "stateMutability": "view",
      "type": "function"
    },
    {
      "inputs": [],
      "name": "totalSale",
      "outputs": [
        {
          "internalType": "uint256",
          "name": "",
          "type": "uint256"
        }
      ],
      "stateMutability": "view",
      "type": "function"
    },
    {
      "inputs": [
        {
          "internalType": "address",
          "name": "",
          "type": "address"
        }
      ],
      "name": "totalWinnerAmount",
      "outputs": [
        {
          "internalType": "uint256",
          "name": "",
          "type": "uint256"
        }
      ],
      "stateMutability": "view",
      "type": "function"
    },
    {
      "inputs": [],
      "name": "totalWinners",
      "outputs": [
        {
          "internalType": "uint256",
          "name": "",
          "type": "uint256"
        }
      ],
      "stateMutability": "view",
      "type": "function"
    },
    {
      "inputs": [
        {
          "internalType": "address",
          "name": "newAdmin",
          "type": "address"
        }
      ],
      "name": "transferAdmin",
      "outputs": [],
      "stateMutability": "nonpayable",
      "type": "function"
    },
    {
      "inputs": [],
      "name": "transferFeePerc",
      "outputs": [
        {
          "internalType": "uint256",
          "name": "",
          "type": "uint256"
        }
      ],
      "stateMutability": "view",
      "type": "function"
    },
    {
      "inputs": [
        {
          "internalType": "address",
          "name": "to",
          "type": "address"
        }
      ],
      "name": "transferOwnership",
      "outputs": [],
      "stateMutability": "nonpayable",
      "type": "function"
    },
    {
      "inputs": [
        {
          "internalType": "uint256",
          "name": "amount",
          "type": "uint256"
        },
        {
          "internalType": "address",
          "name": "to",
          "type": "address"
        },
        {
          "internalType": "address",
          "name": "tokenAdd",
          "type": "address"
        }
      ],
      "name": "transferToken",
      "outputs": [],
      "stateMutability": "nonpayable",
      "type": "function"
    },
    {
      "inputs": [
        {
          "internalType": "uint256",
          "name": "_lotteryCreateFee",
          "type": "uint256"
        },
        {
          "internalType": "uint256",
          "name": "_transferFeePerc",
          "type": "uint256"
        },
        {
          "internalType": "uint256",
          "name": "_tokenEarnPercent",
          "type": "uint256"
        },
        {
          "internalType": "uint256",
          "name": "_minroll",
          "type": "uint256"
        },
        {
          "internalType": "uint256",
          "name": "_rolloverday",
          "type": "uint256"
        }
      ],
      "name": "updateFee",
      "outputs": [],
      "stateMutability": "nonpayable",
      "type": "function"
    },
    {
      "inputs": [
        {
          "internalType": "address",
          "name": "",
          "type": "address"
        }
      ],
      "name": "winnerTax",
      "outputs": [
        {
          "internalType": "uint256",
          "name": "",
          "type": "uint256"
        }
      ],
      "stateMutability": "view",
      "type": "function"
    },
    {
      "inputs": [],
      "name": "withdrawAdmin",
      "outputs": [],
      "stateMutability": "payable",
      "type": "function"
    },
    {
      "inputs": [],
      "name": "withdrawETH",
      "outputs": [],
      "stateMutability": "payable",
      "type": "function"
    },
    {
      "inputs": [],
      "name": "withdrawLink",
      "outputs": [],
      "stateMutability": "nonpayable",
      "type": "function"
    },
    {
      "inputs": [],
      "name": "withdrawcommission",
      "outputs": [],
      "stateMutability": "payable",
      "type": "function"
    },
    {
      "inputs": [],
      "name": "withdrawrefereecommission",
      "outputs": [],
      "stateMutability": "payable",
      "type": "function"
    }
  ],
  "bytecode": "0x60c0604052600160025560006003819055600a6004819055600590815560646006556007819055600855600955601180546001600160501b03191666010003000aae601790553480156200005257600080fd5b5060405162005fbd38038062005fbd83398101604081905262000075916200026e565b73779877a7b0d9e8603169ddbd7836e478b462478960805273ab18414cd93297b0d12ac29e63ca20f515b3db4660a0523380600081620000fc5760405162461bcd60e51b815260206004820152601860248201527f43616e6e6f7420736574206f776e657220746f207a65726f000000000000000060448201526064015b60405180910390fd5b600080546001600160a01b0319166001600160a01b03848116919091179091558116156200012f576200012f81620001a6565b5050600d8054610100600160a81b0319166101006001600160a01b039485160217905550600b8054336001600160a01b03199182168117909255600a8054909116939092169290921790556000908152601a60209081526040808320839055601c8252808320839055601d909152812055620002a6565b336001600160a01b03821603620002005760405162461bcd60e51b815260206004820152601760248201527f43616e6e6f74207472616e7366657220746f2073656c660000000000000000006044820152606401620000f3565b600180546001600160a01b0319166001600160a01b0383811691821790925560008054604051929316917fed8889f560326eb138920d842192f0eb3dd22b4f139c87a2c57538e05bae12789190a350565b80516001600160a01b03811681146200026957600080fd5b919050565b600080604083850312156200028257600080fd5b6200028d8362000251565b91506200029d6020840162000251565b90509250929050565b60805160a051615cc7620002f6600039600081816111fd01528181613dde0152818161481801526149210152600081816116cc0152818161247301528181612b3d01526147ee0152615cc76000f3fe6080604052600436106104265760003560e01c80638dc654a211610229578063c0dae6851161012e578063e79d8a07116100b6578063f2fde38b1161007a578063f2fde38b14610e41578063f489bd3d14610e61578063f6c788b214610e97578063f851a44014610ec4578063f970dd0214610ee457600080fd5b8063e79d8a0714610da7578063e87122d614610dd4578063e9a9c50c14610dea578063ea123d1a14610dff578063ea4ce23914610e2b57600080fd5b8063dd73656d116100fd578063dd73656d14610d29578063e043e7bc14610d49578063e086e5ec14610d76578063e3a7f15514610d7e578063e580f47b14610d9157600080fd5b8063c0dae68514610ca8578063c41ce92e14610cde578063c73cdd2314610cfe578063d7e2368f14610d1357600080fd5b8063aa37db6c116101b1578063b85dfeaa11610180578063b85dfeaa14610c10578063bc112e9314610c30578063bcc941b614610c50578063bd3491f214610c66578063bef7e5a214610c7b57600080fd5b8063aa37db6c14610b83578063ada9dcb914610b99578063b2dd29f314610bb9578063b43f0b2b14610bcf57600080fd5b806396169995116101f8578063961699951461099c5780639d76ea58146109c9578063a168fa89146109e9578063a57d156014610a46578063aa10304c14610afe57600080fd5b80638dc654a21461093f5780639148910514610954578063944f59de1461095c57806394d1283a1461097257600080fd5b806348c096a71161032f57806375829def116102b75780637c9315f3116102865780637c9315f31461089457806381efc756146108b45780638796ba8c146108e15780638ac9a6011461090e5780638da5cb5b1461092157600080fd5b806375829def1461081657806375e9340a146108365780637782d5761461084c57806379ba50971461087f57600080fd5b806351d4568f116102fe57806351d4568f146107575780635f8e26a71461075f57806367eecd5a1461078d5780636bf8dc74146107ba5780636e04ff0d146107e857600080fd5b806348c096a7146106e15780634a2a1fb01461070e5780634b3b408a1461072e5780634e2049201461074157600080fd5b80631fe543e3116103b25780632751134a116103815780632751134a146106415780632f24d5dc1461066e5780633de55f95146106815780634585e33b146106ae57806347d5fcc6146106ce57600080fd5b80631fe543e31461059c5780632071be7b146105bc57806326617ddb146105e957806326a4e8d21461062157600080fd5b806316a1a468116103f957806316a1a468146104c85780631bd95155146104f55780631c9c8e99146105155780631dcd9b55146105425780631ed1936f1461056f57600080fd5b806304c76af01461042b578063076e316f1461043557806309deaa2414610477578063137ef049146104b2575b600080fd5b610433610f11565b005b34801561044157600080fd5b50600d5461045a9061010090046001600160a01b031681565b6040516001600160a01b0390911681526020015b60405180910390f35b34801561048357600080fd5b506104a4610492366004614f96565b601a6020526000908152604090205481565b60405190815260200161046e565b3480156104be57600080fd5b506104a460105481565b3480156104d457600080fd5b506104a46104e3366004614f96565b60226020526000908152604090205481565b34801561050157600080fd5b506104a4610510366004615068565b610fd4565b34801561052157600080fd5b50610535610530366004614f96565b61104c565b60405161046e91906150d8565b34801561054e57600080fd5b5061056261055d3660046150eb565b611130565b60405161046e9190615188565b34801561057b57600080fd5b506104a461058a366004614f96565b601d6020526000908152604090205481565b3480156105a857600080fd5b506104336105b736600461521a565b6111f2565b3480156105c857600080fd5b506104a46105d7366004615260565b601f6020526000908152604090205481565b3480156105f557600080fd5b506104a4610604366004615279565b602d60209081526000928352604080842090915290825290205481565b34801561062d57600080fd5b5061043361063c366004614f96565b611278565b34801561064d57600080fd5b506104a461065c366004614f96565b60176020526000908152604090205481565b61043361067c3660046152a9565b6112c4565b34801561068d57600080fd5b506104a461069c366004614f96565b60186020526000908152604090205481565b3480156106ba57600080fd5b506104336106c93660046152cb565b6113f8565b6104336106dc36600461533c565b611464565b3480156106ed57600080fd5b506104a46106fc366004614f96565b601e6020526000908152604090205481565b34801561071a57600080fd5b506104336107293660046153dc565b611c6f565b61043361073c3660046152a9565b611db1565b34801561074d57600080fd5b506104a460085481565b61043361212a565b34801561076b57600080fd5b5061077f61077a366004615260565b6121f9565b60405161046e92919061541e565b34801561079957600080fd5b506104a46107a8366004615260565b60266020526000908152604090205481565b3480156107c657600080fd5b506104336107d536600461548c565b600d805460ff1916911515919091179055565b3480156107f457600080fd5b506108086108033660046152cb565b612453565b60405161046e9291906154a9565b34801561082257600080fd5b50610433610831366004614f96565b61257d565b34801561084257600080fd5b506104a460045481565b34801561085857600080fd5b5061086c610867366004614f96565b6125dc565b60405161046e97969594939291906154c4565b34801561088b57600080fd5b506104336127c3565b3480156108a057600080fd5b506104336108af36600461552e565b61286d565b3480156108c057600080fd5b506104a46108cf366004614f96565b602f6020526000908152604090205481565b3480156108ed57600080fd5b506104a46108fc366004615260565b60246020526000908152604090205481565b61043361091c366004615569565b6128ae565b34801561092d57600080fd5b506000546001600160a01b031661045a565b34801561094b57600080fd5b50610433612afe565b610433612c6c565b34801561096857600080fd5b506104a4600f5481565b34801561097e57600080fd5b50600d5461098c9060ff1681565b604051901515815260200161046e565b3480156109a857600080fd5b506104a46109b7366004614f96565b60216020526000908152604090205481565b3480156109d557600080fd5b50600a5461045a906001600160a01b031681565b3480156109f557600080fd5b50610a29610a04366004615260565b6012602052600090815260409020805460019091015460ff8082169161010090041683565b60408051938452911515602084015215159082015260600161046e565b348015610a5257600080fd5b50610ae4610a61366004615260565b601560205260009081526040902080546001820154600283015460038401546004850154600586015460068701546007880154600889015460098a0154600a8b0154600b8c0154600d909c01549a9b999a98999798969795969495939492936001600160a01b03928316939183169281169160ff600160a01b909204821691168e565b60405161046e9e9d9c9b9a999897969594939291906155e7565b348015610b0a57600080fd5b50610b52610b19366004615260565b601660205260009081526040902080546001820154600283015460038401546004850154600590950154939492939192909161ffff1686565b604080519687526020870195909552938501929092526060840152608083015261ffff1660a082015260c00161046e565b348015610b8f57600080fd5b506104a460035481565b348015610ba557600080fd5b50610535610bb4366004615260565b612cbc565b348015610bc557600080fd5b506104a460055481565b348015610bdb57600080fd5b5061045a610bea366004615068565b8051602081830181018051602e825292820191909301209152546001600160a01b031681565b348015610c1c57600080fd5b50610433610c2b366004615679565b612d91565b348015610c3c57600080fd5b506104a4610c4b3660046152a9565b613010565b348015610c5c57600080fd5b506104a4600e5481565b348015610c7257600080fd5b50610562613041565b348015610c8757600080fd5b506104a4610c96366004614f96565b60196020526000908152604090205481565b348015610cb457600080fd5b5061045a610cc3366004615260565b6027602052600090815260409020546001600160a01b031681565b348015610cea57600080fd5b50610535610cf9366004614f96565b6130cf565b348015610d0a57600080fd5b506104a46131ac565b348015610d1f57600080fd5b506104a460075481565b348015610d3557600080fd5b50610535610d44366004614f96565b61324b565b348015610d5557600080fd5b506104a4610d64366004615260565b60236020526000908152604090205481565b610433613328565b610433610d8c366004615732565b613381565b348015610d9d57600080fd5b506104a460025481565b348015610db357600080fd5b506104a4610dc2366004614f96565b601c6020526000908152604090205481565b348015610de057600080fd5b506104a460065481565b348015610df657600080fd5b506104336135d3565b348015610e0b57600080fd5b506104a4610e1a366004614f96565b602080526000908152604090205481565b348015610e3757600080fd5b506104a460095481565b348015610e4d57600080fd5b50610433610e5c366004614f96565b613724565b348015610e6d57600080fd5b5061045a610e7c366004615260565b6014602052600090815260409020546001600160a01b031681565b348015610ea357600080fd5b506104a4610eb2366004614f96565b601b6020526000908152604090205481565b348015610ed057600080fd5b50600b5461045a906001600160a01b031681565b348015610ef057600080fd5b506104a4610eff366004615260565b60256020526000908152604090205481565b600b546001600160a01b03163314610f445760405162461bcd60e51b8152600401610f3b90615767565b60405180910390fd5b600b546001600160a01b03166000908152601c60205260408082205490519091339183156108fc0291849190818181858888f19350505050158015610f8d573d6000803e3d6000fd5b5050600b80546001600160a01b039081166000908152601c60209081526040808320839055845484168352601e825280832083905593549092168152601d90915290812055565b60008181805b8251811015611044576000838281518110610ff757610ff761578c565b016020015160f81c905060308110801590611013575060398111155b1561103b576110236030826157b8565b61102e84600a6157cb565b61103891906157e2565b92505b50600101610fda565b509392505050565b6001600160a01b0381166000908152602a6020526040812054606091906001600160401b0381111561108057611080614fb3565b6040519080825280602002602001820160405280156110a9578160200160208202803683370190505b50905060005b6001600160a01b0384166000908152602a6020526040902054811015611129576001600160a01b0384166000908152602a602052604090208054829081106110f9576110f961578c565b90600052602060002001548282815181106111165761111661578c565b60209081029190910101526001016110af565b5092915050565b606083600061113f85856157b8565b6001600160401b0381111561115657611156614fb3565b6040519080825280601f01601f191660200182016040528015611180576020820181803683370190505b509050845b848110156111e85782818151811061119f5761119f61578c565b01602001516001600160f81b031916826111b988846157b8565b815181106111c9576111c961578c565b60200101906001600160f81b031916908160001a905350600101611185565b5095945050505050565b336001600160a01b037f0000000000000000000000000000000000000000000000000000000000000000161461126a5760405162461bcd60e51b815260206004820152601f60248201527f6f6e6c792056524620563220777261707065722063616e2066756c66696c6c006044820152606401610f3b565b6112748282613735565b5050565b600b546001600160a01b031633146112a25760405162461bcd60e51b8152600401610f3b90615767565b600a80546001600160a01b0319166001600160a01b0392909216919091179055565b6000818152601560205260409020600381015434146112f55760405162461bcd60e51b8152600401610f3b906157f5565b6000600b820154600160a01b900460ff166006811115611317576113176155ad565b148061134257506005600b820154600160a01b900460ff166006811115611340576113406155ad565b145b6113855760405162461bcd60e51b81526020600482015260146024820152734f7468657220706c6179657220706c6179696e6760601b6044820152606401610f3b565b6040805160018082528183019092526000916020808301908036833701905050905083816000815181106113bb576113bb61578c565b6020908102919091010152600b8201805460ff60a01b1916600160a21b1790556113e783333484613948565b6113f2838533613b8c565b50505050565b600d5460ff16156114405760405162461bcd60e51b815260206004820152601260248201527172657175697265642063616c6c207472756560701b6044820152606401610f3b565b600d805460ff191660011790556000611457613c1d565b90506113f2816001613d6d565b600d5460405163efd4606560e01b81523360048201526101009091046001600160a01b03169063efd4606590602401602060405180830381865afa1580156114b0573d6000803e3d6000fd5b505050506040513d601f19601f820116820180604052508101906114d49190615820565b6115205760405162461bcd60e51b815260206004820152601860248201527f4e6f74206120726567697374657265642063726561746f7200000000000000006044820152606401610f3b565b600d54604051631f2182c960e31b81523360048201528b9161010090046001600160a01b03169063f90c164890602401602060405180830381865afa15801561156d573d6000803e3d6000fd5b505050506040513d601f19601f82011682018060405250810190611591919061583d565b11156115ea5760405162461bcd60e51b815260206004820152602260248201527f4e6f7420616c6c6f776564206d696e696d756d2077696e6e696e6720616d6f756044820152611b9d60f21b6064820152608401610f3b565b600d5460405163b0a9279160e01b81523360048201528b9161010090046001600160a01b03169063b0a9279190602401602060405180830381865afa158015611637573d6000803e3d6000fd5b505050506040513d601f19601f8201168201806040525081019061165b919061583d565b10156116b45760405162461bcd60e51b815260206004820152602260248201527f4e6f7420616c6c6f776564206d6178696d756d2077696e6e696e6720616d6f756044820152611b9d60f21b6064820152608401610f3b565b6040516370a0823160e01b81523060048201526001907f00000000000000000000000000000000000000000000000000000000000000006001600160a01b0316906370a0823190602401602060405180830381865afa15801561171b573d6000803e3d6000fd5b505050506040513d601f19601f8201168201806040525081019061173f919061583d565b101561175d5760405162461bcd60e51b8152600401610f3b90615856565b60008a1161179e5760405162461bcd60e51b815260206004820152600e60248201526d4c6f7720746f74616c507269636560901b6044820152606401610f3b565b6117c260646004548c6117b191906157cb565b6117bb91906158b7565b8b90613f1a565b34146118065760405162461bcd60e51b8152602060048201526013602482015272416d6f756e74206e6f74206d61746368696e6760681b6044820152606401610f3b565b858b11156118495760405162461bcd60e51b815260206004820152601060248201526f6361706163697479206973206c65737360801b6044820152606401610f3b565b4289101561188d5760405162461bcd60e51b815260206004820152601160248201527014dd185c9d081d1a5b59481c185cdcd959607a1b6044820152606401610f3b565b8789106118dc5760405162461bcd60e51b815260206004820152601d60248201527f456e642074696d65206c657373207468616e2073746172742074696d650000006044820152606401610f3b565b60008160038111156118f0576118f06155ad565b148061190d5750600181600381111561190b5761190b6155ad565b145b1561195a578a60011461195a5760405162461bcd60e51b815260206004820152601560248201527413db9b1e480c481b9d5b58995c88185b1b1bddd959605a1b6044820152606401610f3b565b600381600381111561196e5761196e6155ad565b036119c457600a8b11156119c45760405162461bcd60e51b815260206004820152601c60248201527f204f6e6c7920313020636f6d62696e6174696f6e20616c6c6f776564000000006044820152606401610f3b565b600280546000908152601660205260409020600501805461ffff19166001179055546119fb908d8d8d8d8d8d8d8d8c8e8d33613f2d565b6002546000908152601560205260409020600d01805482919060ff19166001836003811115611a2c57611a2c6155ad565b02179055506064611a488d611a428d600a61422e565b9061423a565b611a5291906158b7565b611a5c8b8e61423a565b611a6691906157e2565b60025460009081526015602052604080822060050192909255600d54915163244903d160e21b8152336004820152909161010090046001600160a01b0316906391240f4490602401602060405180830381865afa158015611acb573d6000803e3d6000fd5b505050506040513d601f19601f82011682018060405250810190611aef91906158cb565b90506001600160a01b03811615611b4857611b0b8b606461423a565b6001600160a01b038216600090815260186020526040902054611b2e91906157e2565b6001600160a01b0382166000908152601860205260409020555b6003826003811115611b5c57611b5c6155ad565b14611b85576002546000908152601560205260409020600b01805460ff60a01b19169055611bb8565b600280546000908152601560205260408120600b01805460ff60a01b1916600360a11b1790559054611bb691613d6d565b505b7f7b34d9bed3342d423e2da4cd837bffe9ed9c7056e85ed014db0e52a47c94a113336002548f8e8e8e8e8a8a6003811115611bf557611bf56155ad565b604080516001600160a01b039a8b16815260208101999099528801969096526060870194909452608086019290925260a085015260c084015290921660e08201526101008101919091526101200160405180910390a160028054906000611c5b836158e8565b919050555050505050505050505050505050565b600b546001600160a01b03163314611c995760405162461bcd60e51b8152600401610f3b90615767565b6040516370a0823160e01b81523060048201526001600160a01b038216906370a0823190602401602060405180830381865afa158015611cdd573d6000803e3d6000fd5b505050506040513d601f19601f82011682018060405250810190611d01919061583d565b831115611d3e5760405162461bcd60e51b815260206004820152600b60248201526a6c6f772062616c616e636560a81b6044820152606401610f3b565b60405163a9059cbb60e01b81526001600160a01b0383811660048301526024820185905282169063a9059cbb906044016020604051808303816000875af1158015611d8d573d6000803e3d6000fd5b505050506040513d601f19601f820116820180604052508101906113f29190615820565b6000818152602460205260409020548214611e045760405162461bcd60e51b8152602060048201526013602482015272098dee8e8cae4f24092c840dad2e6dac2e8c6d606b1b6044820152606401610f3b565b6000828152601560205260409020600a8101546001600160a01b0316801561211a576004820154600554600090611e4390606490611a4290859061422e565b90506000611e518383614246565b6040519091506001600160a01b0385169082156108fc029083906000818181858888f19350505050158015611e8a573d6000803e3d6000fd5b50600b546001600160a01b0316600090815260208052604081208054839290611eb49084906157e2565b9091555050600b850154604080516001600160a01b0392831680825260208201859052928a92908816917f3eeb0636c95176c1ec01b2057bd7274d8ff9cae437a895fa7c9b6d35290af148910160405180910390a3600b546001600160a01b03166000908152601c602052604081208054859290611f339084906157e2565b9091555050600b546001600160a01b03166000908152601e602052604081208054859290611f629084906157e2565b9091555050600e8054906000611f77836158e8565b909155505060068601546000898152601f60205260408120549091611fa391606491611a42919061422e565b905080600f6000828254611fb791906157e2565b909155505060098701546001600160a01b03166000908152602f602052604081208054839290611fe89084906157e2565b909155505060098701546040516001600160a01b039091169082156108fc029083906000818181858888f19350505050158015612029573d6000803e3d6000fd5b506000898152601f60205260409020546120449082906157b8565b600b8801546001600160a01b03166000908152601b6020526040812080549091906120709084906157b8565b90915550506000898152601f602052604090205461208f9082906157b8565b600b8801546001600160a01b03166000908152601a6020526040812080549091906120bb9084906157e2565b90915550506009870154600b880154604080516001600160a01b039283168152602081018590528c9392909216917f20e787dfda3ac1418c7882f60c18b94d602d3dd46995ea36ede0ae9938ae0975910160405180910390a350505050505b5050600d805460ff191690555050565b336000908152601a602052604081205460055490919061215290606490611a4290859061422e565b905060006121608383614246565b604051909150339082156108fc029083906000818181858888f19350505050158015612190573d6000803e3d6000fd5b50600b546001600160a01b03166000908152601c6020526040812080548492906121bb9084906157e2565b9091555050336000908152601c6020526040812080548392906121df9084906157e2565b9091555050336000908152601a6020526040812055505050565b6000818152601560205260408120600c8101546060928392916001600160401b0381111561222957612229614fb3565b604051908082528060200260200182016040528015612252578160200160208202803683370190505b506001830154600c84015491925060009161226d91906157cb565b6001600160401b0381111561228457612284614fb3565b6040519080825280602002602001820160405280156122ad578160200160208202803683370190505b50905060008060005b600c8601548110156124445785600c0181815481106122d7576122d761578c565b60009182526020909120600490910201546001600160a01b031685846122fc816158e8565b95508151811061230e5761230e61578c565b6001600160a01b03909216602092830291909101909101526003600d87015460ff166003811115612341576123416155ad565b146123ce5760005b86600101548110156123c85786600c01828154811061236a5761236a61578c565b9060005260206000209060040201600301818154811061238c5761238c61578c565b90600052602060002001548584806123a3906158e8565b9550815181106123b5576123b561578c565b6020908102919091010152600101612349565b5061243c565b85600c0181815481106123e3576123e361578c565b90600052602060002090600402016003016000815481106124065761240661578c565b906000526020600020015484838061241d906158e8565b94508151811061242f5761242f61578c565b6020026020010181815250505b6001016122b6565b50919792965091945050505050565b6040516370a0823160e01b815230600482015260009060609082906001907f00000000000000000000000000000000000000000000000000000000000000006001600160a01b0316906370a0823190602401602060405180830381865afa1580156124c2573d6000803e3d6000fd5b505050506040513d601f19601f820116820180604052508101906124e6919061583d565b10156125045760405162461bcd60e51b8152600401610f3b90615856565b600d5460ff16156125505760405162461bcd60e51b8152602060048201526016602482015275416e6f7468657220526573756c742072756e6e696e6760501b6044820152606401610f3b565b612558613c1d565b9050801561256557600192505b50506040805160208101909152600081529250929050565b600b546001600160a01b031633146125a75760405162461bcd60e51b8152600401610f3b90615767565b6001600160a01b0381166125ba57600080fd5b600b80546001600160a01b0319166001600160a01b0392909216919091179055565b6013602052600090815260409020805481906125f790615901565b80601f016020809104026020016040519081016040528092919081815260200182805461262390615901565b80156126705780601f1061264557610100808354040283529160200191612670565b820191906000526020600020905b81548152906001019060200180831161265357829003601f168201915b50505050509080600101805461268590615901565b80601f01602080910402602001604051908101604052809291908181526020018280546126b190615901565b80156126fe5780601f106126d3576101008083540402835291602001916126fe565b820191906000526020600020905b8154815290600101906020018083116126e157829003601f168201915b5050506002840154600385018054949560ff90921694919350915061272290615901565b80601f016020809104026020016040519081016040528092919081815260200182805461274e90615901565b801561279b5780601f106127705761010080835404028352916020019161279b565b820191906000526020600020905b81548152906001019060200180831161277e57829003601f168201915b505050506004830154600584015460069094015492936001600160a01b039091169290915087565b6001546001600160a01b031633146128165760405162461bcd60e51b815260206004820152601660248201527526bab9ba10313290383937b837b9b2b21037bbb732b960511b6044820152606401610f3b565b60008054336001600160a01b0319808316821784556001805490911690556040516001600160a01b0390921692909183917f8be0079c531659141344cd1fd0a4f28419497f9722a3daafe3b4186f6b6457e091a350565b600b546001600160a01b031633146128975760405162461bcd60e51b8152600401610f3b90615767565b600494909455600592909255600755600655600855565b60008181526015602090815260408083206016909252909120600382015434146128ea5760405162461bcd60e51b8152600401610f3b906157f5565b6040805160018082528183019092526000916020808301908036833701905050905061291585610fd4565b816000815181106129285761292861578c565b60200260200101818152505061294084333484613948565b600084815260296020526040902080546129e291879161295f90615901565b80601f016020809104026020016040519081016040528092919081815260200182805461298b90615901565b80156129d85780601f106129ad576101008083540402835291602001916129d8565b820191906000526020600020905b8154815290600101906020018083116129bb57829003601f168201915b5050505050614252565b15612ae2577fafff1d58f304accd1464197b65b86cb5b77485ec7694a50a4cd755ee01f8c1cf60005260246020527f9ad8c449d60cfe4294be548d5ad541543a5d08782ee7f3abab9511dc23db4449849055600b830180546002919060ff60a01b1916600160a01b830217905550600a830180546001600160a01b03191633179055612a8e847fafff1d58f304accd1464197b65b86cb5b77485ec7694a50a4cd755ee01f8c1cf611db1565b600b83015460405185917fb7e9a48cbb7529b6117347e16cba725731bb1a27fdbd3b3fd97e98a8c2409b5091612ad59133916001600160a01b039091169042908b9061593b565b60405180910390a2612af7565b8160030154421115612af757612af7846142ab565b5050505050565b600b546001600160a01b03163314612b285760405162461bcd60e51b8152600401610f3b90615767565b6040516370a0823160e01b81523060048201527f00000000000000000000000000000000000000000000000000000000000000006001600160a01b03169063a9059cbb90339083906370a0823190602401602060405180830381865afa158015612b96573d6000803e3d6000fd5b505050506040513d601f19601f82011682018060405250810190612bba919061583d565b6040516001600160e01b031960e085901b1681526001600160a01b03909216600483015260248201526044016020604051808303816000875af1158015612c05573d6000803e3d6000fd5b505050506040513d601f19601f82011682018060405250810190612c299190615820565b612c6a5760405162461bcd60e51b81526020600482015260126024820152712ab730b13632903a37903a3930b739b332b960711b6044820152606401610f3b565b565b3360008181526018602052604080822054905190929183156108fc02918491818181858888f19350505050158015612ca8573d6000803e3d6000fd5b505033600090815260186020526040812055565b600081815260286020526040812054606091906001600160401b03811115612ce657612ce6614fb3565b604051908082528060200260200182016040528015612d0f578160200160208202803683370190505b5090506000805b600085815260286020526040902054811015612d88576000858152602860205260409020805482908110612d4c57612d4c61578c565b9060005260206000200154838380612d63906158e8565b945081518110612d7557612d7561578c565b6020908102919091010152600101612d16565b50909392505050565b6001600160a01b038216612da757612da7615978565b6001600160a01b0382811660009081526013602052604090206004015416612ede5760038054906000612dd9836158e8565b909155505060038054600090815260146020908152604080832080546001600160a01b0319166001600160a01b038816908117909155815160e0810183528b81528084018b905289151581840152606081018990526080810182905260a08101879052945460c086015283526013909152902081518190612e5a90826159db565b5060208201516001820190612e6f90826159db565b50604082015160028201805460ff191691151591909117905560608201516003820190612e9c90826159db565b5060808201516004820180546001600160a01b0319166001600160a01b0390921691909117905560a0820151600582015560c090910151600690910155612fc7565b6040805160e081018252878152602080820188905286151582840152606082018690526001600160a01b0385166080830181905260a0830185905260008181526013808452948120600681015460c086015291905292905280519091908190612f4790826159db565b5060208201516001820190612f5c90826159db565b50604082015160028201805460ff191691151591909117905560608201516003820190612f8990826159db565b5060808201516004820180546001600160a01b0319166001600160a01b0390921691909117905560a0820151600582015560c0909101516006909101555b7fc3a179c9aa91cfdc423543e35927dc2310ba28791deeda87a770191d653fbdd186868686864260405161300096959493929190615a9a565b60405180910390a1505050505050565b6028602052816000526040600020818154811061302c57600080fd5b90600052602060002001600091509150505481565b600c805461304e90615901565b80601f016020809104026020016040519081016040528092919081815260200182805461307a90615901565b80156130c75780601f1061309c576101008083540402835291602001916130c7565b820191906000526020600020905b8154815290600101906020018083116130aa57829003601f168201915b505050505081565b6001600160a01b0381166000908152602c6020526040812054606091906001600160401b0381111561310357613103614fb3565b60405190808252806020026020018201604052801561312c578160200160208202803683370190505b50905060005b6001600160a01b0384166000908152602c6020526040902054811015611129576001600160a01b0384166000908152602c6020526040902080548290811061317c5761317c61578c565b90600052602060002001548282815181106131995761319961578c565b6020908102919091010152600101613132565b600d546040516291a5bd60e11b815233600482015260009182916101009091046001600160a01b0316906301234b7a90602401602060405180830381865afa1580156131fc573d6000803e3d6000fd5b505050506040513d601f19601f82011682018060405250810190613220919061583d565b600b546001600160a01b03166000908152601c602052604090205461324591906157e2565b92915050565b6001600160a01b0381166000908152602b6020526040812054606091906001600160401b0381111561327f5761327f614fb3565b6040519080825280602002602001820160405280156132a8578160200160208202803683370190505b50905060005b6001600160a01b0384166000908152602b6020526040902054811015611129576001600160a01b0384166000908152602b602052604090208054829081106132f8576132f861578c565b90600052602060002001548282815181106133155761331561578c565b60209081029190910101526001016132ae565b600b546001600160a01b031633146133525760405162461bcd60e51b8152600401610f3b90615767565b60405133904780156108fc02916000818181858888f1935050505015801561337e573d6000803e3d6000fd5b50565b60008181526015602090815260408083206016909252909120600382015434146133bd5760405162461bcd60e51b8152600401610f3b906157f5565b81600101548451146134075760405162461bcd60e51b81526020600482015260136024820152721cdb1bdd1cc81cda5e99481b9bdd081b59595d606a1b6044820152606401610f3b565b604080516020810190915260008082525b855181101561346f576134438682815181106134365761343661578c565b6020026020010151614408565b82604051602001613455929190615afa565b60408051601f198184030181529190529150600101613418565b508061347a85614408565b60405160200161348b929190615b36565b604051602081830303815290604052905060006001600160a01b0316602e826040516134b79190615b65565b908152604051908190036020019020546001600160a01b03161461350c5760405162461bcd60e51b815260206004820152600c60248201526b105b1c9958591e481cdbdb1960a21b6044820152606401610f3b565b33602e8260405161351d9190615b65565b90815260405190819003602001902080546001600160a01b03929092166001600160a01b0319909216919091179055600382015442111561356157613561846142ab565b61356d84333488613948565b6001600d84015460ff166003811115613588576135886155ad565b03612af75760008481526028602052604081208651909187916135ad576135ad61578c565b602090810291909101810151825460018101845560009384529190922001555050505050565b600a546040516370a0823160e01b81523060048201526001600160a01b03909116906370a0823190602401602060405180830381865afa15801561361b573d6000803e3d6000fd5b505050506040513d601f19601f8201168201806040525081019061363f919061583d565b33600090815260216020526040902054111561368b5760405162461bcd60e51b815260206004820152600b60248201526a6c6f772062616c616e636560a81b6044820152606401610f3b565b600a54336000818152602160205260409081902054905163a9059cbb60e01b8152600481019290925260248201526001600160a01b039091169063a9059cbb906044016020604051808303816000875af11580156136ed573d6000803e3d6000fd5b505050506040513d601f19601f820116820180604052508101906137119190615820565b5033600090815260216020526040812055565b61372c614510565b61337e81614563565b6000828152601260205260409020546137845760405162461bcd60e51b81526020600482015260116024820152701c995c5d595cdd081b9bdd08199bdd5b99607a1b6044820152606401610f3b565b60008281526012602090815260409091206001818101805460ff1916909117905582516137b992600290920191840190614f2a565b50806000815181106137cd576137cd61578c565b6020908102919091018101516000848152602583526040808220929092556012909252902060010154610100900460ff16156138295760008281526025602090815260408083205460249092529091205461127491908461460c565b600061384e826000815181106138415761384161578c565b6020026020010151614796565b600084815260246020908152604080832054835260158252808320600101549051939450919261ffff85169161388a9142913391889101615b81565b6040516020818303038152906040528051906020012060001c6138ad9190615bb6565b6138b791906157b8565b905060006138ff6138d4856000815181106134365761343661578c565b60008781526024602090815260408083205483526015909152902060010154849061055d90826157e2565b60008681526024602090815260408083208054845260158352818420600b01805460ff60a01b191690555483526029909152902090915061394082826159db565b505050505050565b6000848152601560209081526040808320602d83528184206001600160a01b03881685529092528220805491926001926139839084906157e2565b9091555050604080516080810182526001600160a01b03868116825242602080840191825293830189815260608401878152600c8701805460018082018355600092835291889020875160049092020180546001600160a01b0319169190961617855592519284019290925551600283015551805192939192613a0c9260038501920190614f2a565b5050506001600160a01b03841660009081526017602052604081208054859290613a379084906157e2565b9091555050600954613a4a9060016157e2565b6009556000858152601f602052604081208054859290613a6b9084906157e2565b9091555050600b8101546001600160a01b03166000908152601b602052604081208054859290613a9c9084906157e2565b90915550506001600160a01b0384166000908152602a6020908152604080832080546001810182559084528284200188905587835260239091528120805491613ae4836158e8565b9190505550613b0060646007548360030154611a4291906157cb565b6001600160a01b03851660009081526021602052604081208054909190613b289084906157e2565b9091555050600b81015460038201546040516001600160a01b039283169287169188917e847ee71f38f0cd3d8b3c9bf61603d5865cecbbe35f9b88efad5c3419e1555991613b7c9186918991429190615bca565b60405180910390a3505050505050565b6000613b99846001613d6d565b6000818152602660208181526040808420888155602783529381902080546001600160a01b0319166001600160a01b038916908117909155928252925483519283529082015290810185905290915084907f44b090dfa5478bf5e2ea21c76ba7baf4ab87bb8f6dcfd5f4e220c1cac931868e9060600160405180910390a250505050565b600060015b600254811015613d695760026000828152601560205260409020600d015460ff166003811115613c5457613c546155ad565b03613cce5760026000828152601560205260409020600b0154600160a01b900460ff166006811115613c8857613c886155ad565b14613cce5760008181526023602090815260408083205460159092529091206005015411613cce57600081815260166020526040902060030154421115613cce57919050565b60016000828152601560205260409020600d015460ff166003811115613cf657613cf66155ad565b148015613d1e5750600081815260156020908152604080832060020154602390925290912054145b8015613d57575060026000828152601560205260409020600b0154600160a01b900460ff166006811115613d5457613d546155ad565b14155b15613d6157919050565b600101613c22565b5090565b6011546000908190613da09063ffffffff8082169161ffff640100000000820416916601000000000000909104166147c8565b60008181526024602052604090819020869055805160808101918290526011546310c1b4d560e21b90925263ffffffff9091166084820152909150807f00000000000000000000000000000000000000000000000000000000000000006001600160a01b0316634306d35460a48301602060405180830381865afa158015613e2c573d6000803e3d6000fd5b505050506040513d601f19601f82011682018060405250810190613e50919061583d565b815260006020808301829052861515604080850191909152805183815291820190526060909201919050905260008281526012602090815260409182902083518155838201516001820180549486015115156101000261ff00199215159290921661ffff19909516949094171790925560608301518051613ed79260028501920190614f2a565b505060408051838152602081018790527f9d2f3d98e62a8a1461b32e23b34b5d304f7b9a67c9b4c3af7641e61f53b8706a92500160405180910390a19392505050565b6000613f2682846157e2565b9392505050565b81601560008f815260200190815260200160002060090160006101000a8154816001600160a01b0302191690836001600160a01b031602179055508c601560008f81526020019081526020016000206000018190555084601560008f8152602001908152602001600020600701819055508b601560008f8152602001908152602001600020600301819055508a601560008f81526020019081526020016000206001018190555089601560008f81526020019081526020016000206004018190555088601660008f81526020019081526020016000206001018190555087601660008f8152602001908152602001600020600201819055508c601660008f81526020019081526020016000206000018190555086601660008f81526020019081526020016000206003018190555082601660008f81526020019081526020016000206004018190555042601560008f81526020019081526020016000206008018190555085601560008f81526020019081526020016000206002018190555080601560008f8152602001908152602001600020600b0160006101000a8154816001600160a01b0302191690836001600160a01b0316021790555083601560008f815260200190815260200160002060060181905550602c6000826001600160a01b03166001600160a01b031681526020019081526020016000208d9080600181540180825580915050600190039060005260206000200160009091909190915055602b6000836001600160a01b03166001600160a01b031681526020019081526020016000208d90806001815401808255809150506001900390600052602060002001600090919091909150556141ad60646004548c611a4291906157cb565b600b546001600160a01b03166000908152601d6020526040812080549091906141d79084906157e2565b90915550506004546141f090606490611a42908d6157cb565b600b546001600160a01b03166000908152601c60205260408120805490919061421a9084906157e2565b909155505050505050505050505050505050565b6000613f2682846157cb565b6000613f2682846158b7565b6000613f2682846157b8565b6000816040516020016142659190615b65565b604051602081830303815290604052805190602001208360405160200161428c9190615b65565b6040516020818303038152906040528051906020012014905092915050565b60008181526015602090815260408083206016909252909120600b82015460058201546001600160a01b03909116906142e99061ffff166001615c01565b60058301805461ffff191661ffff929092169190911790556004820154600383015461431491613f1a565b6003830155600b8301805460ff60a01b1916600560a01b17905560078301546000858152601f60205260409020546143629161435791606491611a42919061422e565b600485015490613f1a565b600484015560078301546000858152601f602052604090205461438b91606491611a429161422e565b600b8401546001600160a01b03166000908152601b6020526040812080549091906143b79084906157b8565b9091555050600482015460078401546040517f01edc524adcdf855d2c2bd191a6394a50db23d0eba2534bb50789ef594e2519b926143fa92859289929190615c1c565b60405180910390a150505050565b60608160000361442f5750506040805180820190915260018152600360fc1b602082015290565b8160005b81156144595780614443816158e8565b91506144529050600a836158b7565b9150614433565b6000816001600160401b0381111561447357614473614fb3565b6040519080825280601f01601f19166020018201604052801561449d576020820181803683370190505b5090505b8415614508576144b26001836157b8565b91506144bf600a86615bb6565b6144ca9060306157e2565b60f81b8183815181106144df576144df61578c565b60200101906001600160f81b031916908160001a905350614501600a866158b7565b94506144a1565b949350505050565b6000546001600160a01b03163314612c6a5760405162461bcd60e51b815260206004820152601660248201527527b7363c9031b0b63630b1363290313c9037bbb732b960511b6044820152606401610f3b565b336001600160a01b038216036145bb5760405162461bcd60e51b815260206004820152601760248201527f43616e6e6f74207472616e7366657220746f2073656c660000000000000000006044820152606401610f3b565b600180546001600160a01b0319166001600160a01b0383811691821790925560008054604051929316917fed8889f560326eb138920d842192f0eb3dd22b4f139c87a2c57538e05bae12789190a350565b60008281526015602052604090206002600d82015460ff166003811115614635576146356155ad565b148061465957506001600d82015460ff166003811115614657576146576155ad565b145b1561467857614673838583600201548460010154866149a1565b61477b565b6002810154614688908590614d15565b9350614695846001613f1a565b600083815260276020908152604080832054600b86015460269093529281902054905193975086936001600160a01b03938416937fe9fde21d121526866129ab4026662522f75fd0c8f3cb5101e9aab2b843f0a1ac936146fb939116918a904290615c1c565b60405180910390a360008281526026602052604090205484900361476857600b8101805460ff60a01b1916600160a11b179055600082815260276020526040902054600a820180546001600160a01b0319166001600160a01b039092169190911790556146738383611db1565b600d805460ff1916905561477b83614d21565b6010805490600061478b836158e8565b919050555050505050565b6000805b82156147bf576147ab600a846158b7565b9250806147b781615c42565b91505061479a565b60ff1692915050565b6040516310c1b4d560e21b815263ffffffff841660048201526000906001600160a01b037f0000000000000000000000000000000000000000000000000000000000000000811691634000aea0917f00000000000000000000000000000000000000000000000000000000000000009190821690634306d35490602401602060405180830381865afa158015614862573d6000803e3d6000fd5b505050506040513d601f19601f82011682018060405250810190614886919061583d565b6040805163ffffffff808b16602083015261ffff8a169282019290925290871660608201526080016040516020818303038152906040526040518463ffffffff1660e01b81526004016148db93929190615c61565b6020604051808303816000875af11580156148fa573d6000803e3d6000fd5b505050506040513d601f19601f8201168201806040525081019061491e9190615820565b507f00000000000000000000000000000000000000000000000000000000000000006001600160a01b031663fc2a88c36040518163ffffffff1660e01b8152600401602060405180830381865afa15801561497d573d6000803e3d6000fd5b505050506040513d601f19601f82011682018060405250810190614508919061583d565b6000858152601560209081526040808320815192830190915282825291806149c888614796565b90506000808261ffff166001600160401b038111156149e9576149e9614fb3565b604051908082528060200260200182016040528015614a12578160200160208202803683370190505b5090505b87841015614bae57600061ffff8416614a2f84426157e2565b3386604051602001614a4393929190615b81565b6040516020818303038152906040528051906020012060001c614a669190615bb6565b905060006002614a7685426157e2565b6040805160208101929092526bffffffffffffffffffffffff193360601b1690820152605481018890526074016040516020818303038152906040528051906020012060001c614ac69190615bb6565b90506000614aec614ad68e614408565b84614ae185826157e2565b61055d9060016157e2565b90506000614af982610fd4565b118015614b0e57508b614b0b82610fd4565b11155b8015614b3b575083614b1f82610fd4565b81518110614b2f57614b2f61578c565b60200260200101516000145b15614b99578088604051602001614b53929190615afa565b6040516020818303038152906040529750600184614b7083610fd4565b81518110614b8057614b8061578c565b602090810291909101015286614b95816158e8565b9750505b84614ba3816158e8565b955050505050614a16565b84614bb88c614408565b604051602001614bc9929190615b36565b60408051601f198184030181529190529450600c614be786826159db565b5060006001600160a01b0316602e86604051614c039190615b65565b908152604051908190036020019020546001600160a01b031614614cf457600b8601805460ff60a01b1916600160a11b179055604051602e90614c47908790615b65565b90815260405190819003602001812054600a880180546001600160a01b0319166001600160a01b039092169190911790558b907fb7e9a48cbb7529b6117347e16cba725731bb1a27fdbd3b3fd97e98a8c2409b5090602e90614caa908990615b65565b90815260405190819003602001812054600b8a0154614cdd926001600160a01b0392831692919091169042908b9061593b565b60405180910390a2614cef8b88611db1565b614d08565b614cfd8b6142ab565b600d805460ff191690555b5050505050505050505050565b6000613f268284615bb6565b6000818152601560209081526040808320601690925282206007820154600383015492939192614d5791606491611a429161422e565b8360040154614d6691906157e2565b90506006548110614f1157614dda60025484600301548560010154848660010154876002015488600301548a600201548b600701548c600601548c600401548e60090160009054906101000a90046001600160a01b03168f600b0160009054906101000a90046001600160a01b0316613f2d565b600b838101805460ff60a01b19908116600360a01b17909155600280546000908152601560205260408082209094018054909316600560a01b17909255600d808701549154835292909120909101805460ff9092169160ff19166001836003811115614e4857614e486155ad565b02179055506005808401546002546000908152601560205260409020820155820154614e799061ffff166001615c01565b60025460009081526016602052604090819020600501805461ffff191661ffff9390931692909217909155600b8401546004840154600786015492517f01edc524adcdf855d2c2bd191a6394a50db23d0eba2534bb50789ef594e2519b93614eef936001600160a01b0316928992909190615c1c565b60405180910390a160028054906000614f07836158e8565b91905055506113f2565b5050600b01805460ff60a01b1916600160a01b17905550565b828054828255906000526020600020908101928215614f65579160200282015b82811115614f65578251825591602001919060010190614f4a565b50613d699291505b80821115613d695760008155600101614f6d565b6001600160a01b038116811461337e57600080fd5b600060208284031215614fa857600080fd5b8135613f2681614f81565b634e487b7160e01b600052604160045260246000fd5b604051601f8201601f191681016001600160401b0381118282101715614ff157614ff1614fb3565b604052919050565b600082601f83011261500a57600080fd5b81356001600160401b0381111561502357615023614fb3565b615036601f8201601f1916602001614fc9565b81815284602083860101111561504b57600080fd5b816020850160208301376000918101602001919091529392505050565b60006020828403121561507a57600080fd5b81356001600160401b0381111561509057600080fd5b61450884828501614ff9565b60008151808452602080850194506020840160005b838110156150cd578151875295820195908201906001016150b1565b509495945050505050565b602081526000613f26602083018461509c565b60008060006060848603121561510057600080fd5b83356001600160401b0381111561511657600080fd5b61512286828701614ff9565b9660208601359650604090950135949350505050565b60005b8381101561515357818101518382015260200161513b565b50506000910152565b60008151808452615174816020860160208601615138565b601f01601f19169290920160200192915050565b602081526000613f26602083018461515c565b600082601f8301126151ac57600080fd5b813560206001600160401b038211156151c7576151c7614fb3565b8160051b6151d6828201614fc9565b92835284810182019282810190878511156151f057600080fd5b83870192505b8483101561520f578235825291830191908301906151f6565b979650505050505050565b6000806040838503121561522d57600080fd5b8235915060208301356001600160401b0381111561524a57600080fd5b6152568582860161519b565b9150509250929050565b60006020828403121561527257600080fd5b5035919050565b6000806040838503121561528c57600080fd5b82359150602083013561529e81614f81565b809150509250929050565b600080604083850312156152bc57600080fd5b50508035926020909101359150565b600080602083850312156152de57600080fd5b82356001600160401b03808211156152f557600080fd5b818501915085601f83011261530957600080fd5b81358181111561531857600080fd5b86602082850101111561532a57600080fd5b60209290920196919550909350505050565b6000806000806000806000806000806000806101808d8f03121561535f57600080fd5b8c359b5060208d01359a5060408d0135995060608d0135985060808d0135975060a08d0135965060c08d0135955060e08d013594506101008d013593506101208d013592506101408d01356153b381614f81565b91506101608d0135600481106153c857600080fd5b809150509295989b509295989b509295989b565b6000806000606084860312156153f157600080fd5b83359250602084013561540381614f81565b9150604084013561541381614f81565b809150509250925092565b604081526000615431604083018561509c565b82810360208481019190915284518083528582019282019060005b818110156154715784516001600160a01b03168352938301939183019160010161544c565b5090979650505050505050565b801515811461337e57600080fd5b60006020828403121561549e57600080fd5b8135613f268161547e565b8215158152604060208201526000614508604083018461515c565b60e0815260006154d760e083018a61515c565b82810360208401526154e9818a61515c565b905087151560408401528281036060840152615505818861515c565b6001600160a01b03969096166080840152505060a081019290925260c090910152949350505050565b600080600080600060a0868803121561554657600080fd5b505083359560208501359550604085013594606081013594506080013592509050565b6000806040838503121561557c57600080fd5b82356001600160401b0381111561559257600080fd5b61559e85828601614ff9565b95602094909401359450505050565b634e487b7160e01b600052602160045260246000fd5b600781106155d3576155d36155ad565b9052565b600481106155d3576155d36155ad565b8e8152602081018e9052604081018d9052606081018c9052608081018b905260a081018a905260c0810189905260e0810188905261010081018790526001600160a01b0386811661012083015285811661014083015284166101608201526101c081016156586101808301856155c3565b6156666101a08301846155d7565b9f9e505050505050505050505050505050565b60008060008060008060c0878903121561569257600080fd5b86356001600160401b03808211156156a957600080fd5b6156b58a838b01614ff9565b975060208901359150808211156156cb57600080fd5b6156d78a838b01614ff9565b9650604089013591506156e98261547e565b909450606088013590808211156156ff57600080fd5b5061570c89828a01614ff9565b935050608087013561571d81614f81565b8092505060a087013590509295509295509295565b6000806040838503121561574557600080fd5b82356001600160401b0381111561575b57600080fd5b61559e8582860161519b565b6020808252600b908201526a3737ba16b096b0b236b4b760a91b604082015260600190565b634e487b7160e01b600052603260045260246000fd5b634e487b7160e01b600052601160045260246000fd5b81810381811115613245576132456157a2565b8082028115828204841417613245576132456157a2565b80820180821115613245576132456157a2565b602080825260119082015270115b9d1c9e48119959481b9bdd081b595d607a1b604082015260600190565b60006020828403121561583257600080fd5b8151613f268161547e565b60006020828403121561584f57600080fd5b5051919050565b6020808252602b908201527f4e6f7420656e6f756768204c494e4b202d2066696c6c20636f6e74726163742060408201526a1dda5d1a0819985d58d95d60aa1b606082015260800190565b634e487b7160e01b600052601260045260246000fd5b6000826158c6576158c66158a1565b500490565b6000602082840312156158dd57600080fd5b8151613f2681614f81565b6000600182016158fa576158fa6157a2565b5060010190565b600181811c9082168061591557607f821691505b60208210810361593557634e487b7160e01b600052602260045260246000fd5b50919050565b6001600160a01b038581168252841660208201526040810183905260806060820181905260009061596e9083018461515c565b9695505050505050565b634e487b7160e01b600052600160045260246000fd5b601f8211156159d6576000816000526020600020601f850160051c810160208610156159b75750805b601f850160051c820191505b81811015613940578281556001016159c3565b505050565b81516001600160401b038111156159f4576159f4614fb3565b615a0881615a028454615901565b8461598e565b602080601f831160018114615a3d5760008415615a255750858301515b600019600386901b1c1916600185901b178555613940565b600085815260208120601f198616915b82811015615a6c57888601518255948401946001909101908401615a4d565b5085821015615a8a5787850151600019600388901b60f8161c191681555b5050505050600190811b01905550565b60c081526000615aad60c083018961515c565b8281036020840152615abf818961515c565b905086151560408401528281036060840152615adb818761515c565b6001600160a01b03959095166080840152505060a00152949350505050565b60008351615b0c818460208801615138565b602d60f81b9083019081528351615b2a816001840160208801615138565b01600101949350505050565b60008351615b48818460208801615138565b835190830190615b5c818360208801615138565b01949350505050565b60008251615b77818460208701615138565b9190910192915050565b92835260609190911b6bffffffffffffffffffffffff1916602083015260f01b6001600160f01b031916603482015260360190565b600082615bc557615bc56158a1565b500690565b6001600160a01b0385168152608060208201819052600090615bee9083018661509c565b6040830194909452506060015292915050565b61ffff818116838216019080821115611129576111296157a2565b6001600160a01b0394909416845260208401929092526040830152606082015260800190565b600060ff821660ff8103615c5857615c586157a2565b60010192915050565b60018060a01b0384168152826020820152606060408201526000615c88606083018461515c565b9594505050505056fea26469706673582212201c39737368eca4088e6dcf3d994fda58a1d1e47b88a0df707a2d0d92ce456a5364736f6c63430008160033",
  "linkReferences": {},
  "deployedLinkReferences": {}
}