{"Contract/Phase_3.1_ETH/LotteryContract.sol":{"Autobet":{"abi":[{"inputs":[{"internalType":"address","name":"_tokenAddress","type":"address"}],"stateMutability":"nonpayable","type":"constructor"},{"anonymous":false,"inputs":[{"indexed":true,"internalType":"uint256","name":"lotteryId","type":"uint256"},{"indexed":false,"internalType":"uint256","name":"entryfee","type":"uint256"},{"indexed":false,"internalType":"uint256","name":"picknumbers","type":"uint256"},{"indexed":false,"internalType":"uint256","name":"totalPrize","type":"uint256"},{"indexed":false,"internalType":"uint256","name":"capacity","type":"uint256"},{"indexed":true,"internalType":"address","name":"owner","type":"address"},{"indexed":false,"internalType":"uint256","name":"startTime","type":"uint256"},{"indexed":true,"internalType":"uint256","name":"ownerid","type":"uint256"}],"name":"CreatedLottery","type":"event"},{"anonymous":false,"inputs":[{"indexed":false,"internalType":"uint256[]","name":"numbers","type":"uint256[]"},{"indexed":true,"internalType":"uint256","name":"lotteryId","type":"uint256"},{"indexed":false,"internalType":"uint256","name":"boughtOn","type":"uint256"},{"indexed":true,"internalType":"address","name":"useraddress","type":"address"},{"indexed":false,"internalType":"uint256","name":"drawOn","type":"uint256"},{"indexed":false,"internalType":"uint256","name":"paid","type":"uint256"}],"name":"LotteryBought","type":"event"},{"anonymous":false,"inputs":[{"indexed":false,"internalType":"address","name":"useraddressdata","type":"address"},{"indexed":true,"internalType":"uint256","name":"lotteryId","type":"uint256"},{"indexed":false,"internalType":"uint256","name":"drawOn","type":"uint256"}],"name":"LotteryResult","type":"event"},{"anonymous":false,"inputs":[{"indexed":true,"internalType":"uint256","name":"ownerId","type":"uint256"},{"indexed":false,"internalType":"address","name":"_owner","type":"address"},{"indexed":false,"internalType":"string","name":"_name","type":"string"},{"indexed":false,"internalType":"address","name":"_referee","type":"address"}],"name":"RegisterBookie","type":"event"},{"anonymous":false,"inputs":[{"indexed":true,"internalType":"address","name":"useraddressdata","type":"address"},{"indexed":true,"internalType":"uint256","name":"lotteryId","type":"uint256"},{"indexed":false,"internalType":"uint256","name":"selectedNum","type":"uint256"},{"indexed":false,"internalType":"uint256","name":"winnerNum","type":"uint256"},{"indexed":false,"internalType":"uint256","name":"date","type":"uint256"}],"name":"SpinLotteryResult","type":"event"},{"anonymous":false,"inputs":[{"indexed":true,"internalType":"address","name":"useraddressdata","type":"address"},{"indexed":true,"internalType":"uint256","name":"lotteryId","type":"uint256"},{"indexed":false,"internalType":"uint256","name":"amountwon","type":"uint256"}],"name":"WinnerPaid","type":"event"},{"anonymous":false,"inputs":[{"indexed":false,"internalType":"uint256","name":"partnerId","type":"uint256"},{"indexed":false,"internalType":"string","name":"_name","type":"string"},{"indexed":false,"internalType":"string","name":"_LogoHash","type":"string"},{"indexed":false,"internalType":"bool","name":"status","type":"bool"},{"indexed":false,"internalType":"address","name":"_PartnerAddress","type":"address"},{"indexed":false,"internalType":"uint256","name":"_CreatedOn","type":"uint256"}],"name":"partneradded","type":"event"},{"inputs":[{"internalType":"string","name":"_name","type":"string"},{"internalType":"string","name":"_logoHash","type":"string"},{"internalType":"bool","name":"_status","type":"bool"},{"internalType":"address","name":"_partnerAddress","type":"address"},{"internalType":"uint256","name":"_createdOn","type":"uint256"}],"name":"EditPartnerDetails","outputs":[],"stateMutability":"nonpayable","type":"function"},{"inputs":[],"name":"RID","outputs":[{"internalType":"bytes32","name":"","type":"bytes32"}],"stateMutability":"view","type":"function"},{"inputs":[{"internalType":"string","name":"","type":"string"}],"name":"TicketsList","outputs":[{"internalType":"bool","name":"","type":"bool"}],"stateMutability":"view","type":"function"},{"inputs":[{"internalType":"address","name":"_owner","type":"address"},{"internalType":"address","name":"_referee","type":"address"},{"internalType":"string","name":"_name","type":"string"},{"internalType":"string","name":"_phoneno","type":"string"},{"internalType":"uint256","name":"_dob","type":"uint256"},{"internalType":"string","name":"_email","type":"string"},{"internalType":"string","name":"_resiAddress","type":"string"},{"internalType":"uint256","name":"_minPrize","type":"uint256"},{"internalType":"uint256","name":"_maxPrize","type":"uint256"}],"name":"addOrganisation","outputs":[],"stateMutability":"payable","type":"function"},{"inputs":[{"internalType":"string","name":"_name","type":"string"},{"internalType":"string","name":"_logoHash","type":"string"},{"internalType":"bool","name":"_status","type":"bool"},{"internalType":"address","name":"_partnerAddress","type":"address"},{"internalType":"uint256","name":"_createdOn","type":"uint256"}],"name":"addPartnerDetails","outputs":[],"stateMutability":"nonpayable","type":"function"},{"inputs":[],"name":"admin","outputs":[{"internalType":"address","name":"","type":"address"}],"stateMutability":"view","type":"function"},{"inputs":[{"internalType":"address","name":"","type":"address"}],"name":"amountspend","outputs":[{"internalType":"uint256","name":"","type":"uint256"}],"stateMutability":"view","type":"function"},{"inputs":[{"internalType":"address","name":"","type":"address"}],"name":"amountwon","outputs":[{"internalType":"uint256","name":"","type":"uint256"}],"stateMutability":"view","type":"function"},{"inputs":[],"name":"bregisterFee","outputs":[{"internalType":"uint256","name":"","type":"uint256"}],"stateMutability":"view","type":"function"},{"inputs":[{"internalType":"uint256[]","name":"numbers","type":"uint256[]"},{"internalType":"uint256","name":"lotteryid","type":"uint256"},{"internalType":"string","name":"hash","type":"string"}],"name":"buyNormalLottery","outputs":[],"stateMutability":"payable","type":"function"},{"inputs":[{"internalType":"uint256","name":"numbers","type":"uint256"},{"internalType":"uint256","name":"lotteryid","type":"uint256"}],"name":"buySpinnerLottery","outputs":[],"stateMutability":"payable","type":"function"},{"inputs":[],"name":"callresult","outputs":[{"internalType":"bool","name":"","type":"bool"}],"stateMutability":"view","type":"function"},{"inputs":[{"internalType":"bytes","name":"","type":"bytes"}],"name":"checkUpkeep","outputs":[{"internalType":"bool","name":"upkeepNeeded","type":"bool"},{"internalType":"bytes","name":"result","type":"bytes"}],"stateMutability":"view","type":"function"},{"inputs":[],"name":"contractBalance","outputs":[{"internalType":"uint256","name":"balance","type":"uint256"}],"stateMutability":"view","type":"function"},{"inputs":[{"internalType":"uint256","name":"entryfee","type":"uint256"},{"internalType":"uint256","name":"picknumbers","type":"uint256"},{"internalType":"uint256","name":"totalPrize","type":"uint256"},{"internalType":"uint256","name":"startTime","type":"uint256"},{"internalType":"uint256","name":"endtime","type":"uint256"},{"internalType":"uint256","name":"drawtime","type":"uint256"},{"internalType":"uint256","name":"capacity","type":"uint256"},{"internalType":"uint256","name":"partner","type":"uint256"},{"internalType":"uint256","name":"rolloverperct","type":"uint256"},{"internalType":"enum Autobet.LotteryType","name":"lottype","type":"uint8"}],"name":"createLottery","outputs":[],"stateMutability":"payable","type":"function"},{"inputs":[{"internalType":"uint256","name":"lotteryid","type":"uint256"}],"name":"getLotteryNumbers","outputs":[{"internalType":"uint256[]","name":"tickets","type":"uint256[]"},{"internalType":"address[]","name":"useraddress","type":"address[]"}],"stateMutability":"view","type":"function"},{"inputs":[{"internalType":"address","name":"useraddress","type":"address"}],"name":"getOrglotteries","outputs":[{"internalType":"uint256[]","name":"lotterids","type":"uint256[]"}],"stateMutability":"view","type":"function"},{"inputs":[{"internalType":"address","name":"useraddress","type":"address"}],"name":"getUserlotteries","outputs":[{"internalType":"uint256[]","name":"lotteryids","type":"uint256[]"}],"stateMutability":"view","type":"function"},{"inputs":[{"internalType":"uint256","name":"","type":"uint256"}],"name":"lottery","outputs":[{"internalType":"uint256","name":"lotteryId","type":"uint256"},{"internalType":"uint256","name":"pickNumbers","type":"uint256"},{"internalType":"uint256","name":"capacity","type":"uint256"},{"internalType":"uint256","name":"entryFee","type":"uint256"},{"internalType":"uint256","name":"totalPrize","type":"uint256"},{"internalType":"uint256","name":"minPlayers","type":"uint256"},{"internalType":"uint256","name":"partnerId","type":"uint256"},{"internalType":"uint256","name":"rolloverperct","type":"uint256"},{"internalType":"address","name":"lotteryWinner","type":"address"},{"internalType":"address","name":"ownerAddress","type":"address"},{"internalType":"enum Autobet.LotteryState","name":"status","type":"uint8"},{"internalType":"enum Autobet.LotteryType","name":"lotteryType","type":"uint8"}],"stateMutability":"view","type":"function"},{"inputs":[],"name":"lotteryCreateFee","outputs":[{"internalType":"uint256","name":"","type":"uint256"}],"stateMutability":"view","type":"function"},{"inputs":[{"internalType":"uint256","name":"","type":"uint256"}],"name":"lotteryDates","outputs":[{"internalType":"uint256","name":"lotteryId","type":"uint256"},{"internalType":"uint256","name":"startTime","type":"uint256"},{"internalType":"uint256","name":"endTime","type":"uint256"},{"internalType":"uint256","name":"drawTime","type":"uint256"}],"stateMutability":"view","type":"function"},{"inputs":[],"name":"lotteryId","outputs":[{"internalType":"uint256","name":"","type":"uint256"}],"stateMutability":"view","type":"function"},{"inputs":[{"internalType":"uint256","name":"","type":"uint256"}],"name":"lotterySales","outputs":[{"internalType":"uint256","name":"","type":"uint256"}],"stateMutability":"view","type":"function"},{"inputs":[{"internalType":"uint256","name":"","type":"uint256"},{"internalType":"address","name":"","type":"address"}],"name":"lotteryTickets","outputs":[{"internalType":"uint256","name":"","type":"uint256"}],"stateMutability":"view","type":"function"},{"inputs":[{"internalType":"address","name":"","type":"address"}],"name":"organisationbyaddr","outputs":[{"internalType":"bool","name":"active","type":"bool"},{"internalType":"address","name":"userAddress","type":"address"},{"internalType":"address","name":"referee","type":"address"},{"internalType":"string","name":"name","type":"string"},{"internalType":"string","name":"phoneno","type":"string"},{"internalType":"uint256","name":"dob","type":"uint256"},{"internalType":"string","name":"email","type":"string"},{"internalType":"string","name":"resiAddress","type":"string"},{"internalType":"uint256","name":"id","type":"uint256"},{"internalType":"uint256","name":"amountEarned","type":"uint256"},{"internalType":"uint256","name":"commissionEarned","type":"uint256"},{"internalType":"uint256","name":"maxPrize","type":"uint256"},{"internalType":"uint256","name":"minPrize","type":"uint256"}],"stateMutability":"view","type":"function"},{"inputs":[{"internalType":"uint256","name":"","type":"uint256"}],"name":"organisationbyid","outputs":[{"internalType":"bool","name":"active","type":"bool"},{"internalType":"address","name":"userAddress","type":"address"},{"internalType":"address","name":"referee","type":"address"},{"internalType":"string","name":"name","type":"string"},{"internalType":"string","name":"phoneno","type":"string"},{"internalType":"uint256","name":"dob","type":"uint256"},{"internalType":"string","name":"email","type":"string"},{"internalType":"string","name":"resiAddress","type":"string"},{"internalType":"uint256","name":"id","type":"uint256"},{"internalType":"uint256","name":"amountEarned","type":"uint256"},{"internalType":"uint256","name":"commissionEarned","type":"uint256"},{"internalType":"uint256","name":"maxPrize","type":"uint256"},{"internalType":"uint256","name":"minPrize","type":"uint256"}],"stateMutability":"view","type":"function"},{"inputs":[],"name":"ownerId","outputs":[{"internalType":"uint256","name":"","type":"uint256"}],"stateMutability":"view","type":"function"},{"inputs":[],"name":"partnerId","outputs":[{"internalType":"uint256","name":"","type":"uint256"}],"stateMutability":"view","type":"function"},{"inputs":[],"name":"partnerRewardPerc","outputs":[{"internalType":"uint256","name":"","type":"uint256"}],"stateMutability":"view","type":"function"},{"inputs":[{"internalType":"address","name":"","type":"address"}],"name":"partnerbyaddr","outputs":[{"internalType":"string","name":"name","type":"string"},{"internalType":"string","name":"logoHash","type":"string"},{"internalType":"bool","name":"status","type":"bool"},{"internalType":"address","name":"partnerAddress","type":"address"},{"internalType":"uint256","name":"createdOn","type":"uint256"},{"internalType":"uint256","name":"partnerId","type":"uint256"}],"stateMutability":"view","type":"function"},{"inputs":[{"internalType":"uint256","name":"","type":"uint256"}],"name":"partnerbyid","outputs":[{"internalType":"string","name":"name","type":"string"},{"internalType":"string","name":"logoHash","type":"string"},{"internalType":"bool","name":"status","type":"bool"},{"internalType":"address","name":"partnerAddress","type":"address"},{"internalType":"uint256","name":"createdOn","type":"uint256"},{"internalType":"uint256","name":"partnerId","type":"uint256"}],"stateMutability":"view","type":"function"},{"inputs":[{"internalType":"address","name":"useraddressdata","type":"address"},{"internalType":"uint256","name":"lotteryid","type":"uint256"},{"internalType":"bytes32","name":"requestId","type":"bytes32"}],"name":"paywinner","outputs":[],"stateMutability":"payable","type":"function"},{"inputs":[{"internalType":"bytes","name":"","type":"bytes"}],"name":"performUpkeep","outputs":[],"stateMutability":"nonpayable","type":"function"},{"inputs":[{"internalType":"bytes32","name":"","type":"bytes32"}],"name":"randomNumber","outputs":[{"internalType":"uint256","name":"","type":"uint256"}],"stateMutability":"view","type":"function"},{"inputs":[{"internalType":"bytes32","name":"requestId","type":"bytes32"},{"internalType":"uint256","name":"randomness","type":"uint256"}],"name":"rawFulfillRandomness","outputs":[],"stateMutability":"nonpayable","type":"function"},{"inputs":[],"name":"redeemTokens","outputs":[],"stateMutability":"nonpayable","type":"function"},{"inputs":[{"internalType":"address","name":"","type":"address"}],"name":"refereeEarned","outputs":[{"internalType":"uint256","name":"","type":"uint256"}],"stateMutability":"view","type":"function"},{"inputs":[{"internalType":"bytes32","name":"","type":"bytes32"}],"name":"requestIds","outputs":[{"internalType":"uint256","name":"","type":"uint256"}],"stateMutability":"view","type":"function"},{"inputs":[{"internalType":"bool","name":"_callresult","type":"bool"}],"name":"setCallresult","outputs":[],"stateMutability":"nonpayable","type":"function"},{"inputs":[{"internalType":"address","name":"_tokenAddress","type":"address"}],"name":"setTokenAddress","outputs":[],"stateMutability":"nonpayable","type":"function"},{"inputs":[{"internalType":"bytes32","name":"","type":"bytes32"}],"name":"spinBuyer","outputs":[{"internalType":"address","name":"","type":"address"}],"stateMutability":"view","type":"function"},{"inputs":[{"internalType":"bytes32","name":"","type":"bytes32"}],"name":"spinNumbers","outputs":[{"internalType":"uint256","name":"","type":"uint256"}],"stateMutability":"view","type":"function"},{"inputs":[],"name":"tokenAddress","outputs":[{"internalType":"address","name":"","type":"address"}],"stateMutability":"view","type":"function"},{"inputs":[],"name":"tokenEarnPercent","outputs":[{"internalType":"uint256","name":"","type":"uint256"}],"stateMutability":"view","type":"function"},{"inputs":[{"internalType":"address","name":"","type":"address"}],"name":"tokenearned","outputs":[{"internalType":"uint256","name":"","type":"uint256"}],"stateMutability":"view","type":"function"},{"inputs":[{"internalType":"address","name":"","type":"address"}],"name":"tokenredeemed","outputs":[{"internalType":"uint256","name":"","type":"uint256"}],"stateMutability":"view","type":"function"},{"inputs":[{"internalType":"address","name":"newAdmin","type":"address"}],"name":"transferAdmin","outputs":[],"stateMutability":"nonpayable","type":"function"},{"inputs":[],"name":"transferFeePerc","outputs":[{"internalType":"uint256","name":"","type":"uint256"}],"stateMutability":"view","type":"function"},{"inputs":[{"internalType":"uint256","name":"amount","type":"uint256"},{"internalType":"address","name":"to","type":"address"},{"internalType":"address","name":"tokenAdd","type":"address"}],"name":"transferToken","outputs":[],"stateMutability":"nonpayable","type":"function"},{"inputs":[{"internalType":"uint256","name":"_lotteryCreateFee","type":"uint256"},{"internalType":"uint256","name":"_transferFeePerc","type":"uint256"},{"internalType":"uint256","name":"_tokenEarnPercent","type":"uint256"},{"internalType":"uint256","name":"_partnerRewardPerc","type":"uint256"}],"name":"updateFee","outputs":[],"stateMutability":"nonpayable","type":"function"},{"inputs":[{"internalType":"uint256","name":"_minPrize","type":"uint256"},{"internalType":"uint256","name":"_maxPrize","type":"uint256"}],"name":"updateMinMax","outputs":[],"stateMutability":"payable","type":"function"},{"inputs":[],"name":"withdrawAdmin","outputs":[],"stateMutability":"payable","type":"function"},{"inputs":[],"name":"withdrawETH","outputs":[],"stateMutability":"payable","type":"function"},{"inputs":[],"name":"withdrawLink","outputs":[],"stateMutability":"nonpayable","type":"function"},{"inputs":[],"name":"withdrawcommission","outputs":[],"stateMutability":"payable","type":"function"},{"inputs":[],"name":"withdrawrefereecommission","outputs":[],"stateMutability":"payable","type":"function"}],"evm":{"bytecode":{"linkReferences":{},"object":"60c0604052600160035560016004556000600555600a600655600a600755600a600855600a6009556005600a553480156200003957600080fd5b50604051620058a3380380620058a38339810160408190526200005c91620005b9565b7f8c7382f9d8f56b33781fe506e897a4f1e2d1725500000000000000000000000060a09081527f326c977e6efc84e512bb9c30f76e30c160ed06fb00000000000000000000000060809081527f6e75b569a01ef56d18cab6a8e71e6600d6ce853834d4a5748b720d06f878b3a46001908155655af3107a4000600c55600e8054336001600160a01b03199182168117909255600b805482166001600160a01b0388811691909117909155604080516101a08101825285815260208181018681526000838501818152855180870187526007815266105d5d1bd8995d60ca1b8186015260608601908152865180860188528381529b86019b909b529a840181905284518086018652601881527f6175746f6265746c6f747465727940676d61696c2e636f6d00000000000000008185015260c08501528451808401865281815260e085015260045461010080860191909152610120850182905261014085018290526c0c9f2c9cd04674edea40000000610160860152610180850182905297815260108352939093208251815494516001600160a81b0319909516901515610100600160a81b031916179385169096029290921785559651948401805490931694909116939093179055915180516200023b926002850192019062000513565b50608082015180516200025991600384019160209091019062000513565b5060a0820151600482015560c082015180516200028191600584019160209091019062000513565b5060e082015180516200029f91600684019160209091019062000513565b5061010082015181600701556101208201518160080155610140820151816009015561016082015181600a015561018082015181600b0155905050604051806101a00160405280600115158152602001336001600160a01b0316815260200160006001600160a01b0316815260200160405180604001604052806007815260200166105d5d1bd8995d60ca1b8152508152602001604051806020016040528060008152508152602001600081526020016040518060400160405280601881526020017f6175746f6265746c6f747465727940676d61696c2e636f6d00000000000000008152508152602001604051806020016040528060008152508152602001600454815260200160008152602001600081526020016c0c9f2c9cd04674edea4000000081526020016000815250600f600060046000815480929190620003e69062000628565b909155508152602080820192909252604090810160002083518154858501516001600160a81b0319909116911515610100600160a81b031916919091176101006001600160a01b0392831602178255918401516001820180546001600160a01b03191691909316179091556060830151805191926200046e9260028501929091019062000513565b50608082015180516200048c91600384019160209091019062000513565b5060a0820151600482015560c08201518051620004b491600584019160209091019062000513565b5060e08201518051620004d291600684019160209091019062000513565b50610100820151600782015561012082015160088201556101408201516009820155610160820151600a82015561018090910151600b909101555062000652565b8280546200052190620005eb565b90600052602060002090601f01602090048101928262000545576000855562000590565b82601f106200056057805160ff191683800117855562000590565b8280016001018555821562000590579182015b828111156200059057825182559160200191906001019062000573565b506200059e929150620005a2565b5090565b5b808211156200059e5760008155600101620005a3565b600060208284031215620005cc57600080fd5b81516001600160a01b0381168114620005e457600080fd5b9392505050565b600181811c908216806200060057607f821691505b602082108114156200062257634e487b7160e01b600052602260045260246000fd5b50919050565b60006000198214156200064b57634e487b7160e01b600052601160045260246000fd5b5060010190565b60805160601c60a05160601c6152096200069a6000396000818161330b0152613f0f01526000818161314001528181613ab801528181613d1c0152613ee001526152096000f3fe60806040526004361061036b5760003560e01c80637782d576116101c6578063aa37db6c116100f7578063d7e2368f11610095578063e580f47b1161006f578063e580f47b14610b0e578063e9a9c50c14610b24578063ea9fae8014610b39578063f851a44014610b5957600080fd5b8063d7e2368f14610ac3578063e043e7bc14610ad9578063e086e5ec14610b0657600080fd5b8063bef7e5a2116100d1578063bef7e5a214610a43578063c41ce92e14610a70578063c6b7cb6914610a90578063d61752fe14610ab057600080fd5b8063aa37db6c146109dc578063b2dd29f3146109f2578063b43f0b2b14610a0857600080fd5b80639148910511610164578063961699951161013e57806396169995146108865780639d76ea58146108b3578063a57d1560146108d3578063aa10304c1461097a57600080fd5b8063914891051461082d57806394985ddd1461083557806394d1283a1461085557600080fd5b80638645f7a8116101a05780638645f7a8146107c357806388804e06146107f05780638b7afe2e146108035780638dc654a21461081857600080fd5b80637782d576146107445780637b3d5ad21461077657806380b0534a1461079657600080fd5b806340b43c72116102a05780635f8e26a71161023e5780636e04ff0d116102185780636e04ff0d146106ca5780636edf7283146106f857806375829def1461070e57806375e9340a1461072e57600080fd5b80635f8e26a7146106435780636b65e844146106715780636bf8dc741461069157600080fd5b80634c4426e81161027a5780634c4426e8146105ff5780634ce6873b146106125780634e7abe251461062557806351d4568f1461063b57600080fd5b806340b43c72146105925780634585e33b146105bf5780634a2a1fb0146105df57600080fd5b80632786ab761161030d5780633295b5b0116102e75780633295b5b014610503578063355b90981461053c5780633bbd391e146105525780633de55f951461056557600080fd5b80632786ab76146104825780632f24d5dc146104d057806330148970146104e357600080fd5b80631c9c8e99116103495780631c9c8e99146103d057806326617ddb146103fd57806326a4e8d2146104355780632751134a1461045557600080fd5b8063019c08f51461037057806304c76af01461039957806316a1a468146103a3575b600080fd5b34801561037c57600080fd5b5061038660045481565b6040519081526020015b60405180910390f35b6103a1610b79565b005b3480156103af57600080fd5b506103866103be36600461478c565b60196020526000908152604090205481565b3480156103dc57600080fd5b506103f06103eb36600461478c565b610c34565b6040516103909190614d60565b34801561040957600080fd5b50610386610418366004614b62565b602160209081526000928352604080842090915290825290205481565b34801561044157600080fd5b506103a161045036600461478c565b610d23565b34801561046157600080fd5b5061038661047036600461478c565b60156020526000908152604090205481565b34801561048e57600080fd5b506104b861049d3660046149d8565b601e602052600090815260409020546001600160a01b031681565b6040516001600160a01b039091168152602001610390565b6103a16104de3660046149f1565b610d8d565b3480156104ef57600080fd5b506103a16104fe366004614aba565b6110c4565b34801561050f57600080fd5b5061052361051e3660046149d8565b611378565b6040516103909d9c9b9a99989796959493929190614e02565b34801561054857600080fd5b5061038660095481565b6103a16105603660046149f1565b611609565b34801561057157600080fd5b5061038661058036600461478c565b60166020526000908152604090205481565b34801561059e57600080fd5b506103866105ad3660046149d8565b601c6020526000908152604090205481565b3480156105cb57600080fd5b506103a16105da366004614a13565b611804565b3480156105eb57600080fd5b506103a16105fa366004614b8e565b61193c565b6103a161060d3660046147a7565b611a8a565b6103a1610620366004614bfc565b611f9c565b34801561063157600080fd5b5061038660065481565b6103a16125a9565b34801561064f57600080fd5b5061066361065e3660046149d8565b612685565b604051610390929190614d73565b34801561067d57600080fd5b5061052361068c36600461478c565b61286a565b34801561069d57600080fd5b506103a16106ac36600461499e565b600e8054911515600160a01b0260ff60a01b19909216919091179055565b3480156106d657600080fd5b506106ea6106e5366004614a13565b6128aa565b604051610390929190614eb3565b34801561070457600080fd5b5061038660025481565b34801561071a57600080fd5b506103a161072936600461478c565b6129ea565b34801561073a57600080fd5b5061038660075481565b34801561075057600080fd5b5061076461075f36600461478c565b612a67565b60405161039096959493929190614ee1565b34801561078257600080fd5b506103a1610791366004614aba565b612bb9565b3480156107a257600080fd5b506103866107b13660046149d8565b601d6020526000908152604090205481565b3480156107cf57600080fd5b506103866107de3660046149d8565b601b6020526000908152604090205481565b6103a16107fe366004614893565b612e93565b34801561080f57600080fd5b50610386613093565b34801561082457600080fd5b506103a16130e3565b6103a16132b0565b34801561084157600080fd5b506103a16108503660046149f1565b613300565b34801561086157600080fd5b50600e5461087690600160a01b900460ff1681565b6040519015158152602001610390565b34801561089257600080fd5b506103866108a136600461478c565b60186020526000908152604090205481565b3480156108bf57600080fd5b50600b546104b8906001600160a01b031681565b3480156108df57600080fd5b506109626108ee3660046149d8565b601360205260009081526040902080546001820154600283015460038401546004850154600586015460068701546007880154600889015460098a0154600b909a0154989997989697959694959394929391926001600160a01b03918216929182169160ff600160a01b909104811691168c565b6040516103909c9b9a99989796959493929190614f88565b34801561098657600080fd5b506109bc6109953660046149d8565b60146020526000908152604090208054600182015460028301546003909301549192909184565b604080519485526020850193909352918301526060820152608001610390565b3480156109e857600080fd5b5061038660055481565b3480156109fe57600080fd5b5061038660085481565b348015610a1457600080fd5b50610876610a23366004614a85565b805160208183018101805160228252928201919093012091525460ff1681565b348015610a4f57600080fd5b50610386610a5e36600461478c565b60176020526000908152604090205481565b348015610a7c57600080fd5b506103f0610a8b36600461478c565b613386565b348015610a9c57600080fd5b50610764610aab3660046149d8565b61346b565b6103a1610abe3660046148c6565b613486565b348015610acf57600080fd5b50610386600a5481565b348015610ae557600080fd5b50610386610af43660046149d8565b601a6020526000908152604090205481565b6103a1613801565b348015610b1a57600080fd5b5061038660035481565b348015610b3057600080fd5b506103a1613878565b348015610b4557600080fd5b506103a1610b54366004614bca565b6139f9565b348015610b6557600080fd5b50600e546104b8906001600160a01b031681565b600e546001600160a01b03163314610bc65760405162461bcd60e51b815260206004820152600b60248201526a3737ba16b096b0b236b4b760a91b60448201526064015b60405180910390fd5b600e546001600160a01b03166000908152601060205260408082206009015490519091339183156108fc0291849190818181858888f19350505050158015610c12573d6000803e3d6000fd5b5050600e546001600160a01b0316600090815260106020526040812060090155565b6001600160a01b0381166000908152601f60205260408120546060919067ffffffffffffffff811115610c6957610c696151af565b604051908082528060200260200182016040528015610c92578160200160208202803683370190505b50905060005b6001600160a01b0384166000908152601f6020526040902054811015610d1c576001600160a01b0384166000908152601f60205260409020805482908110610ce257610ce2615199565b9060005260206000200154828281518110610cff57610cff615199565b602090810291909101015280610d1481615112565b915050610c98565b5092915050565b600e546001600160a01b03163314610d6b5760405162461bcd60e51b815260206004820152600b60248201526a3737ba16b096b0b236b4b760a91b6044820152606401610bbd565b600b80546001600160a01b0319166001600160a01b0392909216919091179055565b6000818152601360209081526040808320601490925290912060038201543414610df95760405162461bcd60e51b815260206004820152601160248201527f456e74727920466565206e6f74206d65740000000000000000000000000000006044820152606401610bbd565b80600201544210610e4c5760405162461bcd60e51b815260206004820152601260248201527f54696d652070617373656420746f2062757900000000000000000000000000006044820152606401610bbd565b60088201546001600160a01b031615610ea75760405162461bcd60e51b815260206004820152600b60248201527f57696e6e657220646f6e650000000000000000000000000000000000000000006044820152606401610bbd565b604080516001808252818301909252600091602080830190803683370190505090508481600081518110610edd57610edd615199565b6020908102919091018101919091526000858152602182526040808220338352909252908120805460019290610f14908490615049565b909155505060408051606081018252338152426020808301918252928201848152600a8701805460018082018355600092835291869020855160039092020180546001600160a01b0319166001600160a01b0390921691909117815592519083015551805192939192610f8d926002850192019061462d565b50503360009081526015602052604081208054349350909190610fb1908490615049565b909155505060098301546001600160a01b031660009081526010602052604081206008018054349290610fe5908490615049565b9091555050336000908152601f60209081526040808320805460018101825590845282842001879055868352601a909152812080549161102483615112565b91905055506110466064600a5485600301546110409190615075565b90613a55565b3360009081526018602052604081208054909190611065908490615049565b909155505060038083015490840154604051339287927feebeef70159cab2afd7f0275b057d4672073bc52648b266b673fdbb3a856103d926110aa9287924292614dd3565b60405180910390a36110bd848633613aa0565b5050505050565b6001600160a01b0382166110da576110da615141565b6001600160a01b038281166000908152601160205260409020600201546101009004161561114a5760405162461bcd60e51b815260206004820152601260248201527f416c7265616479207265676973746572656400000000000000000000000000006044820152606401610bbd565b6005805490600061115a83615112565b90915550506040805160c0810182528681526020808201879052851515828401526001600160a01b038516606083018190526080830185905260055460a08401526000908152601182529290922081518051929391926111bd9284920190614678565b5060208281015180516111d69260018501920190614678565b5060408281015160028301805460608087015174ffffffffffffffffffffffffffffffffffffffffff1990921693151574ffffffffffffffffffffffffffffffffffffffff001916939093176101006001600160a01b039283160217909155608080860151600386015560a095860151600490950194909455825160c0810184528a815260208082018b9052891515828601529188169281019290925292810185905260055493810184905260009384526012835292208251805191926112a292849290910190614678565b5060208281015180516112bb9260018501920190614678565b5060408281015160028301805460608601516001600160a01b03166101000274ffffffffffffffffffffffffffffffffffffffff00199315159390931674ffffffffffffffffffffffffffffffffffffffffff19909116179190911790556080830151600383015560a09092015160049091015560055490517fa9a08e4591a80985ce133389d1057bb6fd8e3411c6de25c5fd2a318dc0747e3e916113699188908890889088908890614f35565b60405180910390a15050505050565b600f6020526000908152604090208054600182015460028301805460ff8416946101009094046001600160a01b039081169493169291906113b8906150d7565b80601f01602080910402602001604051908101604052809291908181526020018280546113e4906150d7565b80156114315780601f1061140657610100808354040283529160200191611431565b820191906000526020600020905b81548152906001019060200180831161141457829003601f168201915b505050505090806003018054611446906150d7565b80601f0160208091040260200160405190810160405280929190818152602001828054611472906150d7565b80156114bf5780601f10611494576101008083540402835291602001916114bf565b820191906000526020600020905b8154815290600101906020018083116114a257829003601f168201915b5050505050908060040154908060050180546114da906150d7565b80601f0160208091040260200160405190810160405280929190818152602001828054611506906150d7565b80156115535780601f1061152857610100808354040283529160200191611553565b820191906000526020600020905b81548152906001019060200180831161153657829003601f168201915b505050505090806006018054611568906150d7565b80601f0160208091040260200160405190810160405280929190818152602001828054611594906150d7565b80156115e15780601f106115b6576101008083540402835291602001916115e1565b820191906000526020600020905b8154815290600101906020018083116115c457829003601f168201915b50505050509080600701549080600801549080600901549080600a01549080600b015490508d565b3360009081526010602052604090205460ff166116685760405162461bcd60e51b815260206004820152601260248201527f4e6f742061206f7267616e69736174696f6e00000000000000000000000000006044820152606401610bbd565b600081116116b85760405162461bcd60e51b815260206004820152601260248201527f43616e742062652062656c6f77207a65726f00000000000000000000000000006044820152606401610bbd565b600082116117085760405162461bcd60e51b815260206004820152601260248201527f43616e742062652062656c6f77207a65726f00000000000000000000000000006044820152606401610bbd565b600061172b6002611040670de0b6b3a76400006117258787613c0a565b90613c69565b905060006117426064600654846110409190615075565b90503481146117935760405162461bcd60e51b815260206004820152601960248201527f526567697374657220466565206e6f74206d61746368696e67000000000000006044820152606401610bbd565b3360009081526010602081815260408084206007810154600b8083018b9055600a9283018a9055818752600f85528387209081018b9055909101889055600e546001600160a01b031685529290915282206009018054919234926117f8908490615049565b90915550505050505050565b600e54600160a01b900460ff161561185e5760405162461bcd60e51b815260206004820152601260248201527f72657175697265642063616c6c207472756500000000000000000000000000006044820152606401610bbd565b600e805460ff60a01b1916600160a01b17905560015b6003548110156119375760016000828152601360205260409020600b015460ff1660018111156118a6576118a6615183565b1415611925576002600082815260136020526040902060090154600160a01b900460ff1660038111156118db576118db615183565b14611925576000818152601a602090815260408083205460139092529091206005015411611925576000818152601460205260409020600301544211156119255761192581613d04565b8061192f81615112565b915050611874565b505050565b6040516370a0823160e01b81523060048201526001600160a01b038216906370a082319060240160206040518083038186803b15801561197b57600080fd5b505afa15801561198f573d6000803e3d6000fd5b505050506040513d601f19601f820116820180604052508101906119b39190614b49565b831115611a025760405162461bcd60e51b815260206004820152600b60248201527f6c6f772062616c616e63650000000000000000000000000000000000000000006044820152606401610bbd565b60405163a9059cbb60e01b81526001600160a01b0383811660048301526024820185905282169063a9059cbb90604401602060405180830381600087803b158015611a4c57600080fd5b505af1158015611a60573d6000803e3d6000fd5b505050506040513d601f19601f82011682018060405250810190611a8491906149bb565b50505050565b6001600160a01b038916611aa057611aa0615141565b6000611abd6002611040670de0b6b3a76400006117258787613c0a565b90506000611ad46064600654846110409190615075565b6001600160a01b038c81166000908152601060205260409020549192506101009091041615611b455760405162461bcd60e51b815260206004820152601260248201527f416c7265616479207265676973746572656400000000000000000000000000006044820152606401610bbd565b348114611b945760405162461bcd60e51b815260206004820152601960248201527f526567697374657220466565206e6f74206d61746368696e67000000000000006044820152606401610bbd565b604051806101a001604052806001151581526020018c6001600160a01b031681526020018b6001600160a01b031681526020018a81526020018981526020018881526020018781526020018681526020016004548152602001600081526020016000815260200184815260200185815250601060008d6001600160a01b03166001600160a01b0316815260200190815260200160002060008201518160000160006101000a81548160ff02191690831515021790555060208201518160000160016101000a8154816001600160a01b0302191690836001600160a01b0316021790555060408201518160010160006101000a8154816001600160a01b0302191690836001600160a01b031602179055506060820151816002019080519060200190611cc0929190614678565b5060808201518051611cdc916003840191602090910190614678565b5060a0820151600482015560c08201518051611d02916005840191602090910190614678565b5060e08201518051611d1e916006840191602090910190614678565b5061010082015181600701556101208201518160080155610140820151816009015561016082015181600a015561018082015181600b0155905050604051806101a001604052806001151581526020018c6001600160a01b031681526020018b6001600160a01b031681526020018a81526020018981526020018881526020018781526020018681526020016004548152602001600081526020016000815260200185815260200185815250600f600060046000815480929190611de190615112565b9091555081526020808201929092526040908101600020835181548585015174ffffffffffffffffffffffffffffffffffffffffff1990911691151574ffffffffffffffffffffffffffffffffffffffff001916919091176101006001600160a01b0392831602178255918401516001820180546001600160a01b0319169190931617909155606083015180519192611e8292600285019290910190614678565b5060808201518051611e9e916003840191602090910190614678565b5060a0820151600482015560c08201518051611ec4916005840191602090910190614678565b5060e08201518051611ee0916006840191602090910190614678565b5061010082015160078201556101208201516008820155610140820151600980830191909155610160830151600a83015561018090920151600b90910155600e546001600160a01b031660009081526010602052604081209091018054349290611f4b908490615049565b90915550506004546040517f337cd441473f6e4d26f96eb02885394c00cd7271e43ed7e206dd43664b98598c90611f87908e908d908f90614d02565b60405180910390a25050505050505050505050565b3360009081526010602052604090205460ff16611ffb5760405162461bcd60e51b815260206004820152601260248201527f4e6f742061206f7267616e69736174696f6e00000000000000000000000000006044820152606401610bbd565b336000908152601060205260409020600b0154889061202290670de0b6b3a7640000613c69565b11156120705760405162461bcd60e51b815260206004820152601a60248201527f4e6f7420616c6c6f7765642077696e6e696e6720616d6f756e740000000000006044820152606401610bbd565b336000908152601060205260409020600a0154889061209790670de0b6b3a7640000613c69565b10156120e55760405162461bcd60e51b815260206004820152601a60248201527f4e6f7420616c6c6f7765642077696e6e696e6720616d6f756e740000000000006044820152606401610bbd565b600088116121355760405162461bcd60e51b815260206004820152600e60248201527f4c6f7720746f74616c50726963650000000000000000000000000000000000006044820152606401610bbd565b3461215361214c60646007548c6110409190615075565b8a90613c0a565b146121a05760405162461bcd60e51b815260206004820152601360248201527f416d6f756e74206e6f74206d61746368696e67000000000000000000000000006044820152606401610bbd565b838911156121f05760405162461bcd60e51b815260206004820152601060248201527f6361706163697479206973206c657373000000000000000000000000000000006044820152606401610bbd565b428710156122405760405162461bcd60e51b815260206004820152601160248201527f53746172742074696d65207061737365640000000000000000000000000000006044820152606401610bbd565b85871061228f5760405162461bcd60e51b815260206004820152601d60248201527f456e642074696d65206c657373207468616e2073746172742074696d650000006044820152606401610bbd565b60328211156123065760405162461bcd60e51b815260206004820152602960248201527f526f6c6c6f7665722070657263656e746167652063616e2774206265206d6f7260448201527f65207468616e20353000000000000000000000000000000000000000000000006064820152608401610bbd565b60038054600090815260136020818152604080842060060188905584548085528185209081556007018790558454845280842085018f90558454845280842060019081018f9055855485528185206004018e9055855485526014835281852081018d90558554855281852060029081018d9055865480875283872090815587018c90558654865293909252808420909201889055835483528183206009908101805460ff60a01b19169055845484528284200180546001600160a01b03191633179055925482529020600b018054839260ff199091169083818111156123ee576123ee615183565b021790555061240560646110408c818c600a613c69565b61240f898c613a55565b6124199190615049565b6003805460009081526013602090815260408083206005019490945533825280805292812091548254600181018455928252929020015560075461246490606490611040908b615075565b600e546001600160a01b031660009081526010602052604081206009018054909190612491908490615049565b9091555050336000908152601060205260409020600101546001600160a01b03161561251f576124c2886064613a55565b336000908152601060209081526040808320600101546001600160a01b0316835260169091529020546124f59190615049565b336000908152601060209081526040808320600101546001600160a01b0316835260169091529020555b336000818152601060209081526040918290206007015460035483518f81529283018e90529282018c905260608201889052608082018b90529291907fe6e4222b2c2ddb82eb8817d7bd8ec6fc5eb5f915b4d7b36c260aa77ba04da7db9060a00160405180910390a46003805490600061259883615112565b919050555050505050505050505050565b33600090815260106020526040812060089081015490549091906125d590606490611040908590613c69565b905060006125e38383613e3b565b604051909150339082156108fc029083906000818181858888f19350505050158015612613573d6000803e3d6000fd5b50600e546001600160a01b031660009081526010602052604081206009018054849290612641908490615049565b90915550503360009081526010602052604081206009018054839290612668908490615049565b909155505033600090815260106020526040812060080155505050565b6000818152601360205260408120600a81015460609283929167ffffffffffffffff8111156126b6576126b66151af565b6040519080825280602002602001820160405280156126df578160200160208202803683370190505b506001830154600a8401549192506000916126fa9190615075565b67ffffffffffffffff811115612712576127126151af565b60405190808252806020026020018201604052801561273b578160200160208202803683370190505b50905060008060005b600a86015481101561285b5785600a01818154811061276557612765615199565b60009182526020909120600390910201546001600160a01b0316858461278a81615112565b95508151811061279c5761279c615199565b60200260200101906001600160a01b031690816001600160a01b03168152505060005b86600101548110156128485786600a0182815481106127e0576127e0615199565b9060005260206000209060030201600201818154811061280257612802615199565b906000526020600020015485848061281990615112565b95508151811061282b5761282b615199565b60209081029190910101528061284081615112565b9150506127bf565b508061285381615112565b915050612744565b50919792965091945050505050565b60106020526000908152604090208054600182015460028301805460ff8416946101009094046001600160a01b039081169493169291906113b8906150d7565b600e54600090606090600160a01b900460ff161561290a5760405162461bcd60e51b815260206004820152601660248201527f416e6f7468657220526573756c742072756e6e696e67000000000000000000006044820152606401610bbd565b60015b6003548110156129e15760016000828152601360205260409020600b015460ff16600181111561293f5761293f615183565b14156129cf576002600082815260136020526040902060090154600160a01b900460ff16600381111561297457612974615183565b146129cf576000818152601a6020908152604080832054601390925290912060050154116129cf576000818152601460205260409020600301544211156129cf575050604080516020810190915260008152600191506129e3565b806129d981615112565b91505061290d565b505b9250929050565b600e546001600160a01b03163314612a325760405162461bcd60e51b815260206004820152600b60248201526a3737ba16b096b0b236b4b760a91b6044820152606401610bbd565b6001600160a01b038116612a4557600080fd5b600e80546001600160a01b0319166001600160a01b0392909216919091179055565b601160205260009081526040902080548190612a82906150d7565b80601f0160208091040260200160405190810160405280929190818152602001828054612aae906150d7565b8015612afb5780601f10612ad057610100808354040283529160200191612afb565b820191906000526020600020905b815481529060010190602001808311612ade57829003601f168201915b505050505090806001018054612b10906150d7565b80601f0160208091040260200160405190810160405280929190818152602001828054612b3c906150d7565b8015612b895780601f10612b5e57610100808354040283529160200191612b89565b820191906000526020600020905b815481529060010190602001808311612b6c57829003601f168201915b5050505060028301546003840154600490940154929360ff8216936101009092046001600160a01b031692509086565b6001600160a01b038216612bcf57612bcf615141565b6001600160a01b03828116600090815260116020526040902060020154610100900416612c3e5760405162461bcd60e51b815260206004820152601660248201527f4e6f7420416c72656164792072656769737465726564000000000000000000006044820152606401610bbd565b6001600160a01b03808316600081815260116020526040902060020154610100900490911614612cb05760405162461bcd60e51b815260206004820152601760248201527f57726f6e67206164647265737320746f207570646174650000000000000000006044820152606401610bbd565b6040805160c0810182528681526020808201879052851515828401526001600160a01b038516606083018190526080830185905260008181526011808452948120600481015460a086015291905292815281518051929392612d159284920190614678565b506020828101518051612d2e9260018501920190614678565b5060408281015160028301805460608087015174ffffffffffffffffffffffffffffffffffffffffff1990921693151574ffffffffffffffffffffffffffffffffffffffff001916939093176101006001600160a01b039283160217909155608080860151600386015560a095860151600495860155835160c0810185528b815260208082018c90528a1515828701529289169381018490529081018790526000928352601182528383209094015494840185905293815260128452208151805192939192612e009284920190614678565b506020828101518051612e199260018501920190614678565b50604082015160028201805460608501516001600160a01b03166101000274ffffffffffffffffffffffffffffffffffffffff00199315159390931674ffffffffffffffffffffffffffffffffffffffffff19909116179190911790556080820151600382015560a0909101516004909101555050505050565b6000818152601b60205260409020548214612ef05760405162461bcd60e51b815260206004820152601360248201527f4c6f7474657279204964206d69736d61746368000000000000000000000000006044820152606401610bbd565b60008281526013602052604090206001600160a01b03841615613080576004810154600854600090612f2a90606490611040908590613c69565b90506000612f388383613e3b565b6040519091506001600160a01b0388169082156108fc029083906000818181858888f19350505050158015612f71573d6000803e3d6000fd5b50600e546001600160a01b031660009081526010602052604081206009018054849290612f9f908490615049565b9091555060009050600b85015460ff166001811115612fc057612fc0615183565b1415613038576000612fe2606461104060095487613c6990919063ffffffff16565b600686015460009081526012602052604080822060020154905192935061010090046001600160a01b0316916108fc84150291849190818181858888f19350505050158015613035573d6000803e3d6000fd5b50505b85876001600160a01b03167f88f3705f0c4d3c5b1a1d29fe4fd3f87e889a5a0ce0a1e37989766b3248603fe98360405161307491815260200190565b60405180910390a35050505b5050600e805460ff60a01b191690555050565b600e546000906001600160a01b031633146130de5760405162461bcd60e51b815260206004820152600b60248201526a3737ba16b096b0b236b4b760a91b6044820152606401610bbd565b504790565b600e546001600160a01b0316331461312b5760405162461bcd60e51b815260206004820152600b60248201526a3737ba16b096b0b236b4b760a91b6044820152606401610bbd565b6040516370a0823160e01b81523060048201527f00000000000000000000000000000000000000000000000000000000000000006001600160a01b03169063a9059cbb90339083906370a082319060240160206040518083038186803b15801561319457600080fd5b505afa1580156131a8573d6000803e3d6000fd5b505050506040513d601f19601f820116820180604052508101906131cc9190614b49565b6040517fffffffff0000000000000000000000000000000000000000000000000000000060e085901b1681526001600160a01b0390921660048301526024820152604401602060405180830381600087803b15801561322a57600080fd5b505af115801561323e573d6000803e3d6000fd5b505050506040513d601f19601f8201168201806040525081019061326291906149bb565b6132ae5760405162461bcd60e51b815260206004820152601260248201527f556e61626c6520746f207472616e7366657200000000000000000000000000006044820152606401610bbd565b565b3360008181526016602052604080822054905190929183156108fc02918491818181858888f193505050501580156132ec573d6000803e3d6000fd5b505033600090815260166020526040812055565b336001600160a01b037f000000000000000000000000000000000000000000000000000000000000000016146133785760405162461bcd60e51b815260206004820152601f60248201527f4f6e6c7920565246436f6f7264696e61746f722063616e2066756c66696c6c006044820152606401610bbd565b6133828282613e7d565b5050565b6001600160a01b03811660009081526020805260408120546060919067ffffffffffffffff8111156133ba576133ba6151af565b6040519080825280602002602001820160405280156133e3578160200160208202803683370190505b50905060005b6001600160a01b0384166000908152602080526040902054811015610d1c576001600160a01b0384166000908152602080526040902080548290811061343157613431615199565b906000526020600020015482828151811061344e5761344e615199565b60209081029190910101528061346381615112565b9150506133e9565b601260205260009081526040902080548190612a82906150d7565b60008281526013602090815260408083206014909252909120600382015434146134f25760405162461bcd60e51b815260206004820152601160248201527f456e74727920466565206e6f74206d65740000000000000000000000000000006044820152606401610bbd565b81600101548551146135465760405162461bcd60e51b815260206004820152601360248201527f736c6f74732073697a65206e6f74206d656574000000000000000000000000006044820152606401610bbd565b806002015442106135995760405162461bcd60e51b815260206004820152601260248201527f54696d652070617373656420746f2062757900000000000000000000000000006044820152606401610bbd565b6022836040516135a99190614ce6565b9081526040519081900360200190205460ff16156136095760405162461bcd60e51b815260206004820152601660248201527f4e756d62657220416c726561647920636c61696d6564000000000000000000006044820152606401610bbd565b600160228460405161361b9190614ce6565b9081526040805160209281900383019020805460ff191693151593909317909255600086815260218252828120338252909152908120805460019290613662908490615049565b909155505060408051606081018252338152426020808301918252928201888152600a8601805460018082018355600092835291869020855160039092020180546001600160a01b0319166001600160a01b03909216919091178155925190830155518051929391926136db926002850192019061462d565b505033600090815260156020526040812080543493509091906136ff908490615049565b909155505060098201546001600160a01b031660009081526010602052604081206008018054349290613733908490615049565b9091555050336000908152601f60209081526040808320805460018101825590845282842001879055868352601a909152812080549161377283615112565b919050555061378e6064600a5484600301546110409190615075565b33600090815260186020526040812080549091906137ad908490615049565b909155505060038082015490830154604051339287927feebeef70159cab2afd7f0275b057d4672073bc52648b266b673fdbb3a856103d926137f2928b924292614dd3565b60405180910390a35050505050565b600e546001600160a01b031633146138495760405162461bcd60e51b815260206004820152600b60248201526a3737ba16b096b0b236b4b760a91b6044820152606401610bbd565b60405133904780156108fc02916000818181858888f19350505050158015613875573d6000803e3d6000fd5b50565b600b546040516370a0823160e01b81523060048201526001600160a01b03909116906370a082319060240160206040518083038186803b1580156138bb57600080fd5b505afa1580156138cf573d6000803e3d6000fd5b505050506040513d601f19601f820116820180604052508101906138f39190614b49565b3360009081526018602052604090205411156139515760405162461bcd60e51b815260206004820152600b60248201527f6c6f772062616c616e63650000000000000000000000000000000000000000006044820152606401610bbd565b600b54336000818152601860205260409081902054905163a9059cbb60e01b8152600481019290925260248201526001600160a01b039091169063a9059cbb90604401602060405180830381600087803b1580156139ae57600080fd5b505af11580156139c2573d6000803e3d6000fd5b505050506040513d601f19601f820116820180604052508101906139e691906149bb565b5033600090815260186020526040812055565b600e546001600160a01b03163314613a415760405162461bcd60e51b815260206004820152600b60248201526a3737ba16b096b0b236b4b760a91b6044820152606401610bbd565b600793909355600891909155600a55600955565b6000613a9783836040518060400160405280601a81526020017f536166654d6174683a206469766973696f6e206279207a65726f000000000000815250613ea5565b90505b92915050565b600c546040516370a0823160e01b81523060048201527f00000000000000000000000000000000000000000000000000000000000000006001600160a01b0316906370a082319060240160206040518083038186803b158015613b0257600080fd5b505afa158015613b16573d6000803e3d6000fd5b505050506040513d601f19601f82011682018060405250810190613b3a9190614b49565b11613bad5760405162461bcd60e51b815260206004820152602b60248201527f4e6f7420656e6f756768204c494e4b202d2066696c6c20636f6e74726163742060448201527f77697468206661756365740000000000000000000000000000000000000000006064820152608401610bbd565b6000613bbd600154600c54613edc565b60028190556000908152601b6020908152604080832096909655601d815285822094909455601e9093525091902080546001600160a01b0319166001600160a01b03909216919091179055565b600080613c178385615049565b905083811015613a975760405162461bcd60e51b815260206004820152601b60248201527f536166654d6174683a206164646974696f6e206f766572666c6f7700000000006044820152606401610bbd565b600082613c7857506000613a9a565b6000613c848385615075565b905082613c918583615061565b14613a975760405162461bcd60e51b815260206004820152602160248201527f536166654d6174683a206d756c7469706c69636174696f6e206f766572666c6f60448201527f77000000000000000000000000000000000000000000000000000000000000006064820152608401610bbd565b600c546040516370a0823160e01b81523060048201527f00000000000000000000000000000000000000000000000000000000000000006001600160a01b0316906370a082319060240160206040518083038186803b158015613d6657600080fd5b505afa158015613d7a573d6000803e3d6000fd5b505050506040513d601f19601f82011682018060405250810190613d9e9190614b49565b11613e115760405162461bcd60e51b815260206004820152602b60248201527f4e6f7420656e6f756768204c494e4b202d2066696c6c20636f6e74726163742060448201527f77697468206661756365740000000000000000000000000000000000000000006064820152608401610bbd565b6000613e21600154600c54613edc565b60028190556000908152601b602052604090209190915550565b6000613a9783836040518060400160405280601e81526020017f536166654d6174683a207375627472616374696f6e206f766572666c6f770000815250614066565b6000828152601c60209081526040808320849055601b90915290205461338290829084614097565b60008183613ec65760405162461bcd60e51b8152600401610bbd9190614ece565b506000613ed38486615061565b95945050505050565b60007f00000000000000000000000000000000000000000000000000000000000000006001600160a01b0316634000aea07f000000000000000000000000000000000000000000000000000000000000000084866000604051602001613f4c929190918252602082015260400190565b6040516020818303038152906040526040518463ffffffff1660e01b8152600401613f7993929190614d38565b602060405180830381600087803b158015613f9357600080fd5b505af1158015613fa7573d6000803e3d6000fd5b505050506040513d601f19601f82011682018060405250810190613fcb91906149bb565b5060008381526020818152604080832054815180840188905280830185905230606082015260808082018390528351808303909101815260a090910190925281519183019190912086845292909152614025906001615049565b60008581526020818152604091829020929092558051808301879052808201849052815180820383018152606090910190915280519101205b949350505050565b6000818484111561408a5760405162461bcd60e51b8152600401610bbd9190614ece565b506000613ed38486615094565b600082815260136020908152604080832060149092529091206001600b83015460ff1660018111156140cb576140cb615183565b14156141ff57600a8201546140e19086906145c4565b60098301805460ff60a01b191674020000000000000000000000000000000000000000179055600a83018054919650908690811061412157614121615199565b60009182526020909120600390910201546008830180546001600160a01b0319166001600160a01b03909216919091179055600a8201805485917fc95b83a8055606bd947ee12d6a33519292d859712d214efd6c587938a891e24b918890811061418d5761418d615199565b600091825260209182902060039091020154604080516001600160a01b03909216825242928201929092520160405180910390a26141fa82600a0186815481106141d9576141d9615199565b60009182526020909120600390910201546001600160a01b03168585612e93565b6110bd565b600282015461420f9086906145c4565b6000848152601e6020908152604080832080546008880180546001600160a01b0319166001600160a01b039283161790559054601d8452938290205482519081529283018590524283830152905193985087939216917f50e6d276e04bb48de52a4c1fcef42f86470ee30c5461da3e6edb4eba3a15c468916060908290030190a36000838152601d60205260409020548514156143085760098201805460ff60a01b1916740200000000000000000000000000000000000000001790556000838152601e6020526040902080546008840180546001600160a01b0319166001600160a01b0392831617905590546141fa91168585612e93565b60098201805460ff60a01b191674030000000000000000000000000000000000000000179055600754600483015460009161434a916064916110409190613c69565b61436a606461104086600701548760040154613c6990919063ffffffff16565b6143749190615094565b600684810154600380546000908152601360208181526040808420909601949094558254808352858320908155838a0154908401556001808a01548454845286842082015583548352858320600401879055888101548454845260148087528785208301919091556007808c0154865486528488528886209091015560028a8101548654865291875287852081019190915584548085528785209081558a86015490860155808b0154855485529290955285832090940155815481528381206009908101805460ff60a01b19169055808901548354835285832090910180546001600160a01b0319166001600160a01b03909216919091179055600b8089015492548252939020909201805493945060ff9092169260ff191690838181111561449f5761449f615183565b0217905550600580840154600380546000908152601360209081526040808320909501939093556009808801546001600160a01b0390811683528480528583209354845460018101865594845285842090940193909355600e54909216815260109092529181209091018054839290614519908490615049565b909155505060098301546001600160a01b03166000818152601060209081526040918290206007015460038054908801546001808a015460028b0154918a01548751938452958301529481018790526060810194909452608084019290925292917fe6e4222b2c2ddb82eb8817d7bd8ec6fc5eb5f915b4d7b36c260aa77ba04da7db9060a00160405180910390a4600380549060006145b783615112565b9190505550505050505050565b6000613a9783836040518060400160405280601881526020017f536166654d6174683a206d6f64756c6f206279207a65726f0000000000000000815250600081836146225760405162461bcd60e51b8152600401610bbd9190614ece565b5061405e838561512d565b828054828255906000526020600020908101928215614668579160200282015b8281111561466857825182559160200191906001019061464d565b506146749291506146eb565b5090565b828054614684906150d7565b90600052602060002090601f0160209004810192826146a65760008555614668565b82601f106146bf57805160ff1916838001178555614668565b82800160010185558215614668579182018281111561466857825182559160200191906001019061464d565b5b8082111561467457600081556001016146ec565b80356001600160a01b038116811461471757600080fd5b919050565b600082601f83011261472d57600080fd5b813567ffffffffffffffff811115614747576147476151af565b61475a601f8201601f1916602001615018565b81815284602083860101111561476f57600080fd5b816020850160208301376000918101602001919091529392505050565b60006020828403121561479e57600080fd5b613a9782614700565b60008060008060008060008060006101208a8c0312156147c657600080fd5b6147cf8a614700565b98506147dd60208b01614700565b975060408a013567ffffffffffffffff808211156147fa57600080fd5b6148068d838e0161471c565b985060608c013591508082111561481c57600080fd5b6148288d838e0161471c565b975060808c0135965060a08c013591508082111561484557600080fd5b6148518d838e0161471c565b955060c08c013591508082111561486757600080fd5b506148748c828d0161471c565b93505060e08a013591506101008a013590509295985092959850929598565b6000806000606084860312156148a857600080fd5b6148b184614700565b95602085013595506040909401359392505050565b6000806000606084860312156148db57600080fd5b833567ffffffffffffffff808211156148f357600080fd5b818601915086601f83011261490757600080fd5b813560208282111561491b5761491b6151af565b8160051b61492a828201615018565b8381528281019086840183880185018d101561494557600080fd5b600097505b8588101561496857803583526001979097019691840191840161494a565b5098505050870135945050604086013591508082111561498757600080fd5b506149948682870161471c565b9150509250925092565b6000602082840312156149b057600080fd5b8135613a97816151c5565b6000602082840312156149cd57600080fd5b8151613a97816151c5565b6000602082840312156149ea57600080fd5b5035919050565b60008060408385031215614a0457600080fd5b50508035926020909101359150565b60008060208385031215614a2657600080fd5b823567ffffffffffffffff80821115614a3e57600080fd5b818501915085601f830112614a5257600080fd5b813581811115614a6157600080fd5b866020828501011115614a7357600080fd5b60209290920196919550909350505050565b600060208284031215614a9757600080fd5b813567ffffffffffffffff811115614aae57600080fd5b61405e8482850161471c565b600080600080600060a08688031215614ad257600080fd5b853567ffffffffffffffff80821115614aea57600080fd5b614af689838a0161471c565b96506020880135915080821115614b0c57600080fd5b50614b198882890161471c565b9450506040860135614b2a816151c5565b9250614b3860608701614700565b949793965091946080013592915050565b600060208284031215614b5b57600080fd5b5051919050565b60008060408385031215614b7557600080fd5b82359150614b8560208401614700565b90509250929050565b600080600060608486031215614ba357600080fd5b83359250614bb360208501614700565b9150614bc160408501614700565b90509250925092565b60008060008060808587031215614be057600080fd5b5050823594602084013594506040840135936060013592509050565b6000806000806000806000806000806101408b8d031215614c1c57600080fd5b8a35995060208b0135985060408b0135975060608b0135965060808b0135955060a08b0135945060c08b0135935060e08b013592506101008b013591506101208b013560028110614c6c57600080fd5b809150509295989b9194979a5092959850565b600081518084526020808501945080840160005b83811015614caf57815187529582019590820190600101614c93565b509495945050505050565b60008151808452614cd28160208601602086016150ab565b601f01601f19169290920160200192915050565b60008251614cf88184602087016150ab565b9190910192915050565b60006001600160a01b03808616835260606020840152614d256060840186614cba565b9150808416604084015250949350505050565b6001600160a01b0384168152826020820152606060408201526000613ed36060830184614cba565b602081526000613a976020830184614c7f565b604081526000614d866040830185614c7f565b82810360208481019190915284518083528582019282019060005b81811015614dc65784516001600160a01b031683529383019391830191600101614da1565b5090979650505050505050565b608081526000614de66080830187614c7f565b6020830195909552506040810192909252606090910152919050565b8d151581526001600160a01b038d1660208201526001600160a01b038c1660408201526101a060608201526000614e3d6101a083018d614cba565b8281036080840152614e4f818d614cba565b90508a60a084015282810360c0840152614e69818b614cba565b905082810360e0840152614e7d818a614cba565b61010084019890985250506101208101949094526101408401929092526101608301526101809091015298975050505050505050565b821515815260406020820152600061405e6040830184614cba565b602081526000613a976020830184614cba565b60c081526000614ef460c0830189614cba565b8281036020840152614f068189614cba565b961515604084015250506001600160a01b03939093166060840152608083019190915260a09091015292915050565b86815260c060208201526000614f4e60c0830188614cba565b8281036040840152614f608188614cba565b951515606084015250506001600160a01b0392909216608083015260a0909101529392505050565b6000610180820190508d82528c60208301528b60408301528a60608301528960808301528860a08301528760c08301528660e08301526001600160a01b038087166101008401528086166101208401525060048410614fe957614fe9615183565b836101408301526002831061500057615000615183565b826101608301529d9c50505050505050505050505050565b604051601f8201601f1916810167ffffffffffffffff81118282101715615041576150416151af565b604052919050565b6000821982111561505c5761505c615157565b500190565b6000826150705761507061516d565b500490565b600081600019048311821515161561508f5761508f615157565b500290565b6000828210156150a6576150a6615157565b500390565b60005b838110156150c65781810151838201526020016150ae565b83811115611a845750506000910152565b600181811c908216806150eb57607f821691505b6020821081141561510c57634e487b7160e01b600052602260045260246000fd5b50919050565b600060001982141561512657615126615157565b5060010190565b60008261513c5761513c61516d565b500690565b634e487b7160e01b600052600160045260246000fd5b634e487b7160e01b600052601160045260246000fd5b634e487b7160e01b600052601260045260246000fd5b634e487b7160e01b600052602160045260246000fd5b634e487b7160e01b600052603260045260246000fd5b634e487b7160e01b600052604160045260246000fd5b801515811461387557600080fdfea2646970667358221220bcab5032a6980267075efc90b6f89baf5fb3d38b62ee7b159302f0aa9b9395a264736f6c63430008070033","opcodes":"PUSH1 0xC0 PUSH1 0x40 MSTORE PUSH1 0x1 PUSH1 0x3 SSTORE PUSH1 0x1 PUSH1 0x4 SSTORE PUSH1 0x0 PUSH1 0x5 SSTORE PUSH1 0xA PUSH1 0x6 SSTORE PUSH1 0xA PUSH1 0x7 SSTORE PUSH1 0xA PUSH1 0x8 SSTORE PUSH1 0xA PUSH1 0x9 SSTORE PUSH1 0x5 PUSH1 0xA SSTORE CALLVALUE DUP1 ISZERO PUSH3 0x39 JUMPI PUSH1 0x0 DUP1 REVERT JUMPDEST POP PUSH1 0x40 MLOAD PUSH3 0x58A3 CODESIZE SUB DUP1 PUSH3 0x58A3 DUP4 CODECOPY DUP2 ADD PUSH1 0x40 DUP2 SWAP1 MSTORE PUSH3 0x5C SWAP2 PUSH3 0x5B9 JUMP JUMPDEST PUSH32 0x8C7382F9D8F56B33781FE506E897A4F1E2D17255000000000000000000000000 PUSH1 0xA0 SWAP1 DUP2 MSTORE PUSH32 0x326C977E6EFC84E512BB9C30F76E30C160ED06FB000000000000000000000000 PUSH1 0x80 SWAP1 DUP2 MSTORE PUSH32 0x6E75B569A01EF56D18CAB6A8E71E6600D6CE853834D4A5748B720D06F878B3A4 PUSH1 0x1 SWAP1 DUP2 SSTORE PUSH6 0x5AF3107A4000 PUSH1 0xC SSTORE PUSH1 0xE DUP1 SLOAD CALLER PUSH1 0x1 PUSH1 0x1 PUSH1 0xA0 SHL SUB NOT SWAP2 DUP3 AND DUP2 OR SWAP1 SWAP3 SSTORE PUSH1 0xB DUP1 SLOAD DUP3 AND PUSH1 0x1 PUSH1 0x1 PUSH1 0xA0 SHL SUB DUP9 DUP2 AND SWAP2 SWAP1 SWAP2 OR SWAP1 SWAP2 SSTORE PUSH1 0x40 DUP1 MLOAD PUSH2 0x1A0 DUP2 ADD DUP3 MSTORE DUP6 DUP2 MSTORE PUSH1 0x20 DUP2 DUP2 ADD DUP7 DUP2 MSTORE PUSH1 0x0 DUP4 DUP6 ADD DUP2 DUP2 MSTORE DUP6 MLOAD DUP1 DUP8 ADD DUP8 MSTORE PUSH1 0x7 DUP2 MSTORE PUSH7 0x105D5D1BD8995D PUSH1 0xCA SHL DUP2 DUP7 ADD MSTORE PUSH1 0x60 DUP7 ADD SWAP1 DUP2 MSTORE DUP7 MLOAD DUP1 DUP7 ADD DUP9 MSTORE DUP4 DUP2 MSTORE SWAP12 DUP7 ADD SWAP12 SWAP1 SWAP12 MSTORE SWAP11 DUP5 ADD DUP2 SWAP1 MSTORE DUP5 MLOAD DUP1 DUP7 ADD DUP7 MSTORE PUSH1 0x18 DUP2 MSTORE PUSH32 0x6175746F6265746C6F747465727940676D61696C2E636F6D0000000000000000 DUP2 DUP6 ADD MSTORE PUSH1 0xC0 DUP6 ADD MSTORE DUP5 MLOAD DUP1 DUP5 ADD DUP7 MSTORE DUP2 DUP2 MSTORE PUSH1 0xE0 DUP6 ADD MSTORE PUSH1 0x4 SLOAD PUSH2 0x100 DUP1 DUP7 ADD SWAP2 SWAP1 SWAP2 MSTORE PUSH2 0x120 DUP6 ADD DUP3 SWAP1 MSTORE PUSH2 0x140 DUP6 ADD DUP3 SWAP1 MSTORE PUSH13 0xC9F2C9CD04674EDEA40000000 PUSH2 0x160 DUP7 ADD MSTORE PUSH2 0x180 DUP6 ADD DUP3 SWAP1 MSTORE SWAP8 DUP2 MSTORE PUSH1 0x10 DUP4 MSTORE SWAP4 SWAP1 SWAP4 KECCAK256 DUP3 MLOAD DUP2 SLOAD SWAP5 MLOAD PUSH1 0x1 PUSH1 0x1 PUSH1 0xA8 SHL SUB NOT SWAP1 SWAP6 AND SWAP1 ISZERO ISZERO PUSH2 0x100 PUSH1 0x1 PUSH1 0xA8 SHL SUB NOT AND OR SWAP4 DUP6 AND SWAP1 SWAP7 MUL SWAP3 SWAP1 SWAP3 OR DUP6 SSTORE SWAP7 MLOAD SWAP5 DUP5 ADD DUP1 SLOAD SWAP1 SWAP4 AND SWAP5 SWAP1 SWAP2 AND SWAP4 SWAP1 SWAP4 OR SWAP1 SSTORE SWAP2 MLOAD DUP1 MLOAD PUSH3 0x23B SWAP3 PUSH1 0x2 DUP6 ADD SWAP3 ADD SWAP1 PUSH3 0x513 JUMP JUMPDEST POP PUSH1 0x80 DUP3 ADD MLOAD DUP1 MLOAD PUSH3 0x259 SWAP2 PUSH1 0x3 DUP5 ADD SWAP2 PUSH1 0x20 SWAP1 SWAP2 ADD SWAP1 PUSH3 0x513 JUMP JUMPDEST POP PUSH1 0xA0 DUP3 ADD MLOAD PUSH1 0x4 DUP3 ADD SSTORE PUSH1 0xC0 DUP3 ADD MLOAD DUP1 MLOAD PUSH3 0x281 SWAP2 PUSH1 0x5 DUP5 ADD SWAP2 PUSH1 0x20 SWAP1 SWAP2 ADD SWAP1 PUSH3 0x513 JUMP JUMPDEST POP PUSH1 0xE0 DUP3 ADD MLOAD DUP1 MLOAD PUSH3 0x29F SWAP2 PUSH1 0x6 DUP5 ADD SWAP2 PUSH1 0x20 SWAP1 SWAP2 ADD SWAP1 PUSH3 0x513 JUMP JUMPDEST POP PUSH2 0x100 DUP3 ADD MLOAD DUP2 PUSH1 0x7 ADD SSTORE PUSH2 0x120 DUP3 ADD MLOAD DUP2 PUSH1 0x8 ADD SSTORE PUSH2 0x140 DUP3 ADD MLOAD DUP2 PUSH1 0x9 ADD SSTORE PUSH2 0x160 DUP3 ADD MLOAD DUP2 PUSH1 0xA ADD SSTORE PUSH2 0x180 DUP3 ADD MLOAD DUP2 PUSH1 0xB ADD SSTORE SWAP1 POP POP PUSH1 0x40 MLOAD DUP1 PUSH2 0x1A0 ADD PUSH1 0x40 MSTORE DUP1 PUSH1 0x1 ISZERO ISZERO DUP2 MSTORE PUSH1 0x20 ADD CALLER PUSH1 0x1 PUSH1 0x1 PUSH1 0xA0 SHL SUB AND DUP2 MSTORE PUSH1 0x20 ADD PUSH1 0x0 PUSH1 0x1 PUSH1 0x1 PUSH1 0xA0 SHL SUB AND DUP2 MSTORE PUSH1 0x20 ADD PUSH1 0x40 MLOAD DUP1 PUSH1 0x40 ADD PUSH1 0x40 MSTORE DUP1 PUSH1 0x7 DUP2 MSTORE PUSH1 0x20 ADD PUSH7 0x105D5D1BD8995D PUSH1 0xCA SHL DUP2 MSTORE POP DUP2 MSTORE PUSH1 0x20 ADD PUSH1 0x40 MLOAD DUP1 PUSH1 0x20 ADD PUSH1 0x40 MSTORE DUP1 PUSH1 0x0 DUP2 MSTORE POP DUP2 MSTORE PUSH1 0x20 ADD PUSH1 0x0 DUP2 MSTORE PUSH1 0x20 ADD PUSH1 0x40 MLOAD DUP1 PUSH1 0x40 ADD PUSH1 0x40 MSTORE DUP1 PUSH1 0x18 DUP2 MSTORE PUSH1 0x20 ADD PUSH32 0x6175746F6265746C6F747465727940676D61696C2E636F6D0000000000000000 DUP2 MSTORE POP DUP2 MSTORE PUSH1 0x20 ADD PUSH1 0x40 MLOAD DUP1 PUSH1 0x20 ADD PUSH1 0x40 MSTORE DUP1 PUSH1 0x0 DUP2 MSTORE POP DUP2 MSTORE PUSH1 0x20 ADD PUSH1 0x4 SLOAD DUP2 MSTORE PUSH1 0x20 ADD PUSH1 0x0 DUP2 MSTORE PUSH1 0x20 ADD PUSH1 0x0 DUP2 MSTORE PUSH1 0x20 ADD PUSH13 0xC9F2C9CD04674EDEA40000000 DUP2 MSTORE PUSH1 0x20 ADD PUSH1 0x0 DUP2 MSTORE POP PUSH1 0xF PUSH1 0x0 PUSH1 0x4 PUSH1 0x0 DUP2 SLOAD DUP1 SWAP3 SWAP2 SWAP1 PUSH3 0x3E6 SWAP1 PUSH3 0x628 JUMP JUMPDEST SWAP1 SWAP2 SSTORE POP DUP2 MSTORE PUSH1 0x20 DUP1 DUP3 ADD SWAP3 SWAP1 SWAP3 MSTORE PUSH1 0x40 SWAP1 DUP2 ADD PUSH1 0x0 KECCAK256 DUP4 MLOAD DUP2 SLOAD DUP6 DUP6 ADD MLOAD PUSH1 0x1 PUSH1 0x1 PUSH1 0xA8 SHL SUB NOT SWAP1 SWAP2 AND SWAP2 ISZERO ISZERO PUSH2 0x100 PUSH1 0x1 PUSH1 0xA8 SHL SUB NOT AND SWAP2 SWAP1 SWAP2 OR PUSH2 0x100 PUSH1 0x1 PUSH1 0x1 PUSH1 0xA0 SHL SUB SWAP3 DUP4 AND MUL OR DUP3 SSTORE SWAP2 DUP5 ADD MLOAD PUSH1 0x1 DUP3 ADD DUP1 SLOAD PUSH1 0x1 PUSH1 0x1 PUSH1 0xA0 SHL SUB NOT AND SWAP2 SWAP1 SWAP4 AND OR SWAP1 SWAP2 SSTORE PUSH1 0x60 DUP4 ADD MLOAD DUP1 MLOAD SWAP2 SWAP3 PUSH3 0x46E SWAP3 PUSH1 0x2 DUP6 ADD SWAP3 SWAP1 SWAP2 ADD SWAP1 PUSH3 0x513 JUMP JUMPDEST POP PUSH1 0x80 DUP3 ADD MLOAD DUP1 MLOAD PUSH3 0x48C SWAP2 PUSH1 0x3 DUP5 ADD SWAP2 PUSH1 0x20 SWAP1 SWAP2 ADD SWAP1 PUSH3 0x513 JUMP JUMPDEST POP PUSH1 0xA0 DUP3 ADD MLOAD PUSH1 0x4 DUP3 ADD SSTORE PUSH1 0xC0 DUP3 ADD MLOAD DUP1 MLOAD PUSH3 0x4B4 SWAP2 PUSH1 0x5 DUP5 ADD SWAP2 PUSH1 0x20 SWAP1 SWAP2 ADD SWAP1 PUSH3 0x513 JUMP JUMPDEST POP PUSH1 0xE0 DUP3 ADD MLOAD DUP1 MLOAD PUSH3 0x4D2 SWAP2 PUSH1 0x6 DUP5 ADD SWAP2 PUSH1 0x20 SWAP1 SWAP2 ADD SWAP1 PUSH3 0x513 JUMP JUMPDEST POP PUSH2 0x100 DUP3 ADD MLOAD PUSH1 0x7 DUP3 ADD SSTORE PUSH2 0x120 DUP3 ADD MLOAD PUSH1 0x8 DUP3 ADD SSTORE PUSH2 0x140 DUP3 ADD MLOAD PUSH1 0x9 DUP3 ADD SSTORE PUSH2 0x160 DUP3 ADD MLOAD PUSH1 0xA DUP3 ADD SSTORE PUSH2 0x180 SWAP1 SWAP2 ADD MLOAD PUSH1 0xB SWAP1 SWAP2 ADD SSTORE POP PUSH3 0x652 JUMP JUMPDEST DUP3 DUP1 SLOAD PUSH3 0x521 SWAP1 PUSH3 0x5EB JUMP JUMPDEST SWAP1 PUSH1 0x0 MSTORE PUSH1 0x20 PUSH1 0x0 KECCAK256 SWAP1 PUSH1 0x1F ADD PUSH1 0x20 SWAP1 DIV DUP2 ADD SWAP3 DUP3 PUSH3 0x545 JUMPI PUSH1 0x0 DUP6 SSTORE PUSH3 0x590 JUMP JUMPDEST DUP3 PUSH1 0x1F LT PUSH3 0x560 JUMPI DUP1 MLOAD PUSH1 0xFF NOT AND DUP4 DUP1 ADD OR DUP6 SSTORE PUSH3 0x590 JUMP JUMPDEST DUP3 DUP1 ADD PUSH1 0x1 ADD DUP6 SSTORE DUP3 ISZERO PUSH3 0x590 JUMPI SWAP2 DUP3 ADD JUMPDEST DUP3 DUP2 GT ISZERO PUSH3 0x590 JUMPI DUP3 MLOAD DUP3 SSTORE SWAP2 PUSH1 0x20 ADD SWAP2 SWAP1 PUSH1 0x1 ADD SWAP1 PUSH3 0x573 JUMP JUMPDEST POP PUSH3 0x59E SWAP3 SWAP2 POP PUSH3 0x5A2 JUMP JUMPDEST POP SWAP1 JUMP JUMPDEST JUMPDEST DUP1 DUP3 GT ISZERO PUSH3 0x59E JUMPI PUSH1 0x0 DUP2 SSTORE PUSH1 0x1 ADD PUSH3 0x5A3 JUMP JUMPDEST PUSH1 0x0 PUSH1 0x20 DUP3 DUP5 SUB SLT ISZERO PUSH3 0x5CC JUMPI PUSH1 0x0 DUP1 REVERT JUMPDEST DUP2 MLOAD PUSH1 0x1 PUSH1 0x1 PUSH1 0xA0 SHL SUB DUP2 AND DUP2 EQ PUSH3 0x5E4 JUMPI PUSH1 0x0 DUP1 REVERT JUMPDEST SWAP4 SWAP3 POP POP POP JUMP JUMPDEST PUSH1 0x1 DUP2 DUP2 SHR SWAP1 DUP3 AND DUP1 PUSH3 0x600 JUMPI PUSH1 0x7F DUP3 AND SWAP2 POP JUMPDEST PUSH1 0x20 DUP3 LT DUP2 EQ ISZERO PUSH3 0x622 JUMPI PUSH4 0x4E487B71 PUSH1 0xE0 SHL PUSH1 0x0 MSTORE PUSH1 0x22 PUSH1 0x4 MSTORE PUSH1 0x24 PUSH1 0x0 REVERT JUMPDEST POP SWAP2 SWAP1 POP JUMP JUMPDEST PUSH1 0x0 PUSH1 0x0 NOT DUP3 EQ ISZERO PUSH3 0x64B JUMPI PUSH4 0x4E487B71 PUSH1 0xE0 SHL PUSH1 0x0 MSTORE PUSH1 0x11 PUSH1 0x4 MSTORE PUSH1 0x24 PUSH1 0x0 REVERT JUMPDEST POP PUSH1 0x1 ADD SWAP1 JUMP JUMPDEST PUSH1 0x80 MLOAD PUSH1 0x60 SHR PUSH1 0xA0 MLOAD PUSH1 0x60 SHR PUSH2 0x5209 PUSH3 0x69A PUSH1 0x0 CODECOPY PUSH1 0x0 DUP2 DUP2 PUSH2 0x330B ADD MSTORE PUSH2 0x3F0F ADD MSTORE PUSH1 0x0 DUP2 DUP2 PUSH2 0x3140 ADD MSTORE DUP2 DUP2 PUSH2 0x3AB8 ADD MSTORE DUP2 DUP2 PUSH2 0x3D1C ADD MSTORE PUSH2 0x3EE0 ADD MSTORE PUSH2 0x5209 PUSH1 0x0 RETURN INVALID PUSH1 0x80 PUSH1 0x40 MSTORE PUSH1 0x4 CALLDATASIZE LT PUSH2 0x36B JUMPI PUSH1 0x0 CALLDATALOAD PUSH1 0xE0 SHR DUP1 PUSH4 0x7782D576 GT PUSH2 0x1C6 JUMPI DUP1 PUSH4 0xAA37DB6C GT PUSH2 0xF7 JUMPI DUP1 PUSH4 0xD7E2368F GT PUSH2 0x95 JUMPI DUP1 PUSH4 0xE580F47B GT PUSH2 0x6F JUMPI DUP1 PUSH4 0xE580F47B EQ PUSH2 0xB0E JUMPI DUP1 PUSH4 0xE9A9C50C EQ PUSH2 0xB24 JUMPI DUP1 PUSH4 0xEA9FAE80 EQ PUSH2 0xB39 JUMPI DUP1 PUSH4 0xF851A440 EQ PUSH2 0xB59 JUMPI PUSH1 0x0 DUP1 REVERT JUMPDEST DUP1 PUSH4 0xD7E2368F EQ PUSH2 0xAC3 JUMPI DUP1 PUSH4 0xE043E7BC EQ PUSH2 0xAD9 JUMPI DUP1 PUSH4 0xE086E5EC EQ PUSH2 0xB06 JUMPI PUSH1 0x0 DUP1 REVERT JUMPDEST DUP1 PUSH4 0xBEF7E5A2 GT PUSH2 0xD1 JUMPI DUP1 PUSH4 0xBEF7E5A2 EQ PUSH2 0xA43 JUMPI DUP1 PUSH4 0xC41CE92E EQ PUSH2 0xA70 JUMPI DUP1 PUSH4 0xC6B7CB69 EQ PUSH2 0xA90 JUMPI DUP1 PUSH4 0xD61752FE EQ PUSH2 0xAB0 JUMPI PUSH1 0x0 DUP1 REVERT JUMPDEST DUP1 PUSH4 0xAA37DB6C EQ PUSH2 0x9DC JUMPI DUP1 PUSH4 0xB2DD29F3 EQ PUSH2 0x9F2 JUMPI DUP1 PUSH4 0xB43F0B2B EQ PUSH2 0xA08 JUMPI PUSH1 0x0 DUP1 REVERT JUMPDEST DUP1 PUSH4 0x91489105 GT PUSH2 0x164 JUMPI DUP1 PUSH4 0x96169995 GT PUSH2 0x13E JUMPI DUP1 PUSH4 0x96169995 EQ PUSH2 0x886 JUMPI DUP1 PUSH4 0x9D76EA58 EQ PUSH2 0x8B3 JUMPI DUP1 PUSH4 0xA57D1560 EQ PUSH2 0x8D3 JUMPI DUP1 PUSH4 0xAA10304C EQ PUSH2 0x97A JUMPI PUSH1 0x0 DUP1 REVERT JUMPDEST DUP1 PUSH4 0x91489105 EQ PUSH2 0x82D JUMPI DUP1 PUSH4 0x94985DDD EQ PUSH2 0x835 JUMPI DUP1 PUSH4 0x94D1283A EQ PUSH2 0x855 JUMPI PUSH1 0x0 DUP1 REVERT JUMPDEST DUP1 PUSH4 0x8645F7A8 GT PUSH2 0x1A0 JUMPI DUP1 PUSH4 0x8645F7A8 EQ PUSH2 0x7C3 JUMPI DUP1 PUSH4 0x88804E06 EQ PUSH2 0x7F0 JUMPI DUP1 PUSH4 0x8B7AFE2E EQ PUSH2 0x803 JUMPI DUP1 PUSH4 0x8DC654A2 EQ PUSH2 0x818 JUMPI PUSH1 0x0 DUP1 REVERT JUMPDEST DUP1 PUSH4 0x7782D576 EQ PUSH2 0x744 JUMPI DUP1 PUSH4 0x7B3D5AD2 EQ PUSH2 0x776 JUMPI DUP1 PUSH4 0x80B0534A EQ PUSH2 0x796 JUMPI PUSH1 0x0 DUP1 REVERT JUMPDEST DUP1 PUSH4 0x40B43C72 GT PUSH2 0x2A0 JUMPI DUP1 PUSH4 0x5F8E26A7 GT PUSH2 0x23E JUMPI DUP1 PUSH4 0x6E04FF0D GT PUSH2 0x218 JUMPI DUP1 PUSH4 0x6E04FF0D EQ PUSH2 0x6CA JUMPI DUP1 PUSH4 0x6EDF7283 EQ PUSH2 0x6F8 JUMPI DUP1 PUSH4 0x75829DEF EQ PUSH2 0x70E JUMPI DUP1 PUSH4 0x75E9340A EQ PUSH2 0x72E JUMPI PUSH1 0x0 DUP1 REVERT JUMPDEST DUP1 PUSH4 0x5F8E26A7 EQ PUSH2 0x643 JUMPI DUP1 PUSH4 0x6B65E844 EQ PUSH2 0x671 JUMPI DUP1 PUSH4 0x6BF8DC74 EQ PUSH2 0x691 JUMPI PUSH1 0x0 DUP1 REVERT JUMPDEST DUP1 PUSH4 0x4C4426E8 GT PUSH2 0x27A JUMPI DUP1 PUSH4 0x4C4426E8 EQ PUSH2 0x5FF JUMPI DUP1 PUSH4 0x4CE6873B EQ PUSH2 0x612 JUMPI DUP1 PUSH4 0x4E7ABE25 EQ PUSH2 0x625 JUMPI DUP1 PUSH4 0x51D4568F EQ PUSH2 0x63B JUMPI PUSH1 0x0 DUP1 REVERT JUMPDEST DUP1 PUSH4 0x40B43C72 EQ PUSH2 0x592 JUMPI DUP1 PUSH4 0x4585E33B EQ PUSH2 0x5BF JUMPI DUP1 PUSH4 0x4A2A1FB0 EQ PUSH2 0x5DF JUMPI PUSH1 0x0 DUP1 REVERT JUMPDEST DUP1 PUSH4 0x2786AB76 GT PUSH2 0x30D JUMPI DUP1 PUSH4 0x3295B5B0 GT PUSH2 0x2E7 JUMPI DUP1 PUSH4 0x3295B5B0 EQ PUSH2 0x503 JUMPI DUP1 PUSH4 0x355B9098 EQ PUSH2 0x53C JUMPI DUP1 PUSH4 0x3BBD391E EQ PUSH2 0x552 JUMPI DUP1 PUSH4 0x3DE55F95 EQ PUSH2 0x565 JUMPI PUSH1 0x0 DUP1 REVERT JUMPDEST DUP1 PUSH4 0x2786AB76 EQ PUSH2 0x482 JUMPI DUP1 PUSH4 0x2F24D5DC EQ PUSH2 0x4D0 JUMPI DUP1 PUSH4 0x30148970 EQ PUSH2 0x4E3 JUMPI PUSH1 0x0 DUP1 REVERT JUMPDEST DUP1 PUSH4 0x1C9C8E99 GT PUSH2 0x349 JUMPI DUP1 PUSH4 0x1C9C8E99 EQ PUSH2 0x3D0 JUMPI DUP1 PUSH4 0x26617DDB EQ PUSH2 0x3FD JUMPI DUP1 PUSH4 0x26A4E8D2 EQ PUSH2 0x435 JUMPI DUP1 PUSH4 0x2751134A EQ PUSH2 0x455 JUMPI PUSH1 0x0 DUP1 REVERT JUMPDEST DUP1 PUSH4 0x19C08F5 EQ PUSH2 0x370 JUMPI DUP1 PUSH4 0x4C76AF0 EQ PUSH2 0x399 JUMPI DUP1 PUSH4 0x16A1A468 EQ PUSH2 0x3A3 JUMPI JUMPDEST PUSH1 0x0 DUP1 REVERT JUMPDEST CALLVALUE DUP1 ISZERO PUSH2 0x37C JUMPI PUSH1 0x0 DUP1 REVERT JUMPDEST POP PUSH2 0x386 PUSH1 0x4 SLOAD DUP2 JUMP JUMPDEST PUSH1 0x40 MLOAD SWAP1 DUP2 MSTORE PUSH1 0x20 ADD JUMPDEST PUSH1 0x40 MLOAD DUP1 SWAP2 SUB SWAP1 RETURN JUMPDEST PUSH2 0x3A1 PUSH2 0xB79 JUMP JUMPDEST STOP JUMPDEST CALLVALUE DUP1 ISZERO PUSH2 0x3AF JUMPI PUSH1 0x0 DUP1 REVERT JUMPDEST POP PUSH2 0x386 PUSH2 0x3BE CALLDATASIZE PUSH1 0x4 PUSH2 0x478C JUMP JUMPDEST PUSH1 0x19 PUSH1 0x20 MSTORE PUSH1 0x0 SWAP1 DUP2 MSTORE PUSH1 0x40 SWAP1 KECCAK256 SLOAD DUP2 JUMP JUMPDEST CALLVALUE DUP1 ISZERO PUSH2 0x3DC JUMPI PUSH1 0x0 DUP1 REVERT JUMPDEST POP PUSH2 0x3F0 PUSH2 0x3EB CALLDATASIZE PUSH1 0x4 PUSH2 0x478C JUMP JUMPDEST PUSH2 0xC34 JUMP JUMPDEST PUSH1 0x40 MLOAD PUSH2 0x390 SWAP2 SWAP1 PUSH2 0x4D60 JUMP JUMPDEST CALLVALUE DUP1 ISZERO PUSH2 0x409 JUMPI PUSH1 0x0 DUP1 REVERT JUMPDEST POP PUSH2 0x386 PUSH2 0x418 CALLDATASIZE PUSH1 0x4 PUSH2 0x4B62 JUMP JUMPDEST PUSH1 0x21 PUSH1 0x20 SWAP1 DUP2 MSTORE PUSH1 0x0 SWAP3 DUP4 MSTORE PUSH1 0x40 DUP1 DUP5 KECCAK256 SWAP1 SWAP2 MSTORE SWAP1 DUP3 MSTORE SWAP1 KECCAK256 SLOAD DUP2 JUMP JUMPDEST CALLVALUE DUP1 ISZERO PUSH2 0x441 JUMPI PUSH1 0x0 DUP1 REVERT JUMPDEST POP PUSH2 0x3A1 PUSH2 0x450 CALLDATASIZE PUSH1 0x4 PUSH2 0x478C JUMP JUMPDEST PUSH2 0xD23 JUMP JUMPDEST CALLVALUE DUP1 ISZERO PUSH2 0x461 JUMPI PUSH1 0x0 DUP1 REVERT JUMPDEST POP PUSH2 0x386 PUSH2 0x470 CALLDATASIZE PUSH1 0x4 PUSH2 0x478C JUMP JUMPDEST PUSH1 0x15 PUSH1 0x20 MSTORE PUSH1 0x0 SWAP1 DUP2 MSTORE PUSH1 0x40 SWAP1 KECCAK256 SLOAD DUP2 JUMP JUMPDEST CALLVALUE DUP1 ISZERO PUSH2 0x48E JUMPI PUSH1 0x0 DUP1 REVERT JUMPDEST POP PUSH2 0x4B8 PUSH2 0x49D CALLDATASIZE PUSH1 0x4 PUSH2 0x49D8 JUMP JUMPDEST PUSH1 0x1E PUSH1 0x20 MSTORE PUSH1 0x0 SWAP1 DUP2 MSTORE PUSH1 0x40 SWAP1 KECCAK256 SLOAD PUSH1 0x1 PUSH1 0x1 PUSH1 0xA0 SHL SUB AND DUP2 JUMP JUMPDEST PUSH1 0x40 MLOAD PUSH1 0x1 PUSH1 0x1 PUSH1 0xA0 SHL SUB SWAP1 SWAP2 AND DUP2 MSTORE PUSH1 0x20 ADD PUSH2 0x390 JUMP JUMPDEST PUSH2 0x3A1 PUSH2 0x4DE CALLDATASIZE PUSH1 0x4 PUSH2 0x49F1 JUMP JUMPDEST PUSH2 0xD8D JUMP JUMPDEST CALLVALUE DUP1 ISZERO PUSH2 0x4EF JUMPI PUSH1 0x0 DUP1 REVERT JUMPDEST POP PUSH2 0x3A1 PUSH2 0x4FE CALLDATASIZE PUSH1 0x4 PUSH2 0x4ABA JUMP JUMPDEST PUSH2 0x10C4 JUMP JUMPDEST CALLVALUE DUP1 ISZERO PUSH2 0x50F JUMPI PUSH1 0x0 DUP1 REVERT JUMPDEST POP PUSH2 0x523 PUSH2 0x51E CALLDATASIZE PUSH1 0x4 PUSH2 0x49D8 JUMP JUMPDEST PUSH2 0x1378 JUMP JUMPDEST PUSH1 0x40 MLOAD PUSH2 0x390 SWAP14 SWAP13 SWAP12 SWAP11 SWAP10 SWAP9 SWAP8 SWAP7 SWAP6 SWAP5 SWAP4 SWAP3 SWAP2 SWAP1 PUSH2 0x4E02 JUMP JUMPDEST CALLVALUE DUP1 ISZERO PUSH2 0x548 JUMPI PUSH1 0x0 DUP1 REVERT JUMPDEST POP PUSH2 0x386 PUSH1 0x9 SLOAD DUP2 JUMP JUMPDEST PUSH2 0x3A1 PUSH2 0x560 CALLDATASIZE PUSH1 0x4 PUSH2 0x49F1 JUMP JUMPDEST PUSH2 0x1609 JUMP JUMPDEST CALLVALUE DUP1 ISZERO PUSH2 0x571 JUMPI PUSH1 0x0 DUP1 REVERT JUMPDEST POP PUSH2 0x386 PUSH2 0x580 CALLDATASIZE PUSH1 0x4 PUSH2 0x478C JUMP JUMPDEST PUSH1 0x16 PUSH1 0x20 MSTORE PUSH1 0x0 SWAP1 DUP2 MSTORE PUSH1 0x40 SWAP1 KECCAK256 SLOAD DUP2 JUMP JUMPDEST CALLVALUE DUP1 ISZERO PUSH2 0x59E JUMPI PUSH1 0x0 DUP1 REVERT JUMPDEST POP PUSH2 0x386 PUSH2 0x5AD CALLDATASIZE PUSH1 0x4 PUSH2 0x49D8 JUMP JUMPDEST PUSH1 0x1C PUSH1 0x20 MSTORE PUSH1 0x0 SWAP1 DUP2 MSTORE PUSH1 0x40 SWAP1 KECCAK256 SLOAD DUP2 JUMP JUMPDEST CALLVALUE DUP1 ISZERO PUSH2 0x5CB JUMPI PUSH1 0x0 DUP1 REVERT JUMPDEST POP PUSH2 0x3A1 PUSH2 0x5DA CALLDATASIZE PUSH1 0x4 PUSH2 0x4A13 JUMP JUMPDEST PUSH2 0x1804 JUMP JUMPDEST CALLVALUE DUP1 ISZERO PUSH2 0x5EB JUMPI PUSH1 0x0 DUP1 REVERT JUMPDEST POP PUSH2 0x3A1 PUSH2 0x5FA CALLDATASIZE PUSH1 0x4 PUSH2 0x4B8E JUMP JUMPDEST PUSH2 0x193C JUMP JUMPDEST PUSH2 0x3A1 PUSH2 0x60D CALLDATASIZE PUSH1 0x4 PUSH2 0x47A7 JUMP JUMPDEST PUSH2 0x1A8A JUMP JUMPDEST PUSH2 0x3A1 PUSH2 0x620 CALLDATASIZE PUSH1 0x4 PUSH2 0x4BFC JUMP JUMPDEST PUSH2 0x1F9C JUMP JUMPDEST CALLVALUE DUP1 ISZERO PUSH2 0x631 JUMPI PUSH1 0x0 DUP1 REVERT JUMPDEST POP PUSH2 0x386 PUSH1 0x6 SLOAD DUP2 JUMP JUMPDEST PUSH2 0x3A1 PUSH2 0x25A9 JUMP JUMPDEST CALLVALUE DUP1 ISZERO PUSH2 0x64F JUMPI PUSH1 0x0 DUP1 REVERT JUMPDEST POP PUSH2 0x663 PUSH2 0x65E CALLDATASIZE PUSH1 0x4 PUSH2 0x49D8 JUMP JUMPDEST PUSH2 0x2685 JUMP JUMPDEST PUSH1 0x40 MLOAD PUSH2 0x390 SWAP3 SWAP2 SWAP1 PUSH2 0x4D73 JUMP JUMPDEST CALLVALUE DUP1 ISZERO PUSH2 0x67D JUMPI PUSH1 0x0 DUP1 REVERT JUMPDEST POP PUSH2 0x523 PUSH2 0x68C CALLDATASIZE PUSH1 0x4 PUSH2 0x478C JUMP JUMPDEST PUSH2 0x286A JUMP JUMPDEST CALLVALUE DUP1 ISZERO PUSH2 0x69D JUMPI PUSH1 0x0 DUP1 REVERT JUMPDEST POP PUSH2 0x3A1 PUSH2 0x6AC CALLDATASIZE PUSH1 0x4 PUSH2 0x499E JUMP JUMPDEST PUSH1 0xE DUP1 SLOAD SWAP2 ISZERO ISZERO PUSH1 0x1 PUSH1 0xA0 SHL MUL PUSH1 0xFF PUSH1 0xA0 SHL NOT SWAP1 SWAP3 AND SWAP2 SWAP1 SWAP2 OR SWAP1 SSTORE JUMP JUMPDEST CALLVALUE DUP1 ISZERO PUSH2 0x6D6 JUMPI PUSH1 0x0 DUP1 REVERT JUMPDEST POP PUSH2 0x6EA PUSH2 0x6E5 CALLDATASIZE PUSH1 0x4 PUSH2 0x4A13 JUMP JUMPDEST PUSH2 0x28AA JUMP JUMPDEST PUSH1 0x40 MLOAD PUSH2 0x390 SWAP3 SWAP2 SWAP1 PUSH2 0x4EB3 JUMP JUMPDEST CALLVALUE DUP1 ISZERO PUSH2 0x704 JUMPI PUSH1 0x0 DUP1 REVERT JUMPDEST POP PUSH2 0x386 PUSH1 0x2 SLOAD DUP2 JUMP JUMPDEST CALLVALUE DUP1 ISZERO PUSH2 0x71A JUMPI PUSH1 0x0 DUP1 REVERT JUMPDEST POP PUSH2 0x3A1 PUSH2 0x729 CALLDATASIZE PUSH1 0x4 PUSH2 0x478C JUMP JUMPDEST PUSH2 0x29EA JUMP JUMPDEST CALLVALUE DUP1 ISZERO PUSH2 0x73A JUMPI PUSH1 0x0 DUP1 REVERT JUMPDEST POP PUSH2 0x386 PUSH1 0x7 SLOAD DUP2 JUMP JUMPDEST CALLVALUE DUP1 ISZERO PUSH2 0x750 JUMPI PUSH1 0x0 DUP1 REVERT JUMPDEST POP PUSH2 0x764 PUSH2 0x75F CALLDATASIZE PUSH1 0x4 PUSH2 0x478C JUMP JUMPDEST PUSH2 0x2A67 JUMP JUMPDEST PUSH1 0x40 MLOAD PUSH2 0x390 SWAP7 SWAP6 SWAP5 SWAP4 SWAP3 SWAP2 SWAP1 PUSH2 0x4EE1 JUMP JUMPDEST CALLVALUE DUP1 ISZERO PUSH2 0x782 JUMPI PUSH1 0x0 DUP1 REVERT JUMPDEST POP PUSH2 0x3A1 PUSH2 0x791 CALLDATASIZE PUSH1 0x4 PUSH2 0x4ABA JUMP JUMPDEST PUSH2 0x2BB9 JUMP JUMPDEST CALLVALUE DUP1 ISZERO PUSH2 0x7A2 JUMPI PUSH1 0x0 DUP1 REVERT JUMPDEST POP PUSH2 0x386 PUSH2 0x7B1 CALLDATASIZE PUSH1 0x4 PUSH2 0x49D8 JUMP JUMPDEST PUSH1 0x1D PUSH1 0x20 MSTORE PUSH1 0x0 SWAP1 DUP2 MSTORE PUSH1 0x40 SWAP1 KECCAK256 SLOAD DUP2 JUMP JUMPDEST CALLVALUE DUP1 ISZERO PUSH2 0x7CF JUMPI PUSH1 0x0 DUP1 REVERT JUMPDEST POP PUSH2 0x386 PUSH2 0x7DE CALLDATASIZE PUSH1 0x4 PUSH2 0x49D8 JUMP JUMPDEST PUSH1 0x1B PUSH1 0x20 MSTORE PUSH1 0x0 SWAP1 DUP2 MSTORE PUSH1 0x40 SWAP1 KECCAK256 SLOAD DUP2 JUMP JUMPDEST PUSH2 0x3A1 PUSH2 0x7FE CALLDATASIZE PUSH1 0x4 PUSH2 0x4893 JUMP JUMPDEST PUSH2 0x2E93 JUMP JUMPDEST CALLVALUE DUP1 ISZERO PUSH2 0x80F JUMPI PUSH1 0x0 DUP1 REVERT JUMPDEST POP PUSH2 0x386 PUSH2 0x3093 JUMP JUMPDEST CALLVALUE DUP1 ISZERO PUSH2 0x824 JUMPI PUSH1 0x0 DUP1 REVERT JUMPDEST POP PUSH2 0x3A1 PUSH2 0x30E3 JUMP JUMPDEST PUSH2 0x3A1 PUSH2 0x32B0 JUMP JUMPDEST CALLVALUE DUP1 ISZERO PUSH2 0x841 JUMPI PUSH1 0x0 DUP1 REVERT JUMPDEST POP PUSH2 0x3A1 PUSH2 0x850 CALLDATASIZE PUSH1 0x4 PUSH2 0x49F1 JUMP JUMPDEST PUSH2 0x3300 JUMP JUMPDEST CALLVALUE DUP1 ISZERO PUSH2 0x861 JUMPI PUSH1 0x0 DUP1 REVERT JUMPDEST POP PUSH1 0xE SLOAD PUSH2 0x876 SWAP1 PUSH1 0x1 PUSH1 0xA0 SHL SWAP1 DIV PUSH1 0xFF AND DUP2 JUMP JUMPDEST PUSH1 0x40 MLOAD SWAP1 ISZERO ISZERO DUP2 MSTORE PUSH1 0x20 ADD PUSH2 0x390 JUMP JUMPDEST CALLVALUE DUP1 ISZERO PUSH2 0x892 JUMPI PUSH1 0x0 DUP1 REVERT JUMPDEST POP PUSH2 0x386 PUSH2 0x8A1 CALLDATASIZE PUSH1 0x4 PUSH2 0x478C JUMP JUMPDEST PUSH1 0x18 PUSH1 0x20 MSTORE PUSH1 0x0 SWAP1 DUP2 MSTORE PUSH1 0x40 SWAP1 KECCAK256 SLOAD DUP2 JUMP JUMPDEST CALLVALUE DUP1 ISZERO PUSH2 0x8BF JUMPI PUSH1 0x0 DUP1 REVERT JUMPDEST POP PUSH1 0xB SLOAD PUSH2 0x4B8 SWAP1 PUSH1 0x1 PUSH1 0x1 PUSH1 0xA0 SHL SUB AND DUP2 JUMP JUMPDEST CALLVALUE DUP1 ISZERO PUSH2 0x8DF JUMPI PUSH1 0x0 DUP1 REVERT JUMPDEST POP PUSH2 0x962 PUSH2 0x8EE CALLDATASIZE PUSH1 0x4 PUSH2 0x49D8 JUMP JUMPDEST PUSH1 0x13 PUSH1 0x20 MSTORE PUSH1 0x0 SWAP1 DUP2 MSTORE PUSH1 0x40 SWAP1 KECCAK256 DUP1 SLOAD PUSH1 0x1 DUP3 ADD SLOAD PUSH1 0x2 DUP4 ADD SLOAD PUSH1 0x3 DUP5 ADD SLOAD PUSH1 0x4 DUP6 ADD SLOAD PUSH1 0x5 DUP7 ADD SLOAD PUSH1 0x6 DUP8 ADD SLOAD PUSH1 0x7 DUP9 ADD SLOAD PUSH1 0x8 DUP10 ADD SLOAD PUSH1 0x9 DUP11 ADD SLOAD PUSH1 0xB SWAP1 SWAP11 ADD SLOAD SWAP9 SWAP10 SWAP8 SWAP9 SWAP7 SWAP8 SWAP6 SWAP7 SWAP5 SWAP6 SWAP4 SWAP5 SWAP3 SWAP4 SWAP2 SWAP3 PUSH1 0x1 PUSH1 0x1 PUSH1 0xA0 SHL SUB SWAP2 DUP3 AND SWAP3 SWAP2 DUP3 AND SWAP2 PUSH1 0xFF PUSH1 0x1 PUSH1 0xA0 SHL SWAP1 SWAP2 DIV DUP2 AND SWAP2 AND DUP13 JUMP JUMPDEST PUSH1 0x40 MLOAD PUSH2 0x390 SWAP13 SWAP12 SWAP11 SWAP10 SWAP9 SWAP8 SWAP7 SWAP6 SWAP5 SWAP4 SWAP3 SWAP2 SWAP1 PUSH2 0x4F88 JUMP JUMPDEST CALLVALUE DUP1 ISZERO PUSH2 0x986 JUMPI PUSH1 0x0 DUP1 REVERT JUMPDEST POP PUSH2 0x9BC PUSH2 0x995 CALLDATASIZE PUSH1 0x4 PUSH2 0x49D8 JUMP JUMPDEST PUSH1 0x14 PUSH1 0x20 MSTORE PUSH1 0x0 SWAP1 DUP2 MSTORE PUSH1 0x40 SWAP1 KECCAK256 DUP1 SLOAD PUSH1 0x1 DUP3 ADD SLOAD PUSH1 0x2 DUP4 ADD SLOAD PUSH1 0x3 SWAP1 SWAP4 ADD SLOAD SWAP2 SWAP3 SWAP1 SWAP2 DUP5 JUMP JUMPDEST PUSH1 0x40 DUP1 MLOAD SWAP5 DUP6 MSTORE PUSH1 0x20 DUP6 ADD SWAP4 SWAP1 SWAP4 MSTORE SWAP2 DUP4 ADD MSTORE PUSH1 0x60 DUP3 ADD MSTORE PUSH1 0x80 ADD PUSH2 0x390 JUMP JUMPDEST CALLVALUE DUP1 ISZERO PUSH2 0x9E8 JUMPI PUSH1 0x0 DUP1 REVERT JUMPDEST POP PUSH2 0x386 PUSH1 0x5 SLOAD DUP2 JUMP JUMPDEST CALLVALUE DUP1 ISZERO PUSH2 0x9FE JUMPI PUSH1 0x0 DUP1 REVERT JUMPDEST POP PUSH2 0x386 PUSH1 0x8 SLOAD DUP2 JUMP JUMPDEST CALLVALUE DUP1 ISZERO PUSH2 0xA14 JUMPI PUSH1 0x0 DUP1 REVERT JUMPDEST POP PUSH2 0x876 PUSH2 0xA23 CALLDATASIZE PUSH1 0x4 PUSH2 0x4A85 JUMP JUMPDEST DUP1 MLOAD PUSH1 0x20 DUP2 DUP4 ADD DUP2 ADD DUP1 MLOAD PUSH1 0x22 DUP3 MSTORE SWAP3 DUP3 ADD SWAP2 SWAP1 SWAP4 ADD KECCAK256 SWAP2 MSTORE SLOAD PUSH1 0xFF AND DUP2 JUMP JUMPDEST CALLVALUE DUP1 ISZERO PUSH2 0xA4F JUMPI PUSH1 0x0 DUP1 REVERT JUMPDEST POP PUSH2 0x386 PUSH2 0xA5E CALLDATASIZE PUSH1 0x4 PUSH2 0x478C JUMP JUMPDEST PUSH1 0x17 PUSH1 0x20 MSTORE PUSH1 0x0 SWAP1 DUP2 MSTORE PUSH1 0x40 SWAP1 KECCAK256 SLOAD DUP2 JUMP JUMPDEST CALLVALUE DUP1 ISZERO PUSH2 0xA7C JUMPI PUSH1 0x0 DUP1 REVERT JUMPDEST POP PUSH2 0x3F0 PUSH2 0xA8B CALLDATASIZE PUSH1 0x4 PUSH2 0x478C JUMP JUMPDEST PUSH2 0x3386 JUMP JUMPDEST CALLVALUE DUP1 ISZERO PUSH2 0xA9C JUMPI PUSH1 0x0 DUP1 REVERT JUMPDEST POP PUSH2 0x764 PUSH2 0xAAB CALLDATASIZE PUSH1 0x4 PUSH2 0x49D8 JUMP JUMPDEST PUSH2 0x346B JUMP JUMPDEST PUSH2 0x3A1 PUSH2 0xABE CALLDATASIZE PUSH1 0x4 PUSH2 0x48C6 JUMP JUMPDEST PUSH2 0x3486 JUMP JUMPDEST CALLVALUE DUP1 ISZERO PUSH2 0xACF JUMPI PUSH1 0x0 DUP1 REVERT JUMPDEST POP PUSH2 0x386 PUSH1 0xA SLOAD DUP2 JUMP JUMPDEST CALLVALUE DUP1 ISZERO PUSH2 0xAE5 JUMPI PUSH1 0x0 DUP1 REVERT JUMPDEST POP PUSH2 0x386 PUSH2 0xAF4 CALLDATASIZE PUSH1 0x4 PUSH2 0x49D8 JUMP JUMPDEST PUSH1 0x1A PUSH1 0x20 MSTORE PUSH1 0x0 SWAP1 DUP2 MSTORE PUSH1 0x40 SWAP1 KECCAK256 SLOAD DUP2 JUMP JUMPDEST PUSH2 0x3A1 PUSH2 0x3801 JUMP JUMPDEST CALLVALUE DUP1 ISZERO PUSH2 0xB1A JUMPI PUSH1 0x0 DUP1 REVERT JUMPDEST POP PUSH2 0x386 PUSH1 0x3 SLOAD DUP2 JUMP JUMPDEST CALLVALUE DUP1 ISZERO PUSH2 0xB30 JUMPI PUSH1 0x0 DUP1 REVERT JUMPDEST POP PUSH2 0x3A1 PUSH2 0x3878 JUMP JUMPDEST CALLVALUE DUP1 ISZERO PUSH2 0xB45 JUMPI PUSH1 0x0 DUP1 REVERT JUMPDEST POP PUSH2 0x3A1 PUSH2 0xB54 CALLDATASIZE PUSH1 0x4 PUSH2 0x4BCA JUMP JUMPDEST PUSH2 0x39F9 JUMP JUMPDEST CALLVALUE DUP1 ISZERO PUSH2 0xB65 JUMPI PUSH1 0x0 DUP1 REVERT JUMPDEST POP PUSH1 0xE SLOAD PUSH2 0x4B8 SWAP1 PUSH1 0x1 PUSH1 0x1 PUSH1 0xA0 SHL SUB AND DUP2 JUMP JUMPDEST PUSH1 0xE SLOAD PUSH1 0x1 PUSH1 0x1 PUSH1 0xA0 SHL SUB AND CALLER EQ PUSH2 0xBC6 JUMPI PUSH1 0x40 MLOAD PUSH3 0x461BCD PUSH1 0xE5 SHL DUP2 MSTORE PUSH1 0x20 PUSH1 0x4 DUP3 ADD MSTORE PUSH1 0xB PUSH1 0x24 DUP3 ADD MSTORE PUSH11 0x3737BA16B096B0B236B4B7 PUSH1 0xA9 SHL PUSH1 0x44 DUP3 ADD MSTORE PUSH1 0x64 ADD JUMPDEST PUSH1 0x40 MLOAD DUP1 SWAP2 SUB SWAP1 REVERT JUMPDEST PUSH1 0xE SLOAD PUSH1 0x1 PUSH1 0x1 PUSH1 0xA0 SHL SUB AND PUSH1 0x0 SWAP1 DUP2 MSTORE PUSH1 0x10 PUSH1 0x20 MSTORE PUSH1 0x40 DUP1 DUP3 KECCAK256 PUSH1 0x9 ADD SLOAD SWAP1 MLOAD SWAP1 SWAP2 CALLER SWAP2 DUP4 ISZERO PUSH2 0x8FC MUL SWAP2 DUP5 SWAP2 SWAP1 DUP2 DUP2 DUP2 DUP6 DUP9 DUP9 CALL SWAP4 POP POP POP POP ISZERO DUP1 ISZERO PUSH2 0xC12 JUMPI RETURNDATASIZE PUSH1 0x0 DUP1 RETURNDATACOPY RETURNDATASIZE PUSH1 0x0 REVERT JUMPDEST POP POP PUSH1 0xE SLOAD PUSH1 0x1 PUSH1 0x1 PUSH1 0xA0 SHL SUB AND PUSH1 0x0 SWAP1 DUP2 MSTORE PUSH1 0x10 PUSH1 0x20 MSTORE PUSH1 0x40 DUP2 KECCAK256 PUSH1 0x9 ADD SSTORE JUMP JUMPDEST PUSH1 0x1 PUSH1 0x1 PUSH1 0xA0 SHL SUB DUP2 AND PUSH1 0x0 SWAP1 DUP2 MSTORE PUSH1 0x1F PUSH1 0x20 MSTORE PUSH1 0x40 DUP2 KECCAK256 SLOAD PUSH1 0x60 SWAP2 SWAP1 PUSH8 0xFFFFFFFFFFFFFFFF DUP2 GT ISZERO PUSH2 0xC69 JUMPI PUSH2 0xC69 PUSH2 0x51AF JUMP JUMPDEST PUSH1 0x40 MLOAD SWAP1 DUP1 DUP3 MSTORE DUP1 PUSH1 0x20 MUL PUSH1 0x20 ADD DUP3 ADD PUSH1 0x40 MSTORE DUP1 ISZERO PUSH2 0xC92 JUMPI DUP2 PUSH1 0x20 ADD PUSH1 0x20 DUP3 MUL DUP1 CALLDATASIZE DUP4 CALLDATACOPY ADD SWAP1 POP JUMPDEST POP SWAP1 POP PUSH1 0x0 JUMPDEST PUSH1 0x1 PUSH1 0x1 PUSH1 0xA0 SHL SUB DUP5 AND PUSH1 0x0 SWAP1 DUP2 MSTORE PUSH1 0x1F PUSH1 0x20 MSTORE PUSH1 0x40 SWAP1 KECCAK256 SLOAD DUP2 LT ISZERO PUSH2 0xD1C JUMPI PUSH1 0x1 PUSH1 0x1 PUSH1 0xA0 SHL SUB DUP5 AND PUSH1 0x0 SWAP1 DUP2 MSTORE PUSH1 0x1F PUSH1 0x20 MSTORE PUSH1 0x40 SWAP1 KECCAK256 DUP1 SLOAD DUP3 SWAP1 DUP2 LT PUSH2 0xCE2 JUMPI PUSH2 0xCE2 PUSH2 0x5199 JUMP JUMPDEST SWAP1 PUSH1 0x0 MSTORE PUSH1 0x20 PUSH1 0x0 KECCAK256 ADD SLOAD DUP3 DUP3 DUP2 MLOAD DUP2 LT PUSH2 0xCFF JUMPI PUSH2 0xCFF PUSH2 0x5199 JUMP JUMPDEST PUSH1 0x20 SWAP1 DUP2 MUL SWAP2 SWAP1 SWAP2 ADD ADD MSTORE DUP1 PUSH2 0xD14 DUP2 PUSH2 0x5112 JUMP JUMPDEST SWAP2 POP POP PUSH2 0xC98 JUMP JUMPDEST POP SWAP3 SWAP2 POP POP JUMP JUMPDEST PUSH1 0xE SLOAD PUSH1 0x1 PUSH1 0x1 PUSH1 0xA0 SHL SUB AND CALLER EQ PUSH2 0xD6B JUMPI PUSH1 0x40 MLOAD PUSH3 0x461BCD PUSH1 0xE5 SHL DUP2 MSTORE PUSH1 0x20 PUSH1 0x4 DUP3 ADD MSTORE PUSH1 0xB PUSH1 0x24 DUP3 ADD MSTORE PUSH11 0x3737BA16B096B0B236B4B7 PUSH1 0xA9 SHL PUSH1 0x44 DUP3 ADD MSTORE PUSH1 0x64 ADD PUSH2 0xBBD JUMP JUMPDEST PUSH1 0xB DUP1 SLOAD PUSH1 0x1 PUSH1 0x1 PUSH1 0xA0 SHL SUB NOT AND PUSH1 0x1 PUSH1 0x1 PUSH1 0xA0 SHL SUB SWAP3 SWAP1 SWAP3 AND SWAP2 SWAP1 SWAP2 OR SWAP1 SSTORE JUMP JUMPDEST PUSH1 0x0 DUP2 DUP2 MSTORE PUSH1 0x13 PUSH1 0x20 SWAP1 DUP2 MSTORE PUSH1 0x40 DUP1 DUP4 KECCAK256 PUSH1 0x14 SWAP1 SWAP3 MSTORE SWAP1 SWAP2 KECCAK256 PUSH1 0x3 DUP3 ADD SLOAD CALLVALUE EQ PUSH2 0xDF9 JUMPI PUSH1 0x40 MLOAD PUSH3 0x461BCD PUSH1 0xE5 SHL DUP2 MSTORE PUSH1 0x20 PUSH1 0x4 DUP3 ADD MSTORE PUSH1 0x11 PUSH1 0x24 DUP3 ADD MSTORE PUSH32 0x456E74727920466565206E6F74206D6574000000000000000000000000000000 PUSH1 0x44 DUP3 ADD MSTORE PUSH1 0x64 ADD PUSH2 0xBBD JUMP JUMPDEST DUP1 PUSH1 0x2 ADD SLOAD TIMESTAMP LT PUSH2 0xE4C JUMPI PUSH1 0x40 MLOAD PUSH3 0x461BCD PUSH1 0xE5 SHL DUP2 MSTORE PUSH1 0x20 PUSH1 0x4 DUP3 ADD MSTORE PUSH1 0x12 PUSH1 0x24 DUP3 ADD MSTORE PUSH32 0x54696D652070617373656420746F206275790000000000000000000000000000 PUSH1 0x44 DUP3 ADD MSTORE PUSH1 0x64 ADD PUSH2 0xBBD JUMP JUMPDEST PUSH1 0x8 DUP3 ADD SLOAD PUSH1 0x1 PUSH1 0x1 PUSH1 0xA0 SHL SUB AND ISZERO PUSH2 0xEA7 JUMPI PUSH1 0x40 MLOAD PUSH3 0x461BCD PUSH1 0xE5 SHL DUP2 MSTORE PUSH1 0x20 PUSH1 0x4 DUP3 ADD MSTORE PUSH1 0xB PUSH1 0x24 DUP3 ADD MSTORE PUSH32 0x57696E6E657220646F6E65000000000000000000000000000000000000000000 PUSH1 0x44 DUP3 ADD MSTORE PUSH1 0x64 ADD PUSH2 0xBBD JUMP JUMPDEST PUSH1 0x40 DUP1 MLOAD PUSH1 0x1 DUP1 DUP3 MSTORE DUP2 DUP4 ADD SWAP1 SWAP3 MSTORE PUSH1 0x0 SWAP2 PUSH1 0x20 DUP1 DUP4 ADD SWAP1 DUP1 CALLDATASIZE DUP4 CALLDATACOPY ADD SWAP1 POP POP SWAP1 POP DUP5 DUP2 PUSH1 0x0 DUP2 MLOAD DUP2 LT PUSH2 0xEDD JUMPI PUSH2 0xEDD PUSH2 0x5199 JUMP JUMPDEST PUSH1 0x20 SWAP1 DUP2 MUL SWAP2 SWAP1 SWAP2 ADD DUP2 ADD SWAP2 SWAP1 SWAP2 MSTORE PUSH1 0x0 DUP6 DUP2 MSTORE PUSH1 0x21 DUP3 MSTORE PUSH1 0x40 DUP1 DUP3 KECCAK256 CALLER DUP4 MSTORE SWAP1 SWAP3 MSTORE SWAP1 DUP2 KECCAK256 DUP1 SLOAD PUSH1 0x1 SWAP3 SWAP1 PUSH2 0xF14 SWAP1 DUP5 SWAP1 PUSH2 0x5049 JUMP JUMPDEST SWAP1 SWAP2 SSTORE POP POP PUSH1 0x40 DUP1 MLOAD PUSH1 0x60 DUP2 ADD DUP3 MSTORE CALLER DUP2 MSTORE TIMESTAMP PUSH1 0x20 DUP1 DUP4 ADD SWAP2 DUP3 MSTORE SWAP3 DUP3 ADD DUP5 DUP2 MSTORE PUSH1 0xA DUP8 ADD DUP1 SLOAD PUSH1 0x1 DUP1 DUP3 ADD DUP4 SSTORE PUSH1 0x0 SWAP3 DUP4 MSTORE SWAP2 DUP7 SWAP1 KECCAK256 DUP6 MLOAD PUSH1 0x3 SWAP1 SWAP3 MUL ADD DUP1 SLOAD PUSH1 0x1 PUSH1 0x1 PUSH1 0xA0 SHL SUB NOT AND PUSH1 0x1 PUSH1 0x1 PUSH1 0xA0 SHL SUB SWAP1 SWAP3 AND SWAP2 SWAP1 SWAP2 OR DUP2 SSTORE SWAP3 MLOAD SWAP1 DUP4 ADD SSTORE MLOAD DUP1 MLOAD SWAP3 SWAP4 SWAP2 SWAP3 PUSH2 0xF8D SWAP3 PUSH1 0x2 DUP6 ADD SWAP3 ADD SWAP1 PUSH2 0x462D JUMP JUMPDEST POP POP CALLER PUSH1 0x0 SWAP1 DUP2 MSTORE PUSH1 0x15 PUSH1 0x20 MSTORE PUSH1 0x40 DUP2 KECCAK256 DUP1 SLOAD CALLVALUE SWAP4 POP SWAP1 SWAP2 SWAP1 PUSH2 0xFB1 SWAP1 DUP5 SWAP1 PUSH2 0x5049 JUMP JUMPDEST SWAP1 SWAP2 SSTORE POP POP PUSH1 0x9 DUP4 ADD SLOAD PUSH1 0x1 PUSH1 0x1 PUSH1 0xA0 SHL SUB AND PUSH1 0x0 SWAP1 DUP2 MSTORE PUSH1 0x10 PUSH1 0x20 MSTORE PUSH1 0x40 DUP2 KECCAK256 PUSH1 0x8 ADD DUP1 SLOAD CALLVALUE SWAP3 SWAP1 PUSH2 0xFE5 SWAP1 DUP5 SWAP1 PUSH2 0x5049 JUMP JUMPDEST SWAP1 SWAP2 SSTORE POP POP CALLER PUSH1 0x0 SWAP1 DUP2 MSTORE PUSH1 0x1F PUSH1 0x20 SWAP1 DUP2 MSTORE PUSH1 0x40 DUP1 DUP4 KECCAK256 DUP1 SLOAD PUSH1 0x1 DUP2 ADD DUP3 SSTORE SWAP1 DUP5 MSTORE DUP3 DUP5 KECCAK256 ADD DUP8 SWAP1 SSTORE DUP7 DUP4 MSTORE PUSH1 0x1A SWAP1 SWAP2 MSTORE DUP2 KECCAK256 DUP1 SLOAD SWAP2 PUSH2 0x1024 DUP4 PUSH2 0x5112 JUMP JUMPDEST SWAP2 SWAP1 POP SSTORE POP PUSH2 0x1046 PUSH1 0x64 PUSH1 0xA SLOAD DUP6 PUSH1 0x3 ADD SLOAD PUSH2 0x1040 SWAP2 SWAP1 PUSH2 0x5075 JUMP JUMPDEST SWAP1 PUSH2 0x3A55 JUMP JUMPDEST CALLER PUSH1 0x0 SWAP1 DUP2 MSTORE PUSH1 0x18 PUSH1 0x20 MSTORE PUSH1 0x40 DUP2 KECCAK256 DUP1 SLOAD SWAP1 SWAP2 SWAP1 PUSH2 0x1065 SWAP1 DUP5 SWAP1 PUSH2 0x5049 JUMP JUMPDEST SWAP1 SWAP2 SSTORE POP POP PUSH1 0x3 DUP1 DUP4 ADD SLOAD SWAP1 DUP5 ADD SLOAD PUSH1 0x40 MLOAD CALLER SWAP3 DUP8 SWAP3 PUSH32 0xEEBEEF70159CAB2AFD7F0275B057D4672073BC52648B266B673FDBB3A856103D SWAP3 PUSH2 0x10AA SWAP3 DUP8 SWAP3 TIMESTAMP SWAP3 PUSH2 0x4DD3 JUMP JUMPDEST PUSH1 0x40 MLOAD DUP1 SWAP2 SUB SWAP1 LOG3 PUSH2 0x10BD DUP5 DUP7 CALLER PUSH2 0x3AA0 JUMP JUMPDEST POP POP POP POP POP JUMP JUMPDEST PUSH1 0x1 PUSH1 0x1 PUSH1 0xA0 SHL SUB DUP3 AND PUSH2 0x10DA JUMPI PUSH2 0x10DA PUSH2 0x5141 JUMP JUMPDEST PUSH1 0x1 PUSH1 0x1 PUSH1 0xA0 SHL SUB DUP3 DUP2 AND PUSH1 0x0 SWAP1 DUP2 MSTORE PUSH1 0x11 PUSH1 0x20 MSTORE PUSH1 0x40 SWAP1 KECCAK256 PUSH1 0x2 ADD SLOAD PUSH2 0x100 SWAP1 DIV AND ISZERO PUSH2 0x114A JUMPI PUSH1 0x40 MLOAD PUSH3 0x461BCD PUSH1 0xE5 SHL DUP2 MSTORE PUSH1 0x20 PUSH1 0x4 DUP3 ADD MSTORE PUSH1 0x12 PUSH1 0x24 DUP3 ADD MSTORE PUSH32 0x416C726561647920726567697374657265640000000000000000000000000000 PUSH1 0x44 DUP3 ADD MSTORE PUSH1 0x64 ADD PUSH2 0xBBD JUMP JUMPDEST PUSH1 0x5 DUP1 SLOAD SWAP1 PUSH1 0x0 PUSH2 0x115A DUP4 PUSH2 0x5112 JUMP JUMPDEST SWAP1 SWAP2 SSTORE POP POP PUSH1 0x40 DUP1 MLOAD PUSH1 0xC0 DUP2 ADD DUP3 MSTORE DUP7 DUP2 MSTORE PUSH1 0x20 DUP1 DUP3 ADD DUP8 SWAP1 MSTORE DUP6 ISZERO ISZERO DUP3 DUP5 ADD MSTORE PUSH1 0x1 PUSH1 0x1 PUSH1 0xA0 SHL SUB DUP6 AND PUSH1 0x60 DUP4 ADD DUP2 SWAP1 MSTORE PUSH1 0x80 DUP4 ADD DUP6 SWAP1 MSTORE PUSH1 0x5 SLOAD PUSH1 0xA0 DUP5 ADD MSTORE PUSH1 0x0 SWAP1 DUP2 MSTORE PUSH1 0x11 DUP3 MSTORE SWAP3 SWAP1 SWAP3 KECCAK256 DUP2 MLOAD DUP1 MLOAD SWAP3 SWAP4 SWAP2 SWAP3 PUSH2 0x11BD SWAP3 DUP5 SWAP3 ADD SWAP1 PUSH2 0x4678 JUMP JUMPDEST POP PUSH1 0x20 DUP3 DUP2 ADD MLOAD DUP1 MLOAD PUSH2 0x11D6 SWAP3 PUSH1 0x1 DUP6 ADD SWAP3 ADD SWAP1 PUSH2 0x4678 JUMP JUMPDEST POP PUSH1 0x40 DUP3 DUP2 ADD MLOAD PUSH1 0x2 DUP4 ADD DUP1 SLOAD PUSH1 0x60 DUP1 DUP8 ADD MLOAD PUSH21 0xFFFFFFFFFFFFFFFFFFFFFFFFFFFFFFFFFFFFFFFFFF NOT SWAP1 SWAP3 AND SWAP4 ISZERO ISZERO PUSH21 0xFFFFFFFFFFFFFFFFFFFFFFFFFFFFFFFFFFFFFFFF00 NOT AND SWAP4 SWAP1 SWAP4 OR PUSH2 0x100 PUSH1 0x1 PUSH1 0x1 PUSH1 0xA0 SHL SUB SWAP3 DUP4 AND MUL OR SWAP1 SWAP2 SSTORE PUSH1 0x80 DUP1 DUP7 ADD MLOAD PUSH1 0x3 DUP7 ADD SSTORE PUSH1 0xA0 SWAP6 DUP7 ADD MLOAD PUSH1 0x4 SWAP1 SWAP6 ADD SWAP5 SWAP1 SWAP5 SSTORE DUP3 MLOAD PUSH1 0xC0 DUP2 ADD DUP5 MSTORE DUP11 DUP2 MSTORE PUSH1 0x20 DUP1 DUP3 ADD DUP12 SWAP1 MSTORE DUP10 ISZERO ISZERO DUP3 DUP7 ADD MSTORE SWAP2 DUP9 AND SWAP3 DUP2 ADD SWAP3 SWAP1 SWAP3 MSTORE SWAP3 DUP2 ADD DUP6 SWAP1 MSTORE PUSH1 0x5 SLOAD SWAP4 DUP2 ADD DUP5 SWAP1 MSTORE PUSH1 0x0 SWAP4 DUP5 MSTORE PUSH1 0x12 DUP4 MSTORE SWAP3 KECCAK256 DUP3 MLOAD DUP1 MLOAD SWAP2 SWAP3 PUSH2 0x12A2 SWAP3 DUP5 SWAP3 SWAP1 SWAP2 ADD SWAP1 PUSH2 0x4678 JUMP JUMPDEST POP PUSH1 0x20 DUP3 DUP2 ADD MLOAD DUP1 MLOAD PUSH2 0x12BB SWAP3 PUSH1 0x1 DUP6 ADD SWAP3 ADD SWAP1 PUSH2 0x4678 JUMP JUMPDEST POP PUSH1 0x40 DUP3 DUP2 ADD MLOAD PUSH1 0x2 DUP4 ADD DUP1 SLOAD PUSH1 0x60 DUP7 ADD MLOAD PUSH1 0x1 PUSH1 0x1 PUSH1 0xA0 SHL SUB AND PUSH2 0x100 MUL PUSH21 0xFFFFFFFFFFFFFFFFFFFFFFFFFFFFFFFFFFFFFFFF00 NOT SWAP4 ISZERO ISZERO SWAP4 SWAP1 SWAP4 AND PUSH21 0xFFFFFFFFFFFFFFFFFFFFFFFFFFFFFFFFFFFFFFFFFF NOT SWAP1 SWAP2 AND OR SWAP2 SWAP1 SWAP2 OR SWAP1 SSTORE PUSH1 0x80 DUP4 ADD MLOAD PUSH1 0x3 DUP4 ADD SSTORE PUSH1 0xA0 SWAP1 SWAP3 ADD MLOAD PUSH1 0x4 SWAP1 SWAP2 ADD SSTORE PUSH1 0x5 SLOAD SWAP1 MLOAD PUSH32 0xA9A08E4591A80985CE133389D1057BB6FD8E3411C6DE25C5FD2A318DC0747E3E SWAP2 PUSH2 0x1369 SWAP2 DUP9 SWAP1 DUP9 SWAP1 DUP9 SWAP1 DUP9 SWAP1 DUP9 SWAP1 PUSH2 0x4F35 JUMP JUMPDEST PUSH1 0x40 MLOAD DUP1 SWAP2 SUB SWAP1 LOG1 POP POP POP POP POP JUMP JUMPDEST PUSH1 0xF PUSH1 0x20 MSTORE PUSH1 0x0 SWAP1 DUP2 MSTORE PUSH1 0x40 SWAP1 KECCAK256 DUP1 SLOAD PUSH1 0x1 DUP3 ADD SLOAD PUSH1 0x2 DUP4 ADD DUP1 SLOAD PUSH1 0xFF DUP5 AND SWAP5 PUSH2 0x100 SWAP1 SWAP5 DIV PUSH1 0x1 PUSH1 0x1 PUSH1 0xA0 SHL SUB SWAP1 DUP2 AND SWAP5 SWAP4 AND SWAP3 SWAP2 SWAP1 PUSH2 0x13B8 SWAP1 PUSH2 0x50D7 JUMP JUMPDEST DUP1 PUSH1 0x1F ADD PUSH1 0x20 DUP1 SWAP2 DIV MUL PUSH1 0x20 ADD PUSH1 0x40 MLOAD SWAP1 DUP2 ADD PUSH1 0x40 MSTORE DUP1 SWAP3 SWAP2 SWAP1 DUP2 DUP2 MSTORE PUSH1 0x20 ADD DUP3 DUP1 SLOAD PUSH2 0x13E4 SWAP1 PUSH2 0x50D7 JUMP JUMPDEST DUP1 ISZERO PUSH2 0x1431 JUMPI DUP1 PUSH1 0x1F LT PUSH2 0x1406 JUMPI PUSH2 0x100 DUP1 DUP4 SLOAD DIV MUL DUP4 MSTORE SWAP2 PUSH1 0x20 ADD SWAP2 PUSH2 0x1431 JUMP JUMPDEST DUP3 ADD SWAP2 SWAP1 PUSH1 0x0 MSTORE PUSH1 0x20 PUSH1 0x0 KECCAK256 SWAP1 JUMPDEST DUP2 SLOAD DUP2 MSTORE SWAP1 PUSH1 0x1 ADD SWAP1 PUSH1 0x20 ADD DUP1 DUP4 GT PUSH2 0x1414 JUMPI DUP3 SWAP1 SUB PUSH1 0x1F AND DUP3 ADD SWAP2 JUMPDEST POP POP POP POP POP SWAP1 DUP1 PUSH1 0x3 ADD DUP1 SLOAD PUSH2 0x1446 SWAP1 PUSH2 0x50D7 JUMP JUMPDEST DUP1 PUSH1 0x1F ADD PUSH1 0x20 DUP1 SWAP2 DIV MUL PUSH1 0x20 ADD PUSH1 0x40 MLOAD SWAP1 DUP2 ADD PUSH1 0x40 MSTORE DUP1 SWAP3 SWAP2 SWAP1 DUP2 DUP2 MSTORE PUSH1 0x20 ADD DUP3 DUP1 SLOAD PUSH2 0x1472 SWAP1 PUSH2 0x50D7 JUMP JUMPDEST DUP1 ISZERO PUSH2 0x14BF JUMPI DUP1 PUSH1 0x1F LT PUSH2 0x1494 JUMPI PUSH2 0x100 DUP1 DUP4 SLOAD DIV MUL DUP4 MSTORE SWAP2 PUSH1 0x20 ADD SWAP2 PUSH2 0x14BF JUMP JUMPDEST DUP3 ADD SWAP2 SWAP1 PUSH1 0x0 MSTORE PUSH1 0x20 PUSH1 0x0 KECCAK256 SWAP1 JUMPDEST DUP2 SLOAD DUP2 MSTORE SWAP1 PUSH1 0x1 ADD SWAP1 PUSH1 0x20 ADD DUP1 DUP4 GT PUSH2 0x14A2 JUMPI DUP3 SWAP1 SUB PUSH1 0x1F AND DUP3 ADD SWAP2 JUMPDEST POP POP POP POP POP SWAP1 DUP1 PUSH1 0x4 ADD SLOAD SWAP1 DUP1 PUSH1 0x5 ADD DUP1 SLOAD PUSH2 0x14DA SWAP1 PUSH2 0x50D7 JUMP JUMPDEST DUP1 PUSH1 0x1F ADD PUSH1 0x20 DUP1 SWAP2 DIV MUL PUSH1 0x20 ADD PUSH1 0x40 MLOAD SWAP1 DUP2 ADD PUSH1 0x40 MSTORE DUP1 SWAP3 SWAP2 SWAP1 DUP2 DUP2 MSTORE PUSH1 0x20 ADD DUP3 DUP1 SLOAD PUSH2 0x1506 SWAP1 PUSH2 0x50D7 JUMP JUMPDEST DUP1 ISZERO PUSH2 0x1553 JUMPI DUP1 PUSH1 0x1F LT PUSH2 0x1528 JUMPI PUSH2 0x100 DUP1 DUP4 SLOAD DIV MUL DUP4 MSTORE SWAP2 PUSH1 0x20 ADD SWAP2 PUSH2 0x1553 JUMP JUMPDEST DUP3 ADD SWAP2 SWAP1 PUSH1 0x0 MSTORE PUSH1 0x20 PUSH1 0x0 KECCAK256 SWAP1 JUMPDEST DUP2 SLOAD DUP2 MSTORE SWAP1 PUSH1 0x1 ADD SWAP1 PUSH1 0x20 ADD DUP1 DUP4 GT PUSH2 0x1536 JUMPI DUP3 SWAP1 SUB PUSH1 0x1F AND DUP3 ADD SWAP2 JUMPDEST POP POP POP POP POP SWAP1 DUP1 PUSH1 0x6 ADD DUP1 SLOAD PUSH2 0x1568 SWAP1 PUSH2 0x50D7 JUMP JUMPDEST DUP1 PUSH1 0x1F ADD PUSH1 0x20 DUP1 SWAP2 DIV MUL PUSH1 0x20 ADD PUSH1 0x40 MLOAD SWAP1 DUP2 ADD PUSH1 0x40 MSTORE DUP1 SWAP3 SWAP2 SWAP1 DUP2 DUP2 MSTORE PUSH1 0x20 ADD DUP3 DUP1 SLOAD PUSH2 0x1594 SWAP1 PUSH2 0x50D7 JUMP JUMPDEST DUP1 ISZERO PUSH2 0x15E1 JUMPI DUP1 PUSH1 0x1F LT PUSH2 0x15B6 JUMPI PUSH2 0x100 DUP1 DUP4 SLOAD DIV MUL DUP4 MSTORE SWAP2 PUSH1 0x20 ADD SWAP2 PUSH2 0x15E1 JUMP JUMPDEST DUP3 ADD SWAP2 SWAP1 PUSH1 0x0 MSTORE PUSH1 0x20 PUSH1 0x0 KECCAK256 SWAP1 JUMPDEST DUP2 SLOAD DUP2 MSTORE SWAP1 PUSH1 0x1 ADD SWAP1 PUSH1 0x20 ADD DUP1 DUP4 GT PUSH2 0x15C4 JUMPI DUP3 SWAP1 SUB PUSH1 0x1F AND DUP3 ADD SWAP2 JUMPDEST POP POP POP POP POP SWAP1 DUP1 PUSH1 0x7 ADD SLOAD SWAP1 DUP1 PUSH1 0x8 ADD SLOAD SWAP1 DUP1 PUSH1 0x9 ADD SLOAD SWAP1 DUP1 PUSH1 0xA ADD SLOAD SWAP1 DUP1 PUSH1 0xB ADD SLOAD SWAP1 POP DUP14 JUMP JUMPDEST CALLER PUSH1 0x0 SWAP1 DUP2 MSTORE PUSH1 0x10 PUSH1 0x20 MSTORE PUSH1 0x40 SWAP1 KECCAK256 SLOAD PUSH1 0xFF AND PUSH2 0x1668 JUMPI PUSH1 0x40 MLOAD PUSH3 0x461BCD PUSH1 0xE5 SHL DUP2 MSTORE PUSH1 0x20 PUSH1 0x4 DUP3 ADD MSTORE PUSH1 0x12 PUSH1 0x24 DUP3 ADD MSTORE PUSH32 0x4E6F742061206F7267616E69736174696F6E0000000000000000000000000000 PUSH1 0x44 DUP3 ADD MSTORE PUSH1 0x64 ADD PUSH2 0xBBD JUMP JUMPDEST PUSH1 0x0 DUP2 GT PUSH2 0x16B8 JUMPI PUSH1 0x40 MLOAD PUSH3 0x461BCD PUSH1 0xE5 SHL DUP2 MSTORE PUSH1 0x20 PUSH1 0x4 DUP3 ADD MSTORE PUSH1 0x12 PUSH1 0x24 DUP3 ADD MSTORE PUSH32 0x43616E742062652062656C6F77207A65726F0000000000000000000000000000 PUSH1 0x44 DUP3 ADD MSTORE PUSH1 0x64 ADD PUSH2 0xBBD JUMP JUMPDEST PUSH1 0x0 DUP3 GT PUSH2 0x1708 JUMPI PUSH1 0x40 MLOAD PUSH3 0x461BCD PUSH1 0xE5 SHL DUP2 MSTORE PUSH1 0x20 PUSH1 0x4 DUP3 ADD MSTORE PUSH1 0x12 PUSH1 0x24 DUP3 ADD MSTORE PUSH32 0x43616E742062652062656C6F77207A65726F0000000000000000000000000000 PUSH1 0x44 DUP3 ADD MSTORE PUSH1 0x64 ADD PUSH2 0xBBD JUMP JUMPDEST PUSH1 0x0 PUSH2 0x172B PUSH1 0x2 PUSH2 0x1040 PUSH8 0xDE0B6B3A7640000 PUSH2 0x1725 DUP8 DUP8 PUSH2 0x3C0A JUMP JUMPDEST SWAP1 PUSH2 0x3C69 JUMP JUMPDEST SWAP1 POP PUSH1 0x0 PUSH2 0x1742 PUSH1 0x64 PUSH1 0x6 SLOAD DUP5 PUSH2 0x1040 SWAP2 SWAP1 PUSH2 0x5075 JUMP JUMPDEST SWAP1 POP CALLVALUE DUP2 EQ PUSH2 0x1793 JUMPI PUSH1 0x40 MLOAD PUSH3 0x461BCD PUSH1 0xE5 SHL DUP2 MSTORE PUSH1 0x20 PUSH1 0x4 DUP3 ADD MSTORE PUSH1 0x19 PUSH1 0x24 DUP3 ADD MSTORE PUSH32 0x526567697374657220466565206E6F74206D61746368696E6700000000000000 PUSH1 0x44 DUP3 ADD MSTORE PUSH1 0x64 ADD PUSH2 0xBBD JUMP JUMPDEST CALLER PUSH1 0x0 SWAP1 DUP2 MSTORE PUSH1 0x10 PUSH1 0x20 DUP2 DUP2 MSTORE PUSH1 0x40 DUP1 DUP5 KECCAK256 PUSH1 0x7 DUP2 ADD SLOAD PUSH1 0xB DUP1 DUP4 ADD DUP12 SWAP1 SSTORE PUSH1 0xA SWAP3 DUP4 ADD DUP11 SWAP1 SSTORE DUP2 DUP8 MSTORE PUSH1 0xF DUP6 MSTORE DUP4 DUP8 KECCAK256 SWAP1 DUP2 ADD DUP12 SWAP1 SSTORE SWAP1 SWAP2 ADD DUP9 SWAP1 SSTORE PUSH1 0xE SLOAD PUSH1 0x1 PUSH1 0x1 PUSH1 0xA0 SHL SUB AND DUP6 MSTORE SWAP3 SWAP1 SWAP2 MSTORE DUP3 KECCAK256 PUSH1 0x9 ADD DUP1 SLOAD SWAP2 SWAP3 CALLVALUE SWAP3 PUSH2 0x17F8 SWAP1 DUP5 SWAP1 PUSH2 0x5049 JUMP JUMPDEST SWAP1 SWAP2 SSTORE POP POP POP POP POP POP POP JUMP JUMPDEST PUSH1 0xE SLOAD PUSH1 0x1 PUSH1 0xA0 SHL SWAP1 DIV PUSH1 0xFF AND ISZERO PUSH2 0x185E JUMPI PUSH1 0x40 MLOAD PUSH3 0x461BCD PUSH1 0xE5 SHL DUP2 MSTORE PUSH1 0x20 PUSH1 0x4 DUP3 ADD MSTORE PUSH1 0x12 PUSH1 0x24 DUP3 ADD MSTORE PUSH32 0x72657175697265642063616C6C20747275650000000000000000000000000000 PUSH1 0x44 DUP3 ADD MSTORE PUSH1 0x64 ADD PUSH2 0xBBD JUMP JUMPDEST PUSH1 0xE DUP1 SLOAD PUSH1 0xFF PUSH1 0xA0 SHL NOT AND PUSH1 0x1 PUSH1 0xA0 SHL OR SWAP1 SSTORE PUSH1 0x1 JUMPDEST PUSH1 0x3 SLOAD DUP2 LT ISZERO PUSH2 0x1937 JUMPI PUSH1 0x1 PUSH1 0x0 DUP3 DUP2 MSTORE PUSH1 0x13 PUSH1 0x20 MSTORE PUSH1 0x40 SWAP1 KECCAK256 PUSH1 0xB ADD SLOAD PUSH1 0xFF AND PUSH1 0x1 DUP2 GT ISZERO PUSH2 0x18A6 JUMPI PUSH2 0x18A6 PUSH2 0x5183 JUMP JUMPDEST EQ ISZERO PUSH2 0x1925 JUMPI PUSH1 0x2 PUSH1 0x0 DUP3 DUP2 MSTORE PUSH1 0x13 PUSH1 0x20 MSTORE PUSH1 0x40 SWAP1 KECCAK256 PUSH1 0x9 ADD SLOAD PUSH1 0x1 PUSH1 0xA0 SHL SWAP1 DIV PUSH1 0xFF AND PUSH1 0x3 DUP2 GT ISZERO PUSH2 0x18DB JUMPI PUSH2 0x18DB PUSH2 0x5183 JUMP JUMPDEST EQ PUSH2 0x1925 JUMPI PUSH1 0x0 DUP2 DUP2 MSTORE PUSH1 0x1A PUSH1 0x20 SWAP1 DUP2 MSTORE PUSH1 0x40 DUP1 DUP4 KECCAK256 SLOAD PUSH1 0x13 SWAP1 SWAP3 MSTORE SWAP1 SWAP2 KECCAK256 PUSH1 0x5 ADD SLOAD GT PUSH2 0x1925 JUMPI PUSH1 0x0 DUP2 DUP2 MSTORE PUSH1 0x14 PUSH1 0x20 MSTORE PUSH1 0x40 SWAP1 KECCAK256 PUSH1 0x3 ADD SLOAD TIMESTAMP GT ISZERO PUSH2 0x1925 JUMPI PUSH2 0x1925 DUP2 PUSH2 0x3D04 JUMP JUMPDEST DUP1 PUSH2 0x192F DUP2 PUSH2 0x5112 JUMP JUMPDEST SWAP2 POP POP PUSH2 0x1874 JUMP JUMPDEST POP POP POP JUMP JUMPDEST PUSH1 0x40 MLOAD PUSH4 0x70A08231 PUSH1 0xE0 SHL DUP2 MSTORE ADDRESS PUSH1 0x4 DUP3 ADD MSTORE PUSH1 0x1 PUSH1 0x1 PUSH1 0xA0 SHL SUB DUP3 AND SWAP1 PUSH4 0x70A08231 SWAP1 PUSH1 0x24 ADD PUSH1 0x20 PUSH1 0x40 MLOAD DUP1 DUP4 SUB DUP2 DUP7 DUP1 EXTCODESIZE ISZERO DUP1 ISZERO PUSH2 0x197B JUMPI PUSH1 0x0 DUP1 REVERT JUMPDEST POP GAS STATICCALL ISZERO DUP1 ISZERO PUSH2 0x198F JUMPI RETURNDATASIZE PUSH1 0x0 DUP1 RETURNDATACOPY RETURNDATASIZE PUSH1 0x0 REVERT JUMPDEST POP POP POP POP PUSH1 0x40 MLOAD RETURNDATASIZE PUSH1 0x1F NOT PUSH1 0x1F DUP3 ADD AND DUP3 ADD DUP1 PUSH1 0x40 MSTORE POP DUP2 ADD SWAP1 PUSH2 0x19B3 SWAP2 SWAP1 PUSH2 0x4B49 JUMP JUMPDEST DUP4 GT ISZERO PUSH2 0x1A02 JUMPI PUSH1 0x40 MLOAD PUSH3 0x461BCD PUSH1 0xE5 SHL DUP2 MSTORE PUSH1 0x20 PUSH1 0x4 DUP3 ADD MSTORE PUSH1 0xB PUSH1 0x24 DUP3 ADD MSTORE PUSH32 0x6C6F772062616C616E6365000000000000000000000000000000000000000000 PUSH1 0x44 DUP3 ADD MSTORE PUSH1 0x64 ADD PUSH2 0xBBD JUMP JUMPDEST PUSH1 0x40 MLOAD PUSH4 0xA9059CBB PUSH1 0xE0 SHL DUP2 MSTORE PUSH1 0x1 PUSH1 0x1 PUSH1 0xA0 SHL SUB DUP4 DUP2 AND PUSH1 0x4 DUP4 ADD MSTORE PUSH1 0x24 DUP3 ADD DUP6 SWAP1 MSTORE DUP3 AND SWAP1 PUSH4 0xA9059CBB SWAP1 PUSH1 0x44 ADD PUSH1 0x20 PUSH1 0x40 MLOAD DUP1 DUP4 SUB DUP2 PUSH1 0x0 DUP8 DUP1 EXTCODESIZE ISZERO DUP1 ISZERO PUSH2 0x1A4C JUMPI PUSH1 0x0 DUP1 REVERT JUMPDEST POP GAS CALL ISZERO DUP1 ISZERO PUSH2 0x1A60 JUMPI RETURNDATASIZE PUSH1 0x0 DUP1 RETURNDATACOPY RETURNDATASIZE PUSH1 0x0 REVERT JUMPDEST POP POP POP POP PUSH1 0x40 MLOAD RETURNDATASIZE PUSH1 0x1F NOT PUSH1 0x1F DUP3 ADD AND DUP3 ADD DUP1 PUSH1 0x40 MSTORE POP DUP2 ADD SWAP1 PUSH2 0x1A84 SWAP2 SWAP1 PUSH2 0x49BB JUMP JUMPDEST POP POP POP POP JUMP JUMPDEST PUSH1 0x1 PUSH1 0x1 PUSH1 0xA0 SHL SUB DUP10 AND PUSH2 0x1AA0 JUMPI PUSH2 0x1AA0 PUSH2 0x5141 JUMP JUMPDEST PUSH1 0x0 PUSH2 0x1ABD PUSH1 0x2 PUSH2 0x1040 PUSH8 0xDE0B6B3A7640000 PUSH2 0x1725 DUP8 DUP8 PUSH2 0x3C0A JUMP JUMPDEST SWAP1 POP PUSH1 0x0 PUSH2 0x1AD4 PUSH1 0x64 PUSH1 0x6 SLOAD DUP5 PUSH2 0x1040 SWAP2 SWAP1 PUSH2 0x5075 JUMP JUMPDEST PUSH1 0x1 PUSH1 0x1 PUSH1 0xA0 SHL SUB DUP13 DUP2 AND PUSH1 0x0 SWAP1 DUP2 MSTORE PUSH1 0x10 PUSH1 0x20 MSTORE PUSH1 0x40 SWAP1 KECCAK256 SLOAD SWAP2 SWAP3 POP PUSH2 0x100 SWAP1 SWAP2 DIV AND ISZERO PUSH2 0x1B45 JUMPI PUSH1 0x40 MLOAD PUSH3 0x461BCD PUSH1 0xE5 SHL DUP2 MSTORE PUSH1 0x20 PUSH1 0x4 DUP3 ADD MSTORE PUSH1 0x12 PUSH1 0x24 DUP3 ADD MSTORE PUSH32 0x416C726561647920726567697374657265640000000000000000000000000000 PUSH1 0x44 DUP3 ADD MSTORE PUSH1 0x64 ADD PUSH2 0xBBD JUMP JUMPDEST CALLVALUE DUP2 EQ PUSH2 0x1B94 JUMPI PUSH1 0x40 MLOAD PUSH3 0x461BCD PUSH1 0xE5 SHL DUP2 MSTORE PUSH1 0x20 PUSH1 0x4 DUP3 ADD MSTORE PUSH1 0x19 PUSH1 0x24 DUP3 ADD MSTORE PUSH32 0x526567697374657220466565206E6F74206D61746368696E6700000000000000 PUSH1 0x44 DUP3 ADD MSTORE PUSH1 0x64 ADD PUSH2 0xBBD JUMP JUMPDEST PUSH1 0x40 MLOAD DUP1 PUSH2 0x1A0 ADD PUSH1 0x40 MSTORE DUP1 PUSH1 0x1 ISZERO ISZERO DUP2 MSTORE PUSH1 0x20 ADD DUP13 PUSH1 0x1 PUSH1 0x1 PUSH1 0xA0 SHL SUB AND DUP2 MSTORE PUSH1 0x20 ADD DUP12 PUSH1 0x1 PUSH1 0x1 PUSH1 0xA0 SHL SUB AND DUP2 MSTORE PUSH1 0x20 ADD DUP11 DUP2 MSTORE PUSH1 0x20 ADD DUP10 DUP2 MSTORE PUSH1 0x20 ADD DUP9 DUP2 MSTORE PUSH1 0x20 ADD DUP8 DUP2 MSTORE PUSH1 0x20 ADD DUP7 DUP2 MSTORE PUSH1 0x20 ADD PUSH1 0x4 SLOAD DUP2 MSTORE PUSH1 0x20 ADD PUSH1 0x0 DUP2 MSTORE PUSH1 0x20 ADD PUSH1 0x0 DUP2 MSTORE PUSH1 0x20 ADD DUP5 DUP2 MSTORE PUSH1 0x20 ADD DUP6 DUP2 MSTORE POP PUSH1 0x10 PUSH1 0x0 DUP14 PUSH1 0x1 PUSH1 0x1 PUSH1 0xA0 SHL SUB AND PUSH1 0x1 PUSH1 0x1 PUSH1 0xA0 SHL SUB AND DUP2 MSTORE PUSH1 0x20 ADD SWAP1 DUP2 MSTORE PUSH1 0x20 ADD PUSH1 0x0 KECCAK256 PUSH1 0x0 DUP3 ADD MLOAD DUP2 PUSH1 0x0 ADD PUSH1 0x0 PUSH2 0x100 EXP DUP2 SLOAD DUP2 PUSH1 0xFF MUL NOT AND SWAP1 DUP4 ISZERO ISZERO MUL OR SWAP1 SSTORE POP PUSH1 0x20 DUP3 ADD MLOAD DUP2 PUSH1 0x0 ADD PUSH1 0x1 PUSH2 0x100 EXP DUP2 SLOAD DUP2 PUSH1 0x1 PUSH1 0x1 PUSH1 0xA0 SHL SUB MUL NOT AND SWAP1 DUP4 PUSH1 0x1 PUSH1 0x1 PUSH1 0xA0 SHL SUB AND MUL OR SWAP1 SSTORE POP PUSH1 0x40 DUP3 ADD MLOAD DUP2 PUSH1 0x1 ADD PUSH1 0x0 PUSH2 0x100 EXP DUP2 SLOAD DUP2 PUSH1 0x1 PUSH1 0x1 PUSH1 0xA0 SHL SUB MUL NOT AND SWAP1 DUP4 PUSH1 0x1 PUSH1 0x1 PUSH1 0xA0 SHL SUB AND MUL OR SWAP1 SSTORE POP PUSH1 0x60 DUP3 ADD MLOAD DUP2 PUSH1 0x2 ADD SWAP1 DUP1 MLOAD SWAP1 PUSH1 0x20 ADD SWAP1 PUSH2 0x1CC0 SWAP3 SWAP2 SWAP1 PUSH2 0x4678 JUMP JUMPDEST POP PUSH1 0x80 DUP3 ADD MLOAD DUP1 MLOAD PUSH2 0x1CDC SWAP2 PUSH1 0x3 DUP5 ADD SWAP2 PUSH1 0x20 SWAP1 SWAP2 ADD SWAP1 PUSH2 0x4678 JUMP JUMPDEST POP PUSH1 0xA0 DUP3 ADD MLOAD PUSH1 0x4 DUP3 ADD SSTORE PUSH1 0xC0 DUP3 ADD MLOAD DUP1 MLOAD PUSH2 0x1D02 SWAP2 PUSH1 0x5 DUP5 ADD SWAP2 PUSH1 0x20 SWAP1 SWAP2 ADD SWAP1 PUSH2 0x4678 JUMP JUMPDEST POP PUSH1 0xE0 DUP3 ADD MLOAD DUP1 MLOAD PUSH2 0x1D1E SWAP2 PUSH1 0x6 DUP5 ADD SWAP2 PUSH1 0x20 SWAP1 SWAP2 ADD SWAP1 PUSH2 0x4678 JUMP JUMPDEST POP PUSH2 0x100 DUP3 ADD MLOAD DUP2 PUSH1 0x7 ADD SSTORE PUSH2 0x120 DUP3 ADD MLOAD DUP2 PUSH1 0x8 ADD SSTORE PUSH2 0x140 DUP3 ADD MLOAD DUP2 PUSH1 0x9 ADD SSTORE PUSH2 0x160 DUP3 ADD MLOAD DUP2 PUSH1 0xA ADD SSTORE PUSH2 0x180 DUP3 ADD MLOAD DUP2 PUSH1 0xB ADD SSTORE SWAP1 POP POP PUSH1 0x40 MLOAD DUP1 PUSH2 0x1A0 ADD PUSH1 0x40 MSTORE DUP1 PUSH1 0x1 ISZERO ISZERO DUP2 MSTORE PUSH1 0x20 ADD DUP13 PUSH1 0x1 PUSH1 0x1 PUSH1 0xA0 SHL SUB AND DUP2 MSTORE PUSH1 0x20 ADD DUP12 PUSH1 0x1 PUSH1 0x1 PUSH1 0xA0 SHL SUB AND DUP2 MSTORE PUSH1 0x20 ADD DUP11 DUP2 MSTORE PUSH1 0x20 ADD DUP10 DUP2 MSTORE PUSH1 0x20 ADD DUP9 DUP2 MSTORE PUSH1 0x20 ADD DUP8 DUP2 MSTORE PUSH1 0x20 ADD DUP7 DUP2 MSTORE PUSH1 0x20 ADD PUSH1 0x4 SLOAD DUP2 MSTORE PUSH1 0x20 ADD PUSH1 0x0 DUP2 MSTORE PUSH1 0x20 ADD PUSH1 0x0 DUP2 MSTORE PUSH1 0x20 ADD DUP6 DUP2 MSTORE PUSH1 0x20 ADD DUP6 DUP2 MSTORE POP PUSH1 0xF PUSH1 0x0 PUSH1 0x4 PUSH1 0x0 DUP2 SLOAD DUP1 SWAP3 SWAP2 SWAP1 PUSH2 0x1DE1 SWAP1 PUSH2 0x5112 JUMP JUMPDEST SWAP1 SWAP2 SSTORE POP DUP2 MSTORE PUSH1 0x20 DUP1 DUP3 ADD SWAP3 SWAP1 SWAP3 MSTORE PUSH1 0x40 SWAP1 DUP2 ADD PUSH1 0x0 KECCAK256 DUP4 MLOAD DUP2 SLOAD DUP6 DUP6 ADD MLOAD PUSH21 0xFFFFFFFFFFFFFFFFFFFFFFFFFFFFFFFFFFFFFFFFFF NOT SWAP1 SWAP2 AND SWAP2 ISZERO ISZERO PUSH21 0xFFFFFFFFFFFFFFFFFFFFFFFFFFFFFFFFFFFFFFFF00 NOT AND SWAP2 SWAP1 SWAP2 OR PUSH2 0x100 PUSH1 0x1 PUSH1 0x1 PUSH1 0xA0 SHL SUB SWAP3 DUP4 AND MUL OR DUP3 SSTORE SWAP2 DUP5 ADD MLOAD PUSH1 0x1 DUP3 ADD DUP1 SLOAD PUSH1 0x1 PUSH1 0x1 PUSH1 0xA0 SHL SUB NOT AND SWAP2 SWAP1 SWAP4 AND OR SWAP1 SWAP2 SSTORE PUSH1 0x60 DUP4 ADD MLOAD DUP1 MLOAD SWAP2 SWAP3 PUSH2 0x1E82 SWAP3 PUSH1 0x2 DUP6 ADD SWAP3 SWAP1 SWAP2 ADD SWAP1 PUSH2 0x4678 JUMP JUMPDEST POP PUSH1 0x80 DUP3 ADD MLOAD DUP1 MLOAD PUSH2 0x1E9E SWAP2 PUSH1 0x3 DUP5 ADD SWAP2 PUSH1 0x20 SWAP1 SWAP2 ADD SWAP1 PUSH2 0x4678 JUMP JUMPDEST POP PUSH1 0xA0 DUP3 ADD MLOAD PUSH1 0x4 DUP3 ADD SSTORE PUSH1 0xC0 DUP3 ADD MLOAD DUP1 MLOAD PUSH2 0x1EC4 SWAP2 PUSH1 0x5 DUP5 ADD SWAP2 PUSH1 0x20 SWAP1 SWAP2 ADD SWAP1 PUSH2 0x4678 JUMP JUMPDEST POP PUSH1 0xE0 DUP3 ADD MLOAD DUP1 MLOAD PUSH2 0x1EE0 SWAP2 PUSH1 0x6 DUP5 ADD SWAP2 PUSH1 0x20 SWAP1 SWAP2 ADD SWAP1 PUSH2 0x4678 JUMP JUMPDEST POP PUSH2 0x100 DUP3 ADD MLOAD PUSH1 0x7 DUP3 ADD SSTORE PUSH2 0x120 DUP3 ADD MLOAD PUSH1 0x8 DUP3 ADD SSTORE PUSH2 0x140 DUP3 ADD MLOAD PUSH1 0x9 DUP1 DUP4 ADD SWAP2 SWAP1 SWAP2 SSTORE PUSH2 0x160 DUP4 ADD MLOAD PUSH1 0xA DUP4 ADD SSTORE PUSH2 0x180 SWAP1 SWAP3 ADD MLOAD PUSH1 0xB SWAP1 SWAP2 ADD SSTORE PUSH1 0xE SLOAD PUSH1 0x1 PUSH1 0x1 PUSH1 0xA0 SHL SUB AND PUSH1 0x0 SWAP1 DUP2 MSTORE PUSH1 0x10 PUSH1 0x20 MSTORE PUSH1 0x40 DUP2 KECCAK256 SWAP1 SWAP2 ADD DUP1 SLOAD CALLVALUE SWAP3 SWAP1 PUSH2 0x1F4B SWAP1 DUP5 SWAP1 PUSH2 0x5049 JUMP JUMPDEST SWAP1 SWAP2 SSTORE POP POP PUSH1 0x4 SLOAD PUSH1 0x40 MLOAD PUSH32 0x337CD441473F6E4D26F96EB02885394C00CD7271E43ED7E206DD43664B98598C SWAP1 PUSH2 0x1F87 SWAP1 DUP15 SWAP1 DUP14 SWAP1 DUP16 SWAP1 PUSH2 0x4D02 JUMP JUMPDEST PUSH1 0x40 MLOAD DUP1 SWAP2 SUB SWAP1 LOG2 POP POP POP POP POP POP POP POP POP POP POP JUMP JUMPDEST CALLER PUSH1 0x0 SWAP1 DUP2 MSTORE PUSH1 0x10 PUSH1 0x20 MSTORE PUSH1 0x40 SWAP1 KECCAK256 SLOAD PUSH1 0xFF AND PUSH2 0x1FFB JUMPI PUSH1 0x40 MLOAD PUSH3 0x461BCD PUSH1 0xE5 SHL DUP2 MSTORE PUSH1 0x20 PUSH1 0x4 DUP3 ADD MSTORE PUSH1 0x12 PUSH1 0x24 DUP3 ADD MSTORE PUSH32 0x4E6F742061206F7267616E69736174696F6E0000000000000000000000000000 PUSH1 0x44 DUP3 ADD MSTORE PUSH1 0x64 ADD PUSH2 0xBBD JUMP JUMPDEST CALLER PUSH1 0x0 SWAP1 DUP2 MSTORE PUSH1 0x10 PUSH1 0x20 MSTORE PUSH1 0x40 SWAP1 KECCAK256 PUSH1 0xB ADD SLOAD DUP9 SWAP1 PUSH2 0x2022 SWAP1 PUSH8 0xDE0B6B3A7640000 PUSH2 0x3C69 JUMP JUMPDEST GT ISZERO PUSH2 0x2070 JUMPI PUSH1 0x40 MLOAD PUSH3 0x461BCD PUSH1 0xE5 SHL DUP2 MSTORE PUSH1 0x20 PUSH1 0x4 DUP3 ADD MSTORE PUSH1 0x1A PUSH1 0x24 DUP3 ADD MSTORE PUSH32 0x4E6F7420616C6C6F7765642077696E6E696E6720616D6F756E74000000000000 PUSH1 0x44 DUP3 ADD MSTORE PUSH1 0x64 ADD PUSH2 0xBBD JUMP JUMPDEST CALLER PUSH1 0x0 SWAP1 DUP2 MSTORE PUSH1 0x10 PUSH1 0x20 MSTORE PUSH1 0x40 SWAP1 KECCAK256 PUSH1 0xA ADD SLOAD DUP9 SWAP1 PUSH2 0x2097 SWAP1 PUSH8 0xDE0B6B3A7640000 PUSH2 0x3C69 JUMP JUMPDEST LT ISZERO PUSH2 0x20E5 JUMPI PUSH1 0x40 MLOAD PUSH3 0x461BCD PUSH1 0xE5 SHL DUP2 MSTORE PUSH1 0x20 PUSH1 0x4 DUP3 ADD MSTORE PUSH1 0x1A PUSH1 0x24 DUP3 ADD MSTORE PUSH32 0x4E6F7420616C6C6F7765642077696E6E696E6720616D6F756E74000000000000 PUSH1 0x44 DUP3 ADD MSTORE PUSH1 0x64 ADD PUSH2 0xBBD JUMP JUMPDEST PUSH1 0x0 DUP9 GT PUSH2 0x2135 JUMPI PUSH1 0x40 MLOAD PUSH3 0x461BCD PUSH1 0xE5 SHL DUP2 MSTORE PUSH1 0x20 PUSH1 0x4 DUP3 ADD MSTORE PUSH1 0xE PUSH1 0x24 DUP3 ADD MSTORE PUSH32 0x4C6F7720746F74616C5072696365000000000000000000000000000000000000 PUSH1 0x44 DUP3 ADD MSTORE PUSH1 0x64 ADD PUSH2 0xBBD JUMP JUMPDEST CALLVALUE PUSH2 0x2153 PUSH2 0x214C PUSH1 0x64 PUSH1 0x7 SLOAD DUP13 PUSH2 0x1040 SWAP2 SWAP1 PUSH2 0x5075 JUMP JUMPDEST DUP11 SWAP1 PUSH2 0x3C0A JUMP JUMPDEST EQ PUSH2 0x21A0 JUMPI PUSH1 0x40 MLOAD PUSH3 0x461BCD PUSH1 0xE5 SHL DUP2 MSTORE PUSH1 0x20 PUSH1 0x4 DUP3 ADD MSTORE PUSH1 0x13 PUSH1 0x24 DUP3 ADD MSTORE PUSH32 0x416D6F756E74206E6F74206D61746368696E6700000000000000000000000000 PUSH1 0x44 DUP3 ADD MSTORE PUSH1 0x64 ADD PUSH2 0xBBD JUMP JUMPDEST DUP4 DUP10 GT ISZERO PUSH2 0x21F0 JUMPI PUSH1 0x40 MLOAD PUSH3 0x461BCD PUSH1 0xE5 SHL DUP2 MSTORE PUSH1 0x20 PUSH1 0x4 DUP3 ADD MSTORE PUSH1 0x10 PUSH1 0x24 DUP3 ADD MSTORE PUSH32 0x6361706163697479206973206C65737300000000000000000000000000000000 PUSH1 0x44 DUP3 ADD MSTORE PUSH1 0x64 ADD PUSH2 0xBBD JUMP JUMPDEST TIMESTAMP DUP8 LT ISZERO PUSH2 0x2240 JUMPI PUSH1 0x40 MLOAD PUSH3 0x461BCD PUSH1 0xE5 SHL DUP2 MSTORE PUSH1 0x20 PUSH1 0x4 DUP3 ADD MSTORE PUSH1 0x11 PUSH1 0x24 DUP3 ADD MSTORE PUSH32 0x53746172742074696D6520706173736564000000000000000000000000000000 PUSH1 0x44 DUP3 ADD MSTORE PUSH1 0x64 ADD PUSH2 0xBBD JUMP JUMPDEST DUP6 DUP8 LT PUSH2 0x228F JUMPI PUSH1 0x40 MLOAD PUSH3 0x461BCD PUSH1 0xE5 SHL DUP2 MSTORE PUSH1 0x20 PUSH1 0x4 DUP3 ADD MSTORE PUSH1 0x1D PUSH1 0x24 DUP3 ADD MSTORE PUSH32 0x456E642074696D65206C657373207468616E2073746172742074696D65000000 PUSH1 0x44 DUP3 ADD MSTORE PUSH1 0x64 ADD PUSH2 0xBBD JUMP JUMPDEST PUSH1 0x32 DUP3 GT ISZERO PUSH2 0x2306 JUMPI PUSH1 0x40 MLOAD PUSH3 0x461BCD PUSH1 0xE5 SHL DUP2 MSTORE PUSH1 0x20 PUSH1 0x4 DUP3 ADD MSTORE PUSH1 0x29 PUSH1 0x24 DUP3 ADD MSTORE PUSH32 0x526F6C6C6F7665722070657263656E746167652063616E2774206265206D6F72 PUSH1 0x44 DUP3 ADD MSTORE PUSH32 0x65207468616E2035300000000000000000000000000000000000000000000000 PUSH1 0x64 DUP3 ADD MSTORE PUSH1 0x84 ADD PUSH2 0xBBD JUMP JUMPDEST PUSH1 0x3 DUP1 SLOAD PUSH1 0x0 SWAP1 DUP2 MSTORE PUSH1 0x13 PUSH1 0x20 DUP2 DUP2 MSTORE PUSH1 0x40 DUP1 DUP5 KECCAK256 PUSH1 0x6 ADD DUP9 SWAP1 SSTORE DUP5 SLOAD DUP1 DUP6 MSTORE DUP2 DUP6 KECCAK256 SWAP1 DUP2 SSTORE PUSH1 0x7 ADD DUP8 SWAP1 SSTORE DUP5 SLOAD DUP5 MSTORE DUP1 DUP5 KECCAK256 DUP6 ADD DUP16 SWAP1 SSTORE DUP5 SLOAD DUP5 MSTORE DUP1 DUP5 KECCAK256 PUSH1 0x1 SWAP1 DUP2 ADD DUP16 SWAP1 SSTORE DUP6 SLOAD DUP6 MSTORE DUP2 DUP6 KECCAK256 PUSH1 0x4 ADD DUP15 SWAP1 SSTORE DUP6 SLOAD DUP6 MSTORE PUSH1 0x14 DUP4 MSTORE DUP2 DUP6 KECCAK256 DUP2 ADD DUP14 SWAP1 SSTORE DUP6 SLOAD DUP6 MSTORE DUP2 DUP6 KECCAK256 PUSH1 0x2 SWAP1 DUP2 ADD DUP14 SWAP1 SSTORE DUP7 SLOAD DUP1 DUP8 MSTORE DUP4 DUP8 KECCAK256 SWAP1 DUP2 SSTORE DUP8 ADD DUP13 SWAP1 SSTORE DUP7 SLOAD DUP7 MSTORE SWAP4 SWAP1 SWAP3 MSTORE DUP1 DUP5 KECCAK256 SWAP1 SWAP3 ADD DUP9 SWAP1 SSTORE DUP4 SLOAD DUP4 MSTORE DUP2 DUP4 KECCAK256 PUSH1 0x9 SWAP1 DUP2 ADD DUP1 SLOAD PUSH1 0xFF PUSH1 0xA0 SHL NOT AND SWAP1 SSTORE DUP5 SLOAD DUP5 MSTORE DUP3 DUP5 KECCAK256 ADD DUP1 SLOAD PUSH1 0x1 PUSH1 0x1 PUSH1 0xA0 SHL SUB NOT AND CALLER OR SWAP1 SSTORE SWAP3 SLOAD DUP3 MSTORE SWAP1 KECCAK256 PUSH1 0xB ADD DUP1 SLOAD DUP4 SWAP3 PUSH1 0xFF NOT SWAP1 SWAP2 AND SWAP1 DUP4 DUP2 DUP2 GT ISZERO PUSH2 0x23EE JUMPI PUSH2 0x23EE PUSH2 0x5183 JUMP JUMPDEST MUL OR SWAP1 SSTORE POP PUSH2 0x2405 PUSH1 0x64 PUSH2 0x1040 DUP13 DUP2 DUP13 PUSH1 0xA PUSH2 0x3C69 JUMP JUMPDEST PUSH2 0x240F DUP10 DUP13 PUSH2 0x3A55 JUMP JUMPDEST PUSH2 0x2419 SWAP2 SWAP1 PUSH2 0x5049 JUMP JUMPDEST PUSH1 0x3 DUP1 SLOAD PUSH1 0x0 SWAP1 DUP2 MSTORE PUSH1 0x13 PUSH1 0x20 SWAP1 DUP2 MSTORE PUSH1 0x40 DUP1 DUP4 KECCAK256 PUSH1 0x5 ADD SWAP5 SWAP1 SWAP5 SSTORE CALLER DUP3 MSTORE DUP1 DUP1 MSTORE SWAP3 DUP2 KECCAK256 SWAP2 SLOAD DUP3 SLOAD PUSH1 0x1 DUP2 ADD DUP5 SSTORE SWAP3 DUP3 MSTORE SWAP3 SWAP1 KECCAK256 ADD SSTORE PUSH1 0x7 SLOAD PUSH2 0x2464 SWAP1 PUSH1 0x64 SWAP1 PUSH2 0x1040 SWAP1 DUP12 PUSH2 0x5075 JUMP JUMPDEST PUSH1 0xE SLOAD PUSH1 0x1 PUSH1 0x1 PUSH1 0xA0 SHL SUB AND PUSH1 0x0 SWAP1 DUP2 MSTORE PUSH1 0x10 PUSH1 0x20 MSTORE PUSH1 0x40 DUP2 KECCAK256 PUSH1 0x9 ADD DUP1 SLOAD SWAP1 SWAP2 SWAP1 PUSH2 0x2491 SWAP1 DUP5 SWAP1 PUSH2 0x5049 JUMP JUMPDEST SWAP1 SWAP2 SSTORE POP POP CALLER PUSH1 0x0 SWAP1 DUP2 MSTORE PUSH1 0x10 PUSH1 0x20 MSTORE PUSH1 0x40 SWAP1 KECCAK256 PUSH1 0x1 ADD SLOAD PUSH1 0x1 PUSH1 0x1 PUSH1 0xA0 SHL SUB AND ISZERO PUSH2 0x251F JUMPI PUSH2 0x24C2 DUP9 PUSH1 0x64 PUSH2 0x3A55 JUMP JUMPDEST CALLER PUSH1 0x0 SWAP1 DUP2 MSTORE PUSH1 0x10 PUSH1 0x20 SWAP1 DUP2 MSTORE PUSH1 0x40 DUP1 DUP4 KECCAK256 PUSH1 0x1 ADD SLOAD PUSH1 0x1 PUSH1 0x1 PUSH1 0xA0 SHL SUB AND DUP4 MSTORE PUSH1 0x16 SWAP1 SWAP2 MSTORE SWAP1 KECCAK256 SLOAD PUSH2 0x24F5 SWAP2 SWAP1 PUSH2 0x5049 JUMP JUMPDEST CALLER PUSH1 0x0 SWAP1 DUP2 MSTORE PUSH1 0x10 PUSH1 0x20 SWAP1 DUP2 MSTORE PUSH1 0x40 DUP1 DUP4 KECCAK256 PUSH1 0x1 ADD SLOAD PUSH1 0x1 PUSH1 0x1 PUSH1 0xA0 SHL SUB AND DUP4 MSTORE PUSH1 0x16 SWAP1 SWAP2 MSTORE SWAP1 KECCAK256 SSTORE JUMPDEST CALLER PUSH1 0x0 DUP2 DUP2 MSTORE PUSH1 0x10 PUSH1 0x20 SWAP1 DUP2 MSTORE PUSH1 0x40 SWAP2 DUP3 SWAP1 KECCAK256 PUSH1 0x7 ADD SLOAD PUSH1 0x3 SLOAD DUP4 MLOAD DUP16 DUP2 MSTORE SWAP3 DUP4 ADD DUP15 SWAP1 MSTORE SWAP3 DUP3 ADD DUP13 SWAP1 MSTORE PUSH1 0x60 DUP3 ADD DUP9 SWAP1 MSTORE PUSH1 0x80 DUP3 ADD DUP12 SWAP1 MSTORE SWAP3 SWAP2 SWAP1 PUSH32 0xE6E4222B2C2DDB82EB8817D7BD8EC6FC5EB5F915B4D7B36C260AA77BA04DA7DB SWAP1 PUSH1 0xA0 ADD PUSH1 0x40 MLOAD DUP1 SWAP2 SUB SWAP1 LOG4 PUSH1 0x3 DUP1 SLOAD SWAP1 PUSH1 0x0 PUSH2 0x2598 DUP4 PUSH2 0x5112 JUMP JUMPDEST SWAP2 SWAP1 POP SSTORE POP POP POP POP POP POP POP POP POP POP POP JUMP JUMPDEST CALLER PUSH1 0x0 SWAP1 DUP2 MSTORE PUSH1 0x10 PUSH1 0x20 MSTORE PUSH1 0x40 DUP2 KECCAK256 PUSH1 0x8 SWAP1 DUP2 ADD SLOAD SWAP1 SLOAD SWAP1 SWAP2 SWAP1 PUSH2 0x25D5 SWAP1 PUSH1 0x64 SWAP1 PUSH2 0x1040 SWAP1 DUP6 SWAP1 PUSH2 0x3C69 JUMP JUMPDEST SWAP1 POP PUSH1 0x0 PUSH2 0x25E3 DUP4 DUP4 PUSH2 0x3E3B JUMP JUMPDEST PUSH1 0x40 MLOAD SWAP1 SWAP2 POP CALLER SWAP1 DUP3 ISZERO PUSH2 0x8FC MUL SWAP1 DUP4 SWAP1 PUSH1 0x0 DUP2 DUP2 DUP2 DUP6 DUP9 DUP9 CALL SWAP4 POP POP POP POP ISZERO DUP1 ISZERO PUSH2 0x2613 JUMPI RETURNDATASIZE PUSH1 0x0 DUP1 RETURNDATACOPY RETURNDATASIZE PUSH1 0x0 REVERT JUMPDEST POP PUSH1 0xE SLOAD PUSH1 0x1 PUSH1 0x1 PUSH1 0xA0 SHL SUB AND PUSH1 0x0 SWAP1 DUP2 MSTORE PUSH1 0x10 PUSH1 0x20 MSTORE PUSH1 0x40 DUP2 KECCAK256 PUSH1 0x9 ADD DUP1 SLOAD DUP5 SWAP3 SWAP1 PUSH2 0x2641 SWAP1 DUP5 SWAP1 PUSH2 0x5049 JUMP JUMPDEST SWAP1 SWAP2 SSTORE POP POP CALLER PUSH1 0x0 SWAP1 DUP2 MSTORE PUSH1 0x10 PUSH1 0x20 MSTORE PUSH1 0x40 DUP2 KECCAK256 PUSH1 0x9 ADD DUP1 SLOAD DUP4 SWAP3 SWAP1 PUSH2 0x2668 SWAP1 DUP5 SWAP1 PUSH2 0x5049 JUMP JUMPDEST SWAP1 SWAP2 SSTORE POP POP CALLER PUSH1 0x0 SWAP1 DUP2 MSTORE PUSH1 0x10 PUSH1 0x20 MSTORE PUSH1 0x40 DUP2 KECCAK256 PUSH1 0x8 ADD SSTORE POP POP POP JUMP JUMPDEST PUSH1 0x0 DUP2 DUP2 MSTORE PUSH1 0x13 PUSH1 0x20 MSTORE PUSH1 0x40 DUP2 KECCAK256 PUSH1 0xA DUP2 ADD SLOAD PUSH1 0x60 SWAP3 DUP4 SWAP3 SWAP2 PUSH8 0xFFFFFFFFFFFFFFFF DUP2 GT ISZERO PUSH2 0x26B6 JUMPI PUSH2 0x26B6 PUSH2 0x51AF JUMP JUMPDEST PUSH1 0x40 MLOAD SWAP1 DUP1 DUP3 MSTORE DUP1 PUSH1 0x20 MUL PUSH1 0x20 ADD DUP3 ADD PUSH1 0x40 MSTORE DUP1 ISZERO PUSH2 0x26DF JUMPI DUP2 PUSH1 0x20 ADD PUSH1 0x20 DUP3 MUL DUP1 CALLDATASIZE DUP4 CALLDATACOPY ADD SWAP1 POP JUMPDEST POP PUSH1 0x1 DUP4 ADD SLOAD PUSH1 0xA DUP5 ADD SLOAD SWAP2 SWAP3 POP PUSH1 0x0 SWAP2 PUSH2 0x26FA SWAP2 SWAP1 PUSH2 0x5075 JUMP JUMPDEST PUSH8 0xFFFFFFFFFFFFFFFF DUP2 GT ISZERO PUSH2 0x2712 JUMPI PUSH2 0x2712 PUSH2 0x51AF JUMP JUMPDEST PUSH1 0x40 MLOAD SWAP1 DUP1 DUP3 MSTORE DUP1 PUSH1 0x20 MUL PUSH1 0x20 ADD DUP3 ADD PUSH1 0x40 MSTORE DUP1 ISZERO PUSH2 0x273B JUMPI DUP2 PUSH1 0x20 ADD PUSH1 0x20 DUP3 MUL DUP1 CALLDATASIZE DUP4 CALLDATACOPY ADD SWAP1 POP JUMPDEST POP SWAP1 POP PUSH1 0x0 DUP1 PUSH1 0x0 JUMPDEST PUSH1 0xA DUP7 ADD SLOAD DUP2 LT ISZERO PUSH2 0x285B JUMPI DUP6 PUSH1 0xA ADD DUP2 DUP2 SLOAD DUP2 LT PUSH2 0x2765 JUMPI PUSH2 0x2765 PUSH2 0x5199 JUMP JUMPDEST PUSH1 0x0 SWAP2 DUP3 MSTORE PUSH1 0x20 SWAP1 SWAP2 KECCAK256 PUSH1 0x3 SWAP1 SWAP2 MUL ADD SLOAD PUSH1 0x1 PUSH1 0x1 PUSH1 0xA0 SHL SUB AND DUP6 DUP5 PUSH2 0x278A DUP2 PUSH2 0x5112 JUMP JUMPDEST SWAP6 POP DUP2 MLOAD DUP2 LT PUSH2 0x279C JUMPI PUSH2 0x279C PUSH2 0x5199 JUMP JUMPDEST PUSH1 0x20 MUL PUSH1 0x20 ADD ADD SWAP1 PUSH1 0x1 PUSH1 0x1 PUSH1 0xA0 SHL SUB AND SWAP1 DUP2 PUSH1 0x1 PUSH1 0x1 PUSH1 0xA0 SHL SUB AND DUP2 MSTORE POP POP PUSH1 0x0 JUMPDEST DUP7 PUSH1 0x1 ADD SLOAD DUP2 LT ISZERO PUSH2 0x2848 JUMPI DUP7 PUSH1 0xA ADD DUP3 DUP2 SLOAD DUP2 LT PUSH2 0x27E0 JUMPI PUSH2 0x27E0 PUSH2 0x5199 JUMP JUMPDEST SWAP1 PUSH1 0x0 MSTORE PUSH1 0x20 PUSH1 0x0 KECCAK256 SWAP1 PUSH1 0x3 MUL ADD PUSH1 0x2 ADD DUP2 DUP2 SLOAD DUP2 LT PUSH2 0x2802 JUMPI PUSH2 0x2802 PUSH2 0x5199 JUMP JUMPDEST SWAP1 PUSH1 0x0 MSTORE PUSH1 0x20 PUSH1 0x0 KECCAK256 ADD SLOAD DUP6 DUP5 DUP1 PUSH2 0x2819 SWAP1 PUSH2 0x5112 JUMP JUMPDEST SWAP6 POP DUP2 MLOAD DUP2 LT PUSH2 0x282B JUMPI PUSH2 0x282B PUSH2 0x5199 JUMP JUMPDEST PUSH1 0x20 SWAP1 DUP2 MUL SWAP2 SWAP1 SWAP2 ADD ADD MSTORE DUP1 PUSH2 0x2840 DUP2 PUSH2 0x5112 JUMP JUMPDEST SWAP2 POP POP PUSH2 0x27BF JUMP JUMPDEST POP DUP1 PUSH2 0x2853 DUP2 PUSH2 0x5112 JUMP JUMPDEST SWAP2 POP POP PUSH2 0x2744 JUMP JUMPDEST POP SWAP2 SWAP8 SWAP3 SWAP7 POP SWAP2 SWAP5 POP POP POP POP POP JUMP JUMPDEST PUSH1 0x10 PUSH1 0x20 MSTORE PUSH1 0x0 SWAP1 DUP2 MSTORE PUSH1 0x40 SWAP1 KECCAK256 DUP1 SLOAD PUSH1 0x1 DUP3 ADD SLOAD PUSH1 0x2 DUP4 ADD DUP1 SLOAD PUSH1 0xFF DUP5 AND SWAP5 PUSH2 0x100 SWAP1 SWAP5 DIV PUSH1 0x1 PUSH1 0x1 PUSH1 0xA0 SHL SUB SWAP1 DUP2 AND SWAP5 SWAP4 AND SWAP3 SWAP2 SWAP1 PUSH2 0x13B8 SWAP1 PUSH2 0x50D7 JUMP JUMPDEST PUSH1 0xE SLOAD PUSH1 0x0 SWAP1 PUSH1 0x60 SWAP1 PUSH1 0x1 PUSH1 0xA0 SHL SWAP1 DIV PUSH1 0xFF AND ISZERO PUSH2 0x290A JUMPI PUSH1 0x40 MLOAD PUSH3 0x461BCD PUSH1 0xE5 SHL DUP2 MSTORE PUSH1 0x20 PUSH1 0x4 DUP3 ADD MSTORE PUSH1 0x16 PUSH1 0x24 DUP3 ADD MSTORE PUSH32 0x416E6F7468657220526573756C742072756E6E696E6700000000000000000000 PUSH1 0x44 DUP3 ADD MSTORE PUSH1 0x64 ADD PUSH2 0xBBD JUMP JUMPDEST PUSH1 0x1 JUMPDEST PUSH1 0x3 SLOAD DUP2 LT ISZERO PUSH2 0x29E1 JUMPI PUSH1 0x1 PUSH1 0x0 DUP3 DUP2 MSTORE PUSH1 0x13 PUSH1 0x20 MSTORE PUSH1 0x40 SWAP1 KECCAK256 PUSH1 0xB ADD SLOAD PUSH1 0xFF AND PUSH1 0x1 DUP2 GT ISZERO PUSH2 0x293F JUMPI PUSH2 0x293F PUSH2 0x5183 JUMP JUMPDEST EQ ISZERO PUSH2 0x29CF JUMPI PUSH1 0x2 PUSH1 0x0 DUP3 DUP2 MSTORE PUSH1 0x13 PUSH1 0x20 MSTORE PUSH1 0x40 SWAP1 KECCAK256 PUSH1 0x9 ADD SLOAD PUSH1 0x1 PUSH1 0xA0 SHL SWAP1 DIV PUSH1 0xFF AND PUSH1 0x3 DUP2 GT ISZERO PUSH2 0x2974 JUMPI PUSH2 0x2974 PUSH2 0x5183 JUMP JUMPDEST EQ PUSH2 0x29CF JUMPI PUSH1 0x0 DUP2 DUP2 MSTORE PUSH1 0x1A PUSH1 0x20 SWAP1 DUP2 MSTORE PUSH1 0x40 DUP1 DUP4 KECCAK256 SLOAD PUSH1 0x13 SWAP1 SWAP3 MSTORE SWAP1 SWAP2 KECCAK256 PUSH1 0x5 ADD SLOAD GT PUSH2 0x29CF JUMPI PUSH1 0x0 DUP2 DUP2 MSTORE PUSH1 0x14 PUSH1 0x20 MSTORE PUSH1 0x40 SWAP1 KECCAK256 PUSH1 0x3 ADD SLOAD TIMESTAMP GT ISZERO PUSH2 0x29CF JUMPI POP POP PUSH1 0x40 DUP1 MLOAD PUSH1 0x20 DUP2 ADD SWAP1 SWAP2 MSTORE PUSH1 0x0 DUP2 MSTORE PUSH1 0x1 SWAP2 POP PUSH2 0x29E3 JUMP JUMPDEST DUP1 PUSH2 0x29D9 DUP2 PUSH2 0x5112 JUMP JUMPDEST SWAP2 POP POP PUSH2 0x290D JUMP JUMPDEST POP JUMPDEST SWAP3 POP SWAP3 SWAP1 POP JUMP JUMPDEST PUSH1 0xE SLOAD PUSH1 0x1 PUSH1 0x1 PUSH1 0xA0 SHL SUB AND CALLER EQ PUSH2 0x2A32 JUMPI PUSH1 0x40 MLOAD PUSH3 0x461BCD PUSH1 0xE5 SHL DUP2 MSTORE PUSH1 0x20 PUSH1 0x4 DUP3 ADD MSTORE PUSH1 0xB PUSH1 0x24 DUP3 ADD MSTORE PUSH11 0x3737BA16B096B0B236B4B7 PUSH1 0xA9 SHL PUSH1 0x44 DUP3 ADD MSTORE PUSH1 0x64 ADD PUSH2 0xBBD JUMP JUMPDEST PUSH1 0x1 PUSH1 0x1 PUSH1 0xA0 SHL SUB DUP2 AND PUSH2 0x2A45 JUMPI PUSH1 0x0 DUP1 REVERT JUMPDEST PUSH1 0xE DUP1 SLOAD PUSH1 0x1 PUSH1 0x1 PUSH1 0xA0 SHL SUB NOT AND PUSH1 0x1 PUSH1 0x1 PUSH1 0xA0 SHL SUB SWAP3 SWAP1 SWAP3 AND SWAP2 SWAP1 SWAP2 OR SWAP1 SSTORE JUMP JUMPDEST PUSH1 0x11 PUSH1 0x20 MSTORE PUSH1 0x0 SWAP1 DUP2 MSTORE PUSH1 0x40 SWAP1 KECCAK256 DUP1 SLOAD DUP2 SWAP1 PUSH2 0x2A82 SWAP1 PUSH2 0x50D7 JUMP JUMPDEST DUP1 PUSH1 0x1F ADD PUSH1 0x20 DUP1 SWAP2 DIV MUL PUSH1 0x20 ADD PUSH1 0x40 MLOAD SWAP1 DUP2 ADD PUSH1 0x40 MSTORE DUP1 SWAP3 SWAP2 SWAP1 DUP2 DUP2 MSTORE PUSH1 0x20 ADD DUP3 DUP1 SLOAD PUSH2 0x2AAE SWAP1 PUSH2 0x50D7 JUMP JUMPDEST DUP1 ISZERO PUSH2 0x2AFB JUMPI DUP1 PUSH1 0x1F LT PUSH2 0x2AD0 JUMPI PUSH2 0x100 DUP1 DUP4 SLOAD DIV MUL DUP4 MSTORE SWAP2 PUSH1 0x20 ADD SWAP2 PUSH2 0x2AFB JUMP JUMPDEST DUP3 ADD SWAP2 SWAP1 PUSH1 0x0 MSTORE PUSH1 0x20 PUSH1 0x0 KECCAK256 SWAP1 JUMPDEST DUP2 SLOAD DUP2 MSTORE SWAP1 PUSH1 0x1 ADD SWAP1 PUSH1 0x20 ADD DUP1 DUP4 GT PUSH2 0x2ADE JUMPI DUP3 SWAP1 SUB PUSH1 0x1F AND DUP3 ADD SWAP2 JUMPDEST POP POP POP POP POP SWAP1 DUP1 PUSH1 0x1 ADD DUP1 SLOAD PUSH2 0x2B10 SWAP1 PUSH2 0x50D7 JUMP JUMPDEST DUP1 PUSH1 0x1F ADD PUSH1 0x20 DUP1 SWAP2 DIV MUL PUSH1 0x20 ADD PUSH1 0x40 MLOAD SWAP1 DUP2 ADD PUSH1 0x40 MSTORE DUP1 SWAP3 SWAP2 SWAP1 DUP2 DUP2 MSTORE PUSH1 0x20 ADD DUP3 DUP1 SLOAD PUSH2 0x2B3C SWAP1 PUSH2 0x50D7 JUMP JUMPDEST DUP1 ISZERO PUSH2 0x2B89 JUMPI DUP1 PUSH1 0x1F LT PUSH2 0x2B5E JUMPI PUSH2 0x100 DUP1 DUP4 SLOAD DIV MUL DUP4 MSTORE SWAP2 PUSH1 0x20 ADD SWAP2 PUSH2 0x2B89 JUMP JUMPDEST DUP3 ADD SWAP2 SWAP1 PUSH1 0x0 MSTORE PUSH1 0x20 PUSH1 0x0 KECCAK256 SWAP1 JUMPDEST DUP2 SLOAD DUP2 MSTORE SWAP1 PUSH1 0x1 ADD SWAP1 PUSH1 0x20 ADD DUP1 DUP4 GT PUSH2 0x2B6C JUMPI DUP3 SWAP1 SUB PUSH1 0x1F AND DUP3 ADD SWAP2 JUMPDEST POP POP POP POP PUSH1 0x2 DUP4 ADD SLOAD PUSH1 0x3 DUP5 ADD SLOAD PUSH1 0x4 SWAP1 SWAP5 ADD SLOAD SWAP3 SWAP4 PUSH1 0xFF DUP3 AND SWAP4 PUSH2 0x100 SWAP1 SWAP3 DIV PUSH1 0x1 PUSH1 0x1 PUSH1 0xA0 SHL SUB AND SWAP3 POP SWAP1 DUP7 JUMP JUMPDEST PUSH1 0x1 PUSH1 0x1 PUSH1 0xA0 SHL SUB DUP3 AND PUSH2 0x2BCF JUMPI PUSH2 0x2BCF PUSH2 0x5141 JUMP JUMPDEST PUSH1 0x1 PUSH1 0x1 PUSH1 0xA0 SHL SUB DUP3 DUP2 AND PUSH1 0x0 SWAP1 DUP2 MSTORE PUSH1 0x11 PUSH1 0x20 MSTORE PUSH1 0x40 SWAP1 KECCAK256 PUSH1 0x2 ADD SLOAD PUSH2 0x100 SWAP1 DIV AND PUSH2 0x2C3E JUMPI PUSH1 0x40 MLOAD PUSH3 0x461BCD PUSH1 0xE5 SHL DUP2 MSTORE PUSH1 0x20 PUSH1 0x4 DUP3 ADD MSTORE PUSH1 0x16 PUSH1 0x24 DUP3 ADD MSTORE PUSH32 0x4E6F7420416C7265616479207265676973746572656400000000000000000000 PUSH1 0x44 DUP3 ADD MSTORE PUSH1 0x64 ADD PUSH2 0xBBD JUMP JUMPDEST PUSH1 0x1 PUSH1 0x1 PUSH1 0xA0 SHL SUB DUP1 DUP4 AND PUSH1 0x0 DUP2 DUP2 MSTORE PUSH1 0x11 PUSH1 0x20 MSTORE PUSH1 0x40 SWAP1 KECCAK256 PUSH1 0x2 ADD SLOAD PUSH2 0x100 SWAP1 DIV SWAP1 SWAP2 AND EQ PUSH2 0x2CB0 JUMPI PUSH1 0x40 MLOAD PUSH3 0x461BCD PUSH1 0xE5 SHL DUP2 MSTORE PUSH1 0x20 PUSH1 0x4 DUP3 ADD MSTORE PUSH1 0x17 PUSH1 0x24 DUP3 ADD MSTORE PUSH32 0x57726F6E67206164647265737320746F20757064617465000000000000000000 PUSH1 0x44 DUP3 ADD MSTORE PUSH1 0x64 ADD PUSH2 0xBBD JUMP JUMPDEST PUSH1 0x40 DUP1 MLOAD PUSH1 0xC0 DUP2 ADD DUP3 MSTORE DUP7 DUP2 MSTORE PUSH1 0x20 DUP1 DUP3 ADD DUP8 SWAP1 MSTORE DUP6 ISZERO ISZERO DUP3 DUP5 ADD MSTORE PUSH1 0x1 PUSH1 0x1 PUSH1 0xA0 SHL SUB DUP6 AND PUSH1 0x60 DUP4 ADD DUP2 SWAP1 MSTORE PUSH1 0x80 DUP4 ADD DUP6 SWAP1 MSTORE PUSH1 0x0 DUP2 DUP2 MSTORE PUSH1 0x11 DUP1 DUP5 MSTORE SWAP5 DUP2 KECCAK256 PUSH1 0x4 DUP2 ADD SLOAD PUSH1 0xA0 DUP7 ADD MSTORE SWAP2 SWAP1 MSTORE SWAP3 DUP2 MSTORE DUP2 MLOAD DUP1 MLOAD SWAP3 SWAP4 SWAP3 PUSH2 0x2D15 SWAP3 DUP5 SWAP3 ADD SWAP1 PUSH2 0x4678 JUMP JUMPDEST POP PUSH1 0x20 DUP3 DUP2 ADD MLOAD DUP1 MLOAD PUSH2 0x2D2E SWAP3 PUSH1 0x1 DUP6 ADD SWAP3 ADD SWAP1 PUSH2 0x4678 JUMP JUMPDEST POP PUSH1 0x40 DUP3 DUP2 ADD MLOAD PUSH1 0x2 DUP4 ADD DUP1 SLOAD PUSH1 0x60 DUP1 DUP8 ADD MLOAD PUSH21 0xFFFFFFFFFFFFFFFFFFFFFFFFFFFFFFFFFFFFFFFFFF NOT SWAP1 SWAP3 AND SWAP4 ISZERO ISZERO PUSH21 0xFFFFFFFFFFFFFFFFFFFFFFFFFFFFFFFFFFFFFFFF00 NOT AND SWAP4 SWAP1 SWAP4 OR PUSH2 0x100 PUSH1 0x1 PUSH1 0x1 PUSH1 0xA0 SHL SUB SWAP3 DUP4 AND MUL OR SWAP1 SWAP2 SSTORE PUSH1 0x80 DUP1 DUP7 ADD MLOAD PUSH1 0x3 DUP7 ADD SSTORE PUSH1 0xA0 SWAP6 DUP7 ADD MLOAD PUSH1 0x4 SWAP6 DUP7 ADD SSTORE DUP4 MLOAD PUSH1 0xC0 DUP2 ADD DUP6 MSTORE DUP12 DUP2 MSTORE PUSH1 0x20 DUP1 DUP3 ADD DUP13 SWAP1 MSTORE DUP11 ISZERO ISZERO DUP3 DUP8 ADD MSTORE SWAP3 DUP10 AND SWAP4 DUP2 ADD DUP5 SWAP1 MSTORE SWAP1 DUP2 ADD DUP8 SWAP1 MSTORE PUSH1 0x0 SWAP3 DUP4 MSTORE PUSH1 0x11 DUP3 MSTORE DUP4 DUP4 KECCAK256 SWAP1 SWAP5 ADD SLOAD SWAP5 DUP5 ADD DUP6 SWAP1 MSTORE SWAP4 DUP2 MSTORE PUSH1 0x12 DUP5 MSTORE KECCAK256 DUP2 MLOAD DUP1 MLOAD SWAP3 SWAP4 SWAP2 SWAP3 PUSH2 0x2E00 SWAP3 DUP5 SWAP3 ADD SWAP1 PUSH2 0x4678 JUMP JUMPDEST POP PUSH1 0x20 DUP3 DUP2 ADD MLOAD DUP1 MLOAD PUSH2 0x2E19 SWAP3 PUSH1 0x1 DUP6 ADD SWAP3 ADD SWAP1 PUSH2 0x4678 JUMP JUMPDEST POP PUSH1 0x40 DUP3 ADD MLOAD PUSH1 0x2 DUP3 ADD DUP1 SLOAD PUSH1 0x60 DUP6 ADD MLOAD PUSH1 0x1 PUSH1 0x1 PUSH1 0xA0 SHL SUB AND PUSH2 0x100 MUL PUSH21 0xFFFFFFFFFFFFFFFFFFFFFFFFFFFFFFFFFFFFFFFF00 NOT SWAP4 ISZERO ISZERO SWAP4 SWAP1 SWAP4 AND PUSH21 0xFFFFFFFFFFFFFFFFFFFFFFFFFFFFFFFFFFFFFFFFFF NOT SWAP1 SWAP2 AND OR SWAP2 SWAP1 SWAP2 OR SWAP1 SSTORE PUSH1 0x80 DUP3 ADD MLOAD PUSH1 0x3 DUP3 ADD SSTORE PUSH1 0xA0 SWAP1 SWAP2 ADD MLOAD PUSH1 0x4 SWAP1 SWAP2 ADD SSTORE POP POP POP POP POP JUMP JUMPDEST PUSH1 0x0 DUP2 DUP2 MSTORE PUSH1 0x1B PUSH1 0x20 MSTORE PUSH1 0x40 SWAP1 KECCAK256 SLOAD DUP3 EQ PUSH2 0x2EF0 JUMPI PUSH1 0x40 MLOAD PUSH3 0x461BCD PUSH1 0xE5 SHL DUP2 MSTORE PUSH1 0x20 PUSH1 0x4 DUP3 ADD MSTORE PUSH1 0x13 PUSH1 0x24 DUP3 ADD MSTORE PUSH32 0x4C6F7474657279204964206D69736D6174636800000000000000000000000000 PUSH1 0x44 DUP3 ADD MSTORE PUSH1 0x64 ADD PUSH2 0xBBD JUMP JUMPDEST PUSH1 0x0 DUP3 DUP2 MSTORE PUSH1 0x13 PUSH1 0x20 MSTORE PUSH1 0x40 SWAP1 KECCAK256 PUSH1 0x1 PUSH1 0x1 PUSH1 0xA0 SHL SUB DUP5 AND ISZERO PUSH2 0x3080 JUMPI PUSH1 0x4 DUP2 ADD SLOAD PUSH1 0x8 SLOAD PUSH1 0x0 SWAP1 PUSH2 0x2F2A SWAP1 PUSH1 0x64 SWAP1 PUSH2 0x1040 SWAP1 DUP6 SWAP1 PUSH2 0x3C69 JUMP JUMPDEST SWAP1 POP PUSH1 0x0 PUSH2 0x2F38 DUP4 DUP4 PUSH2 0x3E3B JUMP JUMPDEST PUSH1 0x40 MLOAD SWAP1 SWAP2 POP PUSH1 0x1 PUSH1 0x1 PUSH1 0xA0 SHL SUB DUP9 AND SWAP1 DUP3 ISZERO PUSH2 0x8FC MUL SWAP1 DUP4 SWAP1 PUSH1 0x0 DUP2 DUP2 DUP2 DUP6 DUP9 DUP9 CALL SWAP4 POP POP POP POP ISZERO DUP1 ISZERO PUSH2 0x2F71 JUMPI RETURNDATASIZE PUSH1 0x0 DUP1 RETURNDATACOPY RETURNDATASIZE PUSH1 0x0 REVERT JUMPDEST POP PUSH1 0xE SLOAD PUSH1 0x1 PUSH1 0x1 PUSH1 0xA0 SHL SUB AND PUSH1 0x0 SWAP1 DUP2 MSTORE PUSH1 0x10 PUSH1 0x20 MSTORE PUSH1 0x40 DUP2 KECCAK256 PUSH1 0x9 ADD DUP1 SLOAD DUP5 SWAP3 SWAP1 PUSH2 0x2F9F SWAP1 DUP5 SWAP1 PUSH2 0x5049 JUMP JUMPDEST SWAP1 SWAP2 SSTORE POP PUSH1 0x0 SWAP1 POP PUSH1 0xB DUP6 ADD SLOAD PUSH1 0xFF AND PUSH1 0x1 DUP2 GT ISZERO PUSH2 0x2FC0 JUMPI PUSH2 0x2FC0 PUSH2 0x5183 JUMP JUMPDEST EQ ISZERO PUSH2 0x3038 JUMPI PUSH1 0x0 PUSH2 0x2FE2 PUSH1 0x64 PUSH2 0x1040 PUSH1 0x9 SLOAD DUP8 PUSH2 0x3C69 SWAP1 SWAP2 SWAP1 PUSH4 0xFFFFFFFF AND JUMP JUMPDEST PUSH1 0x6 DUP7 ADD SLOAD PUSH1 0x0 SWAP1 DUP2 MSTORE PUSH1 0x12 PUSH1 0x20 MSTORE PUSH1 0x40 DUP1 DUP3 KECCAK256 PUSH1 0x2 ADD SLOAD SWAP1 MLOAD SWAP3 SWAP4 POP PUSH2 0x100 SWAP1 DIV PUSH1 0x1 PUSH1 0x1 PUSH1 0xA0 SHL SUB AND SWAP2 PUSH2 0x8FC DUP5 ISZERO MUL SWAP2 DUP5 SWAP2 SWAP1 DUP2 DUP2 DUP2 DUP6 DUP9 DUP9 CALL SWAP4 POP POP POP POP ISZERO DUP1 ISZERO PUSH2 0x3035 JUMPI RETURNDATASIZE PUSH1 0x0 DUP1 RETURNDATACOPY RETURNDATASIZE PUSH1 0x0 REVERT JUMPDEST POP POP JUMPDEST DUP6 DUP8 PUSH1 0x1 PUSH1 0x1 PUSH1 0xA0 SHL SUB AND PUSH32 0x88F3705F0C4D3C5B1A1D29FE4FD3F87E889A5A0CE0A1E37989766B3248603FE9 DUP4 PUSH1 0x40 MLOAD PUSH2 0x3074 SWAP2 DUP2 MSTORE PUSH1 0x20 ADD SWAP1 JUMP JUMPDEST PUSH1 0x40 MLOAD DUP1 SWAP2 SUB SWAP1 LOG3 POP POP POP JUMPDEST POP POP PUSH1 0xE DUP1 SLOAD PUSH1 0xFF PUSH1 0xA0 SHL NOT AND SWAP1 SSTORE POP POP JUMP JUMPDEST PUSH1 0xE SLOAD PUSH1 0x0 SWAP1 PUSH1 0x1 PUSH1 0x1 PUSH1 0xA0 SHL SUB AND CALLER EQ PUSH2 0x30DE JUMPI PUSH1 0x40 MLOAD PUSH3 0x461BCD PUSH1 0xE5 SHL DUP2 MSTORE PUSH1 0x20 PUSH1 0x4 DUP3 ADD MSTORE PUSH1 0xB PUSH1 0x24 DUP3 ADD MSTORE PUSH11 0x3737BA16B096B0B236B4B7 PUSH1 0xA9 SHL PUSH1 0x44 DUP3 ADD MSTORE PUSH1 0x64 ADD PUSH2 0xBBD JUMP JUMPDEST POP SELFBALANCE SWAP1 JUMP JUMPDEST PUSH1 0xE SLOAD PUSH1 0x1 PUSH1 0x1 PUSH1 0xA0 SHL SUB AND CALLER EQ PUSH2 0x312B JUMPI PUSH1 0x40 MLOAD PUSH3 0x461BCD PUSH1 0xE5 SHL DUP2 MSTORE PUSH1 0x20 PUSH1 0x4 DUP3 ADD MSTORE PUSH1 0xB PUSH1 0x24 DUP3 ADD MSTORE PUSH11 0x3737BA16B096B0B236B4B7 PUSH1 0xA9 SHL PUSH1 0x44 DUP3 ADD MSTORE PUSH1 0x64 ADD PUSH2 0xBBD JUMP JUMPDEST PUSH1 0x40 MLOAD PUSH4 0x70A08231 PUSH1 0xE0 SHL DUP2 MSTORE ADDRESS PUSH1 0x4 DUP3 ADD MSTORE PUSH32 0x0 PUSH1 0x1 PUSH1 0x1 PUSH1 0xA0 SHL SUB AND SWAP1 PUSH4 0xA9059CBB SWAP1 CALLER SWAP1 DUP4 SWAP1 PUSH4 0x70A08231 SWAP1 PUSH1 0x24 ADD PUSH1 0x20 PUSH1 0x40 MLOAD DUP1 DUP4 SUB DUP2 DUP7 DUP1 EXTCODESIZE ISZERO DUP1 ISZERO PUSH2 0x3194 JUMPI PUSH1 0x0 DUP1 REVERT JUMPDEST POP GAS STATICCALL ISZERO DUP1 ISZERO PUSH2 0x31A8 JUMPI RETURNDATASIZE PUSH1 0x0 DUP1 RETURNDATACOPY RETURNDATASIZE PUSH1 0x0 REVERT JUMPDEST POP POP POP POP PUSH1 0x40 MLOAD RETURNDATASIZE PUSH1 0x1F NOT PUSH1 0x1F DUP3 ADD AND DUP3 ADD DUP1 PUSH1 0x40 MSTORE POP DUP2 ADD SWAP1 PUSH2 0x31CC SWAP2 SWAP1 PUSH2 0x4B49 JUMP JUMPDEST PUSH1 0x40 MLOAD PUSH32 0xFFFFFFFF00000000000000000000000000000000000000000000000000000000 PUSH1 0xE0 DUP6 SWAP1 SHL AND DUP2 MSTORE PUSH1 0x1 PUSH1 0x1 PUSH1 0xA0 SHL SUB SWAP1 SWAP3 AND PUSH1 0x4 DUP4 ADD MSTORE PUSH1 0x24 DUP3 ADD MSTORE PUSH1 0x44 ADD PUSH1 0x20 PUSH1 0x40 MLOAD DUP1 DUP4 SUB DUP2 PUSH1 0x0 DUP8 DUP1 EXTCODESIZE ISZERO DUP1 ISZERO PUSH2 0x322A JUMPI PUSH1 0x0 DUP1 REVERT JUMPDEST POP GAS CALL ISZERO DUP1 ISZERO PUSH2 0x323E JUMPI RETURNDATASIZE PUSH1 0x0 DUP1 RETURNDATACOPY RETURNDATASIZE PUSH1 0x0 REVERT JUMPDEST POP POP POP POP PUSH1 0x40 MLOAD RETURNDATASIZE PUSH1 0x1F NOT PUSH1 0x1F DUP3 ADD AND DUP3 ADD DUP1 PUSH1 0x40 MSTORE POP DUP2 ADD SWAP1 PUSH2 0x3262 SWAP2 SWAP1 PUSH2 0x49BB JUMP JUMPDEST PUSH2 0x32AE JUMPI PUSH1 0x40 MLOAD PUSH3 0x461BCD PUSH1 0xE5 SHL DUP2 MSTORE PUSH1 0x20 PUSH1 0x4 DUP3 ADD MSTORE PUSH1 0x12 PUSH1 0x24 DUP3 ADD MSTORE PUSH32 0x556E61626C6520746F207472616E736665720000000000000000000000000000 PUSH1 0x44 DUP3 ADD MSTORE PUSH1 0x64 ADD PUSH2 0xBBD JUMP JUMPDEST JUMP JUMPDEST CALLER PUSH1 0x0 DUP2 DUP2 MSTORE PUSH1 0x16 PUSH1 0x20 MSTORE PUSH1 0x40 DUP1 DUP3 KECCAK256 SLOAD SWAP1 MLOAD SWAP1 SWAP3 SWAP2 DUP4 ISZERO PUSH2 0x8FC MUL SWAP2 DUP5 SWAP2 DUP2 DUP2 DUP2 DUP6 DUP9 DUP9 CALL SWAP4 POP POP POP POP ISZERO DUP1 ISZERO PUSH2 0x32EC JUMPI RETURNDATASIZE PUSH1 0x0 DUP1 RETURNDATACOPY RETURNDATASIZE PUSH1 0x0 REVERT JUMPDEST POP POP CALLER PUSH1 0x0 SWAP1 DUP2 MSTORE PUSH1 0x16 PUSH1 0x20 MSTORE PUSH1 0x40 DUP2 KECCAK256 SSTORE JUMP JUMPDEST CALLER PUSH1 0x1 PUSH1 0x1 PUSH1 0xA0 SHL SUB PUSH32 0x0 AND EQ PUSH2 0x3378 JUMPI PUSH1 0x40 MLOAD PUSH3 0x461BCD PUSH1 0xE5 SHL DUP2 MSTORE PUSH1 0x20 PUSH1 0x4 DUP3 ADD MSTORE PUSH1 0x1F PUSH1 0x24 DUP3 ADD MSTORE PUSH32 0x4F6E6C7920565246436F6F7264696E61746F722063616E2066756C66696C6C00 PUSH1 0x44 DUP3 ADD MSTORE PUSH1 0x64 ADD PUSH2 0xBBD JUMP JUMPDEST PUSH2 0x3382 DUP3 DUP3 PUSH2 0x3E7D JUMP JUMPDEST POP POP JUMP JUMPDEST PUSH1 0x1 PUSH1 0x1 PUSH1 0xA0 SHL SUB DUP2 AND PUSH1 0x0 SWAP1 DUP2 MSTORE PUSH1 0x20 DUP1 MSTORE PUSH1 0x40 DUP2 KECCAK256 SLOAD PUSH1 0x60 SWAP2 SWAP1 PUSH8 0xFFFFFFFFFFFFFFFF DUP2 GT ISZERO PUSH2 0x33BA JUMPI PUSH2 0x33BA PUSH2 0x51AF JUMP JUMPDEST PUSH1 0x40 MLOAD SWAP1 DUP1 DUP3 MSTORE DUP1 PUSH1 0x20 MUL PUSH1 0x20 ADD DUP3 ADD PUSH1 0x40 MSTORE DUP1 ISZERO PUSH2 0x33E3 JUMPI DUP2 PUSH1 0x20 ADD PUSH1 0x20 DUP3 MUL DUP1 CALLDATASIZE DUP4 CALLDATACOPY ADD SWAP1 POP JUMPDEST POP SWAP1 POP PUSH1 0x0 JUMPDEST PUSH1 0x1 PUSH1 0x1 PUSH1 0xA0 SHL SUB DUP5 AND PUSH1 0x0 SWAP1 DUP2 MSTORE PUSH1 0x20 DUP1 MSTORE PUSH1 0x40 SWAP1 KECCAK256 SLOAD DUP2 LT ISZERO PUSH2 0xD1C JUMPI PUSH1 0x1 PUSH1 0x1 PUSH1 0xA0 SHL SUB DUP5 AND PUSH1 0x0 SWAP1 DUP2 MSTORE PUSH1 0x20 DUP1 MSTORE PUSH1 0x40 SWAP1 KECCAK256 DUP1 SLOAD DUP3 SWAP1 DUP2 LT PUSH2 0x3431 JUMPI PUSH2 0x3431 PUSH2 0x5199 JUMP JUMPDEST SWAP1 PUSH1 0x0 MSTORE PUSH1 0x20 PUSH1 0x0 KECCAK256 ADD SLOAD DUP3 DUP3 DUP2 MLOAD DUP2 LT PUSH2 0x344E JUMPI PUSH2 0x344E PUSH2 0x5199 JUMP JUMPDEST PUSH1 0x20 SWAP1 DUP2 MUL SWAP2 SWAP1 SWAP2 ADD ADD MSTORE DUP1 PUSH2 0x3463 DUP2 PUSH2 0x5112 JUMP JUMPDEST SWAP2 POP POP PUSH2 0x33E9 JUMP JUMPDEST PUSH1 0x12 PUSH1 0x20 MSTORE PUSH1 0x0 SWAP1 DUP2 MSTORE PUSH1 0x40 SWAP1 KECCAK256 DUP1 SLOAD DUP2 SWAP1 PUSH2 0x2A82 SWAP1 PUSH2 0x50D7 JUMP JUMPDEST PUSH1 0x0 DUP3 DUP2 MSTORE PUSH1 0x13 PUSH1 0x20 SWAP1 DUP2 MSTORE PUSH1 0x40 DUP1 DUP4 KECCAK256 PUSH1 0x14 SWAP1 SWAP3 MSTORE SWAP1 SWAP2 KECCAK256 PUSH1 0x3 DUP3 ADD SLOAD CALLVALUE EQ PUSH2 0x34F2 JUMPI PUSH1 0x40 MLOAD PUSH3 0x461BCD PUSH1 0xE5 SHL DUP2 MSTORE PUSH1 0x20 PUSH1 0x4 DUP3 ADD MSTORE PUSH1 0x11 PUSH1 0x24 DUP3 ADD MSTORE PUSH32 0x456E74727920466565206E6F74206D6574000000000000000000000000000000 PUSH1 0x44 DUP3 ADD MSTORE PUSH1 0x64 ADD PUSH2 0xBBD JUMP JUMPDEST DUP2 PUSH1 0x1 ADD SLOAD DUP6 MLOAD EQ PUSH2 0x3546 JUMPI PUSH1 0x40 MLOAD PUSH3 0x461BCD PUSH1 0xE5 SHL DUP2 MSTORE PUSH1 0x20 PUSH1 0x4 DUP3 ADD MSTORE PUSH1 0x13 PUSH1 0x24 DUP3 ADD MSTORE PUSH32 0x736C6F74732073697A65206E6F74206D65657400000000000000000000000000 PUSH1 0x44 DUP3 ADD MSTORE PUSH1 0x64 ADD PUSH2 0xBBD JUMP JUMPDEST DUP1 PUSH1 0x2 ADD SLOAD TIMESTAMP LT PUSH2 0x3599 JUMPI PUSH1 0x40 MLOAD PUSH3 0x461BCD PUSH1 0xE5 SHL DUP2 MSTORE PUSH1 0x20 PUSH1 0x4 DUP3 ADD MSTORE PUSH1 0x12 PUSH1 0x24 DUP3 ADD MSTORE PUSH32 0x54696D652070617373656420746F206275790000000000000000000000000000 PUSH1 0x44 DUP3 ADD MSTORE PUSH1 0x64 ADD PUSH2 0xBBD JUMP JUMPDEST PUSH1 0x22 DUP4 PUSH1 0x40 MLOAD PUSH2 0x35A9 SWAP2 SWAP1 PUSH2 0x4CE6 JUMP JUMPDEST SWAP1 DUP2 MSTORE PUSH1 0x40 MLOAD SWAP1 DUP2 SWAP1 SUB PUSH1 0x20 ADD SWAP1 KECCAK256 SLOAD PUSH1 0xFF AND ISZERO PUSH2 0x3609 JUMPI PUSH1 0x40 MLOAD PUSH3 0x461BCD PUSH1 0xE5 SHL DUP2 MSTORE PUSH1 0x20 PUSH1 0x4 DUP3 ADD MSTORE PUSH1 0x16 PUSH1 0x24 DUP3 ADD MSTORE PUSH32 0x4E756D62657220416C726561647920636C61696D656400000000000000000000 PUSH1 0x44 DUP3 ADD MSTORE PUSH1 0x64 ADD PUSH2 0xBBD JUMP JUMPDEST PUSH1 0x1 PUSH1 0x22 DUP5 PUSH1 0x40 MLOAD PUSH2 0x361B SWAP2 SWAP1 PUSH2 0x4CE6 JUMP JUMPDEST SWAP1 DUP2 MSTORE PUSH1 0x40 DUP1 MLOAD PUSH1 0x20 SWAP3 DUP2 SWAP1 SUB DUP4 ADD SWAP1 KECCAK256 DUP1 SLOAD PUSH1 0xFF NOT AND SWAP4 ISZERO ISZERO SWAP4 SWAP1 SWAP4 OR SWAP1 SWAP3 SSTORE PUSH1 0x0 DUP7 DUP2 MSTORE PUSH1 0x21 DUP3 MSTORE DUP3 DUP2 KECCAK256 CALLER DUP3 MSTORE SWAP1 SWAP2 MSTORE SWAP1 DUP2 KECCAK256 DUP1 SLOAD PUSH1 0x1 SWAP3 SWAP1 PUSH2 0x3662 SWAP1 DUP5 SWAP1 PUSH2 0x5049 JUMP JUMPDEST SWAP1 SWAP2 SSTORE POP POP PUSH1 0x40 DUP1 MLOAD PUSH1 0x60 DUP2 ADD DUP3 MSTORE CALLER DUP2 MSTORE TIMESTAMP PUSH1 0x20 DUP1 DUP4 ADD SWAP2 DUP3 MSTORE SWAP3 DUP3 ADD DUP9 DUP2 MSTORE PUSH1 0xA DUP7 ADD DUP1 SLOAD PUSH1 0x1 DUP1 DUP3 ADD DUP4 SSTORE PUSH1 0x0 SWAP3 DUP4 MSTORE SWAP2 DUP7 SWAP1 KECCAK256 DUP6 MLOAD PUSH1 0x3 SWAP1 SWAP3 MUL ADD DUP1 SLOAD PUSH1 0x1 PUSH1 0x1 PUSH1 0xA0 SHL SUB NOT AND PUSH1 0x1 PUSH1 0x1 PUSH1 0xA0 SHL SUB SWAP1 SWAP3 AND SWAP2 SWAP1 SWAP2 OR DUP2 SSTORE SWAP3 MLOAD SWAP1 DUP4 ADD SSTORE MLOAD DUP1 MLOAD SWAP3 SWAP4 SWAP2 SWAP3 PUSH2 0x36DB SWAP3 PUSH1 0x2 DUP6 ADD SWAP3 ADD SWAP1 PUSH2 0x462D JUMP JUMPDEST POP POP CALLER PUSH1 0x0 SWAP1 DUP2 MSTORE PUSH1 0x15 PUSH1 0x20 MSTORE PUSH1 0x40 DUP2 KECCAK256 DUP1 SLOAD CALLVALUE SWAP4 POP SWAP1 SWAP2 SWAP1 PUSH2 0x36FF SWAP1 DUP5 SWAP1 PUSH2 0x5049 JUMP JUMPDEST SWAP1 SWAP2 SSTORE POP POP PUSH1 0x9 DUP3 ADD SLOAD PUSH1 0x1 PUSH1 0x1 PUSH1 0xA0 SHL SUB AND PUSH1 0x0 SWAP1 DUP2 MSTORE PUSH1 0x10 PUSH1 0x20 MSTORE PUSH1 0x40 DUP2 KECCAK256 PUSH1 0x8 ADD DUP1 SLOAD CALLVALUE SWAP3 SWAP1 PUSH2 0x3733 SWAP1 DUP5 SWAP1 PUSH2 0x5049 JUMP JUMPDEST SWAP1 SWAP2 SSTORE POP POP CALLER PUSH1 0x0 SWAP1 DUP2 MSTORE PUSH1 0x1F PUSH1 0x20 SWAP1 DUP2 MSTORE PUSH1 0x40 DUP1 DUP4 KECCAK256 DUP1 SLOAD PUSH1 0x1 DUP2 ADD DUP3 SSTORE SWAP1 DUP5 MSTORE DUP3 DUP5 KECCAK256 ADD DUP8 SWAP1 SSTORE DUP7 DUP4 MSTORE PUSH1 0x1A SWAP1 SWAP2 MSTORE DUP2 KECCAK256 DUP1 SLOAD SWAP2 PUSH2 0x3772 DUP4 PUSH2 0x5112 JUMP JUMPDEST SWAP2 SWAP1 POP SSTORE POP PUSH2 0x378E PUSH1 0x64 PUSH1 0xA SLOAD DUP5 PUSH1 0x3 ADD SLOAD PUSH2 0x1040 SWAP2 SWAP1 PUSH2 0x5075 JUMP JUMPDEST CALLER PUSH1 0x0 SWAP1 DUP2 MSTORE PUSH1 0x18 PUSH1 0x20 MSTORE PUSH1 0x40 DUP2 KECCAK256 DUP1 SLOAD SWAP1 SWAP2 SWAP1 PUSH2 0x37AD SWAP1 DUP5 SWAP1 PUSH2 0x5049 JUMP JUMPDEST SWAP1 SWAP2 SSTORE POP POP PUSH1 0x3 DUP1 DUP3 ADD SLOAD SWAP1 DUP4 ADD SLOAD PUSH1 0x40 MLOAD CALLER SWAP3 DUP8 SWAP3 PUSH32 0xEEBEEF70159CAB2AFD7F0275B057D4672073BC52648B266B673FDBB3A856103D SWAP3 PUSH2 0x37F2 SWAP3 DUP12 SWAP3 TIMESTAMP SWAP3 PUSH2 0x4DD3 JUMP JUMPDEST PUSH1 0x40 MLOAD DUP1 SWAP2 SUB SWAP1 LOG3 POP POP POP POP POP JUMP JUMPDEST PUSH1 0xE SLOAD PUSH1 0x1 PUSH1 0x1 PUSH1 0xA0 SHL SUB AND CALLER EQ PUSH2 0x3849 JUMPI PUSH1 0x40 MLOAD PUSH3 0x461BCD PUSH1 0xE5 SHL DUP2 MSTORE PUSH1 0x20 PUSH1 0x4 DUP3 ADD MSTORE PUSH1 0xB PUSH1 0x24 DUP3 ADD MSTORE PUSH11 0x3737BA16B096B0B236B4B7 PUSH1 0xA9 SHL PUSH1 0x44 DUP3 ADD MSTORE PUSH1 0x64 ADD PUSH2 0xBBD JUMP JUMPDEST PUSH1 0x40 MLOAD CALLER SWAP1 SELFBALANCE DUP1 ISZERO PUSH2 0x8FC MUL SWAP2 PUSH1 0x0 DUP2 DUP2 DUP2 DUP6 DUP9 DUP9 CALL SWAP4 POP POP POP POP ISZERO DUP1 ISZERO PUSH2 0x3875 JUMPI RETURNDATASIZE PUSH1 0x0 DUP1 RETURNDATACOPY RETURNDATASIZE PUSH1 0x0 REVERT JUMPDEST POP JUMP JUMPDEST PUSH1 0xB SLOAD PUSH1 0x40 MLOAD PUSH4 0x70A08231 PUSH1 0xE0 SHL DUP2 MSTORE ADDRESS PUSH1 0x4 DUP3 ADD MSTORE PUSH1 0x1 PUSH1 0x1 PUSH1 0xA0 SHL SUB SWAP1 SWAP2 AND SWAP1 PUSH4 0x70A08231 SWAP1 PUSH1 0x24 ADD PUSH1 0x20 PUSH1 0x40 MLOAD DUP1 DUP4 SUB DUP2 DUP7 DUP1 EXTCODESIZE ISZERO DUP1 ISZERO PUSH2 0x38BB JUMPI PUSH1 0x0 DUP1 REVERT JUMPDEST POP GAS STATICCALL ISZERO DUP1 ISZERO PUSH2 0x38CF JUMPI RETURNDATASIZE PUSH1 0x0 DUP1 RETURNDATACOPY RETURNDATASIZE PUSH1 0x0 REVERT JUMPDEST POP POP POP POP PUSH1 0x40 MLOAD RETURNDATASIZE PUSH1 0x1F NOT PUSH1 0x1F DUP3 ADD AND DUP3 ADD DUP1 PUSH1 0x40 MSTORE POP DUP2 ADD SWAP1 PUSH2 0x38F3 SWAP2 SWAP1 PUSH2 0x4B49 JUMP JUMPDEST CALLER PUSH1 0x0 SWAP1 DUP2 MSTORE PUSH1 0x18 PUSH1 0x20 MSTORE PUSH1 0x40 SWAP1 KECCAK256 SLOAD GT ISZERO PUSH2 0x3951 JUMPI PUSH1 0x40 MLOAD PUSH3 0x461BCD PUSH1 0xE5 SHL DUP2 MSTORE PUSH1 0x20 PUSH1 0x4 DUP3 ADD MSTORE PUSH1 0xB PUSH1 0x24 DUP3 ADD MSTORE PUSH32 0x6C6F772062616C616E6365000000000000000000000000000000000000000000 PUSH1 0x44 DUP3 ADD MSTORE PUSH1 0x64 ADD PUSH2 0xBBD JUMP JUMPDEST PUSH1 0xB SLOAD CALLER PUSH1 0x0 DUP2 DUP2 MSTORE PUSH1 0x18 PUSH1 0x20 MSTORE PUSH1 0x40 SWAP1 DUP2 SWAP1 KECCAK256 SLOAD SWAP1 MLOAD PUSH4 0xA9059CBB PUSH1 0xE0 SHL DUP2 MSTORE PUSH1 0x4 DUP2 ADD SWAP3 SWAP1 SWAP3 MSTORE PUSH1 0x24 DUP3 ADD MSTORE PUSH1 0x1 PUSH1 0x1 PUSH1 0xA0 SHL SUB SWAP1 SWAP2 AND SWAP1 PUSH4 0xA9059CBB SWAP1 PUSH1 0x44 ADD PUSH1 0x20 PUSH1 0x40 MLOAD DUP1 DUP4 SUB DUP2 PUSH1 0x0 DUP8 DUP1 EXTCODESIZE ISZERO DUP1 ISZERO PUSH2 0x39AE JUMPI PUSH1 0x0 DUP1 REVERT JUMPDEST POP GAS CALL ISZERO DUP1 ISZERO PUSH2 0x39C2 JUMPI RETURNDATASIZE PUSH1 0x0 DUP1 RETURNDATACOPY RETURNDATASIZE PUSH1 0x0 REVERT JUMPDEST POP POP POP POP PUSH1 0x40 MLOAD RETURNDATASIZE PUSH1 0x1F NOT PUSH1 0x1F DUP3 ADD AND DUP3 ADD DUP1 PUSH1 0x40 MSTORE POP DUP2 ADD SWAP1 PUSH2 0x39E6 SWAP2 SWAP1 PUSH2 0x49BB JUMP JUMPDEST POP CALLER PUSH1 0x0 SWAP1 DUP2 MSTORE PUSH1 0x18 PUSH1 0x20 MSTORE PUSH1 0x40 DUP2 KECCAK256 SSTORE JUMP JUMPDEST PUSH1 0xE SLOAD PUSH1 0x1 PUSH1 0x1 PUSH1 0xA0 SHL SUB AND CALLER EQ PUSH2 0x3A41 JUMPI PUSH1 0x40 MLOAD PUSH3 0x461BCD PUSH1 0xE5 SHL DUP2 MSTORE PUSH1 0x20 PUSH1 0x4 DUP3 ADD MSTORE PUSH1 0xB PUSH1 0x24 DUP3 ADD MSTORE PUSH11 0x3737BA16B096B0B236B4B7 PUSH1 0xA9 SHL PUSH1 0x44 DUP3 ADD MSTORE PUSH1 0x64 ADD PUSH2 0xBBD JUMP JUMPDEST PUSH1 0x7 SWAP4 SWAP1 SWAP4 SSTORE PUSH1 0x8 SWAP2 SWAP1 SWAP2 SSTORE PUSH1 0xA SSTORE PUSH1 0x9 SSTORE JUMP JUMPDEST PUSH1 0x0 PUSH2 0x3A97 DUP4 DUP4 PUSH1 0x40 MLOAD DUP1 PUSH1 0x40 ADD PUSH1 0x40 MSTORE DUP1 PUSH1 0x1A DUP2 MSTORE PUSH1 0x20 ADD PUSH32 0x536166654D6174683A206469766973696F6E206279207A65726F000000000000 DUP2 MSTORE POP PUSH2 0x3EA5 JUMP JUMPDEST SWAP1 POP JUMPDEST SWAP3 SWAP2 POP POP JUMP JUMPDEST PUSH1 0xC SLOAD PUSH1 0x40 MLOAD PUSH4 0x70A08231 PUSH1 0xE0 SHL DUP2 MSTORE ADDRESS PUSH1 0x4 DUP3 ADD MSTORE PUSH32 0x0 PUSH1 0x1 PUSH1 0x1 PUSH1 0xA0 SHL SUB AND SWAP1 PUSH4 0x70A08231 SWAP1 PUSH1 0x24 ADD PUSH1 0x20 PUSH1 0x40 MLOAD DUP1 DUP4 SUB DUP2 DUP7 DUP1 EXTCODESIZE ISZERO DUP1 ISZERO PUSH2 0x3B02 JUMPI PUSH1 0x0 DUP1 REVERT JUMPDEST POP GAS STATICCALL ISZERO DUP1 ISZERO PUSH2 0x3B16 JUMPI RETURNDATASIZE PUSH1 0x0 DUP1 RETURNDATACOPY RETURNDATASIZE PUSH1 0x0 REVERT JUMPDEST POP POP POP POP PUSH1 0x40 MLOAD RETURNDATASIZE PUSH1 0x1F NOT PUSH1 0x1F DUP3 ADD AND DUP3 ADD DUP1 PUSH1 0x40 MSTORE POP DUP2 ADD SWAP1 PUSH2 0x3B3A SWAP2 SWAP1 PUSH2 0x4B49 JUMP JUMPDEST GT PUSH2 0x3BAD JUMPI PUSH1 0x40 MLOAD PUSH3 0x461BCD PUSH1 0xE5 SHL DUP2 MSTORE PUSH1 0x20 PUSH1 0x4 DUP3 ADD MSTORE PUSH1 0x2B PUSH1 0x24 DUP3 ADD MSTORE PUSH32 0x4E6F7420656E6F756768204C494E4B202D2066696C6C20636F6E747261637420 PUSH1 0x44 DUP3 ADD MSTORE PUSH32 0x7769746820666175636574000000000000000000000000000000000000000000 PUSH1 0x64 DUP3 ADD MSTORE PUSH1 0x84 ADD PUSH2 0xBBD JUMP JUMPDEST PUSH1 0x0 PUSH2 0x3BBD PUSH1 0x1 SLOAD PUSH1 0xC SLOAD PUSH2 0x3EDC JUMP JUMPDEST PUSH1 0x2 DUP2 SWAP1 SSTORE PUSH1 0x0 SWAP1 DUP2 MSTORE PUSH1 0x1B PUSH1 0x20 SWAP1 DUP2 MSTORE PUSH1 0x40 DUP1 DUP4 KECCAK256 SWAP7 SWAP1 SWAP7 SSTORE PUSH1 0x1D DUP2 MSTORE DUP6 DUP3 KECCAK256 SWAP5 SWAP1 SWAP5 SSTORE PUSH1 0x1E SWAP1 SWAP4 MSTORE POP SWAP2 SWAP1 KECCAK256 DUP1 SLOAD PUSH1 0x1 PUSH1 0x1 PUSH1 0xA0 SHL SUB NOT AND PUSH1 0x1 PUSH1 0x1 PUSH1 0xA0 SHL SUB SWAP1 SWAP3 AND SWAP2 SWAP1 SWAP2 OR SWAP1 SSTORE JUMP JUMPDEST PUSH1 0x0 DUP1 PUSH2 0x3C17 DUP4 DUP6 PUSH2 0x5049 JUMP JUMPDEST SWAP1 POP DUP4 DUP2 LT ISZERO PUSH2 0x3A97 JUMPI PUSH1 0x40 MLOAD PUSH3 0x461BCD PUSH1 0xE5 SHL DUP2 MSTORE PUSH1 0x20 PUSH1 0x4 DUP3 ADD MSTORE PUSH1 0x1B PUSH1 0x24 DUP3 ADD MSTORE PUSH32 0x536166654D6174683A206164646974696F6E206F766572666C6F770000000000 PUSH1 0x44 DUP3 ADD MSTORE PUSH1 0x64 ADD PUSH2 0xBBD JUMP JUMPDEST PUSH1 0x0 DUP3 PUSH2 0x3C78 JUMPI POP PUSH1 0x0 PUSH2 0x3A9A JUMP JUMPDEST PUSH1 0x0 PUSH2 0x3C84 DUP4 DUP6 PUSH2 0x5075 JUMP JUMPDEST SWAP1 POP DUP3 PUSH2 0x3C91 DUP6 DUP4 PUSH2 0x5061 JUMP JUMPDEST EQ PUSH2 0x3A97 JUMPI PUSH1 0x40 MLOAD PUSH3 0x461BCD PUSH1 0xE5 SHL DUP2 MSTORE PUSH1 0x20 PUSH1 0x4 DUP3 ADD MSTORE PUSH1 0x21 PUSH1 0x24 DUP3 ADD MSTORE PUSH32 0x536166654D6174683A206D756C7469706C69636174696F6E206F766572666C6F PUSH1 0x44 DUP3 ADD MSTORE PUSH32 0x7700000000000000000000000000000000000000000000000000000000000000 PUSH1 0x64 DUP3 ADD MSTORE PUSH1 0x84 ADD PUSH2 0xBBD JUMP JUMPDEST PUSH1 0xC SLOAD PUSH1 0x40 MLOAD PUSH4 0x70A08231 PUSH1 0xE0 SHL DUP2 MSTORE ADDRESS PUSH1 0x4 DUP3 ADD MSTORE PUSH32 0x0 PUSH1 0x1 PUSH1 0x1 PUSH1 0xA0 SHL SUB AND SWAP1 PUSH4 0x70A08231 SWAP1 PUSH1 0x24 ADD PUSH1 0x20 PUSH1 0x40 MLOAD DUP1 DUP4 SUB DUP2 DUP7 DUP1 EXTCODESIZE ISZERO DUP1 ISZERO PUSH2 0x3D66 JUMPI PUSH1 0x0 DUP1 REVERT JUMPDEST POP GAS STATICCALL ISZERO DUP1 ISZERO PUSH2 0x3D7A JUMPI RETURNDATASIZE PUSH1 0x0 DUP1 RETURNDATACOPY RETURNDATASIZE PUSH1 0x0 REVERT JUMPDEST POP POP POP POP PUSH1 0x40 MLOAD RETURNDATASIZE PUSH1 0x1F NOT PUSH1 0x1F DUP3 ADD AND DUP3 ADD DUP1 PUSH1 0x40 MSTORE POP DUP2 ADD SWAP1 PUSH2 0x3D9E SWAP2 SWAP1 PUSH2 0x4B49 JUMP JUMPDEST GT PUSH2 0x3E11 JUMPI PUSH1 0x40 MLOAD PUSH3 0x461BCD PUSH1 0xE5 SHL DUP2 MSTORE PUSH1 0x20 PUSH1 0x4 DUP3 ADD MSTORE PUSH1 0x2B PUSH1 0x24 DUP3 ADD MSTORE PUSH32 0x4E6F7420656E6F756768204C494E4B202D2066696C6C20636F6E747261637420 PUSH1 0x44 DUP3 ADD MSTORE PUSH32 0x7769746820666175636574000000000000000000000000000000000000000000 PUSH1 0x64 DUP3 ADD MSTORE PUSH1 0x84 ADD PUSH2 0xBBD JUMP JUMPDEST PUSH1 0x0 PUSH2 0x3E21 PUSH1 0x1 SLOAD PUSH1 0xC SLOAD PUSH2 0x3EDC JUMP JUMPDEST PUSH1 0x2 DUP2 SWAP1 SSTORE PUSH1 0x0 SWAP1 DUP2 MSTORE PUSH1 0x1B PUSH1 0x20 MSTORE PUSH1 0x40 SWAP1 KECCAK256 SWAP2 SWAP1 SWAP2 SSTORE POP JUMP JUMPDEST PUSH1 0x0 PUSH2 0x3A97 DUP4 DUP4 PUSH1 0x40 MLOAD DUP1 PUSH1 0x40 ADD PUSH1 0x40 MSTORE DUP1 PUSH1 0x1E DUP2 MSTORE PUSH1 0x20 ADD PUSH32 0x536166654D6174683A207375627472616374696F6E206F766572666C6F770000 DUP2 MSTORE POP PUSH2 0x4066 JUMP JUMPDEST PUSH1 0x0 DUP3 DUP2 MSTORE PUSH1 0x1C PUSH1 0x20 SWAP1 DUP2 MSTORE PUSH1 0x40 DUP1 DUP4 KECCAK256 DUP5 SWAP1 SSTORE PUSH1 0x1B SWAP1 SWAP2 MSTORE SWAP1 KECCAK256 SLOAD PUSH2 0x3382 SWAP1 DUP3 SWAP1 DUP5 PUSH2 0x4097 JUMP JUMPDEST PUSH1 0x0 DUP2 DUP4 PUSH2 0x3EC6 JUMPI PUSH1 0x40 MLOAD PUSH3 0x461BCD PUSH1 0xE5 SHL DUP2 MSTORE PUSH1 0x4 ADD PUSH2 0xBBD SWAP2 SWAP1 PUSH2 0x4ECE JUMP JUMPDEST POP PUSH1 0x0 PUSH2 0x3ED3 DUP5 DUP7 PUSH2 0x5061 JUMP JUMPDEST SWAP6 SWAP5 POP POP POP POP POP JUMP JUMPDEST PUSH1 0x0 PUSH32 0x0 PUSH1 0x1 PUSH1 0x1 PUSH1 0xA0 SHL SUB AND PUSH4 0x4000AEA0 PUSH32 0x0 DUP5 DUP7 PUSH1 0x0 PUSH1 0x40 MLOAD PUSH1 0x20 ADD PUSH2 0x3F4C SWAP3 SWAP2 SWAP1 SWAP2 DUP3 MSTORE PUSH1 0x20 DUP3 ADD MSTORE PUSH1 0x40 ADD SWAP1 JUMP JUMPDEST PUSH1 0x40 MLOAD PUSH1 0x20 DUP2 DUP4 SUB SUB DUP2 MSTORE SWAP1 PUSH1 0x40 MSTORE PUSH1 0x40 MLOAD DUP5 PUSH4 0xFFFFFFFF AND PUSH1 0xE0 SHL DUP2 MSTORE PUSH1 0x4 ADD PUSH2 0x3F79 SWAP4 SWAP3 SWAP2 SWAP1 PUSH2 0x4D38 JUMP JUMPDEST PUSH1 0x20 PUSH1 0x40 MLOAD DUP1 DUP4 SUB DUP2 PUSH1 0x0 DUP8 DUP1 EXTCODESIZE ISZERO DUP1 ISZERO PUSH2 0x3F93 JUMPI PUSH1 0x0 DUP1 REVERT JUMPDEST POP GAS CALL ISZERO DUP1 ISZERO PUSH2 0x3FA7 JUMPI RETURNDATASIZE PUSH1 0x0 DUP1 RETURNDATACOPY RETURNDATASIZE PUSH1 0x0 REVERT JUMPDEST POP POP POP POP PUSH1 0x40 MLOAD RETURNDATASIZE PUSH1 0x1F NOT PUSH1 0x1F DUP3 ADD AND DUP3 ADD DUP1 PUSH1 0x40 MSTORE POP DUP2 ADD SWAP1 PUSH2 0x3FCB SWAP2 SWAP1 PUSH2 0x49BB JUMP JUMPDEST POP PUSH1 0x0 DUP4 DUP2 MSTORE PUSH1 0x20 DUP2 DUP2 MSTORE PUSH1 0x40 DUP1 DUP4 KECCAK256 SLOAD DUP2 MLOAD DUP1 DUP5 ADD DUP9 SWAP1 MSTORE DUP1 DUP4 ADD DUP6 SWAP1 MSTORE ADDRESS PUSH1 0x60 DUP3 ADD MSTORE PUSH1 0x80 DUP1 DUP3 ADD DUP4 SWAP1 MSTORE DUP4 MLOAD DUP1 DUP4 SUB SWAP1 SWAP2 ADD DUP2 MSTORE PUSH1 0xA0 SWAP1 SWAP2 ADD SWAP1 SWAP3 MSTORE DUP2 MLOAD SWAP2 DUP4 ADD SWAP2 SWAP1 SWAP2 KECCAK256 DUP7 DUP5 MSTORE SWAP3 SWAP1 SWAP2 MSTORE PUSH2 0x4025 SWAP1 PUSH1 0x1 PUSH2 0x5049 JUMP JUMPDEST PUSH1 0x0 DUP6 DUP2 MSTORE PUSH1 0x20 DUP2 DUP2 MSTORE PUSH1 0x40 SWAP2 DUP3 SWAP1 KECCAK256 SWAP3 SWAP1 SWAP3 SSTORE DUP1 MLOAD DUP1 DUP4 ADD DUP8 SWAP1 MSTORE DUP1 DUP3 ADD DUP5 SWAP1 MSTORE DUP2 MLOAD DUP1 DUP3 SUB DUP4 ADD DUP2 MSTORE PUSH1 0x60 SWAP1 SWAP2 ADD SWAP1 SWAP2 MSTORE DUP1 MLOAD SWAP2 ADD KECCAK256 JUMPDEST SWAP5 SWAP4 POP POP POP POP JUMP JUMPDEST PUSH1 0x0 DUP2 DUP5 DUP5 GT ISZERO PUSH2 0x408A JUMPI PUSH1 0x40 MLOAD PUSH3 0x461BCD PUSH1 0xE5 SHL DUP2 MSTORE PUSH1 0x4 ADD PUSH2 0xBBD SWAP2 SWAP1 PUSH2 0x4ECE JUMP JUMPDEST POP PUSH1 0x0 PUSH2 0x3ED3 DUP5 DUP7 PUSH2 0x5094 JUMP JUMPDEST PUSH1 0x0 DUP3 DUP2 MSTORE PUSH1 0x13 PUSH1 0x20 SWAP1 DUP2 MSTORE PUSH1 0x40 DUP1 DUP4 KECCAK256 PUSH1 0x14 SWAP1 SWAP3 MSTORE SWAP1 SWAP2 KECCAK256 PUSH1 0x1 PUSH1 0xB DUP4 ADD SLOAD PUSH1 0xFF AND PUSH1 0x1 DUP2 GT ISZERO PUSH2 0x40CB JUMPI PUSH2 0x40CB PUSH2 0x5183 JUMP JUMPDEST EQ ISZERO PUSH2 0x41FF JUMPI PUSH1 0xA DUP3 ADD SLOAD PUSH2 0x40E1 SWAP1 DUP7 SWAP1 PUSH2 0x45C4 JUMP JUMPDEST PUSH1 0x9 DUP4 ADD DUP1 SLOAD PUSH1 0xFF PUSH1 0xA0 SHL NOT AND PUSH21 0x20000000000000000000000000000000000000000 OR SWAP1 SSTORE PUSH1 0xA DUP4 ADD DUP1 SLOAD SWAP2 SWAP7 POP SWAP1 DUP7 SWAP1 DUP2 LT PUSH2 0x4121 JUMPI PUSH2 0x4121 PUSH2 0x5199 JUMP JUMPDEST PUSH1 0x0 SWAP2 DUP3 MSTORE PUSH1 0x20 SWAP1 SWAP2 KECCAK256 PUSH1 0x3 SWAP1 SWAP2 MUL ADD SLOAD PUSH1 0x8 DUP4 ADD DUP1 SLOAD PUSH1 0x1 PUSH1 0x1 PUSH1 0xA0 SHL SUB NOT AND PUSH1 0x1 PUSH1 0x1 PUSH1 0xA0 SHL SUB SWAP1 SWAP3 AND SWAP2 SWAP1 SWAP2 OR SWAP1 SSTORE PUSH1 0xA DUP3 ADD DUP1 SLOAD DUP6 SWAP2 PUSH32 0xC95B83A8055606BD947EE12D6A33519292D859712D214EFD6C587938A891E24B SWAP2 DUP9 SWAP1 DUP2 LT PUSH2 0x418D JUMPI PUSH2 0x418D PUSH2 0x5199 JUMP JUMPDEST PUSH1 0x0 SWAP2 DUP3 MSTORE PUSH1 0x20 SWAP2 DUP3 SWAP1 KECCAK256 PUSH1 0x3 SWAP1 SWAP2 MUL ADD SLOAD PUSH1 0x40 DUP1 MLOAD PUSH1 0x1 PUSH1 0x1 PUSH1 0xA0 SHL SUB SWAP1 SWAP3 AND DUP3 MSTORE TIMESTAMP SWAP3 DUP3 ADD SWAP3 SWAP1 SWAP3 MSTORE ADD PUSH1 0x40 MLOAD DUP1 SWAP2 SUB SWAP1 LOG2 PUSH2 0x41FA DUP3 PUSH1 0xA ADD DUP7 DUP2 SLOAD DUP2 LT PUSH2 0x41D9 JUMPI PUSH2 0x41D9 PUSH2 0x5199 JUMP JUMPDEST PUSH1 0x0 SWAP2 DUP3 MSTORE PUSH1 0x20 SWAP1 SWAP2 KECCAK256 PUSH1 0x3 SWAP1 SWAP2 MUL ADD SLOAD PUSH1 0x1 PUSH1 0x1 PUSH1 0xA0 SHL SUB AND DUP6 DUP6 PUSH2 0x2E93 JUMP JUMPDEST PUSH2 0x10BD JUMP JUMPDEST PUSH1 0x2 DUP3 ADD SLOAD PUSH2 0x420F SWAP1 DUP7 SWAP1 PUSH2 0x45C4 JUMP JUMPDEST PUSH1 0x0 DUP5 DUP2 MSTORE PUSH1 0x1E PUSH1 0x20 SWAP1 DUP2 MSTORE PUSH1 0x40 DUP1 DUP4 KECCAK256 DUP1 SLOAD PUSH1 0x8 DUP9 ADD DUP1 SLOAD PUSH1 0x1 PUSH1 0x1 PUSH1 0xA0 SHL SUB NOT AND PUSH1 0x1 PUSH1 0x1 PUSH1 0xA0 SHL SUB SWAP3 DUP4 AND OR SWAP1 SSTORE SWAP1 SLOAD PUSH1 0x1D DUP5 MSTORE SWAP4 DUP3 SWAP1 KECCAK256 SLOAD DUP3 MLOAD SWAP1 DUP2 MSTORE SWAP3 DUP4 ADD DUP6 SWAP1 MSTORE TIMESTAMP DUP4 DUP4 ADD MSTORE SWAP1 MLOAD SWAP4 SWAP9 POP DUP8 SWAP4 SWAP3 AND SWAP2 PUSH32 0x50E6D276E04BB48DE52A4C1FCEF42F86470EE30C5461DA3E6EDB4EBA3A15C468 SWAP2 PUSH1 0x60 SWAP1 DUP3 SWAP1 SUB ADD SWAP1 LOG3 PUSH1 0x0 DUP4 DUP2 MSTORE PUSH1 0x1D PUSH1 0x20 MSTORE PUSH1 0x40 SWAP1 KECCAK256 SLOAD DUP6 EQ ISZERO PUSH2 0x4308 JUMPI PUSH1 0x9 DUP3 ADD DUP1 SLOAD PUSH1 0xFF PUSH1 0xA0 SHL NOT AND PUSH21 0x20000000000000000000000000000000000000000 OR SWAP1 SSTORE PUSH1 0x0 DUP4 DUP2 MSTORE PUSH1 0x1E PUSH1 0x20 MSTORE PUSH1 0x40 SWAP1 KECCAK256 DUP1 SLOAD PUSH1 0x8 DUP5 ADD DUP1 SLOAD PUSH1 0x1 PUSH1 0x1 PUSH1 0xA0 SHL SUB NOT AND PUSH1 0x1 PUSH1 0x1 PUSH1 0xA0 SHL SUB SWAP3 DUP4 AND OR SWAP1 SSTORE SWAP1 SLOAD PUSH2 0x41FA SWAP2 AND DUP6 DUP6 PUSH2 0x2E93 JUMP JUMPDEST PUSH1 0x9 DUP3 ADD DUP1 SLOAD PUSH1 0xFF PUSH1 0xA0 SHL NOT AND PUSH21 0x30000000000000000000000000000000000000000 OR SWAP1 SSTORE PUSH1 0x7 SLOAD PUSH1 0x4 DUP4 ADD SLOAD PUSH1 0x0 SWAP2 PUSH2 0x434A SWAP2 PUSH1 0x64 SWAP2 PUSH2 0x1040 SWAP2 SWAP1 PUSH2 0x3C69 JUMP JUMPDEST PUSH2 0x436A PUSH1 0x64 PUSH2 0x1040 DUP7 PUSH1 0x7 ADD SLOAD DUP8 PUSH1 0x4 ADD SLOAD PUSH2 0x3C69 SWAP1 SWAP2 SWAP1 PUSH4 0xFFFFFFFF AND JUMP JUMPDEST PUSH2 0x4374 SWAP2 SWAP1 PUSH2 0x5094 JUMP JUMPDEST PUSH1 0x6 DUP5 DUP2 ADD SLOAD PUSH1 0x3 DUP1 SLOAD PUSH1 0x0 SWAP1 DUP2 MSTORE PUSH1 0x13 PUSH1 0x20 DUP2 DUP2 MSTORE PUSH1 0x40 DUP1 DUP5 KECCAK256 SWAP1 SWAP7 ADD SWAP5 SWAP1 SWAP5 SSTORE DUP3 SLOAD DUP1 DUP4 MSTORE DUP6 DUP4 KECCAK256 SWAP1 DUP2 SSTORE DUP4 DUP11 ADD SLOAD SWAP1 DUP5 ADD SSTORE PUSH1 0x1 DUP1 DUP11 ADD SLOAD DUP5 SLOAD DUP5 MSTORE DUP7 DUP5 KECCAK256 DUP3 ADD SSTORE DUP4 SLOAD DUP4 MSTORE DUP6 DUP4 KECCAK256 PUSH1 0x4 ADD DUP8 SWAP1 SSTORE DUP9 DUP2 ADD SLOAD DUP5 SLOAD DUP5 MSTORE PUSH1 0x14 DUP1 DUP8 MSTORE DUP8 DUP6 KECCAK256 DUP4 ADD SWAP2 SWAP1 SWAP2 SSTORE PUSH1 0x7 DUP1 DUP13 ADD SLOAD DUP7 SLOAD DUP7 MSTORE DUP5 DUP9 MSTORE DUP9 DUP7 KECCAK256 SWAP1 SWAP2 ADD SSTORE PUSH1 0x2 DUP11 DUP2 ADD SLOAD DUP7 SLOAD DUP7 MSTORE SWAP2 DUP8 MSTORE DUP8 DUP6 KECCAK256 DUP2 ADD SWAP2 SWAP1 SWAP2 SSTORE DUP5 SLOAD DUP1 DUP6 MSTORE DUP8 DUP6 KECCAK256 SWAP1 DUP2 SSTORE DUP11 DUP7 ADD SLOAD SWAP1 DUP7 ADD SSTORE DUP1 DUP12 ADD SLOAD DUP6 SLOAD DUP6 MSTORE SWAP3 SWAP1 SWAP6 MSTORE DUP6 DUP4 KECCAK256 SWAP1 SWAP5 ADD SSTORE DUP2 SLOAD DUP2 MSTORE DUP4 DUP2 KECCAK256 PUSH1 0x9 SWAP1 DUP2 ADD DUP1 SLOAD PUSH1 0xFF PUSH1 0xA0 SHL NOT AND SWAP1 SSTORE DUP1 DUP10 ADD SLOAD DUP4 SLOAD DUP4 MSTORE DUP6 DUP4 KECCAK256 SWAP1 SWAP2 ADD DUP1 SLOAD PUSH1 0x1 PUSH1 0x1 PUSH1 0xA0 SHL SUB NOT AND PUSH1 0x1 PUSH1 0x1 PUSH1 0xA0 SHL SUB SWAP1 SWAP3 AND SWAP2 SWAP1 SWAP2 OR SWAP1 SSTORE PUSH1 0xB DUP1 DUP10 ADD SLOAD SWAP3 SLOAD DUP3 MSTORE SWAP4 SWAP1 KECCAK256 SWAP1 SWAP3 ADD DUP1 SLOAD SWAP4 SWAP5 POP PUSH1 0xFF SWAP1 SWAP3 AND SWAP3 PUSH1 0xFF NOT AND SWAP1 DUP4 DUP2 DUP2 GT ISZERO PUSH2 0x449F JUMPI PUSH2 0x449F PUSH2 0x5183 JUMP JUMPDEST MUL OR SWAP1 SSTORE POP PUSH1 0x5 DUP1 DUP5 ADD SLOAD PUSH1 0x3 DUP1 SLOAD PUSH1 0x0 SWAP1 DUP2 MSTORE PUSH1 0x13 PUSH1 0x20 SWAP1 DUP2 MSTORE PUSH1 0x40 DUP1 DUP4 KECCAK256 SWAP1 SWAP6 ADD SWAP4 SWAP1 SWAP4 SSTORE PUSH1 0x9 DUP1 DUP9 ADD SLOAD PUSH1 0x1 PUSH1 0x1 PUSH1 0xA0 SHL SUB SWAP1 DUP2 AND DUP4 MSTORE DUP5 DUP1 MSTORE DUP6 DUP4 KECCAK256 SWAP4 SLOAD DUP5 SLOAD PUSH1 0x1 DUP2 ADD DUP7 SSTORE SWAP5 DUP5 MSTORE DUP6 DUP5 KECCAK256 SWAP1 SWAP5 ADD SWAP4 SWAP1 SWAP4 SSTORE PUSH1 0xE SLOAD SWAP1 SWAP3 AND DUP2 MSTORE PUSH1 0x10 SWAP1 SWAP3 MSTORE SWAP2 DUP2 KECCAK256 SWAP1 SWAP2 ADD DUP1 SLOAD DUP4 SWAP3 SWAP1 PUSH2 0x4519 SWAP1 DUP5 SWAP1 PUSH2 0x5049 JUMP JUMPDEST SWAP1 SWAP2 SSTORE POP POP PUSH1 0x9 DUP4 ADD SLOAD PUSH1 0x1 PUSH1 0x1 PUSH1 0xA0 SHL SUB AND PUSH1 0x0 DUP2 DUP2 MSTORE PUSH1 0x10 PUSH1 0x20 SWAP1 DUP2 MSTORE PUSH1 0x40 SWAP2 DUP3 SWAP1 KECCAK256 PUSH1 0x7 ADD SLOAD PUSH1 0x3 DUP1 SLOAD SWAP1 DUP9 ADD SLOAD PUSH1 0x1 DUP1 DUP11 ADD SLOAD PUSH1 0x2 DUP12 ADD SLOAD SWAP2 DUP11 ADD SLOAD DUP8 MLOAD SWAP4 DUP5 MSTORE SWAP6 DUP4 ADD MSTORE SWAP5 DUP2 ADD DUP8 SWAP1 MSTORE PUSH1 0x60 DUP2 ADD SWAP5 SWAP1 SWAP5 MSTORE PUSH1 0x80 DUP5 ADD SWAP3 SWAP1 SWAP3 MSTORE SWAP3 SWAP2 PUSH32 0xE6E4222B2C2DDB82EB8817D7BD8EC6FC5EB5F915B4D7B36C260AA77BA04DA7DB SWAP1 PUSH1 0xA0 ADD PUSH1 0x40 MLOAD DUP1 SWAP2 SUB SWAP1 LOG4 PUSH1 0x3 DUP1 SLOAD SWAP1 PUSH1 0x0 PUSH2 0x45B7 DUP4 PUSH2 0x5112 JUMP JUMPDEST SWAP2 SWAP1 POP SSTORE POP POP POP POP POP POP POP JUMP JUMPDEST PUSH1 0x0 PUSH2 0x3A97 DUP4 DUP4 PUSH1 0x40 MLOAD DUP1 PUSH1 0x40 ADD PUSH1 0x40 MSTORE DUP1 PUSH1 0x18 DUP2 MSTORE PUSH1 0x20 ADD PUSH32 0x536166654D6174683A206D6F64756C6F206279207A65726F0000000000000000 DUP2 MSTORE POP PUSH1 0x0 DUP2 DUP4 PUSH2 0x4622 JUMPI PUSH1 0x40 MLOAD PUSH3 0x461BCD PUSH1 0xE5 SHL DUP2 MSTORE PUSH1 0x4 ADD PUSH2 0xBBD SWAP2 SWAP1 PUSH2 0x4ECE JUMP JUMPDEST POP PUSH2 0x405E DUP4 DUP6 PUSH2 0x512D JUMP JUMPDEST DUP3 DUP1 SLOAD DUP3 DUP3 SSTORE SWAP1 PUSH1 0x0 MSTORE PUSH1 0x20 PUSH1 0x0 KECCAK256 SWAP1 DUP2 ADD SWAP3 DUP3 ISZERO PUSH2 0x4668 JUMPI SWAP2 PUSH1 0x20 MUL DUP3 ADD JUMPDEST DUP3 DUP2 GT ISZERO PUSH2 0x4668 JUMPI DUP3 MLOAD DUP3 SSTORE SWAP2 PUSH1 0x20 ADD SWAP2 SWAP1 PUSH1 0x1 ADD SWAP1 PUSH2 0x464D JUMP JUMPDEST POP PUSH2 0x4674 SWAP3 SWAP2 POP PUSH2 0x46EB JUMP JUMPDEST POP SWAP1 JUMP JUMPDEST DUP3 DUP1 SLOAD PUSH2 0x4684 SWAP1 PUSH2 0x50D7 JUMP JUMPDEST SWAP1 PUSH1 0x0 MSTORE PUSH1 0x20 PUSH1 0x0 KECCAK256 SWAP1 PUSH1 0x1F ADD PUSH1 0x20 SWAP1 DIV DUP2 ADD SWAP3 DUP3 PUSH2 0x46A6 JUMPI PUSH1 0x0 DUP6 SSTORE PUSH2 0x4668 JUMP JUMPDEST DUP3 PUSH1 0x1F LT PUSH2 0x46BF JUMPI DUP1 MLOAD PUSH1 0xFF NOT AND DUP4 DUP1 ADD OR DUP6 SSTORE PUSH2 0x4668 JUMP JUMPDEST DUP3 DUP1 ADD PUSH1 0x1 ADD DUP6 SSTORE DUP3 ISZERO PUSH2 0x4668 JUMPI SWAP2 DUP3 ADD DUP3 DUP2 GT ISZERO PUSH2 0x4668 JUMPI DUP3 MLOAD DUP3 SSTORE SWAP2 PUSH1 0x20 ADD SWAP2 SWAP1 PUSH1 0x1 ADD SWAP1 PUSH2 0x464D JUMP JUMPDEST JUMPDEST DUP1 DUP3 GT ISZERO PUSH2 0x4674 JUMPI PUSH1 0x0 DUP2 SSTORE PUSH1 0x1 ADD PUSH2 0x46EC JUMP JUMPDEST DUP1 CALLDATALOAD PUSH1 0x1 PUSH1 0x1 PUSH1 0xA0 SHL SUB DUP2 AND DUP2 EQ PUSH2 0x4717 JUMPI PUSH1 0x0 DUP1 REVERT JUMPDEST SWAP2 SWAP1 POP JUMP JUMPDEST PUSH1 0x0 DUP3 PUSH1 0x1F DUP4 ADD SLT PUSH2 0x472D JUMPI PUSH1 0x0 DUP1 REVERT JUMPDEST DUP2 CALLDATALOAD PUSH8 0xFFFFFFFFFFFFFFFF DUP2 GT ISZERO PUSH2 0x4747 JUMPI PUSH2 0x4747 PUSH2 0x51AF JUMP JUMPDEST PUSH2 0x475A PUSH1 0x1F DUP3 ADD PUSH1 0x1F NOT AND PUSH1 0x20 ADD PUSH2 0x5018 JUMP JUMPDEST DUP2 DUP2 MSTORE DUP5 PUSH1 0x20 DUP4 DUP7 ADD ADD GT ISZERO PUSH2 0x476F JUMPI PUSH1 0x0 DUP1 REVERT JUMPDEST DUP2 PUSH1 0x20 DUP6 ADD PUSH1 0x20 DUP4 ADD CALLDATACOPY PUSH1 0x0 SWAP2 DUP2 ADD PUSH1 0x20 ADD SWAP2 SWAP1 SWAP2 MSTORE SWAP4 SWAP3 POP POP POP JUMP JUMPDEST PUSH1 0x0 PUSH1 0x20 DUP3 DUP5 SUB SLT ISZERO PUSH2 0x479E JUMPI PUSH1 0x0 DUP1 REVERT JUMPDEST PUSH2 0x3A97 DUP3 PUSH2 0x4700 JUMP JUMPDEST PUSH1 0x0 DUP1 PUSH1 0x0 DUP1 PUSH1 0x0 DUP1 PUSH1 0x0 DUP1 PUSH1 0x0 PUSH2 0x120 DUP11 DUP13 SUB SLT ISZERO PUSH2 0x47C6 JUMPI PUSH1 0x0 DUP1 REVERT JUMPDEST PUSH2 0x47CF DUP11 PUSH2 0x4700 JUMP JUMPDEST SWAP9 POP PUSH2 0x47DD PUSH1 0x20 DUP12 ADD PUSH2 0x4700 JUMP JUMPDEST SWAP8 POP PUSH1 0x40 DUP11 ADD CALLDATALOAD PUSH8 0xFFFFFFFFFFFFFFFF DUP1 DUP3 GT ISZERO PUSH2 0x47FA JUMPI PUSH1 0x0 DUP1 REVERT JUMPDEST PUSH2 0x4806 DUP14 DUP4 DUP15 ADD PUSH2 0x471C JUMP JUMPDEST SWAP9 POP PUSH1 0x60 DUP13 ADD CALLDATALOAD SWAP2 POP DUP1 DUP3 GT ISZERO PUSH2 0x481C JUMPI PUSH1 0x0 DUP1 REVERT JUMPDEST PUSH2 0x4828 DUP14 DUP4 DUP15 ADD PUSH2 0x471C JUMP JUMPDEST SWAP8 POP PUSH1 0x80 DUP13 ADD CALLDATALOAD SWAP7 POP PUSH1 0xA0 DUP13 ADD CALLDATALOAD SWAP2 POP DUP1 DUP3 GT ISZERO PUSH2 0x4845 JUMPI PUSH1 0x0 DUP1 REVERT JUMPDEST PUSH2 0x4851 DUP14 DUP4 DUP15 ADD PUSH2 0x471C JUMP JUMPDEST SWAP6 POP PUSH1 0xC0 DUP13 ADD CALLDATALOAD SWAP2 POP DUP1 DUP3 GT ISZERO PUSH2 0x4867 JUMPI PUSH1 0x0 DUP1 REVERT JUMPDEST POP PUSH2 0x4874 DUP13 DUP3 DUP14 ADD PUSH2 0x471C JUMP JUMPDEST SWAP4 POP POP PUSH1 0xE0 DUP11 ADD CALLDATALOAD SWAP2 POP PUSH2 0x100 DUP11 ADD CALLDATALOAD SWAP1 POP SWAP3 SWAP6 SWAP9 POP SWAP3 SWAP6 SWAP9 POP SWAP3 SWAP6 SWAP9 JUMP JUMPDEST PUSH1 0x0 DUP1 PUSH1 0x0 PUSH1 0x60 DUP5 DUP7 SUB SLT ISZERO PUSH2 0x48A8 JUMPI PUSH1 0x0 DUP1 REVERT JUMPDEST PUSH2 0x48B1 DUP5 PUSH2 0x4700 JUMP JUMPDEST SWAP6 PUSH1 0x20 DUP6 ADD CALLDATALOAD SWAP6 POP PUSH1 0x40 SWAP1 SWAP5 ADD CALLDATALOAD SWAP4 SWAP3 POP POP POP JUMP JUMPDEST PUSH1 0x0 DUP1 PUSH1 0x0 PUSH1 0x60 DUP5 DUP7 SUB SLT ISZERO PUSH2 0x48DB JUMPI PUSH1 0x0 DUP1 REVERT JUMPDEST DUP4 CALLDATALOAD PUSH8 0xFFFFFFFFFFFFFFFF DUP1 DUP3 GT ISZERO PUSH2 0x48F3 JUMPI PUSH1 0x0 DUP1 REVERT JUMPDEST DUP2 DUP7 ADD SWAP2 POP DUP7 PUSH1 0x1F DUP4 ADD SLT PUSH2 0x4907 JUMPI PUSH1 0x0 DUP1 REVERT JUMPDEST DUP2 CALLDATALOAD PUSH1 0x20 DUP3 DUP3 GT ISZERO PUSH2 0x491B JUMPI PUSH2 0x491B PUSH2 0x51AF JUMP JUMPDEST DUP2 PUSH1 0x5 SHL PUSH2 0x492A DUP3 DUP3 ADD PUSH2 0x5018 JUMP JUMPDEST DUP4 DUP2 MSTORE DUP3 DUP2 ADD SWAP1 DUP7 DUP5 ADD DUP4 DUP9 ADD DUP6 ADD DUP14 LT ISZERO PUSH2 0x4945 JUMPI PUSH1 0x0 DUP1 REVERT JUMPDEST PUSH1 0x0 SWAP8 POP JUMPDEST DUP6 DUP9 LT ISZERO PUSH2 0x4968 JUMPI DUP1 CALLDATALOAD DUP4 MSTORE PUSH1 0x1 SWAP8 SWAP1 SWAP8 ADD SWAP7 SWAP2 DUP5 ADD SWAP2 DUP5 ADD PUSH2 0x494A JUMP JUMPDEST POP SWAP9 POP POP POP DUP8 ADD CALLDATALOAD SWAP5 POP POP PUSH1 0x40 DUP7 ADD CALLDATALOAD SWAP2 POP DUP1 DUP3 GT ISZERO PUSH2 0x4987 JUMPI PUSH1 0x0 DUP1 REVERT JUMPDEST POP PUSH2 0x4994 DUP7 DUP3 DUP8 ADD PUSH2 0x471C JUMP JUMPDEST SWAP2 POP POP SWAP3 POP SWAP3 POP SWAP3 JUMP JUMPDEST PUSH1 0x0 PUSH1 0x20 DUP3 DUP5 SUB SLT ISZERO PUSH2 0x49B0 JUMPI PUSH1 0x0 DUP1 REVERT JUMPDEST DUP2 CALLDATALOAD PUSH2 0x3A97 DUP2 PUSH2 0x51C5 JUMP JUMPDEST PUSH1 0x0 PUSH1 0x20 DUP3 DUP5 SUB SLT ISZERO PUSH2 0x49CD JUMPI PUSH1 0x0 DUP1 REVERT JUMPDEST DUP2 MLOAD PUSH2 0x3A97 DUP2 PUSH2 0x51C5 JUMP JUMPDEST PUSH1 0x0 PUSH1 0x20 DUP3 DUP5 SUB SLT ISZERO PUSH2 0x49EA JUMPI PUSH1 0x0 DUP1 REVERT JUMPDEST POP CALLDATALOAD SWAP2 SWAP1 POP JUMP JUMPDEST PUSH1 0x0 DUP1 PUSH1 0x40 DUP4 DUP6 SUB SLT ISZERO PUSH2 0x4A04 JUMPI PUSH1 0x0 DUP1 REVERT JUMPDEST POP POP DUP1 CALLDATALOAD SWAP3 PUSH1 0x20 SWAP1 SWAP2 ADD CALLDATALOAD SWAP2 POP JUMP JUMPDEST PUSH1 0x0 DUP1 PUSH1 0x20 DUP4 DUP6 SUB SLT ISZERO PUSH2 0x4A26 JUMPI PUSH1 0x0 DUP1 REVERT JUMPDEST DUP3 CALLDATALOAD PUSH8 0xFFFFFFFFFFFFFFFF DUP1 DUP3 GT ISZERO PUSH2 0x4A3E JUMPI PUSH1 0x0 DUP1 REVERT JUMPDEST DUP2 DUP6 ADD SWAP2 POP DUP6 PUSH1 0x1F DUP4 ADD SLT PUSH2 0x4A52 JUMPI PUSH1 0x0 DUP1 REVERT JUMPDEST DUP2 CALLDATALOAD DUP2 DUP2 GT ISZERO PUSH2 0x4A61 JUMPI PUSH1 0x0 DUP1 REVERT JUMPDEST DUP7 PUSH1 0x20 DUP3 DUP6 ADD ADD GT ISZERO PUSH2 0x4A73 JUMPI PUSH1 0x0 DUP1 REVERT JUMPDEST PUSH1 0x20 SWAP3 SWAP1 SWAP3 ADD SWAP7 SWAP2 SWAP6 POP SWAP1 SWAP4 POP POP POP POP JUMP JUMPDEST PUSH1 0x0 PUSH1 0x20 DUP3 DUP5 SUB SLT ISZERO PUSH2 0x4A97 JUMPI PUSH1 0x0 DUP1 REVERT JUMPDEST DUP2 CALLDATALOAD PUSH8 0xFFFFFFFFFFFFFFFF DUP2 GT ISZERO PUSH2 0x4AAE JUMPI PUSH1 0x0 DUP1 REVERT JUMPDEST PUSH2 0x405E DUP5 DUP3 DUP6 ADD PUSH2 0x471C JUMP JUMPDEST PUSH1 0x0 DUP1 PUSH1 0x0 DUP1 PUSH1 0x0 PUSH1 0xA0 DUP7 DUP9 SUB SLT ISZERO PUSH2 0x4AD2 JUMPI PUSH1 0x0 DUP1 REVERT JUMPDEST DUP6 CALLDATALOAD PUSH8 0xFFFFFFFFFFFFFFFF DUP1 DUP3 GT ISZERO PUSH2 0x4AEA JUMPI PUSH1 0x0 DUP1 REVERT JUMPDEST PUSH2 0x4AF6 DUP10 DUP4 DUP11 ADD PUSH2 0x471C JUMP JUMPDEST SWAP7 POP PUSH1 0x20 DUP9 ADD CALLDATALOAD SWAP2 POP DUP1 DUP3 GT ISZERO PUSH2 0x4B0C JUMPI PUSH1 0x0 DUP1 REVERT JUMPDEST POP PUSH2 0x4B19 DUP9 DUP3 DUP10 ADD PUSH2 0x471C JUMP JUMPDEST SWAP5 POP POP PUSH1 0x40 DUP7 ADD CALLDATALOAD PUSH2 0x4B2A DUP2 PUSH2 0x51C5 JUMP JUMPDEST SWAP3 POP PUSH2 0x4B38 PUSH1 0x60 DUP8 ADD PUSH2 0x4700 JUMP JUMPDEST SWAP5 SWAP8 SWAP4 SWAP7 POP SWAP2 SWAP5 PUSH1 0x80 ADD CALLDATALOAD SWAP3 SWAP2 POP POP JUMP JUMPDEST PUSH1 0x0 PUSH1 0x20 DUP3 DUP5 SUB SLT ISZERO PUSH2 0x4B5B JUMPI PUSH1 0x0 DUP1 REVERT JUMPDEST POP MLOAD SWAP2 SWAP1 POP JUMP JUMPDEST PUSH1 0x0 DUP1 PUSH1 0x40 DUP4 DUP6 SUB SLT ISZERO PUSH2 0x4B75 JUMPI PUSH1 0x0 DUP1 REVERT JUMPDEST DUP3 CALLDATALOAD SWAP2 POP PUSH2 0x4B85 PUSH1 0x20 DUP5 ADD PUSH2 0x4700 JUMP JUMPDEST SWAP1 POP SWAP3 POP SWAP3 SWAP1 POP JUMP JUMPDEST PUSH1 0x0 DUP1 PUSH1 0x0 PUSH1 0x60 DUP5 DUP7 SUB SLT ISZERO PUSH2 0x4BA3 JUMPI PUSH1 0x0 DUP1 REVERT JUMPDEST DUP4 CALLDATALOAD SWAP3 POP PUSH2 0x4BB3 PUSH1 0x20 DUP6 ADD PUSH2 0x4700 JUMP JUMPDEST SWAP2 POP PUSH2 0x4BC1 PUSH1 0x40 DUP6 ADD PUSH2 0x4700 JUMP JUMPDEST SWAP1 POP SWAP3 POP SWAP3 POP SWAP3 JUMP JUMPDEST PUSH1 0x0 DUP1 PUSH1 0x0 DUP1 PUSH1 0x80 DUP6 DUP8 SUB SLT ISZERO PUSH2 0x4BE0 JUMPI PUSH1 0x0 DUP1 REVERT JUMPDEST POP POP DUP3 CALLDATALOAD SWAP5 PUSH1 0x20 DUP5 ADD CALLDATALOAD SWAP5 POP PUSH1 0x40 DUP5 ADD CALLDATALOAD SWAP4 PUSH1 0x60 ADD CALLDATALOAD SWAP3 POP SWAP1 POP JUMP JUMPDEST PUSH1 0x0 DUP1 PUSH1 0x0 DUP1 PUSH1 0x0 DUP1 PUSH1 0x0 DUP1 PUSH1 0x0 DUP1 PUSH2 0x140 DUP12 DUP14 SUB SLT ISZERO PUSH2 0x4C1C JUMPI PUSH1 0x0 DUP1 REVERT JUMPDEST DUP11 CALLDATALOAD SWAP10 POP PUSH1 0x20 DUP12 ADD CALLDATALOAD SWAP9 POP PUSH1 0x40 DUP12 ADD CALLDATALOAD SWAP8 POP PUSH1 0x60 DUP12 ADD CALLDATALOAD SWAP7 POP PUSH1 0x80 DUP12 ADD CALLDATALOAD SWAP6 POP PUSH1 0xA0 DUP12 ADD CALLDATALOAD SWAP5 POP PUSH1 0xC0 DUP12 ADD CALLDATALOAD SWAP4 POP PUSH1 0xE0 DUP12 ADD CALLDATALOAD SWAP3 POP PUSH2 0x100 DUP12 ADD CALLDATALOAD SWAP2 POP PUSH2 0x120 DUP12 ADD CALLDATALOAD PUSH1 0x2 DUP2 LT PUSH2 0x4C6C JUMPI PUSH1 0x0 DUP1 REVERT JUMPDEST DUP1 SWAP2 POP POP SWAP3 SWAP6 SWAP9 SWAP12 SWAP2 SWAP5 SWAP8 SWAP11 POP SWAP3 SWAP6 SWAP9 POP JUMP JUMPDEST PUSH1 0x0 DUP2 MLOAD DUP1 DUP5 MSTORE PUSH1 0x20 DUP1 DUP6 ADD SWAP5 POP DUP1 DUP5 ADD PUSH1 0x0 JUMPDEST DUP4 DUP2 LT ISZERO PUSH2 0x4CAF JUMPI DUP2 MLOAD DUP8 MSTORE SWAP6 DUP3 ADD SWAP6 SWAP1 DUP3 ADD SWAP1 PUSH1 0x1 ADD PUSH2 0x4C93 JUMP JUMPDEST POP SWAP5 SWAP6 SWAP5 POP POP POP POP POP JUMP JUMPDEST PUSH1 0x0 DUP2 MLOAD DUP1 DUP5 MSTORE PUSH2 0x4CD2 DUP2 PUSH1 0x20 DUP7 ADD PUSH1 0x20 DUP7 ADD PUSH2 0x50AB JUMP JUMPDEST PUSH1 0x1F ADD PUSH1 0x1F NOT AND SWAP3 SWAP1 SWAP3 ADD PUSH1 0x20 ADD SWAP3 SWAP2 POP POP JUMP JUMPDEST PUSH1 0x0 DUP3 MLOAD PUSH2 0x4CF8 DUP2 DUP5 PUSH1 0x20 DUP8 ADD PUSH2 0x50AB JUMP JUMPDEST SWAP2 SWAP1 SWAP2 ADD SWAP3 SWAP2 POP POP JUMP JUMPDEST PUSH1 0x0 PUSH1 0x1 PUSH1 0x1 PUSH1 0xA0 SHL SUB DUP1 DUP7 AND DUP4 MSTORE PUSH1 0x60 PUSH1 0x20 DUP5 ADD MSTORE PUSH2 0x4D25 PUSH1 0x60 DUP5 ADD DUP7 PUSH2 0x4CBA JUMP JUMPDEST SWAP2 POP DUP1 DUP5 AND PUSH1 0x40 DUP5 ADD MSTORE POP SWAP5 SWAP4 POP POP POP POP JUMP JUMPDEST PUSH1 0x1 PUSH1 0x1 PUSH1 0xA0 SHL SUB DUP5 AND DUP2 MSTORE DUP3 PUSH1 0x20 DUP3 ADD MSTORE PUSH1 0x60 PUSH1 0x40 DUP3 ADD MSTORE PUSH1 0x0 PUSH2 0x3ED3 PUSH1 0x60 DUP4 ADD DUP5 PUSH2 0x4CBA JUMP JUMPDEST PUSH1 0x20 DUP2 MSTORE PUSH1 0x0 PUSH2 0x3A97 PUSH1 0x20 DUP4 ADD DUP5 PUSH2 0x4C7F JUMP JUMPDEST PUSH1 0x40 DUP2 MSTORE PUSH1 0x0 PUSH2 0x4D86 PUSH1 0x40 DUP4 ADD DUP6 PUSH2 0x4C7F JUMP JUMPDEST DUP3 DUP2 SUB PUSH1 0x20 DUP5 DUP2 ADD SWAP2 SWAP1 SWAP2 MSTORE DUP5 MLOAD DUP1 DUP4 MSTORE DUP6 DUP3 ADD SWAP3 DUP3 ADD SWAP1 PUSH1 0x0 JUMPDEST DUP2 DUP2 LT ISZERO PUSH2 0x4DC6 JUMPI DUP5 MLOAD PUSH1 0x1 PUSH1 0x1 PUSH1 0xA0 SHL SUB AND DUP4 MSTORE SWAP4 DUP4 ADD SWAP4 SWAP2 DUP4 ADD SWAP2 PUSH1 0x1 ADD PUSH2 0x4DA1 JUMP JUMPDEST POP SWAP1 SWAP8 SWAP7 POP POP POP POP POP POP POP JUMP JUMPDEST PUSH1 0x80 DUP2 MSTORE PUSH1 0x0 PUSH2 0x4DE6 PUSH1 0x80 DUP4 ADD DUP8 PUSH2 0x4C7F JUMP JUMPDEST PUSH1 0x20 DUP4 ADD SWAP6 SWAP1 SWAP6 MSTORE POP PUSH1 0x40 DUP2 ADD SWAP3 SWAP1 SWAP3 MSTORE PUSH1 0x60 SWAP1 SWAP2 ADD MSTORE SWAP2 SWAP1 POP JUMP JUMPDEST DUP14 ISZERO ISZERO DUP2 MSTORE PUSH1 0x1 PUSH1 0x1 PUSH1 0xA0 SHL SUB DUP14 AND PUSH1 0x20 DUP3 ADD MSTORE PUSH1 0x1 PUSH1 0x1 PUSH1 0xA0 SHL SUB DUP13 AND PUSH1 0x40 DUP3 ADD MSTORE PUSH2 0x1A0 PUSH1 0x60 DUP3 ADD MSTORE PUSH1 0x0 PUSH2 0x4E3D PUSH2 0x1A0 DUP4 ADD DUP14 PUSH2 0x4CBA JUMP JUMPDEST DUP3 DUP2 SUB PUSH1 0x80 DUP5 ADD MSTORE PUSH2 0x4E4F DUP2 DUP14 PUSH2 0x4CBA JUMP JUMPDEST SWAP1 POP DUP11 PUSH1 0xA0 DUP5 ADD MSTORE DUP3 DUP2 SUB PUSH1 0xC0 DUP5 ADD MSTORE PUSH2 0x4E69 DUP2 DUP12 PUSH2 0x4CBA JUMP JUMPDEST SWAP1 POP DUP3 DUP2 SUB PUSH1 0xE0 DUP5 ADD MSTORE PUSH2 0x4E7D DUP2 DUP11 PUSH2 0x4CBA JUMP JUMPDEST PUSH2 0x100 DUP5 ADD SWAP9 SWAP1 SWAP9 MSTORE POP POP PUSH2 0x120 DUP2 ADD SWAP5 SWAP1 SWAP5 MSTORE PUSH2 0x140 DUP5 ADD SWAP3 SWAP1 SWAP3 MSTORE PUSH2 0x160 DUP4 ADD MSTORE PUSH2 0x180 SWAP1 SWAP2 ADD MSTORE SWAP9 SWAP8 POP POP POP POP POP POP POP POP JUMP JUMPDEST DUP3 ISZERO ISZERO DUP2 MSTORE PUSH1 0x40 PUSH1 0x20 DUP3 ADD MSTORE PUSH1 0x0 PUSH2 0x405E PUSH1 0x40 DUP4 ADD DUP5 PUSH2 0x4CBA JUMP JUMPDEST PUSH1 0x20 DUP2 MSTORE PUSH1 0x0 PUSH2 0x3A97 PUSH1 0x20 DUP4 ADD DUP5 PUSH2 0x4CBA JUMP JUMPDEST PUSH1 0xC0 DUP2 MSTORE PUSH1 0x0 PUSH2 0x4EF4 PUSH1 0xC0 DUP4 ADD DUP10 PUSH2 0x4CBA JUMP JUMPDEST DUP3 DUP2 SUB PUSH1 0x20 DUP5 ADD MSTORE PUSH2 0x4F06 DUP2 DUP10 PUSH2 0x4CBA JUMP JUMPDEST SWAP7 ISZERO ISZERO PUSH1 0x40 DUP5 ADD MSTORE POP POP PUSH1 0x1 PUSH1 0x1 PUSH1 0xA0 SHL SUB SWAP4 SWAP1 SWAP4 AND PUSH1 0x60 DUP5 ADD MSTORE PUSH1 0x80 DUP4 ADD SWAP2 SWAP1 SWAP2 MSTORE PUSH1 0xA0 SWAP1 SWAP2 ADD MSTORE SWAP3 SWAP2 POP POP JUMP JUMPDEST DUP7 DUP2 MSTORE PUSH1 0xC0 PUSH1 0x20 DUP3 ADD MSTORE PUSH1 0x0 PUSH2 0x4F4E PUSH1 0xC0 DUP4 ADD DUP9 PUSH2 0x4CBA JUMP JUMPDEST DUP3 DUP2 SUB PUSH1 0x40 DUP5 ADD MSTORE PUSH2 0x4F60 DUP2 DUP9 PUSH2 0x4CBA JUMP JUMPDEST SWAP6 ISZERO ISZERO PUSH1 0x60 DUP5 ADD MSTORE POP POP PUSH1 0x1 PUSH1 0x1 PUSH1 0xA0 SHL SUB SWAP3 SWAP1 SWAP3 AND PUSH1 0x80 DUP4 ADD MSTORE PUSH1 0xA0 SWAP1 SWAP2 ADD MSTORE SWAP4 SWAP3 POP POP POP JUMP JUMPDEST PUSH1 0x0 PUSH2 0x180 DUP3 ADD SWAP1 POP DUP14 DUP3 MSTORE DUP13 PUSH1 0x20 DUP4 ADD MSTORE DUP12 PUSH1 0x40 DUP4 ADD MSTORE DUP11 PUSH1 0x60 DUP4 ADD MSTORE DUP10 PUSH1 0x80 DUP4 ADD MSTORE DUP9 PUSH1 0xA0 DUP4 ADD MSTORE DUP8 PUSH1 0xC0 DUP4 ADD MSTORE DUP7 PUSH1 0xE0 DUP4 ADD MSTORE PUSH1 0x1 PUSH1 0x1 PUSH1 0xA0 SHL SUB DUP1 DUP8 AND PUSH2 0x100 DUP5 ADD MSTORE DUP1 DUP7 AND PUSH2 0x120 DUP5 ADD MSTORE POP PUSH1 0x4 DUP5 LT PUSH2 0x4FE9 JUMPI PUSH2 0x4FE9 PUSH2 0x5183 JUMP JUMPDEST DUP4 PUSH2 0x140 DUP4 ADD MSTORE PUSH1 0x2 DUP4 LT PUSH2 0x5000 JUMPI PUSH2 0x5000 PUSH2 0x5183 JUMP JUMPDEST DUP3 PUSH2 0x160 DUP4 ADD MSTORE SWAP14 SWAP13 POP POP POP POP POP POP POP POP POP POP POP POP POP JUMP JUMPDEST PUSH1 0x40 MLOAD PUSH1 0x1F DUP3 ADD PUSH1 0x1F NOT AND DUP2 ADD PUSH8 0xFFFFFFFFFFFFFFFF DUP2 GT DUP3 DUP3 LT OR ISZERO PUSH2 0x5041 JUMPI PUSH2 0x5041 PUSH2 0x51AF JUMP JUMPDEST PUSH1 0x40 MSTORE SWAP2 SWAP1 POP JUMP JUMPDEST PUSH1 0x0 DUP3 NOT DUP3 GT ISZERO PUSH2 0x505C JUMPI PUSH2 0x505C PUSH2 0x5157 JUMP JUMPDEST POP ADD SWAP1 JUMP JUMPDEST PUSH1 0x0 DUP3 PUSH2 0x5070 JUMPI PUSH2 0x5070 PUSH2 0x516D JUMP JUMPDEST POP DIV SWAP1 JUMP JUMPDEST PUSH1 0x0 DUP2 PUSH1 0x0 NOT DIV DUP4 GT DUP3 ISZERO ISZERO AND ISZERO PUSH2 0x508F JUMPI PUSH2 0x508F PUSH2 0x5157 JUMP JUMPDEST POP MUL SWAP1 JUMP JUMPDEST PUSH1 0x0 DUP3 DUP3 LT ISZERO PUSH2 0x50A6 JUMPI PUSH2 0x50A6 PUSH2 0x5157 JUMP JUMPDEST POP SUB SWAP1 JUMP JUMPDEST PUSH1 0x0 JUMPDEST DUP4 DUP2 LT ISZERO PUSH2 0x50C6 JUMPI DUP2 DUP2 ADD MLOAD DUP4 DUP3 ADD MSTORE PUSH1 0x20 ADD PUSH2 0x50AE JUMP JUMPDEST DUP4 DUP2 GT ISZERO PUSH2 0x1A84 JUMPI POP POP PUSH1 0x0 SWAP2 ADD MSTORE JUMP JUMPDEST PUSH1 0x1 DUP2 DUP2 SHR SWAP1 DUP3 AND DUP1 PUSH2 0x50EB JUMPI PUSH1 0x7F DUP3 AND SWAP2 POP JUMPDEST PUSH1 0x20 DUP3 LT DUP2 EQ ISZERO PUSH2 0x510C JUMPI PUSH4 0x4E487B71 PUSH1 0xE0 SHL PUSH1 0x0 MSTORE PUSH1 0x22 PUSH1 0x4 MSTORE PUSH1 0x24 PUSH1 0x0 REVERT JUMPDEST POP SWAP2 SWAP1 POP JUMP JUMPDEST PUSH1 0x0 PUSH1 0x0 NOT DUP3 EQ ISZERO PUSH2 0x5126 JUMPI PUSH2 0x5126 PUSH2 0x5157 JUMP JUMPDEST POP PUSH1 0x1 ADD SWAP1 JUMP JUMPDEST PUSH1 0x0 DUP3 PUSH2 0x513C JUMPI PUSH2 0x513C PUSH2 0x516D JUMP JUMPDEST POP MOD SWAP1 JUMP JUMPDEST PUSH4 0x4E487B71 PUSH1 0xE0 SHL PUSH1 0x0 MSTORE PUSH1 0x1 PUSH1 0x4 MSTORE PUSH1 0x24 PUSH1 0x0 REVERT JUMPDEST PUSH4 0x4E487B71 PUSH1 0xE0 SHL PUSH1 0x0 MSTORE PUSH1 0x11 PUSH1 0x4 MSTORE PUSH1 0x24 PUSH1 0x0 REVERT JUMPDEST PUSH4 0x4E487B71 PUSH1 0xE0 SHL PUSH1 0x0 MSTORE PUSH1 0x12 PUSH1 0x4 MSTORE PUSH1 0x24 PUSH1 0x0 REVERT JUMPDEST PUSH4 0x4E487B71 PUSH1 0xE0 SHL PUSH1 0x0 MSTORE PUSH1 0x21 PUSH1 0x4 MSTORE PUSH1 0x24 PUSH1 0x0 REVERT JUMPDEST PUSH4 0x4E487B71 PUSH1 0xE0 SHL PUSH1 0x0 MSTORE PUSH1 0x32 PUSH1 0x4 MSTORE PUSH1 0x24 PUSH1 0x0 REVERT JUMPDEST PUSH4 0x4E487B71 PUSH1 0xE0 SHL PUSH1 0x0 MSTORE PUSH1 0x41 PUSH1 0x4 MSTORE PUSH1 0x24 PUSH1 0x0 REVERT JUMPDEST DUP1 ISZERO ISZERO DUP2 EQ PUSH2 0x3875 JUMPI PUSH1 0x0 DUP1 REVERT INVALID LOG2 PUSH5 0x6970667358 0x22 SLT KECCAK256 0xBC 0xAB POP ORIGIN 0xA6 SWAP9 MUL PUSH8 0x75EFC90B6F89BAF 0x5F 0xB3 0xD3 DUP12 PUSH3 0xEE7B15 SWAP4 MUL CREATE 0xAA SWAP12 SWAP4 SWAP6 LOG2 PUSH5 0x736F6C6343 STOP ADDMOD SMOD STOP CALLER "},"methodIdentifiers":{"EditPartnerDetails(string,string,bool,address,uint256)":"7b3d5ad2","RID()":"6edf7283","TicketsList(string)":"b43f0b2b","addOrganisation(address,address,string,string,uint256,string,string,uint256,uint256)":"4c4426e8","addPartnerDetails(string,string,bool,address,uint256)":"30148970","admin()":"f851a440","amountspend(address)":"2751134a","amountwon(address)":"bef7e5a2","bregisterFee()":"4e7abe25","buyNormalLottery(uint256[],uint256,string)":"d61752fe","buySpinnerLottery(uint256,uint256)":"2f24d5dc","callresult()":"94d1283a","checkUpkeep(bytes)":"6e04ff0d","contractBalance()":"8b7afe2e","createLottery(uint256,uint256,uint256,uint256,uint256,uint256,uint256,uint256,uint256,uint8)":"4ce6873b","getLotteryNumbers(uint256)":"5f8e26a7","getOrglotteries(address)":"c41ce92e","getUserlotteries(address)":"1c9c8e99","lottery(uint256)":"a57d1560","lotteryCreateFee()":"75e9340a","lotteryDates(uint256)":"aa10304c","lotteryId()":"e580f47b","lotterySales(uint256)":"e043e7bc","lotteryTickets(uint256,address)":"26617ddb","organisationbyaddr(address)":"6b65e844","organisationbyid(uint256)":"3295b5b0","ownerId()":"019c08f5","partnerId()":"aa37db6c","partnerRewardPerc()":"355b9098","partnerbyaddr(address)":"7782d576","partnerbyid(uint256)":"c6b7cb69","paywinner(address,uint256,bytes32)":"88804e06","performUpkeep(bytes)":"4585e33b","randomNumber(bytes32)":"40b43c72","rawFulfillRandomness(bytes32,uint256)":"94985ddd","redeemTokens()":"e9a9c50c","refereeEarned(address)":"3de55f95","requestIds(bytes32)":"8645f7a8","setCallresult(bool)":"6bf8dc74","setTokenAddress(address)":"26a4e8d2","spinBuyer(bytes32)":"2786ab76","spinNumbers(bytes32)":"80b0534a","tokenAddress()":"9d76ea58","tokenEarnPercent()":"d7e2368f","tokenearned(address)":"96169995","tokenredeemed(address)":"16a1a468","transferAdmin(address)":"75829def","transferFeePerc()":"b2dd29f3","transferToken(uint256,address,address)":"4a2a1fb0","updateFee(uint256,uint256,uint256,uint256)":"ea9fae80","updateMinMax(uint256,uint256)":"3bbd391e","withdrawAdmin()":"04c76af0","withdrawETH()":"e086e5ec","withdrawLink()":"8dc654a2","withdrawcommission()":"51d4568f","withdrawrefereecommission()":"91489105"}}}}}