{"Contract/Phase_3.1_SEPOLIA_ETH/LotteryContract_sepoil_VRFV2.sol":{"Autobet":{"abi":[{"inputs":[{"internalType":"address","name":"_tokenAddress","type":"address"}],"stateMutability":"nonpayable","type":"constructor"},{"anonymous":false,"inputs":[{"indexed":true,"internalType":"uint256","name":"lotteryId","type":"uint256"},{"indexed":false,"internalType":"uint256","name":"entryfee","type":"uint256"},{"indexed":false,"internalType":"uint256","name":"picknumbers","type":"uint256"},{"indexed":false,"internalType":"uint256","name":"totalPrize","type":"uint256"},{"indexed":false,"internalType":"uint256","name":"capacity","type":"uint256"},{"indexed":true,"internalType":"address","name":"owner","type":"address"},{"indexed":false,"internalType":"uint256","name":"startTime","type":"uint256"},{"indexed":true,"internalType":"uint256","name":"ownerid","type":"uint256"}],"name":"CreatedLottery","type":"event"},{"anonymous":false,"inputs":[{"indexed":false,"internalType":"uint256[]","name":"numbers","type":"uint256[]"},{"indexed":true,"internalType":"uint256","name":"lotteryId","type":"uint256"},{"indexed":false,"internalType":"uint256","name":"boughtOn","type":"uint256"},{"indexed":true,"internalType":"address","name":"useraddress","type":"address"},{"indexed":false,"internalType":"uint256","name":"drawOn","type":"uint256"},{"indexed":false,"internalType":"uint256","name":"paid","type":"uint256"}],"name":"LotteryBought","type":"event"},{"anonymous":false,"inputs":[{"indexed":false,"internalType":"address","name":"useraddressdata","type":"address"},{"indexed":true,"internalType":"uint256","name":"lotteryId","type":"uint256"},{"indexed":false,"internalType":"uint256","name":"drawOn","type":"uint256"}],"name":"LotteryResult","type":"event"},{"anonymous":false,"inputs":[{"indexed":true,"internalType":"address","name":"from","type":"address"},{"indexed":true,"internalType":"address","name":"to","type":"address"}],"name":"OwnershipTransferRequested","type":"event"},{"anonymous":false,"inputs":[{"indexed":true,"internalType":"address","name":"from","type":"address"},{"indexed":true,"internalType":"address","name":"to","type":"address"}],"name":"OwnershipTransferred","type":"event"},{"anonymous":false,"inputs":[{"indexed":true,"internalType":"uint256","name":"ownerId","type":"uint256"},{"indexed":false,"internalType":"address","name":"_owner","type":"address"},{"indexed":false,"internalType":"string","name":"_name","type":"string"},{"indexed":false,"internalType":"address","name":"_referee","type":"address"}],"name":"RegisterBookie","type":"event"},{"anonymous":false,"inputs":[{"indexed":true,"internalType":"address","name":"useraddressdata","type":"address"},{"indexed":true,"internalType":"uint256","name":"lotteryId","type":"uint256"},{"indexed":false,"internalType":"uint256","name":"selectedNum","type":"uint256"},{"indexed":false,"internalType":"uint256","name":"winnerNum","type":"uint256"},{"indexed":false,"internalType":"uint256","name":"date","type":"uint256"}],"name":"SpinLotteryResult","type":"event"},{"anonymous":false,"inputs":[{"indexed":true,"internalType":"address","name":"useraddressdata","type":"address"},{"indexed":true,"internalType":"uint256","name":"lotteryId","type":"uint256"},{"indexed":false,"internalType":"uint256","name":"amountwon","type":"uint256"}],"name":"WinnerPaid","type":"event"},{"anonymous":false,"inputs":[{"indexed":false,"internalType":"uint256","name":"partnerId","type":"uint256"},{"indexed":false,"internalType":"string","name":"_name","type":"string"},{"indexed":false,"internalType":"string","name":"_LogoHash","type":"string"},{"indexed":false,"internalType":"bool","name":"status","type":"bool"},{"indexed":false,"internalType":"address","name":"_PartnerAddress","type":"address"},{"indexed":false,"internalType":"uint256","name":"_CreatedOn","type":"uint256"}],"name":"partneradded","type":"event"},{"inputs":[{"internalType":"string","name":"_name","type":"string"},{"internalType":"string","name":"_logoHash","type":"string"},{"internalType":"bool","name":"_status","type":"bool"},{"internalType":"address","name":"_partnerAddress","type":"address"},{"internalType":"uint256","name":"_createdOn","type":"uint256"}],"name":"EditPartnerDetails","outputs":[],"stateMutability":"nonpayable","type":"function"},{"inputs":[],"name":"RID","outputs":[{"internalType":"uint256","name":"","type":"uint256"}],"stateMutability":"view","type":"function"},{"inputs":[{"internalType":"string","name":"","type":"string"}],"name":"TicketsList","outputs":[{"internalType":"bool","name":"","type":"bool"}],"stateMutability":"view","type":"function"},{"inputs":[],"name":"acceptOwnership","outputs":[],"stateMutability":"nonpayable","type":"function"},{"inputs":[{"internalType":"address","name":"_owner","type":"address"},{"internalType":"address","name":"_referee","type":"address"},{"internalType":"string","name":"_name","type":"string"},{"internalType":"string","name":"_phoneno","type":"string"},{"internalType":"uint256","name":"_dob","type":"uint256"},{"internalType":"string","name":"_email","type":"string"},{"internalType":"string","name":"_resiAddress","type":"string"},{"internalType":"uint256","name":"_minPrize","type":"uint256"},{"internalType":"uint256","name":"_maxPrize","type":"uint256"}],"name":"addOrganisation","outputs":[],"stateMutability":"payable","type":"function"},{"inputs":[{"internalType":"string","name":"_name","type":"string"},{"internalType":"string","name":"_logoHash","type":"string"},{"internalType":"bool","name":"_status","type":"bool"},{"internalType":"address","name":"_partnerAddress","type":"address"},{"internalType":"uint256","name":"_createdOn","type":"uint256"}],"name":"addPartnerDetails","outputs":[],"stateMutability":"nonpayable","type":"function"},{"inputs":[],"name":"admin","outputs":[{"internalType":"address","name":"","type":"address"}],"stateMutability":"view","type":"function"},{"inputs":[{"internalType":"address","name":"","type":"address"}],"name":"amountspend","outputs":[{"internalType":"uint256","name":"","type":"uint256"}],"stateMutability":"view","type":"function"},{"inputs":[{"internalType":"address","name":"","type":"address"}],"name":"amountwon","outputs":[{"internalType":"uint256","name":"","type":"uint256"}],"stateMutability":"view","type":"function"},{"inputs":[],"name":"bregisterFee","outputs":[{"internalType":"uint256","name":"","type":"uint256"}],"stateMutability":"view","type":"function"},{"inputs":[{"internalType":"uint256[]","name":"numbers","type":"uint256[]"},{"internalType":"uint256","name":"lotteryid","type":"uint256"},{"internalType":"string","name":"hash","type":"string"}],"name":"buyNormalLottery","outputs":[],"stateMutability":"payable","type":"function"},{"inputs":[{"internalType":"uint256","name":"numbers","type":"uint256"},{"internalType":"uint256","name":"lotteryid","type":"uint256"}],"name":"buySpinnerLottery","outputs":[],"stateMutability":"payable","type":"function"},{"inputs":[],"name":"callresult","outputs":[{"internalType":"bool","name":"","type":"bool"}],"stateMutability":"view","type":"function"},{"inputs":[{"internalType":"bytes","name":"","type":"bytes"}],"name":"checkUpkeep","outputs":[{"internalType":"bool","name":"upkeepNeeded","type":"bool"},{"internalType":"bytes","name":"result","type":"bytes"}],"stateMutability":"view","type":"function"},{"inputs":[],"name":"contractBalance","outputs":[{"internalType":"uint256","name":"balance","type":"uint256"}],"stateMutability":"view","type":"function"},{"inputs":[{"internalType":"uint256","name":"entryfee","type":"uint256"},{"internalType":"uint256","name":"picknumbers","type":"uint256"},{"internalType":"uint256","name":"totalPrize","type":"uint256"},{"internalType":"uint256","name":"startTime","type":"uint256"},{"internalType":"uint256","name":"endtime","type":"uint256"},{"internalType":"uint256","name":"drawtime","type":"uint256"},{"internalType":"uint256","name":"capacity","type":"uint256"},{"internalType":"uint256","name":"partner","type":"uint256"},{"internalType":"uint256","name":"rolloverperct","type":"uint256"},{"internalType":"enum Autobet.LotteryType","name":"lottype","type":"uint8"}],"name":"createLottery","outputs":[],"stateMutability":"payable","type":"function"},{"inputs":[{"internalType":"uint256","name":"lotteryid","type":"uint256"}],"name":"getLotteryNumbers","outputs":[{"internalType":"uint256[]","name":"tickets","type":"uint256[]"},{"internalType":"address[]","name":"useraddress","type":"address[]"}],"stateMutability":"view","type":"function"},{"inputs":[{"internalType":"address","name":"useraddress","type":"address"}],"name":"getOrglotteries","outputs":[{"internalType":"uint256[]","name":"lotterids","type":"uint256[]"}],"stateMutability":"view","type":"function"},{"inputs":[{"internalType":"address","name":"partneraddress","type":"address"}],"name":"getPartnerlotteries","outputs":[{"internalType":"uint256[]","name":"lotteryids","type":"uint256[]"}],"stateMutability":"view","type":"function"},{"inputs":[{"internalType":"address","name":"useraddress","type":"address"}],"name":"getUserlotteries","outputs":[{"internalType":"uint256[]","name":"lotteryids","type":"uint256[]"}],"stateMutability":"view","type":"function"},{"inputs":[{"internalType":"uint256","name":"","type":"uint256"}],"name":"lottery","outputs":[{"internalType":"uint256","name":"lotteryId","type":"uint256"},{"internalType":"uint256","name":"pickNumbers","type":"uint256"},{"internalType":"uint256","name":"capacity","type":"uint256"},{"internalType":"uint256","name":"entryFee","type":"uint256"},{"internalType":"uint256","name":"totalPrize","type":"uint256"},{"internalType":"uint256","name":"minPlayers","type":"uint256"},{"internalType":"uint256","name":"partnerId","type":"uint256"},{"internalType":"uint256","name":"rolloverperct","type":"uint256"},{"internalType":"address","name":"lotteryWinner","type":"address"},{"internalType":"address","name":"ownerAddress","type":"address"},{"internalType":"enum Autobet.LotteryState","name":"status","type":"uint8"},{"internalType":"enum Autobet.LotteryType","name":"lotteryType","type":"uint8"}],"stateMutability":"view","type":"function"},{"inputs":[],"name":"lotteryCreateFee","outputs":[{"internalType":"uint256","name":"","type":"uint256"}],"stateMutability":"view","type":"function"},{"inputs":[{"internalType":"uint256","name":"","type":"uint256"}],"name":"lotteryDates","outputs":[{"internalType":"uint256","name":"lotteryId","type":"uint256"},{"internalType":"uint256","name":"startTime","type":"uint256"},{"internalType":"uint256","name":"endTime","type":"uint256"},{"internalType":"uint256","name":"drawTime","type":"uint256"}],"stateMutability":"view","type":"function"},{"inputs":[],"name":"lotteryId","outputs":[{"internalType":"uint256","name":"","type":"uint256"}],"stateMutability":"view","type":"function"},{"inputs":[{"internalType":"uint256","name":"","type":"uint256"}],"name":"lotterySales","outputs":[{"internalType":"uint256","name":"","type":"uint256"}],"stateMutability":"view","type":"function"},{"inputs":[{"internalType":"uint256","name":"","type":"uint256"},{"internalType":"address","name":"","type":"address"}],"name":"lotteryTickets","outputs":[{"internalType":"uint256","name":"","type":"uint256"}],"stateMutability":"view","type":"function"},{"inputs":[{"internalType":"address","name":"","type":"address"}],"name":"organisationbyaddr","outputs":[{"internalType":"bool","name":"active","type":"bool"},{"internalType":"address","name":"userAddress","type":"address"},{"internalType":"address","name":"referee","type":"address"},{"internalType":"string","name":"name","type":"string"},{"internalType":"string","name":"phoneno","type":"string"},{"internalType":"uint256","name":"dob","type":"uint256"},{"internalType":"string","name":"email","type":"string"},{"internalType":"string","name":"resiAddress","type":"string"},{"internalType":"uint256","name":"id","type":"uint256"},{"internalType":"uint256","name":"amountEarned","type":"uint256"},{"internalType":"uint256","name":"commissionEarned","type":"uint256"},{"internalType":"uint256","name":"maxPrize","type":"uint256"},{"internalType":"uint256","name":"minPrize","type":"uint256"}],"stateMutability":"view","type":"function"},{"inputs":[{"internalType":"uint256","name":"","type":"uint256"}],"name":"organisationbyid","outputs":[{"internalType":"bool","name":"active","type":"bool"},{"internalType":"address","name":"userAddress","type":"address"},{"internalType":"address","name":"referee","type":"address"},{"internalType":"string","name":"name","type":"string"},{"internalType":"string","name":"phoneno","type":"string"},{"internalType":"uint256","name":"dob","type":"uint256"},{"internalType":"string","name":"email","type":"string"},{"internalType":"string","name":"resiAddress","type":"string"},{"internalType":"uint256","name":"id","type":"uint256"},{"internalType":"uint256","name":"amountEarned","type":"uint256"},{"internalType":"uint256","name":"commissionEarned","type":"uint256"},{"internalType":"uint256","name":"maxPrize","type":"uint256"},{"internalType":"uint256","name":"minPrize","type":"uint256"}],"stateMutability":"view","type":"function"},{"inputs":[],"name":"owner","outputs":[{"internalType":"address","name":"","type":"address"}],"stateMutability":"view","type":"function"},{"inputs":[],"name":"ownerId","outputs":[{"internalType":"uint256","name":"","type":"uint256"}],"stateMutability":"view","type":"function"},{"inputs":[],"name":"partnerId","outputs":[{"internalType":"uint256","name":"","type":"uint256"}],"stateMutability":"view","type":"function"},{"inputs":[],"name":"partnerRewardPerc","outputs":[{"internalType":"uint256","name":"","type":"uint256"}],"stateMutability":"view","type":"function"},{"inputs":[{"internalType":"address","name":"","type":"address"}],"name":"partnerbyaddr","outputs":[{"internalType":"string","name":"name","type":"string"},{"internalType":"string","name":"logoHash","type":"string"},{"internalType":"bool","name":"status","type":"bool"},{"internalType":"address","name":"partnerAddress","type":"address"},{"internalType":"uint256","name":"createdOn","type":"uint256"},{"internalType":"uint256","name":"partnerId","type":"uint256"}],"stateMutability":"view","type":"function"},{"inputs":[{"internalType":"uint256","name":"","type":"uint256"}],"name":"partnerbyid","outputs":[{"internalType":"string","name":"name","type":"string"},{"internalType":"string","name":"logoHash","type":"string"},{"internalType":"bool","name":"status","type":"bool"},{"internalType":"address","name":"partnerAddress","type":"address"},{"internalType":"uint256","name":"createdOn","type":"uint256"},{"internalType":"uint256","name":"partnerId","type":"uint256"}],"stateMutability":"view","type":"function"},{"inputs":[{"internalType":"address","name":"useraddressdata","type":"address"},{"internalType":"uint256","name":"lotteryid","type":"uint256"},{"internalType":"uint256","name":"requestId","type":"uint256"}],"name":"paywinner","outputs":[],"stateMutability":"payable","type":"function"},{"inputs":[{"internalType":"bytes","name":"","type":"bytes"}],"name":"performUpkeep","outputs":[],"stateMutability":"nonpayable","type":"function"},{"inputs":[{"internalType":"uint256","name":"","type":"uint256"}],"name":"randomNumber","outputs":[{"internalType":"uint256","name":"","type":"uint256"}],"stateMutability":"view","type":"function"},{"inputs":[{"internalType":"uint256","name":"_requestId","type":"uint256"},{"internalType":"uint256[]","name":"_randomWords","type":"uint256[]"}],"name":"rawFulfillRandomWords","outputs":[],"stateMutability":"nonpayable","type":"function"},{"inputs":[],"name":"redeemTokens","outputs":[],"stateMutability":"nonpayable","type":"function"},{"inputs":[{"internalType":"address","name":"","type":"address"}],"name":"refereeEarned","outputs":[{"internalType":"uint256","name":"","type":"uint256"}],"stateMutability":"view","type":"function"},{"inputs":[{"internalType":"uint256","name":"","type":"uint256"}],"name":"requestIds","outputs":[{"internalType":"uint256","name":"","type":"uint256"}],"stateMutability":"view","type":"function"},{"inputs":[{"internalType":"bool","name":"_callresult","type":"bool"}],"name":"setCallresult","outputs":[],"stateMutability":"nonpayable","type":"function"},{"inputs":[{"internalType":"address","name":"_tokenAddress","type":"address"}],"name":"setTokenAddress","outputs":[],"stateMutability":"nonpayable","type":"function"},{"inputs":[{"internalType":"uint256","name":"","type":"uint256"}],"name":"spinBuyer","outputs":[{"internalType":"address","name":"","type":"address"}],"stateMutability":"view","type":"function"},{"inputs":[{"internalType":"uint256","name":"","type":"uint256"}],"name":"spinNumbers","outputs":[{"internalType":"uint256","name":"","type":"uint256"}],"stateMutability":"view","type":"function"},{"inputs":[],"name":"tokenAddress","outputs":[{"internalType":"address","name":"","type":"address"}],"stateMutability":"view","type":"function"},{"inputs":[],"name":"tokenEarnPercent","outputs":[{"internalType":"uint256","name":"","type":"uint256"}],"stateMutability":"view","type":"function"},{"inputs":[{"internalType":"address","name":"","type":"address"}],"name":"tokenearned","outputs":[{"internalType":"uint256","name":"","type":"uint256"}],"stateMutability":"view","type":"function"},{"inputs":[{"internalType":"address","name":"","type":"address"}],"name":"tokenredeemed","outputs":[{"internalType":"uint256","name":"","type":"uint256"}],"stateMutability":"view","type":"function"},{"inputs":[{"internalType":"address","name":"newAdmin","type":"address"}],"name":"transferAdmin","outputs":[],"stateMutability":"nonpayable","type":"function"},{"inputs":[],"name":"transferFeePerc","outputs":[{"internalType":"uint256","name":"","type":"uint256"}],"stateMutability":"view","type":"function"},{"inputs":[{"internalType":"address","name":"to","type":"address"}],"name":"transferOwnership","outputs":[],"stateMutability":"nonpayable","type":"function"},{"inputs":[{"internalType":"uint256","name":"amount","type":"uint256"},{"internalType":"address","name":"to","type":"address"},{"internalType":"address","name":"tokenAdd","type":"address"}],"name":"transferToken","outputs":[],"stateMutability":"nonpayable","type":"function"},{"inputs":[{"internalType":"uint256","name":"_lotteryCreateFee","type":"uint256"},{"internalType":"uint256","name":"_transferFeePerc","type":"uint256"},{"internalType":"uint256","name":"_tokenEarnPercent","type":"uint256"},{"internalType":"uint256","name":"_partnerRewardPerc","type":"uint256"}],"name":"updateFee","outputs":[],"stateMutability":"nonpayable","type":"function"},{"inputs":[{"internalType":"uint256","name":"_minPrize","type":"uint256"},{"internalType":"uint256","name":"_maxPrize","type":"uint256"}],"name":"updateMinMax","outputs":[],"stateMutability":"payable","type":"function"},{"inputs":[],"name":"withdrawAdmin","outputs":[],"stateMutability":"payable","type":"function"},{"inputs":[],"name":"withdrawETH","outputs":[],"stateMutability":"payable","type":"function"},{"inputs":[],"name":"withdrawLink","outputs":[],"stateMutability":"nonpayable","type":"function"},{"inputs":[],"name":"withdrawcommission","outputs":[],"stateMutability":"payable","type":"function"},{"inputs":[],"name":"withdrawrefereecommission","outputs":[],"stateMutability":"payable","type":"function"}],"evm":{"bytecode":{"linkReferences":{},"object":"60c06040526001600481905560059081556000600655600a6007819055600881905560098190558055600b55600f8054600160a81b600160f81b03191665100018000c3560ad1b1790553480156200005657600080fd5b506040516200600e3803806200600e83398101604081905262000079916200070c565b7f779877a7b0d9e8603169ddbd7836e478b46247890000000000000000000000006080527fab18414cd93297b0d12ac29e63ca20f515b3db4600000000000000000000000060a0523380600081620001185760405162461bcd60e51b815260206004820152601860248201527f43616e6e6f7420736574206f776e657220746f207a65726f000000000000000060448201526064015b60405180910390fd5b600080546001600160a01b0319166001600160a01b03848116919091179091558116156200014b576200014b81620005ba565b50507f6e75b569a01ef56d18cab6a8e71e6600d6ce853834d4a5748b720d06f878b3a46002908155655af3107a4000600d55600f8054336001600160a01b03199182168117909255600c805482166001600160a01b0387811691909117909155604080516101a081018252600180825260208083018781526000848601818152865180880188526007815266105d5d1bd8995d60ca1b818601526060870190815287518086018952838152608088015260a0870183905287518089018952601881527f6175746f6265746c6f747465727940676d61696c2e636f6d00000000000000008187015260c08801528751808601895283815260e088015260055461010080890191909152610120880184905261014088018490526c0c9f2c9cd04674edea4000000061016089015261018088018490529a835260118552969091208551815493516001600160a81b0319909416901515610100600160a81b0319161792881690990291909117885551918701805490961691909416179093555180519295509293620002e2939085019291019062000666565b50608082015180516200030091600384019160209091019062000666565b5060a0820151600482015560c082015180516200032891600584019160209091019062000666565b5060e082015180516200034691600684019160209091019062000666565b5061010082015181600701556101208201518160080155610140820151816009015561016082015181600a015561018082015181600b0155905050604051806101a00160405280600115158152602001336001600160a01b0316815260200160006001600160a01b0316815260200160405180604001604052806007815260200166105d5d1bd8995d60ca1b8152508152602001604051806020016040528060008152508152602001600081526020016040518060400160405280601881526020017f6175746f6265746c6f747465727940676d61696c2e636f6d00000000000000008152508152602001604051806020016040528060008152508152602001600554815260200160008152602001600081526020016c0c9f2c9cd04674edea400000008152602001600081525060106000600560008154809291906200048d906200077b565b909155508152602080820192909252604090810160002083518154858501516001600160a81b0319909116911515610100600160a81b031916919091176101006001600160a01b0392831602178255918401516001820180546001600160a01b0319169190931617909155606083015180519192620005159260028501929091019062000666565b50608082015180516200053391600384019160209091019062000666565b5060a0820151600482015560c082015180516200055b91600584019160209091019062000666565b5060e082015180516200057991600684019160209091019062000666565b50610100820151600782015561012082015160088201556101408201516009820155610160820151600a82015561018090910151600b9091015550620007a5565b6001600160a01b038116331415620006155760405162461bcd60e51b815260206004820152601760248201527f43616e6e6f74207472616e7366657220746f2073656c6600000000000000000060448201526064016200010f565b600180546001600160a01b0319166001600160a01b0383811691821790925560008054604051929316917fed8889f560326eb138920d842192f0eb3dd22b4f139c87a2c57538e05bae12789190a350565b82805462000674906200073e565b90600052602060002090601f016020900481019282620006985760008555620006e3565b82601f10620006b357805160ff1916838001178555620006e3565b82800160010185558215620006e3579182015b82811115620006e3578251825591602001919060010190620006c6565b50620006f1929150620006f5565b5090565b5b80821115620006f15760008155600101620006f6565b6000602082840312156200071f57600080fd5b81516001600160a01b03811681146200073757600080fd5b9392505050565b600181811c908216806200075357607f821691505b602082108114156200077557634e487b7160e01b600052602260045260246000fd5b50919050565b60006000198214156200079e57634e487b7160e01b600052601160045260246000fd5b5060010190565b60805160601c60a05160601c61581a620007f460003960008181610dc6015281816149840152614aab01526000818161322e01528181613e84015281816140ea015261495a015261581a6000f3fe6080604052600436106103975760003560e01c80637b3d5ad2116101dc578063bef7e5a211610102578063e043e7bc116100a0578063ea9fae801161006f578063ea9fae8014610b87578063f2fde38b14610ba7578063f851a44014610bc7578063f970dd0214610be757600080fd5b8063e043e7bc14610b27578063e086e5ec14610b54578063e580f47b14610b5c578063e9a9c50c14610b7257600080fd5b8063c6b7cb69116100dc578063c6b7cb6914610abe578063d61752fe14610ade578063d7e2368f14610af1578063dd73656d14610b0757600080fd5b8063bef7e5a214610a3b578063c0dae68514610a68578063c41ce92e14610a9e57600080fd5b8063961699951161017a578063aa37db6c11610149578063aa37db6c146109c1578063b2dd29f3146109d7578063b43f0b2b146109ed578063bb0ae21714610a2857600080fd5b8063961699951461086b5780639d76ea5814610898578063a57d1560146108b8578063aa10304c1461095f57600080fd5b80638da5cb5b116101b65780638da5cb5b146107eb5780638dc654a21461081d578063914891051461083257806394d1283a1461083a57600080fd5b80637b3d5ad2146107895780638796ba8c146107a95780638b7afe2e146107d657600080fd5b80634a2a1fb0116102c15780636b65e8441161025f57806375829def1161022e57806375829def1461070c57806375e9340a1461072c5780637782d5761461074257806379ba50971461077457600080fd5b80636b65e8441461066f5780636bf8dc741461068f5780636e04ff0d146106c85780636edf7283146106f657600080fd5b80634e7abe251161029b5780634e7abe25146105f657806351d4568f1461060c5780635f8e26a71461061457806367eecd5a1461064257600080fd5b80634a2a1fb0146105b05780634c4426e8146105d05780634ce6873b146105e357600080fd5b80632751134a11610339578063355b909811610308578063355b90981461053a5780633bbd391e146105505780633de55f95146105635780634585e33b1461059057600080fd5b80632751134a146104a15780632f24d5dc146104ce57806330148970146104e15780633295b5b01461050157600080fd5b80631c9c8e99116103755780631c9c8e99146103fc5780631fe543e31461042957806326617ddb1461044957806326a4e8d21461048157600080fd5b8063019c08f51461039c57806304c76af0146103c557806316a1a468146103cf575b600080fd5b3480156103a857600080fd5b506103b260055481565b6040519081526020015b60405180910390f35b6103cd610c14565b005b3480156103db57600080fd5b506103b26103ea366004614dc1565b601a6020526000908152604090205481565b34801561040857600080fd5b5061041c610417366004614dc1565b610ccf565b6040516103bc9190615371565b34801561043557600080fd5b506103cd610444366004615172565b610dbb565b34801561045557600080fd5b506103b261046436600461510a565b602360209081526000928352604080842090915290825290205481565b34801561048d57600080fd5b506103cd61049c366004614dc1565b610e41565b3480156104ad57600080fd5b506103b26104bc366004614dc1565b60166020526000908152604090205481565b6103cd6104dc3660046151b9565b610eab565b3480156104ed57600080fd5b506103cd6104fc366004615049565b6111e0565b34801561050d57600080fd5b5061052161051c3660046150d8565b611494565b6040516103bc9d9c9b9a99989796959493929190615413565b34801561054657600080fd5b506103b2600a5481565b6103cd61055e3660046151b9565b611725565b34801561056f57600080fd5b506103b261057e366004614dc1565b60176020526000908152604090205481565b34801561059c57600080fd5b506103cd6105ab366004614fa2565b611920565b3480156105bc57600080fd5b506103cd6105cb366004615136565b611a58565b6103cd6105de366004614ddc565b611ba6565b6103cd6105f136600461520d565b6120b8565b34801561060257600080fd5b506103b260075481565b6103cd6127e7565b34801561062057600080fd5b5061063461062f3660046150d8565b6128c2565b6040516103bc929190615384565b34801561064e57600080fd5b506103b261065d3660046150d8565b601e6020526000908152604090205481565b34801561067b57600080fd5b5061052161068a366004614dc1565b612aa7565b34801561069b57600080fd5b506103cd6106aa366004614f68565b600f8054911515600160a01b0260ff60a01b19909216919091179055565b3480156106d457600080fd5b506106e86106e3366004614fa2565b612ae7565b6040516103bc9291906154c4565b34801561070257600080fd5b506103b260035481565b34801561071857600080fd5b506103cd610727366004614dc1565b612c27565b34801561073857600080fd5b506103b260085481565b34801561074e57600080fd5b5061076261075d366004614dc1565b612ca4565b6040516103bc969594939291906154f2565b34801561078057600080fd5b506103cd612df6565b34801561079557600080fd5b506103cd6107a4366004615049565b612ea7565b3480156107b557600080fd5b506103b26107c43660046150d8565b601c6020526000908152604090205481565b3480156107e257600080fd5b506103b2613181565b3480156107f757600080fd5b506000546001600160a01b03165b6040516001600160a01b0390911681526020016103bc565b34801561082957600080fd5b506103cd6131d1565b6103cd61339e565b34801561084657600080fd5b50600f5461085b90600160a01b900460ff1681565b60405190151581526020016103bc565b34801561087757600080fd5b506103b2610886366004614dc1565b60196020526000908152604090205481565b3480156108a457600080fd5b50600c54610805906001600160a01b031681565b3480156108c457600080fd5b506109476108d33660046150d8565b601460205260009081526040902080546001820154600283015460038401546004850154600586015460068701546007880154600889015460098a0154600b909a0154989997989697959694959394929391926001600160a01b03918216929182169160ff600160a01b909104811691168c565b6040516103bc9c9b9a99989796959493929190615599565b34801561096b57600080fd5b506109a161097a3660046150d8565b60156020526000908152604090208054600182015460028301546003909301549192909184565b6040805194855260208501939093529183015260608201526080016103bc565b3480156109cd57600080fd5b506103b260065481565b3480156109e357600080fd5b506103b260095481565b3480156109f957600080fd5b5061085b610a08366004615014565b805160208183018101805160248252928201919093012091525460ff1681565b6103cd610a36366004614ec8565b6133ee565b348015610a4757600080fd5b506103b2610a56366004614dc1565b60186020526000908152604090205481565b348015610a7457600080fd5b50610805610a833660046150d8565b601f602052600090815260409020546001600160a01b031681565b348015610aaa57600080fd5b5061041c610ab9366004614dc1565b6135ee565b348015610aca57600080fd5b50610762610ad93660046150d8565b6136d6565b6103cd610aec366004614efb565b6136f1565b348015610afd57600080fd5b506103b2600b5481565b348015610b1357600080fd5b5061041c610b22366004614dc1565b613a6a565b348015610b3357600080fd5b506103b2610b423660046150d8565b601b6020526000908152604090205481565b6103cd613b52565b348015610b6857600080fd5b506103b260045481565b348015610b7e57600080fd5b506103cd613bc9565b348015610b9357600080fd5b506103cd610ba23660046151db565b613d4a565b348015610bb357600080fd5b506103cd610bc2366004614dc1565b613da6565b348015610bd357600080fd5b50600f54610805906001600160a01b031681565b348015610bf357600080fd5b506103b2610c023660046150d8565b601d6020526000908152604090205481565b600f546001600160a01b03163314610c615760405162461bcd60e51b815260206004820152600b60248201526a3737ba16b096b0b236b4b760a91b60448201526064015b60405180910390fd5b600f546001600160a01b03166000908152601160205260408082206009015490519091339183156108fc0291849190818181858888f19350505050158015610cad573d6000803e3d6000fd5b5050600f546001600160a01b0316600090815260116020526040812060090155565b6001600160a01b03811660009081526020805260408120546060919067ffffffffffffffff811115610d0357610d036157c0565b604051908082528060200260200182016040528015610d2c578160200160208202803683370190505b50905060005b6001600160a01b0384166000908152602080526040902054811015610db4576001600160a01b03841660009081526020805260409020805482908110610d7a57610d7a6157aa565b9060005260206000200154828281518110610d9757610d976157aa565b602090810291909101015280610dac81615723565b915050610d32565b5092915050565b336001600160a01b037f00000000000000000000000000000000000000000000000000000000000000001614610e335760405162461bcd60e51b815260206004820152601f60248201527f6f6e6c792056524620563220777261707065722063616e2066756c66696c6c006044820152606401610c58565b610e3d8282613db7565b5050565b600f546001600160a01b03163314610e895760405162461bcd60e51b815260206004820152600b60248201526a3737ba16b096b0b236b4b760a91b6044820152606401610c58565b600c80546001600160a01b0319166001600160a01b0392909216919091179055565b6000818152601460209081526040808320601590925290912060038201543414610f175760405162461bcd60e51b815260206004820152601160248201527f456e74727920466565206e6f74206d65740000000000000000000000000000006044820152606401610c58565b80600201544210610f6a5760405162461bcd60e51b815260206004820152601260248201527f54696d652070617373656420746f2062757900000000000000000000000000006044820152606401610c58565b60088201546001600160a01b031615610fc55760405162461bcd60e51b815260206004820152600b60248201527f57696e6e657220646f6e650000000000000000000000000000000000000000006044820152606401610c58565b604080516001808252818301909252600091602080830190803683370190505090508481600081518110610ffb57610ffb6157aa565b602090810291909101810191909152600085815260238252604080822033835290925290812080546001929061103290849061565a565b909155505060408051606081018252338152426020808301918252928201848152600a8701805460018082018355600092835291869020855160039092020180546001600160a01b0319166001600160a01b03909216919091178155925190830155518051929391926110ab9260028501920190614bdc565b505033600090815260166020526040812080543493509091906110cf90849061565a565b909155505060098301546001600160a01b03166000908152601160205260408120600801805434929061110390849061565a565b909155505033600090815260208080526040808320805460018101825590845282842001879055868352601b909152812080549161114083615723565b91905055506111626064600b54856003015461115c9190615686565b90613e21565b336000908152601960205260408120805490919061118190849061565a565b909155505060038083015490840154604051339287927feebeef70159cab2afd7f0275b057d4672073bc52648b266b673fdbb3a856103d926111c692879242926153e4565b60405180910390a36111d9848633613e6c565b5050505050565b6001600160a01b0382166111f6576111f6615752565b6001600160a01b03828116600090815260126020526040902060020154610100900416156112665760405162461bcd60e51b815260206004820152601260248201527f416c7265616479207265676973746572656400000000000000000000000000006044820152606401610c58565b6006805490600061127683615723565b90915550506040805160c0810182528681526020808201879052851515828401526001600160a01b038516606083018190526080830185905260065460a08401526000908152601282529290922081518051929391926112d99284920190614c27565b5060208281015180516112f29260018501920190614c27565b5060408281015160028301805460608087015174ffffffffffffffffffffffffffffffffffffffffff1990921693151574ffffffffffffffffffffffffffffffffffffffff001916939093176101006001600160a01b039283160217909155608080860151600386015560a095860151600490950194909455825160c0810184528a815260208082018b9052891515828601529188169281019290925292810185905260065493810184905260009384526013835292208251805191926113be92849290910190614c27565b5060208281015180516113d79260018501920190614c27565b5060408281015160028301805460608601516001600160a01b03166101000274ffffffffffffffffffffffffffffffffffffffff00199315159390931674ffffffffffffffffffffffffffffffffffffffffff19909116179190911790556080830151600383015560a09092015160049091015560065490517fa9a08e4591a80985ce133389d1057bb6fd8e3411c6de25c5fd2a318dc0747e3e916114859188908890889088908890615546565b60405180910390a15050505050565b60106020526000908152604090208054600182015460028301805460ff8416946101009094046001600160a01b039081169493169291906114d4906156e8565b80601f0160208091040260200160405190810160405280929190818152602001828054611500906156e8565b801561154d5780601f106115225761010080835404028352916020019161154d565b820191906000526020600020905b81548152906001019060200180831161153057829003601f168201915b505050505090806003018054611562906156e8565b80601f016020809104026020016040519081016040528092919081815260200182805461158e906156e8565b80156115db5780601f106115b0576101008083540402835291602001916115db565b820191906000526020600020905b8154815290600101906020018083116115be57829003601f168201915b5050505050908060040154908060050180546115f6906156e8565b80601f0160208091040260200160405190810160405280929190818152602001828054611622906156e8565b801561166f5780601f106116445761010080835404028352916020019161166f565b820191906000526020600020905b81548152906001019060200180831161165257829003601f168201915b505050505090806006018054611684906156e8565b80601f01602080910402602001604051908101604052809291908181526020018280546116b0906156e8565b80156116fd5780601f106116d2576101008083540402835291602001916116fd565b820191906000526020600020905b8154815290600101906020018083116116e057829003601f168201915b50505050509080600701549080600801549080600901549080600a01549080600b015490508d565b3360009081526011602052604090205460ff166117845760405162461bcd60e51b815260206004820152601260248201527f4e6f742061206f7267616e69736174696f6e00000000000000000000000000006044820152606401610c58565b600081116117d45760405162461bcd60e51b815260206004820152601260248201527f43616e742062652062656c6f77207a65726f00000000000000000000000000006044820152606401610c58565b600082116118245760405162461bcd60e51b815260206004820152601260248201527f43616e742062652062656c6f77207a65726f00000000000000000000000000006044820152606401610c58565b6000611847600261115c670de0b6b3a76400006118418787613fd8565b90614037565b9050600061185e60646007548461115c9190615686565b90503481146118af5760405162461bcd60e51b815260206004820152601960248201527f526567697374657220466565206e6f74206d61746368696e67000000000000006044820152606401610c58565b3360009081526011602081815260408084206007810154600b8083018b9055600a9283018a9055818752601085528387209081018b9055909101889055600f546001600160a01b0316855292909152822060090180549192349261191490849061565a565b90915550505050505050565b600f54600160a01b900460ff161561197a5760405162461bcd60e51b815260206004820152601260248201527f72657175697265642063616c6c207472756500000000000000000000000000006044820152606401610c58565b600f805460ff60a01b1916600160a01b17905560015b600454811015611a535760016000828152601460205260409020600b015460ff1660018111156119c2576119c2615794565b1415611a41576002600082815260146020526040902060090154600160a01b900460ff1660038111156119f7576119f7615794565b14611a41576000818152601b602090815260408083205460149092529091206005015411611a4157600081815260156020526040902060030154421115611a4157611a41816140d2565b80611a4b81615723565b915050611990565b505050565b6040516370a0823160e01b81523060048201526001600160a01b038216906370a082319060240160206040518083038186803b158015611a9757600080fd5b505afa158015611aab573d6000803e3d6000fd5b505050506040513d601f19601f82011682018060405250810190611acf91906150f1565b831115611b1e5760405162461bcd60e51b815260206004820152600b60248201527f6c6f772062616c616e63650000000000000000000000000000000000000000006044820152606401610c58565b60405163a9059cbb60e01b81526001600160a01b0383811660048301526024820185905282169063a9059cbb90604401602060405180830381600087803b158015611b6857600080fd5b505af1158015611b7c573d6000803e3d6000fd5b505050506040513d601f19601f82011682018060405250810190611ba09190614f85565b50505050565b6001600160a01b038916611bbc57611bbc615752565b6000611bd9600261115c670de0b6b3a76400006118418787613fd8565b90506000611bf060646007548461115c9190615686565b6001600160a01b038c81166000908152601160205260409020549192506101009091041615611c615760405162461bcd60e51b815260206004820152601260248201527f416c7265616479207265676973746572656400000000000000000000000000006044820152606401610c58565b348114611cb05760405162461bcd60e51b815260206004820152601960248201527f526567697374657220466565206e6f74206d61746368696e67000000000000006044820152606401610c58565b604051806101a001604052806001151581526020018c6001600160a01b031681526020018b6001600160a01b031681526020018a81526020018981526020018881526020018781526020018681526020016005548152602001600081526020016000815260200184815260200185815250601160008d6001600160a01b03166001600160a01b0316815260200190815260200160002060008201518160000160006101000a81548160ff02191690831515021790555060208201518160000160016101000a8154816001600160a01b0302191690836001600160a01b0316021790555060408201518160010160006101000a8154816001600160a01b0302191690836001600160a01b031602179055506060820151816002019080519060200190611ddc929190614c27565b5060808201518051611df8916003840191602090910190614c27565b5060a0820151600482015560c08201518051611e1e916005840191602090910190614c27565b5060e08201518051611e3a916006840191602090910190614c27565b5061010082015181600701556101208201518160080155610140820151816009015561016082015181600a015561018082015181600b0155905050604051806101a001604052806001151581526020018c6001600160a01b031681526020018b6001600160a01b031681526020018a815260200189815260200188815260200187815260200186815260200160055481526020016000815260200160008152602001858152602001858152506010600060056000815480929190611efd90615723565b9091555081526020808201929092526040908101600020835181548585015174ffffffffffffffffffffffffffffffffffffffffff1990911691151574ffffffffffffffffffffffffffffffffffffffff001916919091176101006001600160a01b0392831602178255918401516001820180546001600160a01b0319169190931617909155606083015180519192611f9e92600285019290910190614c27565b5060808201518051611fba916003840191602090910190614c27565b5060a0820151600482015560c08201518051611fe0916005840191602090910190614c27565b5060e08201518051611ffc916006840191602090910190614c27565b5061010082015160078201556101208201516008820155610140820151600980830191909155610160830151600a83015561018090920151600b90910155600f546001600160a01b03166000908152601160205260408120909101805434929061206790849061565a565b90915550506005546040517f337cd441473f6e4d26f96eb02885394c00cd7271e43ed7e206dd43664b98598c906120a3908e908d908f90615313565b60405180910390a25050505050505050505050565b3360009081526011602052604090205460ff166121175760405162461bcd60e51b815260206004820152601260248201527f4e6f742061206f7267616e69736174696f6e00000000000000000000000000006044820152606401610c58565b336000908152601160205260409020600b0154889061213e90670de0b6b3a7640000614037565b111561218c5760405162461bcd60e51b815260206004820152601a60248201527f4e6f7420616c6c6f7765642077696e6e696e6720616d6f756e740000000000006044820152606401610c58565b336000908152601160205260409020600a015488906121b390670de0b6b3a7640000614037565b10156122015760405162461bcd60e51b815260206004820152601a60248201527f4e6f7420616c6c6f7765642077696e6e696e6720616d6f756e740000000000006044820152606401610c58565b600088116122515760405162461bcd60e51b815260206004820152600e60248201527f4c6f7720746f74616c50726963650000000000000000000000000000000000006044820152606401610c58565b3461226f61226860646008548c61115c9190615686565b8a90613fd8565b146122bc5760405162461bcd60e51b815260206004820152601360248201527f416d6f756e74206e6f74206d61746368696e67000000000000000000000000006044820152606401610c58565b8389111561230c5760405162461bcd60e51b815260206004820152601060248201527f6361706163697479206973206c657373000000000000000000000000000000006044820152606401610c58565b4287101561235c5760405162461bcd60e51b815260206004820152601160248201527f53746172742074696d65207061737365640000000000000000000000000000006044820152606401610c58565b8587106123ab5760405162461bcd60e51b815260206004820152601d60248201527f456e642074696d65206c657373207468616e2073746172742074696d650000006044820152606401610c58565b60328211156124225760405162461bcd60e51b815260206004820152602960248201527f526f6c6c6f7665722070657263656e746167652063616e2774206265206d6f7260448201527f65207468616e20353000000000000000000000000000000000000000000000006064820152608401610c58565b8260146000600454815260200190815260200160002060060181905550600454601460006004548152602001908152602001600020600001819055508160146000600454815260200190815260200160002060070181905550896014600060045481526020019081526020016000206003018190555088601460006004548152602001908152602001600020600101819055508760146000600454815260200190815260200160002060040181905550866015600060045481526020019081526020016000206001018190555085601560006004548152602001908152602001600020600201819055506004546015600060045481526020019081526020016000206000018190555084601560006004548152602001908152602001600020600301819055508360146000600454815260200190815260200160002060020181905550600060146000600454815260200190815260200160002060090160146101000a81548160ff021916908360038111156125a0576125a0615794565b02179055506004805460009081526014602052604080822060090180546001600160a01b031916331790559154815220600b01805482919060ff1916600183818111156125ef576125ef615794565b0217905550612606606461115c8c818c600a614037565b612610898c613e21565b61261a919061565a565b60048054600090815260146020908152604080832060050194909455338252602281529281209154825460018101845592825292902001556008546126669060649061115c908b615686565b600f546001600160a01b03166000908152601160205260408120600901805490919061269390849061565a565b9091555050336000908152601160205260409020600101546001600160a01b031615612721576126c4886064613e21565b336000908152601160209081526040808320600101546001600160a01b0316835260179091529020546126f7919061565a565b336000908152601160209081526040808320600101546001600160a01b0316835260179091529020555b60008381526013602090815260408083206002015461010090046001600160a01b03168352602182528083206004805482546001810184559286528486209092019190915533808552601184529382902060070154905482518f81529384018e90529183018c905260608301889052608083018b905292917fe6e4222b2c2ddb82eb8817d7bd8ec6fc5eb5f915b4d7b36c260aa77ba04da7db9060a00160405180910390a4600480549060006127d683615723565b919050555050505050505050505050565b336000908152601160205260408120600801546009549091906128129060649061115c908590614037565b90506000612820838361426c565b604051909150339082156108fc029083906000818181858888f19350505050158015612850573d6000803e3d6000fd5b50600f546001600160a01b03166000908152601160205260408120600901805484929061287e90849061565a565b909155505033600090815260116020526040812060090180548392906128a590849061565a565b909155505033600090815260116020526040812060080155505050565b6000818152601460205260408120600a81015460609283929167ffffffffffffffff8111156128f3576128f36157c0565b60405190808252806020026020018201604052801561291c578160200160208202803683370190505b506001830154600a8401549192506000916129379190615686565b67ffffffffffffffff81111561294f5761294f6157c0565b604051908082528060200260200182016040528015612978578160200160208202803683370190505b50905060008060005b600a860154811015612a985785600a0181815481106129a2576129a26157aa565b60009182526020909120600390910201546001600160a01b031685846129c781615723565b9550815181106129d9576129d96157aa565b60200260200101906001600160a01b031690816001600160a01b03168152505060005b8660010154811015612a855786600a018281548110612a1d57612a1d6157aa565b90600052602060002090600302016002018181548110612a3f57612a3f6157aa565b9060005260206000200154858480612a5690615723565b955081518110612a6857612a686157aa565b602090810291909101015280612a7d81615723565b9150506129fc565b5080612a9081615723565b915050612981565b50919792965091945050505050565b60116020526000908152604090208054600182015460028301805460ff8416946101009094046001600160a01b039081169493169291906114d4906156e8565b600f54600090606090600160a01b900460ff1615612b475760405162461bcd60e51b815260206004820152601660248201527f416e6f7468657220526573756c742072756e6e696e67000000000000000000006044820152606401610c58565b60015b600454811015612c1e5760016000828152601460205260409020600b015460ff166001811115612b7c57612b7c615794565b1415612c0c576002600082815260146020526040902060090154600160a01b900460ff166003811115612bb157612bb1615794565b14612c0c576000818152601b602090815260408083205460149092529091206005015411612c0c57600081815260156020526040902060030154421115612c0c57505060408051602081019091526000815260019150612c20565b80612c1681615723565b915050612b4a565b505b9250929050565b600f546001600160a01b03163314612c6f5760405162461bcd60e51b815260206004820152600b60248201526a3737ba16b096b0b236b4b760a91b6044820152606401610c58565b6001600160a01b038116612c8257600080fd5b600f80546001600160a01b0319166001600160a01b0392909216919091179055565b601260205260009081526040902080548190612cbf906156e8565b80601f0160208091040260200160405190810160405280929190818152602001828054612ceb906156e8565b8015612d385780601f10612d0d57610100808354040283529160200191612d38565b820191906000526020600020905b815481529060010190602001808311612d1b57829003601f168201915b505050505090806001018054612d4d906156e8565b80601f0160208091040260200160405190810160405280929190818152602001828054612d79906156e8565b8015612dc65780601f10612d9b57610100808354040283529160200191612dc6565b820191906000526020600020905b815481529060010190602001808311612da957829003601f168201915b5050505060028301546003840154600490940154929360ff8216936101009092046001600160a01b031692509086565b6001546001600160a01b03163314612e505760405162461bcd60e51b815260206004820152601660248201527f4d7573742062652070726f706f736564206f776e6572000000000000000000006044820152606401610c58565b60008054336001600160a01b0319808316821784556001805490911690556040516001600160a01b0390921692909183917f8be0079c531659141344cd1fd0a4f28419497f9722a3daafe3b4186f6b6457e091a350565b6001600160a01b038216612ebd57612ebd615752565b6001600160a01b03828116600090815260126020526040902060020154610100900416612f2c5760405162461bcd60e51b815260206004820152601660248201527f4e6f7420416c72656164792072656769737465726564000000000000000000006044820152606401610c58565b6001600160a01b03808316600081815260126020526040902060020154610100900490911614612f9e5760405162461bcd60e51b815260206004820152601760248201527f57726f6e67206164647265737320746f207570646174650000000000000000006044820152606401610c58565b6040805160c0810182528681526020808201879052851515828401526001600160a01b038516606083018190526080830185905260008181526012808452948120600481015460a0860152919052928152815180519293926130039284920190614c27565b50602082810151805161301c9260018501920190614c27565b5060408281015160028301805460608087015174ffffffffffffffffffffffffffffffffffffffffff1990921693151574ffffffffffffffffffffffffffffffffffffffff001916939093176101006001600160a01b039283160217909155608080860151600386015560a095860151600495860155835160c0810185528b815260208082018c90528a15158287015292891693810184905290810187905260009283526012825283832090940154948401859052938152601384522081518051929391926130ee9284920190614c27565b5060208281015180516131079260018501920190614c27565b50604082015160028201805460608501516001600160a01b03166101000274ffffffffffffffffffffffffffffffffffffffff00199315159390931674ffffffffffffffffffffffffffffffffffffffffff19909116179190911790556080820151600382015560a0909101516004909101555050505050565b600f546000906001600160a01b031633146131cc5760405162461bcd60e51b815260206004820152600b60248201526a3737ba16b096b0b236b4b760a91b6044820152606401610c58565b504790565b600f546001600160a01b031633146132195760405162461bcd60e51b815260206004820152600b60248201526a3737ba16b096b0b236b4b760a91b6044820152606401610c58565b6040516370a0823160e01b81523060048201527f00000000000000000000000000000000000000000000000000000000000000006001600160a01b03169063a9059cbb90339083906370a082319060240160206040518083038186803b15801561328257600080fd5b505afa158015613296573d6000803e3d6000fd5b505050506040513d601f19601f820116820180604052508101906132ba91906150f1565b6040517fffffffff0000000000000000000000000000000000000000000000000000000060e085901b1681526001600160a01b0390921660048301526024820152604401602060405180830381600087803b15801561331857600080fd5b505af115801561332c573d6000803e3d6000fd5b505050506040513d601f19601f820116820180604052508101906133509190614f85565b61339c5760405162461bcd60e51b815260206004820152601260248201527f556e61626c6520746f207472616e7366657200000000000000000000000000006044820152606401610c58565b565b3360008181526017602052604080822054905190929183156108fc02918491818181858888f193505050501580156133da573d6000803e3d6000fd5b505033600090815260176020526040812055565b6000818152601c6020526040902054821461344b5760405162461bcd60e51b815260206004820152601360248201527f4c6f7474657279204964206d69736d61746368000000000000000000000000006044820152606401610c58565b60008281526014602052604090206001600160a01b038416156135db5760048101546009546000906134859060649061115c908590614037565b90506000613493838361426c565b6040519091506001600160a01b0388169082156108fc029083906000818181858888f193505050501580156134cc573d6000803e3d6000fd5b50600f546001600160a01b0316600090815260116020526040812060090180548492906134fa90849061565a565b9091555060009050600b85015460ff16600181111561351b5761351b615794565b141561359357600061353d606461115c600a548761403790919063ffffffff16565b600686015460009081526013602052604080822060020154905192935061010090046001600160a01b0316916108fc84150291849190818181858888f19350505050158015613590573d6000803e3d6000fd5b50505b85876001600160a01b03167f88f3705f0c4d3c5b1a1d29fe4fd3f87e889a5a0ce0a1e37989766b3248603fe9836040516135cf91815260200190565b60405180910390a35050505b5050600f805460ff60a01b191690555050565b6001600160a01b0381166000908152602260205260408120546060919067ffffffffffffffff811115613623576136236157c0565b60405190808252806020026020018201604052801561364c578160200160208202803683370190505b50905060005b6001600160a01b038416600090815260226020526040902054811015610db4576001600160a01b038416600090815260226020526040902080548290811061369c5761369c6157aa565b90600052602060002001548282815181106136b9576136b96157aa565b6020908102919091010152806136ce81615723565b915050613652565b601360205260009081526040902080548190612cbf906156e8565b600082815260146020908152604080832060159092529091206003820154341461375d5760405162461bcd60e51b815260206004820152601160248201527f456e74727920466565206e6f74206d65740000000000000000000000000000006044820152606401610c58565b81600101548551146137b15760405162461bcd60e51b815260206004820152601360248201527f736c6f74732073697a65206e6f74206d656574000000000000000000000000006044820152606401610c58565b806002015442106138045760405162461bcd60e51b815260206004820152601260248201527f54696d652070617373656420746f2062757900000000000000000000000000006044820152606401610c58565b60248360405161381491906152f7565b9081526040519081900360200190205460ff16156138745760405162461bcd60e51b815260206004820152601660248201527f4e756d62657220416c726561647920636c61696d6564000000000000000000006044820152606401610c58565b600160248460405161388691906152f7565b9081526040805160209281900383019020805460ff1916931515939093179092556000868152602382528281203382529091529081208054600192906138cd90849061565a565b909155505060408051606081018252338152426020808301918252928201888152600a8601805460018082018355600092835291869020855160039092020180546001600160a01b0319166001600160a01b03909216919091178155925190830155518051929391926139469260028501920190614bdc565b5050336000908152601660205260408120805434935090919061396a90849061565a565b909155505060098201546001600160a01b03166000908152601160205260408120600801805434929061399e90849061565a565b909155505033600090815260208080526040808320805460018101825590845282842001879055868352601b90915281208054916139db83615723565b91905055506139f76064600b54846003015461115c9190615686565b3360009081526019602052604081208054909190613a1690849061565a565b909155505060038082015490830154604051339287927feebeef70159cab2afd7f0275b057d4672073bc52648b266b673fdbb3a856103d92613a5b928b9242926153e4565b60405180910390a35050505050565b6001600160a01b0381166000908152602160205260408120546060919067ffffffffffffffff811115613a9f57613a9f6157c0565b604051908082528060200260200182016040528015613ac8578160200160208202803683370190505b50905060005b6001600160a01b038416600090815260216020526040902054811015610db4576001600160a01b0384166000908152602160205260409020805482908110613b1857613b186157aa565b9060005260206000200154828281518110613b3557613b356157aa565b602090810291909101015280613b4a81615723565b915050613ace565b600f546001600160a01b03163314613b9a5760405162461bcd60e51b815260206004820152600b60248201526a3737ba16b096b0b236b4b760a91b6044820152606401610c58565b60405133904780156108fc02916000818181858888f19350505050158015613bc6573d6000803e3d6000fd5b50565b600c546040516370a0823160e01b81523060048201526001600160a01b03909116906370a082319060240160206040518083038186803b158015613c0c57600080fd5b505afa158015613c20573d6000803e3d6000fd5b505050506040513d601f19601f82011682018060405250810190613c4491906150f1565b336000908152601960205260409020541115613ca25760405162461bcd60e51b815260206004820152600b60248201527f6c6f772062616c616e63650000000000000000000000000000000000000000006044820152606401610c58565b600c54336000818152601960205260409081902054905163a9059cbb60e01b8152600481019290925260248201526001600160a01b039091169063a9059cbb90604401602060405180830381600087803b158015613cff57600080fd5b505af1158015613d13573d6000803e3d6000fd5b505050506040513d601f19601f82011682018060405250810190613d379190614f85565b5033600090815260196020526040812055565b600f546001600160a01b03163314613d925760405162461bcd60e51b815260206004820152600b60248201526a3737ba16b096b0b236b4b760a91b6044820152606401610c58565b600893909355600991909155600b55600a55565b613dae6142ae565b613bc681614308565b80600081518110613dca57613dca6157aa565b6020026020010151601d600084815260200190815260200160002081905550610e3d81600081518110613dff57613dff6157aa565b6020026020010151601c600085815260200190815260200160002054846143b2565b6000613e6383836040518060400160405280601a81526020017f536166654d6174683a206469766973696f6e206279207a65726f0000000000008152506148e4565b90505b92915050565b600d546040516370a0823160e01b81523060048201527f00000000000000000000000000000000000000000000000000000000000000006001600160a01b0316906370a082319060240160206040518083038186803b158015613ece57600080fd5b505afa158015613ee2573d6000803e3d6000fd5b505050506040513d601f19601f82011682018060405250810190613f0691906150f1565b11613f795760405162461bcd60e51b815260206004820152602b60248201527f4e6f7420656e6f756768204c494e4b202d2066696c6c20636f6e74726163742060448201527f77697468206661756365740000000000000000000000000000000000000000006064820152608401610c58565b6000613f8b620186a06002600161491b565b60038190556000908152601c6020908152604080832096909655601e815285822094909455601f9093525091902080546001600160a01b0319166001600160a01b03909216919091179055565b600080613fe5838561565a565b905083811015613e635760405162461bcd60e51b815260206004820152601b60248201527f536166654d6174683a206164646974696f6e206f766572666c6f7700000000006044820152606401610c58565b60008261404657506000613e66565b60006140528385615686565b90508261405f8583615672565b14613e635760405162461bcd60e51b815260206004820152602160248201527f536166654d6174683a206d756c7469706c69636174696f6e206f766572666c6f60448201527f77000000000000000000000000000000000000000000000000000000000000006064820152608401610c58565b600d546040516370a0823160e01b81523060048201527f00000000000000000000000000000000000000000000000000000000000000006001600160a01b0316906370a082319060240160206040518083038186803b15801561413457600080fd5b505afa158015614148573d6000803e3d6000fd5b505050506040513d601f19601f8201168201806040525081019061416c91906150f1565b116141df5760405162461bcd60e51b815260206004820152602b60248201527f4e6f7420656e6f756768204c494e4b202d2066696c6c20636f6e74726163742060448201527f77697468206661756365740000000000000000000000000000000000000000006064820152608401610c58565b600f546000906142529063ffffffff7501000000000000000000000000000000000000000000820481169161ffff790100000000000000000000000000000000000000000000000000820416917b010000000000000000000000000000000000000000000000000000009091041661491b565b60038190556000908152601c602052604090209190915550565b6000613e6383836040518060400160405280601e81526020017f536166654d6174683a207375627472616374696f6e206f766572666c6f770000815250614b42565b6000546001600160a01b0316331461339c5760405162461bcd60e51b815260206004820152601660248201527f4f6e6c792063616c6c61626c65206279206f776e6572000000000000000000006044820152606401610c58565b6001600160a01b0381163314156143615760405162461bcd60e51b815260206004820152601760248201527f43616e6e6f74207472616e7366657220746f2073656c660000000000000000006044820152606401610c58565b600180546001600160a01b0319166001600160a01b0383811691821790925560008054604051929316917fed8889f560326eb138920d842192f0eb3dd22b4f139c87a2c57538e05bae12789190a350565b600082815260146020908152604080832060159092529091206001600b83015460ff1660018111156143e6576143e6615794565b141561451a57600a8201546143fc908690614b73565b60098301805460ff60a01b191674020000000000000000000000000000000000000000179055600a83018054919650908690811061443c5761443c6157aa565b60009182526020909120600390910201546008830180546001600160a01b0319166001600160a01b03909216919091179055600a8201805485917fc95b83a8055606bd947ee12d6a33519292d859712d214efd6c587938a891e24b91889081106144a8576144a86157aa565b600091825260209182902060039091020154604080516001600160a01b03909216825242928201929092520160405180910390a261451582600a0186815481106144f4576144f46157aa565b60009182526020909120600390910201546001600160a01b031685856133ee565b6111d9565b600282015461452a908690614b73565b6000848152601f6020908152604080832080546008880180546001600160a01b0319166001600160a01b039283161790559054601e8452938290205482519081529283018590524283830152905193985087939216917f50e6d276e04bb48de52a4c1fcef42f86470ee30c5461da3e6edb4eba3a15c468916060908290030190a36000838152601e60205260409020548514156146235760098201805460ff60a01b1916740200000000000000000000000000000000000000001790556000838152601f6020526040902080546008840180546001600160a01b0319166001600160a01b039283161790559054614515911685856133ee565b60098201805460ff60a01b19167403000000000000000000000000000000000000000017905560085460048301546000916146659160649161115c9190614037565b614685606461115c8660070154876004015461403790919063ffffffff16565b61468f91906156a5565b6006848101546004805460009081526014602081815260408084209096019490945582548083528583209081556003808b0154918101919091556001808b015485548552878520820155845484528684208501889055898101548554855260158088528886208301919091556007808d0154875487528589528987209091015560028b8101548754875291885288862081019190915585548086528886209081558b840154930192909255818b015485548552929095528583200155815481528381206009908101805460ff60a01b19169055808901548354835285832090910180546001600160a01b0319166001600160a01b03909216919091179055600b8089015492548252939020909201805493945060ff9092169260ff19169083818111156147be576147be615794565b0217905550600580840154600480546000908152601460209081526040808320909501939093556009808801546001600160a01b039081168352602285528583209354845460018101865594845285842090940193909355600f5490921681526011909252918120909101805483929061483990849061565a565b909155505060098301546001600160a01b03166000818152601160209081526040918290206007015460045460038801546001808a015460028b0154918a01548751938452958301529481018790526060810194909452608084019290925292917fe6e4222b2c2ddb82eb8817d7bd8ec6fc5eb5f915b4d7b36c260aa77ba04da7db9060a00160405180910390a4600480549060006148d783615723565b9190505550505050505050565b600081836149055760405162461bcd60e51b8152600401610c5891906154df565b5060006149128486615672565b95945050505050565b6040517f4306d35400000000000000000000000000000000000000000000000000000000815263ffffffff841660048201526000906001600160a01b037f0000000000000000000000000000000000000000000000000000000000000000811691634000aea0917f00000000000000000000000000000000000000000000000000000000000000009190821690634306d3549060240160206040518083038186803b1580156149c957600080fd5b505afa1580156149dd573d6000803e3d6000fd5b505050506040513d601f19601f82011682018060405250810190614a0191906150f1565b6040805163ffffffff808b16602083015261ffff8a169282019290925290871660608201526080016040516020818303038152906040526040518463ffffffff1660e01b8152600401614a5693929190615349565b602060405180830381600087803b158015614a7057600080fd5b505af1158015614a84573d6000803e3d6000fd5b505050506040513d601f19601f82011682018060405250810190614aa89190614f85565b507f00000000000000000000000000000000000000000000000000000000000000006001600160a01b031663fc2a88c36040518163ffffffff1660e01b815260040160206040518083038186803b158015614b0257600080fd5b505afa158015614b16573d6000803e3d6000fd5b505050506040513d601f19601f82011682018060405250810190614b3a91906150f1565b949350505050565b60008184841115614b665760405162461bcd60e51b8152600401610c5891906154df565b50600061491284866156a5565b6000613e6383836040518060400160405280601881526020017f536166654d6174683a206d6f64756c6f206279207a65726f000000000000000081525060008183614bd15760405162461bcd60e51b8152600401610c5891906154df565b50614b3a838561573e565b828054828255906000526020600020908101928215614c17579160200282015b82811115614c17578251825591602001919060010190614bfc565b50614c23929150614c9a565b5090565b828054614c33906156e8565b90600052602060002090601f016020900481019282614c555760008555614c17565b82601f10614c6e57805160ff1916838001178555614c17565b82800160010185558215614c175791820182811115614c17578251825591602001919060010190614bfc565b5b80821115614c235760008155600101614c9b565b80356001600160a01b0381168114614cc657600080fd5b919050565b600082601f830112614cdc57600080fd5b8135602067ffffffffffffffff821115614cf857614cf86157c0565b8160051b614d07828201615629565b838152828101908684018388018501891015614d2257600080fd5b600093505b85841015614d45578035835260019390930192918401918401614d27565b50979650505050505050565b600082601f830112614d6257600080fd5b813567ffffffffffffffff811115614d7c57614d7c6157c0565b614d8f601f8201601f1916602001615629565b818152846020838601011115614da457600080fd5b816020850160208301376000918101602001919091529392505050565b600060208284031215614dd357600080fd5b613e6382614caf565b60008060008060008060008060006101208a8c031215614dfb57600080fd5b614e048a614caf565b9850614e1260208b01614caf565b975060408a013567ffffffffffffffff80821115614e2f57600080fd5b614e3b8d838e01614d51565b985060608c0135915080821115614e5157600080fd5b614e5d8d838e01614d51565b975060808c0135965060a08c0135915080821115614e7a57600080fd5b614e868d838e01614d51565b955060c08c0135915080821115614e9c57600080fd5b50614ea98c828d01614d51565b93505060e08a013591506101008a013590509295985092959850929598565b600080600060608486031215614edd57600080fd5b614ee684614caf565b95602085013595506040909401359392505050565b600080600060608486031215614f1057600080fd5b833567ffffffffffffffff80821115614f2857600080fd5b614f3487838801614ccb565b9450602086013593506040860135915080821115614f5157600080fd5b50614f5e86828701614d51565b9150509250925092565b600060208284031215614f7a57600080fd5b8135613e63816157d6565b600060208284031215614f9757600080fd5b8151613e63816157d6565b60008060208385031215614fb557600080fd5b823567ffffffffffffffff80821115614fcd57600080fd5b818501915085601f830112614fe157600080fd5b813581811115614ff057600080fd5b86602082850101111561500257600080fd5b60209290920196919550909350505050565b60006020828403121561502657600080fd5b813567ffffffffffffffff81111561503d57600080fd5b614b3a84828501614d51565b600080600080600060a0868803121561506157600080fd5b853567ffffffffffffffff8082111561507957600080fd5b61508589838a01614d51565b9650602088013591508082111561509b57600080fd5b506150a888828901614d51565b94505060408601356150b9816157d6565b92506150c760608701614caf565b949793965091946080013592915050565b6000602082840312156150ea57600080fd5b5035919050565b60006020828403121561510357600080fd5b5051919050565b6000806040838503121561511d57600080fd5b8235915061512d60208401614caf565b90509250929050565b60008060006060848603121561514b57600080fd5b8335925061515b60208501614caf565b915061516960408501614caf565b90509250925092565b6000806040838503121561518557600080fd5b82359150602083013567ffffffffffffffff8111156151a357600080fd5b6151af85828601614ccb565b9150509250929050565b600080604083850312156151cc57600080fd5b50508035926020909101359150565b600080600080608085870312156151f157600080fd5b5050823594602084013594506040840135936060013592509050565b6000806000806000806000806000806101408b8d03121561522d57600080fd5b8a35995060208b0135985060408b0135975060608b0135965060808b0135955060a08b0135945060c08b0135935060e08b013592506101008b013591506101208b01356002811061527d57600080fd5b809150509295989b9194979a5092959850565b600081518084526020808501945080840160005b838110156152c0578151875295820195908201906001016152a4565b509495945050505050565b600081518084526152e38160208601602086016156bc565b601f01601f19169290920160200192915050565b600082516153098184602087016156bc565b9190910192915050565b60006001600160a01b0380861683526060602084015261533660608401866152cb565b9150808416604084015250949350505050565b6001600160a01b038416815282602082015260606040820152600061491260608301846152cb565b602081526000613e636020830184615290565b6040815260006153976040830185615290565b82810360208481019190915284518083528582019282019060005b818110156153d75784516001600160a01b0316835293830193918301916001016153b2565b5090979650505050505050565b6080815260006153f76080830187615290565b6020830195909552506040810192909252606090910152919050565b8d151581526001600160a01b038d1660208201526001600160a01b038c1660408201526101a06060820152600061544e6101a083018d6152cb565b8281036080840152615460818d6152cb565b90508a60a084015282810360c084015261547a818b6152cb565b905082810360e084015261548e818a6152cb565b61010084019890985250506101208101949094526101408401929092526101608301526101809091015298975050505050505050565b8215158152604060208201526000614b3a60408301846152cb565b602081526000613e6360208301846152cb565b60c08152600061550560c08301896152cb565b828103602084015261551781896152cb565b961515604084015250506001600160a01b03939093166060840152608083019190915260a09091015292915050565b86815260c06020820152600061555f60c08301886152cb565b828103604084015261557181886152cb565b951515606084015250506001600160a01b0392909216608083015260a0909101529392505050565b6000610180820190508d82528c60208301528b60408301528a60608301528960808301528860a08301528760c08301528660e08301526001600160a01b0380871661010084015280861661012084015250600484106155fa576155fa615794565b836101408301526002831061561157615611615794565b826101608301529d9c50505050505050505050505050565b604051601f8201601f1916810167ffffffffffffffff81118282101715615652576156526157c0565b604052919050565b6000821982111561566d5761566d615768565b500190565b6000826156815761568161577e565b500490565b60008160001904831182151516156156a0576156a0615768565b500290565b6000828210156156b7576156b7615768565b500390565b60005b838110156156d75781810151838201526020016156bf565b83811115611ba05750506000910152565b600181811c908216806156fc57607f821691505b6020821081141561571d57634e487b7160e01b600052602260045260246000fd5b50919050565b600060001982141561573757615737615768565b5060010190565b60008261574d5761574d61577e565b500690565b634e487b7160e01b600052600160045260246000fd5b634e487b7160e01b600052601160045260246000fd5b634e487b7160e01b600052601260045260246000fd5b634e487b7160e01b600052602160045260246000fd5b634e487b7160e01b600052603260045260246000fd5b634e487b7160e01b600052604160045260246000fd5b8015158114613bc657600080fdfea2646970667358221220309ce4a7414ef220a54a7e3d456e4060a6269e17f14fcce8b931e154edced3d064736f6c63430008070033","opcodes":"PUSH1 0xC0 PUSH1 0x40 MSTORE PUSH1 0x1 PUSH1 0x4 DUP2 SWAP1 SSTORE PUSH1 0x5 SWAP1 DUP2 SSTORE PUSH1 0x0 PUSH1 0x6 SSTORE PUSH1 0xA PUSH1 0x7 DUP2 SWAP1 SSTORE PUSH1 0x8 DUP2 SWAP1 SSTORE PUSH1 0x9 DUP2 SWAP1 SSTORE DUP1 SSTORE PUSH1 0xB SSTORE PUSH1 0xF DUP1 SLOAD PUSH1 0x1 PUSH1 0xA8 SHL PUSH1 0x1 PUSH1 0xF8 SHL SUB NOT AND PUSH6 0x100018000C35 PUSH1 0xAD SHL OR SWAP1 SSTORE CALLVALUE DUP1 ISZERO PUSH3 0x56 JUMPI PUSH1 0x0 DUP1 REVERT JUMPDEST POP PUSH1 0x40 MLOAD PUSH3 0x600E CODESIZE SUB DUP1 PUSH3 0x600E DUP4 CODECOPY DUP2 ADD PUSH1 0x40 DUP2 SWAP1 MSTORE PUSH3 0x79 SWAP2 PUSH3 0x70C JUMP JUMPDEST PUSH32 0x779877A7B0D9E8603169DDBD7836E478B4624789000000000000000000000000 PUSH1 0x80 MSTORE PUSH32 0xAB18414CD93297B0D12AC29E63CA20F515B3DB46000000000000000000000000 PUSH1 0xA0 MSTORE CALLER DUP1 PUSH1 0x0 DUP2 PUSH3 0x118 JUMPI PUSH1 0x40 MLOAD PUSH3 0x461BCD PUSH1 0xE5 SHL DUP2 MSTORE PUSH1 0x20 PUSH1 0x4 DUP3 ADD MSTORE PUSH1 0x18 PUSH1 0x24 DUP3 ADD MSTORE PUSH32 0x43616E6E6F7420736574206F776E657220746F207A65726F0000000000000000 PUSH1 0x44 DUP3 ADD MSTORE PUSH1 0x64 ADD JUMPDEST PUSH1 0x40 MLOAD DUP1 SWAP2 SUB SWAP1 REVERT JUMPDEST PUSH1 0x0 DUP1 SLOAD PUSH1 0x1 PUSH1 0x1 PUSH1 0xA0 SHL SUB NOT AND PUSH1 0x1 PUSH1 0x1 PUSH1 0xA0 SHL SUB DUP5 DUP2 AND SWAP2 SWAP1 SWAP2 OR SWAP1 SWAP2 SSTORE DUP2 AND ISZERO PUSH3 0x14B JUMPI PUSH3 0x14B DUP2 PUSH3 0x5BA JUMP JUMPDEST POP POP PUSH32 0x6E75B569A01EF56D18CAB6A8E71E6600D6CE853834D4A5748B720D06F878B3A4 PUSH1 0x2 SWAP1 DUP2 SSTORE PUSH6 0x5AF3107A4000 PUSH1 0xD SSTORE PUSH1 0xF DUP1 SLOAD CALLER PUSH1 0x1 PUSH1 0x1 PUSH1 0xA0 SHL SUB NOT SWAP2 DUP3 AND DUP2 OR SWAP1 SWAP3 SSTORE PUSH1 0xC DUP1 SLOAD DUP3 AND PUSH1 0x1 PUSH1 0x1 PUSH1 0xA0 SHL SUB DUP8 DUP2 AND SWAP2 SWAP1 SWAP2 OR SWAP1 SWAP2 SSTORE PUSH1 0x40 DUP1 MLOAD PUSH2 0x1A0 DUP2 ADD DUP3 MSTORE PUSH1 0x1 DUP1 DUP3 MSTORE PUSH1 0x20 DUP1 DUP4 ADD DUP8 DUP2 MSTORE PUSH1 0x0 DUP5 DUP7 ADD DUP2 DUP2 MSTORE DUP7 MLOAD DUP1 DUP9 ADD DUP9 MSTORE PUSH1 0x7 DUP2 MSTORE PUSH7 0x105D5D1BD8995D PUSH1 0xCA SHL DUP2 DUP7 ADD MSTORE PUSH1 0x60 DUP8 ADD SWAP1 DUP2 MSTORE DUP8 MLOAD DUP1 DUP7 ADD DUP10 MSTORE DUP4 DUP2 MSTORE PUSH1 0x80 DUP9 ADD MSTORE PUSH1 0xA0 DUP8 ADD DUP4 SWAP1 MSTORE DUP8 MLOAD DUP1 DUP10 ADD DUP10 MSTORE PUSH1 0x18 DUP2 MSTORE PUSH32 0x6175746F6265746C6F747465727940676D61696C2E636F6D0000000000000000 DUP2 DUP8 ADD MSTORE PUSH1 0xC0 DUP9 ADD MSTORE DUP8 MLOAD DUP1 DUP7 ADD DUP10 MSTORE DUP4 DUP2 MSTORE PUSH1 0xE0 DUP9 ADD MSTORE PUSH1 0x5 SLOAD PUSH2 0x100 DUP1 DUP10 ADD SWAP2 SWAP1 SWAP2 MSTORE PUSH2 0x120 DUP9 ADD DUP5 SWAP1 MSTORE PUSH2 0x140 DUP9 ADD DUP5 SWAP1 MSTORE PUSH13 0xC9F2C9CD04674EDEA40000000 PUSH2 0x160 DUP10 ADD MSTORE PUSH2 0x180 DUP9 ADD DUP5 SWAP1 MSTORE SWAP11 DUP4 MSTORE PUSH1 0x11 DUP6 MSTORE SWAP7 SWAP1 SWAP2 KECCAK256 DUP6 MLOAD DUP2 SLOAD SWAP4 MLOAD PUSH1 0x1 PUSH1 0x1 PUSH1 0xA8 SHL SUB NOT SWAP1 SWAP5 AND SWAP1 ISZERO ISZERO PUSH2 0x100 PUSH1 0x1 PUSH1 0xA8 SHL SUB NOT AND OR SWAP3 DUP9 AND SWAP1 SWAP10 MUL SWAP2 SWAP1 SWAP2 OR DUP9 SSTORE MLOAD SWAP2 DUP8 ADD DUP1 SLOAD SWAP1 SWAP7 AND SWAP2 SWAP1 SWAP5 AND OR SWAP1 SWAP4 SSTORE MLOAD DUP1 MLOAD SWAP3 SWAP6 POP SWAP3 SWAP4 PUSH3 0x2E2 SWAP4 SWAP1 DUP6 ADD SWAP3 SWAP2 ADD SWAP1 PUSH3 0x666 JUMP JUMPDEST POP PUSH1 0x80 DUP3 ADD MLOAD DUP1 MLOAD PUSH3 0x300 SWAP2 PUSH1 0x3 DUP5 ADD SWAP2 PUSH1 0x20 SWAP1 SWAP2 ADD SWAP1 PUSH3 0x666 JUMP JUMPDEST POP PUSH1 0xA0 DUP3 ADD MLOAD PUSH1 0x4 DUP3 ADD SSTORE PUSH1 0xC0 DUP3 ADD MLOAD DUP1 MLOAD PUSH3 0x328 SWAP2 PUSH1 0x5 DUP5 ADD SWAP2 PUSH1 0x20 SWAP1 SWAP2 ADD SWAP1 PUSH3 0x666 JUMP JUMPDEST POP PUSH1 0xE0 DUP3 ADD MLOAD DUP1 MLOAD PUSH3 0x346 SWAP2 PUSH1 0x6 DUP5 ADD SWAP2 PUSH1 0x20 SWAP1 SWAP2 ADD SWAP1 PUSH3 0x666 JUMP JUMPDEST POP PUSH2 0x100 DUP3 ADD MLOAD DUP2 PUSH1 0x7 ADD SSTORE PUSH2 0x120 DUP3 ADD MLOAD DUP2 PUSH1 0x8 ADD SSTORE PUSH2 0x140 DUP3 ADD MLOAD DUP2 PUSH1 0x9 ADD SSTORE PUSH2 0x160 DUP3 ADD MLOAD DUP2 PUSH1 0xA ADD SSTORE PUSH2 0x180 DUP3 ADD MLOAD DUP2 PUSH1 0xB ADD SSTORE SWAP1 POP POP PUSH1 0x40 MLOAD DUP1 PUSH2 0x1A0 ADD PUSH1 0x40 MSTORE DUP1 PUSH1 0x1 ISZERO ISZERO DUP2 MSTORE PUSH1 0x20 ADD CALLER PUSH1 0x1 PUSH1 0x1 PUSH1 0xA0 SHL SUB AND DUP2 MSTORE PUSH1 0x20 ADD PUSH1 0x0 PUSH1 0x1 PUSH1 0x1 PUSH1 0xA0 SHL SUB AND DUP2 MSTORE PUSH1 0x20 ADD PUSH1 0x40 MLOAD DUP1 PUSH1 0x40 ADD PUSH1 0x40 MSTORE DUP1 PUSH1 0x7 DUP2 MSTORE PUSH1 0x20 ADD PUSH7 0x105D5D1BD8995D PUSH1 0xCA SHL DUP2 MSTORE POP DUP2 MSTORE PUSH1 0x20 ADD PUSH1 0x40 MLOAD DUP1 PUSH1 0x20 ADD PUSH1 0x40 MSTORE DUP1 PUSH1 0x0 DUP2 MSTORE POP DUP2 MSTORE PUSH1 0x20 ADD PUSH1 0x0 DUP2 MSTORE PUSH1 0x20 ADD PUSH1 0x40 MLOAD DUP1 PUSH1 0x40 ADD PUSH1 0x40 MSTORE DUP1 PUSH1 0x18 DUP2 MSTORE PUSH1 0x20 ADD PUSH32 0x6175746F6265746C6F747465727940676D61696C2E636F6D0000000000000000 DUP2 MSTORE POP DUP2 MSTORE PUSH1 0x20 ADD PUSH1 0x40 MLOAD DUP1 PUSH1 0x20 ADD PUSH1 0x40 MSTORE DUP1 PUSH1 0x0 DUP2 MSTORE POP DUP2 MSTORE PUSH1 0x20 ADD PUSH1 0x5 SLOAD DUP2 MSTORE PUSH1 0x20 ADD PUSH1 0x0 DUP2 MSTORE PUSH1 0x20 ADD PUSH1 0x0 DUP2 MSTORE PUSH1 0x20 ADD PUSH13 0xC9F2C9CD04674EDEA40000000 DUP2 MSTORE PUSH1 0x20 ADD PUSH1 0x0 DUP2 MSTORE POP PUSH1 0x10 PUSH1 0x0 PUSH1 0x5 PUSH1 0x0 DUP2 SLOAD DUP1 SWAP3 SWAP2 SWAP1 PUSH3 0x48D SWAP1 PUSH3 0x77B JUMP JUMPDEST SWAP1 SWAP2 SSTORE POP DUP2 MSTORE PUSH1 0x20 DUP1 DUP3 ADD SWAP3 SWAP1 SWAP3 MSTORE PUSH1 0x40 SWAP1 DUP2 ADD PUSH1 0x0 KECCAK256 DUP4 MLOAD DUP2 SLOAD DUP6 DUP6 ADD MLOAD PUSH1 0x1 PUSH1 0x1 PUSH1 0xA8 SHL SUB NOT SWAP1 SWAP2 AND SWAP2 ISZERO ISZERO PUSH2 0x100 PUSH1 0x1 PUSH1 0xA8 SHL SUB NOT AND SWAP2 SWAP1 SWAP2 OR PUSH2 0x100 PUSH1 0x1 PUSH1 0x1 PUSH1 0xA0 SHL SUB SWAP3 DUP4 AND MUL OR DUP3 SSTORE SWAP2 DUP5 ADD MLOAD PUSH1 0x1 DUP3 ADD DUP1 SLOAD PUSH1 0x1 PUSH1 0x1 PUSH1 0xA0 SHL SUB NOT AND SWAP2 SWAP1 SWAP4 AND OR SWAP1 SWAP2 SSTORE PUSH1 0x60 DUP4 ADD MLOAD DUP1 MLOAD SWAP2 SWAP3 PUSH3 0x515 SWAP3 PUSH1 0x2 DUP6 ADD SWAP3 SWAP1 SWAP2 ADD SWAP1 PUSH3 0x666 JUMP JUMPDEST POP PUSH1 0x80 DUP3 ADD MLOAD DUP1 MLOAD PUSH3 0x533 SWAP2 PUSH1 0x3 DUP5 ADD SWAP2 PUSH1 0x20 SWAP1 SWAP2 ADD SWAP1 PUSH3 0x666 JUMP JUMPDEST POP PUSH1 0xA0 DUP3 ADD MLOAD PUSH1 0x4 DUP3 ADD SSTORE PUSH1 0xC0 DUP3 ADD MLOAD DUP1 MLOAD PUSH3 0x55B SWAP2 PUSH1 0x5 DUP5 ADD SWAP2 PUSH1 0x20 SWAP1 SWAP2 ADD SWAP1 PUSH3 0x666 JUMP JUMPDEST POP PUSH1 0xE0 DUP3 ADD MLOAD DUP1 MLOAD PUSH3 0x579 SWAP2 PUSH1 0x6 DUP5 ADD SWAP2 PUSH1 0x20 SWAP1 SWAP2 ADD SWAP1 PUSH3 0x666 JUMP JUMPDEST POP PUSH2 0x100 DUP3 ADD MLOAD PUSH1 0x7 DUP3 ADD SSTORE PUSH2 0x120 DUP3 ADD MLOAD PUSH1 0x8 DUP3 ADD SSTORE PUSH2 0x140 DUP3 ADD MLOAD PUSH1 0x9 DUP3 ADD SSTORE PUSH2 0x160 DUP3 ADD MLOAD PUSH1 0xA DUP3 ADD SSTORE PUSH2 0x180 SWAP1 SWAP2 ADD MLOAD PUSH1 0xB SWAP1 SWAP2 ADD SSTORE POP PUSH3 0x7A5 JUMP JUMPDEST PUSH1 0x1 PUSH1 0x1 PUSH1 0xA0 SHL SUB DUP2 AND CALLER EQ ISZERO PUSH3 0x615 JUMPI PUSH1 0x40 MLOAD PUSH3 0x461BCD PUSH1 0xE5 SHL DUP2 MSTORE PUSH1 0x20 PUSH1 0x4 DUP3 ADD MSTORE PUSH1 0x17 PUSH1 0x24 DUP3 ADD MSTORE PUSH32 0x43616E6E6F74207472616E7366657220746F2073656C66000000000000000000 PUSH1 0x44 DUP3 ADD MSTORE PUSH1 0x64 ADD PUSH3 0x10F JUMP JUMPDEST PUSH1 0x1 DUP1 SLOAD PUSH1 0x1 PUSH1 0x1 PUSH1 0xA0 SHL SUB NOT AND PUSH1 0x1 PUSH1 0x1 PUSH1 0xA0 SHL SUB DUP4 DUP2 AND SWAP2 DUP3 OR SWAP1 SWAP3 SSTORE PUSH1 0x0 DUP1 SLOAD PUSH1 0x40 MLOAD SWAP3 SWAP4 AND SWAP2 PUSH32 0xED8889F560326EB138920D842192F0EB3DD22B4F139C87A2C57538E05BAE1278 SWAP2 SWAP1 LOG3 POP JUMP JUMPDEST DUP3 DUP1 SLOAD PUSH3 0x674 SWAP1 PUSH3 0x73E JUMP JUMPDEST SWAP1 PUSH1 0x0 MSTORE PUSH1 0x20 PUSH1 0x0 KECCAK256 SWAP1 PUSH1 0x1F ADD PUSH1 0x20 SWAP1 DIV DUP2 ADD SWAP3 DUP3 PUSH3 0x698 JUMPI PUSH1 0x0 DUP6 SSTORE PUSH3 0x6E3 JUMP JUMPDEST DUP3 PUSH1 0x1F LT PUSH3 0x6B3 JUMPI DUP1 MLOAD PUSH1 0xFF NOT AND DUP4 DUP1 ADD OR DUP6 SSTORE PUSH3 0x6E3 JUMP JUMPDEST DUP3 DUP1 ADD PUSH1 0x1 ADD DUP6 SSTORE DUP3 ISZERO PUSH3 0x6E3 JUMPI SWAP2 DUP3 ADD JUMPDEST DUP3 DUP2 GT ISZERO PUSH3 0x6E3 JUMPI DUP3 MLOAD DUP3 SSTORE SWAP2 PUSH1 0x20 ADD SWAP2 SWAP1 PUSH1 0x1 ADD SWAP1 PUSH3 0x6C6 JUMP JUMPDEST POP PUSH3 0x6F1 SWAP3 SWAP2 POP PUSH3 0x6F5 JUMP JUMPDEST POP SWAP1 JUMP JUMPDEST JUMPDEST DUP1 DUP3 GT ISZERO PUSH3 0x6F1 JUMPI PUSH1 0x0 DUP2 SSTORE PUSH1 0x1 ADD PUSH3 0x6F6 JUMP JUMPDEST PUSH1 0x0 PUSH1 0x20 DUP3 DUP5 SUB SLT ISZERO PUSH3 0x71F JUMPI PUSH1 0x0 DUP1 REVERT JUMPDEST DUP2 MLOAD PUSH1 0x1 PUSH1 0x1 PUSH1 0xA0 SHL SUB DUP2 AND DUP2 EQ PUSH3 0x737 JUMPI PUSH1 0x0 DUP1 REVERT JUMPDEST SWAP4 SWAP3 POP POP POP JUMP JUMPDEST PUSH1 0x1 DUP2 DUP2 SHR SWAP1 DUP3 AND DUP1 PUSH3 0x753 JUMPI PUSH1 0x7F DUP3 AND SWAP2 POP JUMPDEST PUSH1 0x20 DUP3 LT DUP2 EQ ISZERO PUSH3 0x775 JUMPI PUSH4 0x4E487B71 PUSH1 0xE0 SHL PUSH1 0x0 MSTORE PUSH1 0x22 PUSH1 0x4 MSTORE PUSH1 0x24 PUSH1 0x0 REVERT JUMPDEST POP SWAP2 SWAP1 POP JUMP JUMPDEST PUSH1 0x0 PUSH1 0x0 NOT DUP3 EQ ISZERO PUSH3 0x79E JUMPI PUSH4 0x4E487B71 PUSH1 0xE0 SHL PUSH1 0x0 MSTORE PUSH1 0x11 PUSH1 0x4 MSTORE PUSH1 0x24 PUSH1 0x0 REVERT JUMPDEST POP PUSH1 0x1 ADD SWAP1 JUMP JUMPDEST PUSH1 0x80 MLOAD PUSH1 0x60 SHR PUSH1 0xA0 MLOAD PUSH1 0x60 SHR PUSH2 0x581A PUSH3 0x7F4 PUSH1 0x0 CODECOPY PUSH1 0x0 DUP2 DUP2 PUSH2 0xDC6 ADD MSTORE DUP2 DUP2 PUSH2 0x4984 ADD MSTORE PUSH2 0x4AAB ADD MSTORE PUSH1 0x0 DUP2 DUP2 PUSH2 0x322E ADD MSTORE DUP2 DUP2 PUSH2 0x3E84 ADD MSTORE DUP2 DUP2 PUSH2 0x40EA ADD MSTORE PUSH2 0x495A ADD MSTORE PUSH2 0x581A PUSH1 0x0 RETURN INVALID PUSH1 0x80 PUSH1 0x40 MSTORE PUSH1 0x4 CALLDATASIZE LT PUSH2 0x397 JUMPI PUSH1 0x0 CALLDATALOAD PUSH1 0xE0 SHR DUP1 PUSH4 0x7B3D5AD2 GT PUSH2 0x1DC JUMPI DUP1 PUSH4 0xBEF7E5A2 GT PUSH2 0x102 JUMPI DUP1 PUSH4 0xE043E7BC GT PUSH2 0xA0 JUMPI DUP1 PUSH4 0xEA9FAE80 GT PUSH2 0x6F JUMPI DUP1 PUSH4 0xEA9FAE80 EQ PUSH2 0xB87 JUMPI DUP1 PUSH4 0xF2FDE38B EQ PUSH2 0xBA7 JUMPI DUP1 PUSH4 0xF851A440 EQ PUSH2 0xBC7 JUMPI DUP1 PUSH4 0xF970DD02 EQ PUSH2 0xBE7 JUMPI PUSH1 0x0 DUP1 REVERT JUMPDEST DUP1 PUSH4 0xE043E7BC EQ PUSH2 0xB27 JUMPI DUP1 PUSH4 0xE086E5EC EQ PUSH2 0xB54 JUMPI DUP1 PUSH4 0xE580F47B EQ PUSH2 0xB5C JUMPI DUP1 PUSH4 0xE9A9C50C EQ PUSH2 0xB72 JUMPI PUSH1 0x0 DUP1 REVERT JUMPDEST DUP1 PUSH4 0xC6B7CB69 GT PUSH2 0xDC JUMPI DUP1 PUSH4 0xC6B7CB69 EQ PUSH2 0xABE JUMPI DUP1 PUSH4 0xD61752FE EQ PUSH2 0xADE JUMPI DUP1 PUSH4 0xD7E2368F EQ PUSH2 0xAF1 JUMPI DUP1 PUSH4 0xDD73656D EQ PUSH2 0xB07 JUMPI PUSH1 0x0 DUP1 REVERT JUMPDEST DUP1 PUSH4 0xBEF7E5A2 EQ PUSH2 0xA3B JUMPI DUP1 PUSH4 0xC0DAE685 EQ PUSH2 0xA68 JUMPI DUP1 PUSH4 0xC41CE92E EQ PUSH2 0xA9E JUMPI PUSH1 0x0 DUP1 REVERT JUMPDEST DUP1 PUSH4 0x96169995 GT PUSH2 0x17A JUMPI DUP1 PUSH4 0xAA37DB6C GT PUSH2 0x149 JUMPI DUP1 PUSH4 0xAA37DB6C EQ PUSH2 0x9C1 JUMPI DUP1 PUSH4 0xB2DD29F3 EQ PUSH2 0x9D7 JUMPI DUP1 PUSH4 0xB43F0B2B EQ PUSH2 0x9ED JUMPI DUP1 PUSH4 0xBB0AE217 EQ PUSH2 0xA28 JUMPI PUSH1 0x0 DUP1 REVERT JUMPDEST DUP1 PUSH4 0x96169995 EQ PUSH2 0x86B JUMPI DUP1 PUSH4 0x9D76EA58 EQ PUSH2 0x898 JUMPI DUP1 PUSH4 0xA57D1560 EQ PUSH2 0x8B8 JUMPI DUP1 PUSH4 0xAA10304C EQ PUSH2 0x95F JUMPI PUSH1 0x0 DUP1 REVERT JUMPDEST DUP1 PUSH4 0x8DA5CB5B GT PUSH2 0x1B6 JUMPI DUP1 PUSH4 0x8DA5CB5B EQ PUSH2 0x7EB JUMPI DUP1 PUSH4 0x8DC654A2 EQ PUSH2 0x81D JUMPI DUP1 PUSH4 0x91489105 EQ PUSH2 0x832 JUMPI DUP1 PUSH4 0x94D1283A EQ PUSH2 0x83A JUMPI PUSH1 0x0 DUP1 REVERT JUMPDEST DUP1 PUSH4 0x7B3D5AD2 EQ PUSH2 0x789 JUMPI DUP1 PUSH4 0x8796BA8C EQ PUSH2 0x7A9 JUMPI DUP1 PUSH4 0x8B7AFE2E EQ PUSH2 0x7D6 JUMPI PUSH1 0x0 DUP1 REVERT JUMPDEST DUP1 PUSH4 0x4A2A1FB0 GT PUSH2 0x2C1 JUMPI DUP1 PUSH4 0x6B65E844 GT PUSH2 0x25F JUMPI DUP1 PUSH4 0x75829DEF GT PUSH2 0x22E JUMPI DUP1 PUSH4 0x75829DEF EQ PUSH2 0x70C JUMPI DUP1 PUSH4 0x75E9340A EQ PUSH2 0x72C JUMPI DUP1 PUSH4 0x7782D576 EQ PUSH2 0x742 JUMPI DUP1 PUSH4 0x79BA5097 EQ PUSH2 0x774 JUMPI PUSH1 0x0 DUP1 REVERT JUMPDEST DUP1 PUSH4 0x6B65E844 EQ PUSH2 0x66F JUMPI DUP1 PUSH4 0x6BF8DC74 EQ PUSH2 0x68F JUMPI DUP1 PUSH4 0x6E04FF0D EQ PUSH2 0x6C8 JUMPI DUP1 PUSH4 0x6EDF7283 EQ PUSH2 0x6F6 JUMPI PUSH1 0x0 DUP1 REVERT JUMPDEST DUP1 PUSH4 0x4E7ABE25 GT PUSH2 0x29B JUMPI DUP1 PUSH4 0x4E7ABE25 EQ PUSH2 0x5F6 JUMPI DUP1 PUSH4 0x51D4568F EQ PUSH2 0x60C JUMPI DUP1 PUSH4 0x5F8E26A7 EQ PUSH2 0x614 JUMPI DUP1 PUSH4 0x67EECD5A EQ PUSH2 0x642 JUMPI PUSH1 0x0 DUP1 REVERT JUMPDEST DUP1 PUSH4 0x4A2A1FB0 EQ PUSH2 0x5B0 JUMPI DUP1 PUSH4 0x4C4426E8 EQ PUSH2 0x5D0 JUMPI DUP1 PUSH4 0x4CE6873B EQ PUSH2 0x5E3 JUMPI PUSH1 0x0 DUP1 REVERT JUMPDEST DUP1 PUSH4 0x2751134A GT PUSH2 0x339 JUMPI DUP1 PUSH4 0x355B9098 GT PUSH2 0x308 JUMPI DUP1 PUSH4 0x355B9098 EQ PUSH2 0x53A JUMPI DUP1 PUSH4 0x3BBD391E EQ PUSH2 0x550 JUMPI DUP1 PUSH4 0x3DE55F95 EQ PUSH2 0x563 JUMPI DUP1 PUSH4 0x4585E33B EQ PUSH2 0x590 JUMPI PUSH1 0x0 DUP1 REVERT JUMPDEST DUP1 PUSH4 0x2751134A EQ PUSH2 0x4A1 JUMPI DUP1 PUSH4 0x2F24D5DC EQ PUSH2 0x4CE JUMPI DUP1 PUSH4 0x30148970 EQ PUSH2 0x4E1 JUMPI DUP1 PUSH4 0x3295B5B0 EQ PUSH2 0x501 JUMPI PUSH1 0x0 DUP1 REVERT JUMPDEST DUP1 PUSH4 0x1C9C8E99 GT PUSH2 0x375 JUMPI DUP1 PUSH4 0x1C9C8E99 EQ PUSH2 0x3FC JUMPI DUP1 PUSH4 0x1FE543E3 EQ PUSH2 0x429 JUMPI DUP1 PUSH4 0x26617DDB EQ PUSH2 0x449 JUMPI DUP1 PUSH4 0x26A4E8D2 EQ PUSH2 0x481 JUMPI PUSH1 0x0 DUP1 REVERT JUMPDEST DUP1 PUSH4 0x19C08F5 EQ PUSH2 0x39C JUMPI DUP1 PUSH4 0x4C76AF0 EQ PUSH2 0x3C5 JUMPI DUP1 PUSH4 0x16A1A468 EQ PUSH2 0x3CF JUMPI JUMPDEST PUSH1 0x0 DUP1 REVERT JUMPDEST CALLVALUE DUP1 ISZERO PUSH2 0x3A8 JUMPI PUSH1 0x0 DUP1 REVERT JUMPDEST POP PUSH2 0x3B2 PUSH1 0x5 SLOAD DUP2 JUMP JUMPDEST PUSH1 0x40 MLOAD SWAP1 DUP2 MSTORE PUSH1 0x20 ADD JUMPDEST PUSH1 0x40 MLOAD DUP1 SWAP2 SUB SWAP1 RETURN JUMPDEST PUSH2 0x3CD PUSH2 0xC14 JUMP JUMPDEST STOP JUMPDEST CALLVALUE DUP1 ISZERO PUSH2 0x3DB JUMPI PUSH1 0x0 DUP1 REVERT JUMPDEST POP PUSH2 0x3B2 PUSH2 0x3EA CALLDATASIZE PUSH1 0x4 PUSH2 0x4DC1 JUMP JUMPDEST PUSH1 0x1A PUSH1 0x20 MSTORE PUSH1 0x0 SWAP1 DUP2 MSTORE PUSH1 0x40 SWAP1 KECCAK256 SLOAD DUP2 JUMP JUMPDEST CALLVALUE DUP1 ISZERO PUSH2 0x408 JUMPI PUSH1 0x0 DUP1 REVERT JUMPDEST POP PUSH2 0x41C PUSH2 0x417 CALLDATASIZE PUSH1 0x4 PUSH2 0x4DC1 JUMP JUMPDEST PUSH2 0xCCF JUMP JUMPDEST PUSH1 0x40 MLOAD PUSH2 0x3BC SWAP2 SWAP1 PUSH2 0x5371 JUMP JUMPDEST CALLVALUE DUP1 ISZERO PUSH2 0x435 JUMPI PUSH1 0x0 DUP1 REVERT JUMPDEST POP PUSH2 0x3CD PUSH2 0x444 CALLDATASIZE PUSH1 0x4 PUSH2 0x5172 JUMP JUMPDEST PUSH2 0xDBB JUMP JUMPDEST CALLVALUE DUP1 ISZERO PUSH2 0x455 JUMPI PUSH1 0x0 DUP1 REVERT JUMPDEST POP PUSH2 0x3B2 PUSH2 0x464 CALLDATASIZE PUSH1 0x4 PUSH2 0x510A JUMP JUMPDEST PUSH1 0x23 PUSH1 0x20 SWAP1 DUP2 MSTORE PUSH1 0x0 SWAP3 DUP4 MSTORE PUSH1 0x40 DUP1 DUP5 KECCAK256 SWAP1 SWAP2 MSTORE SWAP1 DUP3 MSTORE SWAP1 KECCAK256 SLOAD DUP2 JUMP JUMPDEST CALLVALUE DUP1 ISZERO PUSH2 0x48D JUMPI PUSH1 0x0 DUP1 REVERT JUMPDEST POP PUSH2 0x3CD PUSH2 0x49C CALLDATASIZE PUSH1 0x4 PUSH2 0x4DC1 JUMP JUMPDEST PUSH2 0xE41 JUMP JUMPDEST CALLVALUE DUP1 ISZERO PUSH2 0x4AD JUMPI PUSH1 0x0 DUP1 REVERT JUMPDEST POP PUSH2 0x3B2 PUSH2 0x4BC CALLDATASIZE PUSH1 0x4 PUSH2 0x4DC1 JUMP JUMPDEST PUSH1 0x16 PUSH1 0x20 MSTORE PUSH1 0x0 SWAP1 DUP2 MSTORE PUSH1 0x40 SWAP1 KECCAK256 SLOAD DUP2 JUMP JUMPDEST PUSH2 0x3CD PUSH2 0x4DC CALLDATASIZE PUSH1 0x4 PUSH2 0x51B9 JUMP JUMPDEST PUSH2 0xEAB JUMP JUMPDEST CALLVALUE DUP1 ISZERO PUSH2 0x4ED JUMPI PUSH1 0x0 DUP1 REVERT JUMPDEST POP PUSH2 0x3CD PUSH2 0x4FC CALLDATASIZE PUSH1 0x4 PUSH2 0x5049 JUMP JUMPDEST PUSH2 0x11E0 JUMP JUMPDEST CALLVALUE DUP1 ISZERO PUSH2 0x50D JUMPI PUSH1 0x0 DUP1 REVERT JUMPDEST POP PUSH2 0x521 PUSH2 0x51C CALLDATASIZE PUSH1 0x4 PUSH2 0x50D8 JUMP JUMPDEST PUSH2 0x1494 JUMP JUMPDEST PUSH1 0x40 MLOAD PUSH2 0x3BC SWAP14 SWAP13 SWAP12 SWAP11 SWAP10 SWAP9 SWAP8 SWAP7 SWAP6 SWAP5 SWAP4 SWAP3 SWAP2 SWAP1 PUSH2 0x5413 JUMP JUMPDEST CALLVALUE DUP1 ISZERO PUSH2 0x546 JUMPI PUSH1 0x0 DUP1 REVERT JUMPDEST POP PUSH2 0x3B2 PUSH1 0xA SLOAD DUP2 JUMP JUMPDEST PUSH2 0x3CD PUSH2 0x55E CALLDATASIZE PUSH1 0x4 PUSH2 0x51B9 JUMP JUMPDEST PUSH2 0x1725 JUMP JUMPDEST CALLVALUE DUP1 ISZERO PUSH2 0x56F JUMPI PUSH1 0x0 DUP1 REVERT JUMPDEST POP PUSH2 0x3B2 PUSH2 0x57E CALLDATASIZE PUSH1 0x4 PUSH2 0x4DC1 JUMP JUMPDEST PUSH1 0x17 PUSH1 0x20 MSTORE PUSH1 0x0 SWAP1 DUP2 MSTORE PUSH1 0x40 SWAP1 KECCAK256 SLOAD DUP2 JUMP JUMPDEST CALLVALUE DUP1 ISZERO PUSH2 0x59C JUMPI PUSH1 0x0 DUP1 REVERT JUMPDEST POP PUSH2 0x3CD PUSH2 0x5AB CALLDATASIZE PUSH1 0x4 PUSH2 0x4FA2 JUMP JUMPDEST PUSH2 0x1920 JUMP JUMPDEST CALLVALUE DUP1 ISZERO PUSH2 0x5BC JUMPI PUSH1 0x0 DUP1 REVERT JUMPDEST POP PUSH2 0x3CD PUSH2 0x5CB CALLDATASIZE PUSH1 0x4 PUSH2 0x5136 JUMP JUMPDEST PUSH2 0x1A58 JUMP JUMPDEST PUSH2 0x3CD PUSH2 0x5DE CALLDATASIZE PUSH1 0x4 PUSH2 0x4DDC JUMP JUMPDEST PUSH2 0x1BA6 JUMP JUMPDEST PUSH2 0x3CD PUSH2 0x5F1 CALLDATASIZE PUSH1 0x4 PUSH2 0x520D JUMP JUMPDEST PUSH2 0x20B8 JUMP JUMPDEST CALLVALUE DUP1 ISZERO PUSH2 0x602 JUMPI PUSH1 0x0 DUP1 REVERT JUMPDEST POP PUSH2 0x3B2 PUSH1 0x7 SLOAD DUP2 JUMP JUMPDEST PUSH2 0x3CD PUSH2 0x27E7 JUMP JUMPDEST CALLVALUE DUP1 ISZERO PUSH2 0x620 JUMPI PUSH1 0x0 DUP1 REVERT JUMPDEST POP PUSH2 0x634 PUSH2 0x62F CALLDATASIZE PUSH1 0x4 PUSH2 0x50D8 JUMP JUMPDEST PUSH2 0x28C2 JUMP JUMPDEST PUSH1 0x40 MLOAD PUSH2 0x3BC SWAP3 SWAP2 SWAP1 PUSH2 0x5384 JUMP JUMPDEST CALLVALUE DUP1 ISZERO PUSH2 0x64E JUMPI PUSH1 0x0 DUP1 REVERT JUMPDEST POP PUSH2 0x3B2 PUSH2 0x65D CALLDATASIZE PUSH1 0x4 PUSH2 0x50D8 JUMP JUMPDEST PUSH1 0x1E PUSH1 0x20 MSTORE PUSH1 0x0 SWAP1 DUP2 MSTORE PUSH1 0x40 SWAP1 KECCAK256 SLOAD DUP2 JUMP JUMPDEST CALLVALUE DUP1 ISZERO PUSH2 0x67B JUMPI PUSH1 0x0 DUP1 REVERT JUMPDEST POP PUSH2 0x521 PUSH2 0x68A CALLDATASIZE PUSH1 0x4 PUSH2 0x4DC1 JUMP JUMPDEST PUSH2 0x2AA7 JUMP JUMPDEST CALLVALUE DUP1 ISZERO PUSH2 0x69B JUMPI PUSH1 0x0 DUP1 REVERT JUMPDEST POP PUSH2 0x3CD PUSH2 0x6AA CALLDATASIZE PUSH1 0x4 PUSH2 0x4F68 JUMP JUMPDEST PUSH1 0xF DUP1 SLOAD SWAP2 ISZERO ISZERO PUSH1 0x1 PUSH1 0xA0 SHL MUL PUSH1 0xFF PUSH1 0xA0 SHL NOT SWAP1 SWAP3 AND SWAP2 SWAP1 SWAP2 OR SWAP1 SSTORE JUMP JUMPDEST CALLVALUE DUP1 ISZERO PUSH2 0x6D4 JUMPI PUSH1 0x0 DUP1 REVERT JUMPDEST POP PUSH2 0x6E8 PUSH2 0x6E3 CALLDATASIZE PUSH1 0x4 PUSH2 0x4FA2 JUMP JUMPDEST PUSH2 0x2AE7 JUMP JUMPDEST PUSH1 0x40 MLOAD PUSH2 0x3BC SWAP3 SWAP2 SWAP1 PUSH2 0x54C4 JUMP JUMPDEST CALLVALUE DUP1 ISZERO PUSH2 0x702 JUMPI PUSH1 0x0 DUP1 REVERT JUMPDEST POP PUSH2 0x3B2 PUSH1 0x3 SLOAD DUP2 JUMP JUMPDEST CALLVALUE DUP1 ISZERO PUSH2 0x718 JUMPI PUSH1 0x0 DUP1 REVERT JUMPDEST POP PUSH2 0x3CD PUSH2 0x727 CALLDATASIZE PUSH1 0x4 PUSH2 0x4DC1 JUMP JUMPDEST PUSH2 0x2C27 JUMP JUMPDEST CALLVALUE DUP1 ISZERO PUSH2 0x738 JUMPI PUSH1 0x0 DUP1 REVERT JUMPDEST POP PUSH2 0x3B2 PUSH1 0x8 SLOAD DUP2 JUMP JUMPDEST CALLVALUE DUP1 ISZERO PUSH2 0x74E JUMPI PUSH1 0x0 DUP1 REVERT JUMPDEST POP PUSH2 0x762 PUSH2 0x75D CALLDATASIZE PUSH1 0x4 PUSH2 0x4DC1 JUMP JUMPDEST PUSH2 0x2CA4 JUMP JUMPDEST PUSH1 0x40 MLOAD PUSH2 0x3BC SWAP7 SWAP6 SWAP5 SWAP4 SWAP3 SWAP2 SWAP1 PUSH2 0x54F2 JUMP JUMPDEST CALLVALUE DUP1 ISZERO PUSH2 0x780 JUMPI PUSH1 0x0 DUP1 REVERT JUMPDEST POP PUSH2 0x3CD PUSH2 0x2DF6 JUMP JUMPDEST CALLVALUE DUP1 ISZERO PUSH2 0x795 JUMPI PUSH1 0x0 DUP1 REVERT JUMPDEST POP PUSH2 0x3CD PUSH2 0x7A4 CALLDATASIZE PUSH1 0x4 PUSH2 0x5049 JUMP JUMPDEST PUSH2 0x2EA7 JUMP JUMPDEST CALLVALUE DUP1 ISZERO PUSH2 0x7B5 JUMPI PUSH1 0x0 DUP1 REVERT JUMPDEST POP PUSH2 0x3B2 PUSH2 0x7C4 CALLDATASIZE PUSH1 0x4 PUSH2 0x50D8 JUMP JUMPDEST PUSH1 0x1C PUSH1 0x20 MSTORE PUSH1 0x0 SWAP1 DUP2 MSTORE PUSH1 0x40 SWAP1 KECCAK256 SLOAD DUP2 JUMP JUMPDEST CALLVALUE DUP1 ISZERO PUSH2 0x7E2 JUMPI PUSH1 0x0 DUP1 REVERT JUMPDEST POP PUSH2 0x3B2 PUSH2 0x3181 JUMP JUMPDEST CALLVALUE DUP1 ISZERO PUSH2 0x7F7 JUMPI PUSH1 0x0 DUP1 REVERT JUMPDEST POP PUSH1 0x0 SLOAD PUSH1 0x1 PUSH1 0x1 PUSH1 0xA0 SHL SUB AND JUMPDEST PUSH1 0x40 MLOAD PUSH1 0x1 PUSH1 0x1 PUSH1 0xA0 SHL SUB SWAP1 SWAP2 AND DUP2 MSTORE PUSH1 0x20 ADD PUSH2 0x3BC JUMP JUMPDEST CALLVALUE DUP1 ISZERO PUSH2 0x829 JUMPI PUSH1 0x0 DUP1 REVERT JUMPDEST POP PUSH2 0x3CD PUSH2 0x31D1 JUMP JUMPDEST PUSH2 0x3CD PUSH2 0x339E JUMP JUMPDEST CALLVALUE DUP1 ISZERO PUSH2 0x846 JUMPI PUSH1 0x0 DUP1 REVERT JUMPDEST POP PUSH1 0xF SLOAD PUSH2 0x85B SWAP1 PUSH1 0x1 PUSH1 0xA0 SHL SWAP1 DIV PUSH1 0xFF AND DUP2 JUMP JUMPDEST PUSH1 0x40 MLOAD SWAP1 ISZERO ISZERO DUP2 MSTORE PUSH1 0x20 ADD PUSH2 0x3BC JUMP JUMPDEST CALLVALUE DUP1 ISZERO PUSH2 0x877 JUMPI PUSH1 0x0 DUP1 REVERT JUMPDEST POP PUSH2 0x3B2 PUSH2 0x886 CALLDATASIZE PUSH1 0x4 PUSH2 0x4DC1 JUMP JUMPDEST PUSH1 0x19 PUSH1 0x20 MSTORE PUSH1 0x0 SWAP1 DUP2 MSTORE PUSH1 0x40 SWAP1 KECCAK256 SLOAD DUP2 JUMP JUMPDEST CALLVALUE DUP1 ISZERO PUSH2 0x8A4 JUMPI PUSH1 0x0 DUP1 REVERT JUMPDEST POP PUSH1 0xC SLOAD PUSH2 0x805 SWAP1 PUSH1 0x1 PUSH1 0x1 PUSH1 0xA0 SHL SUB AND DUP2 JUMP JUMPDEST CALLVALUE DUP1 ISZERO PUSH2 0x8C4 JUMPI PUSH1 0x0 DUP1 REVERT JUMPDEST POP PUSH2 0x947 PUSH2 0x8D3 CALLDATASIZE PUSH1 0x4 PUSH2 0x50D8 JUMP JUMPDEST PUSH1 0x14 PUSH1 0x20 MSTORE PUSH1 0x0 SWAP1 DUP2 MSTORE PUSH1 0x40 SWAP1 KECCAK256 DUP1 SLOAD PUSH1 0x1 DUP3 ADD SLOAD PUSH1 0x2 DUP4 ADD SLOAD PUSH1 0x3 DUP5 ADD SLOAD PUSH1 0x4 DUP6 ADD SLOAD PUSH1 0x5 DUP7 ADD SLOAD PUSH1 0x6 DUP8 ADD SLOAD PUSH1 0x7 DUP9 ADD SLOAD PUSH1 0x8 DUP10 ADD SLOAD PUSH1 0x9 DUP11 ADD SLOAD PUSH1 0xB SWAP1 SWAP11 ADD SLOAD SWAP9 SWAP10 SWAP8 SWAP9 SWAP7 SWAP8 SWAP6 SWAP7 SWAP5 SWAP6 SWAP4 SWAP5 SWAP3 SWAP4 SWAP2 SWAP3 PUSH1 0x1 PUSH1 0x1 PUSH1 0xA0 SHL SUB SWAP2 DUP3 AND SWAP3 SWAP2 DUP3 AND SWAP2 PUSH1 0xFF PUSH1 0x1 PUSH1 0xA0 SHL SWAP1 SWAP2 DIV DUP2 AND SWAP2 AND DUP13 JUMP JUMPDEST PUSH1 0x40 MLOAD PUSH2 0x3BC SWAP13 SWAP12 SWAP11 SWAP10 SWAP9 SWAP8 SWAP7 SWAP6 SWAP5 SWAP4 SWAP3 SWAP2 SWAP1 PUSH2 0x5599 JUMP JUMPDEST CALLVALUE DUP1 ISZERO PUSH2 0x96B JUMPI PUSH1 0x0 DUP1 REVERT JUMPDEST POP PUSH2 0x9A1 PUSH2 0x97A CALLDATASIZE PUSH1 0x4 PUSH2 0x50D8 JUMP JUMPDEST PUSH1 0x15 PUSH1 0x20 MSTORE PUSH1 0x0 SWAP1 DUP2 MSTORE PUSH1 0x40 SWAP1 KECCAK256 DUP1 SLOAD PUSH1 0x1 DUP3 ADD SLOAD PUSH1 0x2 DUP4 ADD SLOAD PUSH1 0x3 SWAP1 SWAP4 ADD SLOAD SWAP2 SWAP3 SWAP1 SWAP2 DUP5 JUMP JUMPDEST PUSH1 0x40 DUP1 MLOAD SWAP5 DUP6 MSTORE PUSH1 0x20 DUP6 ADD SWAP4 SWAP1 SWAP4 MSTORE SWAP2 DUP4 ADD MSTORE PUSH1 0x60 DUP3 ADD MSTORE PUSH1 0x80 ADD PUSH2 0x3BC JUMP JUMPDEST CALLVALUE DUP1 ISZERO PUSH2 0x9CD JUMPI PUSH1 0x0 DUP1 REVERT JUMPDEST POP PUSH2 0x3B2 PUSH1 0x6 SLOAD DUP2 JUMP JUMPDEST CALLVALUE DUP1 ISZERO PUSH2 0x9E3 JUMPI PUSH1 0x0 DUP1 REVERT JUMPDEST POP PUSH2 0x3B2 PUSH1 0x9 SLOAD DUP2 JUMP JUMPDEST CALLVALUE DUP1 ISZERO PUSH2 0x9F9 JUMPI PUSH1 0x0 DUP1 REVERT JUMPDEST POP PUSH2 0x85B PUSH2 0xA08 CALLDATASIZE PUSH1 0x4 PUSH2 0x5014 JUMP JUMPDEST DUP1 MLOAD PUSH1 0x20 DUP2 DUP4 ADD DUP2 ADD DUP1 MLOAD PUSH1 0x24 DUP3 MSTORE SWAP3 DUP3 ADD SWAP2 SWAP1 SWAP4 ADD KECCAK256 SWAP2 MSTORE SLOAD PUSH1 0xFF AND DUP2 JUMP JUMPDEST PUSH2 0x3CD PUSH2 0xA36 CALLDATASIZE PUSH1 0x4 PUSH2 0x4EC8 JUMP JUMPDEST PUSH2 0x33EE JUMP JUMPDEST CALLVALUE DUP1 ISZERO PUSH2 0xA47 JUMPI PUSH1 0x0 DUP1 REVERT JUMPDEST POP PUSH2 0x3B2 PUSH2 0xA56 CALLDATASIZE PUSH1 0x4 PUSH2 0x4DC1 JUMP JUMPDEST PUSH1 0x18 PUSH1 0x20 MSTORE PUSH1 0x0 SWAP1 DUP2 MSTORE PUSH1 0x40 SWAP1 KECCAK256 SLOAD DUP2 JUMP JUMPDEST CALLVALUE DUP1 ISZERO PUSH2 0xA74 JUMPI PUSH1 0x0 DUP1 REVERT JUMPDEST POP PUSH2 0x805 PUSH2 0xA83 CALLDATASIZE PUSH1 0x4 PUSH2 0x50D8 JUMP JUMPDEST PUSH1 0x1F PUSH1 0x20 MSTORE PUSH1 0x0 SWAP1 DUP2 MSTORE PUSH1 0x40 SWAP1 KECCAK256 SLOAD PUSH1 0x1 PUSH1 0x1 PUSH1 0xA0 SHL SUB AND DUP2 JUMP JUMPDEST CALLVALUE DUP1 ISZERO PUSH2 0xAAA JUMPI PUSH1 0x0 DUP1 REVERT JUMPDEST POP PUSH2 0x41C PUSH2 0xAB9 CALLDATASIZE PUSH1 0x4 PUSH2 0x4DC1 JUMP JUMPDEST PUSH2 0x35EE JUMP JUMPDEST CALLVALUE DUP1 ISZERO PUSH2 0xACA JUMPI PUSH1 0x0 DUP1 REVERT JUMPDEST POP PUSH2 0x762 PUSH2 0xAD9 CALLDATASIZE PUSH1 0x4 PUSH2 0x50D8 JUMP JUMPDEST PUSH2 0x36D6 JUMP JUMPDEST PUSH2 0x3CD PUSH2 0xAEC CALLDATASIZE PUSH1 0x4 PUSH2 0x4EFB JUMP JUMPDEST PUSH2 0x36F1 JUMP JUMPDEST CALLVALUE DUP1 ISZERO PUSH2 0xAFD JUMPI PUSH1 0x0 DUP1 REVERT JUMPDEST POP PUSH2 0x3B2 PUSH1 0xB SLOAD DUP2 JUMP JUMPDEST CALLVALUE DUP1 ISZERO PUSH2 0xB13 JUMPI PUSH1 0x0 DUP1 REVERT JUMPDEST POP PUSH2 0x41C PUSH2 0xB22 CALLDATASIZE PUSH1 0x4 PUSH2 0x4DC1 JUMP JUMPDEST PUSH2 0x3A6A JUMP JUMPDEST CALLVALUE DUP1 ISZERO PUSH2 0xB33 JUMPI PUSH1 0x0 DUP1 REVERT JUMPDEST POP PUSH2 0x3B2 PUSH2 0xB42 CALLDATASIZE PUSH1 0x4 PUSH2 0x50D8 JUMP JUMPDEST PUSH1 0x1B PUSH1 0x20 MSTORE PUSH1 0x0 SWAP1 DUP2 MSTORE PUSH1 0x40 SWAP1 KECCAK256 SLOAD DUP2 JUMP JUMPDEST PUSH2 0x3CD PUSH2 0x3B52 JUMP JUMPDEST CALLVALUE DUP1 ISZERO PUSH2 0xB68 JUMPI PUSH1 0x0 DUP1 REVERT JUMPDEST POP PUSH2 0x3B2 PUSH1 0x4 SLOAD DUP2 JUMP JUMPDEST CALLVALUE DUP1 ISZERO PUSH2 0xB7E JUMPI PUSH1 0x0 DUP1 REVERT JUMPDEST POP PUSH2 0x3CD PUSH2 0x3BC9 JUMP JUMPDEST CALLVALUE DUP1 ISZERO PUSH2 0xB93 JUMPI PUSH1 0x0 DUP1 REVERT JUMPDEST POP PUSH2 0x3CD PUSH2 0xBA2 CALLDATASIZE PUSH1 0x4 PUSH2 0x51DB JUMP JUMPDEST PUSH2 0x3D4A JUMP JUMPDEST CALLVALUE DUP1 ISZERO PUSH2 0xBB3 JUMPI PUSH1 0x0 DUP1 REVERT JUMPDEST POP PUSH2 0x3CD PUSH2 0xBC2 CALLDATASIZE PUSH1 0x4 PUSH2 0x4DC1 JUMP JUMPDEST PUSH2 0x3DA6 JUMP JUMPDEST CALLVALUE DUP1 ISZERO PUSH2 0xBD3 JUMPI PUSH1 0x0 DUP1 REVERT JUMPDEST POP PUSH1 0xF SLOAD PUSH2 0x805 SWAP1 PUSH1 0x1 PUSH1 0x1 PUSH1 0xA0 SHL SUB AND DUP2 JUMP JUMPDEST CALLVALUE DUP1 ISZERO PUSH2 0xBF3 JUMPI PUSH1 0x0 DUP1 REVERT JUMPDEST POP PUSH2 0x3B2 PUSH2 0xC02 CALLDATASIZE PUSH1 0x4 PUSH2 0x50D8 JUMP JUMPDEST PUSH1 0x1D PUSH1 0x20 MSTORE PUSH1 0x0 SWAP1 DUP2 MSTORE PUSH1 0x40 SWAP1 KECCAK256 SLOAD DUP2 JUMP JUMPDEST PUSH1 0xF SLOAD PUSH1 0x1 PUSH1 0x1 PUSH1 0xA0 SHL SUB AND CALLER EQ PUSH2 0xC61 JUMPI PUSH1 0x40 MLOAD PUSH3 0x461BCD PUSH1 0xE5 SHL DUP2 MSTORE PUSH1 0x20 PUSH1 0x4 DUP3 ADD MSTORE PUSH1 0xB PUSH1 0x24 DUP3 ADD MSTORE PUSH11 0x3737BA16B096B0B236B4B7 PUSH1 0xA9 SHL PUSH1 0x44 DUP3 ADD MSTORE PUSH1 0x64 ADD JUMPDEST PUSH1 0x40 MLOAD DUP1 SWAP2 SUB SWAP1 REVERT JUMPDEST PUSH1 0xF SLOAD PUSH1 0x1 PUSH1 0x1 PUSH1 0xA0 SHL SUB AND PUSH1 0x0 SWAP1 DUP2 MSTORE PUSH1 0x11 PUSH1 0x20 MSTORE PUSH1 0x40 DUP1 DUP3 KECCAK256 PUSH1 0x9 ADD SLOAD SWAP1 MLOAD SWAP1 SWAP2 CALLER SWAP2 DUP4 ISZERO PUSH2 0x8FC MUL SWAP2 DUP5 SWAP2 SWAP1 DUP2 DUP2 DUP2 DUP6 DUP9 DUP9 CALL SWAP4 POP POP POP POP ISZERO DUP1 ISZERO PUSH2 0xCAD JUMPI RETURNDATASIZE PUSH1 0x0 DUP1 RETURNDATACOPY RETURNDATASIZE PUSH1 0x0 REVERT JUMPDEST POP POP PUSH1 0xF SLOAD PUSH1 0x1 PUSH1 0x1 PUSH1 0xA0 SHL SUB AND PUSH1 0x0 SWAP1 DUP2 MSTORE PUSH1 0x11 PUSH1 0x20 MSTORE PUSH1 0x40 DUP2 KECCAK256 PUSH1 0x9 ADD SSTORE JUMP JUMPDEST PUSH1 0x1 PUSH1 0x1 PUSH1 0xA0 SHL SUB DUP2 AND PUSH1 0x0 SWAP1 DUP2 MSTORE PUSH1 0x20 DUP1 MSTORE PUSH1 0x40 DUP2 KECCAK256 SLOAD PUSH1 0x60 SWAP2 SWAP1 PUSH8 0xFFFFFFFFFFFFFFFF DUP2 GT ISZERO PUSH2 0xD03 JUMPI PUSH2 0xD03 PUSH2 0x57C0 JUMP JUMPDEST PUSH1 0x40 MLOAD SWAP1 DUP1 DUP3 MSTORE DUP1 PUSH1 0x20 MUL PUSH1 0x20 ADD DUP3 ADD PUSH1 0x40 MSTORE DUP1 ISZERO PUSH2 0xD2C JUMPI DUP2 PUSH1 0x20 ADD PUSH1 0x20 DUP3 MUL DUP1 CALLDATASIZE DUP4 CALLDATACOPY ADD SWAP1 POP JUMPDEST POP SWAP1 POP PUSH1 0x0 JUMPDEST PUSH1 0x1 PUSH1 0x1 PUSH1 0xA0 SHL SUB DUP5 AND PUSH1 0x0 SWAP1 DUP2 MSTORE PUSH1 0x20 DUP1 MSTORE PUSH1 0x40 SWAP1 KECCAK256 SLOAD DUP2 LT ISZERO PUSH2 0xDB4 JUMPI PUSH1 0x1 PUSH1 0x1 PUSH1 0xA0 SHL SUB DUP5 AND PUSH1 0x0 SWAP1 DUP2 MSTORE PUSH1 0x20 DUP1 MSTORE PUSH1 0x40 SWAP1 KECCAK256 DUP1 SLOAD DUP3 SWAP1 DUP2 LT PUSH2 0xD7A JUMPI PUSH2 0xD7A PUSH2 0x57AA JUMP JUMPDEST SWAP1 PUSH1 0x0 MSTORE PUSH1 0x20 PUSH1 0x0 KECCAK256 ADD SLOAD DUP3 DUP3 DUP2 MLOAD DUP2 LT PUSH2 0xD97 JUMPI PUSH2 0xD97 PUSH2 0x57AA JUMP JUMPDEST PUSH1 0x20 SWAP1 DUP2 MUL SWAP2 SWAP1 SWAP2 ADD ADD MSTORE DUP1 PUSH2 0xDAC DUP2 PUSH2 0x5723 JUMP JUMPDEST SWAP2 POP POP PUSH2 0xD32 JUMP JUMPDEST POP SWAP3 SWAP2 POP POP JUMP JUMPDEST CALLER PUSH1 0x1 PUSH1 0x1 PUSH1 0xA0 SHL SUB PUSH32 0x0 AND EQ PUSH2 0xE33 JUMPI PUSH1 0x40 MLOAD PUSH3 0x461BCD PUSH1 0xE5 SHL DUP2 MSTORE PUSH1 0x20 PUSH1 0x4 DUP3 ADD MSTORE PUSH1 0x1F PUSH1 0x24 DUP3 ADD MSTORE PUSH32 0x6F6E6C792056524620563220777261707065722063616E2066756C66696C6C00 PUSH1 0x44 DUP3 ADD MSTORE PUSH1 0x64 ADD PUSH2 0xC58 JUMP JUMPDEST PUSH2 0xE3D DUP3 DUP3 PUSH2 0x3DB7 JUMP JUMPDEST POP POP JUMP JUMPDEST PUSH1 0xF SLOAD PUSH1 0x1 PUSH1 0x1 PUSH1 0xA0 SHL SUB AND CALLER EQ PUSH2 0xE89 JUMPI PUSH1 0x40 MLOAD PUSH3 0x461BCD PUSH1 0xE5 SHL DUP2 MSTORE PUSH1 0x20 PUSH1 0x4 DUP3 ADD MSTORE PUSH1 0xB PUSH1 0x24 DUP3 ADD MSTORE PUSH11 0x3737BA16B096B0B236B4B7 PUSH1 0xA9 SHL PUSH1 0x44 DUP3 ADD MSTORE PUSH1 0x64 ADD PUSH2 0xC58 JUMP JUMPDEST PUSH1 0xC DUP1 SLOAD PUSH1 0x1 PUSH1 0x1 PUSH1 0xA0 SHL SUB NOT AND PUSH1 0x1 PUSH1 0x1 PUSH1 0xA0 SHL SUB SWAP3 SWAP1 SWAP3 AND SWAP2 SWAP1 SWAP2 OR SWAP1 SSTORE JUMP JUMPDEST PUSH1 0x0 DUP2 DUP2 MSTORE PUSH1 0x14 PUSH1 0x20 SWAP1 DUP2 MSTORE PUSH1 0x40 DUP1 DUP4 KECCAK256 PUSH1 0x15 SWAP1 SWAP3 MSTORE SWAP1 SWAP2 KECCAK256 PUSH1 0x3 DUP3 ADD SLOAD CALLVALUE EQ PUSH2 0xF17 JUMPI PUSH1 0x40 MLOAD PUSH3 0x461BCD PUSH1 0xE5 SHL DUP2 MSTORE PUSH1 0x20 PUSH1 0x4 DUP3 ADD MSTORE PUSH1 0x11 PUSH1 0x24 DUP3 ADD MSTORE PUSH32 0x456E74727920466565206E6F74206D6574000000000000000000000000000000 PUSH1 0x44 DUP3 ADD MSTORE PUSH1 0x64 ADD PUSH2 0xC58 JUMP JUMPDEST DUP1 PUSH1 0x2 ADD SLOAD TIMESTAMP LT PUSH2 0xF6A JUMPI PUSH1 0x40 MLOAD PUSH3 0x461BCD PUSH1 0xE5 SHL DUP2 MSTORE PUSH1 0x20 PUSH1 0x4 DUP3 ADD MSTORE PUSH1 0x12 PUSH1 0x24 DUP3 ADD MSTORE PUSH32 0x54696D652070617373656420746F206275790000000000000000000000000000 PUSH1 0x44 DUP3 ADD MSTORE PUSH1 0x64 ADD PUSH2 0xC58 JUMP JUMPDEST PUSH1 0x8 DUP3 ADD SLOAD PUSH1 0x1 PUSH1 0x1 PUSH1 0xA0 SHL SUB AND ISZERO PUSH2 0xFC5 JUMPI PUSH1 0x40 MLOAD PUSH3 0x461BCD PUSH1 0xE5 SHL DUP2 MSTORE PUSH1 0x20 PUSH1 0x4 DUP3 ADD MSTORE PUSH1 0xB PUSH1 0x24 DUP3 ADD MSTORE PUSH32 0x57696E6E657220646F6E65000000000000000000000000000000000000000000 PUSH1 0x44 DUP3 ADD MSTORE PUSH1 0x64 ADD PUSH2 0xC58 JUMP JUMPDEST PUSH1 0x40 DUP1 MLOAD PUSH1 0x1 DUP1 DUP3 MSTORE DUP2 DUP4 ADD SWAP1 SWAP3 MSTORE PUSH1 0x0 SWAP2 PUSH1 0x20 DUP1 DUP4 ADD SWAP1 DUP1 CALLDATASIZE DUP4 CALLDATACOPY ADD SWAP1 POP POP SWAP1 POP DUP5 DUP2 PUSH1 0x0 DUP2 MLOAD DUP2 LT PUSH2 0xFFB JUMPI PUSH2 0xFFB PUSH2 0x57AA JUMP JUMPDEST PUSH1 0x20 SWAP1 DUP2 MUL SWAP2 SWAP1 SWAP2 ADD DUP2 ADD SWAP2 SWAP1 SWAP2 MSTORE PUSH1 0x0 DUP6 DUP2 MSTORE PUSH1 0x23 DUP3 MSTORE PUSH1 0x40 DUP1 DUP3 KECCAK256 CALLER DUP4 MSTORE SWAP1 SWAP3 MSTORE SWAP1 DUP2 KECCAK256 DUP1 SLOAD PUSH1 0x1 SWAP3 SWAP1 PUSH2 0x1032 SWAP1 DUP5 SWAP1 PUSH2 0x565A JUMP JUMPDEST SWAP1 SWAP2 SSTORE POP POP PUSH1 0x40 DUP1 MLOAD PUSH1 0x60 DUP2 ADD DUP3 MSTORE CALLER DUP2 MSTORE TIMESTAMP PUSH1 0x20 DUP1 DUP4 ADD SWAP2 DUP3 MSTORE SWAP3 DUP3 ADD DUP5 DUP2 MSTORE PUSH1 0xA DUP8 ADD DUP1 SLOAD PUSH1 0x1 DUP1 DUP3 ADD DUP4 SSTORE PUSH1 0x0 SWAP3 DUP4 MSTORE SWAP2 DUP7 SWAP1 KECCAK256 DUP6 MLOAD PUSH1 0x3 SWAP1 SWAP3 MUL ADD DUP1 SLOAD PUSH1 0x1 PUSH1 0x1 PUSH1 0xA0 SHL SUB NOT AND PUSH1 0x1 PUSH1 0x1 PUSH1 0xA0 SHL SUB SWAP1 SWAP3 AND SWAP2 SWAP1 SWAP2 OR DUP2 SSTORE SWAP3 MLOAD SWAP1 DUP4 ADD SSTORE MLOAD DUP1 MLOAD SWAP3 SWAP4 SWAP2 SWAP3 PUSH2 0x10AB SWAP3 PUSH1 0x2 DUP6 ADD SWAP3 ADD SWAP1 PUSH2 0x4BDC JUMP JUMPDEST POP POP CALLER PUSH1 0x0 SWAP1 DUP2 MSTORE PUSH1 0x16 PUSH1 0x20 MSTORE PUSH1 0x40 DUP2 KECCAK256 DUP1 SLOAD CALLVALUE SWAP4 POP SWAP1 SWAP2 SWAP1 PUSH2 0x10CF SWAP1 DUP5 SWAP1 PUSH2 0x565A JUMP JUMPDEST SWAP1 SWAP2 SSTORE POP POP PUSH1 0x9 DUP4 ADD SLOAD PUSH1 0x1 PUSH1 0x1 PUSH1 0xA0 SHL SUB AND PUSH1 0x0 SWAP1 DUP2 MSTORE PUSH1 0x11 PUSH1 0x20 MSTORE PUSH1 0x40 DUP2 KECCAK256 PUSH1 0x8 ADD DUP1 SLOAD CALLVALUE SWAP3 SWAP1 PUSH2 0x1103 SWAP1 DUP5 SWAP1 PUSH2 0x565A JUMP JUMPDEST SWAP1 SWAP2 SSTORE POP POP CALLER PUSH1 0x0 SWAP1 DUP2 MSTORE PUSH1 0x20 DUP1 DUP1 MSTORE PUSH1 0x40 DUP1 DUP4 KECCAK256 DUP1 SLOAD PUSH1 0x1 DUP2 ADD DUP3 SSTORE SWAP1 DUP5 MSTORE DUP3 DUP5 KECCAK256 ADD DUP8 SWAP1 SSTORE DUP7 DUP4 MSTORE PUSH1 0x1B SWAP1 SWAP2 MSTORE DUP2 KECCAK256 DUP1 SLOAD SWAP2 PUSH2 0x1140 DUP4 PUSH2 0x5723 JUMP JUMPDEST SWAP2 SWAP1 POP SSTORE POP PUSH2 0x1162 PUSH1 0x64 PUSH1 0xB SLOAD DUP6 PUSH1 0x3 ADD SLOAD PUSH2 0x115C SWAP2 SWAP1 PUSH2 0x5686 JUMP JUMPDEST SWAP1 PUSH2 0x3E21 JUMP JUMPDEST CALLER PUSH1 0x0 SWAP1 DUP2 MSTORE PUSH1 0x19 PUSH1 0x20 MSTORE PUSH1 0x40 DUP2 KECCAK256 DUP1 SLOAD SWAP1 SWAP2 SWAP1 PUSH2 0x1181 SWAP1 DUP5 SWAP1 PUSH2 0x565A JUMP JUMPDEST SWAP1 SWAP2 SSTORE POP POP PUSH1 0x3 DUP1 DUP4 ADD SLOAD SWAP1 DUP5 ADD SLOAD PUSH1 0x40 MLOAD CALLER SWAP3 DUP8 SWAP3 PUSH32 0xEEBEEF70159CAB2AFD7F0275B057D4672073BC52648B266B673FDBB3A856103D SWAP3 PUSH2 0x11C6 SWAP3 DUP8 SWAP3 TIMESTAMP SWAP3 PUSH2 0x53E4 JUMP JUMPDEST PUSH1 0x40 MLOAD DUP1 SWAP2 SUB SWAP1 LOG3 PUSH2 0x11D9 DUP5 DUP7 CALLER PUSH2 0x3E6C JUMP JUMPDEST POP POP POP POP POP JUMP JUMPDEST PUSH1 0x1 PUSH1 0x1 PUSH1 0xA0 SHL SUB DUP3 AND PUSH2 0x11F6 JUMPI PUSH2 0x11F6 PUSH2 0x5752 JUMP JUMPDEST PUSH1 0x1 PUSH1 0x1 PUSH1 0xA0 SHL SUB DUP3 DUP2 AND PUSH1 0x0 SWAP1 DUP2 MSTORE PUSH1 0x12 PUSH1 0x20 MSTORE PUSH1 0x40 SWAP1 KECCAK256 PUSH1 0x2 ADD SLOAD PUSH2 0x100 SWAP1 DIV AND ISZERO PUSH2 0x1266 JUMPI PUSH1 0x40 MLOAD PUSH3 0x461BCD PUSH1 0xE5 SHL DUP2 MSTORE PUSH1 0x20 PUSH1 0x4 DUP3 ADD MSTORE PUSH1 0x12 PUSH1 0x24 DUP3 ADD MSTORE PUSH32 0x416C726561647920726567697374657265640000000000000000000000000000 PUSH1 0x44 DUP3 ADD MSTORE PUSH1 0x64 ADD PUSH2 0xC58 JUMP JUMPDEST PUSH1 0x6 DUP1 SLOAD SWAP1 PUSH1 0x0 PUSH2 0x1276 DUP4 PUSH2 0x5723 JUMP JUMPDEST SWAP1 SWAP2 SSTORE POP POP PUSH1 0x40 DUP1 MLOAD PUSH1 0xC0 DUP2 ADD DUP3 MSTORE DUP7 DUP2 MSTORE PUSH1 0x20 DUP1 DUP3 ADD DUP8 SWAP1 MSTORE DUP6 ISZERO ISZERO DUP3 DUP5 ADD MSTORE PUSH1 0x1 PUSH1 0x1 PUSH1 0xA0 SHL SUB DUP6 AND PUSH1 0x60 DUP4 ADD DUP2 SWAP1 MSTORE PUSH1 0x80 DUP4 ADD DUP6 SWAP1 MSTORE PUSH1 0x6 SLOAD PUSH1 0xA0 DUP5 ADD MSTORE PUSH1 0x0 SWAP1 DUP2 MSTORE PUSH1 0x12 DUP3 MSTORE SWAP3 SWAP1 SWAP3 KECCAK256 DUP2 MLOAD DUP1 MLOAD SWAP3 SWAP4 SWAP2 SWAP3 PUSH2 0x12D9 SWAP3 DUP5 SWAP3 ADD SWAP1 PUSH2 0x4C27 JUMP JUMPDEST POP PUSH1 0x20 DUP3 DUP2 ADD MLOAD DUP1 MLOAD PUSH2 0x12F2 SWAP3 PUSH1 0x1 DUP6 ADD SWAP3 ADD SWAP1 PUSH2 0x4C27 JUMP JUMPDEST POP PUSH1 0x40 DUP3 DUP2 ADD MLOAD PUSH1 0x2 DUP4 ADD DUP1 SLOAD PUSH1 0x60 DUP1 DUP8 ADD MLOAD PUSH21 0xFFFFFFFFFFFFFFFFFFFFFFFFFFFFFFFFFFFFFFFFFF NOT SWAP1 SWAP3 AND SWAP4 ISZERO ISZERO PUSH21 0xFFFFFFFFFFFFFFFFFFFFFFFFFFFFFFFFFFFFFFFF00 NOT AND SWAP4 SWAP1 SWAP4 OR PUSH2 0x100 PUSH1 0x1 PUSH1 0x1 PUSH1 0xA0 SHL SUB SWAP3 DUP4 AND MUL OR SWAP1 SWAP2 SSTORE PUSH1 0x80 DUP1 DUP7 ADD MLOAD PUSH1 0x3 DUP7 ADD SSTORE PUSH1 0xA0 SWAP6 DUP7 ADD MLOAD PUSH1 0x4 SWAP1 SWAP6 ADD SWAP5 SWAP1 SWAP5 SSTORE DUP3 MLOAD PUSH1 0xC0 DUP2 ADD DUP5 MSTORE DUP11 DUP2 MSTORE PUSH1 0x20 DUP1 DUP3 ADD DUP12 SWAP1 MSTORE DUP10 ISZERO ISZERO DUP3 DUP7 ADD MSTORE SWAP2 DUP9 AND SWAP3 DUP2 ADD SWAP3 SWAP1 SWAP3 MSTORE SWAP3 DUP2 ADD DUP6 SWAP1 MSTORE PUSH1 0x6 SLOAD SWAP4 DUP2 ADD DUP5 SWAP1 MSTORE PUSH1 0x0 SWAP4 DUP5 MSTORE PUSH1 0x13 DUP4 MSTORE SWAP3 KECCAK256 DUP3 MLOAD DUP1 MLOAD SWAP2 SWAP3 PUSH2 0x13BE SWAP3 DUP5 SWAP3 SWAP1 SWAP2 ADD SWAP1 PUSH2 0x4C27 JUMP JUMPDEST POP PUSH1 0x20 DUP3 DUP2 ADD MLOAD DUP1 MLOAD PUSH2 0x13D7 SWAP3 PUSH1 0x1 DUP6 ADD SWAP3 ADD SWAP1 PUSH2 0x4C27 JUMP JUMPDEST POP PUSH1 0x40 DUP3 DUP2 ADD MLOAD PUSH1 0x2 DUP4 ADD DUP1 SLOAD PUSH1 0x60 DUP7 ADD MLOAD PUSH1 0x1 PUSH1 0x1 PUSH1 0xA0 SHL SUB AND PUSH2 0x100 MUL PUSH21 0xFFFFFFFFFFFFFFFFFFFFFFFFFFFFFFFFFFFFFFFF00 NOT SWAP4 ISZERO ISZERO SWAP4 SWAP1 SWAP4 AND PUSH21 0xFFFFFFFFFFFFFFFFFFFFFFFFFFFFFFFFFFFFFFFFFF NOT SWAP1 SWAP2 AND OR SWAP2 SWAP1 SWAP2 OR SWAP1 SSTORE PUSH1 0x80 DUP4 ADD MLOAD PUSH1 0x3 DUP4 ADD SSTORE PUSH1 0xA0 SWAP1 SWAP3 ADD MLOAD PUSH1 0x4 SWAP1 SWAP2 ADD SSTORE PUSH1 0x6 SLOAD SWAP1 MLOAD PUSH32 0xA9A08E4591A80985CE133389D1057BB6FD8E3411C6DE25C5FD2A318DC0747E3E SWAP2 PUSH2 0x1485 SWAP2 DUP9 SWAP1 DUP9 SWAP1 DUP9 SWAP1 DUP9 SWAP1 DUP9 SWAP1 PUSH2 0x5546 JUMP JUMPDEST PUSH1 0x40 MLOAD DUP1 SWAP2 SUB SWAP1 LOG1 POP POP POP POP POP JUMP JUMPDEST PUSH1 0x10 PUSH1 0x20 MSTORE PUSH1 0x0 SWAP1 DUP2 MSTORE PUSH1 0x40 SWAP1 KECCAK256 DUP1 SLOAD PUSH1 0x1 DUP3 ADD SLOAD PUSH1 0x2 DUP4 ADD DUP1 SLOAD PUSH1 0xFF DUP5 AND SWAP5 PUSH2 0x100 SWAP1 SWAP5 DIV PUSH1 0x1 PUSH1 0x1 PUSH1 0xA0 SHL SUB SWAP1 DUP2 AND SWAP5 SWAP4 AND SWAP3 SWAP2 SWAP1 PUSH2 0x14D4 SWAP1 PUSH2 0x56E8 JUMP JUMPDEST DUP1 PUSH1 0x1F ADD PUSH1 0x20 DUP1 SWAP2 DIV MUL PUSH1 0x20 ADD PUSH1 0x40 MLOAD SWAP1 DUP2 ADD PUSH1 0x40 MSTORE DUP1 SWAP3 SWAP2 SWAP1 DUP2 DUP2 MSTORE PUSH1 0x20 ADD DUP3 DUP1 SLOAD PUSH2 0x1500 SWAP1 PUSH2 0x56E8 JUMP JUMPDEST DUP1 ISZERO PUSH2 0x154D JUMPI DUP1 PUSH1 0x1F LT PUSH2 0x1522 JUMPI PUSH2 0x100 DUP1 DUP4 SLOAD DIV MUL DUP4 MSTORE SWAP2 PUSH1 0x20 ADD SWAP2 PUSH2 0x154D JUMP JUMPDEST DUP3 ADD SWAP2 SWAP1 PUSH1 0x0 MSTORE PUSH1 0x20 PUSH1 0x0 KECCAK256 SWAP1 JUMPDEST DUP2 SLOAD DUP2 MSTORE SWAP1 PUSH1 0x1 ADD SWAP1 PUSH1 0x20 ADD DUP1 DUP4 GT PUSH2 0x1530 JUMPI DUP3 SWAP1 SUB PUSH1 0x1F AND DUP3 ADD SWAP2 JUMPDEST POP POP POP POP POP SWAP1 DUP1 PUSH1 0x3 ADD DUP1 SLOAD PUSH2 0x1562 SWAP1 PUSH2 0x56E8 JUMP JUMPDEST DUP1 PUSH1 0x1F ADD PUSH1 0x20 DUP1 SWAP2 DIV MUL PUSH1 0x20 ADD PUSH1 0x40 MLOAD SWAP1 DUP2 ADD PUSH1 0x40 MSTORE DUP1 SWAP3 SWAP2 SWAP1 DUP2 DUP2 MSTORE PUSH1 0x20 ADD DUP3 DUP1 SLOAD PUSH2 0x158E SWAP1 PUSH2 0x56E8 JUMP JUMPDEST DUP1 ISZERO PUSH2 0x15DB JUMPI DUP1 PUSH1 0x1F LT PUSH2 0x15B0 JUMPI PUSH2 0x100 DUP1 DUP4 SLOAD DIV MUL DUP4 MSTORE SWAP2 PUSH1 0x20 ADD SWAP2 PUSH2 0x15DB JUMP JUMPDEST DUP3 ADD SWAP2 SWAP1 PUSH1 0x0 MSTORE PUSH1 0x20 PUSH1 0x0 KECCAK256 SWAP1 JUMPDEST DUP2 SLOAD DUP2 MSTORE SWAP1 PUSH1 0x1 ADD SWAP1 PUSH1 0x20 ADD DUP1 DUP4 GT PUSH2 0x15BE JUMPI DUP3 SWAP1 SUB PUSH1 0x1F AND DUP3 ADD SWAP2 JUMPDEST POP POP POP POP POP SWAP1 DUP1 PUSH1 0x4 ADD SLOAD SWAP1 DUP1 PUSH1 0x5 ADD DUP1 SLOAD PUSH2 0x15F6 SWAP1 PUSH2 0x56E8 JUMP JUMPDEST DUP1 PUSH1 0x1F ADD PUSH1 0x20 DUP1 SWAP2 DIV MUL PUSH1 0x20 ADD PUSH1 0x40 MLOAD SWAP1 DUP2 ADD PUSH1 0x40 MSTORE DUP1 SWAP3 SWAP2 SWAP1 DUP2 DUP2 MSTORE PUSH1 0x20 ADD DUP3 DUP1 SLOAD PUSH2 0x1622 SWAP1 PUSH2 0x56E8 JUMP JUMPDEST DUP1 ISZERO PUSH2 0x166F JUMPI DUP1 PUSH1 0x1F LT PUSH2 0x1644 JUMPI PUSH2 0x100 DUP1 DUP4 SLOAD DIV MUL DUP4 MSTORE SWAP2 PUSH1 0x20 ADD SWAP2 PUSH2 0x166F JUMP JUMPDEST DUP3 ADD SWAP2 SWAP1 PUSH1 0x0 MSTORE PUSH1 0x20 PUSH1 0x0 KECCAK256 SWAP1 JUMPDEST DUP2 SLOAD DUP2 MSTORE SWAP1 PUSH1 0x1 ADD SWAP1 PUSH1 0x20 ADD DUP1 DUP4 GT PUSH2 0x1652 JUMPI DUP3 SWAP1 SUB PUSH1 0x1F AND DUP3 ADD SWAP2 JUMPDEST POP POP POP POP POP SWAP1 DUP1 PUSH1 0x6 ADD DUP1 SLOAD PUSH2 0x1684 SWAP1 PUSH2 0x56E8 JUMP JUMPDEST DUP1 PUSH1 0x1F ADD PUSH1 0x20 DUP1 SWAP2 DIV MUL PUSH1 0x20 ADD PUSH1 0x40 MLOAD SWAP1 DUP2 ADD PUSH1 0x40 MSTORE DUP1 SWAP3 SWAP2 SWAP1 DUP2 DUP2 MSTORE PUSH1 0x20 ADD DUP3 DUP1 SLOAD PUSH2 0x16B0 SWAP1 PUSH2 0x56E8 JUMP JUMPDEST DUP1 ISZERO PUSH2 0x16FD JUMPI DUP1 PUSH1 0x1F LT PUSH2 0x16D2 JUMPI PUSH2 0x100 DUP1 DUP4 SLOAD DIV MUL DUP4 MSTORE SWAP2 PUSH1 0x20 ADD SWAP2 PUSH2 0x16FD JUMP JUMPDEST DUP3 ADD SWAP2 SWAP1 PUSH1 0x0 MSTORE PUSH1 0x20 PUSH1 0x0 KECCAK256 SWAP1 JUMPDEST DUP2 SLOAD DUP2 MSTORE SWAP1 PUSH1 0x1 ADD SWAP1 PUSH1 0x20 ADD DUP1 DUP4 GT PUSH2 0x16E0 JUMPI DUP3 SWAP1 SUB PUSH1 0x1F AND DUP3 ADD SWAP2 JUMPDEST POP POP POP POP POP SWAP1 DUP1 PUSH1 0x7 ADD SLOAD SWAP1 DUP1 PUSH1 0x8 ADD SLOAD SWAP1 DUP1 PUSH1 0x9 ADD SLOAD SWAP1 DUP1 PUSH1 0xA ADD SLOAD SWAP1 DUP1 PUSH1 0xB ADD SLOAD SWAP1 POP DUP14 JUMP JUMPDEST CALLER PUSH1 0x0 SWAP1 DUP2 MSTORE PUSH1 0x11 PUSH1 0x20 MSTORE PUSH1 0x40 SWAP1 KECCAK256 SLOAD PUSH1 0xFF AND PUSH2 0x1784 JUMPI PUSH1 0x40 MLOAD PUSH3 0x461BCD PUSH1 0xE5 SHL DUP2 MSTORE PUSH1 0x20 PUSH1 0x4 DUP3 ADD MSTORE PUSH1 0x12 PUSH1 0x24 DUP3 ADD MSTORE PUSH32 0x4E6F742061206F7267616E69736174696F6E0000000000000000000000000000 PUSH1 0x44 DUP3 ADD MSTORE PUSH1 0x64 ADD PUSH2 0xC58 JUMP JUMPDEST PUSH1 0x0 DUP2 GT PUSH2 0x17D4 JUMPI PUSH1 0x40 MLOAD PUSH3 0x461BCD PUSH1 0xE5 SHL DUP2 MSTORE PUSH1 0x20 PUSH1 0x4 DUP3 ADD MSTORE PUSH1 0x12 PUSH1 0x24 DUP3 ADD MSTORE PUSH32 0x43616E742062652062656C6F77207A65726F0000000000000000000000000000 PUSH1 0x44 DUP3 ADD MSTORE PUSH1 0x64 ADD PUSH2 0xC58 JUMP JUMPDEST PUSH1 0x0 DUP3 GT PUSH2 0x1824 JUMPI PUSH1 0x40 MLOAD PUSH3 0x461BCD PUSH1 0xE5 SHL DUP2 MSTORE PUSH1 0x20 PUSH1 0x4 DUP3 ADD MSTORE PUSH1 0x12 PUSH1 0x24 DUP3 ADD MSTORE PUSH32 0x43616E742062652062656C6F77207A65726F0000000000000000000000000000 PUSH1 0x44 DUP3 ADD MSTORE PUSH1 0x64 ADD PUSH2 0xC58 JUMP JUMPDEST PUSH1 0x0 PUSH2 0x1847 PUSH1 0x2 PUSH2 0x115C PUSH8 0xDE0B6B3A7640000 PUSH2 0x1841 DUP8 DUP8 PUSH2 0x3FD8 JUMP JUMPDEST SWAP1 PUSH2 0x4037 JUMP JUMPDEST SWAP1 POP PUSH1 0x0 PUSH2 0x185E PUSH1 0x64 PUSH1 0x7 SLOAD DUP5 PUSH2 0x115C SWAP2 SWAP1 PUSH2 0x5686 JUMP JUMPDEST SWAP1 POP CALLVALUE DUP2 EQ PUSH2 0x18AF JUMPI PUSH1 0x40 MLOAD PUSH3 0x461BCD PUSH1 0xE5 SHL DUP2 MSTORE PUSH1 0x20 PUSH1 0x4 DUP3 ADD MSTORE PUSH1 0x19 PUSH1 0x24 DUP3 ADD MSTORE PUSH32 0x526567697374657220466565206E6F74206D61746368696E6700000000000000 PUSH1 0x44 DUP3 ADD MSTORE PUSH1 0x64 ADD PUSH2 0xC58 JUMP JUMPDEST CALLER PUSH1 0x0 SWAP1 DUP2 MSTORE PUSH1 0x11 PUSH1 0x20 DUP2 DUP2 MSTORE PUSH1 0x40 DUP1 DUP5 KECCAK256 PUSH1 0x7 DUP2 ADD SLOAD PUSH1 0xB DUP1 DUP4 ADD DUP12 SWAP1 SSTORE PUSH1 0xA SWAP3 DUP4 ADD DUP11 SWAP1 SSTORE DUP2 DUP8 MSTORE PUSH1 0x10 DUP6 MSTORE DUP4 DUP8 KECCAK256 SWAP1 DUP2 ADD DUP12 SWAP1 SSTORE SWAP1 SWAP2 ADD DUP9 SWAP1 SSTORE PUSH1 0xF SLOAD PUSH1 0x1 PUSH1 0x1 PUSH1 0xA0 SHL SUB AND DUP6 MSTORE SWAP3 SWAP1 SWAP2 MSTORE DUP3 KECCAK256 PUSH1 0x9 ADD DUP1 SLOAD SWAP2 SWAP3 CALLVALUE SWAP3 PUSH2 0x1914 SWAP1 DUP5 SWAP1 PUSH2 0x565A JUMP JUMPDEST SWAP1 SWAP2 SSTORE POP POP POP POP POP POP POP JUMP JUMPDEST PUSH1 0xF SLOAD PUSH1 0x1 PUSH1 0xA0 SHL SWAP1 DIV PUSH1 0xFF AND ISZERO PUSH2 0x197A JUMPI PUSH1 0x40 MLOAD PUSH3 0x461BCD PUSH1 0xE5 SHL DUP2 MSTORE PUSH1 0x20 PUSH1 0x4 DUP3 ADD MSTORE PUSH1 0x12 PUSH1 0x24 DUP3 ADD MSTORE PUSH32 0x72657175697265642063616C6C20747275650000000000000000000000000000 PUSH1 0x44 DUP3 ADD MSTORE PUSH1 0x64 ADD PUSH2 0xC58 JUMP JUMPDEST PUSH1 0xF DUP1 SLOAD PUSH1 0xFF PUSH1 0xA0 SHL NOT AND PUSH1 0x1 PUSH1 0xA0 SHL OR SWAP1 SSTORE PUSH1 0x1 JUMPDEST PUSH1 0x4 SLOAD DUP2 LT ISZERO PUSH2 0x1A53 JUMPI PUSH1 0x1 PUSH1 0x0 DUP3 DUP2 MSTORE PUSH1 0x14 PUSH1 0x20 MSTORE PUSH1 0x40 SWAP1 KECCAK256 PUSH1 0xB ADD SLOAD PUSH1 0xFF AND PUSH1 0x1 DUP2 GT ISZERO PUSH2 0x19C2 JUMPI PUSH2 0x19C2 PUSH2 0x5794 JUMP JUMPDEST EQ ISZERO PUSH2 0x1A41 JUMPI PUSH1 0x2 PUSH1 0x0 DUP3 DUP2 MSTORE PUSH1 0x14 PUSH1 0x20 MSTORE PUSH1 0x40 SWAP1 KECCAK256 PUSH1 0x9 ADD SLOAD PUSH1 0x1 PUSH1 0xA0 SHL SWAP1 DIV PUSH1 0xFF AND PUSH1 0x3 DUP2 GT ISZERO PUSH2 0x19F7 JUMPI PUSH2 0x19F7 PUSH2 0x5794 JUMP JUMPDEST EQ PUSH2 0x1A41 JUMPI PUSH1 0x0 DUP2 DUP2 MSTORE PUSH1 0x1B PUSH1 0x20 SWAP1 DUP2 MSTORE PUSH1 0x40 DUP1 DUP4 KECCAK256 SLOAD PUSH1 0x14 SWAP1 SWAP3 MSTORE SWAP1 SWAP2 KECCAK256 PUSH1 0x5 ADD SLOAD GT PUSH2 0x1A41 JUMPI PUSH1 0x0 DUP2 DUP2 MSTORE PUSH1 0x15 PUSH1 0x20 MSTORE PUSH1 0x40 SWAP1 KECCAK256 PUSH1 0x3 ADD SLOAD TIMESTAMP GT ISZERO PUSH2 0x1A41 JUMPI PUSH2 0x1A41 DUP2 PUSH2 0x40D2 JUMP JUMPDEST DUP1 PUSH2 0x1A4B DUP2 PUSH2 0x5723 JUMP JUMPDEST SWAP2 POP POP PUSH2 0x1990 JUMP JUMPDEST POP POP POP JUMP JUMPDEST PUSH1 0x40 MLOAD PUSH4 0x70A08231 PUSH1 0xE0 SHL DUP2 MSTORE ADDRESS PUSH1 0x4 DUP3 ADD MSTORE PUSH1 0x1 PUSH1 0x1 PUSH1 0xA0 SHL SUB DUP3 AND SWAP1 PUSH4 0x70A08231 SWAP1 PUSH1 0x24 ADD PUSH1 0x20 PUSH1 0x40 MLOAD DUP1 DUP4 SUB DUP2 DUP7 DUP1 EXTCODESIZE ISZERO DUP1 ISZERO PUSH2 0x1A97 JUMPI PUSH1 0x0 DUP1 REVERT JUMPDEST POP GAS STATICCALL ISZERO DUP1 ISZERO PUSH2 0x1AAB JUMPI RETURNDATASIZE PUSH1 0x0 DUP1 RETURNDATACOPY RETURNDATASIZE PUSH1 0x0 REVERT JUMPDEST POP POP POP POP PUSH1 0x40 MLOAD RETURNDATASIZE PUSH1 0x1F NOT PUSH1 0x1F DUP3 ADD AND DUP3 ADD DUP1 PUSH1 0x40 MSTORE POP DUP2 ADD SWAP1 PUSH2 0x1ACF SWAP2 SWAP1 PUSH2 0x50F1 JUMP JUMPDEST DUP4 GT ISZERO PUSH2 0x1B1E JUMPI PUSH1 0x40 MLOAD PUSH3 0x461BCD PUSH1 0xE5 SHL DUP2 MSTORE PUSH1 0x20 PUSH1 0x4 DUP3 ADD MSTORE PUSH1 0xB PUSH1 0x24 DUP3 ADD MSTORE PUSH32 0x6C6F772062616C616E6365000000000000000000000000000000000000000000 PUSH1 0x44 DUP3 ADD MSTORE PUSH1 0x64 ADD PUSH2 0xC58 JUMP JUMPDEST PUSH1 0x40 MLOAD PUSH4 0xA9059CBB PUSH1 0xE0 SHL DUP2 MSTORE PUSH1 0x1 PUSH1 0x1 PUSH1 0xA0 SHL SUB DUP4 DUP2 AND PUSH1 0x4 DUP4 ADD MSTORE PUSH1 0x24 DUP3 ADD DUP6 SWAP1 MSTORE DUP3 AND SWAP1 PUSH4 0xA9059CBB SWAP1 PUSH1 0x44 ADD PUSH1 0x20 PUSH1 0x40 MLOAD DUP1 DUP4 SUB DUP2 PUSH1 0x0 DUP8 DUP1 EXTCODESIZE ISZERO DUP1 ISZERO PUSH2 0x1B68 JUMPI PUSH1 0x0 DUP1 REVERT JUMPDEST POP GAS CALL ISZERO DUP1 ISZERO PUSH2 0x1B7C JUMPI RETURNDATASIZE PUSH1 0x0 DUP1 RETURNDATACOPY RETURNDATASIZE PUSH1 0x0 REVERT JUMPDEST POP POP POP POP PUSH1 0x40 MLOAD RETURNDATASIZE PUSH1 0x1F NOT PUSH1 0x1F DUP3 ADD AND DUP3 ADD DUP1 PUSH1 0x40 MSTORE POP DUP2 ADD SWAP1 PUSH2 0x1BA0 SWAP2 SWAP1 PUSH2 0x4F85 JUMP JUMPDEST POP POP POP POP JUMP JUMPDEST PUSH1 0x1 PUSH1 0x1 PUSH1 0xA0 SHL SUB DUP10 AND PUSH2 0x1BBC JUMPI PUSH2 0x1BBC PUSH2 0x5752 JUMP JUMPDEST PUSH1 0x0 PUSH2 0x1BD9 PUSH1 0x2 PUSH2 0x115C PUSH8 0xDE0B6B3A7640000 PUSH2 0x1841 DUP8 DUP8 PUSH2 0x3FD8 JUMP JUMPDEST SWAP1 POP PUSH1 0x0 PUSH2 0x1BF0 PUSH1 0x64 PUSH1 0x7 SLOAD DUP5 PUSH2 0x115C SWAP2 SWAP1 PUSH2 0x5686 JUMP JUMPDEST PUSH1 0x1 PUSH1 0x1 PUSH1 0xA0 SHL SUB DUP13 DUP2 AND PUSH1 0x0 SWAP1 DUP2 MSTORE PUSH1 0x11 PUSH1 0x20 MSTORE PUSH1 0x40 SWAP1 KECCAK256 SLOAD SWAP2 SWAP3 POP PUSH2 0x100 SWAP1 SWAP2 DIV AND ISZERO PUSH2 0x1C61 JUMPI PUSH1 0x40 MLOAD PUSH3 0x461BCD PUSH1 0xE5 SHL DUP2 MSTORE PUSH1 0x20 PUSH1 0x4 DUP3 ADD MSTORE PUSH1 0x12 PUSH1 0x24 DUP3 ADD MSTORE PUSH32 0x416C726561647920726567697374657265640000000000000000000000000000 PUSH1 0x44 DUP3 ADD MSTORE PUSH1 0x64 ADD PUSH2 0xC58 JUMP JUMPDEST CALLVALUE DUP2 EQ PUSH2 0x1CB0 JUMPI PUSH1 0x40 MLOAD PUSH3 0x461BCD PUSH1 0xE5 SHL DUP2 MSTORE PUSH1 0x20 PUSH1 0x4 DUP3 ADD MSTORE PUSH1 0x19 PUSH1 0x24 DUP3 ADD MSTORE PUSH32 0x526567697374657220466565206E6F74206D61746368696E6700000000000000 PUSH1 0x44 DUP3 ADD MSTORE PUSH1 0x64 ADD PUSH2 0xC58 JUMP JUMPDEST PUSH1 0x40 MLOAD DUP1 PUSH2 0x1A0 ADD PUSH1 0x40 MSTORE DUP1 PUSH1 0x1 ISZERO ISZERO DUP2 MSTORE PUSH1 0x20 ADD DUP13 PUSH1 0x1 PUSH1 0x1 PUSH1 0xA0 SHL SUB AND DUP2 MSTORE PUSH1 0x20 ADD DUP12 PUSH1 0x1 PUSH1 0x1 PUSH1 0xA0 SHL SUB AND DUP2 MSTORE PUSH1 0x20 ADD DUP11 DUP2 MSTORE PUSH1 0x20 ADD DUP10 DUP2 MSTORE PUSH1 0x20 ADD DUP9 DUP2 MSTORE PUSH1 0x20 ADD DUP8 DUP2 MSTORE PUSH1 0x20 ADD DUP7 DUP2 MSTORE PUSH1 0x20 ADD PUSH1 0x5 SLOAD DUP2 MSTORE PUSH1 0x20 ADD PUSH1 0x0 DUP2 MSTORE PUSH1 0x20 ADD PUSH1 0x0 DUP2 MSTORE PUSH1 0x20 ADD DUP5 DUP2 MSTORE PUSH1 0x20 ADD DUP6 DUP2 MSTORE POP PUSH1 0x11 PUSH1 0x0 DUP14 PUSH1 0x1 PUSH1 0x1 PUSH1 0xA0 SHL SUB AND PUSH1 0x1 PUSH1 0x1 PUSH1 0xA0 SHL SUB AND DUP2 MSTORE PUSH1 0x20 ADD SWAP1 DUP2 MSTORE PUSH1 0x20 ADD PUSH1 0x0 KECCAK256 PUSH1 0x0 DUP3 ADD MLOAD DUP2 PUSH1 0x0 ADD PUSH1 0x0 PUSH2 0x100 EXP DUP2 SLOAD DUP2 PUSH1 0xFF MUL NOT AND SWAP1 DUP4 ISZERO ISZERO MUL OR SWAP1 SSTORE POP PUSH1 0x20 DUP3 ADD MLOAD DUP2 PUSH1 0x0 ADD PUSH1 0x1 PUSH2 0x100 EXP DUP2 SLOAD DUP2 PUSH1 0x1 PUSH1 0x1 PUSH1 0xA0 SHL SUB MUL NOT AND SWAP1 DUP4 PUSH1 0x1 PUSH1 0x1 PUSH1 0xA0 SHL SUB AND MUL OR SWAP1 SSTORE POP PUSH1 0x40 DUP3 ADD MLOAD DUP2 PUSH1 0x1 ADD PUSH1 0x0 PUSH2 0x100 EXP DUP2 SLOAD DUP2 PUSH1 0x1 PUSH1 0x1 PUSH1 0xA0 SHL SUB MUL NOT AND SWAP1 DUP4 PUSH1 0x1 PUSH1 0x1 PUSH1 0xA0 SHL SUB AND MUL OR SWAP1 SSTORE POP PUSH1 0x60 DUP3 ADD MLOAD DUP2 PUSH1 0x2 ADD SWAP1 DUP1 MLOAD SWAP1 PUSH1 0x20 ADD SWAP1 PUSH2 0x1DDC SWAP3 SWAP2 SWAP1 PUSH2 0x4C27 JUMP JUMPDEST POP PUSH1 0x80 DUP3 ADD MLOAD DUP1 MLOAD PUSH2 0x1DF8 SWAP2 PUSH1 0x3 DUP5 ADD SWAP2 PUSH1 0x20 SWAP1 SWAP2 ADD SWAP1 PUSH2 0x4C27 JUMP JUMPDEST POP PUSH1 0xA0 DUP3 ADD MLOAD PUSH1 0x4 DUP3 ADD SSTORE PUSH1 0xC0 DUP3 ADD MLOAD DUP1 MLOAD PUSH2 0x1E1E SWAP2 PUSH1 0x5 DUP5 ADD SWAP2 PUSH1 0x20 SWAP1 SWAP2 ADD SWAP1 PUSH2 0x4C27 JUMP JUMPDEST POP PUSH1 0xE0 DUP3 ADD MLOAD DUP1 MLOAD PUSH2 0x1E3A SWAP2 PUSH1 0x6 DUP5 ADD SWAP2 PUSH1 0x20 SWAP1 SWAP2 ADD SWAP1 PUSH2 0x4C27 JUMP JUMPDEST POP PUSH2 0x100 DUP3 ADD MLOAD DUP2 PUSH1 0x7 ADD SSTORE PUSH2 0x120 DUP3 ADD MLOAD DUP2 PUSH1 0x8 ADD SSTORE PUSH2 0x140 DUP3 ADD MLOAD DUP2 PUSH1 0x9 ADD SSTORE PUSH2 0x160 DUP3 ADD MLOAD DUP2 PUSH1 0xA ADD SSTORE PUSH2 0x180 DUP3 ADD MLOAD DUP2 PUSH1 0xB ADD SSTORE SWAP1 POP POP PUSH1 0x40 MLOAD DUP1 PUSH2 0x1A0 ADD PUSH1 0x40 MSTORE DUP1 PUSH1 0x1 ISZERO ISZERO DUP2 MSTORE PUSH1 0x20 ADD DUP13 PUSH1 0x1 PUSH1 0x1 PUSH1 0xA0 SHL SUB AND DUP2 MSTORE PUSH1 0x20 ADD DUP12 PUSH1 0x1 PUSH1 0x1 PUSH1 0xA0 SHL SUB AND DUP2 MSTORE PUSH1 0x20 ADD DUP11 DUP2 MSTORE PUSH1 0x20 ADD DUP10 DUP2 MSTORE PUSH1 0x20 ADD DUP9 DUP2 MSTORE PUSH1 0x20 ADD DUP8 DUP2 MSTORE PUSH1 0x20 ADD DUP7 DUP2 MSTORE PUSH1 0x20 ADD PUSH1 0x5 SLOAD DUP2 MSTORE PUSH1 0x20 ADD PUSH1 0x0 DUP2 MSTORE PUSH1 0x20 ADD PUSH1 0x0 DUP2 MSTORE PUSH1 0x20 ADD DUP6 DUP2 MSTORE PUSH1 0x20 ADD DUP6 DUP2 MSTORE POP PUSH1 0x10 PUSH1 0x0 PUSH1 0x5 PUSH1 0x0 DUP2 SLOAD DUP1 SWAP3 SWAP2 SWAP1 PUSH2 0x1EFD SWAP1 PUSH2 0x5723 JUMP JUMPDEST SWAP1 SWAP2 SSTORE POP DUP2 MSTORE PUSH1 0x20 DUP1 DUP3 ADD SWAP3 SWAP1 SWAP3 MSTORE PUSH1 0x40 SWAP1 DUP2 ADD PUSH1 0x0 KECCAK256 DUP4 MLOAD DUP2 SLOAD DUP6 DUP6 ADD MLOAD PUSH21 0xFFFFFFFFFFFFFFFFFFFFFFFFFFFFFFFFFFFFFFFFFF NOT SWAP1 SWAP2 AND SWAP2 ISZERO ISZERO PUSH21 0xFFFFFFFFFFFFFFFFFFFFFFFFFFFFFFFFFFFFFFFF00 NOT AND SWAP2 SWAP1 SWAP2 OR PUSH2 0x100 PUSH1 0x1 PUSH1 0x1 PUSH1 0xA0 SHL SUB SWAP3 DUP4 AND MUL OR DUP3 SSTORE SWAP2 DUP5 ADD MLOAD PUSH1 0x1 DUP3 ADD DUP1 SLOAD PUSH1 0x1 PUSH1 0x1 PUSH1 0xA0 SHL SUB NOT AND SWAP2 SWAP1 SWAP4 AND OR SWAP1 SWAP2 SSTORE PUSH1 0x60 DUP4 ADD MLOAD DUP1 MLOAD SWAP2 SWAP3 PUSH2 0x1F9E SWAP3 PUSH1 0x2 DUP6 ADD SWAP3 SWAP1 SWAP2 ADD SWAP1 PUSH2 0x4C27 JUMP JUMPDEST POP PUSH1 0x80 DUP3 ADD MLOAD DUP1 MLOAD PUSH2 0x1FBA SWAP2 PUSH1 0x3 DUP5 ADD SWAP2 PUSH1 0x20 SWAP1 SWAP2 ADD SWAP1 PUSH2 0x4C27 JUMP JUMPDEST POP PUSH1 0xA0 DUP3 ADD MLOAD PUSH1 0x4 DUP3 ADD SSTORE PUSH1 0xC0 DUP3 ADD MLOAD DUP1 MLOAD PUSH2 0x1FE0 SWAP2 PUSH1 0x5 DUP5 ADD SWAP2 PUSH1 0x20 SWAP1 SWAP2 ADD SWAP1 PUSH2 0x4C27 JUMP JUMPDEST POP PUSH1 0xE0 DUP3 ADD MLOAD DUP1 MLOAD PUSH2 0x1FFC SWAP2 PUSH1 0x6 DUP5 ADD SWAP2 PUSH1 0x20 SWAP1 SWAP2 ADD SWAP1 PUSH2 0x4C27 JUMP JUMPDEST POP PUSH2 0x100 DUP3 ADD MLOAD PUSH1 0x7 DUP3 ADD SSTORE PUSH2 0x120 DUP3 ADD MLOAD PUSH1 0x8 DUP3 ADD SSTORE PUSH2 0x140 DUP3 ADD MLOAD PUSH1 0x9 DUP1 DUP4 ADD SWAP2 SWAP1 SWAP2 SSTORE PUSH2 0x160 DUP4 ADD MLOAD PUSH1 0xA DUP4 ADD SSTORE PUSH2 0x180 SWAP1 SWAP3 ADD MLOAD PUSH1 0xB SWAP1 SWAP2 ADD SSTORE PUSH1 0xF SLOAD PUSH1 0x1 PUSH1 0x1 PUSH1 0xA0 SHL SUB AND PUSH1 0x0 SWAP1 DUP2 MSTORE PUSH1 0x11 PUSH1 0x20 MSTORE PUSH1 0x40 DUP2 KECCAK256 SWAP1 SWAP2 ADD DUP1 SLOAD CALLVALUE SWAP3 SWAP1 PUSH2 0x2067 SWAP1 DUP5 SWAP1 PUSH2 0x565A JUMP JUMPDEST SWAP1 SWAP2 SSTORE POP POP PUSH1 0x5 SLOAD PUSH1 0x40 MLOAD PUSH32 0x337CD441473F6E4D26F96EB02885394C00CD7271E43ED7E206DD43664B98598C SWAP1 PUSH2 0x20A3 SWAP1 DUP15 SWAP1 DUP14 SWAP1 DUP16 SWAP1 PUSH2 0x5313 JUMP JUMPDEST PUSH1 0x40 MLOAD DUP1 SWAP2 SUB SWAP1 LOG2 POP POP POP POP POP POP POP POP POP POP POP JUMP JUMPDEST CALLER PUSH1 0x0 SWAP1 DUP2 MSTORE PUSH1 0x11 PUSH1 0x20 MSTORE PUSH1 0x40 SWAP1 KECCAK256 SLOAD PUSH1 0xFF AND PUSH2 0x2117 JUMPI PUSH1 0x40 MLOAD PUSH3 0x461BCD PUSH1 0xE5 SHL DUP2 MSTORE PUSH1 0x20 PUSH1 0x4 DUP3 ADD MSTORE PUSH1 0x12 PUSH1 0x24 DUP3 ADD MSTORE PUSH32 0x4E6F742061206F7267616E69736174696F6E0000000000000000000000000000 PUSH1 0x44 DUP3 ADD MSTORE PUSH1 0x64 ADD PUSH2 0xC58 JUMP JUMPDEST CALLER PUSH1 0x0 SWAP1 DUP2 MSTORE PUSH1 0x11 PUSH1 0x20 MSTORE PUSH1 0x40 SWAP1 KECCAK256 PUSH1 0xB ADD SLOAD DUP9 SWAP1 PUSH2 0x213E SWAP1 PUSH8 0xDE0B6B3A7640000 PUSH2 0x4037 JUMP JUMPDEST GT ISZERO PUSH2 0x218C JUMPI PUSH1 0x40 MLOAD PUSH3 0x461BCD PUSH1 0xE5 SHL DUP2 MSTORE PUSH1 0x20 PUSH1 0x4 DUP3 ADD MSTORE PUSH1 0x1A PUSH1 0x24 DUP3 ADD MSTORE PUSH32 0x4E6F7420616C6C6F7765642077696E6E696E6720616D6F756E74000000000000 PUSH1 0x44 DUP3 ADD MSTORE PUSH1 0x64 ADD PUSH2 0xC58 JUMP JUMPDEST CALLER PUSH1 0x0 SWAP1 DUP2 MSTORE PUSH1 0x11 PUSH1 0x20 MSTORE PUSH1 0x40 SWAP1 KECCAK256 PUSH1 0xA ADD SLOAD DUP9 SWAP1 PUSH2 0x21B3 SWAP1 PUSH8 0xDE0B6B3A7640000 PUSH2 0x4037 JUMP JUMPDEST LT ISZERO PUSH2 0x2201 JUMPI PUSH1 0x40 MLOAD PUSH3 0x461BCD PUSH1 0xE5 SHL DUP2 MSTORE PUSH1 0x20 PUSH1 0x4 DUP3 ADD MSTORE PUSH1 0x1A PUSH1 0x24 DUP3 ADD MSTORE PUSH32 0x4E6F7420616C6C6F7765642077696E6E696E6720616D6F756E74000000000000 PUSH1 0x44 DUP3 ADD MSTORE PUSH1 0x64 ADD PUSH2 0xC58 JUMP JUMPDEST PUSH1 0x0 DUP9 GT PUSH2 0x2251 JUMPI PUSH1 0x40 MLOAD PUSH3 0x461BCD PUSH1 0xE5 SHL DUP2 MSTORE PUSH1 0x20 PUSH1 0x4 DUP3 ADD MSTORE PUSH1 0xE PUSH1 0x24 DUP3 ADD MSTORE PUSH32 0x4C6F7720746F74616C5072696365000000000000000000000000000000000000 PUSH1 0x44 DUP3 ADD MSTORE PUSH1 0x64 ADD PUSH2 0xC58 JUMP JUMPDEST CALLVALUE PUSH2 0x226F PUSH2 0x2268 PUSH1 0x64 PUSH1 0x8 SLOAD DUP13 PUSH2 0x115C SWAP2 SWAP1 PUSH2 0x5686 JUMP JUMPDEST DUP11 SWAP1 PUSH2 0x3FD8 JUMP JUMPDEST EQ PUSH2 0x22BC JUMPI PUSH1 0x40 MLOAD PUSH3 0x461BCD PUSH1 0xE5 SHL DUP2 MSTORE PUSH1 0x20 PUSH1 0x4 DUP3 ADD MSTORE PUSH1 0x13 PUSH1 0x24 DUP3 ADD MSTORE PUSH32 0x416D6F756E74206E6F74206D61746368696E6700000000000000000000000000 PUSH1 0x44 DUP3 ADD MSTORE PUSH1 0x64 ADD PUSH2 0xC58 JUMP JUMPDEST DUP4 DUP10 GT ISZERO PUSH2 0x230C JUMPI PUSH1 0x40 MLOAD PUSH3 0x461BCD PUSH1 0xE5 SHL DUP2 MSTORE PUSH1 0x20 PUSH1 0x4 DUP3 ADD MSTORE PUSH1 0x10 PUSH1 0x24 DUP3 ADD MSTORE PUSH32 0x6361706163697479206973206C65737300000000000000000000000000000000 PUSH1 0x44 DUP3 ADD MSTORE PUSH1 0x64 ADD PUSH2 0xC58 JUMP JUMPDEST TIMESTAMP DUP8 LT ISZERO PUSH2 0x235C JUMPI PUSH1 0x40 MLOAD PUSH3 0x461BCD PUSH1 0xE5 SHL DUP2 MSTORE PUSH1 0x20 PUSH1 0x4 DUP3 ADD MSTORE PUSH1 0x11 PUSH1 0x24 DUP3 ADD MSTORE PUSH32 0x53746172742074696D6520706173736564000000000000000000000000000000 PUSH1 0x44 DUP3 ADD MSTORE PUSH1 0x64 ADD PUSH2 0xC58 JUMP JUMPDEST DUP6 DUP8 LT PUSH2 0x23AB JUMPI PUSH1 0x40 MLOAD PUSH3 0x461BCD PUSH1 0xE5 SHL DUP2 MSTORE PUSH1 0x20 PUSH1 0x4 DUP3 ADD MSTORE PUSH1 0x1D PUSH1 0x24 DUP3 ADD MSTORE PUSH32 0x456E642074696D65206C657373207468616E2073746172742074696D65000000 PUSH1 0x44 DUP3 ADD MSTORE PUSH1 0x64 ADD PUSH2 0xC58 JUMP JUMPDEST PUSH1 0x32 DUP3 GT ISZERO PUSH2 0x2422 JUMPI PUSH1 0x40 MLOAD PUSH3 0x461BCD PUSH1 0xE5 SHL DUP2 MSTORE PUSH1 0x20 PUSH1 0x4 DUP3 ADD MSTORE PUSH1 0x29 PUSH1 0x24 DUP3 ADD MSTORE PUSH32 0x526F6C6C6F7665722070657263656E746167652063616E2774206265206D6F72 PUSH1 0x44 DUP3 ADD MSTORE PUSH32 0x65207468616E2035300000000000000000000000000000000000000000000000 PUSH1 0x64 DUP3 ADD MSTORE PUSH1 0x84 ADD PUSH2 0xC58 JUMP JUMPDEST DUP3 PUSH1 0x14 PUSH1 0x0 PUSH1 0x4 SLOAD DUP2 MSTORE PUSH1 0x20 ADD SWAP1 DUP2 MSTORE PUSH1 0x20 ADD PUSH1 0x0 KECCAK256 PUSH1 0x6 ADD DUP2 SWAP1 SSTORE POP PUSH1 0x4 SLOAD PUSH1 0x14 PUSH1 0x0 PUSH1 0x4 SLOAD DUP2 MSTORE PUSH1 0x20 ADD SWAP1 DUP2 MSTORE PUSH1 0x20 ADD PUSH1 0x0 KECCAK256 PUSH1 0x0 ADD DUP2 SWAP1 SSTORE POP DUP2 PUSH1 0x14 PUSH1 0x0 PUSH1 0x4 SLOAD DUP2 MSTORE PUSH1 0x20 ADD SWAP1 DUP2 MSTORE PUSH1 0x20 ADD PUSH1 0x0 KECCAK256 PUSH1 0x7 ADD DUP2 SWAP1 SSTORE POP DUP10 PUSH1 0x14 PUSH1 0x0 PUSH1 0x4 SLOAD DUP2 MSTORE PUSH1 0x20 ADD SWAP1 DUP2 MSTORE PUSH1 0x20 ADD PUSH1 0x0 KECCAK256 PUSH1 0x3 ADD DUP2 SWAP1 SSTORE POP DUP9 PUSH1 0x14 PUSH1 0x0 PUSH1 0x4 SLOAD DUP2 MSTORE PUSH1 0x20 ADD SWAP1 DUP2 MSTORE PUSH1 0x20 ADD PUSH1 0x0 KECCAK256 PUSH1 0x1 ADD DUP2 SWAP1 SSTORE POP DUP8 PUSH1 0x14 PUSH1 0x0 PUSH1 0x4 SLOAD DUP2 MSTORE PUSH1 0x20 ADD SWAP1 DUP2 MSTORE PUSH1 0x20 ADD PUSH1 0x0 KECCAK256 PUSH1 0x4 ADD DUP2 SWAP1 SSTORE POP DUP7 PUSH1 0x15 PUSH1 0x0 PUSH1 0x4 SLOAD DUP2 MSTORE PUSH1 0x20 ADD SWAP1 DUP2 MSTORE PUSH1 0x20 ADD PUSH1 0x0 KECCAK256 PUSH1 0x1 ADD DUP2 SWAP1 SSTORE POP DUP6 PUSH1 0x15 PUSH1 0x0 PUSH1 0x4 SLOAD DUP2 MSTORE PUSH1 0x20 ADD SWAP1 DUP2 MSTORE PUSH1 0x20 ADD PUSH1 0x0 KECCAK256 PUSH1 0x2 ADD DUP2 SWAP1 SSTORE POP PUSH1 0x4 SLOAD PUSH1 0x15 PUSH1 0x0 PUSH1 0x4 SLOAD DUP2 MSTORE PUSH1 0x20 ADD SWAP1 DUP2 MSTORE PUSH1 0x20 ADD PUSH1 0x0 KECCAK256 PUSH1 0x0 ADD DUP2 SWAP1 SSTORE POP DUP5 PUSH1 0x15 PUSH1 0x0 PUSH1 0x4 SLOAD DUP2 MSTORE PUSH1 0x20 ADD SWAP1 DUP2 MSTORE PUSH1 0x20 ADD PUSH1 0x0 KECCAK256 PUSH1 0x3 ADD DUP2 SWAP1 SSTORE POP DUP4 PUSH1 0x14 PUSH1 0x0 PUSH1 0x4 SLOAD DUP2 MSTORE PUSH1 0x20 ADD SWAP1 DUP2 MSTORE PUSH1 0x20 ADD PUSH1 0x0 KECCAK256 PUSH1 0x2 ADD DUP2 SWAP1 SSTORE POP PUSH1 0x0 PUSH1 0x14 PUSH1 0x0 PUSH1 0x4 SLOAD DUP2 MSTORE PUSH1 0x20 ADD SWAP1 DUP2 MSTORE PUSH1 0x20 ADD PUSH1 0x0 KECCAK256 PUSH1 0x9 ADD PUSH1 0x14 PUSH2 0x100 EXP DUP2 SLOAD DUP2 PUSH1 0xFF MUL NOT AND SWAP1 DUP4 PUSH1 0x3 DUP2 GT ISZERO PUSH2 0x25A0 JUMPI PUSH2 0x25A0 PUSH2 0x5794 JUMP JUMPDEST MUL OR SWAP1 SSTORE POP PUSH1 0x4 DUP1 SLOAD PUSH1 0x0 SWAP1 DUP2 MSTORE PUSH1 0x14 PUSH1 0x20 MSTORE PUSH1 0x40 DUP1 DUP3 KECCAK256 PUSH1 0x9 ADD DUP1 SLOAD PUSH1 0x1 PUSH1 0x1 PUSH1 0xA0 SHL SUB NOT AND CALLER OR SWAP1 SSTORE SWAP2 SLOAD DUP2 MSTORE KECCAK256 PUSH1 0xB ADD DUP1 SLOAD DUP3 SWAP2 SWAP1 PUSH1 0xFF NOT AND PUSH1 0x1 DUP4 DUP2 DUP2 GT ISZERO PUSH2 0x25EF JUMPI PUSH2 0x25EF PUSH2 0x5794 JUMP JUMPDEST MUL OR SWAP1 SSTORE POP PUSH2 0x2606 PUSH1 0x64 PUSH2 0x115C DUP13 DUP2 DUP13 PUSH1 0xA PUSH2 0x4037 JUMP JUMPDEST PUSH2 0x2610 DUP10 DUP13 PUSH2 0x3E21 JUMP JUMPDEST PUSH2 0x261A SWAP2 SWAP1 PUSH2 0x565A JUMP JUMPDEST PUSH1 0x4 DUP1 SLOAD PUSH1 0x0 SWAP1 DUP2 MSTORE PUSH1 0x14 PUSH1 0x20 SWAP1 DUP2 MSTORE PUSH1 0x40 DUP1 DUP4 KECCAK256 PUSH1 0x5 ADD SWAP5 SWAP1 SWAP5 SSTORE CALLER DUP3 MSTORE PUSH1 0x22 DUP2 MSTORE SWAP3 DUP2 KECCAK256 SWAP2 SLOAD DUP3 SLOAD PUSH1 0x1 DUP2 ADD DUP5 SSTORE SWAP3 DUP3 MSTORE SWAP3 SWAP1 KECCAK256 ADD SSTORE PUSH1 0x8 SLOAD PUSH2 0x2666 SWAP1 PUSH1 0x64 SWAP1 PUSH2 0x115C SWAP1 DUP12 PUSH2 0x5686 JUMP JUMPDEST PUSH1 0xF SLOAD PUSH1 0x1 PUSH1 0x1 PUSH1 0xA0 SHL SUB AND PUSH1 0x0 SWAP1 DUP2 MSTORE PUSH1 0x11 PUSH1 0x20 MSTORE PUSH1 0x40 DUP2 KECCAK256 PUSH1 0x9 ADD DUP1 SLOAD SWAP1 SWAP2 SWAP1 PUSH2 0x2693 SWAP1 DUP5 SWAP1 PUSH2 0x565A JUMP JUMPDEST SWAP1 SWAP2 SSTORE POP POP CALLER PUSH1 0x0 SWAP1 DUP2 MSTORE PUSH1 0x11 PUSH1 0x20 MSTORE PUSH1 0x40 SWAP1 KECCAK256 PUSH1 0x1 ADD SLOAD PUSH1 0x1 PUSH1 0x1 PUSH1 0xA0 SHL SUB AND ISZERO PUSH2 0x2721 JUMPI PUSH2 0x26C4 DUP9 PUSH1 0x64 PUSH2 0x3E21 JUMP JUMPDEST CALLER PUSH1 0x0 SWAP1 DUP2 MSTORE PUSH1 0x11 PUSH1 0x20 SWAP1 DUP2 MSTORE PUSH1 0x40 DUP1 DUP4 KECCAK256 PUSH1 0x1 ADD SLOAD PUSH1 0x1 PUSH1 0x1 PUSH1 0xA0 SHL SUB AND DUP4 MSTORE PUSH1 0x17 SWAP1 SWAP2 MSTORE SWAP1 KECCAK256 SLOAD PUSH2 0x26F7 SWAP2 SWAP1 PUSH2 0x565A JUMP JUMPDEST CALLER PUSH1 0x0 SWAP1 DUP2 MSTORE PUSH1 0x11 PUSH1 0x20 SWAP1 DUP2 MSTORE PUSH1 0x40 DUP1 DUP4 KECCAK256 PUSH1 0x1 ADD SLOAD PUSH1 0x1 PUSH1 0x1 PUSH1 0xA0 SHL SUB AND DUP4 MSTORE PUSH1 0x17 SWAP1 SWAP2 MSTORE SWAP1 KECCAK256 SSTORE JUMPDEST PUSH1 0x0 DUP4 DUP2 MSTORE PUSH1 0x13 PUSH1 0x20 SWAP1 DUP2 MSTORE PUSH1 0x40 DUP1 DUP4 KECCAK256 PUSH1 0x2 ADD SLOAD PUSH2 0x100 SWAP1 DIV PUSH1 0x1 PUSH1 0x1 PUSH1 0xA0 SHL SUB AND DUP4 MSTORE PUSH1 0x21 DUP3 MSTORE DUP1 DUP4 KECCAK256 PUSH1 0x4 DUP1 SLOAD DUP3 SLOAD PUSH1 0x1 DUP2 ADD DUP5 SSTORE SWAP3 DUP7 MSTORE DUP5 DUP7 KECCAK256 SWAP1 SWAP3 ADD SWAP2 SWAP1 SWAP2 SSTORE CALLER DUP1 DUP6 MSTORE PUSH1 0x11 DUP5 MSTORE SWAP4 DUP3 SWAP1 KECCAK256 PUSH1 0x7 ADD SLOAD SWAP1 SLOAD DUP3 MLOAD DUP16 DUP2 MSTORE SWAP4 DUP5 ADD DUP15 SWAP1 MSTORE SWAP2 DUP4 ADD DUP13 SWAP1 MSTORE PUSH1 0x60 DUP4 ADD DUP9 SWAP1 MSTORE PUSH1 0x80 DUP4 ADD DUP12 SWAP1 MSTORE SWAP3 SWAP2 PUSH32 0xE6E4222B2C2DDB82EB8817D7BD8EC6FC5EB5F915B4D7B36C260AA77BA04DA7DB SWAP1 PUSH1 0xA0 ADD PUSH1 0x40 MLOAD DUP1 SWAP2 SUB SWAP1 LOG4 PUSH1 0x4 DUP1 SLOAD SWAP1 PUSH1 0x0 PUSH2 0x27D6 DUP4 PUSH2 0x5723 JUMP JUMPDEST SWAP2 SWAP1 POP SSTORE POP POP POP POP POP POP POP POP POP POP POP JUMP JUMPDEST CALLER PUSH1 0x0 SWAP1 DUP2 MSTORE PUSH1 0x11 PUSH1 0x20 MSTORE PUSH1 0x40 DUP2 KECCAK256 PUSH1 0x8 ADD SLOAD PUSH1 0x9 SLOAD SWAP1 SWAP2 SWAP1 PUSH2 0x2812 SWAP1 PUSH1 0x64 SWAP1 PUSH2 0x115C SWAP1 DUP6 SWAP1 PUSH2 0x4037 JUMP JUMPDEST SWAP1 POP PUSH1 0x0 PUSH2 0x2820 DUP4 DUP4 PUSH2 0x426C JUMP JUMPDEST PUSH1 0x40 MLOAD SWAP1 SWAP2 POP CALLER SWAP1 DUP3 ISZERO PUSH2 0x8FC MUL SWAP1 DUP4 SWAP1 PUSH1 0x0 DUP2 DUP2 DUP2 DUP6 DUP9 DUP9 CALL SWAP4 POP POP POP POP ISZERO DUP1 ISZERO PUSH2 0x2850 JUMPI RETURNDATASIZE PUSH1 0x0 DUP1 RETURNDATACOPY RETURNDATASIZE PUSH1 0x0 REVERT JUMPDEST POP PUSH1 0xF SLOAD PUSH1 0x1 PUSH1 0x1 PUSH1 0xA0 SHL SUB AND PUSH1 0x0 SWAP1 DUP2 MSTORE PUSH1 0x11 PUSH1 0x20 MSTORE PUSH1 0x40 DUP2 KECCAK256 PUSH1 0x9 ADD DUP1 SLOAD DUP5 SWAP3 SWAP1 PUSH2 0x287E SWAP1 DUP5 SWAP1 PUSH2 0x565A JUMP JUMPDEST SWAP1 SWAP2 SSTORE POP POP CALLER PUSH1 0x0 SWAP1 DUP2 MSTORE PUSH1 0x11 PUSH1 0x20 MSTORE PUSH1 0x40 DUP2 KECCAK256 PUSH1 0x9 ADD DUP1 SLOAD DUP4 SWAP3 SWAP1 PUSH2 0x28A5 SWAP1 DUP5 SWAP1 PUSH2 0x565A JUMP JUMPDEST SWAP1 SWAP2 SSTORE POP POP CALLER PUSH1 0x0 SWAP1 DUP2 MSTORE PUSH1 0x11 PUSH1 0x20 MSTORE PUSH1 0x40 DUP2 KECCAK256 PUSH1 0x8 ADD SSTORE POP POP POP JUMP JUMPDEST PUSH1 0x0 DUP2 DUP2 MSTORE PUSH1 0x14 PUSH1 0x20 MSTORE PUSH1 0x40 DUP2 KECCAK256 PUSH1 0xA DUP2 ADD SLOAD PUSH1 0x60 SWAP3 DUP4 SWAP3 SWAP2 PUSH8 0xFFFFFFFFFFFFFFFF DUP2 GT ISZERO PUSH2 0x28F3 JUMPI PUSH2 0x28F3 PUSH2 0x57C0 JUMP JUMPDEST PUSH1 0x40 MLOAD SWAP1 DUP1 DUP3 MSTORE DUP1 PUSH1 0x20 MUL PUSH1 0x20 ADD DUP3 ADD PUSH1 0x40 MSTORE DUP1 ISZERO PUSH2 0x291C JUMPI DUP2 PUSH1 0x20 ADD PUSH1 0x20 DUP3 MUL DUP1 CALLDATASIZE DUP4 CALLDATACOPY ADD SWAP1 POP JUMPDEST POP PUSH1 0x1 DUP4 ADD SLOAD PUSH1 0xA DUP5 ADD SLOAD SWAP2 SWAP3 POP PUSH1 0x0 SWAP2 PUSH2 0x2937 SWAP2 SWAP1 PUSH2 0x5686 JUMP JUMPDEST PUSH8 0xFFFFFFFFFFFFFFFF DUP2 GT ISZERO PUSH2 0x294F JUMPI PUSH2 0x294F PUSH2 0x57C0 JUMP JUMPDEST PUSH1 0x40 MLOAD SWAP1 DUP1 DUP3 MSTORE DUP1 PUSH1 0x20 MUL PUSH1 0x20 ADD DUP3 ADD PUSH1 0x40 MSTORE DUP1 ISZERO PUSH2 0x2978 JUMPI DUP2 PUSH1 0x20 ADD PUSH1 0x20 DUP3 MUL DUP1 CALLDATASIZE DUP4 CALLDATACOPY ADD SWAP1 POP JUMPDEST POP SWAP1 POP PUSH1 0x0 DUP1 PUSH1 0x0 JUMPDEST PUSH1 0xA DUP7 ADD SLOAD DUP2 LT ISZERO PUSH2 0x2A98 JUMPI DUP6 PUSH1 0xA ADD DUP2 DUP2 SLOAD DUP2 LT PUSH2 0x29A2 JUMPI PUSH2 0x29A2 PUSH2 0x57AA JUMP JUMPDEST PUSH1 0x0 SWAP2 DUP3 MSTORE PUSH1 0x20 SWAP1 SWAP2 KECCAK256 PUSH1 0x3 SWAP1 SWAP2 MUL ADD SLOAD PUSH1 0x1 PUSH1 0x1 PUSH1 0xA0 SHL SUB AND DUP6 DUP5 PUSH2 0x29C7 DUP2 PUSH2 0x5723 JUMP JUMPDEST SWAP6 POP DUP2 MLOAD DUP2 LT PUSH2 0x29D9 JUMPI PUSH2 0x29D9 PUSH2 0x57AA JUMP JUMPDEST PUSH1 0x20 MUL PUSH1 0x20 ADD ADD SWAP1 PUSH1 0x1 PUSH1 0x1 PUSH1 0xA0 SHL SUB AND SWAP1 DUP2 PUSH1 0x1 PUSH1 0x1 PUSH1 0xA0 SHL SUB AND DUP2 MSTORE POP POP PUSH1 0x0 JUMPDEST DUP7 PUSH1 0x1 ADD SLOAD DUP2 LT ISZERO PUSH2 0x2A85 JUMPI DUP7 PUSH1 0xA ADD DUP3 DUP2 SLOAD DUP2 LT PUSH2 0x2A1D JUMPI PUSH2 0x2A1D PUSH2 0x57AA JUMP JUMPDEST SWAP1 PUSH1 0x0 MSTORE PUSH1 0x20 PUSH1 0x0 KECCAK256 SWAP1 PUSH1 0x3 MUL ADD PUSH1 0x2 ADD DUP2 DUP2 SLOAD DUP2 LT PUSH2 0x2A3F JUMPI PUSH2 0x2A3F PUSH2 0x57AA JUMP JUMPDEST SWAP1 PUSH1 0x0 MSTORE PUSH1 0x20 PUSH1 0x0 KECCAK256 ADD SLOAD DUP6 DUP5 DUP1 PUSH2 0x2A56 SWAP1 PUSH2 0x5723 JUMP JUMPDEST SWAP6 POP DUP2 MLOAD DUP2 LT PUSH2 0x2A68 JUMPI PUSH2 0x2A68 PUSH2 0x57AA JUMP JUMPDEST PUSH1 0x20 SWAP1 DUP2 MUL SWAP2 SWAP1 SWAP2 ADD ADD MSTORE DUP1 PUSH2 0x2A7D DUP2 PUSH2 0x5723 JUMP JUMPDEST SWAP2 POP POP PUSH2 0x29FC JUMP JUMPDEST POP DUP1 PUSH2 0x2A90 DUP2 PUSH2 0x5723 JUMP JUMPDEST SWAP2 POP POP PUSH2 0x2981 JUMP JUMPDEST POP SWAP2 SWAP8 SWAP3 SWAP7 POP SWAP2 SWAP5 POP POP POP POP POP JUMP JUMPDEST PUSH1 0x11 PUSH1 0x20 MSTORE PUSH1 0x0 SWAP1 DUP2 MSTORE PUSH1 0x40 SWAP1 KECCAK256 DUP1 SLOAD PUSH1 0x1 DUP3 ADD SLOAD PUSH1 0x2 DUP4 ADD DUP1 SLOAD PUSH1 0xFF DUP5 AND SWAP5 PUSH2 0x100 SWAP1 SWAP5 DIV PUSH1 0x1 PUSH1 0x1 PUSH1 0xA0 SHL SUB SWAP1 DUP2 AND SWAP5 SWAP4 AND SWAP3 SWAP2 SWAP1 PUSH2 0x14D4 SWAP1 PUSH2 0x56E8 JUMP JUMPDEST PUSH1 0xF SLOAD PUSH1 0x0 SWAP1 PUSH1 0x60 SWAP1 PUSH1 0x1 PUSH1 0xA0 SHL SWAP1 DIV PUSH1 0xFF AND ISZERO PUSH2 0x2B47 JUMPI PUSH1 0x40 MLOAD PUSH3 0x461BCD PUSH1 0xE5 SHL DUP2 MSTORE PUSH1 0x20 PUSH1 0x4 DUP3 ADD MSTORE PUSH1 0x16 PUSH1 0x24 DUP3 ADD MSTORE PUSH32 0x416E6F7468657220526573756C742072756E6E696E6700000000000000000000 PUSH1 0x44 DUP3 ADD MSTORE PUSH1 0x64 ADD PUSH2 0xC58 JUMP JUMPDEST PUSH1 0x1 JUMPDEST PUSH1 0x4 SLOAD DUP2 LT ISZERO PUSH2 0x2C1E JUMPI PUSH1 0x1 PUSH1 0x0 DUP3 DUP2 MSTORE PUSH1 0x14 PUSH1 0x20 MSTORE PUSH1 0x40 SWAP1 KECCAK256 PUSH1 0xB ADD SLOAD PUSH1 0xFF AND PUSH1 0x1 DUP2 GT ISZERO PUSH2 0x2B7C JUMPI PUSH2 0x2B7C PUSH2 0x5794 JUMP JUMPDEST EQ ISZERO PUSH2 0x2C0C JUMPI PUSH1 0x2 PUSH1 0x0 DUP3 DUP2 MSTORE PUSH1 0x14 PUSH1 0x20 MSTORE PUSH1 0x40 SWAP1 KECCAK256 PUSH1 0x9 ADD SLOAD PUSH1 0x1 PUSH1 0xA0 SHL SWAP1 DIV PUSH1 0xFF AND PUSH1 0x3 DUP2 GT ISZERO PUSH2 0x2BB1 JUMPI PUSH2 0x2BB1 PUSH2 0x5794 JUMP JUMPDEST EQ PUSH2 0x2C0C JUMPI PUSH1 0x0 DUP2 DUP2 MSTORE PUSH1 0x1B PUSH1 0x20 SWAP1 DUP2 MSTORE PUSH1 0x40 DUP1 DUP4 KECCAK256 SLOAD PUSH1 0x14 SWAP1 SWAP3 MSTORE SWAP1 SWAP2 KECCAK256 PUSH1 0x5 ADD SLOAD GT PUSH2 0x2C0C JUMPI PUSH1 0x0 DUP2 DUP2 MSTORE PUSH1 0x15 PUSH1 0x20 MSTORE PUSH1 0x40 SWAP1 KECCAK256 PUSH1 0x3 ADD SLOAD TIMESTAMP GT ISZERO PUSH2 0x2C0C JUMPI POP POP PUSH1 0x40 DUP1 MLOAD PUSH1 0x20 DUP2 ADD SWAP1 SWAP2 MSTORE PUSH1 0x0 DUP2 MSTORE PUSH1 0x1 SWAP2 POP PUSH2 0x2C20 JUMP JUMPDEST DUP1 PUSH2 0x2C16 DUP2 PUSH2 0x5723 JUMP JUMPDEST SWAP2 POP POP PUSH2 0x2B4A JUMP JUMPDEST POP JUMPDEST SWAP3 POP SWAP3 SWAP1 POP JUMP JUMPDEST PUSH1 0xF SLOAD PUSH1 0x1 PUSH1 0x1 PUSH1 0xA0 SHL SUB AND CALLER EQ PUSH2 0x2C6F JUMPI PUSH1 0x40 MLOAD PUSH3 0x461BCD PUSH1 0xE5 SHL DUP2 MSTORE PUSH1 0x20 PUSH1 0x4 DUP3 ADD MSTORE PUSH1 0xB PUSH1 0x24 DUP3 ADD MSTORE PUSH11 0x3737BA16B096B0B236B4B7 PUSH1 0xA9 SHL PUSH1 0x44 DUP3 ADD MSTORE PUSH1 0x64 ADD PUSH2 0xC58 JUMP JUMPDEST PUSH1 0x1 PUSH1 0x1 PUSH1 0xA0 SHL SUB DUP2 AND PUSH2 0x2C82 JUMPI PUSH1 0x0 DUP1 REVERT JUMPDEST PUSH1 0xF DUP1 SLOAD PUSH1 0x1 PUSH1 0x1 PUSH1 0xA0 SHL SUB NOT AND PUSH1 0x1 PUSH1 0x1 PUSH1 0xA0 SHL SUB SWAP3 SWAP1 SWAP3 AND SWAP2 SWAP1 SWAP2 OR SWAP1 SSTORE JUMP JUMPDEST PUSH1 0x12 PUSH1 0x20 MSTORE PUSH1 0x0 SWAP1 DUP2 MSTORE PUSH1 0x40 SWAP1 KECCAK256 DUP1 SLOAD DUP2 SWAP1 PUSH2 0x2CBF SWAP1 PUSH2 0x56E8 JUMP JUMPDEST DUP1 PUSH1 0x1F ADD PUSH1 0x20 DUP1 SWAP2 DIV MUL PUSH1 0x20 ADD PUSH1 0x40 MLOAD SWAP1 DUP2 ADD PUSH1 0x40 MSTORE DUP1 SWAP3 SWAP2 SWAP1 DUP2 DUP2 MSTORE PUSH1 0x20 ADD DUP3 DUP1 SLOAD PUSH2 0x2CEB SWAP1 PUSH2 0x56E8 JUMP JUMPDEST DUP1 ISZERO PUSH2 0x2D38 JUMPI DUP1 PUSH1 0x1F LT PUSH2 0x2D0D JUMPI PUSH2 0x100 DUP1 DUP4 SLOAD DIV MUL DUP4 MSTORE SWAP2 PUSH1 0x20 ADD SWAP2 PUSH2 0x2D38 JUMP JUMPDEST DUP3 ADD SWAP2 SWAP1 PUSH1 0x0 MSTORE PUSH1 0x20 PUSH1 0x0 KECCAK256 SWAP1 JUMPDEST DUP2 SLOAD DUP2 MSTORE SWAP1 PUSH1 0x1 ADD SWAP1 PUSH1 0x20 ADD DUP1 DUP4 GT PUSH2 0x2D1B JUMPI DUP3 SWAP1 SUB PUSH1 0x1F AND DUP3 ADD SWAP2 JUMPDEST POP POP POP POP POP SWAP1 DUP1 PUSH1 0x1 ADD DUP1 SLOAD PUSH2 0x2D4D SWAP1 PUSH2 0x56E8 JUMP JUMPDEST DUP1 PUSH1 0x1F ADD PUSH1 0x20 DUP1 SWAP2 DIV MUL PUSH1 0x20 ADD PUSH1 0x40 MLOAD SWAP1 DUP2 ADD PUSH1 0x40 MSTORE DUP1 SWAP3 SWAP2 SWAP1 DUP2 DUP2 MSTORE PUSH1 0x20 ADD DUP3 DUP1 SLOAD PUSH2 0x2D79 SWAP1 PUSH2 0x56E8 JUMP JUMPDEST DUP1 ISZERO PUSH2 0x2DC6 JUMPI DUP1 PUSH1 0x1F LT PUSH2 0x2D9B JUMPI PUSH2 0x100 DUP1 DUP4 SLOAD DIV MUL DUP4 MSTORE SWAP2 PUSH1 0x20 ADD SWAP2 PUSH2 0x2DC6 JUMP JUMPDEST DUP3 ADD SWAP2 SWAP1 PUSH1 0x0 MSTORE PUSH1 0x20 PUSH1 0x0 KECCAK256 SWAP1 JUMPDEST DUP2 SLOAD DUP2 MSTORE SWAP1 PUSH1 0x1 ADD SWAP1 PUSH1 0x20 ADD DUP1 DUP4 GT PUSH2 0x2DA9 JUMPI DUP3 SWAP1 SUB PUSH1 0x1F AND DUP3 ADD SWAP2 JUMPDEST POP POP POP POP PUSH1 0x2 DUP4 ADD SLOAD PUSH1 0x3 DUP5 ADD SLOAD PUSH1 0x4 SWAP1 SWAP5 ADD SLOAD SWAP3 SWAP4 PUSH1 0xFF DUP3 AND SWAP4 PUSH2 0x100 SWAP1 SWAP3 DIV PUSH1 0x1 PUSH1 0x1 PUSH1 0xA0 SHL SUB AND SWAP3 POP SWAP1 DUP7 JUMP JUMPDEST PUSH1 0x1 SLOAD PUSH1 0x1 PUSH1 0x1 PUSH1 0xA0 SHL SUB AND CALLER EQ PUSH2 0x2E50 JUMPI PUSH1 0x40 MLOAD PUSH3 0x461BCD PUSH1 0xE5 SHL DUP2 MSTORE PUSH1 0x20 PUSH1 0x4 DUP3 ADD MSTORE PUSH1 0x16 PUSH1 0x24 DUP3 ADD MSTORE PUSH32 0x4D7573742062652070726F706F736564206F776E657200000000000000000000 PUSH1 0x44 DUP3 ADD MSTORE PUSH1 0x64 ADD PUSH2 0xC58 JUMP JUMPDEST PUSH1 0x0 DUP1 SLOAD CALLER PUSH1 0x1 PUSH1 0x1 PUSH1 0xA0 SHL SUB NOT DUP1 DUP4 AND DUP3 OR DUP5 SSTORE PUSH1 0x1 DUP1 SLOAD SWAP1 SWAP2 AND SWAP1 SSTORE PUSH1 0x40 MLOAD PUSH1 0x1 PUSH1 0x1 PUSH1 0xA0 SHL SUB SWAP1 SWAP3 AND SWAP3 SWAP1 SWAP2 DUP4 SWAP2 PUSH32 0x8BE0079C531659141344CD1FD0A4F28419497F9722A3DAAFE3B4186F6B6457E0 SWAP2 LOG3 POP JUMP JUMPDEST PUSH1 0x1 PUSH1 0x1 PUSH1 0xA0 SHL SUB DUP3 AND PUSH2 0x2EBD JUMPI PUSH2 0x2EBD PUSH2 0x5752 JUMP JUMPDEST PUSH1 0x1 PUSH1 0x1 PUSH1 0xA0 SHL SUB DUP3 DUP2 AND PUSH1 0x0 SWAP1 DUP2 MSTORE PUSH1 0x12 PUSH1 0x20 MSTORE PUSH1 0x40 SWAP1 KECCAK256 PUSH1 0x2 ADD SLOAD PUSH2 0x100 SWAP1 DIV AND PUSH2 0x2F2C JUMPI PUSH1 0x40 MLOAD PUSH3 0x461BCD PUSH1 0xE5 SHL DUP2 MSTORE PUSH1 0x20 PUSH1 0x4 DUP3 ADD MSTORE PUSH1 0x16 PUSH1 0x24 DUP3 ADD MSTORE PUSH32 0x4E6F7420416C7265616479207265676973746572656400000000000000000000 PUSH1 0x44 DUP3 ADD MSTORE PUSH1 0x64 ADD PUSH2 0xC58 JUMP JUMPDEST PUSH1 0x1 PUSH1 0x1 PUSH1 0xA0 SHL SUB DUP1 DUP4 AND PUSH1 0x0 DUP2 DUP2 MSTORE PUSH1 0x12 PUSH1 0x20 MSTORE PUSH1 0x40 SWAP1 KECCAK256 PUSH1 0x2 ADD SLOAD PUSH2 0x100 SWAP1 DIV SWAP1 SWAP2 AND EQ PUSH2 0x2F9E JUMPI PUSH1 0x40 MLOAD PUSH3 0x461BCD PUSH1 0xE5 SHL DUP2 MSTORE PUSH1 0x20 PUSH1 0x4 DUP3 ADD MSTORE PUSH1 0x17 PUSH1 0x24 DUP3 ADD MSTORE PUSH32 0x57726F6E67206164647265737320746F20757064617465000000000000000000 PUSH1 0x44 DUP3 ADD MSTORE PUSH1 0x64 ADD PUSH2 0xC58 JUMP JUMPDEST PUSH1 0x40 DUP1 MLOAD PUSH1 0xC0 DUP2 ADD DUP3 MSTORE DUP7 DUP2 MSTORE PUSH1 0x20 DUP1 DUP3 ADD DUP8 SWAP1 MSTORE DUP6 ISZERO ISZERO DUP3 DUP5 ADD MSTORE PUSH1 0x1 PUSH1 0x1 PUSH1 0xA0 SHL SUB DUP6 AND PUSH1 0x60 DUP4 ADD DUP2 SWAP1 MSTORE PUSH1 0x80 DUP4 ADD DUP6 SWAP1 MSTORE PUSH1 0x0 DUP2 DUP2 MSTORE PUSH1 0x12 DUP1 DUP5 MSTORE SWAP5 DUP2 KECCAK256 PUSH1 0x4 DUP2 ADD SLOAD PUSH1 0xA0 DUP7 ADD MSTORE SWAP2 SWAP1 MSTORE SWAP3 DUP2 MSTORE DUP2 MLOAD DUP1 MLOAD SWAP3 SWAP4 SWAP3 PUSH2 0x3003 SWAP3 DUP5 SWAP3 ADD SWAP1 PUSH2 0x4C27 JUMP JUMPDEST POP PUSH1 0x20 DUP3 DUP2 ADD MLOAD DUP1 MLOAD PUSH2 0x301C SWAP3 PUSH1 0x1 DUP6 ADD SWAP3 ADD SWAP1 PUSH2 0x4C27 JUMP JUMPDEST POP PUSH1 0x40 DUP3 DUP2 ADD MLOAD PUSH1 0x2 DUP4 ADD DUP1 SLOAD PUSH1 0x60 DUP1 DUP8 ADD MLOAD PUSH21 0xFFFFFFFFFFFFFFFFFFFFFFFFFFFFFFFFFFFFFFFFFF NOT SWAP1 SWAP3 AND SWAP4 ISZERO ISZERO PUSH21 0xFFFFFFFFFFFFFFFFFFFFFFFFFFFFFFFFFFFFFFFF00 NOT AND SWAP4 SWAP1 SWAP4 OR PUSH2 0x100 PUSH1 0x1 PUSH1 0x1 PUSH1 0xA0 SHL SUB SWAP3 DUP4 AND MUL OR SWAP1 SWAP2 SSTORE PUSH1 0x80 DUP1 DUP7 ADD MLOAD PUSH1 0x3 DUP7 ADD SSTORE PUSH1 0xA0 SWAP6 DUP7 ADD MLOAD PUSH1 0x4 SWAP6 DUP7 ADD SSTORE DUP4 MLOAD PUSH1 0xC0 DUP2 ADD DUP6 MSTORE DUP12 DUP2 MSTORE PUSH1 0x20 DUP1 DUP3 ADD DUP13 SWAP1 MSTORE DUP11 ISZERO ISZERO DUP3 DUP8 ADD MSTORE SWAP3 DUP10 AND SWAP4 DUP2 ADD DUP5 SWAP1 MSTORE SWAP1 DUP2 ADD DUP8 SWAP1 MSTORE PUSH1 0x0 SWAP3 DUP4 MSTORE PUSH1 0x12 DUP3 MSTORE DUP4 DUP4 KECCAK256 SWAP1 SWAP5 ADD SLOAD SWAP5 DUP5 ADD DUP6 SWAP1 MSTORE SWAP4 DUP2 MSTORE PUSH1 0x13 DUP5 MSTORE KECCAK256 DUP2 MLOAD DUP1 MLOAD SWAP3 SWAP4 SWAP2 SWAP3 PUSH2 0x30EE SWAP3 DUP5 SWAP3 ADD SWAP1 PUSH2 0x4C27 JUMP JUMPDEST POP PUSH1 0x20 DUP3 DUP2 ADD MLOAD DUP1 MLOAD PUSH2 0x3107 SWAP3 PUSH1 0x1 DUP6 ADD SWAP3 ADD SWAP1 PUSH2 0x4C27 JUMP JUMPDEST POP PUSH1 0x40 DUP3 ADD MLOAD PUSH1 0x2 DUP3 ADD DUP1 SLOAD PUSH1 0x60 DUP6 ADD MLOAD PUSH1 0x1 PUSH1 0x1 PUSH1 0xA0 SHL SUB AND PUSH2 0x100 MUL PUSH21 0xFFFFFFFFFFFFFFFFFFFFFFFFFFFFFFFFFFFFFFFF00 NOT SWAP4 ISZERO ISZERO SWAP4 SWAP1 SWAP4 AND PUSH21 0xFFFFFFFFFFFFFFFFFFFFFFFFFFFFFFFFFFFFFFFFFF NOT SWAP1 SWAP2 AND OR SWAP2 SWAP1 SWAP2 OR SWAP1 SSTORE PUSH1 0x80 DUP3 ADD MLOAD PUSH1 0x3 DUP3 ADD SSTORE PUSH1 0xA0 SWAP1 SWAP2 ADD MLOAD PUSH1 0x4 SWAP1 SWAP2 ADD SSTORE POP POP POP POP POP JUMP JUMPDEST PUSH1 0xF SLOAD PUSH1 0x0 SWAP1 PUSH1 0x1 PUSH1 0x1 PUSH1 0xA0 SHL SUB AND CALLER EQ PUSH2 0x31CC JUMPI PUSH1 0x40 MLOAD PUSH3 0x461BCD PUSH1 0xE5 SHL DUP2 MSTORE PUSH1 0x20 PUSH1 0x4 DUP3 ADD MSTORE PUSH1 0xB PUSH1 0x24 DUP3 ADD MSTORE PUSH11 0x3737BA16B096B0B236B4B7 PUSH1 0xA9 SHL PUSH1 0x44 DUP3 ADD MSTORE PUSH1 0x64 ADD PUSH2 0xC58 JUMP JUMPDEST POP SELFBALANCE SWAP1 JUMP JUMPDEST PUSH1 0xF SLOAD PUSH1 0x1 PUSH1 0x1 PUSH1 0xA0 SHL SUB AND CALLER EQ PUSH2 0x3219 JUMPI PUSH1 0x40 MLOAD PUSH3 0x461BCD PUSH1 0xE5 SHL DUP2 MSTORE PUSH1 0x20 PUSH1 0x4 DUP3 ADD MSTORE PUSH1 0xB PUSH1 0x24 DUP3 ADD MSTORE PUSH11 0x3737BA16B096B0B236B4B7 PUSH1 0xA9 SHL PUSH1 0x44 DUP3 ADD MSTORE PUSH1 0x64 ADD PUSH2 0xC58 JUMP JUMPDEST PUSH1 0x40 MLOAD PUSH4 0x70A08231 PUSH1 0xE0 SHL DUP2 MSTORE ADDRESS PUSH1 0x4 DUP3 ADD MSTORE PUSH32 0x0 PUSH1 0x1 PUSH1 0x1 PUSH1 0xA0 SHL SUB AND SWAP1 PUSH4 0xA9059CBB SWAP1 CALLER SWAP1 DUP4 SWAP1 PUSH4 0x70A08231 SWAP1 PUSH1 0x24 ADD PUSH1 0x20 PUSH1 0x40 MLOAD DUP1 DUP4 SUB DUP2 DUP7 DUP1 EXTCODESIZE ISZERO DUP1 ISZERO PUSH2 0x3282 JUMPI PUSH1 0x0 DUP1 REVERT JUMPDEST POP GAS STATICCALL ISZERO DUP1 ISZERO PUSH2 0x3296 JUMPI RETURNDATASIZE PUSH1 0x0 DUP1 RETURNDATACOPY RETURNDATASIZE PUSH1 0x0 REVERT JUMPDEST POP POP POP POP PUSH1 0x40 MLOAD RETURNDATASIZE PUSH1 0x1F NOT PUSH1 0x1F DUP3 ADD AND DUP3 ADD DUP1 PUSH1 0x40 MSTORE POP DUP2 ADD SWAP1 PUSH2 0x32BA SWAP2 SWAP1 PUSH2 0x50F1 JUMP JUMPDEST PUSH1 0x40 MLOAD PUSH32 0xFFFFFFFF00000000000000000000000000000000000000000000000000000000 PUSH1 0xE0 DUP6 SWAP1 SHL AND DUP2 MSTORE PUSH1 0x1 PUSH1 0x1 PUSH1 0xA0 SHL SUB SWAP1 SWAP3 AND PUSH1 0x4 DUP4 ADD MSTORE PUSH1 0x24 DUP3 ADD MSTORE PUSH1 0x44 ADD PUSH1 0x20 PUSH1 0x40 MLOAD DUP1 DUP4 SUB DUP2 PUSH1 0x0 DUP8 DUP1 EXTCODESIZE ISZERO DUP1 ISZERO PUSH2 0x3318 JUMPI PUSH1 0x0 DUP1 REVERT JUMPDEST POP GAS CALL ISZERO DUP1 ISZERO PUSH2 0x332C JUMPI RETURNDATASIZE PUSH1 0x0 DUP1 RETURNDATACOPY RETURNDATASIZE PUSH1 0x0 REVERT JUMPDEST POP POP POP POP PUSH1 0x40 MLOAD RETURNDATASIZE PUSH1 0x1F NOT PUSH1 0x1F DUP3 ADD AND DUP3 ADD DUP1 PUSH1 0x40 MSTORE POP DUP2 ADD SWAP1 PUSH2 0x3350 SWAP2 SWAP1 PUSH2 0x4F85 JUMP JUMPDEST PUSH2 0x339C JUMPI PUSH1 0x40 MLOAD PUSH3 0x461BCD PUSH1 0xE5 SHL DUP2 MSTORE PUSH1 0x20 PUSH1 0x4 DUP3 ADD MSTORE PUSH1 0x12 PUSH1 0x24 DUP3 ADD MSTORE PUSH32 0x556E61626C6520746F207472616E736665720000000000000000000000000000 PUSH1 0x44 DUP3 ADD MSTORE PUSH1 0x64 ADD PUSH2 0xC58 JUMP JUMPDEST JUMP JUMPDEST CALLER PUSH1 0x0 DUP2 DUP2 MSTORE PUSH1 0x17 PUSH1 0x20 MSTORE PUSH1 0x40 DUP1 DUP3 KECCAK256 SLOAD SWAP1 MLOAD SWAP1 SWAP3 SWAP2 DUP4 ISZERO PUSH2 0x8FC MUL SWAP2 DUP5 SWAP2 DUP2 DUP2 DUP2 DUP6 DUP9 DUP9 CALL SWAP4 POP POP POP POP ISZERO DUP1 ISZERO PUSH2 0x33DA JUMPI RETURNDATASIZE PUSH1 0x0 DUP1 RETURNDATACOPY RETURNDATASIZE PUSH1 0x0 REVERT JUMPDEST POP POP CALLER PUSH1 0x0 SWAP1 DUP2 MSTORE PUSH1 0x17 PUSH1 0x20 MSTORE PUSH1 0x40 DUP2 KECCAK256 SSTORE JUMP JUMPDEST PUSH1 0x0 DUP2 DUP2 MSTORE PUSH1 0x1C PUSH1 0x20 MSTORE PUSH1 0x40 SWAP1 KECCAK256 SLOAD DUP3 EQ PUSH2 0x344B JUMPI PUSH1 0x40 MLOAD PUSH3 0x461BCD PUSH1 0xE5 SHL DUP2 MSTORE PUSH1 0x20 PUSH1 0x4 DUP3 ADD MSTORE PUSH1 0x13 PUSH1 0x24 DUP3 ADD MSTORE PUSH32 0x4C6F7474657279204964206D69736D6174636800000000000000000000000000 PUSH1 0x44 DUP3 ADD MSTORE PUSH1 0x64 ADD PUSH2 0xC58 JUMP JUMPDEST PUSH1 0x0 DUP3 DUP2 MSTORE PUSH1 0x14 PUSH1 0x20 MSTORE PUSH1 0x40 SWAP1 KECCAK256 PUSH1 0x1 PUSH1 0x1 PUSH1 0xA0 SHL SUB DUP5 AND ISZERO PUSH2 0x35DB JUMPI PUSH1 0x4 DUP2 ADD SLOAD PUSH1 0x9 SLOAD PUSH1 0x0 SWAP1 PUSH2 0x3485 SWAP1 PUSH1 0x64 SWAP1 PUSH2 0x115C SWAP1 DUP6 SWAP1 PUSH2 0x4037 JUMP JUMPDEST SWAP1 POP PUSH1 0x0 PUSH2 0x3493 DUP4 DUP4 PUSH2 0x426C JUMP JUMPDEST PUSH1 0x40 MLOAD SWAP1 SWAP2 POP PUSH1 0x1 PUSH1 0x1 PUSH1 0xA0 SHL SUB DUP9 AND SWAP1 DUP3 ISZERO PUSH2 0x8FC MUL SWAP1 DUP4 SWAP1 PUSH1 0x0 DUP2 DUP2 DUP2 DUP6 DUP9 DUP9 CALL SWAP4 POP POP POP POP ISZERO DUP1 ISZERO PUSH2 0x34CC JUMPI RETURNDATASIZE PUSH1 0x0 DUP1 RETURNDATACOPY RETURNDATASIZE PUSH1 0x0 REVERT JUMPDEST POP PUSH1 0xF SLOAD PUSH1 0x1 PUSH1 0x1 PUSH1 0xA0 SHL SUB AND PUSH1 0x0 SWAP1 DUP2 MSTORE PUSH1 0x11 PUSH1 0x20 MSTORE PUSH1 0x40 DUP2 KECCAK256 PUSH1 0x9 ADD DUP1 SLOAD DUP5 SWAP3 SWAP1 PUSH2 0x34FA SWAP1 DUP5 SWAP1 PUSH2 0x565A JUMP JUMPDEST SWAP1 SWAP2 SSTORE POP PUSH1 0x0 SWAP1 POP PUSH1 0xB DUP6 ADD SLOAD PUSH1 0xFF AND PUSH1 0x1 DUP2 GT ISZERO PUSH2 0x351B JUMPI PUSH2 0x351B PUSH2 0x5794 JUMP JUMPDEST EQ ISZERO PUSH2 0x3593 JUMPI PUSH1 0x0 PUSH2 0x353D PUSH1 0x64 PUSH2 0x115C PUSH1 0xA SLOAD DUP8 PUSH2 0x4037 SWAP1 SWAP2 SWAP1 PUSH4 0xFFFFFFFF AND JUMP JUMPDEST PUSH1 0x6 DUP7 ADD SLOAD PUSH1 0x0 SWAP1 DUP2 MSTORE PUSH1 0x13 PUSH1 0x20 MSTORE PUSH1 0x40 DUP1 DUP3 KECCAK256 PUSH1 0x2 ADD SLOAD SWAP1 MLOAD SWAP3 SWAP4 POP PUSH2 0x100 SWAP1 DIV PUSH1 0x1 PUSH1 0x1 PUSH1 0xA0 SHL SUB AND SWAP2 PUSH2 0x8FC DUP5 ISZERO MUL SWAP2 DUP5 SWAP2 SWAP1 DUP2 DUP2 DUP2 DUP6 DUP9 DUP9 CALL SWAP4 POP POP POP POP ISZERO DUP1 ISZERO PUSH2 0x3590 JUMPI RETURNDATASIZE PUSH1 0x0 DUP1 RETURNDATACOPY RETURNDATASIZE PUSH1 0x0 REVERT JUMPDEST POP POP JUMPDEST DUP6 DUP8 PUSH1 0x1 PUSH1 0x1 PUSH1 0xA0 SHL SUB AND PUSH32 0x88F3705F0C4D3C5B1A1D29FE4FD3F87E889A5A0CE0A1E37989766B3248603FE9 DUP4 PUSH1 0x40 MLOAD PUSH2 0x35CF SWAP2 DUP2 MSTORE PUSH1 0x20 ADD SWAP1 JUMP JUMPDEST PUSH1 0x40 MLOAD DUP1 SWAP2 SUB SWAP1 LOG3 POP POP POP JUMPDEST POP POP PUSH1 0xF DUP1 SLOAD PUSH1 0xFF PUSH1 0xA0 SHL NOT AND SWAP1 SSTORE POP POP JUMP JUMPDEST PUSH1 0x1 PUSH1 0x1 PUSH1 0xA0 SHL SUB DUP2 AND PUSH1 0x0 SWAP1 DUP2 MSTORE PUSH1 0x22 PUSH1 0x20 MSTORE PUSH1 0x40 DUP2 KECCAK256 SLOAD PUSH1 0x60 SWAP2 SWAP1 PUSH8 0xFFFFFFFFFFFFFFFF DUP2 GT ISZERO PUSH2 0x3623 JUMPI PUSH2 0x3623 PUSH2 0x57C0 JUMP JUMPDEST PUSH1 0x40 MLOAD SWAP1 DUP1 DUP3 MSTORE DUP1 PUSH1 0x20 MUL PUSH1 0x20 ADD DUP3 ADD PUSH1 0x40 MSTORE DUP1 ISZERO PUSH2 0x364C JUMPI DUP2 PUSH1 0x20 ADD PUSH1 0x20 DUP3 MUL DUP1 CALLDATASIZE DUP4 CALLDATACOPY ADD SWAP1 POP JUMPDEST POP SWAP1 POP PUSH1 0x0 JUMPDEST PUSH1 0x1 PUSH1 0x1 PUSH1 0xA0 SHL SUB DUP5 AND PUSH1 0x0 SWAP1 DUP2 MSTORE PUSH1 0x22 PUSH1 0x20 MSTORE PUSH1 0x40 SWAP1 KECCAK256 SLOAD DUP2 LT ISZERO PUSH2 0xDB4 JUMPI PUSH1 0x1 PUSH1 0x1 PUSH1 0xA0 SHL SUB DUP5 AND PUSH1 0x0 SWAP1 DUP2 MSTORE PUSH1 0x22 PUSH1 0x20 MSTORE PUSH1 0x40 SWAP1 KECCAK256 DUP1 SLOAD DUP3 SWAP1 DUP2 LT PUSH2 0x369C JUMPI PUSH2 0x369C PUSH2 0x57AA JUMP JUMPDEST SWAP1 PUSH1 0x0 MSTORE PUSH1 0x20 PUSH1 0x0 KECCAK256 ADD SLOAD DUP3 DUP3 DUP2 MLOAD DUP2 LT PUSH2 0x36B9 JUMPI PUSH2 0x36B9 PUSH2 0x57AA JUMP JUMPDEST PUSH1 0x20 SWAP1 DUP2 MUL SWAP2 SWAP1 SWAP2 ADD ADD MSTORE DUP1 PUSH2 0x36CE DUP2 PUSH2 0x5723 JUMP JUMPDEST SWAP2 POP POP PUSH2 0x3652 JUMP JUMPDEST PUSH1 0x13 PUSH1 0x20 MSTORE PUSH1 0x0 SWAP1 DUP2 MSTORE PUSH1 0x40 SWAP1 KECCAK256 DUP1 SLOAD DUP2 SWAP1 PUSH2 0x2CBF SWAP1 PUSH2 0x56E8 JUMP JUMPDEST PUSH1 0x0 DUP3 DUP2 MSTORE PUSH1 0x14 PUSH1 0x20 SWAP1 DUP2 MSTORE PUSH1 0x40 DUP1 DUP4 KECCAK256 PUSH1 0x15 SWAP1 SWAP3 MSTORE SWAP1 SWAP2 KECCAK256 PUSH1 0x3 DUP3 ADD SLOAD CALLVALUE EQ PUSH2 0x375D JUMPI PUSH1 0x40 MLOAD PUSH3 0x461BCD PUSH1 0xE5 SHL DUP2 MSTORE PUSH1 0x20 PUSH1 0x4 DUP3 ADD MSTORE PUSH1 0x11 PUSH1 0x24 DUP3 ADD MSTORE PUSH32 0x456E74727920466565206E6F74206D6574000000000000000000000000000000 PUSH1 0x44 DUP3 ADD MSTORE PUSH1 0x64 ADD PUSH2 0xC58 JUMP JUMPDEST DUP2 PUSH1 0x1 ADD SLOAD DUP6 MLOAD EQ PUSH2 0x37B1 JUMPI PUSH1 0x40 MLOAD PUSH3 0x461BCD PUSH1 0xE5 SHL DUP2 MSTORE PUSH1 0x20 PUSH1 0x4 DUP3 ADD MSTORE PUSH1 0x13 PUSH1 0x24 DUP3 ADD MSTORE PUSH32 0x736C6F74732073697A65206E6F74206D65657400000000000000000000000000 PUSH1 0x44 DUP3 ADD MSTORE PUSH1 0x64 ADD PUSH2 0xC58 JUMP JUMPDEST DUP1 PUSH1 0x2 ADD SLOAD TIMESTAMP LT PUSH2 0x3804 JUMPI PUSH1 0x40 MLOAD PUSH3 0x461BCD PUSH1 0xE5 SHL DUP2 MSTORE PUSH1 0x20 PUSH1 0x4 DUP3 ADD MSTORE PUSH1 0x12 PUSH1 0x24 DUP3 ADD MSTORE PUSH32 0x54696D652070617373656420746F206275790000000000000000000000000000 PUSH1 0x44 DUP3 ADD MSTORE PUSH1 0x64 ADD PUSH2 0xC58 JUMP JUMPDEST PUSH1 0x24 DUP4 PUSH1 0x40 MLOAD PUSH2 0x3814 SWAP2 SWAP1 PUSH2 0x52F7 JUMP JUMPDEST SWAP1 DUP2 MSTORE PUSH1 0x40 MLOAD SWAP1 DUP2 SWAP1 SUB PUSH1 0x20 ADD SWAP1 KECCAK256 SLOAD PUSH1 0xFF AND ISZERO PUSH2 0x3874 JUMPI PUSH1 0x40 MLOAD PUSH3 0x461BCD PUSH1 0xE5 SHL DUP2 MSTORE PUSH1 0x20 PUSH1 0x4 DUP3 ADD MSTORE PUSH1 0x16 PUSH1 0x24 DUP3 ADD MSTORE PUSH32 0x4E756D62657220416C726561647920636C61696D656400000000000000000000 PUSH1 0x44 DUP3 ADD MSTORE PUSH1 0x64 ADD PUSH2 0xC58 JUMP JUMPDEST PUSH1 0x1 PUSH1 0x24 DUP5 PUSH1 0x40 MLOAD PUSH2 0x3886 SWAP2 SWAP1 PUSH2 0x52F7 JUMP JUMPDEST SWAP1 DUP2 MSTORE PUSH1 0x40 DUP1 MLOAD PUSH1 0x20 SWAP3 DUP2 SWAP1 SUB DUP4 ADD SWAP1 KECCAK256 DUP1 SLOAD PUSH1 0xFF NOT AND SWAP4 ISZERO ISZERO SWAP4 SWAP1 SWAP4 OR SWAP1 SWAP3 SSTORE PUSH1 0x0 DUP7 DUP2 MSTORE PUSH1 0x23 DUP3 MSTORE DUP3 DUP2 KECCAK256 CALLER DUP3 MSTORE SWAP1 SWAP2 MSTORE SWAP1 DUP2 KECCAK256 DUP1 SLOAD PUSH1 0x1 SWAP3 SWAP1 PUSH2 0x38CD SWAP1 DUP5 SWAP1 PUSH2 0x565A JUMP JUMPDEST SWAP1 SWAP2 SSTORE POP POP PUSH1 0x40 DUP1 MLOAD PUSH1 0x60 DUP2 ADD DUP3 MSTORE CALLER DUP2 MSTORE TIMESTAMP PUSH1 0x20 DUP1 DUP4 ADD SWAP2 DUP3 MSTORE SWAP3 DUP3 ADD DUP9 DUP2 MSTORE PUSH1 0xA DUP7 ADD DUP1 SLOAD PUSH1 0x1 DUP1 DUP3 ADD DUP4 SSTORE PUSH1 0x0 SWAP3 DUP4 MSTORE SWAP2 DUP7 SWAP1 KECCAK256 DUP6 MLOAD PUSH1 0x3 SWAP1 SWAP3 MUL ADD DUP1 SLOAD PUSH1 0x1 PUSH1 0x1 PUSH1 0xA0 SHL SUB NOT AND PUSH1 0x1 PUSH1 0x1 PUSH1 0xA0 SHL SUB SWAP1 SWAP3 AND SWAP2 SWAP1 SWAP2 OR DUP2 SSTORE SWAP3 MLOAD SWAP1 DUP4 ADD SSTORE MLOAD DUP1 MLOAD SWAP3 SWAP4 SWAP2 SWAP3 PUSH2 0x3946 SWAP3 PUSH1 0x2 DUP6 ADD SWAP3 ADD SWAP1 PUSH2 0x4BDC JUMP JUMPDEST POP POP CALLER PUSH1 0x0 SWAP1 DUP2 MSTORE PUSH1 0x16 PUSH1 0x20 MSTORE PUSH1 0x40 DUP2 KECCAK256 DUP1 SLOAD CALLVALUE SWAP4 POP SWAP1 SWAP2 SWAP1 PUSH2 0x396A SWAP1 DUP5 SWAP1 PUSH2 0x565A JUMP JUMPDEST SWAP1 SWAP2 SSTORE POP POP PUSH1 0x9 DUP3 ADD SLOAD PUSH1 0x1 PUSH1 0x1 PUSH1 0xA0 SHL SUB AND PUSH1 0x0 SWAP1 DUP2 MSTORE PUSH1 0x11 PUSH1 0x20 MSTORE PUSH1 0x40 DUP2 KECCAK256 PUSH1 0x8 ADD DUP1 SLOAD CALLVALUE SWAP3 SWAP1 PUSH2 0x399E SWAP1 DUP5 SWAP1 PUSH2 0x565A JUMP JUMPDEST SWAP1 SWAP2 SSTORE POP POP CALLER PUSH1 0x0 SWAP1 DUP2 MSTORE PUSH1 0x20 DUP1 DUP1 MSTORE PUSH1 0x40 DUP1 DUP4 KECCAK256 DUP1 SLOAD PUSH1 0x1 DUP2 ADD DUP3 SSTORE SWAP1 DUP5 MSTORE DUP3 DUP5 KECCAK256 ADD DUP8 SWAP1 SSTORE DUP7 DUP4 MSTORE PUSH1 0x1B SWAP1 SWAP2 MSTORE DUP2 KECCAK256 DUP1 SLOAD SWAP2 PUSH2 0x39DB DUP4 PUSH2 0x5723 JUMP JUMPDEST SWAP2 SWAP1 POP SSTORE POP PUSH2 0x39F7 PUSH1 0x64 PUSH1 0xB SLOAD DUP5 PUSH1 0x3 ADD SLOAD PUSH2 0x115C SWAP2 SWAP1 PUSH2 0x5686 JUMP JUMPDEST CALLER PUSH1 0x0 SWAP1 DUP2 MSTORE PUSH1 0x19 PUSH1 0x20 MSTORE PUSH1 0x40 DUP2 KECCAK256 DUP1 SLOAD SWAP1 SWAP2 SWAP1 PUSH2 0x3A16 SWAP1 DUP5 SWAP1 PUSH2 0x565A JUMP JUMPDEST SWAP1 SWAP2 SSTORE POP POP PUSH1 0x3 DUP1 DUP3 ADD SLOAD SWAP1 DUP4 ADD SLOAD PUSH1 0x40 MLOAD CALLER SWAP3 DUP8 SWAP3 PUSH32 0xEEBEEF70159CAB2AFD7F0275B057D4672073BC52648B266B673FDBB3A856103D SWAP3 PUSH2 0x3A5B SWAP3 DUP12 SWAP3 TIMESTAMP SWAP3 PUSH2 0x53E4 JUMP JUMPDEST PUSH1 0x40 MLOAD DUP1 SWAP2 SUB SWAP1 LOG3 POP POP POP POP POP JUMP JUMPDEST PUSH1 0x1 PUSH1 0x1 PUSH1 0xA0 SHL SUB DUP2 AND PUSH1 0x0 SWAP1 DUP2 MSTORE PUSH1 0x21 PUSH1 0x20 MSTORE PUSH1 0x40 DUP2 KECCAK256 SLOAD PUSH1 0x60 SWAP2 SWAP1 PUSH8 0xFFFFFFFFFFFFFFFF DUP2 GT ISZERO PUSH2 0x3A9F JUMPI PUSH2 0x3A9F PUSH2 0x57C0 JUMP JUMPDEST PUSH1 0x40 MLOAD SWAP1 DUP1 DUP3 MSTORE DUP1 PUSH1 0x20 MUL PUSH1 0x20 ADD DUP3 ADD PUSH1 0x40 MSTORE DUP1 ISZERO PUSH2 0x3AC8 JUMPI DUP2 PUSH1 0x20 ADD PUSH1 0x20 DUP3 MUL DUP1 CALLDATASIZE DUP4 CALLDATACOPY ADD SWAP1 POP JUMPDEST POP SWAP1 POP PUSH1 0x0 JUMPDEST PUSH1 0x1 PUSH1 0x1 PUSH1 0xA0 SHL SUB DUP5 AND PUSH1 0x0 SWAP1 DUP2 MSTORE PUSH1 0x21 PUSH1 0x20 MSTORE PUSH1 0x40 SWAP1 KECCAK256 SLOAD DUP2 LT ISZERO PUSH2 0xDB4 JUMPI PUSH1 0x1 PUSH1 0x1 PUSH1 0xA0 SHL SUB DUP5 AND PUSH1 0x0 SWAP1 DUP2 MSTORE PUSH1 0x21 PUSH1 0x20 MSTORE PUSH1 0x40 SWAP1 KECCAK256 DUP1 SLOAD DUP3 SWAP1 DUP2 LT PUSH2 0x3B18 JUMPI PUSH2 0x3B18 PUSH2 0x57AA JUMP JUMPDEST SWAP1 PUSH1 0x0 MSTORE PUSH1 0x20 PUSH1 0x0 KECCAK256 ADD SLOAD DUP3 DUP3 DUP2 MLOAD DUP2 LT PUSH2 0x3B35 JUMPI PUSH2 0x3B35 PUSH2 0x57AA JUMP JUMPDEST PUSH1 0x20 SWAP1 DUP2 MUL SWAP2 SWAP1 SWAP2 ADD ADD MSTORE DUP1 PUSH2 0x3B4A DUP2 PUSH2 0x5723 JUMP JUMPDEST SWAP2 POP POP PUSH2 0x3ACE JUMP JUMPDEST PUSH1 0xF SLOAD PUSH1 0x1 PUSH1 0x1 PUSH1 0xA0 SHL SUB AND CALLER EQ PUSH2 0x3B9A JUMPI PUSH1 0x40 MLOAD PUSH3 0x461BCD PUSH1 0xE5 SHL DUP2 MSTORE PUSH1 0x20 PUSH1 0x4 DUP3 ADD MSTORE PUSH1 0xB PUSH1 0x24 DUP3 ADD MSTORE PUSH11 0x3737BA16B096B0B236B4B7 PUSH1 0xA9 SHL PUSH1 0x44 DUP3 ADD MSTORE PUSH1 0x64 ADD PUSH2 0xC58 JUMP JUMPDEST PUSH1 0x40 MLOAD CALLER SWAP1 SELFBALANCE DUP1 ISZERO PUSH2 0x8FC MUL SWAP2 PUSH1 0x0 DUP2 DUP2 DUP2 DUP6 DUP9 DUP9 CALL SWAP4 POP POP POP POP ISZERO DUP1 ISZERO PUSH2 0x3BC6 JUMPI RETURNDATASIZE PUSH1 0x0 DUP1 RETURNDATACOPY RETURNDATASIZE PUSH1 0x0 REVERT JUMPDEST POP JUMP JUMPDEST PUSH1 0xC SLOAD PUSH1 0x40 MLOAD PUSH4 0x70A08231 PUSH1 0xE0 SHL DUP2 MSTORE ADDRESS PUSH1 0x4 DUP3 ADD MSTORE PUSH1 0x1 PUSH1 0x1 PUSH1 0xA0 SHL SUB SWAP1 SWAP2 AND SWAP1 PUSH4 0x70A08231 SWAP1 PUSH1 0x24 ADD PUSH1 0x20 PUSH1 0x40 MLOAD DUP1 DUP4 SUB DUP2 DUP7 DUP1 EXTCODESIZE ISZERO DUP1 ISZERO PUSH2 0x3C0C JUMPI PUSH1 0x0 DUP1 REVERT JUMPDEST POP GAS STATICCALL ISZERO DUP1 ISZERO PUSH2 0x3C20 JUMPI RETURNDATASIZE PUSH1 0x0 DUP1 RETURNDATACOPY RETURNDATASIZE PUSH1 0x0 REVERT JUMPDEST POP POP POP POP PUSH1 0x40 MLOAD RETURNDATASIZE PUSH1 0x1F NOT PUSH1 0x1F DUP3 ADD AND DUP3 ADD DUP1 PUSH1 0x40 MSTORE POP DUP2 ADD SWAP1 PUSH2 0x3C44 SWAP2 SWAP1 PUSH2 0x50F1 JUMP JUMPDEST CALLER PUSH1 0x0 SWAP1 DUP2 MSTORE PUSH1 0x19 PUSH1 0x20 MSTORE PUSH1 0x40 SWAP1 KECCAK256 SLOAD GT ISZERO PUSH2 0x3CA2 JUMPI PUSH1 0x40 MLOAD PUSH3 0x461BCD PUSH1 0xE5 SHL DUP2 MSTORE PUSH1 0x20 PUSH1 0x4 DUP3 ADD MSTORE PUSH1 0xB PUSH1 0x24 DUP3 ADD MSTORE PUSH32 0x6C6F772062616C616E6365000000000000000000000000000000000000000000 PUSH1 0x44 DUP3 ADD MSTORE PUSH1 0x64 ADD PUSH2 0xC58 JUMP JUMPDEST PUSH1 0xC SLOAD CALLER PUSH1 0x0 DUP2 DUP2 MSTORE PUSH1 0x19 PUSH1 0x20 MSTORE PUSH1 0x40 SWAP1 DUP2 SWAP1 KECCAK256 SLOAD SWAP1 MLOAD PUSH4 0xA9059CBB PUSH1 0xE0 SHL DUP2 MSTORE PUSH1 0x4 DUP2 ADD SWAP3 SWAP1 SWAP3 MSTORE PUSH1 0x24 DUP3 ADD MSTORE PUSH1 0x1 PUSH1 0x1 PUSH1 0xA0 SHL SUB SWAP1 SWAP2 AND SWAP1 PUSH4 0xA9059CBB SWAP1 PUSH1 0x44 ADD PUSH1 0x20 PUSH1 0x40 MLOAD DUP1 DUP4 SUB DUP2 PUSH1 0x0 DUP8 DUP1 EXTCODESIZE ISZERO DUP1 ISZERO PUSH2 0x3CFF JUMPI PUSH1 0x0 DUP1 REVERT JUMPDEST POP GAS CALL ISZERO DUP1 ISZERO PUSH2 0x3D13 JUMPI RETURNDATASIZE PUSH1 0x0 DUP1 RETURNDATACOPY RETURNDATASIZE PUSH1 0x0 REVERT JUMPDEST POP POP POP POP PUSH1 0x40 MLOAD RETURNDATASIZE PUSH1 0x1F NOT PUSH1 0x1F DUP3 ADD AND DUP3 ADD DUP1 PUSH1 0x40 MSTORE POP DUP2 ADD SWAP1 PUSH2 0x3D37 SWAP2 SWAP1 PUSH2 0x4F85 JUMP JUMPDEST POP CALLER PUSH1 0x0 SWAP1 DUP2 MSTORE PUSH1 0x19 PUSH1 0x20 MSTORE PUSH1 0x40 DUP2 KECCAK256 SSTORE JUMP JUMPDEST PUSH1 0xF SLOAD PUSH1 0x1 PUSH1 0x1 PUSH1 0xA0 SHL SUB AND CALLER EQ PUSH2 0x3D92 JUMPI PUSH1 0x40 MLOAD PUSH3 0x461BCD PUSH1 0xE5 SHL DUP2 MSTORE PUSH1 0x20 PUSH1 0x4 DUP3 ADD MSTORE PUSH1 0xB PUSH1 0x24 DUP3 ADD MSTORE PUSH11 0x3737BA16B096B0B236B4B7 PUSH1 0xA9 SHL PUSH1 0x44 DUP3 ADD MSTORE PUSH1 0x64 ADD PUSH2 0xC58 JUMP JUMPDEST PUSH1 0x8 SWAP4 SWAP1 SWAP4 SSTORE PUSH1 0x9 SWAP2 SWAP1 SWAP2 SSTORE PUSH1 0xB SSTORE PUSH1 0xA SSTORE JUMP JUMPDEST PUSH2 0x3DAE PUSH2 0x42AE JUMP JUMPDEST PUSH2 0x3BC6 DUP2 PUSH2 0x4308 JUMP JUMPDEST DUP1 PUSH1 0x0 DUP2 MLOAD DUP2 LT PUSH2 0x3DCA JUMPI PUSH2 0x3DCA PUSH2 0x57AA JUMP JUMPDEST PUSH1 0x20 MUL PUSH1 0x20 ADD ADD MLOAD PUSH1 0x1D PUSH1 0x0 DUP5 DUP2 MSTORE PUSH1 0x20 ADD SWAP1 DUP2 MSTORE PUSH1 0x20 ADD PUSH1 0x0 KECCAK256 DUP2 SWAP1 SSTORE POP PUSH2 0xE3D DUP2 PUSH1 0x0 DUP2 MLOAD DUP2 LT PUSH2 0x3DFF JUMPI PUSH2 0x3DFF PUSH2 0x57AA JUMP JUMPDEST PUSH1 0x20 MUL PUSH1 0x20 ADD ADD MLOAD PUSH1 0x1C PUSH1 0x0 DUP6 DUP2 MSTORE PUSH1 0x20 ADD SWAP1 DUP2 MSTORE PUSH1 0x20 ADD PUSH1 0x0 KECCAK256 SLOAD DUP5 PUSH2 0x43B2 JUMP JUMPDEST PUSH1 0x0 PUSH2 0x3E63 DUP4 DUP4 PUSH1 0x40 MLOAD DUP1 PUSH1 0x40 ADD PUSH1 0x40 MSTORE DUP1 PUSH1 0x1A DUP2 MSTORE PUSH1 0x20 ADD PUSH32 0x536166654D6174683A206469766973696F6E206279207A65726F000000000000 DUP2 MSTORE POP PUSH2 0x48E4 JUMP JUMPDEST SWAP1 POP JUMPDEST SWAP3 SWAP2 POP POP JUMP JUMPDEST PUSH1 0xD SLOAD PUSH1 0x40 MLOAD PUSH4 0x70A08231 PUSH1 0xE0 SHL DUP2 MSTORE ADDRESS PUSH1 0x4 DUP3 ADD MSTORE PUSH32 0x0 PUSH1 0x1 PUSH1 0x1 PUSH1 0xA0 SHL SUB AND SWAP1 PUSH4 0x70A08231 SWAP1 PUSH1 0x24 ADD PUSH1 0x20 PUSH1 0x40 MLOAD DUP1 DUP4 SUB DUP2 DUP7 DUP1 EXTCODESIZE ISZERO DUP1 ISZERO PUSH2 0x3ECE JUMPI PUSH1 0x0 DUP1 REVERT JUMPDEST POP GAS STATICCALL ISZERO DUP1 ISZERO PUSH2 0x3EE2 JUMPI RETURNDATASIZE PUSH1 0x0 DUP1 RETURNDATACOPY RETURNDATASIZE PUSH1 0x0 REVERT JUMPDEST POP POP POP POP PUSH1 0x40 MLOAD RETURNDATASIZE PUSH1 0x1F NOT PUSH1 0x1F DUP3 ADD AND DUP3 ADD DUP1 PUSH1 0x40 MSTORE POP DUP2 ADD SWAP1 PUSH2 0x3F06 SWAP2 SWAP1 PUSH2 0x50F1 JUMP JUMPDEST GT PUSH2 0x3F79 JUMPI PUSH1 0x40 MLOAD PUSH3 0x461BCD PUSH1 0xE5 SHL DUP2 MSTORE PUSH1 0x20 PUSH1 0x4 DUP3 ADD MSTORE PUSH1 0x2B PUSH1 0x24 DUP3 ADD MSTORE PUSH32 0x4E6F7420656E6F756768204C494E4B202D2066696C6C20636F6E747261637420 PUSH1 0x44 DUP3 ADD MSTORE PUSH32 0x7769746820666175636574000000000000000000000000000000000000000000 PUSH1 0x64 DUP3 ADD MSTORE PUSH1 0x84 ADD PUSH2 0xC58 JUMP JUMPDEST PUSH1 0x0 PUSH2 0x3F8B PUSH3 0x186A0 PUSH1 0x2 PUSH1 0x1 PUSH2 0x491B JUMP JUMPDEST PUSH1 0x3 DUP2 SWAP1 SSTORE PUSH1 0x0 SWAP1 DUP2 MSTORE PUSH1 0x1C PUSH1 0x20 SWAP1 DUP2 MSTORE PUSH1 0x40 DUP1 DUP4 KECCAK256 SWAP7 SWAP1 SWAP7 SSTORE PUSH1 0x1E DUP2 MSTORE DUP6 DUP3 KECCAK256 SWAP5 SWAP1 SWAP5 SSTORE PUSH1 0x1F SWAP1 SWAP4 MSTORE POP SWAP2 SWAP1 KECCAK256 DUP1 SLOAD PUSH1 0x1 PUSH1 0x1 PUSH1 0xA0 SHL SUB NOT AND PUSH1 0x1 PUSH1 0x1 PUSH1 0xA0 SHL SUB SWAP1 SWAP3 AND SWAP2 SWAP1 SWAP2 OR SWAP1 SSTORE JUMP JUMPDEST PUSH1 0x0 DUP1 PUSH2 0x3FE5 DUP4 DUP6 PUSH2 0x565A JUMP JUMPDEST SWAP1 POP DUP4 DUP2 LT ISZERO PUSH2 0x3E63 JUMPI PUSH1 0x40 MLOAD PUSH3 0x461BCD PUSH1 0xE5 SHL DUP2 MSTORE PUSH1 0x20 PUSH1 0x4 DUP3 ADD MSTORE PUSH1 0x1B PUSH1 0x24 DUP3 ADD MSTORE PUSH32 0x536166654D6174683A206164646974696F6E206F766572666C6F770000000000 PUSH1 0x44 DUP3 ADD MSTORE PUSH1 0x64 ADD PUSH2 0xC58 JUMP JUMPDEST PUSH1 0x0 DUP3 PUSH2 0x4046 JUMPI POP PUSH1 0x0 PUSH2 0x3E66 JUMP JUMPDEST PUSH1 0x0 PUSH2 0x4052 DUP4 DUP6 PUSH2 0x5686 JUMP JUMPDEST SWAP1 POP DUP3 PUSH2 0x405F DUP6 DUP4 PUSH2 0x5672 JUMP JUMPDEST EQ PUSH2 0x3E63 JUMPI PUSH1 0x40 MLOAD PUSH3 0x461BCD PUSH1 0xE5 SHL DUP2 MSTORE PUSH1 0x20 PUSH1 0x4 DUP3 ADD MSTORE PUSH1 0x21 PUSH1 0x24 DUP3 ADD MSTORE PUSH32 0x536166654D6174683A206D756C7469706C69636174696F6E206F766572666C6F PUSH1 0x44 DUP3 ADD MSTORE PUSH32 0x7700000000000000000000000000000000000000000000000000000000000000 PUSH1 0x64 DUP3 ADD MSTORE PUSH1 0x84 ADD PUSH2 0xC58 JUMP JUMPDEST PUSH1 0xD SLOAD PUSH1 0x40 MLOAD PUSH4 0x70A08231 PUSH1 0xE0 SHL DUP2 MSTORE ADDRESS PUSH1 0x4 DUP3 ADD MSTORE PUSH32 0x0 PUSH1 0x1 PUSH1 0x1 PUSH1 0xA0 SHL SUB AND SWAP1 PUSH4 0x70A08231 SWAP1 PUSH1 0x24 ADD PUSH1 0x20 PUSH1 0x40 MLOAD DUP1 DUP4 SUB DUP2 DUP7 DUP1 EXTCODESIZE ISZERO DUP1 ISZERO PUSH2 0x4134 JUMPI PUSH1 0x0 DUP1 REVERT JUMPDEST POP GAS STATICCALL ISZERO DUP1 ISZERO PUSH2 0x4148 JUMPI RETURNDATASIZE PUSH1 0x0 DUP1 RETURNDATACOPY RETURNDATASIZE PUSH1 0x0 REVERT JUMPDEST POP POP POP POP PUSH1 0x40 MLOAD RETURNDATASIZE PUSH1 0x1F NOT PUSH1 0x1F DUP3 ADD AND DUP3 ADD DUP1 PUSH1 0x40 MSTORE POP DUP2 ADD SWAP1 PUSH2 0x416C SWAP2 SWAP1 PUSH2 0x50F1 JUMP JUMPDEST GT PUSH2 0x41DF JUMPI PUSH1 0x40 MLOAD PUSH3 0x461BCD PUSH1 0xE5 SHL DUP2 MSTORE PUSH1 0x20 PUSH1 0x4 DUP3 ADD MSTORE PUSH1 0x2B PUSH1 0x24 DUP3 ADD MSTORE PUSH32 0x4E6F7420656E6F756768204C494E4B202D2066696C6C20636F6E747261637420 PUSH1 0x44 DUP3 ADD MSTORE PUSH32 0x7769746820666175636574000000000000000000000000000000000000000000 PUSH1 0x64 DUP3 ADD MSTORE PUSH1 0x84 ADD PUSH2 0xC58 JUMP JUMPDEST PUSH1 0xF SLOAD PUSH1 0x0 SWAP1 PUSH2 0x4252 SWAP1 PUSH4 0xFFFFFFFF PUSH22 0x1000000000000000000000000000000000000000000 DUP3 DIV DUP2 AND SWAP2 PUSH2 0xFFFF PUSH26 0x100000000000000000000000000000000000000000000000000 DUP3 DIV AND SWAP2 PUSH28 0x1000000000000000000000000000000000000000000000000000000 SWAP1 SWAP2 DIV AND PUSH2 0x491B JUMP JUMPDEST PUSH1 0x3 DUP2 SWAP1 SSTORE PUSH1 0x0 SWAP1 DUP2 MSTORE PUSH1 0x1C PUSH1 0x20 MSTORE PUSH1 0x40 SWAP1 KECCAK256 SWAP2 SWAP1 SWAP2 SSTORE POP JUMP JUMPDEST PUSH1 0x0 PUSH2 0x3E63 DUP4 DUP4 PUSH1 0x40 MLOAD DUP1 PUSH1 0x40 ADD PUSH1 0x40 MSTORE DUP1 PUSH1 0x1E DUP2 MSTORE PUSH1 0x20 ADD PUSH32 0x536166654D6174683A207375627472616374696F6E206F766572666C6F770000 DUP2 MSTORE POP PUSH2 0x4B42 JUMP JUMPDEST PUSH1 0x0 SLOAD PUSH1 0x1 PUSH1 0x1 PUSH1 0xA0 SHL SUB AND CALLER EQ PUSH2 0x339C JUMPI PUSH1 0x40 MLOAD PUSH3 0x461BCD PUSH1 0xE5 SHL DUP2 MSTORE PUSH1 0x20 PUSH1 0x4 DUP3 ADD MSTORE PUSH1 0x16 PUSH1 0x24 DUP3 ADD MSTORE PUSH32 0x4F6E6C792063616C6C61626C65206279206F776E657200000000000000000000 PUSH1 0x44 DUP3 ADD MSTORE PUSH1 0x64 ADD PUSH2 0xC58 JUMP JUMPDEST PUSH1 0x1 PUSH1 0x1 PUSH1 0xA0 SHL SUB DUP2 AND CALLER EQ ISZERO PUSH2 0x4361 JUMPI PUSH1 0x40 MLOAD PUSH3 0x461BCD PUSH1 0xE5 SHL DUP2 MSTORE PUSH1 0x20 PUSH1 0x4 DUP3 ADD MSTORE PUSH1 0x17 PUSH1 0x24 DUP3 ADD MSTORE PUSH32 0x43616E6E6F74207472616E7366657220746F2073656C66000000000000000000 PUSH1 0x44 DUP3 ADD MSTORE PUSH1 0x64 ADD PUSH2 0xC58 JUMP JUMPDEST PUSH1 0x1 DUP1 SLOAD PUSH1 0x1 PUSH1 0x1 PUSH1 0xA0 SHL SUB NOT AND PUSH1 0x1 PUSH1 0x1 PUSH1 0xA0 SHL SUB DUP4 DUP2 AND SWAP2 DUP3 OR SWAP1 SWAP3 SSTORE PUSH1 0x0 DUP1 SLOAD PUSH1 0x40 MLOAD SWAP3 SWAP4 AND SWAP2 PUSH32 0xED8889F560326EB138920D842192F0EB3DD22B4F139C87A2C57538E05BAE1278 SWAP2 SWAP1 LOG3 POP JUMP JUMPDEST PUSH1 0x0 DUP3 DUP2 MSTORE PUSH1 0x14 PUSH1 0x20 SWAP1 DUP2 MSTORE PUSH1 0x40 DUP1 DUP4 KECCAK256 PUSH1 0x15 SWAP1 SWAP3 MSTORE SWAP1 SWAP2 KECCAK256 PUSH1 0x1 PUSH1 0xB DUP4 ADD SLOAD PUSH1 0xFF AND PUSH1 0x1 DUP2 GT ISZERO PUSH2 0x43E6 JUMPI PUSH2 0x43E6 PUSH2 0x5794 JUMP JUMPDEST EQ ISZERO PUSH2 0x451A JUMPI PUSH1 0xA DUP3 ADD SLOAD PUSH2 0x43FC SWAP1 DUP7 SWAP1 PUSH2 0x4B73 JUMP JUMPDEST PUSH1 0x9 DUP4 ADD DUP1 SLOAD PUSH1 0xFF PUSH1 0xA0 SHL NOT AND PUSH21 0x20000000000000000000000000000000000000000 OR SWAP1 SSTORE PUSH1 0xA DUP4 ADD DUP1 SLOAD SWAP2 SWAP7 POP SWAP1 DUP7 SWAP1 DUP2 LT PUSH2 0x443C JUMPI PUSH2 0x443C PUSH2 0x57AA JUMP JUMPDEST PUSH1 0x0 SWAP2 DUP3 MSTORE PUSH1 0x20 SWAP1 SWAP2 KECCAK256 PUSH1 0x3 SWAP1 SWAP2 MUL ADD SLOAD PUSH1 0x8 DUP4 ADD DUP1 SLOAD PUSH1 0x1 PUSH1 0x1 PUSH1 0xA0 SHL SUB NOT AND PUSH1 0x1 PUSH1 0x1 PUSH1 0xA0 SHL SUB SWAP1 SWAP3 AND SWAP2 SWAP1 SWAP2 OR SWAP1 SSTORE PUSH1 0xA DUP3 ADD DUP1 SLOAD DUP6 SWAP2 PUSH32 0xC95B83A8055606BD947EE12D6A33519292D859712D214EFD6C587938A891E24B SWAP2 DUP9 SWAP1 DUP2 LT PUSH2 0x44A8 JUMPI PUSH2 0x44A8 PUSH2 0x57AA JUMP JUMPDEST PUSH1 0x0 SWAP2 DUP3 MSTORE PUSH1 0x20 SWAP2 DUP3 SWAP1 KECCAK256 PUSH1 0x3 SWAP1 SWAP2 MUL ADD SLOAD PUSH1 0x40 DUP1 MLOAD PUSH1 0x1 PUSH1 0x1 PUSH1 0xA0 SHL SUB SWAP1 SWAP3 AND DUP3 MSTORE TIMESTAMP SWAP3 DUP3 ADD SWAP3 SWAP1 SWAP3 MSTORE ADD PUSH1 0x40 MLOAD DUP1 SWAP2 SUB SWAP1 LOG2 PUSH2 0x4515 DUP3 PUSH1 0xA ADD DUP7 DUP2 SLOAD DUP2 LT PUSH2 0x44F4 JUMPI PUSH2 0x44F4 PUSH2 0x57AA JUMP JUMPDEST PUSH1 0x0 SWAP2 DUP3 MSTORE PUSH1 0x20 SWAP1 SWAP2 KECCAK256 PUSH1 0x3 SWAP1 SWAP2 MUL ADD SLOAD PUSH1 0x1 PUSH1 0x1 PUSH1 0xA0 SHL SUB AND DUP6 DUP6 PUSH2 0x33EE JUMP JUMPDEST PUSH2 0x11D9 JUMP JUMPDEST PUSH1 0x2 DUP3 ADD SLOAD PUSH2 0x452A SWAP1 DUP7 SWAP1 PUSH2 0x4B73 JUMP JUMPDEST PUSH1 0x0 DUP5 DUP2 MSTORE PUSH1 0x1F PUSH1 0x20 SWAP1 DUP2 MSTORE PUSH1 0x40 DUP1 DUP4 KECCAK256 DUP1 SLOAD PUSH1 0x8 DUP9 ADD DUP1 SLOAD PUSH1 0x1 PUSH1 0x1 PUSH1 0xA0 SHL SUB NOT AND PUSH1 0x1 PUSH1 0x1 PUSH1 0xA0 SHL SUB SWAP3 DUP4 AND OR SWAP1 SSTORE SWAP1 SLOAD PUSH1 0x1E DUP5 MSTORE SWAP4 DUP3 SWAP1 KECCAK256 SLOAD DUP3 MLOAD SWAP1 DUP2 MSTORE SWAP3 DUP4 ADD DUP6 SWAP1 MSTORE TIMESTAMP DUP4 DUP4 ADD MSTORE SWAP1 MLOAD SWAP4 SWAP9 POP DUP8 SWAP4 SWAP3 AND SWAP2 PUSH32 0x50E6D276E04BB48DE52A4C1FCEF42F86470EE30C5461DA3E6EDB4EBA3A15C468 SWAP2 PUSH1 0x60 SWAP1 DUP3 SWAP1 SUB ADD SWAP1 LOG3 PUSH1 0x0 DUP4 DUP2 MSTORE PUSH1 0x1E PUSH1 0x20 MSTORE PUSH1 0x40 SWAP1 KECCAK256 SLOAD DUP6 EQ ISZERO PUSH2 0x4623 JUMPI PUSH1 0x9 DUP3 ADD DUP1 SLOAD PUSH1 0xFF PUSH1 0xA0 SHL NOT AND PUSH21 0x20000000000000000000000000000000000000000 OR SWAP1 SSTORE PUSH1 0x0 DUP4 DUP2 MSTORE PUSH1 0x1F PUSH1 0x20 MSTORE PUSH1 0x40 SWAP1 KECCAK256 DUP1 SLOAD PUSH1 0x8 DUP5 ADD DUP1 SLOAD PUSH1 0x1 PUSH1 0x1 PUSH1 0xA0 SHL SUB NOT AND PUSH1 0x1 PUSH1 0x1 PUSH1 0xA0 SHL SUB SWAP3 DUP4 AND OR SWAP1 SSTORE SWAP1 SLOAD PUSH2 0x4515 SWAP2 AND DUP6 DUP6 PUSH2 0x33EE JUMP JUMPDEST PUSH1 0x9 DUP3 ADD DUP1 SLOAD PUSH1 0xFF PUSH1 0xA0 SHL NOT AND PUSH21 0x30000000000000000000000000000000000000000 OR SWAP1 SSTORE PUSH1 0x8 SLOAD PUSH1 0x4 DUP4 ADD SLOAD PUSH1 0x0 SWAP2 PUSH2 0x4665 SWAP2 PUSH1 0x64 SWAP2 PUSH2 0x115C SWAP2 SWAP1 PUSH2 0x4037 JUMP JUMPDEST PUSH2 0x4685 PUSH1 0x64 PUSH2 0x115C DUP7 PUSH1 0x7 ADD SLOAD DUP8 PUSH1 0x4 ADD SLOAD PUSH2 0x4037 SWAP1 SWAP2 SWAP1 PUSH4 0xFFFFFFFF AND JUMP JUMPDEST PUSH2 0x468F SWAP2 SWAP1 PUSH2 0x56A5 JUMP JUMPDEST PUSH1 0x6 DUP5 DUP2 ADD SLOAD PUSH1 0x4 DUP1 SLOAD PUSH1 0x0 SWAP1 DUP2 MSTORE PUSH1 0x14 PUSH1 0x20 DUP2 DUP2 MSTORE PUSH1 0x40 DUP1 DUP5 KECCAK256 SWAP1 SWAP7 ADD SWAP5 SWAP1 SWAP5 SSTORE DUP3 SLOAD DUP1 DUP4 MSTORE DUP6 DUP4 KECCAK256 SWAP1 DUP2 SSTORE PUSH1 0x3 DUP1 DUP12 ADD SLOAD SWAP2 DUP2 ADD SWAP2 SWAP1 SWAP2 SSTORE PUSH1 0x1 DUP1 DUP12 ADD SLOAD DUP6 SLOAD DUP6 MSTORE DUP8 DUP6 KECCAK256 DUP3 ADD SSTORE DUP5 SLOAD DUP5 MSTORE DUP7 DUP5 KECCAK256 DUP6 ADD DUP9 SWAP1 SSTORE DUP10 DUP2 ADD SLOAD DUP6 SLOAD DUP6 MSTORE PUSH1 0x15 DUP1 DUP9 MSTORE DUP9 DUP7 KECCAK256 DUP4 ADD SWAP2 SWAP1 SWAP2 SSTORE PUSH1 0x7 DUP1 DUP14 ADD SLOAD DUP8 SLOAD DUP8 MSTORE DUP6 DUP10 MSTORE DUP10 DUP8 KECCAK256 SWAP1 SWAP2 ADD SSTORE PUSH1 0x2 DUP12 DUP2 ADD SLOAD DUP8 SLOAD DUP8 MSTORE SWAP2 DUP9 MSTORE DUP9 DUP7 KECCAK256 DUP2 ADD SWAP2 SWAP1 SWAP2 SSTORE DUP6 SLOAD DUP1 DUP7 MSTORE DUP9 DUP7 KECCAK256 SWAP1 DUP2 SSTORE DUP12 DUP5 ADD SLOAD SWAP4 ADD SWAP3 SWAP1 SWAP3 SSTORE DUP2 DUP12 ADD SLOAD DUP6 SLOAD DUP6 MSTORE SWAP3 SWAP1 SWAP6 MSTORE DUP6 DUP4 KECCAK256 ADD SSTORE DUP2 SLOAD DUP2 MSTORE DUP4 DUP2 KECCAK256 PUSH1 0x9 SWAP1 DUP2 ADD DUP1 SLOAD PUSH1 0xFF PUSH1 0xA0 SHL NOT AND SWAP1 SSTORE DUP1 DUP10 ADD SLOAD DUP4 SLOAD DUP4 MSTORE DUP6 DUP4 KECCAK256 SWAP1 SWAP2 ADD DUP1 SLOAD PUSH1 0x1 PUSH1 0x1 PUSH1 0xA0 SHL SUB NOT AND PUSH1 0x1 PUSH1 0x1 PUSH1 0xA0 SHL SUB SWAP1 SWAP3 AND SWAP2 SWAP1 SWAP2 OR SWAP1 SSTORE PUSH1 0xB DUP1 DUP10 ADD SLOAD SWAP3 SLOAD DUP3 MSTORE SWAP4 SWAP1 KECCAK256 SWAP1 SWAP3 ADD DUP1 SLOAD SWAP4 SWAP5 POP PUSH1 0xFF SWAP1 SWAP3 AND SWAP3 PUSH1 0xFF NOT AND SWAP1 DUP4 DUP2 DUP2 GT ISZERO PUSH2 0x47BE JUMPI PUSH2 0x47BE PUSH2 0x5794 JUMP JUMPDEST MUL OR SWAP1 SSTORE POP PUSH1 0x5 DUP1 DUP5 ADD SLOAD PUSH1 0x4 DUP1 SLOAD PUSH1 0x0 SWAP1 DUP2 MSTORE PUSH1 0x14 PUSH1 0x20 SWAP1 DUP2 MSTORE PUSH1 0x40 DUP1 DUP4 KECCAK256 SWAP1 SWAP6 ADD SWAP4 SWAP1 SWAP4 SSTORE PUSH1 0x9 DUP1 DUP9 ADD SLOAD PUSH1 0x1 PUSH1 0x1 PUSH1 0xA0 SHL SUB SWAP1 DUP2 AND DUP4 MSTORE PUSH1 0x22 DUP6 MSTORE DUP6 DUP4 KECCAK256 SWAP4 SLOAD DUP5 SLOAD PUSH1 0x1 DUP2 ADD DUP7 SSTORE SWAP5 DUP5 MSTORE DUP6 DUP5 KECCAK256 SWAP1 SWAP5 ADD SWAP4 SWAP1 SWAP4 SSTORE PUSH1 0xF SLOAD SWAP1 SWAP3 AND DUP2 MSTORE PUSH1 0x11 SWAP1 SWAP3 MSTORE SWAP2 DUP2 KECCAK256 SWAP1 SWAP2 ADD DUP1 SLOAD DUP4 SWAP3 SWAP1 PUSH2 0x4839 SWAP1 DUP5 SWAP1 PUSH2 0x565A JUMP JUMPDEST SWAP1 SWAP2 SSTORE POP POP PUSH1 0x9 DUP4 ADD SLOAD PUSH1 0x1 PUSH1 0x1 PUSH1 0xA0 SHL SUB AND PUSH1 0x0 DUP2 DUP2 MSTORE PUSH1 0x11 PUSH1 0x20 SWAP1 DUP2 MSTORE PUSH1 0x40 SWAP2 DUP3 SWAP1 KECCAK256 PUSH1 0x7 ADD SLOAD PUSH1 0x4 SLOAD PUSH1 0x3 DUP9 ADD SLOAD PUSH1 0x1 DUP1 DUP11 ADD SLOAD PUSH1 0x2 DUP12 ADD SLOAD SWAP2 DUP11 ADD SLOAD DUP8 MLOAD SWAP4 DUP5 MSTORE SWAP6 DUP4 ADD MSTORE SWAP5 DUP2 ADD DUP8 SWAP1 MSTORE PUSH1 0x60 DUP2 ADD SWAP5 SWAP1 SWAP5 MSTORE PUSH1 0x80 DUP5 ADD SWAP3 SWAP1 SWAP3 MSTORE SWAP3 SWAP2 PUSH32 0xE6E4222B2C2DDB82EB8817D7BD8EC6FC5EB5F915B4D7B36C260AA77BA04DA7DB SWAP1 PUSH1 0xA0 ADD PUSH1 0x40 MLOAD DUP1 SWAP2 SUB SWAP1 LOG4 PUSH1 0x4 DUP1 SLOAD SWAP1 PUSH1 0x0 PUSH2 0x48D7 DUP4 PUSH2 0x5723 JUMP JUMPDEST SWAP2 SWAP1 POP SSTORE POP POP POP POP POP POP POP JUMP JUMPDEST PUSH1 0x0 DUP2 DUP4 PUSH2 0x4905 JUMPI PUSH1 0x40 MLOAD PUSH3 0x461BCD PUSH1 0xE5 SHL DUP2 MSTORE PUSH1 0x4 ADD PUSH2 0xC58 SWAP2 SWAP1 PUSH2 0x54DF JUMP JUMPDEST POP PUSH1 0x0 PUSH2 0x4912 DUP5 DUP7 PUSH2 0x5672 JUMP JUMPDEST SWAP6 SWAP5 POP POP POP POP POP JUMP JUMPDEST PUSH1 0x40 MLOAD PUSH32 0x4306D35400000000000000000000000000000000000000000000000000000000 DUP2 MSTORE PUSH4 0xFFFFFFFF DUP5 AND PUSH1 0x4 DUP3 ADD MSTORE PUSH1 0x0 SWAP1 PUSH1 0x1 PUSH1 0x1 PUSH1 0xA0 SHL SUB PUSH32 0x0 DUP2 AND SWAP2 PUSH4 0x4000AEA0 SWAP2 PUSH32 0x0 SWAP2 SWAP1 DUP3 AND SWAP1 PUSH4 0x4306D354 SWAP1 PUSH1 0x24 ADD PUSH1 0x20 PUSH1 0x40 MLOAD DUP1 DUP4 SUB DUP2 DUP7 DUP1 EXTCODESIZE ISZERO DUP1 ISZERO PUSH2 0x49C9 JUMPI PUSH1 0x0 DUP1 REVERT JUMPDEST POP GAS STATICCALL ISZERO DUP1 ISZERO PUSH2 0x49DD JUMPI RETURNDATASIZE PUSH1 0x0 DUP1 RETURNDATACOPY RETURNDATASIZE PUSH1 0x0 REVERT JUMPDEST POP POP POP POP PUSH1 0x40 MLOAD RETURNDATASIZE PUSH1 0x1F NOT PUSH1 0x1F DUP3 ADD AND DUP3 ADD DUP1 PUSH1 0x40 MSTORE POP DUP2 ADD SWAP1 PUSH2 0x4A01 SWAP2 SWAP1 PUSH2 0x50F1 JUMP JUMPDEST PUSH1 0x40 DUP1 MLOAD PUSH4 0xFFFFFFFF DUP1 DUP12 AND PUSH1 0x20 DUP4 ADD MSTORE PUSH2 0xFFFF DUP11 AND SWAP3 DUP3 ADD SWAP3 SWAP1 SWAP3 MSTORE SWAP1 DUP8 AND PUSH1 0x60 DUP3 ADD MSTORE PUSH1 0x80 ADD PUSH1 0x40 MLOAD PUSH1 0x20 DUP2 DUP4 SUB SUB DUP2 MSTORE SWAP1 PUSH1 0x40 MSTORE PUSH1 0x40 MLOAD DUP5 PUSH4 0xFFFFFFFF AND PUSH1 0xE0 SHL DUP2 MSTORE PUSH1 0x4 ADD PUSH2 0x4A56 SWAP4 SWAP3 SWAP2 SWAP1 PUSH2 0x5349 JUMP JUMPDEST PUSH1 0x20 PUSH1 0x40 MLOAD DUP1 DUP4 SUB DUP2 PUSH1 0x0 DUP8 DUP1 EXTCODESIZE ISZERO DUP1 ISZERO PUSH2 0x4A70 JUMPI PUSH1 0x0 DUP1 REVERT JUMPDEST POP GAS CALL ISZERO DUP1 ISZERO PUSH2 0x4A84 JUMPI RETURNDATASIZE PUSH1 0x0 DUP1 RETURNDATACOPY RETURNDATASIZE PUSH1 0x0 REVERT JUMPDEST POP POP POP POP PUSH1 0x40 MLOAD RETURNDATASIZE PUSH1 0x1F NOT PUSH1 0x1F DUP3 ADD AND DUP3 ADD DUP1 PUSH1 0x40 MSTORE POP DUP2 ADD SWAP1 PUSH2 0x4AA8 SWAP2 SWAP1 PUSH2 0x4F85 JUMP JUMPDEST POP PUSH32 0x0 PUSH1 0x1 PUSH1 0x1 PUSH1 0xA0 SHL SUB AND PUSH4 0xFC2A88C3 PUSH1 0x40 MLOAD DUP2 PUSH4 0xFFFFFFFF AND PUSH1 0xE0 SHL DUP2 MSTORE PUSH1 0x4 ADD PUSH1 0x20 PUSH1 0x40 MLOAD DUP1 DUP4 SUB DUP2 DUP7 DUP1 EXTCODESIZE ISZERO DUP1 ISZERO PUSH2 0x4B02 JUMPI PUSH1 0x0 DUP1 REVERT JUMPDEST POP GAS STATICCALL ISZERO DUP1 ISZERO PUSH2 0x4B16 JUMPI RETURNDATASIZE PUSH1 0x0 DUP1 RETURNDATACOPY RETURNDATASIZE PUSH1 0x0 REVERT JUMPDEST POP POP POP POP PUSH1 0x40 MLOAD RETURNDATASIZE PUSH1 0x1F NOT PUSH1 0x1F DUP3 ADD AND DUP3 ADD DUP1 PUSH1 0x40 MSTORE POP DUP2 ADD SWAP1 PUSH2 0x4B3A SWAP2 SWAP1 PUSH2 0x50F1 JUMP JUMPDEST SWAP5 SWAP4 POP POP POP POP JUMP JUMPDEST PUSH1 0x0 DUP2 DUP5 DUP5 GT ISZERO PUSH2 0x4B66 JUMPI PUSH1 0x40 MLOAD PUSH3 0x461BCD PUSH1 0xE5 SHL DUP2 MSTORE PUSH1 0x4 ADD PUSH2 0xC58 SWAP2 SWAP1 PUSH2 0x54DF JUMP JUMPDEST POP PUSH1 0x0 PUSH2 0x4912 DUP5 DUP7 PUSH2 0x56A5 JUMP JUMPDEST PUSH1 0x0 PUSH2 0x3E63 DUP4 DUP4 PUSH1 0x40 MLOAD DUP1 PUSH1 0x40 ADD PUSH1 0x40 MSTORE DUP1 PUSH1 0x18 DUP2 MSTORE PUSH1 0x20 ADD PUSH32 0x536166654D6174683A206D6F64756C6F206279207A65726F0000000000000000 DUP2 MSTORE POP PUSH1 0x0 DUP2 DUP4 PUSH2 0x4BD1 JUMPI PUSH1 0x40 MLOAD PUSH3 0x461BCD PUSH1 0xE5 SHL DUP2 MSTORE PUSH1 0x4 ADD PUSH2 0xC58 SWAP2 SWAP1 PUSH2 0x54DF JUMP JUMPDEST POP PUSH2 0x4B3A DUP4 DUP6 PUSH2 0x573E JUMP JUMPDEST DUP3 DUP1 SLOAD DUP3 DUP3 SSTORE SWAP1 PUSH1 0x0 MSTORE PUSH1 0x20 PUSH1 0x0 KECCAK256 SWAP1 DUP2 ADD SWAP3 DUP3 ISZERO PUSH2 0x4C17 JUMPI SWAP2 PUSH1 0x20 MUL DUP3 ADD JUMPDEST DUP3 DUP2 GT ISZERO PUSH2 0x4C17 JUMPI DUP3 MLOAD DUP3 SSTORE SWAP2 PUSH1 0x20 ADD SWAP2 SWAP1 PUSH1 0x1 ADD SWAP1 PUSH2 0x4BFC JUMP JUMPDEST POP PUSH2 0x4C23 SWAP3 SWAP2 POP PUSH2 0x4C9A JUMP JUMPDEST POP SWAP1 JUMP JUMPDEST DUP3 DUP1 SLOAD PUSH2 0x4C33 SWAP1 PUSH2 0x56E8 JUMP JUMPDEST SWAP1 PUSH1 0x0 MSTORE PUSH1 0x20 PUSH1 0x0 KECCAK256 SWAP1 PUSH1 0x1F ADD PUSH1 0x20 SWAP1 DIV DUP2 ADD SWAP3 DUP3 PUSH2 0x4C55 JUMPI PUSH1 0x0 DUP6 SSTORE PUSH2 0x4C17 JUMP JUMPDEST DUP3 PUSH1 0x1F LT PUSH2 0x4C6E JUMPI DUP1 MLOAD PUSH1 0xFF NOT AND DUP4 DUP1 ADD OR DUP6 SSTORE PUSH2 0x4C17 JUMP JUMPDEST DUP3 DUP1 ADD PUSH1 0x1 ADD DUP6 SSTORE DUP3 ISZERO PUSH2 0x4C17 JUMPI SWAP2 DUP3 ADD DUP3 DUP2 GT ISZERO PUSH2 0x4C17 JUMPI DUP3 MLOAD DUP3 SSTORE SWAP2 PUSH1 0x20 ADD SWAP2 SWAP1 PUSH1 0x1 ADD SWAP1 PUSH2 0x4BFC JUMP JUMPDEST JUMPDEST DUP1 DUP3 GT ISZERO PUSH2 0x4C23 JUMPI PUSH1 0x0 DUP2 SSTORE PUSH1 0x1 ADD PUSH2 0x4C9B JUMP JUMPDEST DUP1 CALLDATALOAD PUSH1 0x1 PUSH1 0x1 PUSH1 0xA0 SHL SUB DUP2 AND DUP2 EQ PUSH2 0x4CC6 JUMPI PUSH1 0x0 DUP1 REVERT JUMPDEST SWAP2 SWAP1 POP JUMP JUMPDEST PUSH1 0x0 DUP3 PUSH1 0x1F DUP4 ADD SLT PUSH2 0x4CDC JUMPI PUSH1 0x0 DUP1 REVERT JUMPDEST DUP2 CALLDATALOAD PUSH1 0x20 PUSH8 0xFFFFFFFFFFFFFFFF DUP3 GT ISZERO PUSH2 0x4CF8 JUMPI PUSH2 0x4CF8 PUSH2 0x57C0 JUMP JUMPDEST DUP2 PUSH1 0x5 SHL PUSH2 0x4D07 DUP3 DUP3 ADD PUSH2 0x5629 JUMP JUMPDEST DUP4 DUP2 MSTORE DUP3 DUP2 ADD SWAP1 DUP7 DUP5 ADD DUP4 DUP9 ADD DUP6 ADD DUP10 LT ISZERO PUSH2 0x4D22 JUMPI PUSH1 0x0 DUP1 REVERT JUMPDEST PUSH1 0x0 SWAP4 POP JUMPDEST DUP6 DUP5 LT ISZERO PUSH2 0x4D45 JUMPI DUP1 CALLDATALOAD DUP4 MSTORE PUSH1 0x1 SWAP4 SWAP1 SWAP4 ADD SWAP3 SWAP2 DUP5 ADD SWAP2 DUP5 ADD PUSH2 0x4D27 JUMP JUMPDEST POP SWAP8 SWAP7 POP POP POP POP POP POP POP JUMP JUMPDEST PUSH1 0x0 DUP3 PUSH1 0x1F DUP4 ADD SLT PUSH2 0x4D62 JUMPI PUSH1 0x0 DUP1 REVERT JUMPDEST DUP2 CALLDATALOAD PUSH8 0xFFFFFFFFFFFFFFFF DUP2 GT ISZERO PUSH2 0x4D7C JUMPI PUSH2 0x4D7C PUSH2 0x57C0 JUMP JUMPDEST PUSH2 0x4D8F PUSH1 0x1F DUP3 ADD PUSH1 0x1F NOT AND PUSH1 0x20 ADD PUSH2 0x5629 JUMP JUMPDEST DUP2 DUP2 MSTORE DUP5 PUSH1 0x20 DUP4 DUP7 ADD ADD GT ISZERO PUSH2 0x4DA4 JUMPI PUSH1 0x0 DUP1 REVERT JUMPDEST DUP2 PUSH1 0x20 DUP6 ADD PUSH1 0x20 DUP4 ADD CALLDATACOPY PUSH1 0x0 SWAP2 DUP2 ADD PUSH1 0x20 ADD SWAP2 SWAP1 SWAP2 MSTORE SWAP4 SWAP3 POP POP POP JUMP JUMPDEST PUSH1 0x0 PUSH1 0x20 DUP3 DUP5 SUB SLT ISZERO PUSH2 0x4DD3 JUMPI PUSH1 0x0 DUP1 REVERT JUMPDEST PUSH2 0x3E63 DUP3 PUSH2 0x4CAF JUMP JUMPDEST PUSH1 0x0 DUP1 PUSH1 0x0 DUP1 PUSH1 0x0 DUP1 PUSH1 0x0 DUP1 PUSH1 0x0 PUSH2 0x120 DUP11 DUP13 SUB SLT ISZERO PUSH2 0x4DFB JUMPI PUSH1 0x0 DUP1 REVERT JUMPDEST PUSH2 0x4E04 DUP11 PUSH2 0x4CAF JUMP JUMPDEST SWAP9 POP PUSH2 0x4E12 PUSH1 0x20 DUP12 ADD PUSH2 0x4CAF JUMP JUMPDEST SWAP8 POP PUSH1 0x40 DUP11 ADD CALLDATALOAD PUSH8 0xFFFFFFFFFFFFFFFF DUP1 DUP3 GT ISZERO PUSH2 0x4E2F JUMPI PUSH1 0x0 DUP1 REVERT JUMPDEST PUSH2 0x4E3B DUP14 DUP4 DUP15 ADD PUSH2 0x4D51 JUMP JUMPDEST SWAP9 POP PUSH1 0x60 DUP13 ADD CALLDATALOAD SWAP2 POP DUP1 DUP3 GT ISZERO PUSH2 0x4E51 JUMPI PUSH1 0x0 DUP1 REVERT JUMPDEST PUSH2 0x4E5D DUP14 DUP4 DUP15 ADD PUSH2 0x4D51 JUMP JUMPDEST SWAP8 POP PUSH1 0x80 DUP13 ADD CALLDATALOAD SWAP7 POP PUSH1 0xA0 DUP13 ADD CALLDATALOAD SWAP2 POP DUP1 DUP3 GT ISZERO PUSH2 0x4E7A JUMPI PUSH1 0x0 DUP1 REVERT JUMPDEST PUSH2 0x4E86 DUP14 DUP4 DUP15 ADD PUSH2 0x4D51 JUMP JUMPDEST SWAP6 POP PUSH1 0xC0 DUP13 ADD CALLDATALOAD SWAP2 POP DUP1 DUP3 GT ISZERO PUSH2 0x4E9C JUMPI PUSH1 0x0 DUP1 REVERT JUMPDEST POP PUSH2 0x4EA9 DUP13 DUP3 DUP14 ADD PUSH2 0x4D51 JUMP JUMPDEST SWAP4 POP POP PUSH1 0xE0 DUP11 ADD CALLDATALOAD SWAP2 POP PUSH2 0x100 DUP11 ADD CALLDATALOAD SWAP1 POP SWAP3 SWAP6 SWAP9 POP SWAP3 SWAP6 SWAP9 POP SWAP3 SWAP6 SWAP9 JUMP JUMPDEST PUSH1 0x0 DUP1 PUSH1 0x0 PUSH1 0x60 DUP5 DUP7 SUB SLT ISZERO PUSH2 0x4EDD JUMPI PUSH1 0x0 DUP1 REVERT JUMPDEST PUSH2 0x4EE6 DUP5 PUSH2 0x4CAF JUMP JUMPDEST SWAP6 PUSH1 0x20 DUP6 ADD CALLDATALOAD SWAP6 POP PUSH1 0x40 SWAP1 SWAP5 ADD CALLDATALOAD SWAP4 SWAP3 POP POP POP JUMP JUMPDEST PUSH1 0x0 DUP1 PUSH1 0x0 PUSH1 0x60 DUP5 DUP7 SUB SLT ISZERO PUSH2 0x4F10 JUMPI PUSH1 0x0 DUP1 REVERT JUMPDEST DUP4 CALLDATALOAD PUSH8 0xFFFFFFFFFFFFFFFF DUP1 DUP3 GT ISZERO PUSH2 0x4F28 JUMPI PUSH1 0x0 DUP1 REVERT JUMPDEST PUSH2 0x4F34 DUP8 DUP4 DUP9 ADD PUSH2 0x4CCB JUMP JUMPDEST SWAP5 POP PUSH1 0x20 DUP7 ADD CALLDATALOAD SWAP4 POP PUSH1 0x40 DUP7 ADD CALLDATALOAD SWAP2 POP DUP1 DUP3 GT ISZERO PUSH2 0x4F51 JUMPI PUSH1 0x0 DUP1 REVERT JUMPDEST POP PUSH2 0x4F5E DUP7 DUP3 DUP8 ADD PUSH2 0x4D51 JUMP JUMPDEST SWAP2 POP POP SWAP3 POP SWAP3 POP SWAP3 JUMP JUMPDEST PUSH1 0x0 PUSH1 0x20 DUP3 DUP5 SUB SLT ISZERO PUSH2 0x4F7A JUMPI PUSH1 0x0 DUP1 REVERT JUMPDEST DUP2 CALLDATALOAD PUSH2 0x3E63 DUP2 PUSH2 0x57D6 JUMP JUMPDEST PUSH1 0x0 PUSH1 0x20 DUP3 DUP5 SUB SLT ISZERO PUSH2 0x4F97 JUMPI PUSH1 0x0 DUP1 REVERT JUMPDEST DUP2 MLOAD PUSH2 0x3E63 DUP2 PUSH2 0x57D6 JUMP JUMPDEST PUSH1 0x0 DUP1 PUSH1 0x20 DUP4 DUP6 SUB SLT ISZERO PUSH2 0x4FB5 JUMPI PUSH1 0x0 DUP1 REVERT JUMPDEST DUP3 CALLDATALOAD PUSH8 0xFFFFFFFFFFFFFFFF DUP1 DUP3 GT ISZERO PUSH2 0x4FCD JUMPI PUSH1 0x0 DUP1 REVERT JUMPDEST DUP2 DUP6 ADD SWAP2 POP DUP6 PUSH1 0x1F DUP4 ADD SLT PUSH2 0x4FE1 JUMPI PUSH1 0x0 DUP1 REVERT JUMPDEST DUP2 CALLDATALOAD DUP2 DUP2 GT ISZERO PUSH2 0x4FF0 JUMPI PUSH1 0x0 DUP1 REVERT JUMPDEST DUP7 PUSH1 0x20 DUP3 DUP6 ADD ADD GT ISZERO PUSH2 0x5002 JUMPI PUSH1 0x0 DUP1 REVERT JUMPDEST PUSH1 0x20 SWAP3 SWAP1 SWAP3 ADD SWAP7 SWAP2 SWAP6 POP SWAP1 SWAP4 POP POP POP POP JUMP JUMPDEST PUSH1 0x0 PUSH1 0x20 DUP3 DUP5 SUB SLT ISZERO PUSH2 0x5026 JUMPI PUSH1 0x0 DUP1 REVERT JUMPDEST DUP2 CALLDATALOAD PUSH8 0xFFFFFFFFFFFFFFFF DUP2 GT ISZERO PUSH2 0x503D JUMPI PUSH1 0x0 DUP1 REVERT JUMPDEST PUSH2 0x4B3A DUP5 DUP3 DUP6 ADD PUSH2 0x4D51 JUMP JUMPDEST PUSH1 0x0 DUP1 PUSH1 0x0 DUP1 PUSH1 0x0 PUSH1 0xA0 DUP7 DUP9 SUB SLT ISZERO PUSH2 0x5061 JUMPI PUSH1 0x0 DUP1 REVERT JUMPDEST DUP6 CALLDATALOAD PUSH8 0xFFFFFFFFFFFFFFFF DUP1 DUP3 GT ISZERO PUSH2 0x5079 JUMPI PUSH1 0x0 DUP1 REVERT JUMPDEST PUSH2 0x5085 DUP10 DUP4 DUP11 ADD PUSH2 0x4D51 JUMP JUMPDEST SWAP7 POP PUSH1 0x20 DUP9 ADD CALLDATALOAD SWAP2 POP DUP1 DUP3 GT ISZERO PUSH2 0x509B JUMPI PUSH1 0x0 DUP1 REVERT JUMPDEST POP PUSH2 0x50A8 DUP9 DUP3 DUP10 ADD PUSH2 0x4D51 JUMP JUMPDEST SWAP5 POP POP PUSH1 0x40 DUP7 ADD CALLDATALOAD PUSH2 0x50B9 DUP2 PUSH2 0x57D6 JUMP JUMPDEST SWAP3 POP PUSH2 0x50C7 PUSH1 0x60 DUP8 ADD PUSH2 0x4CAF JUMP JUMPDEST SWAP5 SWAP8 SWAP4 SWAP7 POP SWAP2 SWAP5 PUSH1 0x80 ADD CALLDATALOAD SWAP3 SWAP2 POP POP JUMP JUMPDEST PUSH1 0x0 PUSH1 0x20 DUP3 DUP5 SUB SLT ISZERO PUSH2 0x50EA JUMPI PUSH1 0x0 DUP1 REVERT JUMPDEST POP CALLDATALOAD SWAP2 SWAP1 POP JUMP JUMPDEST PUSH1 0x0 PUSH1 0x20 DUP3 DUP5 SUB SLT ISZERO PUSH2 0x5103 JUMPI PUSH1 0x0 DUP1 REVERT JUMPDEST POP MLOAD SWAP2 SWAP1 POP JUMP JUMPDEST PUSH1 0x0 DUP1 PUSH1 0x40 DUP4 DUP6 SUB SLT ISZERO PUSH2 0x511D JUMPI PUSH1 0x0 DUP1 REVERT JUMPDEST DUP3 CALLDATALOAD SWAP2 POP PUSH2 0x512D PUSH1 0x20 DUP5 ADD PUSH2 0x4CAF JUMP JUMPDEST SWAP1 POP SWAP3 POP SWAP3 SWAP1 POP JUMP JUMPDEST PUSH1 0x0 DUP1 PUSH1 0x0 PUSH1 0x60 DUP5 DUP7 SUB SLT ISZERO PUSH2 0x514B JUMPI PUSH1 0x0 DUP1 REVERT JUMPDEST DUP4 CALLDATALOAD SWAP3 POP PUSH2 0x515B PUSH1 0x20 DUP6 ADD PUSH2 0x4CAF JUMP JUMPDEST SWAP2 POP PUSH2 0x5169 PUSH1 0x40 DUP6 ADD PUSH2 0x4CAF JUMP JUMPDEST SWAP1 POP SWAP3 POP SWAP3 POP SWAP3 JUMP JUMPDEST PUSH1 0x0 DUP1 PUSH1 0x40 DUP4 DUP6 SUB SLT ISZERO PUSH2 0x5185 JUMPI PUSH1 0x0 DUP1 REVERT JUMPDEST DUP3 CALLDATALOAD SWAP2 POP PUSH1 0x20 DUP4 ADD CALLDATALOAD PUSH8 0xFFFFFFFFFFFFFFFF DUP2 GT ISZERO PUSH2 0x51A3 JUMPI PUSH1 0x0 DUP1 REVERT JUMPDEST PUSH2 0x51AF DUP6 DUP3 DUP7 ADD PUSH2 0x4CCB JUMP JUMPDEST SWAP2 POP POP SWAP3 POP SWAP3 SWAP1 POP JUMP JUMPDEST PUSH1 0x0 DUP1 PUSH1 0x40 DUP4 DUP6 SUB SLT ISZERO PUSH2 0x51CC JUMPI PUSH1 0x0 DUP1 REVERT JUMPDEST POP POP DUP1 CALLDATALOAD SWAP3 PUSH1 0x20 SWAP1 SWAP2 ADD CALLDATALOAD SWAP2 POP JUMP JUMPDEST PUSH1 0x0 DUP1 PUSH1 0x0 DUP1 PUSH1 0x80 DUP6 DUP8 SUB SLT ISZERO PUSH2 0x51F1 JUMPI PUSH1 0x0 DUP1 REVERT JUMPDEST POP POP DUP3 CALLDATALOAD SWAP5 PUSH1 0x20 DUP5 ADD CALLDATALOAD SWAP5 POP PUSH1 0x40 DUP5 ADD CALLDATALOAD SWAP4 PUSH1 0x60 ADD CALLDATALOAD SWAP3 POP SWAP1 POP JUMP JUMPDEST PUSH1 0x0 DUP1 PUSH1 0x0 DUP1 PUSH1 0x0 DUP1 PUSH1 0x0 DUP1 PUSH1 0x0 DUP1 PUSH2 0x140 DUP12 DUP14 SUB SLT ISZERO PUSH2 0x522D JUMPI PUSH1 0x0 DUP1 REVERT JUMPDEST DUP11 CALLDATALOAD SWAP10 POP PUSH1 0x20 DUP12 ADD CALLDATALOAD SWAP9 POP PUSH1 0x40 DUP12 ADD CALLDATALOAD SWAP8 POP PUSH1 0x60 DUP12 ADD CALLDATALOAD SWAP7 POP PUSH1 0x80 DUP12 ADD CALLDATALOAD SWAP6 POP PUSH1 0xA0 DUP12 ADD CALLDATALOAD SWAP5 POP PUSH1 0xC0 DUP12 ADD CALLDATALOAD SWAP4 POP PUSH1 0xE0 DUP12 ADD CALLDATALOAD SWAP3 POP PUSH2 0x100 DUP12 ADD CALLDATALOAD SWAP2 POP PUSH2 0x120 DUP12 ADD CALLDATALOAD PUSH1 0x2 DUP2 LT PUSH2 0x527D JUMPI PUSH1 0x0 DUP1 REVERT JUMPDEST DUP1 SWAP2 POP POP SWAP3 SWAP6 SWAP9 SWAP12 SWAP2 SWAP5 SWAP8 SWAP11 POP SWAP3 SWAP6 SWAP9 POP JUMP JUMPDEST PUSH1 0x0 DUP2 MLOAD DUP1 DUP5 MSTORE PUSH1 0x20 DUP1 DUP6 ADD SWAP5 POP DUP1 DUP5 ADD PUSH1 0x0 JUMPDEST DUP4 DUP2 LT ISZERO PUSH2 0x52C0 JUMPI DUP2 MLOAD DUP8 MSTORE SWAP6 DUP3 ADD SWAP6 SWAP1 DUP3 ADD SWAP1 PUSH1 0x1 ADD PUSH2 0x52A4 JUMP JUMPDEST POP SWAP5 SWAP6 SWAP5 POP POP POP POP POP JUMP JUMPDEST PUSH1 0x0 DUP2 MLOAD DUP1 DUP5 MSTORE PUSH2 0x52E3 DUP2 PUSH1 0x20 DUP7 ADD PUSH1 0x20 DUP7 ADD PUSH2 0x56BC JUMP JUMPDEST PUSH1 0x1F ADD PUSH1 0x1F NOT AND SWAP3 SWAP1 SWAP3 ADD PUSH1 0x20 ADD SWAP3 SWAP2 POP POP JUMP JUMPDEST PUSH1 0x0 DUP3 MLOAD PUSH2 0x5309 DUP2 DUP5 PUSH1 0x20 DUP8 ADD PUSH2 0x56BC JUMP JUMPDEST SWAP2 SWAP1 SWAP2 ADD SWAP3 SWAP2 POP POP JUMP JUMPDEST PUSH1 0x0 PUSH1 0x1 PUSH1 0x1 PUSH1 0xA0 SHL SUB DUP1 DUP7 AND DUP4 MSTORE PUSH1 0x60 PUSH1 0x20 DUP5 ADD MSTORE PUSH2 0x5336 PUSH1 0x60 DUP5 ADD DUP7 PUSH2 0x52CB JUMP JUMPDEST SWAP2 POP DUP1 DUP5 AND PUSH1 0x40 DUP5 ADD MSTORE POP SWAP5 SWAP4 POP POP POP POP JUMP JUMPDEST PUSH1 0x1 PUSH1 0x1 PUSH1 0xA0 SHL SUB DUP5 AND DUP2 MSTORE DUP3 PUSH1 0x20 DUP3 ADD MSTORE PUSH1 0x60 PUSH1 0x40 DUP3 ADD MSTORE PUSH1 0x0 PUSH2 0x4912 PUSH1 0x60 DUP4 ADD DUP5 PUSH2 0x52CB JUMP JUMPDEST PUSH1 0x20 DUP2 MSTORE PUSH1 0x0 PUSH2 0x3E63 PUSH1 0x20 DUP4 ADD DUP5 PUSH2 0x5290 JUMP JUMPDEST PUSH1 0x40 DUP2 MSTORE PUSH1 0x0 PUSH2 0x5397 PUSH1 0x40 DUP4 ADD DUP6 PUSH2 0x5290 JUMP JUMPDEST DUP3 DUP2 SUB PUSH1 0x20 DUP5 DUP2 ADD SWAP2 SWAP1 SWAP2 MSTORE DUP5 MLOAD DUP1 DUP4 MSTORE DUP6 DUP3 ADD SWAP3 DUP3 ADD SWAP1 PUSH1 0x0 JUMPDEST DUP2 DUP2 LT ISZERO PUSH2 0x53D7 JUMPI DUP5 MLOAD PUSH1 0x1 PUSH1 0x1 PUSH1 0xA0 SHL SUB AND DUP4 MSTORE SWAP4 DUP4 ADD SWAP4 SWAP2 DUP4 ADD SWAP2 PUSH1 0x1 ADD PUSH2 0x53B2 JUMP JUMPDEST POP SWAP1 SWAP8 SWAP7 POP POP POP POP POP POP POP JUMP JUMPDEST PUSH1 0x80 DUP2 MSTORE PUSH1 0x0 PUSH2 0x53F7 PUSH1 0x80 DUP4 ADD DUP8 PUSH2 0x5290 JUMP JUMPDEST PUSH1 0x20 DUP4 ADD SWAP6 SWAP1 SWAP6 MSTORE POP PUSH1 0x40 DUP2 ADD SWAP3 SWAP1 SWAP3 MSTORE PUSH1 0x60 SWAP1 SWAP2 ADD MSTORE SWAP2 SWAP1 POP JUMP JUMPDEST DUP14 ISZERO ISZERO DUP2 MSTORE PUSH1 0x1 PUSH1 0x1 PUSH1 0xA0 SHL SUB DUP14 AND PUSH1 0x20 DUP3 ADD MSTORE PUSH1 0x1 PUSH1 0x1 PUSH1 0xA0 SHL SUB DUP13 AND PUSH1 0x40 DUP3 ADD MSTORE PUSH2 0x1A0 PUSH1 0x60 DUP3 ADD MSTORE PUSH1 0x0 PUSH2 0x544E PUSH2 0x1A0 DUP4 ADD DUP14 PUSH2 0x52CB JUMP JUMPDEST DUP3 DUP2 SUB PUSH1 0x80 DUP5 ADD MSTORE PUSH2 0x5460 DUP2 DUP14 PUSH2 0x52CB JUMP JUMPDEST SWAP1 POP DUP11 PUSH1 0xA0 DUP5 ADD MSTORE DUP3 DUP2 SUB PUSH1 0xC0 DUP5 ADD MSTORE PUSH2 0x547A DUP2 DUP12 PUSH2 0x52CB JUMP JUMPDEST SWAP1 POP DUP3 DUP2 SUB PUSH1 0xE0 DUP5 ADD MSTORE PUSH2 0x548E DUP2 DUP11 PUSH2 0x52CB JUMP JUMPDEST PUSH2 0x100 DUP5 ADD SWAP9 SWAP1 SWAP9 MSTORE POP POP PUSH2 0x120 DUP2 ADD SWAP5 SWAP1 SWAP5 MSTORE PUSH2 0x140 DUP5 ADD SWAP3 SWAP1 SWAP3 MSTORE PUSH2 0x160 DUP4 ADD MSTORE PUSH2 0x180 SWAP1 SWAP2 ADD MSTORE SWAP9 SWAP8 POP POP POP POP POP POP POP POP JUMP JUMPDEST DUP3 ISZERO ISZERO DUP2 MSTORE PUSH1 0x40 PUSH1 0x20 DUP3 ADD MSTORE PUSH1 0x0 PUSH2 0x4B3A PUSH1 0x40 DUP4 ADD DUP5 PUSH2 0x52CB JUMP JUMPDEST PUSH1 0x20 DUP2 MSTORE PUSH1 0x0 PUSH2 0x3E63 PUSH1 0x20 DUP4 ADD DUP5 PUSH2 0x52CB JUMP JUMPDEST PUSH1 0xC0 DUP2 MSTORE PUSH1 0x0 PUSH2 0x5505 PUSH1 0xC0 DUP4 ADD DUP10 PUSH2 0x52CB JUMP JUMPDEST DUP3 DUP2 SUB PUSH1 0x20 DUP5 ADD MSTORE PUSH2 0x5517 DUP2 DUP10 PUSH2 0x52CB JUMP JUMPDEST SWAP7 ISZERO ISZERO PUSH1 0x40 DUP5 ADD MSTORE POP POP PUSH1 0x1 PUSH1 0x1 PUSH1 0xA0 SHL SUB SWAP4 SWAP1 SWAP4 AND PUSH1 0x60 DUP5 ADD MSTORE PUSH1 0x80 DUP4 ADD SWAP2 SWAP1 SWAP2 MSTORE PUSH1 0xA0 SWAP1 SWAP2 ADD MSTORE SWAP3 SWAP2 POP POP JUMP JUMPDEST DUP7 DUP2 MSTORE PUSH1 0xC0 PUSH1 0x20 DUP3 ADD MSTORE PUSH1 0x0 PUSH2 0x555F PUSH1 0xC0 DUP4 ADD DUP9 PUSH2 0x52CB JUMP JUMPDEST DUP3 DUP2 SUB PUSH1 0x40 DUP5 ADD MSTORE PUSH2 0x5571 DUP2 DUP9 PUSH2 0x52CB JUMP JUMPDEST SWAP6 ISZERO ISZERO PUSH1 0x60 DUP5 ADD MSTORE POP POP PUSH1 0x1 PUSH1 0x1 PUSH1 0xA0 SHL SUB SWAP3 SWAP1 SWAP3 AND PUSH1 0x80 DUP4 ADD MSTORE PUSH1 0xA0 SWAP1 SWAP2 ADD MSTORE SWAP4 SWAP3 POP POP POP JUMP JUMPDEST PUSH1 0x0 PUSH2 0x180 DUP3 ADD SWAP1 POP DUP14 DUP3 MSTORE DUP13 PUSH1 0x20 DUP4 ADD MSTORE DUP12 PUSH1 0x40 DUP4 ADD MSTORE DUP11 PUSH1 0x60 DUP4 ADD MSTORE DUP10 PUSH1 0x80 DUP4 ADD MSTORE DUP9 PUSH1 0xA0 DUP4 ADD MSTORE DUP8 PUSH1 0xC0 DUP4 ADD MSTORE DUP7 PUSH1 0xE0 DUP4 ADD MSTORE PUSH1 0x1 PUSH1 0x1 PUSH1 0xA0 SHL SUB DUP1 DUP8 AND PUSH2 0x100 DUP5 ADD MSTORE DUP1 DUP7 AND PUSH2 0x120 DUP5 ADD MSTORE POP PUSH1 0x4 DUP5 LT PUSH2 0x55FA JUMPI PUSH2 0x55FA PUSH2 0x5794 JUMP JUMPDEST DUP4 PUSH2 0x140 DUP4 ADD MSTORE PUSH1 0x2 DUP4 LT PUSH2 0x5611 JUMPI PUSH2 0x5611 PUSH2 0x5794 JUMP JUMPDEST DUP3 PUSH2 0x160 DUP4 ADD MSTORE SWAP14 SWAP13 POP POP POP POP POP POP POP POP POP POP POP POP POP JUMP JUMPDEST PUSH1 0x40 MLOAD PUSH1 0x1F DUP3 ADD PUSH1 0x1F NOT AND DUP2 ADD PUSH8 0xFFFFFFFFFFFFFFFF DUP2 GT DUP3 DUP3 LT OR ISZERO PUSH2 0x5652 JUMPI PUSH2 0x5652 PUSH2 0x57C0 JUMP JUMPDEST PUSH1 0x40 MSTORE SWAP2 SWAP1 POP JUMP JUMPDEST PUSH1 0x0 DUP3 NOT DUP3 GT ISZERO PUSH2 0x566D JUMPI PUSH2 0x566D PUSH2 0x5768 JUMP JUMPDEST POP ADD SWAP1 JUMP JUMPDEST PUSH1 0x0 DUP3 PUSH2 0x5681 JUMPI PUSH2 0x5681 PUSH2 0x577E JUMP JUMPDEST POP DIV SWAP1 JUMP JUMPDEST PUSH1 0x0 DUP2 PUSH1 0x0 NOT DIV DUP4 GT DUP3 ISZERO ISZERO AND ISZERO PUSH2 0x56A0 JUMPI PUSH2 0x56A0 PUSH2 0x5768 JUMP JUMPDEST POP MUL SWAP1 JUMP JUMPDEST PUSH1 0x0 DUP3 DUP3 LT ISZERO PUSH2 0x56B7 JUMPI PUSH2 0x56B7 PUSH2 0x5768 JUMP JUMPDEST POP SUB SWAP1 JUMP JUMPDEST PUSH1 0x0 JUMPDEST DUP4 DUP2 LT ISZERO PUSH2 0x56D7 JUMPI DUP2 DUP2 ADD MLOAD DUP4 DUP3 ADD MSTORE PUSH1 0x20 ADD PUSH2 0x56BF JUMP JUMPDEST DUP4 DUP2 GT ISZERO PUSH2 0x1BA0 JUMPI POP POP PUSH1 0x0 SWAP2 ADD MSTORE JUMP JUMPDEST PUSH1 0x1 DUP2 DUP2 SHR SWAP1 DUP3 AND DUP1 PUSH2 0x56FC JUMPI PUSH1 0x7F DUP3 AND SWAP2 POP JUMPDEST PUSH1 0x20 DUP3 LT DUP2 EQ ISZERO PUSH2 0x571D JUMPI PUSH4 0x4E487B71 PUSH1 0xE0 SHL PUSH1 0x0 MSTORE PUSH1 0x22 PUSH1 0x4 MSTORE PUSH1 0x24 PUSH1 0x0 REVERT JUMPDEST POP SWAP2 SWAP1 POP JUMP JUMPDEST PUSH1 0x0 PUSH1 0x0 NOT DUP3 EQ ISZERO PUSH2 0x5737 JUMPI PUSH2 0x5737 PUSH2 0x5768 JUMP JUMPDEST POP PUSH1 0x1 ADD SWAP1 JUMP JUMPDEST PUSH1 0x0 DUP3 PUSH2 0x574D JUMPI PUSH2 0x574D PUSH2 0x577E JUMP JUMPDEST POP MOD SWAP1 JUMP JUMPDEST PUSH4 0x4E487B71 PUSH1 0xE0 SHL PUSH1 0x0 MSTORE PUSH1 0x1 PUSH1 0x4 MSTORE PUSH1 0x24 PUSH1 0x0 REVERT JUMPDEST PUSH4 0x4E487B71 PUSH1 0xE0 SHL PUSH1 0x0 MSTORE PUSH1 0x11 PUSH1 0x4 MSTORE PUSH1 0x24 PUSH1 0x0 REVERT JUMPDEST PUSH4 0x4E487B71 PUSH1 0xE0 SHL PUSH1 0x0 MSTORE PUSH1 0x12 PUSH1 0x4 MSTORE PUSH1 0x24 PUSH1 0x0 REVERT JUMPDEST PUSH4 0x4E487B71 PUSH1 0xE0 SHL PUSH1 0x0 MSTORE PUSH1 0x21 PUSH1 0x4 MSTORE PUSH1 0x24 PUSH1 0x0 REVERT JUMPDEST PUSH4 0x4E487B71 PUSH1 0xE0 SHL PUSH1 0x0 MSTORE PUSH1 0x32 PUSH1 0x4 MSTORE PUSH1 0x24 PUSH1 0x0 REVERT JUMPDEST PUSH4 0x4E487B71 PUSH1 0xE0 SHL PUSH1 0x0 MSTORE PUSH1 0x41 PUSH1 0x4 MSTORE PUSH1 0x24 PUSH1 0x0 REVERT JUMPDEST DUP1 ISZERO ISZERO DUP2 EQ PUSH2 0x3BC6 JUMPI PUSH1 0x0 DUP1 REVERT INVALID LOG2 PUSH5 0x6970667358 0x22 SLT KECCAK256 ADDRESS SWAP13 0xE4 0xA7 COINBASE 0x4E CALLCODE KECCAK256 0xA5 0x4A PUSH31 0x3D456E4060A6269E17F14FCCE8B931E154EDCED3D064736F6C634300080700 CALLER "},"methodIdentifiers":{"EditPartnerDetails(string,string,bool,address,uint256)":"7b3d5ad2","RID()":"6edf7283","TicketsList(string)":"b43f0b2b","acceptOwnership()":"79ba5097","addOrganisation(address,address,string,string,uint256,string,string,uint256,uint256)":"4c4426e8","addPartnerDetails(string,string,bool,address,uint256)":"30148970","admin()":"f851a440","amountspend(address)":"2751134a","amountwon(address)":"bef7e5a2","bregisterFee()":"4e7abe25","buyNormalLottery(uint256[],uint256,string)":"d61752fe","buySpinnerLottery(uint256,uint256)":"2f24d5dc","callresult()":"94d1283a","checkUpkeep(bytes)":"6e04ff0d","contractBalance()":"8b7afe2e","createLottery(uint256,uint256,uint256,uint256,uint256,uint256,uint256,uint256,uint256,uint8)":"4ce6873b","getLotteryNumbers(uint256)":"5f8e26a7","getOrglotteries(address)":"c41ce92e","getPartnerlotteries(address)":"dd73656d","getUserlotteries(address)":"1c9c8e99","lottery(uint256)":"a57d1560","lotteryCreateFee()":"75e9340a","lotteryDates(uint256)":"aa10304c","lotteryId()":"e580f47b","lotterySales(uint256)":"e043e7bc","lotteryTickets(uint256,address)":"26617ddb","organisationbyaddr(address)":"6b65e844","organisationbyid(uint256)":"3295b5b0","owner()":"8da5cb5b","ownerId()":"019c08f5","partnerId()":"aa37db6c","partnerRewardPerc()":"355b9098","partnerbyaddr(address)":"7782d576","partnerbyid(uint256)":"c6b7cb69","paywinner(address,uint256,uint256)":"bb0ae217","performUpkeep(bytes)":"4585e33b","randomNumber(uint256)":"f970dd02","rawFulfillRandomWords(uint256,uint256[])":"1fe543e3","redeemTokens()":"e9a9c50c","refereeEarned(address)":"3de55f95","requestIds(uint256)":"8796ba8c","setCallresult(bool)":"6bf8dc74","setTokenAddress(address)":"26a4e8d2","spinBuyer(uint256)":"c0dae685","spinNumbers(uint256)":"67eecd5a","tokenAddress()":"9d76ea58","tokenEarnPercent()":"d7e2368f","tokenearned(address)":"96169995","tokenredeemed(address)":"16a1a468","transferAdmin(address)":"75829def","transferFeePerc()":"b2dd29f3","transferOwnership(address)":"f2fde38b","transferToken(uint256,address,address)":"4a2a1fb0","updateFee(uint256,uint256,uint256,uint256)":"ea9fae80","updateMinMax(uint256,uint256)":"3bbd391e","withdrawAdmin()":"04c76af0","withdrawETH()":"e086e5ec","withdrawLink()":"8dc654a2","withdrawcommission()":"51d4568f","withdrawrefereecommission()":"91489105"}}}}}