{"Contract/Phase_3.1_SEPOLIA_ETH/SplittedContract/autobet.sol":{"Autobet":{"abi":[{"inputs":[{"internalType":"address","name":"_tokenAddress","type":"address"},{"internalType":"address","name":"_autobetUseraddress","type":"address"}],"stateMutability":"nonpayable","type":"constructor"},{"anonymous":false,"inputs":[{"indexed":false,"internalType":"address","name":"creatorAddress","type":"address"},{"indexed":false,"internalType":"uint256[]","name":"numbers","type":"uint256[]"},{"indexed":true,"internalType":"uint256","name":"lotteryId","type":"uint256"},{"indexed":false,"internalType":"uint256","name":"boughtOn","type":"uint256"},{"indexed":true,"internalType":"address","name":"useraddress","type":"address"},{"indexed":false,"internalType":"uint256","name":"paid","type":"uint256"}],"name":"LotteryBought","type":"event"},{"anonymous":false,"inputs":[{"indexed":false,"internalType":"address","name":"owner","type":"address"},{"indexed":false,"internalType":"uint256","name":"lotteryId","type":"uint256"},{"indexed":false,"internalType":"uint256","name":"entryfee","type":"uint256"},{"indexed":false,"internalType":"uint256","name":"totalPrize","type":"uint256"},{"indexed":false,"internalType":"uint256","name":"startTime","type":"uint256"},{"indexed":false,"internalType":"uint256","name":"endtime","type":"uint256"},{"indexed":false,"internalType":"uint256","name":"drawtime","type":"uint256"},{"indexed":false,"internalType":"address","name":"partner","type":"address"},{"indexed":false,"internalType":"uint256","name":"types","type":"uint256"}],"name":"LotteryCreated","type":"event"},{"anonymous":false,"inputs":[{"indexed":false,"internalType":"address","name":"useraddressdata","type":"address"},{"indexed":false,"internalType":"address","name":"creatorAddress","type":"address"},{"indexed":true,"internalType":"uint256","name":"lotteryId","type":"uint256"},{"indexed":false,"internalType":"uint256","name":"drawOn","type":"uint256"},{"indexed":false,"internalType":"string","name":"number","type":"string"}],"name":"LotteryResult","type":"event"},{"anonymous":false,"inputs":[{"indexed":false,"internalType":"address","name":"useraddressdata","type":"address"},{"indexed":true,"internalType":"uint256","name":"lotteryId","type":"uint256"},{"indexed":false,"internalType":"uint256","name":"drawOn","type":"uint256"},{"indexed":false,"internalType":"uint256","name":"number","type":"uint256"}],"name":"LotterySaleResult","type":"event"},{"anonymous":false,"inputs":[{"indexed":true,"internalType":"address","name":"from","type":"address"},{"indexed":true,"internalType":"address","name":"to","type":"address"}],"name":"OwnershipTransferRequested","type":"event"},{"anonymous":false,"inputs":[{"indexed":true,"internalType":"address","name":"from","type":"address"},{"indexed":true,"internalType":"address","name":"to","type":"address"}],"name":"OwnershipTransferred","type":"event"},{"anonymous":false,"inputs":[{"indexed":false,"internalType":"string","name":"name","type":"string"},{"indexed":false,"internalType":"string","name":"logoHash","type":"string"},{"indexed":false,"internalType":"bool","name":"status","type":"bool"},{"indexed":false,"internalType":"string","name":"websiteAdd","type":"string"},{"indexed":false,"internalType":"address","name":"partnerAddress","type":"address"},{"indexed":false,"internalType":"uint256","name":"createdOn","type":"uint256"}],"name":"PartnerCreated","type":"event"},{"anonymous":false,"inputs":[{"indexed":false,"internalType":"address","name":"ownerAddress","type":"address"},{"indexed":true,"internalType":"address","name":"partneradddress","type":"address"},{"indexed":true,"internalType":"uint256","name":"lotteryId","type":"uint256"},{"indexed":false,"internalType":"uint256","name":"amountpaid","type":"uint256"}],"name":"PartnerPaid","type":"event"},{"anonymous":false,"inputs":[{"indexed":false,"internalType":"address","name":"creatorAddress","type":"address"},{"indexed":false,"internalType":"uint256","name":"lotteryId","type":"uint256"},{"indexed":false,"internalType":"uint256","name":"rolloverDays","type":"uint256"},{"indexed":false,"internalType":"uint256","name":"rolloverperct","type":"uint256"}],"name":"RolloverHappened","type":"event"},{"anonymous":false,"inputs":[{"indexed":true,"internalType":"address","name":"useraddressdata","type":"address"},{"indexed":false,"internalType":"address","name":"creatorAddress","type":"address"},{"indexed":true,"internalType":"uint256","name":"lotteryId","type":"uint256"},{"indexed":false,"internalType":"uint256","name":"selectedNum","type":"uint256"},{"indexed":false,"internalType":"uint256","name":"winnerNum","type":"uint256"},{"indexed":false,"internalType":"uint256","name":"date","type":"uint256"}],"name":"SpinLotteryResult","type":"event"},{"anonymous":false,"inputs":[{"indexed":false,"internalType":"address","name":"creatorAddress","type":"address"},{"indexed":true,"internalType":"address","name":"useraddressdata","type":"address"},{"indexed":true,"internalType":"uint256","name":"lotteryId","type":"uint256"},{"indexed":false,"internalType":"uint256","name":"amountwon","type":"uint256"}],"name":"WinnerPaid","type":"event"},{"anonymous":false,"inputs":[{"indexed":false,"internalType":"uint256","name":"requestId","type":"uint256"},{"indexed":false,"internalType":"uint256","name":"lotteryId","type":"uint256"}],"name":"lotRequestIds","type":"event"},{"inputs":[{"internalType":"string","name":"","type":"string"}],"name":"TicketsList","outputs":[{"internalType":"address","name":"","type":"address"}],"stateMutability":"view","type":"function"},{"inputs":[],"name":"acceptOwnership","outputs":[],"stateMutability":"nonpayable","type":"function"},{"inputs":[{"internalType":"string","name":"_name","type":"string"},{"internalType":"string","name":"_logoHash","type":"string"},{"internalType":"bool","name":"_status","type":"bool"},{"internalType":"string","name":"_websiteAdd","type":"string"},{"internalType":"address","name":"_partnerAddress","type":"address"},{"internalType":"uint256","name":"_createdOn","type":"uint256"}],"name":"addEditPartnerDetails","outputs":[],"stateMutability":"nonpayable","type":"function"},{"inputs":[],"name":"admin","outputs":[{"internalType":"address","name":"","type":"address"}],"stateMutability":"view","type":"function"},{"inputs":[{"internalType":"address","name":"","type":"address"}],"name":"amountEarned","outputs":[{"internalType":"uint256","name":"","type":"uint256"}],"stateMutability":"view","type":"function"},{"inputs":[{"internalType":"address","name":"","type":"address"}],"name":"amountLocked","outputs":[{"internalType":"uint256","name":"","type":"uint256"}],"stateMutability":"view","type":"function"},{"inputs":[{"internalType":"address","name":"","type":"address"}],"name":"amountspend","outputs":[{"internalType":"uint256","name":"","type":"uint256"}],"stateMutability":"view","type":"function"},{"inputs":[{"internalType":"address","name":"","type":"address"}],"name":"amountwon","outputs":[{"internalType":"uint256","name":"","type":"uint256"}],"stateMutability":"view","type":"function"},{"inputs":[],"name":"autobetUseraddress","outputs":[{"internalType":"address","name":"","type":"address"}],"stateMutability":"view","type":"function"},{"inputs":[{"internalType":"string","name":"code","type":"string"},{"internalType":"uint256","name":"lotteryid","type":"uint256"}],"name":"buyMissilelottery","outputs":[],"stateMutability":"payable","type":"function"},{"inputs":[{"internalType":"uint256[]","name":"numbers","type":"uint256[]"},{"internalType":"uint256","name":"lotteryid","type":"uint256"}],"name":"buyNormalLottery","outputs":[],"stateMutability":"payable","type":"function"},{"inputs":[{"internalType":"uint256","name":"numbers","type":"uint256"},{"internalType":"uint256","name":"lotteryid","type":"uint256"}],"name":"buySpinnerLottery","outputs":[],"stateMutability":"payable","type":"function"},{"inputs":[],"name":"callresult","outputs":[{"internalType":"bool","name":"","type":"bool"}],"stateMutability":"view","type":"function"},{"inputs":[{"internalType":"bytes","name":"","type":"bytes"}],"name":"checkUpkeep","outputs":[{"internalType":"bool","name":"upkeepNeeded","type":"bool"},{"internalType":"bytes","name":"result","type":"bytes"}],"stateMutability":"view","type":"function"},{"inputs":[{"internalType":"address","name":"","type":"address"}],"name":"commissionEarned","outputs":[{"internalType":"uint256","name":"","type":"uint256"}],"stateMutability":"view","type":"function"},{"inputs":[{"internalType":"uint256","name":"entryfee","type":"uint256"},{"internalType":"uint256","name":"picknumbers","type":"uint256"},{"internalType":"uint256","name":"totalPrize","type":"uint256"},{"internalType":"uint256","name":"startTime","type":"uint256"},{"internalType":"uint256","name":"endtime","type":"uint256"},{"internalType":"uint256","name":"drawtime","type":"uint256"},{"internalType":"uint256","name":"capacity","type":"uint256"},{"internalType":"uint256","name":"rolloverperct","type":"uint256"},{"internalType":"uint256","name":"rolloverday","type":"uint256"},{"internalType":"uint256","name":"partnershare","type":"uint256"},{"internalType":"address","name":"partner","type":"address"},{"internalType":"enum Autobet.LotteryType","name":"lottype","type":"uint8"}],"name":"createLottery","outputs":[],"stateMutability":"payable","type":"function"},{"inputs":[],"name":"defaultRolloverday","outputs":[{"internalType":"uint256","name":"","type":"uint256"}],"stateMutability":"view","type":"function"},{"inputs":[{"internalType":"uint256","name":"lotteryid","type":"uint256"}],"name":"getLotteryNumbers","outputs":[{"internalType":"uint256[]","name":"tickets","type":"uint256[]"},{"internalType":"address[]","name":"useraddress","type":"address[]"}],"stateMutability":"view","type":"function"},{"inputs":[{"internalType":"uint256","name":"lotteryid","type":"uint256"}],"name":"getMineLotteryNumbers","outputs":[{"internalType":"uint256[]","name":"numbers","type":"uint256[]"}],"stateMutability":"view","type":"function"},{"inputs":[{"internalType":"address","name":"useraddress","type":"address"}],"name":"getOrglotteries","outputs":[{"internalType":"uint256[]","name":"lotterids","type":"uint256[]"}],"stateMutability":"view","type":"function"},{"inputs":[{"internalType":"address","name":"partneraddress","type":"address"}],"name":"getPartnerlotteries","outputs":[{"internalType":"uint256[]","name":"lotteryids","type":"uint256[]"}],"stateMutability":"view","type":"function"},{"inputs":[{"internalType":"address","name":"useraddress","type":"address"}],"name":"getUserlotteries","outputs":[{"internalType":"uint256[]","name":"lotteryids","type":"uint256[]"}],"stateMutability":"view","type":"function"},{"inputs":[],"name":"lastresult","outputs":[{"internalType":"string","name":"","type":"string"}],"stateMutability":"view","type":"function"},{"inputs":[{"internalType":"uint256","name":"","type":"uint256"}],"name":"lottery","outputs":[{"internalType":"uint256","name":"lotteryId","type":"uint256"},{"internalType":"uint256","name":"pickNumbers","type":"uint256"},{"internalType":"uint256","name":"capacity","type":"uint256"},{"internalType":"uint256","name":"entryFee","type":"uint256"},{"internalType":"uint256","name":"totalPrize","type":"uint256"},{"internalType":"uint256","name":"minPlayers","type":"uint256"},{"internalType":"uint256","name":"partnershare","type":"uint256"},{"internalType":"uint256","name":"rolloverperct","type":"uint256"},{"internalType":"uint256","name":"deployedOn","type":"uint256"},{"internalType":"address","name":"partnerAddress","type":"address"},{"internalType":"address","name":"lotteryWinner","type":"address"},{"internalType":"address","name":"ownerAddress","type":"address"},{"internalType":"enum Autobet.LotteryState","name":"status","type":"uint8"},{"internalType":"enum Autobet.LotteryType","name":"lotteryType","type":"uint8"}],"stateMutability":"view","type":"function"},{"inputs":[],"name":"lotteryCreateFee","outputs":[{"internalType":"uint256","name":"","type":"uint256"}],"stateMutability":"view","type":"function"},{"inputs":[{"internalType":"uint256","name":"","type":"uint256"}],"name":"lotteryDates","outputs":[{"internalType":"uint256","name":"lotteryId","type":"uint256"},{"internalType":"uint256","name":"startTime","type":"uint256"},{"internalType":"uint256","name":"endTime","type":"uint256"},{"internalType":"uint256","name":"drawTime","type":"uint256"},{"internalType":"uint256","name":"rolloverdays","type":"uint256"},{"internalType":"uint16","name":"level","type":"uint16"}],"stateMutability":"view","type":"function"},{"inputs":[],"name":"lotteryId","outputs":[{"internalType":"uint256","name":"","type":"uint256"}],"stateMutability":"view","type":"function"},{"inputs":[{"internalType":"uint256","name":"","type":"uint256"}],"name":"lotterySales","outputs":[{"internalType":"uint256","name":"","type":"uint256"}],"stateMutability":"view","type":"function"},{"inputs":[{"internalType":"uint256","name":"","type":"uint256"},{"internalType":"address","name":"","type":"address"}],"name":"lotteryTickets","outputs":[{"internalType":"uint256","name":"","type":"uint256"}],"stateMutability":"view","type":"function"},{"inputs":[{"internalType":"uint256","name":"","type":"uint256"},{"internalType":"uint256","name":"","type":"uint256"}],"name":"minelottery","outputs":[{"internalType":"uint256","name":"","type":"uint256"}],"stateMutability":"view","type":"function"},{"inputs":[],"name":"minimumRollover","outputs":[{"internalType":"uint256","name":"","type":"uint256"}],"stateMutability":"view","type":"function"},{"inputs":[],"name":"owner","outputs":[{"internalType":"address","name":"","type":"address"}],"stateMutability":"view","type":"function"},{"inputs":[],"name":"partnerId","outputs":[{"internalType":"uint256","name":"","type":"uint256"}],"stateMutability":"view","type":"function"},{"inputs":[{"internalType":"address","name":"","type":"address"}],"name":"partnerPayAmount","outputs":[{"internalType":"uint256","name":"","type":"uint256"}],"stateMutability":"view","type":"function"},{"inputs":[{"internalType":"address","name":"","type":"address"}],"name":"partnerbyaddr","outputs":[{"internalType":"string","name":"name","type":"string"},{"internalType":"string","name":"logoHash","type":"string"},{"internalType":"bool","name":"status","type":"bool"},{"internalType":"string","name":"websiteAdd","type":"string"},{"internalType":"address","name":"partnerAddress","type":"address"},{"internalType":"uint256","name":"createdOn","type":"uint256"},{"internalType":"uint256","name":"partnerId","type":"uint256"}],"stateMutability":"view","type":"function"},{"inputs":[{"internalType":"uint256","name":"","type":"uint256"}],"name":"partnerids","outputs":[{"internalType":"address","name":"","type":"address"}],"stateMutability":"view","type":"function"},{"inputs":[{"internalType":"uint256","name":"lotteryid","type":"uint256"},{"internalType":"uint256","name":"requestId","type":"uint256"}],"name":"paywinner","outputs":[],"stateMutability":"payable","type":"function"},{"inputs":[{"internalType":"bytes","name":"","type":"bytes"}],"name":"performUpkeep","outputs":[],"stateMutability":"nonpayable","type":"function"},{"inputs":[{"internalType":"uint256","name":"","type":"uint256"}],"name":"randomNumber","outputs":[{"internalType":"uint256","name":"","type":"uint256"}],"stateMutability":"view","type":"function"},{"inputs":[{"internalType":"uint256","name":"_requestId","type":"uint256"},{"internalType":"uint256[]","name":"_randomWords","type":"uint256[]"}],"name":"rawFulfillRandomWords","outputs":[],"stateMutability":"nonpayable","type":"function"},{"inputs":[],"name":"redeemTokens","outputs":[],"stateMutability":"nonpayable","type":"function"},{"inputs":[{"internalType":"address","name":"","type":"address"}],"name":"refereeEarned","outputs":[{"internalType":"uint256","name":"","type":"uint256"}],"stateMutability":"view","type":"function"},{"inputs":[{"internalType":"uint256","name":"","type":"uint256"}],"name":"requestIds","outputs":[{"internalType":"uint256","name":"","type":"uint256"}],"stateMutability":"view","type":"function"},{"inputs":[{"internalType":"uint256","name":"","type":"uint256"}],"name":"s_requests","outputs":[{"internalType":"uint256","name":"paid","type":"uint256"},{"internalType":"bool","name":"fulfilled","type":"bool"},{"internalType":"bool","name":"draw","type":"bool"}],"stateMutability":"view","type":"function"},{"inputs":[{"internalType":"bool","name":"_callresult","type":"bool"}],"name":"setCallresult","outputs":[],"stateMutability":"nonpayable","type":"function"},{"inputs":[{"internalType":"address","name":"_tokenAddress","type":"address"}],"name":"setTokenAddress","outputs":[],"stateMutability":"nonpayable","type":"function"},{"inputs":[{"internalType":"uint256","name":"","type":"uint256"}],"name":"spinBuyer","outputs":[{"internalType":"address","name":"","type":"address"}],"stateMutability":"view","type":"function"},{"inputs":[{"internalType":"uint256","name":"","type":"uint256"}],"name":"spinNumbers","outputs":[{"internalType":"uint256","name":"","type":"uint256"}],"stateMutability":"view","type":"function"},{"inputs":[{"internalType":"string","name":"s","type":"string"}],"name":"stringToUint","outputs":[{"internalType":"uint256","name":"","type":"uint256"}],"stateMutability":"pure","type":"function"},{"inputs":[{"internalType":"string","name":"str","type":"string"},{"internalType":"uint256","name":"startIndex","type":"uint256"},{"internalType":"uint256","name":"endIndex","type":"uint256"}],"name":"substring","outputs":[{"internalType":"string","name":"","type":"string"}],"stateMutability":"pure","type":"function"},{"inputs":[],"name":"tokenAddress","outputs":[{"internalType":"address","name":"","type":"address"}],"stateMutability":"view","type":"function"},{"inputs":[],"name":"tokenEarnPercent","outputs":[{"internalType":"uint256","name":"","type":"uint256"}],"stateMutability":"view","type":"function"},{"inputs":[{"internalType":"address","name":"","type":"address"}],"name":"tokenearned","outputs":[{"internalType":"uint256","name":"","type":"uint256"}],"stateMutability":"view","type":"function"},{"inputs":[{"internalType":"address","name":"","type":"address"}],"name":"tokenredeemed","outputs":[{"internalType":"uint256","name":"","type":"uint256"}],"stateMutability":"view","type":"function"},{"inputs":[],"name":"totalCommissionEarned","outputs":[{"internalType":"uint256","name":"","type":"uint256"}],"stateMutability":"view","type":"function"},{"inputs":[],"name":"totalDraws","outputs":[{"internalType":"uint256","name":"","type":"uint256"}],"stateMutability":"view","type":"function"},{"inputs":[{"internalType":"address","name":"","type":"address"}],"name":"totalLotteryCreationFees","outputs":[{"internalType":"uint256","name":"","type":"uint256"}],"stateMutability":"view","type":"function"},{"inputs":[],"name":"totalPartnerPay","outputs":[{"internalType":"uint256","name":"","type":"uint256"}],"stateMutability":"view","type":"function"},{"inputs":[{"internalType":"uint256","name":"","type":"uint256"}],"name":"totalProfits","outputs":[{"internalType":"uint256","name":"","type":"uint256"}],"stateMutability":"view","type":"function"},{"inputs":[],"name":"totalSale","outputs":[{"internalType":"uint256","name":"","type":"uint256"}],"stateMutability":"view","type":"function"},{"inputs":[{"internalType":"address","name":"","type":"address"}],"name":"totalWinnerAmount","outputs":[{"internalType":"uint256","name":"","type":"uint256"}],"stateMutability":"view","type":"function"},{"inputs":[],"name":"totalWinners","outputs":[{"internalType":"uint256","name":"","type":"uint256"}],"stateMutability":"view","type":"function"},{"inputs":[{"internalType":"address","name":"newAdmin","type":"address"}],"name":"transferAdmin","outputs":[],"stateMutability":"nonpayable","type":"function"},{"inputs":[],"name":"transferFeePerc","outputs":[{"internalType":"uint256","name":"","type":"uint256"}],"stateMutability":"view","type":"function"},{"inputs":[{"internalType":"address","name":"to","type":"address"}],"name":"transferOwnership","outputs":[],"stateMutability":"nonpayable","type":"function"},{"inputs":[{"internalType":"uint256","name":"amount","type":"uint256"},{"internalType":"address","name":"to","type":"address"},{"internalType":"address","name":"tokenAdd","type":"address"}],"name":"transferToken","outputs":[],"stateMutability":"nonpayable","type":"function"},{"inputs":[{"internalType":"uint256","name":"_lotteryCreateFee","type":"uint256"},{"internalType":"uint256","name":"_transferFeePerc","type":"uint256"},{"internalType":"uint256","name":"_tokenEarnPercent","type":"uint256"},{"internalType":"uint256","name":"_minroll","type":"uint256"},{"internalType":"uint256","name":"_rolloverday","type":"uint256"}],"name":"updateFee","outputs":[],"stateMutability":"nonpayable","type":"function"},{"inputs":[{"internalType":"address","name":"","type":"address"}],"name":"winnerTax","outputs":[{"internalType":"uint256","name":"","type":"uint256"}],"stateMutability":"view","type":"function"},{"inputs":[],"name":"withdrawAdmin","outputs":[],"stateMutability":"payable","type":"function"},{"inputs":[],"name":"withdrawETH","outputs":[],"stateMutability":"payable","type":"function"},{"inputs":[],"name":"withdrawLink","outputs":[],"stateMutability":"nonpayable","type":"function"},{"inputs":[],"name":"withdrawcommission","outputs":[],"stateMutability":"payable","type":"function"},{"inputs":[],"name":"withdrawrefereecommission","outputs":[],"stateMutability":"payable","type":"function"}],"evm":{"bytecode":{"linkReferences":{},"object":"60c0604052600160025560006003819055600a6004819055600590815560646006556007819055600855600955601180546001600160501b03191666010003000aae601790553480156200005257600080fd5b5060405162005fbd38038062005fbd83398101604081905262000075916200026e565b73779877a7b0d9e8603169ddbd7836e478b462478960805273ab18414cd93297b0d12ac29e63ca20f515b3db4660a0523380600081620000fc5760405162461bcd60e51b815260206004820152601860248201527f43616e6e6f7420736574206f776e657220746f207a65726f000000000000000060448201526064015b60405180910390fd5b600080546001600160a01b0319166001600160a01b03848116919091179091558116156200012f576200012f81620001a6565b5050600d8054610100600160a81b0319166101006001600160a01b039485160217905550600b8054336001600160a01b03199182168117909255600a8054909116939092169290921790556000908152601a60209081526040808320839055601c8252808320839055601d909152812055620002a6565b336001600160a01b03821603620002005760405162461bcd60e51b815260206004820152601760248201527f43616e6e6f74207472616e7366657220746f2073656c660000000000000000006044820152606401620000f3565b600180546001600160a01b0319166001600160a01b0383811691821790925560008054604051929316917fed8889f560326eb138920d842192f0eb3dd22b4f139c87a2c57538e05bae12789190a350565b80516001600160a01b03811681146200026957600080fd5b919050565b600080604083850312156200028257600080fd5b6200028d8362000251565b91506200029d6020840162000251565b90509250929050565b60805160a051615cc7620002f6600039600081816111fd01528181613dde0152818161481801526149210152600081816116cc0152818161247301528181612b3d01526147ee0152615cc76000f3fe6080604052600436106104265760003560e01c80638dc654a211610229578063c0dae6851161012e578063e79d8a07116100b6578063f2fde38b1161007a578063f2fde38b14610e41578063f489bd3d14610e61578063f6c788b214610e97578063f851a44014610ec4578063f970dd0214610ee457600080fd5b8063e79d8a0714610da7578063e87122d614610dd4578063e9a9c50c14610dea578063ea123d1a14610dff578063ea4ce23914610e2b57600080fd5b8063dd73656d116100fd578063dd73656d14610d29578063e043e7bc14610d49578063e086e5ec14610d76578063e3a7f15514610d7e578063e580f47b14610d9157600080fd5b8063c0dae68514610ca8578063c41ce92e14610cde578063c73cdd2314610cfe578063d7e2368f14610d1357600080fd5b8063aa37db6c116101b1578063b85dfeaa11610180578063b85dfeaa14610c10578063bc112e9314610c30578063bcc941b614610c50578063bd3491f214610c66578063bef7e5a214610c7b57600080fd5b8063aa37db6c14610b83578063ada9dcb914610b99578063b2dd29f314610bb9578063b43f0b2b14610bcf57600080fd5b806396169995116101f8578063961699951461099c5780639d76ea58146109c9578063a168fa89146109e9578063a57d156014610a46578063aa10304c14610afe57600080fd5b80638dc654a21461093f5780639148910514610954578063944f59de1461095c57806394d1283a1461097257600080fd5b806348c096a71161032f57806375829def116102b75780637c9315f3116102865780637c9315f31461089457806381efc756146108b45780638796ba8c146108e15780638ac9a6011461090e5780638da5cb5b1461092157600080fd5b806375829def1461081657806375e9340a146108365780637782d5761461084c57806379ba50971461087f57600080fd5b806351d4568f116102fe57806351d4568f146107575780635f8e26a71461075f57806367eecd5a1461078d5780636bf8dc74146107ba5780636e04ff0d146107e857600080fd5b806348c096a7146106e15780634a2a1fb01461070e5780634b3b408a1461072e5780634e2049201461074157600080fd5b80631fe543e3116103b25780632751134a116103815780632751134a146106415780632f24d5dc1461066e5780633de55f95146106815780634585e33b146106ae57806347d5fcc6146106ce57600080fd5b80631fe543e31461059c5780632071be7b146105bc57806326617ddb146105e957806326a4e8d21461062157600080fd5b806316a1a468116103f957806316a1a468146104c85780631bd95155146104f55780631c9c8e99146105155780631dcd9b55146105425780631ed1936f1461056f57600080fd5b806304c76af01461042b578063076e316f1461043557806309deaa2414610477578063137ef049146104b2575b600080fd5b610433610f11565b005b34801561044157600080fd5b50600d5461045a9061010090046001600160a01b031681565b6040516001600160a01b0390911681526020015b60405180910390f35b34801561048357600080fd5b506104a4610492366004614f96565b601a6020526000908152604090205481565b60405190815260200161046e565b3480156104be57600080fd5b506104a460105481565b3480156104d457600080fd5b506104a46104e3366004614f96565b60226020526000908152604090205481565b34801561050157600080fd5b506104a4610510366004615068565b610fd4565b34801561052157600080fd5b50610535610530366004614f96565b61104c565b60405161046e91906150d8565b34801561054e57600080fd5b5061056261055d3660046150eb565b611130565b60405161046e9190615188565b34801561057b57600080fd5b506104a461058a366004614f96565b601d6020526000908152604090205481565b3480156105a857600080fd5b506104336105b736600461521a565b6111f2565b3480156105c857600080fd5b506104a46105d7366004615260565b601f6020526000908152604090205481565b3480156105f557600080fd5b506104a4610604366004615279565b602d60209081526000928352604080842090915290825290205481565b34801561062d57600080fd5b5061043361063c366004614f96565b611278565b34801561064d57600080fd5b506104a461065c366004614f96565b60176020526000908152604090205481565b61043361067c3660046152a9565b6112c4565b34801561068d57600080fd5b506104a461069c366004614f96565b60186020526000908152604090205481565b3480156106ba57600080fd5b506104336106c93660046152cb565b6113f8565b6104336106dc36600461533c565b611464565b3480156106ed57600080fd5b506104a46106fc366004614f96565b601e6020526000908152604090205481565b34801561071a57600080fd5b506104336107293660046153dc565b611c6f565b61043361073c3660046152a9565b611db1565b34801561074d57600080fd5b506104a460085481565b61043361212a565b34801561076b57600080fd5b5061077f61077a366004615260565b6121f9565b60405161046e92919061541e565b34801561079957600080fd5b506104a46107a8366004615260565b60266020526000908152604090205481565b3480156107c657600080fd5b506104336107d536600461548c565b600d805460ff1916911515919091179055565b3480156107f457600080fd5b506108086108033660046152cb565b612453565b60405161046e9291906154a9565b34801561082257600080fd5b50610433610831366004614f96565b61257d565b34801561084257600080fd5b506104a460045481565b34801561085857600080fd5b5061086c610867366004614f96565b6125dc565b60405161046e97969594939291906154c4565b34801561088b57600080fd5b506104336127c3565b3480156108a057600080fd5b506104336108af36600461552e565b61286d565b3480156108c057600080fd5b506104a46108cf366004614f96565b602f6020526000908152604090205481565b3480156108ed57600080fd5b506104a46108fc366004615260565b60246020526000908152604090205481565b61043361091c366004615569565b6128ae565b34801561092d57600080fd5b506000546001600160a01b031661045a565b34801561094b57600080fd5b50610433612afe565b610433612c6c565b34801561096857600080fd5b506104a4600f5481565b34801561097e57600080fd5b50600d5461098c9060ff1681565b604051901515815260200161046e565b3480156109a857600080fd5b506104a46109b7366004614f96565b60216020526000908152604090205481565b3480156109d557600080fd5b50600a5461045a906001600160a01b031681565b3480156109f557600080fd5b50610a29610a04366004615260565b6012602052600090815260409020805460019091015460ff8082169161010090041683565b60408051938452911515602084015215159082015260600161046e565b348015610a5257600080fd5b50610ae4610a61366004615260565b601560205260009081526040902080546001820154600283015460038401546004850154600586015460068701546007880154600889015460098a0154600a8b0154600b8c0154600d909c01549a9b999a98999798969795969495939492936001600160a01b03928316939183169281169160ff600160a01b909204821691168e565b60405161046e9e9d9c9b9a999897969594939291906155e7565b348015610b0a57600080fd5b50610b52610b19366004615260565b601660205260009081526040902080546001820154600283015460038401546004850154600590950154939492939192909161ffff1686565b604080519687526020870195909552938501929092526060840152608083015261ffff1660a082015260c00161046e565b348015610b8f57600080fd5b506104a460035481565b348015610ba557600080fd5b50610535610bb4366004615260565b612cbc565b348015610bc557600080fd5b506104a460055481565b348015610bdb57600080fd5b5061045a610bea366004615068565b8051602081830181018051602e825292820191909301209152546001600160a01b031681565b348015610c1c57600080fd5b50610433610c2b366004615679565b612d91565b348015610c3c57600080fd5b506104a4610c4b3660046152a9565b613010565b348015610c5c57600080fd5b506104a4600e5481565b348015610c7257600080fd5b50610562613041565b348015610c8757600080fd5b506104a4610c96366004614f96565b60196020526000908152604090205481565b348015610cb457600080fd5b5061045a610cc3366004615260565b6027602052600090815260409020546001600160a01b031681565b348015610cea57600080fd5b50610535610cf9366004614f96565b6130cf565b348015610d0a57600080fd5b506104a46131ac565b348015610d1f57600080fd5b506104a460075481565b348015610d3557600080fd5b50610535610d44366004614f96565b61324b565b348015610d5557600080fd5b506104a4610d64366004615260565b60236020526000908152604090205481565b610433613328565b610433610d8c366004615732565b613381565b348015610d9d57600080fd5b506104a460025481565b348015610db357600080fd5b506104a4610dc2366004614f96565b601c6020526000908152604090205481565b348015610de057600080fd5b506104a460065481565b348015610df657600080fd5b506104336135d3565b348015610e0b57600080fd5b506104a4610e1a366004614f96565b602080526000908152604090205481565b348015610e3757600080fd5b506104a460095481565b348015610e4d57600080fd5b50610433610e5c366004614f96565b613724565b348015610e6d57600080fd5b5061045a610e7c366004615260565b6014602052600090815260409020546001600160a01b031681565b348015610ea357600080fd5b506104a4610eb2366004614f96565b601b6020526000908152604090205481565b348015610ed057600080fd5b50600b5461045a906001600160a01b031681565b348015610ef057600080fd5b506104a4610eff366004615260565b60256020526000908152604090205481565b600b546001600160a01b03163314610f445760405162461bcd60e51b8152600401610f3b90615767565b60405180910390fd5b600b546001600160a01b03166000908152601c60205260408082205490519091339183156108fc0291849190818181858888f19350505050158015610f8d573d6000803e3d6000fd5b5050600b80546001600160a01b039081166000908152601c60209081526040808320839055845484168352601e825280832083905593549092168152601d90915290812055565b60008181805b8251811015611044576000838281518110610ff757610ff761578c565b016020015160f81c905060308110801590611013575060398111155b1561103b576110236030826157b8565b61102e84600a6157cb565b61103891906157e2565b92505b50600101610fda565b509392505050565b6001600160a01b0381166000908152602a6020526040812054606091906001600160401b0381111561108057611080614fb3565b6040519080825280602002602001820160405280156110a9578160200160208202803683370190505b50905060005b6001600160a01b0384166000908152602a6020526040902054811015611129576001600160a01b0384166000908152602a602052604090208054829081106110f9576110f961578c565b90600052602060002001548282815181106111165761111661578c565b60209081029190910101526001016110af565b5092915050565b606083600061113f85856157b8565b6001600160401b0381111561115657611156614fb3565b6040519080825280601f01601f191660200182016040528015611180576020820181803683370190505b509050845b848110156111e85782818151811061119f5761119f61578c565b01602001516001600160f81b031916826111b988846157b8565b815181106111c9576111c961578c565b60200101906001600160f81b031916908160001a905350600101611185565b5095945050505050565b336001600160a01b037f0000000000000000000000000000000000000000000000000000000000000000161461126a5760405162461bcd60e51b815260206004820152601f60248201527f6f6e6c792056524620563220777261707065722063616e2066756c66696c6c006044820152606401610f3b565b6112748282613735565b5050565b600b546001600160a01b031633146112a25760405162461bcd60e51b8152600401610f3b90615767565b600a80546001600160a01b0319166001600160a01b0392909216919091179055565b6000818152601560205260409020600381015434146112f55760405162461bcd60e51b8152600401610f3b906157f5565b6000600b820154600160a01b900460ff166006811115611317576113176155ad565b148061134257506005600b820154600160a01b900460ff166006811115611340576113406155ad565b145b6113855760405162461bcd60e51b81526020600482015260146024820152734f7468657220706c6179657220706c6179696e6760601b6044820152606401610f3b565b6040805160018082528183019092526000916020808301908036833701905050905083816000815181106113bb576113bb61578c565b6020908102919091010152600b8201805460ff60a01b1916600160a21b1790556113e783333484613948565b6113f2838533613b8c565b50505050565b600d5460ff16156114405760405162461bcd60e51b815260206004820152601260248201527172657175697265642063616c6c207472756560701b6044820152606401610f3b565b600d805460ff191660011790556000611457613c1d565b90506113f2816001613d6d565b600d5460405163efd4606560e01b81523360048201526101009091046001600160a01b03169063efd4606590602401602060405180830381865afa1580156114b0573d6000803e3d6000fd5b505050506040513d601f19601f820116820180604052508101906114d49190615820565b6115205760405162461bcd60e51b815260206004820152601860248201527f4e6f74206120726567697374657265642063726561746f7200000000000000006044820152606401610f3b565b600d54604051631f2182c960e31b81523360048201528b9161010090046001600160a01b03169063f90c164890602401602060405180830381865afa15801561156d573d6000803e3d6000fd5b505050506040513d601f19601f82011682018060405250810190611591919061583d565b11156115ea5760405162461bcd60e51b815260206004820152602260248201527f4e6f7420616c6c6f776564206d696e696d756d2077696e6e696e6720616d6f756044820152611b9d60f21b6064820152608401610f3b565b600d5460405163b0a9279160e01b81523360048201528b9161010090046001600160a01b03169063b0a9279190602401602060405180830381865afa158015611637573d6000803e3d6000fd5b505050506040513d601f19601f8201168201806040525081019061165b919061583d565b10156116b45760405162461bcd60e51b815260206004820152602260248201527f4e6f7420616c6c6f776564206d6178696d756d2077696e6e696e6720616d6f756044820152611b9d60f21b6064820152608401610f3b565b6040516370a0823160e01b81523060048201526001907f00000000000000000000000000000000000000000000000000000000000000006001600160a01b0316906370a0823190602401602060405180830381865afa15801561171b573d6000803e3d6000fd5b505050506040513d601f19601f8201168201806040525081019061173f919061583d565b101561175d5760405162461bcd60e51b8152600401610f3b90615856565b60008a1161179e5760405162461bcd60e51b815260206004820152600e60248201526d4c6f7720746f74616c507269636560901b6044820152606401610f3b565b6117c260646004548c6117b191906157cb565b6117bb91906158b7565b8b90613f1a565b34146118065760405162461bcd60e51b8152602060048201526013602482015272416d6f756e74206e6f74206d61746368696e6760681b6044820152606401610f3b565b858b11156118495760405162461bcd60e51b815260206004820152601060248201526f6361706163697479206973206c65737360801b6044820152606401610f3b565b4289101561188d5760405162461bcd60e51b815260206004820152601160248201527014dd185c9d081d1a5b59481c185cdcd959607a1b6044820152606401610f3b565b8789106118dc5760405162461bcd60e51b815260206004820152601d60248201527f456e642074696d65206c657373207468616e2073746172742074696d650000006044820152606401610f3b565b60008160038111156118f0576118f06155ad565b148061190d5750600181600381111561190b5761190b6155ad565b145b1561195a578a60011461195a5760405162461bcd60e51b815260206004820152601560248201527413db9b1e480c481b9d5b58995c88185b1b1bddd959605a1b6044820152606401610f3b565b600381600381111561196e5761196e6155ad565b036119c457600a8b11156119c45760405162461bcd60e51b815260206004820152601c60248201527f204f6e6c7920313020636f6d62696e6174696f6e20616c6c6f776564000000006044820152606401610f3b565b600280546000908152601660205260409020600501805461ffff19166001179055546119fb908d8d8d8d8d8d8d8d8c8e8d33613f2d565b6002546000908152601560205260409020600d01805482919060ff19166001836003811115611a2c57611a2c6155ad565b02179055506064611a488d611a428d600a61422e565b9061423a565b611a5291906158b7565b611a5c8b8e61423a565b611a6691906157e2565b60025460009081526015602052604080822060050192909255600d54915163244903d160e21b8152336004820152909161010090046001600160a01b0316906391240f4490602401602060405180830381865afa158015611acb573d6000803e3d6000fd5b505050506040513d601f19601f82011682018060405250810190611aef91906158cb565b90506001600160a01b03811615611b4857611b0b8b606461423a565b6001600160a01b038216600090815260186020526040902054611b2e91906157e2565b6001600160a01b0382166000908152601860205260409020555b6003826003811115611b5c57611b5c6155ad565b14611b85576002546000908152601560205260409020600b01805460ff60a01b19169055611bb8565b600280546000908152601560205260408120600b01805460ff60a01b1916600360a11b1790559054611bb691613d6d565b505b7f7b34d9bed3342d423e2da4cd837bffe9ed9c7056e85ed014db0e52a47c94a113336002548f8e8e8e8e8a8a6003811115611bf557611bf56155ad565b604080516001600160a01b039a8b16815260208101999099528801969096526060870194909452608086019290925260a085015260c084015290921660e08201526101008101919091526101200160405180910390a160028054906000611c5b836158e8565b919050555050505050505050505050505050565b600b546001600160a01b03163314611c995760405162461bcd60e51b8152600401610f3b90615767565b6040516370a0823160e01b81523060048201526001600160a01b038216906370a0823190602401602060405180830381865afa158015611cdd573d6000803e3d6000fd5b505050506040513d601f19601f82011682018060405250810190611d01919061583d565b831115611d3e5760405162461bcd60e51b815260206004820152600b60248201526a6c6f772062616c616e636560a81b6044820152606401610f3b565b60405163a9059cbb60e01b81526001600160a01b0383811660048301526024820185905282169063a9059cbb906044016020604051808303816000875af1158015611d8d573d6000803e3d6000fd5b505050506040513d601f19601f820116820180604052508101906113f29190615820565b6000818152602460205260409020548214611e045760405162461bcd60e51b8152602060048201526013602482015272098dee8e8cae4f24092c840dad2e6dac2e8c6d606b1b6044820152606401610f3b565b6000828152601560205260409020600a8101546001600160a01b0316801561211a576004820154600554600090611e4390606490611a4290859061422e565b90506000611e518383614246565b6040519091506001600160a01b0385169082156108fc029083906000818181858888f19350505050158015611e8a573d6000803e3d6000fd5b50600b546001600160a01b0316600090815260208052604081208054839290611eb49084906157e2565b9091555050600b850154604080516001600160a01b0392831680825260208201859052928a92908816917f3eeb0636c95176c1ec01b2057bd7274d8ff9cae437a895fa7c9b6d35290af148910160405180910390a3600b546001600160a01b03166000908152601c602052604081208054859290611f339084906157e2565b9091555050600b546001600160a01b03166000908152601e602052604081208054859290611f629084906157e2565b9091555050600e8054906000611f77836158e8565b909155505060068601546000898152601f60205260408120549091611fa391606491611a42919061422e565b905080600f6000828254611fb791906157e2565b909155505060098701546001600160a01b03166000908152602f602052604081208054839290611fe89084906157e2565b909155505060098701546040516001600160a01b039091169082156108fc029083906000818181858888f19350505050158015612029573d6000803e3d6000fd5b506000898152601f60205260409020546120449082906157b8565b600b8801546001600160a01b03166000908152601b6020526040812080549091906120709084906157b8565b90915550506000898152601f602052604090205461208f9082906157b8565b600b8801546001600160a01b03166000908152601a6020526040812080549091906120bb9084906157e2565b90915550506009870154600b880154604080516001600160a01b039283168152602081018590528c9392909216917f20e787dfda3ac1418c7882f60c18b94d602d3dd46995ea36ede0ae9938ae0975910160405180910390a350505050505b5050600d805460ff191690555050565b336000908152601a602052604081205460055490919061215290606490611a4290859061422e565b905060006121608383614246565b604051909150339082156108fc029083906000818181858888f19350505050158015612190573d6000803e3d6000fd5b50600b546001600160a01b03166000908152601c6020526040812080548492906121bb9084906157e2565b9091555050336000908152601c6020526040812080548392906121df9084906157e2565b9091555050336000908152601a6020526040812055505050565b6000818152601560205260408120600c8101546060928392916001600160401b0381111561222957612229614fb3565b604051908082528060200260200182016040528015612252578160200160208202803683370190505b506001830154600c84015491925060009161226d91906157cb565b6001600160401b0381111561228457612284614fb3565b6040519080825280602002602001820160405280156122ad578160200160208202803683370190505b50905060008060005b600c8601548110156124445785600c0181815481106122d7576122d761578c565b60009182526020909120600490910201546001600160a01b031685846122fc816158e8565b95508151811061230e5761230e61578c565b6001600160a01b03909216602092830291909101909101526003600d87015460ff166003811115612341576123416155ad565b146123ce5760005b86600101548110156123c85786600c01828154811061236a5761236a61578c565b9060005260206000209060040201600301818154811061238c5761238c61578c565b90600052602060002001548584806123a3906158e8565b9550815181106123b5576123b561578c565b6020908102919091010152600101612349565b5061243c565b85600c0181815481106123e3576123e361578c565b90600052602060002090600402016003016000815481106124065761240661578c565b906000526020600020015484838061241d906158e8565b94508151811061242f5761242f61578c565b6020026020010181815250505b6001016122b6565b50919792965091945050505050565b6040516370a0823160e01b815230600482015260009060609082906001907f00000000000000000000000000000000000000000000000000000000000000006001600160a01b0316906370a0823190602401602060405180830381865afa1580156124c2573d6000803e3d6000fd5b505050506040513d601f19601f820116820180604052508101906124e6919061583d565b10156125045760405162461bcd60e51b8152600401610f3b90615856565b600d5460ff16156125505760405162461bcd60e51b8152602060048201526016602482015275416e6f7468657220526573756c742072756e6e696e6760501b6044820152606401610f3b565b612558613c1d565b9050801561256557600192505b50506040805160208101909152600081529250929050565b600b546001600160a01b031633146125a75760405162461bcd60e51b8152600401610f3b90615767565b6001600160a01b0381166125ba57600080fd5b600b80546001600160a01b0319166001600160a01b0392909216919091179055565b6013602052600090815260409020805481906125f790615901565b80601f016020809104026020016040519081016040528092919081815260200182805461262390615901565b80156126705780601f1061264557610100808354040283529160200191612670565b820191906000526020600020905b81548152906001019060200180831161265357829003601f168201915b50505050509080600101805461268590615901565b80601f01602080910402602001604051908101604052809291908181526020018280546126b190615901565b80156126fe5780601f106126d3576101008083540402835291602001916126fe565b820191906000526020600020905b8154815290600101906020018083116126e157829003601f168201915b5050506002840154600385018054949560ff90921694919350915061272290615901565b80601f016020809104026020016040519081016040528092919081815260200182805461274e90615901565b801561279b5780601f106127705761010080835404028352916020019161279b565b820191906000526020600020905b81548152906001019060200180831161277e57829003601f168201915b505050506004830154600584015460069094015492936001600160a01b039091169290915087565b6001546001600160a01b031633146128165760405162461bcd60e51b815260206004820152601660248201527526bab9ba10313290383937b837b9b2b21037bbb732b960511b6044820152606401610f3b565b60008054336001600160a01b0319808316821784556001805490911690556040516001600160a01b0390921692909183917f8be0079c531659141344cd1fd0a4f28419497f9722a3daafe3b4186f6b6457e091a350565b600b546001600160a01b031633146128975760405162461bcd60e51b8152600401610f3b90615767565b600494909455600592909255600755600655600855565b60008181526015602090815260408083206016909252909120600382015434146128ea5760405162461bcd60e51b8152600401610f3b906157f5565b6040805160018082528183019092526000916020808301908036833701905050905061291585610fd4565b816000815181106129285761292861578c565b60200260200101818152505061294084333484613948565b600084815260296020526040902080546129e291879161295f90615901565b80601f016020809104026020016040519081016040528092919081815260200182805461298b90615901565b80156129d85780601f106129ad576101008083540402835291602001916129d8565b820191906000526020600020905b8154815290600101906020018083116129bb57829003601f168201915b5050505050614252565b15612ae2577fafff1d58f304accd1464197b65b86cb5b77485ec7694a50a4cd755ee01f8c1cf60005260246020527f9ad8c449d60cfe4294be548d5ad541543a5d08782ee7f3abab9511dc23db4449849055600b830180546002919060ff60a01b1916600160a01b830217905550600a830180546001600160a01b03191633179055612a8e847fafff1d58f304accd1464197b65b86cb5b77485ec7694a50a4cd755ee01f8c1cf611db1565b600b83015460405185917fb7e9a48cbb7529b6117347e16cba725731bb1a27fdbd3b3fd97e98a8c2409b5091612ad59133916001600160a01b039091169042908b9061593b565b60405180910390a2612af7565b8160030154421115612af757612af7846142ab565b5050505050565b600b546001600160a01b03163314612b285760405162461bcd60e51b8152600401610f3b90615767565b6040516370a0823160e01b81523060048201527f00000000000000000000000000000000000000000000000000000000000000006001600160a01b03169063a9059cbb90339083906370a0823190602401602060405180830381865afa158015612b96573d6000803e3d6000fd5b505050506040513d601f19601f82011682018060405250810190612bba919061583d565b6040516001600160e01b031960e085901b1681526001600160a01b03909216600483015260248201526044016020604051808303816000875af1158015612c05573d6000803e3d6000fd5b505050506040513d601f19601f82011682018060405250810190612c299190615820565b612c6a5760405162461bcd60e51b81526020600482015260126024820152712ab730b13632903a37903a3930b739b332b960711b6044820152606401610f3b565b565b3360008181526018602052604080822054905190929183156108fc02918491818181858888f19350505050158015612ca8573d6000803e3d6000fd5b505033600090815260186020526040812055565b600081815260286020526040812054606091906001600160401b03811115612ce657612ce6614fb3565b604051908082528060200260200182016040528015612d0f578160200160208202803683370190505b5090506000805b600085815260286020526040902054811015612d88576000858152602860205260409020805482908110612d4c57612d4c61578c565b9060005260206000200154838380612d63906158e8565b945081518110612d7557612d7561578c565b6020908102919091010152600101612d16565b50909392505050565b6001600160a01b038216612da757612da7615978565b6001600160a01b0382811660009081526013602052604090206004015416612ede5760038054906000612dd9836158e8565b909155505060038054600090815260146020908152604080832080546001600160a01b0319166001600160a01b038816908117909155815160e0810183528b81528084018b905289151581840152606081018990526080810182905260a08101879052945460c086015283526013909152902081518190612e5a90826159db565b5060208201516001820190612e6f90826159db565b50604082015160028201805460ff191691151591909117905560608201516003820190612e9c90826159db565b5060808201516004820180546001600160a01b0319166001600160a01b0390921691909117905560a0820151600582015560c090910151600690910155612fc7565b6040805160e081018252878152602080820188905286151582840152606082018690526001600160a01b0385166080830181905260a0830185905260008181526013808452948120600681015460c086015291905292905280519091908190612f4790826159db565b5060208201516001820190612f5c90826159db565b50604082015160028201805460ff191691151591909117905560608201516003820190612f8990826159db565b5060808201516004820180546001600160a01b0319166001600160a01b0390921691909117905560a0820151600582015560c0909101516006909101555b7fc3a179c9aa91cfdc423543e35927dc2310ba28791deeda87a770191d653fbdd186868686864260405161300096959493929190615a9a565b60405180910390a1505050505050565b6028602052816000526040600020818154811061302c57600080fd5b90600052602060002001600091509150505481565b600c805461304e90615901565b80601f016020809104026020016040519081016040528092919081815260200182805461307a90615901565b80156130c75780601f1061309c576101008083540402835291602001916130c7565b820191906000526020600020905b8154815290600101906020018083116130aa57829003601f168201915b505050505081565b6001600160a01b0381166000908152602c6020526040812054606091906001600160401b0381111561310357613103614fb3565b60405190808252806020026020018201604052801561312c578160200160208202803683370190505b50905060005b6001600160a01b0384166000908152602c6020526040902054811015611129576001600160a01b0384166000908152602c6020526040902080548290811061317c5761317c61578c565b90600052602060002001548282815181106131995761319961578c565b6020908102919091010152600101613132565b600d546040516291a5bd60e11b815233600482015260009182916101009091046001600160a01b0316906301234b7a90602401602060405180830381865afa1580156131fc573d6000803e3d6000fd5b505050506040513d601f19601f82011682018060405250810190613220919061583d565b600b546001600160a01b03166000908152601c602052604090205461324591906157e2565b92915050565b6001600160a01b0381166000908152602b6020526040812054606091906001600160401b0381111561327f5761327f614fb3565b6040519080825280602002602001820160405280156132a8578160200160208202803683370190505b50905060005b6001600160a01b0384166000908152602b6020526040902054811015611129576001600160a01b0384166000908152602b602052604090208054829081106132f8576132f861578c565b90600052602060002001548282815181106133155761331561578c565b60209081029190910101526001016132ae565b600b546001600160a01b031633146133525760405162461bcd60e51b8152600401610f3b90615767565b60405133904780156108fc02916000818181858888f1935050505015801561337e573d6000803e3d6000fd5b50565b60008181526015602090815260408083206016909252909120600382015434146133bd5760405162461bcd60e51b8152600401610f3b906157f5565b81600101548451146134075760405162461bcd60e51b81526020600482015260136024820152721cdb1bdd1cc81cda5e99481b9bdd081b59595d606a1b6044820152606401610f3b565b604080516020810190915260008082525b855181101561346f576134438682815181106134365761343661578c565b6020026020010151614408565b82604051602001613455929190615afa565b60408051601f198184030181529190529150600101613418565b508061347a85614408565b60405160200161348b929190615b36565b604051602081830303815290604052905060006001600160a01b0316602e826040516134b79190615b65565b908152604051908190036020019020546001600160a01b03161461350c5760405162461bcd60e51b815260206004820152600c60248201526b105b1c9958591e481cdbdb1960a21b6044820152606401610f3b565b33602e8260405161351d9190615b65565b90815260405190819003602001902080546001600160a01b03929092166001600160a01b0319909216919091179055600382015442111561356157613561846142ab565b61356d84333488613948565b6001600d84015460ff166003811115613588576135886155ad565b03612af75760008481526028602052604081208651909187916135ad576135ad61578c565b602090810291909101810151825460018101845560009384529190922001555050505050565b600a546040516370a0823160e01b81523060048201526001600160a01b03909116906370a0823190602401602060405180830381865afa15801561361b573d6000803e3d6000fd5b505050506040513d601f19601f8201168201806040525081019061363f919061583d565b33600090815260216020526040902054111561368b5760405162461bcd60e51b815260206004820152600b60248201526a6c6f772062616c616e636560a81b6044820152606401610f3b565b600a54336000818152602160205260409081902054905163a9059cbb60e01b8152600481019290925260248201526001600160a01b039091169063a9059cbb906044016020604051808303816000875af11580156136ed573d6000803e3d6000fd5b505050506040513d601f19601f820116820180604052508101906137119190615820565b5033600090815260216020526040812055565b61372c614510565b61337e81614563565b6000828152601260205260409020546137845760405162461bcd60e51b81526020600482015260116024820152701c995c5d595cdd081b9bdd08199bdd5b99607a1b6044820152606401610f3b565b60008281526012602090815260409091206001818101805460ff1916909117905582516137b992600290920191840190614f2a565b50806000815181106137cd576137cd61578c565b6020908102919091018101516000848152602583526040808220929092556012909252902060010154610100900460ff16156138295760008281526025602090815260408083205460249092529091205461127491908461460c565b600061384e826000815181106138415761384161578c565b6020026020010151614796565b600084815260246020908152604080832054835260158252808320600101549051939450919261ffff85169161388a9142913391889101615b81565b6040516020818303038152906040528051906020012060001c6138ad9190615bb6565b6138b791906157b8565b905060006138ff6138d4856000815181106134365761343661578c565b60008781526024602090815260408083205483526015909152902060010154849061055d90826157e2565b60008681526024602090815260408083208054845260158352818420600b01805460ff60a01b191690555483526029909152902090915061394082826159db565b505050505050565b6000848152601560209081526040808320602d83528184206001600160a01b03881685529092528220805491926001926139839084906157e2565b9091555050604080516080810182526001600160a01b03868116825242602080840191825293830189815260608401878152600c8701805460018082018355600092835291889020875160049092020180546001600160a01b0319169190961617855592519284019290925551600283015551805192939192613a0c9260038501920190614f2a565b5050506001600160a01b03841660009081526017602052604081208054859290613a379084906157e2565b9091555050600954613a4a9060016157e2565b6009556000858152601f602052604081208054859290613a6b9084906157e2565b9091555050600b8101546001600160a01b03166000908152601b602052604081208054859290613a9c9084906157e2565b90915550506001600160a01b0384166000908152602a6020908152604080832080546001810182559084528284200188905587835260239091528120805491613ae4836158e8565b9190505550613b0060646007548360030154611a4291906157cb565b6001600160a01b03851660009081526021602052604081208054909190613b289084906157e2565b9091555050600b81015460038201546040516001600160a01b039283169287169188917e847ee71f38f0cd3d8b3c9bf61603d5865cecbbe35f9b88efad5c3419e1555991613b7c9186918991429190615bca565b60405180910390a3505050505050565b6000613b99846001613d6d565b6000818152602660208181526040808420888155602783529381902080546001600160a01b0319166001600160a01b038916908117909155928252925483519283529082015290810185905290915084907f44b090dfa5478bf5e2ea21c76ba7baf4ab87bb8f6dcfd5f4e220c1cac931868e9060600160405180910390a250505050565b600060015b600254811015613d695760026000828152601560205260409020600d015460ff166003811115613c5457613c546155ad565b03613cce5760026000828152601560205260409020600b0154600160a01b900460ff166006811115613c8857613c886155ad565b14613cce5760008181526023602090815260408083205460159092529091206005015411613cce57600081815260166020526040902060030154421115613cce57919050565b60016000828152601560205260409020600d015460ff166003811115613cf657613cf66155ad565b148015613d1e5750600081815260156020908152604080832060020154602390925290912054145b8015613d57575060026000828152601560205260409020600b0154600160a01b900460ff166006811115613d5457613d546155ad565b14155b15613d6157919050565b600101613c22565b5090565b6011546000908190613da09063ffffffff8082169161ffff640100000000820416916601000000000000909104166147c8565b60008181526024602052604090819020869055805160808101918290526011546310c1b4d560e21b90925263ffffffff9091166084820152909150807f00000000000000000000000000000000000000000000000000000000000000006001600160a01b0316634306d35460a48301602060405180830381865afa158015613e2c573d6000803e3d6000fd5b505050506040513d601f19601f82011682018060405250810190613e50919061583d565b815260006020808301829052861515604080850191909152805183815291820190526060909201919050905260008281526012602090815260409182902083518155838201516001820180549486015115156101000261ff00199215159290921661ffff19909516949094171790925560608301518051613ed79260028501920190614f2a565b505060408051838152602081018790527f9d2f3d98e62a8a1461b32e23b34b5d304f7b9a67c9b4c3af7641e61f53b8706a92500160405180910390a19392505050565b6000613f2682846157e2565b9392505050565b81601560008f815260200190815260200160002060090160006101000a8154816001600160a01b0302191690836001600160a01b031602179055508c601560008f81526020019081526020016000206000018190555084601560008f8152602001908152602001600020600701819055508b601560008f8152602001908152602001600020600301819055508a601560008f81526020019081526020016000206001018190555089601560008f81526020019081526020016000206004018190555088601660008f81526020019081526020016000206001018190555087601660008f8152602001908152602001600020600201819055508c601660008f81526020019081526020016000206000018190555086601660008f81526020019081526020016000206003018190555082601660008f81526020019081526020016000206004018190555042601560008f81526020019081526020016000206008018190555085601560008f81526020019081526020016000206002018190555080601560008f8152602001908152602001600020600b0160006101000a8154816001600160a01b0302191690836001600160a01b0316021790555083601560008f815260200190815260200160002060060181905550602c6000826001600160a01b03166001600160a01b031681526020019081526020016000208d9080600181540180825580915050600190039060005260206000200160009091909190915055602b6000836001600160a01b03166001600160a01b031681526020019081526020016000208d90806001815401808255809150506001900390600052602060002001600090919091909150556141ad60646004548c611a4291906157cb565b600b546001600160a01b03166000908152601d6020526040812080549091906141d79084906157e2565b90915550506004546141f090606490611a42908d6157cb565b600b546001600160a01b03166000908152601c60205260408120805490919061421a9084906157e2565b909155505050505050505050505050505050565b6000613f2682846157cb565b6000613f2682846158b7565b6000613f2682846157b8565b6000816040516020016142659190615b65565b604051602081830303815290604052805190602001208360405160200161428c9190615b65565b6040516020818303038152906040528051906020012014905092915050565b60008181526015602090815260408083206016909252909120600b82015460058201546001600160a01b03909116906142e99061ffff166001615c01565b60058301805461ffff191661ffff929092169190911790556004820154600383015461431491613f1a565b6003830155600b8301805460ff60a01b1916600560a01b17905560078301546000858152601f60205260409020546143629161435791606491611a42919061422e565b600485015490613f1a565b600484015560078301546000858152601f602052604090205461438b91606491611a429161422e565b600b8401546001600160a01b03166000908152601b6020526040812080549091906143b79084906157b8565b9091555050600482015460078401546040517f01edc524adcdf855d2c2bd191a6394a50db23d0eba2534bb50789ef594e2519b926143fa92859289929190615c1c565b60405180910390a150505050565b60608160000361442f5750506040805180820190915260018152600360fc1b602082015290565b8160005b81156144595780614443816158e8565b91506144529050600a836158b7565b9150614433565b6000816001600160401b0381111561447357614473614fb3565b6040519080825280601f01601f19166020018201604052801561449d576020820181803683370190505b5090505b8415614508576144b26001836157b8565b91506144bf600a86615bb6565b6144ca9060306157e2565b60f81b8183815181106144df576144df61578c565b60200101906001600160f81b031916908160001a905350614501600a866158b7565b94506144a1565b949350505050565b6000546001600160a01b03163314612c6a5760405162461bcd60e51b815260206004820152601660248201527527b7363c9031b0b63630b1363290313c9037bbb732b960511b6044820152606401610f3b565b336001600160a01b038216036145bb5760405162461bcd60e51b815260206004820152601760248201527f43616e6e6f74207472616e7366657220746f2073656c660000000000000000006044820152606401610f3b565b600180546001600160a01b0319166001600160a01b0383811691821790925560008054604051929316917fed8889f560326eb138920d842192f0eb3dd22b4f139c87a2c57538e05bae12789190a350565b60008281526015602052604090206002600d82015460ff166003811115614635576146356155ad565b148061465957506001600d82015460ff166003811115614657576146576155ad565b145b1561467857614673838583600201548460010154866149a1565b61477b565b6002810154614688908590614d15565b9350614695846001613f1a565b600083815260276020908152604080832054600b86015460269093529281902054905193975086936001600160a01b03938416937fe9fde21d121526866129ab4026662522f75fd0c8f3cb5101e9aab2b843f0a1ac936146fb939116918a904290615c1c565b60405180910390a360008281526026602052604090205484900361476857600b8101805460ff60a01b1916600160a11b179055600082815260276020526040902054600a820180546001600160a01b0319166001600160a01b039092169190911790556146738383611db1565b600d805460ff1916905561477b83614d21565b6010805490600061478b836158e8565b919050555050505050565b6000805b82156147bf576147ab600a846158b7565b9250806147b781615c42565b91505061479a565b60ff1692915050565b6040516310c1b4d560e21b815263ffffffff841660048201526000906001600160a01b037f0000000000000000000000000000000000000000000000000000000000000000811691634000aea0917f00000000000000000000000000000000000000000000000000000000000000009190821690634306d35490602401602060405180830381865afa158015614862573d6000803e3d6000fd5b505050506040513d601f19601f82011682018060405250810190614886919061583d565b6040805163ffffffff808b16602083015261ffff8a169282019290925290871660608201526080016040516020818303038152906040526040518463ffffffff1660e01b81526004016148db93929190615c61565b6020604051808303816000875af11580156148fa573d6000803e3d6000fd5b505050506040513d601f19601f8201168201806040525081019061491e9190615820565b507f00000000000000000000000000000000000000000000000000000000000000006001600160a01b031663fc2a88c36040518163ffffffff1660e01b8152600401602060405180830381865afa15801561497d573d6000803e3d6000fd5b505050506040513d601f19601f82011682018060405250810190614508919061583d565b6000858152601560209081526040808320815192830190915282825291806149c888614796565b90506000808261ffff166001600160401b038111156149e9576149e9614fb3565b604051908082528060200260200182016040528015614a12578160200160208202803683370190505b5090505b87841015614bae57600061ffff8416614a2f84426157e2565b3386604051602001614a4393929190615b81565b6040516020818303038152906040528051906020012060001c614a669190615bb6565b905060006002614a7685426157e2565b6040805160208101929092526bffffffffffffffffffffffff193360601b1690820152605481018890526074016040516020818303038152906040528051906020012060001c614ac69190615bb6565b90506000614aec614ad68e614408565b84614ae185826157e2565b61055d9060016157e2565b90506000614af982610fd4565b118015614b0e57508b614b0b82610fd4565b11155b8015614b3b575083614b1f82610fd4565b81518110614b2f57614b2f61578c565b60200260200101516000145b15614b99578088604051602001614b53929190615afa565b6040516020818303038152906040529750600184614b7083610fd4565b81518110614b8057614b8061578c565b602090810291909101015286614b95816158e8565b9750505b84614ba3816158e8565b955050505050614a16565b84614bb88c614408565b604051602001614bc9929190615b36565b60408051601f198184030181529190529450600c614be786826159db565b5060006001600160a01b0316602e86604051614c039190615b65565b908152604051908190036020019020546001600160a01b031614614cf457600b8601805460ff60a01b1916600160a11b179055604051602e90614c47908790615b65565b90815260405190819003602001812054600a880180546001600160a01b0319166001600160a01b039092169190911790558b907fb7e9a48cbb7529b6117347e16cba725731bb1a27fdbd3b3fd97e98a8c2409b5090602e90614caa908990615b65565b90815260405190819003602001812054600b8a0154614cdd926001600160a01b0392831692919091169042908b9061593b565b60405180910390a2614cef8b88611db1565b614d08565b614cfd8b6142ab565b600d805460ff191690555b5050505050505050505050565b6000613f268284615bb6565b6000818152601560209081526040808320601690925282206007820154600383015492939192614d5791606491611a429161422e565b8360040154614d6691906157e2565b90506006548110614f1157614dda60025484600301548560010154848660010154876002015488600301548a600201548b600701548c600601548c600401548e60090160009054906101000a90046001600160a01b03168f600b0160009054906101000a90046001600160a01b0316613f2d565b600b838101805460ff60a01b19908116600360a01b17909155600280546000908152601560205260408082209094018054909316600560a01b17909255600d808701549154835292909120909101805460ff9092169160ff19166001836003811115614e4857614e486155ad565b02179055506005808401546002546000908152601560205260409020820155820154614e799061ffff166001615c01565b60025460009081526016602052604090819020600501805461ffff191661ffff9390931692909217909155600b8401546004840154600786015492517f01edc524adcdf855d2c2bd191a6394a50db23d0eba2534bb50789ef594e2519b93614eef936001600160a01b0316928992909190615c1c565b60405180910390a160028054906000614f07836158e8565b91905055506113f2565b5050600b01805460ff60a01b1916600160a01b17905550565b828054828255906000526020600020908101928215614f65579160200282015b82811115614f65578251825591602001919060010190614f4a565b50613d699291505b80821115613d695760008155600101614f6d565b6001600160a01b038116811461337e57600080fd5b600060208284031215614fa857600080fd5b8135613f2681614f81565b634e487b7160e01b600052604160045260246000fd5b604051601f8201601f191681016001600160401b0381118282101715614ff157614ff1614fb3565b604052919050565b600082601f83011261500a57600080fd5b81356001600160401b0381111561502357615023614fb3565b615036601f8201601f1916602001614fc9565b81815284602083860101111561504b57600080fd5b816020850160208301376000918101602001919091529392505050565b60006020828403121561507a57600080fd5b81356001600160401b0381111561509057600080fd5b61450884828501614ff9565b60008151808452602080850194506020840160005b838110156150cd578151875295820195908201906001016150b1565b509495945050505050565b602081526000613f26602083018461509c565b60008060006060848603121561510057600080fd5b83356001600160401b0381111561511657600080fd5b61512286828701614ff9565b9660208601359650604090950135949350505050565b60005b8381101561515357818101518382015260200161513b565b50506000910152565b60008151808452615174816020860160208601615138565b601f01601f19169290920160200192915050565b602081526000613f26602083018461515c565b600082601f8301126151ac57600080fd5b813560206001600160401b038211156151c7576151c7614fb3565b8160051b6151d6828201614fc9565b92835284810182019282810190878511156151f057600080fd5b83870192505b8483101561520f578235825291830191908301906151f6565b979650505050505050565b6000806040838503121561522d57600080fd5b8235915060208301356001600160401b0381111561524a57600080fd5b6152568582860161519b565b9150509250929050565b60006020828403121561527257600080fd5b5035919050565b6000806040838503121561528c57600080fd5b82359150602083013561529e81614f81565b809150509250929050565b600080604083850312156152bc57600080fd5b50508035926020909101359150565b600080602083850312156152de57600080fd5b82356001600160401b03808211156152f557600080fd5b818501915085601f83011261530957600080fd5b81358181111561531857600080fd5b86602082850101111561532a57600080fd5b60209290920196919550909350505050565b6000806000806000806000806000806000806101808d8f03121561535f57600080fd5b8c359b5060208d01359a5060408d0135995060608d0135985060808d0135975060a08d0135965060c08d0135955060e08d013594506101008d013593506101208d013592506101408d01356153b381614f81565b91506101608d0135600481106153c857600080fd5b809150509295989b509295989b509295989b565b6000806000606084860312156153f157600080fd5b83359250602084013561540381614f81565b9150604084013561541381614f81565b809150509250925092565b604081526000615431604083018561509c565b82810360208481019190915284518083528582019282019060005b818110156154715784516001600160a01b03168352938301939183019160010161544c565b5090979650505050505050565b801515811461337e57600080fd5b60006020828403121561549e57600080fd5b8135613f268161547e565b8215158152604060208201526000614508604083018461515c565b60e0815260006154d760e083018a61515c565b82810360208401526154e9818a61515c565b905087151560408401528281036060840152615505818861515c565b6001600160a01b03969096166080840152505060a081019290925260c090910152949350505050565b600080600080600060a0868803121561554657600080fd5b505083359560208501359550604085013594606081013594506080013592509050565b6000806040838503121561557c57600080fd5b82356001600160401b0381111561559257600080fd5b61559e85828601614ff9565b95602094909401359450505050565b634e487b7160e01b600052602160045260246000fd5b600781106155d3576155d36155ad565b9052565b600481106155d3576155d36155ad565b8e8152602081018e9052604081018d9052606081018c9052608081018b905260a081018a905260c0810189905260e0810188905261010081018790526001600160a01b0386811661012083015285811661014083015284166101608201526101c081016156586101808301856155c3565b6156666101a08301846155d7565b9f9e505050505050505050505050505050565b60008060008060008060c0878903121561569257600080fd5b86356001600160401b03808211156156a957600080fd5b6156b58a838b01614ff9565b975060208901359150808211156156cb57600080fd5b6156d78a838b01614ff9565b9650604089013591506156e98261547e565b909450606088013590808211156156ff57600080fd5b5061570c89828a01614ff9565b935050608087013561571d81614f81565b8092505060a087013590509295509295509295565b6000806040838503121561574557600080fd5b82356001600160401b0381111561575b57600080fd5b61559e8582860161519b565b6020808252600b908201526a3737ba16b096b0b236b4b760a91b604082015260600190565b634e487b7160e01b600052603260045260246000fd5b634e487b7160e01b600052601160045260246000fd5b81810381811115613245576132456157a2565b8082028115828204841417613245576132456157a2565b80820180821115613245576132456157a2565b602080825260119082015270115b9d1c9e48119959481b9bdd081b595d607a1b604082015260600190565b60006020828403121561583257600080fd5b8151613f268161547e565b60006020828403121561584f57600080fd5b5051919050565b6020808252602b908201527f4e6f7420656e6f756768204c494e4b202d2066696c6c20636f6e74726163742060408201526a1dda5d1a0819985d58d95d60aa1b606082015260800190565b634e487b7160e01b600052601260045260246000fd5b6000826158c6576158c66158a1565b500490565b6000602082840312156158dd57600080fd5b8151613f2681614f81565b6000600182016158fa576158fa6157a2565b5060010190565b600181811c9082168061591557607f821691505b60208210810361593557634e487b7160e01b600052602260045260246000fd5b50919050565b6001600160a01b038581168252841660208201526040810183905260806060820181905260009061596e9083018461515c565b9695505050505050565b634e487b7160e01b600052600160045260246000fd5b601f8211156159d6576000816000526020600020601f850160051c810160208610156159b75750805b601f850160051c820191505b81811015613940578281556001016159c3565b505050565b81516001600160401b038111156159f4576159f4614fb3565b615a0881615a028454615901565b8461598e565b602080601f831160018114615a3d5760008415615a255750858301515b600019600386901b1c1916600185901b178555613940565b600085815260208120601f198616915b82811015615a6c57888601518255948401946001909101908401615a4d565b5085821015615a8a5787850151600019600388901b60f8161c191681555b5050505050600190811b01905550565b60c081526000615aad60c083018961515c565b8281036020840152615abf818961515c565b905086151560408401528281036060840152615adb818761515c565b6001600160a01b03959095166080840152505060a00152949350505050565b60008351615b0c818460208801615138565b602d60f81b9083019081528351615b2a816001840160208801615138565b01600101949350505050565b60008351615b48818460208801615138565b835190830190615b5c818360208801615138565b01949350505050565b60008251615b77818460208701615138565b9190910192915050565b92835260609190911b6bffffffffffffffffffffffff1916602083015260f01b6001600160f01b031916603482015260360190565b600082615bc557615bc56158a1565b500690565b6001600160a01b0385168152608060208201819052600090615bee9083018661509c565b6040830194909452506060015292915050565b61ffff818116838216019080821115611129576111296157a2565b6001600160a01b0394909416845260208401929092526040830152606082015260800190565b600060ff821660ff8103615c5857615c586157a2565b60010192915050565b60018060a01b0384168152826020820152606060408201526000615c88606083018461515c565b9594505050505056fea26469706673582212201c39737368eca4088e6dcf3d994fda58a1d1e47b88a0df707a2d0d92ce456a5364736f6c63430008160033","opcodes":"PUSH1 0xC0 PUSH1 0x40 MSTORE PUSH1 0x1 PUSH1 0x2 SSTORE PUSH1 0x0 PUSH1 0x3 DUP2 SWAP1 SSTORE PUSH1 0xA PUSH1 0x4 DUP2 SWAP1 SSTORE PUSH1 0x5 SWAP1 DUP2 SSTORE PUSH1 0x64 PUSH1 0x6 SSTORE PUSH1 0x7 DUP2 SWAP1 SSTORE PUSH1 0x8 SSTORE PUSH1 0x9 SSTORE PUSH1 0x11 DUP1 SLOAD PUSH1 0x1 PUSH1 0x1 PUSH1 0x50 SHL SUB NOT AND PUSH7 0x10003000AAE60 OR SWAP1 SSTORE CALLVALUE DUP1 ISZERO PUSH3 0x52 JUMPI PUSH1 0x0 DUP1 REVERT JUMPDEST POP PUSH1 0x40 MLOAD PUSH3 0x5FBD CODESIZE SUB DUP1 PUSH3 0x5FBD DUP4 CODECOPY DUP2 ADD PUSH1 0x40 DUP2 SWAP1 MSTORE PUSH3 0x75 SWAP2 PUSH3 0x26E JUMP JUMPDEST PUSH20 0x779877A7B0D9E8603169DDBD7836E478B4624789 PUSH1 0x80 MSTORE PUSH20 0xAB18414CD93297B0D12AC29E63CA20F515B3DB46 PUSH1 0xA0 MSTORE CALLER DUP1 PUSH1 0x0 DUP2 PUSH3 0xFC JUMPI PUSH1 0x40 MLOAD PUSH3 0x461BCD PUSH1 0xE5 SHL DUP2 MSTORE PUSH1 0x20 PUSH1 0x4 DUP3 ADD MSTORE PUSH1 0x18 PUSH1 0x24 DUP3 ADD MSTORE PUSH32 0x43616E6E6F7420736574206F776E657220746F207A65726F0000000000000000 PUSH1 0x44 DUP3 ADD MSTORE PUSH1 0x64 ADD JUMPDEST PUSH1 0x40 MLOAD DUP1 SWAP2 SUB SWAP1 REVERT JUMPDEST PUSH1 0x0 DUP1 SLOAD PUSH1 0x1 PUSH1 0x1 PUSH1 0xA0 SHL SUB NOT AND PUSH1 0x1 PUSH1 0x1 PUSH1 0xA0 SHL SUB DUP5 DUP2 AND SWAP2 SWAP1 SWAP2 OR SWAP1 SWAP2 SSTORE DUP2 AND ISZERO PUSH3 0x12F JUMPI PUSH3 0x12F DUP2 PUSH3 0x1A6 JUMP JUMPDEST POP POP PUSH1 0xD DUP1 SLOAD PUSH2 0x100 PUSH1 0x1 PUSH1 0xA8 SHL SUB NOT AND PUSH2 0x100 PUSH1 0x1 PUSH1 0x1 PUSH1 0xA0 SHL SUB SWAP5 DUP6 AND MUL OR SWAP1 SSTORE POP PUSH1 0xB DUP1 SLOAD CALLER PUSH1 0x1 PUSH1 0x1 PUSH1 0xA0 SHL SUB NOT SWAP2 DUP3 AND DUP2 OR SWAP1 SWAP3 SSTORE PUSH1 0xA DUP1 SLOAD SWAP1 SWAP2 AND SWAP4 SWAP1 SWAP3 AND SWAP3 SWAP1 SWAP3 OR SWAP1 SSTORE PUSH1 0x0 SWAP1 DUP2 MSTORE PUSH1 0x1A PUSH1 0x20 SWAP1 DUP2 MSTORE PUSH1 0x40 DUP1 DUP4 KECCAK256 DUP4 SWAP1 SSTORE PUSH1 0x1C DUP3 MSTORE DUP1 DUP4 KECCAK256 DUP4 SWAP1 SSTORE PUSH1 0x1D SWAP1 SWAP2 MSTORE DUP2 KECCAK256 SSTORE PUSH3 0x2A6 JUMP JUMPDEST CALLER PUSH1 0x1 PUSH1 0x1 PUSH1 0xA0 SHL SUB DUP3 AND SUB PUSH3 0x200 JUMPI PUSH1 0x40 MLOAD PUSH3 0x461BCD PUSH1 0xE5 SHL DUP2 MSTORE PUSH1 0x20 PUSH1 0x4 DUP3 ADD MSTORE PUSH1 0x17 PUSH1 0x24 DUP3 ADD MSTORE PUSH32 0x43616E6E6F74207472616E7366657220746F2073656C66000000000000000000 PUSH1 0x44 DUP3 ADD MSTORE PUSH1 0x64 ADD PUSH3 0xF3 JUMP JUMPDEST PUSH1 0x1 DUP1 SLOAD PUSH1 0x1 PUSH1 0x1 PUSH1 0xA0 SHL SUB NOT AND PUSH1 0x1 PUSH1 0x1 PUSH1 0xA0 SHL SUB DUP4 DUP2 AND SWAP2 DUP3 OR SWAP1 SWAP3 SSTORE PUSH1 0x0 DUP1 SLOAD PUSH1 0x40 MLOAD SWAP3 SWAP4 AND SWAP2 PUSH32 0xED8889F560326EB138920D842192F0EB3DD22B4F139C87A2C57538E05BAE1278 SWAP2 SWAP1 LOG3 POP JUMP JUMPDEST DUP1 MLOAD PUSH1 0x1 PUSH1 0x1 PUSH1 0xA0 SHL SUB DUP2 AND DUP2 EQ PUSH3 0x269 JUMPI PUSH1 0x0 DUP1 REVERT JUMPDEST SWAP2 SWAP1 POP JUMP JUMPDEST PUSH1 0x0 DUP1 PUSH1 0x40 DUP4 DUP6 SUB SLT ISZERO PUSH3 0x282 JUMPI PUSH1 0x0 DUP1 REVERT JUMPDEST PUSH3 0x28D DUP4 PUSH3 0x251 JUMP JUMPDEST SWAP2 POP PUSH3 0x29D PUSH1 0x20 DUP5 ADD PUSH3 0x251 JUMP JUMPDEST SWAP1 POP SWAP3 POP SWAP3 SWAP1 POP JUMP JUMPDEST PUSH1 0x80 MLOAD PUSH1 0xA0 MLOAD PUSH2 0x5CC7 PUSH3 0x2F6 PUSH1 0x0 CODECOPY PUSH1 0x0 DUP2 DUP2 PUSH2 0x11FD ADD MSTORE DUP2 DUP2 PUSH2 0x3DDE ADD MSTORE DUP2 DUP2 PUSH2 0x4818 ADD MSTORE PUSH2 0x4921 ADD MSTORE PUSH1 0x0 DUP2 DUP2 PUSH2 0x16CC ADD MSTORE DUP2 DUP2 PUSH2 0x2473 ADD MSTORE DUP2 DUP2 PUSH2 0x2B3D ADD MSTORE PUSH2 0x47EE ADD MSTORE PUSH2 0x5CC7 PUSH1 0x0 RETURN INVALID PUSH1 0x80 PUSH1 0x40 MSTORE PUSH1 0x4 CALLDATASIZE LT PUSH2 0x426 JUMPI PUSH1 0x0 CALLDATALOAD PUSH1 0xE0 SHR DUP1 PUSH4 0x8DC654A2 GT PUSH2 0x229 JUMPI DUP1 PUSH4 0xC0DAE685 GT PUSH2 0x12E JUMPI DUP1 PUSH4 0xE79D8A07 GT PUSH2 0xB6 JUMPI DUP1 PUSH4 0xF2FDE38B GT PUSH2 0x7A JUMPI DUP1 PUSH4 0xF2FDE38B EQ PUSH2 0xE41 JUMPI DUP1 PUSH4 0xF489BD3D EQ PUSH2 0xE61 JUMPI DUP1 PUSH4 0xF6C788B2 EQ PUSH2 0xE97 JUMPI DUP1 PUSH4 0xF851A440 EQ PUSH2 0xEC4 JUMPI DUP1 PUSH4 0xF970DD02 EQ PUSH2 0xEE4 JUMPI PUSH1 0x0 DUP1 REVERT JUMPDEST DUP1 PUSH4 0xE79D8A07 EQ PUSH2 0xDA7 JUMPI DUP1 PUSH4 0xE87122D6 EQ PUSH2 0xDD4 JUMPI DUP1 PUSH4 0xE9A9C50C EQ PUSH2 0xDEA JUMPI DUP1 PUSH4 0xEA123D1A EQ PUSH2 0xDFF JUMPI DUP1 PUSH4 0xEA4CE239 EQ PUSH2 0xE2B JUMPI PUSH1 0x0 DUP1 REVERT JUMPDEST DUP1 PUSH4 0xDD73656D GT PUSH2 0xFD JUMPI DUP1 PUSH4 0xDD73656D EQ PUSH2 0xD29 JUMPI DUP1 PUSH4 0xE043E7BC EQ PUSH2 0xD49 JUMPI DUP1 PUSH4 0xE086E5EC EQ PUSH2 0xD76 JUMPI DUP1 PUSH4 0xE3A7F155 EQ PUSH2 0xD7E JUMPI DUP1 PUSH4 0xE580F47B EQ PUSH2 0xD91 JUMPI PUSH1 0x0 DUP1 REVERT JUMPDEST DUP1 PUSH4 0xC0DAE685 EQ PUSH2 0xCA8 JUMPI DUP1 PUSH4 0xC41CE92E EQ PUSH2 0xCDE JUMPI DUP1 PUSH4 0xC73CDD23 EQ PUSH2 0xCFE JUMPI DUP1 PUSH4 0xD7E2368F EQ PUSH2 0xD13 JUMPI PUSH1 0x0 DUP1 REVERT JUMPDEST DUP1 PUSH4 0xAA37DB6C GT PUSH2 0x1B1 JUMPI DUP1 PUSH4 0xB85DFEAA GT PUSH2 0x180 JUMPI DUP1 PUSH4 0xB85DFEAA EQ PUSH2 0xC10 JUMPI DUP1 PUSH4 0xBC112E93 EQ PUSH2 0xC30 JUMPI DUP1 PUSH4 0xBCC941B6 EQ PUSH2 0xC50 JUMPI DUP1 PUSH4 0xBD3491F2 EQ PUSH2 0xC66 JUMPI DUP1 PUSH4 0xBEF7E5A2 EQ PUSH2 0xC7B JUMPI PUSH1 0x0 DUP1 REVERT JUMPDEST DUP1 PUSH4 0xAA37DB6C EQ PUSH2 0xB83 JUMPI DUP1 PUSH4 0xADA9DCB9 EQ PUSH2 0xB99 JUMPI DUP1 PUSH4 0xB2DD29F3 EQ PUSH2 0xBB9 JUMPI DUP1 PUSH4 0xB43F0B2B EQ PUSH2 0xBCF JUMPI PUSH1 0x0 DUP1 REVERT JUMPDEST DUP1 PUSH4 0x96169995 GT PUSH2 0x1F8 JUMPI DUP1 PUSH4 0x96169995 EQ PUSH2 0x99C JUMPI DUP1 PUSH4 0x9D76EA58 EQ PUSH2 0x9C9 JUMPI DUP1 PUSH4 0xA168FA89 EQ PUSH2 0x9E9 JUMPI DUP1 PUSH4 0xA57D1560 EQ PUSH2 0xA46 JUMPI DUP1 PUSH4 0xAA10304C EQ PUSH2 0xAFE JUMPI PUSH1 0x0 DUP1 REVERT JUMPDEST DUP1 PUSH4 0x8DC654A2 EQ PUSH2 0x93F JUMPI DUP1 PUSH4 0x91489105 EQ PUSH2 0x954 JUMPI DUP1 PUSH4 0x944F59DE EQ PUSH2 0x95C JUMPI DUP1 PUSH4 0x94D1283A EQ PUSH2 0x972 JUMPI PUSH1 0x0 DUP1 REVERT JUMPDEST DUP1 PUSH4 0x48C096A7 GT PUSH2 0x32F JUMPI DUP1 PUSH4 0x75829DEF GT PUSH2 0x2B7 JUMPI DUP1 PUSH4 0x7C9315F3 GT PUSH2 0x286 JUMPI DUP1 PUSH4 0x7C9315F3 EQ PUSH2 0x894 JUMPI DUP1 PUSH4 0x81EFC756 EQ PUSH2 0x8B4 JUMPI DUP1 PUSH4 0x8796BA8C EQ PUSH2 0x8E1 JUMPI DUP1 PUSH4 0x8AC9A601 EQ PUSH2 0x90E JUMPI DUP1 PUSH4 0x8DA5CB5B EQ PUSH2 0x921 JUMPI PUSH1 0x0 DUP1 REVERT JUMPDEST DUP1 PUSH4 0x75829DEF EQ PUSH2 0x816 JUMPI DUP1 PUSH4 0x75E9340A EQ PUSH2 0x836 JUMPI DUP1 PUSH4 0x7782D576 EQ PUSH2 0x84C JUMPI DUP1 PUSH4 0x79BA5097 EQ PUSH2 0x87F JUMPI PUSH1 0x0 DUP1 REVERT JUMPDEST DUP1 PUSH4 0x51D4568F GT PUSH2 0x2FE JUMPI DUP1 PUSH4 0x51D4568F EQ PUSH2 0x757 JUMPI DUP1 PUSH4 0x5F8E26A7 EQ PUSH2 0x75F JUMPI DUP1 PUSH4 0x67EECD5A EQ PUSH2 0x78D JUMPI DUP1 PUSH4 0x6BF8DC74 EQ PUSH2 0x7BA JUMPI DUP1 PUSH4 0x6E04FF0D EQ PUSH2 0x7E8 JUMPI PUSH1 0x0 DUP1 REVERT JUMPDEST DUP1 PUSH4 0x48C096A7 EQ PUSH2 0x6E1 JUMPI DUP1 PUSH4 0x4A2A1FB0 EQ PUSH2 0x70E JUMPI DUP1 PUSH4 0x4B3B408A EQ PUSH2 0x72E JUMPI DUP1 PUSH4 0x4E204920 EQ PUSH2 0x741 JUMPI PUSH1 0x0 DUP1 REVERT JUMPDEST DUP1 PUSH4 0x1FE543E3 GT PUSH2 0x3B2 JUMPI DUP1 PUSH4 0x2751134A GT PUSH2 0x381 JUMPI DUP1 PUSH4 0x2751134A EQ PUSH2 0x641 JUMPI DUP1 PUSH4 0x2F24D5DC EQ PUSH2 0x66E JUMPI DUP1 PUSH4 0x3DE55F95 EQ PUSH2 0x681 JUMPI DUP1 PUSH4 0x4585E33B EQ PUSH2 0x6AE JUMPI DUP1 PUSH4 0x47D5FCC6 EQ PUSH2 0x6CE JUMPI PUSH1 0x0 DUP1 REVERT JUMPDEST DUP1 PUSH4 0x1FE543E3 EQ PUSH2 0x59C JUMPI DUP1 PUSH4 0x2071BE7B EQ PUSH2 0x5BC JUMPI DUP1 PUSH4 0x26617DDB EQ PUSH2 0x5E9 JUMPI DUP1 PUSH4 0x26A4E8D2 EQ PUSH2 0x621 JUMPI PUSH1 0x0 DUP1 REVERT JUMPDEST DUP1 PUSH4 0x16A1A468 GT PUSH2 0x3F9 JUMPI DUP1 PUSH4 0x16A1A468 EQ PUSH2 0x4C8 JUMPI DUP1 PUSH4 0x1BD95155 EQ PUSH2 0x4F5 JUMPI DUP1 PUSH4 0x1C9C8E99 EQ PUSH2 0x515 JUMPI DUP1 PUSH4 0x1DCD9B55 EQ PUSH2 0x542 JUMPI DUP1 PUSH4 0x1ED1936F EQ PUSH2 0x56F JUMPI PUSH1 0x0 DUP1 REVERT JUMPDEST DUP1 PUSH4 0x4C76AF0 EQ PUSH2 0x42B JUMPI DUP1 PUSH4 0x76E316F EQ PUSH2 0x435 JUMPI DUP1 PUSH4 0x9DEAA24 EQ PUSH2 0x477 JUMPI DUP1 PUSH4 0x137EF049 EQ PUSH2 0x4B2 JUMPI JUMPDEST PUSH1 0x0 DUP1 REVERT JUMPDEST PUSH2 0x433 PUSH2 0xF11 JUMP JUMPDEST STOP JUMPDEST CALLVALUE DUP1 ISZERO PUSH2 0x441 JUMPI PUSH1 0x0 DUP1 REVERT JUMPDEST POP PUSH1 0xD SLOAD PUSH2 0x45A SWAP1 PUSH2 0x100 SWAP1 DIV PUSH1 0x1 PUSH1 0x1 PUSH1 0xA0 SHL SUB AND DUP2 JUMP JUMPDEST PUSH1 0x40 MLOAD PUSH1 0x1 PUSH1 0x1 PUSH1 0xA0 SHL SUB SWAP1 SWAP2 AND DUP2 MSTORE PUSH1 0x20 ADD JUMPDEST PUSH1 0x40 MLOAD DUP1 SWAP2 SUB SWAP1 RETURN JUMPDEST CALLVALUE DUP1 ISZERO PUSH2 0x483 JUMPI PUSH1 0x0 DUP1 REVERT JUMPDEST POP PUSH2 0x4A4 PUSH2 0x492 CALLDATASIZE PUSH1 0x4 PUSH2 0x4F96 JUMP JUMPDEST PUSH1 0x1A PUSH1 0x20 MSTORE PUSH1 0x0 SWAP1 DUP2 MSTORE PUSH1 0x40 SWAP1 KECCAK256 SLOAD DUP2 JUMP JUMPDEST PUSH1 0x40 MLOAD SWAP1 DUP2 MSTORE PUSH1 0x20 ADD PUSH2 0x46E JUMP JUMPDEST CALLVALUE DUP1 ISZERO PUSH2 0x4BE JUMPI PUSH1 0x0 DUP1 REVERT JUMPDEST POP PUSH2 0x4A4 PUSH1 0x10 SLOAD DUP2 JUMP JUMPDEST CALLVALUE DUP1 ISZERO PUSH2 0x4D4 JUMPI PUSH1 0x0 DUP1 REVERT JUMPDEST POP PUSH2 0x4A4 PUSH2 0x4E3 CALLDATASIZE PUSH1 0x4 PUSH2 0x4F96 JUMP JUMPDEST PUSH1 0x22 PUSH1 0x20 MSTORE PUSH1 0x0 SWAP1 DUP2 MSTORE PUSH1 0x40 SWAP1 KECCAK256 SLOAD DUP2 JUMP JUMPDEST CALLVALUE DUP1 ISZERO PUSH2 0x501 JUMPI PUSH1 0x0 DUP1 REVERT JUMPDEST POP PUSH2 0x4A4 PUSH2 0x510 CALLDATASIZE PUSH1 0x4 PUSH2 0x5068 JUMP JUMPDEST PUSH2 0xFD4 JUMP JUMPDEST CALLVALUE DUP1 ISZERO PUSH2 0x521 JUMPI PUSH1 0x0 DUP1 REVERT JUMPDEST POP PUSH2 0x535 PUSH2 0x530 CALLDATASIZE PUSH1 0x4 PUSH2 0x4F96 JUMP JUMPDEST PUSH2 0x104C JUMP JUMPDEST PUSH1 0x40 MLOAD PUSH2 0x46E SWAP2 SWAP1 PUSH2 0x50D8 JUMP JUMPDEST CALLVALUE DUP1 ISZERO PUSH2 0x54E JUMPI PUSH1 0x0 DUP1 REVERT JUMPDEST POP PUSH2 0x562 PUSH2 0x55D CALLDATASIZE PUSH1 0x4 PUSH2 0x50EB JUMP JUMPDEST PUSH2 0x1130 JUMP JUMPDEST PUSH1 0x40 MLOAD PUSH2 0x46E SWAP2 SWAP1 PUSH2 0x5188 JUMP JUMPDEST CALLVALUE DUP1 ISZERO PUSH2 0x57B JUMPI PUSH1 0x0 DUP1 REVERT JUMPDEST POP PUSH2 0x4A4 PUSH2 0x58A CALLDATASIZE PUSH1 0x4 PUSH2 0x4F96 JUMP JUMPDEST PUSH1 0x1D PUSH1 0x20 MSTORE PUSH1 0x0 SWAP1 DUP2 MSTORE PUSH1 0x40 SWAP1 KECCAK256 SLOAD DUP2 JUMP JUMPDEST CALLVALUE DUP1 ISZERO PUSH2 0x5A8 JUMPI PUSH1 0x0 DUP1 REVERT JUMPDEST POP PUSH2 0x433 PUSH2 0x5B7 CALLDATASIZE PUSH1 0x4 PUSH2 0x521A JUMP JUMPDEST PUSH2 0x11F2 JUMP JUMPDEST CALLVALUE DUP1 ISZERO PUSH2 0x5C8 JUMPI PUSH1 0x0 DUP1 REVERT JUMPDEST POP PUSH2 0x4A4 PUSH2 0x5D7 CALLDATASIZE PUSH1 0x4 PUSH2 0x5260 JUMP JUMPDEST PUSH1 0x1F PUSH1 0x20 MSTORE PUSH1 0x0 SWAP1 DUP2 MSTORE PUSH1 0x40 SWAP1 KECCAK256 SLOAD DUP2 JUMP JUMPDEST CALLVALUE DUP1 ISZERO PUSH2 0x5F5 JUMPI PUSH1 0x0 DUP1 REVERT JUMPDEST POP PUSH2 0x4A4 PUSH2 0x604 CALLDATASIZE PUSH1 0x4 PUSH2 0x5279 JUMP JUMPDEST PUSH1 0x2D PUSH1 0x20 SWAP1 DUP2 MSTORE PUSH1 0x0 SWAP3 DUP4 MSTORE PUSH1 0x40 DUP1 DUP5 KECCAK256 SWAP1 SWAP2 MSTORE SWAP1 DUP3 MSTORE SWAP1 KECCAK256 SLOAD DUP2 JUMP JUMPDEST CALLVALUE DUP1 ISZERO PUSH2 0x62D JUMPI PUSH1 0x0 DUP1 REVERT JUMPDEST POP PUSH2 0x433 PUSH2 0x63C CALLDATASIZE PUSH1 0x4 PUSH2 0x4F96 JUMP JUMPDEST PUSH2 0x1278 JUMP JUMPDEST CALLVALUE DUP1 ISZERO PUSH2 0x64D JUMPI PUSH1 0x0 DUP1 REVERT JUMPDEST POP PUSH2 0x4A4 PUSH2 0x65C CALLDATASIZE PUSH1 0x4 PUSH2 0x4F96 JUMP JUMPDEST PUSH1 0x17 PUSH1 0x20 MSTORE PUSH1 0x0 SWAP1 DUP2 MSTORE PUSH1 0x40 SWAP1 KECCAK256 SLOAD DUP2 JUMP JUMPDEST PUSH2 0x433 PUSH2 0x67C CALLDATASIZE PUSH1 0x4 PUSH2 0x52A9 JUMP JUMPDEST PUSH2 0x12C4 JUMP JUMPDEST CALLVALUE DUP1 ISZERO PUSH2 0x68D JUMPI PUSH1 0x0 DUP1 REVERT JUMPDEST POP PUSH2 0x4A4 PUSH2 0x69C CALLDATASIZE PUSH1 0x4 PUSH2 0x4F96 JUMP JUMPDEST PUSH1 0x18 PUSH1 0x20 MSTORE PUSH1 0x0 SWAP1 DUP2 MSTORE PUSH1 0x40 SWAP1 KECCAK256 SLOAD DUP2 JUMP JUMPDEST CALLVALUE DUP1 ISZERO PUSH2 0x6BA JUMPI PUSH1 0x0 DUP1 REVERT JUMPDEST POP PUSH2 0x433 PUSH2 0x6C9 CALLDATASIZE PUSH1 0x4 PUSH2 0x52CB JUMP JUMPDEST PUSH2 0x13F8 JUMP JUMPDEST PUSH2 0x433 PUSH2 0x6DC CALLDATASIZE PUSH1 0x4 PUSH2 0x533C JUMP JUMPDEST PUSH2 0x1464 JUMP JUMPDEST CALLVALUE DUP1 ISZERO PUSH2 0x6ED JUMPI PUSH1 0x0 DUP1 REVERT JUMPDEST POP PUSH2 0x4A4 PUSH2 0x6FC CALLDATASIZE PUSH1 0x4 PUSH2 0x4F96 JUMP JUMPDEST PUSH1 0x1E PUSH1 0x20 MSTORE PUSH1 0x0 SWAP1 DUP2 MSTORE PUSH1 0x40 SWAP1 KECCAK256 SLOAD DUP2 JUMP JUMPDEST CALLVALUE DUP1 ISZERO PUSH2 0x71A JUMPI PUSH1 0x0 DUP1 REVERT JUMPDEST POP PUSH2 0x433 PUSH2 0x729 CALLDATASIZE PUSH1 0x4 PUSH2 0x53DC JUMP JUMPDEST PUSH2 0x1C6F JUMP JUMPDEST PUSH2 0x433 PUSH2 0x73C CALLDATASIZE PUSH1 0x4 PUSH2 0x52A9 JUMP JUMPDEST PUSH2 0x1DB1 JUMP JUMPDEST CALLVALUE DUP1 ISZERO PUSH2 0x74D JUMPI PUSH1 0x0 DUP1 REVERT JUMPDEST POP PUSH2 0x4A4 PUSH1 0x8 SLOAD DUP2 JUMP JUMPDEST PUSH2 0x433 PUSH2 0x212A JUMP JUMPDEST CALLVALUE DUP1 ISZERO PUSH2 0x76B JUMPI PUSH1 0x0 DUP1 REVERT JUMPDEST POP PUSH2 0x77F PUSH2 0x77A CALLDATASIZE PUSH1 0x4 PUSH2 0x5260 JUMP JUMPDEST PUSH2 0x21F9 JUMP JUMPDEST PUSH1 0x40 MLOAD PUSH2 0x46E SWAP3 SWAP2 SWAP1 PUSH2 0x541E JUMP JUMPDEST CALLVALUE DUP1 ISZERO PUSH2 0x799 JUMPI PUSH1 0x0 DUP1 REVERT JUMPDEST POP PUSH2 0x4A4 PUSH2 0x7A8 CALLDATASIZE PUSH1 0x4 PUSH2 0x5260 JUMP JUMPDEST PUSH1 0x26 PUSH1 0x20 MSTORE PUSH1 0x0 SWAP1 DUP2 MSTORE PUSH1 0x40 SWAP1 KECCAK256 SLOAD DUP2 JUMP JUMPDEST CALLVALUE DUP1 ISZERO PUSH2 0x7C6 JUMPI PUSH1 0x0 DUP1 REVERT JUMPDEST POP PUSH2 0x433 PUSH2 0x7D5 CALLDATASIZE PUSH1 0x4 PUSH2 0x548C JUMP JUMPDEST PUSH1 0xD DUP1 SLOAD PUSH1 0xFF NOT AND SWAP2 ISZERO ISZERO SWAP2 SWAP1 SWAP2 OR SWAP1 SSTORE JUMP JUMPDEST CALLVALUE DUP1 ISZERO PUSH2 0x7F4 JUMPI PUSH1 0x0 DUP1 REVERT JUMPDEST POP PUSH2 0x808 PUSH2 0x803 CALLDATASIZE PUSH1 0x4 PUSH2 0x52CB JUMP JUMPDEST PUSH2 0x2453 JUMP JUMPDEST PUSH1 0x40 MLOAD PUSH2 0x46E SWAP3 SWAP2 SWAP1 PUSH2 0x54A9 JUMP JUMPDEST CALLVALUE DUP1 ISZERO PUSH2 0x822 JUMPI PUSH1 0x0 DUP1 REVERT JUMPDEST POP PUSH2 0x433 PUSH2 0x831 CALLDATASIZE PUSH1 0x4 PUSH2 0x4F96 JUMP JUMPDEST PUSH2 0x257D JUMP JUMPDEST CALLVALUE DUP1 ISZERO PUSH2 0x842 JUMPI PUSH1 0x0 DUP1 REVERT JUMPDEST POP PUSH2 0x4A4 PUSH1 0x4 SLOAD DUP2 JUMP JUMPDEST CALLVALUE DUP1 ISZERO PUSH2 0x858 JUMPI PUSH1 0x0 DUP1 REVERT JUMPDEST POP PUSH2 0x86C PUSH2 0x867 CALLDATASIZE PUSH1 0x4 PUSH2 0x4F96 JUMP JUMPDEST PUSH2 0x25DC JUMP JUMPDEST PUSH1 0x40 MLOAD PUSH2 0x46E SWAP8 SWAP7 SWAP6 SWAP5 SWAP4 SWAP3 SWAP2 SWAP1 PUSH2 0x54C4 JUMP JUMPDEST CALLVALUE DUP1 ISZERO PUSH2 0x88B JUMPI PUSH1 0x0 DUP1 REVERT JUMPDEST POP PUSH2 0x433 PUSH2 0x27C3 JUMP JUMPDEST CALLVALUE DUP1 ISZERO PUSH2 0x8A0 JUMPI PUSH1 0x0 DUP1 REVERT JUMPDEST POP PUSH2 0x433 PUSH2 0x8AF CALLDATASIZE PUSH1 0x4 PUSH2 0x552E JUMP JUMPDEST PUSH2 0x286D JUMP JUMPDEST CALLVALUE DUP1 ISZERO PUSH2 0x8C0 JUMPI PUSH1 0x0 DUP1 REVERT JUMPDEST POP PUSH2 0x4A4 PUSH2 0x8CF CALLDATASIZE PUSH1 0x4 PUSH2 0x4F96 JUMP JUMPDEST PUSH1 0x2F PUSH1 0x20 MSTORE PUSH1 0x0 SWAP1 DUP2 MSTORE PUSH1 0x40 SWAP1 KECCAK256 SLOAD DUP2 JUMP JUMPDEST CALLVALUE DUP1 ISZERO PUSH2 0x8ED JUMPI PUSH1 0x0 DUP1 REVERT JUMPDEST POP PUSH2 0x4A4 PUSH2 0x8FC CALLDATASIZE PUSH1 0x4 PUSH2 0x5260 JUMP JUMPDEST PUSH1 0x24 PUSH1 0x20 MSTORE PUSH1 0x0 SWAP1 DUP2 MSTORE PUSH1 0x40 SWAP1 KECCAK256 SLOAD DUP2 JUMP JUMPDEST PUSH2 0x433 PUSH2 0x91C CALLDATASIZE PUSH1 0x4 PUSH2 0x5569 JUMP JUMPDEST PUSH2 0x28AE JUMP JUMPDEST CALLVALUE DUP1 ISZERO PUSH2 0x92D JUMPI PUSH1 0x0 DUP1 REVERT JUMPDEST POP PUSH1 0x0 SLOAD PUSH1 0x1 PUSH1 0x1 PUSH1 0xA0 SHL SUB AND PUSH2 0x45A JUMP JUMPDEST CALLVALUE DUP1 ISZERO PUSH2 0x94B JUMPI PUSH1 0x0 DUP1 REVERT JUMPDEST POP PUSH2 0x433 PUSH2 0x2AFE JUMP JUMPDEST PUSH2 0x433 PUSH2 0x2C6C JUMP JUMPDEST CALLVALUE DUP1 ISZERO PUSH2 0x968 JUMPI PUSH1 0x0 DUP1 REVERT JUMPDEST POP PUSH2 0x4A4 PUSH1 0xF SLOAD DUP2 JUMP JUMPDEST CALLVALUE DUP1 ISZERO PUSH2 0x97E JUMPI PUSH1 0x0 DUP1 REVERT JUMPDEST POP PUSH1 0xD SLOAD PUSH2 0x98C SWAP1 PUSH1 0xFF AND DUP2 JUMP JUMPDEST PUSH1 0x40 MLOAD SWAP1 ISZERO ISZERO DUP2 MSTORE PUSH1 0x20 ADD PUSH2 0x46E JUMP JUMPDEST CALLVALUE DUP1 ISZERO PUSH2 0x9A8 JUMPI PUSH1 0x0 DUP1 REVERT JUMPDEST POP PUSH2 0x4A4 PUSH2 0x9B7 CALLDATASIZE PUSH1 0x4 PUSH2 0x4F96 JUMP JUMPDEST PUSH1 0x21 PUSH1 0x20 MSTORE PUSH1 0x0 SWAP1 DUP2 MSTORE PUSH1 0x40 SWAP1 KECCAK256 SLOAD DUP2 JUMP JUMPDEST CALLVALUE DUP1 ISZERO PUSH2 0x9D5 JUMPI PUSH1 0x0 DUP1 REVERT JUMPDEST POP PUSH1 0xA SLOAD PUSH2 0x45A SWAP1 PUSH1 0x1 PUSH1 0x1 PUSH1 0xA0 SHL SUB AND DUP2 JUMP JUMPDEST CALLVALUE DUP1 ISZERO PUSH2 0x9F5 JUMPI PUSH1 0x0 DUP1 REVERT JUMPDEST POP PUSH2 0xA29 PUSH2 0xA04 CALLDATASIZE PUSH1 0x4 PUSH2 0x5260 JUMP JUMPDEST PUSH1 0x12 PUSH1 0x20 MSTORE PUSH1 0x0 SWAP1 DUP2 MSTORE PUSH1 0x40 SWAP1 KECCAK256 DUP1 SLOAD PUSH1 0x1 SWAP1 SWAP2 ADD SLOAD PUSH1 0xFF DUP1 DUP3 AND SWAP2 PUSH2 0x100 SWAP1 DIV AND DUP4 JUMP JUMPDEST PUSH1 0x40 DUP1 MLOAD SWAP4 DUP5 MSTORE SWAP2 ISZERO ISZERO PUSH1 0x20 DUP5 ADD MSTORE ISZERO ISZERO SWAP1 DUP3 ADD MSTORE PUSH1 0x60 ADD PUSH2 0x46E JUMP JUMPDEST CALLVALUE DUP1 ISZERO PUSH2 0xA52 JUMPI PUSH1 0x0 DUP1 REVERT JUMPDEST POP PUSH2 0xAE4 PUSH2 0xA61 CALLDATASIZE PUSH1 0x4 PUSH2 0x5260 JUMP JUMPDEST PUSH1 0x15 PUSH1 0x20 MSTORE PUSH1 0x0 SWAP1 DUP2 MSTORE PUSH1 0x40 SWAP1 KECCAK256 DUP1 SLOAD PUSH1 0x1 DUP3 ADD SLOAD PUSH1 0x2 DUP4 ADD SLOAD PUSH1 0x3 DUP5 ADD SLOAD PUSH1 0x4 DUP6 ADD SLOAD PUSH1 0x5 DUP7 ADD SLOAD PUSH1 0x6 DUP8 ADD SLOAD PUSH1 0x7 DUP9 ADD SLOAD PUSH1 0x8 DUP10 ADD SLOAD PUSH1 0x9 DUP11 ADD SLOAD PUSH1 0xA DUP12 ADD SLOAD PUSH1 0xB DUP13 ADD SLOAD PUSH1 0xD SWAP1 SWAP13 ADD SLOAD SWAP11 SWAP12 SWAP10 SWAP11 SWAP9 SWAP10 SWAP8 SWAP9 SWAP7 SWAP8 SWAP6 SWAP7 SWAP5 SWAP6 SWAP4 SWAP5 SWAP3 SWAP4 PUSH1 0x1 PUSH1 0x1 PUSH1 0xA0 SHL SUB SWAP3 DUP4 AND SWAP4 SWAP2 DUP4 AND SWAP3 DUP2 AND SWAP2 PUSH1 0xFF PUSH1 0x1 PUSH1 0xA0 SHL SWAP1 SWAP3 DIV DUP3 AND SWAP2 AND DUP15 JUMP JUMPDEST PUSH1 0x40 MLOAD PUSH2 0x46E SWAP15 SWAP14 SWAP13 SWAP12 SWAP11 SWAP10 SWAP9 SWAP8 SWAP7 SWAP6 SWAP5 SWAP4 SWAP3 SWAP2 SWAP1 PUSH2 0x55E7 JUMP JUMPDEST CALLVALUE DUP1 ISZERO PUSH2 0xB0A JUMPI PUSH1 0x0 DUP1 REVERT JUMPDEST POP PUSH2 0xB52 PUSH2 0xB19 CALLDATASIZE PUSH1 0x4 PUSH2 0x5260 JUMP JUMPDEST PUSH1 0x16 PUSH1 0x20 MSTORE PUSH1 0x0 SWAP1 DUP2 MSTORE PUSH1 0x40 SWAP1 KECCAK256 DUP1 SLOAD PUSH1 0x1 DUP3 ADD SLOAD PUSH1 0x2 DUP4 ADD SLOAD PUSH1 0x3 DUP5 ADD SLOAD PUSH1 0x4 DUP6 ADD SLOAD PUSH1 0x5 SWAP1 SWAP6 ADD SLOAD SWAP4 SWAP5 SWAP3 SWAP4 SWAP2 SWAP3 SWAP1 SWAP2 PUSH2 0xFFFF AND DUP7 JUMP JUMPDEST PUSH1 0x40 DUP1 MLOAD SWAP7 DUP8 MSTORE PUSH1 0x20 DUP8 ADD SWAP6 SWAP1 SWAP6 MSTORE SWAP4 DUP6 ADD SWAP3 SWAP1 SWAP3 MSTORE PUSH1 0x60 DUP5 ADD MSTORE PUSH1 0x80 DUP4 ADD MSTORE PUSH2 0xFFFF AND PUSH1 0xA0 DUP3 ADD MSTORE PUSH1 0xC0 ADD PUSH2 0x46E JUMP JUMPDEST CALLVALUE DUP1 ISZERO PUSH2 0xB8F JUMPI PUSH1 0x0 DUP1 REVERT JUMPDEST POP PUSH2 0x4A4 PUSH1 0x3 SLOAD DUP2 JUMP JUMPDEST CALLVALUE DUP1 ISZERO PUSH2 0xBA5 JUMPI PUSH1 0x0 DUP1 REVERT JUMPDEST POP PUSH2 0x535 PUSH2 0xBB4 CALLDATASIZE PUSH1 0x4 PUSH2 0x5260 JUMP JUMPDEST PUSH2 0x2CBC JUMP JUMPDEST CALLVALUE DUP1 ISZERO PUSH2 0xBC5 JUMPI PUSH1 0x0 DUP1 REVERT JUMPDEST POP PUSH2 0x4A4 PUSH1 0x5 SLOAD DUP2 JUMP JUMPDEST CALLVALUE DUP1 ISZERO PUSH2 0xBDB JUMPI PUSH1 0x0 DUP1 REVERT JUMPDEST POP PUSH2 0x45A PUSH2 0xBEA CALLDATASIZE PUSH1 0x4 PUSH2 0x5068 JUMP JUMPDEST DUP1 MLOAD PUSH1 0x20 DUP2 DUP4 ADD DUP2 ADD DUP1 MLOAD PUSH1 0x2E DUP3 MSTORE SWAP3 DUP3 ADD SWAP2 SWAP1 SWAP4 ADD KECCAK256 SWAP2 MSTORE SLOAD PUSH1 0x1 PUSH1 0x1 PUSH1 0xA0 SHL SUB AND DUP2 JUMP JUMPDEST CALLVALUE DUP1 ISZERO PUSH2 0xC1C JUMPI PUSH1 0x0 DUP1 REVERT JUMPDEST POP PUSH2 0x433 PUSH2 0xC2B CALLDATASIZE PUSH1 0x4 PUSH2 0x5679 JUMP JUMPDEST PUSH2 0x2D91 JUMP JUMPDEST CALLVALUE DUP1 ISZERO PUSH2 0xC3C JUMPI PUSH1 0x0 DUP1 REVERT JUMPDEST POP PUSH2 0x4A4 PUSH2 0xC4B CALLDATASIZE PUSH1 0x4 PUSH2 0x52A9 JUMP JUMPDEST PUSH2 0x3010 JUMP JUMPDEST CALLVALUE DUP1 ISZERO PUSH2 0xC5C JUMPI PUSH1 0x0 DUP1 REVERT JUMPDEST POP PUSH2 0x4A4 PUSH1 0xE SLOAD DUP2 JUMP JUMPDEST CALLVALUE DUP1 ISZERO PUSH2 0xC72 JUMPI PUSH1 0x0 DUP1 REVERT JUMPDEST POP PUSH2 0x562 PUSH2 0x3041 JUMP JUMPDEST CALLVALUE DUP1 ISZERO PUSH2 0xC87 JUMPI PUSH1 0x0 DUP1 REVERT JUMPDEST POP PUSH2 0x4A4 PUSH2 0xC96 CALLDATASIZE PUSH1 0x4 PUSH2 0x4F96 JUMP JUMPDEST PUSH1 0x19 PUSH1 0x20 MSTORE PUSH1 0x0 SWAP1 DUP2 MSTORE PUSH1 0x40 SWAP1 KECCAK256 SLOAD DUP2 JUMP JUMPDEST CALLVALUE DUP1 ISZERO PUSH2 0xCB4 JUMPI PUSH1 0x0 DUP1 REVERT JUMPDEST POP PUSH2 0x45A PUSH2 0xCC3 CALLDATASIZE PUSH1 0x4 PUSH2 0x5260 JUMP JUMPDEST PUSH1 0x27 PUSH1 0x20 MSTORE PUSH1 0x0 SWAP1 DUP2 MSTORE PUSH1 0x40 SWAP1 KECCAK256 SLOAD PUSH1 0x1 PUSH1 0x1 PUSH1 0xA0 SHL SUB AND DUP2 JUMP JUMPDEST CALLVALUE DUP1 ISZERO PUSH2 0xCEA JUMPI PUSH1 0x0 DUP1 REVERT JUMPDEST POP PUSH2 0x535 PUSH2 0xCF9 CALLDATASIZE PUSH1 0x4 PUSH2 0x4F96 JUMP JUMPDEST PUSH2 0x30CF JUMP JUMPDEST CALLVALUE DUP1 ISZERO PUSH2 0xD0A JUMPI PUSH1 0x0 DUP1 REVERT JUMPDEST POP PUSH2 0x4A4 PUSH2 0x31AC JUMP JUMPDEST CALLVALUE DUP1 ISZERO PUSH2 0xD1F JUMPI PUSH1 0x0 DUP1 REVERT JUMPDEST POP PUSH2 0x4A4 PUSH1 0x7 SLOAD DUP2 JUMP JUMPDEST CALLVALUE DUP1 ISZERO PUSH2 0xD35 JUMPI PUSH1 0x0 DUP1 REVERT JUMPDEST POP PUSH2 0x535 PUSH2 0xD44 CALLDATASIZE PUSH1 0x4 PUSH2 0x4F96 JUMP JUMPDEST PUSH2 0x324B JUMP JUMPDEST CALLVALUE DUP1 ISZERO PUSH2 0xD55 JUMPI PUSH1 0x0 DUP1 REVERT JUMPDEST POP PUSH2 0x4A4 PUSH2 0xD64 CALLDATASIZE PUSH1 0x4 PUSH2 0x5260 JUMP JUMPDEST PUSH1 0x23 PUSH1 0x20 MSTORE PUSH1 0x0 SWAP1 DUP2 MSTORE PUSH1 0x40 SWAP1 KECCAK256 SLOAD DUP2 JUMP JUMPDEST PUSH2 0x433 PUSH2 0x3328 JUMP JUMPDEST PUSH2 0x433 PUSH2 0xD8C CALLDATASIZE PUSH1 0x4 PUSH2 0x5732 JUMP JUMPDEST PUSH2 0x3381 JUMP JUMPDEST CALLVALUE DUP1 ISZERO PUSH2 0xD9D JUMPI PUSH1 0x0 DUP1 REVERT JUMPDEST POP PUSH2 0x4A4 PUSH1 0x2 SLOAD DUP2 JUMP JUMPDEST CALLVALUE DUP1 ISZERO PUSH2 0xDB3 JUMPI PUSH1 0x0 DUP1 REVERT JUMPDEST POP PUSH2 0x4A4 PUSH2 0xDC2 CALLDATASIZE PUSH1 0x4 PUSH2 0x4F96 JUMP JUMPDEST PUSH1 0x1C PUSH1 0x20 MSTORE PUSH1 0x0 SWAP1 DUP2 MSTORE PUSH1 0x40 SWAP1 KECCAK256 SLOAD DUP2 JUMP JUMPDEST CALLVALUE DUP1 ISZERO PUSH2 0xDE0 JUMPI PUSH1 0x0 DUP1 REVERT JUMPDEST POP PUSH2 0x4A4 PUSH1 0x6 SLOAD DUP2 JUMP JUMPDEST CALLVALUE DUP1 ISZERO PUSH2 0xDF6 JUMPI PUSH1 0x0 DUP1 REVERT JUMPDEST POP PUSH2 0x433 PUSH2 0x35D3 JUMP JUMPDEST CALLVALUE DUP1 ISZERO PUSH2 0xE0B JUMPI PUSH1 0x0 DUP1 REVERT JUMPDEST POP PUSH2 0x4A4 PUSH2 0xE1A CALLDATASIZE PUSH1 0x4 PUSH2 0x4F96 JUMP JUMPDEST PUSH1 0x20 DUP1 MSTORE PUSH1 0x0 SWAP1 DUP2 MSTORE PUSH1 0x40 SWAP1 KECCAK256 SLOAD DUP2 JUMP JUMPDEST CALLVALUE DUP1 ISZERO PUSH2 0xE37 JUMPI PUSH1 0x0 DUP1 REVERT JUMPDEST POP PUSH2 0x4A4 PUSH1 0x9 SLOAD DUP2 JUMP JUMPDEST CALLVALUE DUP1 ISZERO PUSH2 0xE4D JUMPI PUSH1 0x0 DUP1 REVERT JUMPDEST POP PUSH2 0x433 PUSH2 0xE5C CALLDATASIZE PUSH1 0x4 PUSH2 0x4F96 JUMP JUMPDEST PUSH2 0x3724 JUMP JUMPDEST CALLVALUE DUP1 ISZERO PUSH2 0xE6D JUMPI PUSH1 0x0 DUP1 REVERT JUMPDEST POP PUSH2 0x45A PUSH2 0xE7C CALLDATASIZE PUSH1 0x4 PUSH2 0x5260 JUMP JUMPDEST PUSH1 0x14 PUSH1 0x20 MSTORE PUSH1 0x0 SWAP1 DUP2 MSTORE PUSH1 0x40 SWAP1 KECCAK256 SLOAD PUSH1 0x1 PUSH1 0x1 PUSH1 0xA0 SHL SUB AND DUP2 JUMP JUMPDEST CALLVALUE DUP1 ISZERO PUSH2 0xEA3 JUMPI PUSH1 0x0 DUP1 REVERT JUMPDEST POP PUSH2 0x4A4 PUSH2 0xEB2 CALLDATASIZE PUSH1 0x4 PUSH2 0x4F96 JUMP JUMPDEST PUSH1 0x1B PUSH1 0x20 MSTORE PUSH1 0x0 SWAP1 DUP2 MSTORE PUSH1 0x40 SWAP1 KECCAK256 SLOAD DUP2 JUMP JUMPDEST CALLVALUE DUP1 ISZERO PUSH2 0xED0 JUMPI PUSH1 0x0 DUP1 REVERT JUMPDEST POP PUSH1 0xB SLOAD PUSH2 0x45A SWAP1 PUSH1 0x1 PUSH1 0x1 PUSH1 0xA0 SHL SUB AND DUP2 JUMP JUMPDEST CALLVALUE DUP1 ISZERO PUSH2 0xEF0 JUMPI PUSH1 0x0 DUP1 REVERT JUMPDEST POP PUSH2 0x4A4 PUSH2 0xEFF CALLDATASIZE PUSH1 0x4 PUSH2 0x5260 JUMP JUMPDEST PUSH1 0x25 PUSH1 0x20 MSTORE PUSH1 0x0 SWAP1 DUP2 MSTORE PUSH1 0x40 SWAP1 KECCAK256 SLOAD DUP2 JUMP JUMPDEST PUSH1 0xB SLOAD PUSH1 0x1 PUSH1 0x1 PUSH1 0xA0 SHL SUB AND CALLER EQ PUSH2 0xF44 JUMPI PUSH1 0x40 MLOAD PUSH3 0x461BCD PUSH1 0xE5 SHL DUP2 MSTORE PUSH1 0x4 ADD PUSH2 0xF3B SWAP1 PUSH2 0x5767 JUMP JUMPDEST PUSH1 0x40 MLOAD DUP1 SWAP2 SUB SWAP1 REVERT JUMPDEST PUSH1 0xB SLOAD PUSH1 0x1 PUSH1 0x1 PUSH1 0xA0 SHL SUB AND PUSH1 0x0 SWAP1 DUP2 MSTORE PUSH1 0x1C PUSH1 0x20 MSTORE PUSH1 0x40 DUP1 DUP3 KECCAK256 SLOAD SWAP1 MLOAD SWAP1 SWAP2 CALLER SWAP2 DUP4 ISZERO PUSH2 0x8FC MUL SWAP2 DUP5 SWAP2 SWAP1 DUP2 DUP2 DUP2 DUP6 DUP9 DUP9 CALL SWAP4 POP POP POP POP ISZERO DUP1 ISZERO PUSH2 0xF8D JUMPI RETURNDATASIZE PUSH1 0x0 DUP1 RETURNDATACOPY RETURNDATASIZE PUSH1 0x0 REVERT JUMPDEST POP POP PUSH1 0xB DUP1 SLOAD PUSH1 0x1 PUSH1 0x1 PUSH1 0xA0 SHL SUB SWAP1 DUP2 AND PUSH1 0x0 SWAP1 DUP2 MSTORE PUSH1 0x1C PUSH1 0x20 SWAP1 DUP2 MSTORE PUSH1 0x40 DUP1 DUP4 KECCAK256 DUP4 SWAP1 SSTORE DUP5 SLOAD DUP5 AND DUP4 MSTORE PUSH1 0x1E DUP3 MSTORE DUP1 DUP4 KECCAK256 DUP4 SWAP1 SSTORE SWAP4 SLOAD SWAP1 SWAP3 AND DUP2 MSTORE PUSH1 0x1D SWAP1 SWAP2 MSTORE SWAP1 DUP2 KECCAK256 SSTORE JUMP JUMPDEST PUSH1 0x0 DUP2 DUP2 DUP1 JUMPDEST DUP3 MLOAD DUP2 LT ISZERO PUSH2 0x1044 JUMPI PUSH1 0x0 DUP4 DUP3 DUP2 MLOAD DUP2 LT PUSH2 0xFF7 JUMPI PUSH2 0xFF7 PUSH2 0x578C JUMP JUMPDEST ADD PUSH1 0x20 ADD MLOAD PUSH1 0xF8 SHR SWAP1 POP PUSH1 0x30 DUP2 LT DUP1 ISZERO SWAP1 PUSH2 0x1013 JUMPI POP PUSH1 0x39 DUP2 GT ISZERO JUMPDEST ISZERO PUSH2 0x103B JUMPI PUSH2 0x1023 PUSH1 0x30 DUP3 PUSH2 0x57B8 JUMP JUMPDEST PUSH2 0x102E DUP5 PUSH1 0xA PUSH2 0x57CB JUMP JUMPDEST PUSH2 0x1038 SWAP2 SWAP1 PUSH2 0x57E2 JUMP JUMPDEST SWAP3 POP JUMPDEST POP PUSH1 0x1 ADD PUSH2 0xFDA JUMP JUMPDEST POP SWAP4 SWAP3 POP POP POP JUMP JUMPDEST PUSH1 0x1 PUSH1 0x1 PUSH1 0xA0 SHL SUB DUP2 AND PUSH1 0x0 SWAP1 DUP2 MSTORE PUSH1 0x2A PUSH1 0x20 MSTORE PUSH1 0x40 DUP2 KECCAK256 SLOAD PUSH1 0x60 SWAP2 SWAP1 PUSH1 0x1 PUSH1 0x1 PUSH1 0x40 SHL SUB DUP2 GT ISZERO PUSH2 0x1080 JUMPI PUSH2 0x1080 PUSH2 0x4FB3 JUMP JUMPDEST PUSH1 0x40 MLOAD SWAP1 DUP1 DUP3 MSTORE DUP1 PUSH1 0x20 MUL PUSH1 0x20 ADD DUP3 ADD PUSH1 0x40 MSTORE DUP1 ISZERO PUSH2 0x10A9 JUMPI DUP2 PUSH1 0x20 ADD PUSH1 0x20 DUP3 MUL DUP1 CALLDATASIZE DUP4 CALLDATACOPY ADD SWAP1 POP JUMPDEST POP SWAP1 POP PUSH1 0x0 JUMPDEST PUSH1 0x1 PUSH1 0x1 PUSH1 0xA0 SHL SUB DUP5 AND PUSH1 0x0 SWAP1 DUP2 MSTORE PUSH1 0x2A PUSH1 0x20 MSTORE PUSH1 0x40 SWAP1 KECCAK256 SLOAD DUP2 LT ISZERO PUSH2 0x1129 JUMPI PUSH1 0x1 PUSH1 0x1 PUSH1 0xA0 SHL SUB DUP5 AND PUSH1 0x0 SWAP1 DUP2 MSTORE PUSH1 0x2A PUSH1 0x20 MSTORE PUSH1 0x40 SWAP1 KECCAK256 DUP1 SLOAD DUP3 SWAP1 DUP2 LT PUSH2 0x10F9 JUMPI PUSH2 0x10F9 PUSH2 0x578C JUMP JUMPDEST SWAP1 PUSH1 0x0 MSTORE PUSH1 0x20 PUSH1 0x0 KECCAK256 ADD SLOAD DUP3 DUP3 DUP2 MLOAD DUP2 LT PUSH2 0x1116 JUMPI PUSH2 0x1116 PUSH2 0x578C JUMP JUMPDEST PUSH1 0x20 SWAP1 DUP2 MUL SWAP2 SWAP1 SWAP2 ADD ADD MSTORE PUSH1 0x1 ADD PUSH2 0x10AF JUMP JUMPDEST POP SWAP3 SWAP2 POP POP JUMP JUMPDEST PUSH1 0x60 DUP4 PUSH1 0x0 PUSH2 0x113F DUP6 DUP6 PUSH2 0x57B8 JUMP JUMPDEST PUSH1 0x1 PUSH1 0x1 PUSH1 0x40 SHL SUB DUP2 GT ISZERO PUSH2 0x1156 JUMPI PUSH2 0x1156 PUSH2 0x4FB3 JUMP JUMPDEST PUSH1 0x40 MLOAD SWAP1 DUP1 DUP3 MSTORE DUP1 PUSH1 0x1F ADD PUSH1 0x1F NOT AND PUSH1 0x20 ADD DUP3 ADD PUSH1 0x40 MSTORE DUP1 ISZERO PUSH2 0x1180 JUMPI PUSH1 0x20 DUP3 ADD DUP2 DUP1 CALLDATASIZE DUP4 CALLDATACOPY ADD SWAP1 POP JUMPDEST POP SWAP1 POP DUP5 JUMPDEST DUP5 DUP2 LT ISZERO PUSH2 0x11E8 JUMPI DUP3 DUP2 DUP2 MLOAD DUP2 LT PUSH2 0x119F JUMPI PUSH2 0x119F PUSH2 0x578C JUMP JUMPDEST ADD PUSH1 0x20 ADD MLOAD PUSH1 0x1 PUSH1 0x1 PUSH1 0xF8 SHL SUB NOT AND DUP3 PUSH2 0x11B9 DUP9 DUP5 PUSH2 0x57B8 JUMP JUMPDEST DUP2 MLOAD DUP2 LT PUSH2 0x11C9 JUMPI PUSH2 0x11C9 PUSH2 0x578C JUMP JUMPDEST PUSH1 0x20 ADD ADD SWAP1 PUSH1 0x1 PUSH1 0x1 PUSH1 0xF8 SHL SUB NOT AND SWAP1 DUP2 PUSH1 0x0 BYTE SWAP1 MSTORE8 POP PUSH1 0x1 ADD PUSH2 0x1185 JUMP JUMPDEST POP SWAP6 SWAP5 POP POP POP POP POP JUMP JUMPDEST CALLER PUSH1 0x1 PUSH1 0x1 PUSH1 0xA0 SHL SUB PUSH32 0x0 AND EQ PUSH2 0x126A JUMPI PUSH1 0x40 MLOAD PUSH3 0x461BCD PUSH1 0xE5 SHL DUP2 MSTORE PUSH1 0x20 PUSH1 0x4 DUP3 ADD MSTORE PUSH1 0x1F PUSH1 0x24 DUP3 ADD MSTORE PUSH32 0x6F6E6C792056524620563220777261707065722063616E2066756C66696C6C00 PUSH1 0x44 DUP3 ADD MSTORE PUSH1 0x64 ADD PUSH2 0xF3B JUMP JUMPDEST PUSH2 0x1274 DUP3 DUP3 PUSH2 0x3735 JUMP JUMPDEST POP POP JUMP JUMPDEST PUSH1 0xB SLOAD PUSH1 0x1 PUSH1 0x1 PUSH1 0xA0 SHL SUB AND CALLER EQ PUSH2 0x12A2 JUMPI PUSH1 0x40 MLOAD PUSH3 0x461BCD PUSH1 0xE5 SHL DUP2 MSTORE PUSH1 0x4 ADD PUSH2 0xF3B SWAP1 PUSH2 0x5767 JUMP JUMPDEST PUSH1 0xA DUP1 SLOAD PUSH1 0x1 PUSH1 0x1 PUSH1 0xA0 SHL SUB NOT AND PUSH1 0x1 PUSH1 0x1 PUSH1 0xA0 SHL SUB SWAP3 SWAP1 SWAP3 AND SWAP2 SWAP1 SWAP2 OR SWAP1 SSTORE JUMP JUMPDEST PUSH1 0x0 DUP2 DUP2 MSTORE PUSH1 0x15 PUSH1 0x20 MSTORE PUSH1 0x40 SWAP1 KECCAK256 PUSH1 0x3 DUP2 ADD SLOAD CALLVALUE EQ PUSH2 0x12F5 JUMPI PUSH1 0x40 MLOAD PUSH3 0x461BCD PUSH1 0xE5 SHL DUP2 MSTORE PUSH1 0x4 ADD PUSH2 0xF3B SWAP1 PUSH2 0x57F5 JUMP JUMPDEST PUSH1 0x0 PUSH1 0xB DUP3 ADD SLOAD PUSH1 0x1 PUSH1 0xA0 SHL SWAP1 DIV PUSH1 0xFF AND PUSH1 0x6 DUP2 GT ISZERO PUSH2 0x1317 JUMPI PUSH2 0x1317 PUSH2 0x55AD JUMP JUMPDEST EQ DUP1 PUSH2 0x1342 JUMPI POP PUSH1 0x5 PUSH1 0xB DUP3 ADD SLOAD PUSH1 0x1 PUSH1 0xA0 SHL SWAP1 DIV PUSH1 0xFF AND PUSH1 0x6 DUP2 GT ISZERO PUSH2 0x1340 JUMPI PUSH2 0x1340 PUSH2 0x55AD JUMP JUMPDEST EQ JUMPDEST PUSH2 0x1385 JUMPI PUSH1 0x40 MLOAD PUSH3 0x461BCD PUSH1 0xE5 SHL DUP2 MSTORE PUSH1 0x20 PUSH1 0x4 DUP3 ADD MSTORE PUSH1 0x14 PUSH1 0x24 DUP3 ADD MSTORE PUSH20 0x4F7468657220706C6179657220706C6179696E67 PUSH1 0x60 SHL PUSH1 0x44 DUP3 ADD MSTORE PUSH1 0x64 ADD PUSH2 0xF3B JUMP JUMPDEST PUSH1 0x40 DUP1 MLOAD PUSH1 0x1 DUP1 DUP3 MSTORE DUP2 DUP4 ADD SWAP1 SWAP3 MSTORE PUSH1 0x0 SWAP2 PUSH1 0x20 DUP1 DUP4 ADD SWAP1 DUP1 CALLDATASIZE DUP4 CALLDATACOPY ADD SWAP1 POP POP SWAP1 POP DUP4 DUP2 PUSH1 0x0 DUP2 MLOAD DUP2 LT PUSH2 0x13BB JUMPI PUSH2 0x13BB PUSH2 0x578C JUMP JUMPDEST PUSH1 0x20 SWAP1 DUP2 MUL SWAP2 SWAP1 SWAP2 ADD ADD MSTORE PUSH1 0xB DUP3 ADD DUP1 SLOAD PUSH1 0xFF PUSH1 0xA0 SHL NOT AND PUSH1 0x1 PUSH1 0xA2 SHL OR SWAP1 SSTORE PUSH2 0x13E7 DUP4 CALLER CALLVALUE DUP5 PUSH2 0x3948 JUMP JUMPDEST PUSH2 0x13F2 DUP4 DUP6 CALLER PUSH2 0x3B8C JUMP JUMPDEST POP POP POP POP JUMP JUMPDEST PUSH1 0xD SLOAD PUSH1 0xFF AND ISZERO PUSH2 0x1440 JUMPI PUSH1 0x40 MLOAD PUSH3 0x461BCD PUSH1 0xE5 SHL DUP2 MSTORE PUSH1 0x20 PUSH1 0x4 DUP3 ADD MSTORE PUSH1 0x12 PUSH1 0x24 DUP3 ADD MSTORE PUSH18 0x72657175697265642063616C6C2074727565 PUSH1 0x70 SHL PUSH1 0x44 DUP3 ADD MSTORE PUSH1 0x64 ADD PUSH2 0xF3B JUMP JUMPDEST PUSH1 0xD DUP1 SLOAD PUSH1 0xFF NOT AND PUSH1 0x1 OR SWAP1 SSTORE PUSH1 0x0 PUSH2 0x1457 PUSH2 0x3C1D JUMP JUMPDEST SWAP1 POP PUSH2 0x13F2 DUP2 PUSH1 0x1 PUSH2 0x3D6D JUMP JUMPDEST PUSH1 0xD SLOAD PUSH1 0x40 MLOAD PUSH4 0xEFD46065 PUSH1 0xE0 SHL DUP2 MSTORE CALLER PUSH1 0x4 DUP3 ADD MSTORE PUSH2 0x100 SWAP1 SWAP2 DIV PUSH1 0x1 PUSH1 0x1 PUSH1 0xA0 SHL SUB AND SWAP1 PUSH4 0xEFD46065 SWAP1 PUSH1 0x24 ADD PUSH1 0x20 PUSH1 0x40 MLOAD DUP1 DUP4 SUB DUP2 DUP7 GAS STATICCALL ISZERO DUP1 ISZERO PUSH2 0x14B0 JUMPI RETURNDATASIZE PUSH1 0x0 DUP1 RETURNDATACOPY RETURNDATASIZE PUSH1 0x0 REVERT JUMPDEST POP POP POP POP PUSH1 0x40 MLOAD RETURNDATASIZE PUSH1 0x1F NOT PUSH1 0x1F DUP3 ADD AND DUP3 ADD DUP1 PUSH1 0x40 MSTORE POP DUP2 ADD SWAP1 PUSH2 0x14D4 SWAP2 SWAP1 PUSH2 0x5820 JUMP JUMPDEST PUSH2 0x1520 JUMPI PUSH1 0x40 MLOAD PUSH3 0x461BCD PUSH1 0xE5 SHL DUP2 MSTORE PUSH1 0x20 PUSH1 0x4 DUP3 ADD MSTORE PUSH1 0x18 PUSH1 0x24 DUP3 ADD MSTORE PUSH32 0x4E6F74206120726567697374657265642063726561746F720000000000000000 PUSH1 0x44 DUP3 ADD MSTORE PUSH1 0x64 ADD PUSH2 0xF3B JUMP JUMPDEST PUSH1 0xD SLOAD PUSH1 0x40 MLOAD PUSH4 0x1F2182C9 PUSH1 0xE3 SHL DUP2 MSTORE CALLER PUSH1 0x4 DUP3 ADD MSTORE DUP12 SWAP2 PUSH2 0x100 SWAP1 DIV PUSH1 0x1 PUSH1 0x1 PUSH1 0xA0 SHL SUB AND SWAP1 PUSH4 0xF90C1648 SWAP1 PUSH1 0x24 ADD PUSH1 0x20 PUSH1 0x40 MLOAD DUP1 DUP4 SUB DUP2 DUP7 GAS STATICCALL ISZERO DUP1 ISZERO PUSH2 0x156D JUMPI RETURNDATASIZE PUSH1 0x0 DUP1 RETURNDATACOPY RETURNDATASIZE PUSH1 0x0 REVERT JUMPDEST POP POP POP POP PUSH1 0x40 MLOAD RETURNDATASIZE PUSH1 0x1F NOT PUSH1 0x1F DUP3 ADD AND DUP3 ADD DUP1 PUSH1 0x40 MSTORE POP DUP2 ADD SWAP1 PUSH2 0x1591 SWAP2 SWAP1 PUSH2 0x583D JUMP JUMPDEST GT ISZERO PUSH2 0x15EA JUMPI PUSH1 0x40 MLOAD PUSH3 0x461BCD PUSH1 0xE5 SHL DUP2 MSTORE PUSH1 0x20 PUSH1 0x4 DUP3 ADD MSTORE PUSH1 0x22 PUSH1 0x24 DUP3 ADD MSTORE PUSH32 0x4E6F7420616C6C6F776564206D696E696D756D2077696E6E696E6720616D6F75 PUSH1 0x44 DUP3 ADD MSTORE PUSH2 0x1B9D PUSH1 0xF2 SHL PUSH1 0x64 DUP3 ADD MSTORE PUSH1 0x84 ADD PUSH2 0xF3B JUMP JUMPDEST PUSH1 0xD SLOAD PUSH1 0x40 MLOAD PUSH4 0xB0A92791 PUSH1 0xE0 SHL DUP2 MSTORE CALLER PUSH1 0x4 DUP3 ADD MSTORE DUP12 SWAP2 PUSH2 0x100 SWAP1 DIV PUSH1 0x1 PUSH1 0x1 PUSH1 0xA0 SHL SUB AND SWAP1 PUSH4 0xB0A92791 SWAP1 PUSH1 0x24 ADD PUSH1 0x20 PUSH1 0x40 MLOAD DUP1 DUP4 SUB DUP2 DUP7 GAS STATICCALL ISZERO DUP1 ISZERO PUSH2 0x1637 JUMPI RETURNDATASIZE PUSH1 0x0 DUP1 RETURNDATACOPY RETURNDATASIZE PUSH1 0x0 REVERT JUMPDEST POP POP POP POP PUSH1 0x40 MLOAD RETURNDATASIZE PUSH1 0x1F NOT PUSH1 0x1F DUP3 ADD AND DUP3 ADD DUP1 PUSH1 0x40 MSTORE POP DUP2 ADD SWAP1 PUSH2 0x165B SWAP2 SWAP1 PUSH2 0x583D JUMP JUMPDEST LT ISZERO PUSH2 0x16B4 JUMPI PUSH1 0x40 MLOAD PUSH3 0x461BCD PUSH1 0xE5 SHL DUP2 MSTORE PUSH1 0x20 PUSH1 0x4 DUP3 ADD MSTORE PUSH1 0x22 PUSH1 0x24 DUP3 ADD MSTORE PUSH32 0x4E6F7420616C6C6F776564206D6178696D756D2077696E6E696E6720616D6F75 PUSH1 0x44 DUP3 ADD MSTORE PUSH2 0x1B9D PUSH1 0xF2 SHL PUSH1 0x64 DUP3 ADD MSTORE PUSH1 0x84 ADD PUSH2 0xF3B JUMP JUMPDEST PUSH1 0x40 MLOAD PUSH4 0x70A08231 PUSH1 0xE0 SHL DUP2 MSTORE ADDRESS PUSH1 0x4 DUP3 ADD MSTORE PUSH1 0x1 SWAP1 PUSH32 0x0 PUSH1 0x1 PUSH1 0x1 PUSH1 0xA0 SHL SUB AND SWAP1 PUSH4 0x70A08231 SWAP1 PUSH1 0x24 ADD PUSH1 0x20 PUSH1 0x40 MLOAD DUP1 DUP4 SUB DUP2 DUP7 GAS STATICCALL ISZERO DUP1 ISZERO PUSH2 0x171B JUMPI RETURNDATASIZE PUSH1 0x0 DUP1 RETURNDATACOPY RETURNDATASIZE PUSH1 0x0 REVERT JUMPDEST POP POP POP POP PUSH1 0x40 MLOAD RETURNDATASIZE PUSH1 0x1F NOT PUSH1 0x1F DUP3 ADD AND DUP3 ADD DUP1 PUSH1 0x40 MSTORE POP DUP2 ADD SWAP1 PUSH2 0x173F SWAP2 SWAP1 PUSH2 0x583D JUMP JUMPDEST LT ISZERO PUSH2 0x175D JUMPI PUSH1 0x40 MLOAD PUSH3 0x461BCD PUSH1 0xE5 SHL DUP2 MSTORE PUSH1 0x4 ADD PUSH2 0xF3B SWAP1 PUSH2 0x5856 JUMP JUMPDEST PUSH1 0x0 DUP11 GT PUSH2 0x179E JUMPI PUSH1 0x40 MLOAD PUSH3 0x461BCD PUSH1 0xE5 SHL DUP2 MSTORE PUSH1 0x20 PUSH1 0x4 DUP3 ADD MSTORE PUSH1 0xE PUSH1 0x24 DUP3 ADD MSTORE PUSH14 0x4C6F7720746F74616C5072696365 PUSH1 0x90 SHL PUSH1 0x44 DUP3 ADD MSTORE PUSH1 0x64 ADD PUSH2 0xF3B JUMP JUMPDEST PUSH2 0x17C2 PUSH1 0x64 PUSH1 0x4 SLOAD DUP13 PUSH2 0x17B1 SWAP2 SWAP1 PUSH2 0x57CB JUMP JUMPDEST PUSH2 0x17BB SWAP2 SWAP1 PUSH2 0x58B7 JUMP JUMPDEST DUP12 SWAP1 PUSH2 0x3F1A JUMP JUMPDEST CALLVALUE EQ PUSH2 0x1806 JUMPI PUSH1 0x40 MLOAD PUSH3 0x461BCD PUSH1 0xE5 SHL DUP2 MSTORE PUSH1 0x20 PUSH1 0x4 DUP3 ADD MSTORE PUSH1 0x13 PUSH1 0x24 DUP3 ADD MSTORE PUSH19 0x416D6F756E74206E6F74206D61746368696E67 PUSH1 0x68 SHL PUSH1 0x44 DUP3 ADD MSTORE PUSH1 0x64 ADD PUSH2 0xF3B JUMP JUMPDEST DUP6 DUP12 GT ISZERO PUSH2 0x1849 JUMPI PUSH1 0x40 MLOAD PUSH3 0x461BCD PUSH1 0xE5 SHL DUP2 MSTORE PUSH1 0x20 PUSH1 0x4 DUP3 ADD MSTORE PUSH1 0x10 PUSH1 0x24 DUP3 ADD MSTORE PUSH16 0x6361706163697479206973206C657373 PUSH1 0x80 SHL PUSH1 0x44 DUP3 ADD MSTORE PUSH1 0x64 ADD PUSH2 0xF3B JUMP JUMPDEST TIMESTAMP DUP10 LT ISZERO PUSH2 0x188D JUMPI PUSH1 0x40 MLOAD PUSH3 0x461BCD PUSH1 0xE5 SHL DUP2 MSTORE PUSH1 0x20 PUSH1 0x4 DUP3 ADD MSTORE PUSH1 0x11 PUSH1 0x24 DUP3 ADD MSTORE PUSH17 0x14DD185C9D081D1A5B59481C185CDCD959 PUSH1 0x7A SHL PUSH1 0x44 DUP3 ADD MSTORE PUSH1 0x64 ADD PUSH2 0xF3B JUMP JUMPDEST DUP8 DUP10 LT PUSH2 0x18DC JUMPI PUSH1 0x40 MLOAD PUSH3 0x461BCD PUSH1 0xE5 SHL DUP2 MSTORE PUSH1 0x20 PUSH1 0x4 DUP3 ADD MSTORE PUSH1 0x1D PUSH1 0x24 DUP3 ADD MSTORE PUSH32 0x456E642074696D65206C657373207468616E2073746172742074696D65000000 PUSH1 0x44 DUP3 ADD MSTORE PUSH1 0x64 ADD PUSH2 0xF3B JUMP JUMPDEST PUSH1 0x0 DUP2 PUSH1 0x3 DUP2 GT ISZERO PUSH2 0x18F0 JUMPI PUSH2 0x18F0 PUSH2 0x55AD JUMP JUMPDEST EQ DUP1 PUSH2 0x190D JUMPI POP PUSH1 0x1 DUP2 PUSH1 0x3 DUP2 GT ISZERO PUSH2 0x190B JUMPI PUSH2 0x190B PUSH2 0x55AD JUMP JUMPDEST EQ JUMPDEST ISZERO PUSH2 0x195A JUMPI DUP11 PUSH1 0x1 EQ PUSH2 0x195A JUMPI PUSH1 0x40 MLOAD PUSH3 0x461BCD PUSH1 0xE5 SHL DUP2 MSTORE PUSH1 0x20 PUSH1 0x4 DUP3 ADD MSTORE PUSH1 0x15 PUSH1 0x24 DUP3 ADD MSTORE PUSH21 0x13DB9B1E480C481B9D5B58995C88185B1B1BDDD959 PUSH1 0x5A SHL PUSH1 0x44 DUP3 ADD MSTORE PUSH1 0x64 ADD PUSH2 0xF3B JUMP JUMPDEST PUSH1 0x3 DUP2 PUSH1 0x3 DUP2 GT ISZERO PUSH2 0x196E JUMPI PUSH2 0x196E PUSH2 0x55AD JUMP JUMPDEST SUB PUSH2 0x19C4 JUMPI PUSH1 0xA DUP12 GT ISZERO PUSH2 0x19C4 JUMPI PUSH1 0x40 MLOAD PUSH3 0x461BCD PUSH1 0xE5 SHL DUP2 MSTORE PUSH1 0x20 PUSH1 0x4 DUP3 ADD MSTORE PUSH1 0x1C PUSH1 0x24 DUP3 ADD MSTORE PUSH32 0x204F6E6C7920313020636F6D62696E6174696F6E20616C6C6F77656400000000 PUSH1 0x44 DUP3 ADD MSTORE PUSH1 0x64 ADD PUSH2 0xF3B JUMP JUMPDEST PUSH1 0x2 DUP1 SLOAD PUSH1 0x0 SWAP1 DUP2 MSTORE PUSH1 0x16 PUSH1 0x20 MSTORE PUSH1 0x40 SWAP1 KECCAK256 PUSH1 0x5 ADD DUP1 SLOAD PUSH2 0xFFFF NOT AND PUSH1 0x1 OR SWAP1 SSTORE SLOAD PUSH2 0x19FB SWAP1 DUP14 DUP14 DUP14 DUP14 DUP14 DUP14 DUP14 DUP14 DUP13 DUP15 DUP14 CALLER PUSH2 0x3F2D JUMP JUMPDEST PUSH1 0x2 SLOAD PUSH1 0x0 SWAP1 DUP2 MSTORE PUSH1 0x15 PUSH1 0x20 MSTORE PUSH1 0x40 SWAP1 KECCAK256 PUSH1 0xD ADD DUP1 SLOAD DUP3 SWAP2 SWAP1 PUSH1 0xFF NOT AND PUSH1 0x1 DUP4 PUSH1 0x3 DUP2 GT ISZERO PUSH2 0x1A2C JUMPI PUSH2 0x1A2C PUSH2 0x55AD JUMP JUMPDEST MUL OR SWAP1 SSTORE POP PUSH1 0x64 PUSH2 0x1A48 DUP14 PUSH2 0x1A42 DUP14 PUSH1 0xA PUSH2 0x422E JUMP JUMPDEST SWAP1 PUSH2 0x423A JUMP JUMPDEST PUSH2 0x1A52 SWAP2 SWAP1 PUSH2 0x58B7 JUMP JUMPDEST PUSH2 0x1A5C DUP12 DUP15 PUSH2 0x423A JUMP JUMPDEST PUSH2 0x1A66 SWAP2 SWAP1 PUSH2 0x57E2 JUMP JUMPDEST PUSH1 0x2 SLOAD PUSH1 0x0 SWAP1 DUP2 MSTORE PUSH1 0x15 PUSH1 0x20 MSTORE PUSH1 0x40 DUP1 DUP3 KECCAK256 PUSH1 0x5 ADD SWAP3 SWAP1 SWAP3 SSTORE PUSH1 0xD SLOAD SWAP2 MLOAD PUSH4 0x244903D1 PUSH1 0xE2 SHL DUP2 MSTORE CALLER PUSH1 0x4 DUP3 ADD MSTORE SWAP1 SWAP2 PUSH2 0x100 SWAP1 DIV PUSH1 0x1 PUSH1 0x1 PUSH1 0xA0 SHL SUB AND SWAP1 PUSH4 0x91240F44 SWAP1 PUSH1 0x24 ADD PUSH1 0x20 PUSH1 0x40 MLOAD DUP1 DUP4 SUB DUP2 DUP7 GAS STATICCALL ISZERO DUP1 ISZERO PUSH2 0x1ACB JUMPI RETURNDATASIZE PUSH1 0x0 DUP1 RETURNDATACOPY RETURNDATASIZE PUSH1 0x0 REVERT JUMPDEST POP POP POP POP PUSH1 0x40 MLOAD RETURNDATASIZE PUSH1 0x1F NOT PUSH1 0x1F DUP3 ADD AND DUP3 ADD DUP1 PUSH1 0x40 MSTORE POP DUP2 ADD SWAP1 PUSH2 0x1AEF SWAP2 SWAP1 PUSH2 0x58CB JUMP JUMPDEST SWAP1 POP PUSH1 0x1 PUSH1 0x1 PUSH1 0xA0 SHL SUB DUP2 AND ISZERO PUSH2 0x1B48 JUMPI PUSH2 0x1B0B DUP12 PUSH1 0x64 PUSH2 0x423A JUMP JUMPDEST PUSH1 0x1 PUSH1 0x1 PUSH1 0xA0 SHL SUB DUP3 AND PUSH1 0x0 SWAP1 DUP2 MSTORE PUSH1 0x18 PUSH1 0x20 MSTORE PUSH1 0x40 SWAP1 KECCAK256 SLOAD PUSH2 0x1B2E SWAP2 SWAP1 PUSH2 0x57E2 JUMP JUMPDEST PUSH1 0x1 PUSH1 0x1 PUSH1 0xA0 SHL SUB DUP3 AND PUSH1 0x0 SWAP1 DUP2 MSTORE PUSH1 0x18 PUSH1 0x20 MSTORE PUSH1 0x40 SWAP1 KECCAK256 SSTORE JUMPDEST PUSH1 0x3 DUP3 PUSH1 0x3 DUP2 GT ISZERO PUSH2 0x1B5C JUMPI PUSH2 0x1B5C PUSH2 0x55AD JUMP JUMPDEST EQ PUSH2 0x1B85 JUMPI PUSH1 0x2 SLOAD PUSH1 0x0 SWAP1 DUP2 MSTORE PUSH1 0x15 PUSH1 0x20 MSTORE PUSH1 0x40 SWAP1 KECCAK256 PUSH1 0xB ADD DUP1 SLOAD PUSH1 0xFF PUSH1 0xA0 SHL NOT AND SWAP1 SSTORE PUSH2 0x1BB8 JUMP JUMPDEST PUSH1 0x2 DUP1 SLOAD PUSH1 0x0 SWAP1 DUP2 MSTORE PUSH1 0x15 PUSH1 0x20 MSTORE PUSH1 0x40 DUP2 KECCAK256 PUSH1 0xB ADD DUP1 SLOAD PUSH1 0xFF PUSH1 0xA0 SHL NOT AND PUSH1 0x3 PUSH1 0xA1 SHL OR SWAP1 SSTORE SWAP1 SLOAD PUSH2 0x1BB6 SWAP2 PUSH2 0x3D6D JUMP JUMPDEST POP JUMPDEST PUSH32 0x7B34D9BED3342D423E2DA4CD837BFFE9ED9C7056E85ED014DB0E52A47C94A113 CALLER PUSH1 0x2 SLOAD DUP16 DUP15 DUP15 DUP15 DUP15 DUP11 DUP11 PUSH1 0x3 DUP2 GT ISZERO PUSH2 0x1BF5 JUMPI PUSH2 0x1BF5 PUSH2 0x55AD JUMP JUMPDEST PUSH1 0x40 DUP1 MLOAD PUSH1 0x1 PUSH1 0x1 PUSH1 0xA0 SHL SUB SWAP11 DUP12 AND DUP2 MSTORE PUSH1 0x20 DUP2 ADD SWAP10 SWAP1 SWAP10 MSTORE DUP9 ADD SWAP7 SWAP1 SWAP7 MSTORE PUSH1 0x60 DUP8 ADD SWAP5 SWAP1 SWAP5 MSTORE PUSH1 0x80 DUP7 ADD SWAP3 SWAP1 SWAP3 MSTORE PUSH1 0xA0 DUP6 ADD MSTORE PUSH1 0xC0 DUP5 ADD MSTORE SWAP1 SWAP3 AND PUSH1 0xE0 DUP3 ADD MSTORE PUSH2 0x100 DUP2 ADD SWAP2 SWAP1 SWAP2 MSTORE PUSH2 0x120 ADD PUSH1 0x40 MLOAD DUP1 SWAP2 SUB SWAP1 LOG1 PUSH1 0x2 DUP1 SLOAD SWAP1 PUSH1 0x0 PUSH2 0x1C5B DUP4 PUSH2 0x58E8 JUMP JUMPDEST SWAP2 SWAP1 POP SSTORE POP POP POP POP POP POP POP POP POP POP POP POP POP POP JUMP JUMPDEST PUSH1 0xB SLOAD PUSH1 0x1 PUSH1 0x1 PUSH1 0xA0 SHL SUB AND CALLER EQ PUSH2 0x1C99 JUMPI PUSH1 0x40 MLOAD PUSH3 0x461BCD PUSH1 0xE5 SHL DUP2 MSTORE PUSH1 0x4 ADD PUSH2 0xF3B SWAP1 PUSH2 0x5767 JUMP JUMPDEST PUSH1 0x40 MLOAD PUSH4 0x70A08231 PUSH1 0xE0 SHL DUP2 MSTORE ADDRESS PUSH1 0x4 DUP3 ADD MSTORE PUSH1 0x1 PUSH1 0x1 PUSH1 0xA0 SHL SUB DUP3 AND SWAP1 PUSH4 0x70A08231 SWAP1 PUSH1 0x24 ADD PUSH1 0x20 PUSH1 0x40 MLOAD DUP1 DUP4 SUB DUP2 DUP7 GAS STATICCALL ISZERO DUP1 ISZERO PUSH2 0x1CDD JUMPI RETURNDATASIZE PUSH1 0x0 DUP1 RETURNDATACOPY RETURNDATASIZE PUSH1 0x0 REVERT JUMPDEST POP POP POP POP PUSH1 0x40 MLOAD RETURNDATASIZE PUSH1 0x1F NOT PUSH1 0x1F DUP3 ADD AND DUP3 ADD DUP1 PUSH1 0x40 MSTORE POP DUP2 ADD SWAP1 PUSH2 0x1D01 SWAP2 SWAP1 PUSH2 0x583D JUMP JUMPDEST DUP4 GT ISZERO PUSH2 0x1D3E JUMPI PUSH1 0x40 MLOAD PUSH3 0x461BCD PUSH1 0xE5 SHL DUP2 MSTORE PUSH1 0x20 PUSH1 0x4 DUP3 ADD MSTORE PUSH1 0xB PUSH1 0x24 DUP3 ADD MSTORE PUSH11 0x6C6F772062616C616E6365 PUSH1 0xA8 SHL PUSH1 0x44 DUP3 ADD MSTORE PUSH1 0x64 ADD PUSH2 0xF3B JUMP JUMPDEST PUSH1 0x40 MLOAD PUSH4 0xA9059CBB PUSH1 0xE0 SHL DUP2 MSTORE PUSH1 0x1 PUSH1 0x1 PUSH1 0xA0 SHL SUB DUP4 DUP2 AND PUSH1 0x4 DUP4 ADD MSTORE PUSH1 0x24 DUP3 ADD DUP6 SWAP1 MSTORE DUP3 AND SWAP1 PUSH4 0xA9059CBB SWAP1 PUSH1 0x44 ADD PUSH1 0x20 PUSH1 0x40 MLOAD DUP1 DUP4 SUB DUP2 PUSH1 0x0 DUP8 GAS CALL ISZERO DUP1 ISZERO PUSH2 0x1D8D JUMPI RETURNDATASIZE PUSH1 0x0 DUP1 RETURNDATACOPY RETURNDATASIZE PUSH1 0x0 REVERT JUMPDEST POP POP POP POP PUSH1 0x40 MLOAD RETURNDATASIZE PUSH1 0x1F NOT PUSH1 0x1F DUP3 ADD AND DUP3 ADD DUP1 PUSH1 0x40 MSTORE POP DUP2 ADD SWAP1 PUSH2 0x13F2 SWAP2 SWAP1 PUSH2 0x5820 JUMP JUMPDEST PUSH1 0x0 DUP2 DUP2 MSTORE PUSH1 0x24 PUSH1 0x20 MSTORE PUSH1 0x40 SWAP1 KECCAK256 SLOAD DUP3 EQ PUSH2 0x1E04 JUMPI PUSH1 0x40 MLOAD PUSH3 0x461BCD PUSH1 0xE5 SHL DUP2 MSTORE PUSH1 0x20 PUSH1 0x4 DUP3 ADD MSTORE PUSH1 0x13 PUSH1 0x24 DUP3 ADD MSTORE PUSH19 0x98DEE8E8CAE4F24092C840DAD2E6DAC2E8C6D PUSH1 0x6B SHL PUSH1 0x44 DUP3 ADD MSTORE PUSH1 0x64 ADD PUSH2 0xF3B JUMP JUMPDEST PUSH1 0x0 DUP3 DUP2 MSTORE PUSH1 0x15 PUSH1 0x20 MSTORE PUSH1 0x40 SWAP1 KECCAK256 PUSH1 0xA DUP2 ADD SLOAD PUSH1 0x1 PUSH1 0x1 PUSH1 0xA0 SHL SUB AND DUP1 ISZERO PUSH2 0x211A JUMPI PUSH1 0x4 DUP3 ADD SLOAD PUSH1 0x5 SLOAD PUSH1 0x0 SWAP1 PUSH2 0x1E43 SWAP1 PUSH1 0x64 SWAP1 PUSH2 0x1A42 SWAP1 DUP6 SWAP1 PUSH2 0x422E JUMP JUMPDEST SWAP1 POP PUSH1 0x0 PUSH2 0x1E51 DUP4 DUP4 PUSH2 0x4246 JUMP JUMPDEST PUSH1 0x40 MLOAD SWAP1 SWAP2 POP PUSH1 0x1 PUSH1 0x1 PUSH1 0xA0 SHL SUB DUP6 AND SWAP1 DUP3 ISZERO PUSH2 0x8FC MUL SWAP1 DUP4 SWAP1 PUSH1 0x0 DUP2 DUP2 DUP2 DUP6 DUP9 DUP9 CALL SWAP4 POP POP POP POP ISZERO DUP1 ISZERO PUSH2 0x1E8A JUMPI RETURNDATASIZE PUSH1 0x0 DUP1 RETURNDATACOPY RETURNDATASIZE PUSH1 0x0 REVERT JUMPDEST POP PUSH1 0xB SLOAD PUSH1 0x1 PUSH1 0x1 PUSH1 0xA0 SHL SUB AND PUSH1 0x0 SWAP1 DUP2 MSTORE PUSH1 0x20 DUP1 MSTORE PUSH1 0x40 DUP2 KECCAK256 DUP1 SLOAD DUP4 SWAP3 SWAP1 PUSH2 0x1EB4 SWAP1 DUP5 SWAP1 PUSH2 0x57E2 JUMP JUMPDEST SWAP1 SWAP2 SSTORE POP POP PUSH1 0xB DUP6 ADD SLOAD PUSH1 0x40 DUP1 MLOAD PUSH1 0x1 PUSH1 0x1 PUSH1 0xA0 SHL SUB SWAP3 DUP4 AND DUP1 DUP3 MSTORE PUSH1 0x20 DUP3 ADD DUP6 SWAP1 MSTORE SWAP3 DUP11 SWAP3 SWAP1 DUP9 AND SWAP2 PUSH32 0x3EEB0636C95176C1EC01B2057BD7274D8FF9CAE437A895FA7C9B6D35290AF148 SWAP2 ADD PUSH1 0x40 MLOAD DUP1 SWAP2 SUB SWAP1 LOG3 PUSH1 0xB SLOAD PUSH1 0x1 PUSH1 0x1 PUSH1 0xA0 SHL SUB AND PUSH1 0x0 SWAP1 DUP2 MSTORE PUSH1 0x1C PUSH1 0x20 MSTORE PUSH1 0x40 DUP2 KECCAK256 DUP1 SLOAD DUP6 SWAP3 SWAP1 PUSH2 0x1F33 SWAP1 DUP5 SWAP1 PUSH2 0x57E2 JUMP JUMPDEST SWAP1 SWAP2 SSTORE POP POP PUSH1 0xB SLOAD PUSH1 0x1 PUSH1 0x1 PUSH1 0xA0 SHL SUB AND PUSH1 0x0 SWAP1 DUP2 MSTORE PUSH1 0x1E PUSH1 0x20 MSTORE PUSH1 0x40 DUP2 KECCAK256 DUP1 SLOAD DUP6 SWAP3 SWAP1 PUSH2 0x1F62 SWAP1 DUP5 SWAP1 PUSH2 0x57E2 JUMP JUMPDEST SWAP1 SWAP2 SSTORE POP POP PUSH1 0xE DUP1 SLOAD SWAP1 PUSH1 0x0 PUSH2 0x1F77 DUP4 PUSH2 0x58E8 JUMP JUMPDEST SWAP1 SWAP2 SSTORE POP POP PUSH1 0x6 DUP7 ADD SLOAD PUSH1 0x0 DUP10 DUP2 MSTORE PUSH1 0x1F PUSH1 0x20 MSTORE PUSH1 0x40 DUP2 KECCAK256 SLOAD SWAP1 SWAP2 PUSH2 0x1FA3 SWAP2 PUSH1 0x64 SWAP2 PUSH2 0x1A42 SWAP2 SWAP1 PUSH2 0x422E JUMP JUMPDEST SWAP1 POP DUP1 PUSH1 0xF PUSH1 0x0 DUP3 DUP3 SLOAD PUSH2 0x1FB7 SWAP2 SWAP1 PUSH2 0x57E2 JUMP JUMPDEST SWAP1 SWAP2 SSTORE POP POP PUSH1 0x9 DUP8 ADD SLOAD PUSH1 0x1 PUSH1 0x1 PUSH1 0xA0 SHL SUB AND PUSH1 0x0 SWAP1 DUP2 MSTORE PUSH1 0x2F PUSH1 0x20 MSTORE PUSH1 0x40 DUP2 KECCAK256 DUP1 SLOAD DUP4 SWAP3 SWAP1 PUSH2 0x1FE8 SWAP1 DUP5 SWAP1 PUSH2 0x57E2 JUMP JUMPDEST SWAP1 SWAP2 SSTORE POP POP PUSH1 0x9 DUP8 ADD SLOAD PUSH1 0x40 MLOAD PUSH1 0x1 PUSH1 0x1 PUSH1 0xA0 SHL SUB SWAP1 SWAP2 AND SWAP1 DUP3 ISZERO PUSH2 0x8FC MUL SWAP1 DUP4 SWAP1 PUSH1 0x0 DUP2 DUP2 DUP2 DUP6 DUP9 DUP9 CALL SWAP4 POP POP POP POP ISZERO DUP1 ISZERO PUSH2 0x2029 JUMPI RETURNDATASIZE PUSH1 0x0 DUP1 RETURNDATACOPY RETURNDATASIZE PUSH1 0x0 REVERT JUMPDEST POP PUSH1 0x0 DUP10 DUP2 MSTORE PUSH1 0x1F PUSH1 0x20 MSTORE PUSH1 0x40 SWAP1 KECCAK256 SLOAD PUSH2 0x2044 SWAP1 DUP3 SWAP1 PUSH2 0x57B8 JUMP JUMPDEST PUSH1 0xB DUP9 ADD SLOAD PUSH1 0x1 PUSH1 0x1 PUSH1 0xA0 SHL SUB AND PUSH1 0x0 SWAP1 DUP2 MSTORE PUSH1 0x1B PUSH1 0x20 MSTORE PUSH1 0x40 DUP2 KECCAK256 DUP1 SLOAD SWAP1 SWAP2 SWAP1 PUSH2 0x2070 SWAP1 DUP5 SWAP1 PUSH2 0x57B8 JUMP JUMPDEST SWAP1 SWAP2 SSTORE POP POP PUSH1 0x0 DUP10 DUP2 MSTORE PUSH1 0x1F PUSH1 0x20 MSTORE PUSH1 0x40 SWAP1 KECCAK256 SLOAD PUSH2 0x208F SWAP1 DUP3 SWAP1 PUSH2 0x57B8 JUMP JUMPDEST PUSH1 0xB DUP9 ADD SLOAD PUSH1 0x1 PUSH1 0x1 PUSH1 0xA0 SHL SUB AND PUSH1 0x0 SWAP1 DUP2 MSTORE PUSH1 0x1A PUSH1 0x20 MSTORE PUSH1 0x40 DUP2 KECCAK256 DUP1 SLOAD SWAP1 SWAP2 SWAP1 PUSH2 0x20BB SWAP1 DUP5 SWAP1 PUSH2 0x57E2 JUMP JUMPDEST SWAP1 SWAP2 SSTORE POP POP PUSH1 0x9 DUP8 ADD SLOAD PUSH1 0xB DUP9 ADD SLOAD PUSH1 0x40 DUP1 MLOAD PUSH1 0x1 PUSH1 0x1 PUSH1 0xA0 SHL SUB SWAP3 DUP4 AND DUP2 MSTORE PUSH1 0x20 DUP2 ADD DUP6 SWAP1 MSTORE DUP13 SWAP4 SWAP3 SWAP1 SWAP3 AND SWAP2 PUSH32 0x20E787DFDA3AC1418C7882F60C18B94D602D3DD46995EA36EDE0AE9938AE0975 SWAP2 ADD PUSH1 0x40 MLOAD DUP1 SWAP2 SUB SWAP1 LOG3 POP POP POP POP POP JUMPDEST POP POP PUSH1 0xD DUP1 SLOAD PUSH1 0xFF NOT AND SWAP1 SSTORE POP POP JUMP JUMPDEST CALLER PUSH1 0x0 SWAP1 DUP2 MSTORE PUSH1 0x1A PUSH1 0x20 MSTORE PUSH1 0x40 DUP2 KECCAK256 SLOAD PUSH1 0x5 SLOAD SWAP1 SWAP2 SWAP1 PUSH2 0x2152 SWAP1 PUSH1 0x64 SWAP1 PUSH2 0x1A42 SWAP1 DUP6 SWAP1 PUSH2 0x422E JUMP JUMPDEST SWAP1 POP PUSH1 0x0 PUSH2 0x2160 DUP4 DUP4 PUSH2 0x4246 JUMP JUMPDEST PUSH1 0x40 MLOAD SWAP1 SWAP2 POP CALLER SWAP1 DUP3 ISZERO PUSH2 0x8FC MUL SWAP1 DUP4 SWAP1 PUSH1 0x0 DUP2 DUP2 DUP2 DUP6 DUP9 DUP9 CALL SWAP4 POP POP POP POP ISZERO DUP1 ISZERO PUSH2 0x2190 JUMPI RETURNDATASIZE PUSH1 0x0 DUP1 RETURNDATACOPY RETURNDATASIZE PUSH1 0x0 REVERT JUMPDEST POP PUSH1 0xB SLOAD PUSH1 0x1 PUSH1 0x1 PUSH1 0xA0 SHL SUB AND PUSH1 0x0 SWAP1 DUP2 MSTORE PUSH1 0x1C PUSH1 0x20 MSTORE PUSH1 0x40 DUP2 KECCAK256 DUP1 SLOAD DUP5 SWAP3 SWAP1 PUSH2 0x21BB SWAP1 DUP5 SWAP1 PUSH2 0x57E2 JUMP JUMPDEST SWAP1 SWAP2 SSTORE POP POP CALLER PUSH1 0x0 SWAP1 DUP2 MSTORE PUSH1 0x1C PUSH1 0x20 MSTORE PUSH1 0x40 DUP2 KECCAK256 DUP1 SLOAD DUP4 SWAP3 SWAP1 PUSH2 0x21DF SWAP1 DUP5 SWAP1 PUSH2 0x57E2 JUMP JUMPDEST SWAP1 SWAP2 SSTORE POP POP CALLER PUSH1 0x0 SWAP1 DUP2 MSTORE PUSH1 0x1A PUSH1 0x20 MSTORE PUSH1 0x40 DUP2 KECCAK256 SSTORE POP POP POP JUMP JUMPDEST PUSH1 0x0 DUP2 DUP2 MSTORE PUSH1 0x15 PUSH1 0x20 MSTORE PUSH1 0x40 DUP2 KECCAK256 PUSH1 0xC DUP2 ADD SLOAD PUSH1 0x60 SWAP3 DUP4 SWAP3 SWAP2 PUSH1 0x1 PUSH1 0x1 PUSH1 0x40 SHL SUB DUP2 GT ISZERO PUSH2 0x2229 JUMPI PUSH2 0x2229 PUSH2 0x4FB3 JUMP JUMPDEST PUSH1 0x40 MLOAD SWAP1 DUP1 DUP3 MSTORE DUP1 PUSH1 0x20 MUL PUSH1 0x20 ADD DUP3 ADD PUSH1 0x40 MSTORE DUP1 ISZERO PUSH2 0x2252 JUMPI DUP2 PUSH1 0x20 ADD PUSH1 0x20 DUP3 MUL DUP1 CALLDATASIZE DUP4 CALLDATACOPY ADD SWAP1 POP JUMPDEST POP PUSH1 0x1 DUP4 ADD SLOAD PUSH1 0xC DUP5 ADD SLOAD SWAP2 SWAP3 POP PUSH1 0x0 SWAP2 PUSH2 0x226D SWAP2 SWAP1 PUSH2 0x57CB JUMP JUMPDEST PUSH1 0x1 PUSH1 0x1 PUSH1 0x40 SHL SUB DUP2 GT ISZERO PUSH2 0x2284 JUMPI PUSH2 0x2284 PUSH2 0x4FB3 JUMP JUMPDEST PUSH1 0x40 MLOAD SWAP1 DUP1 DUP3 MSTORE DUP1 PUSH1 0x20 MUL PUSH1 0x20 ADD DUP3 ADD PUSH1 0x40 MSTORE DUP1 ISZERO PUSH2 0x22AD JUMPI DUP2 PUSH1 0x20 ADD PUSH1 0x20 DUP3 MUL DUP1 CALLDATASIZE DUP4 CALLDATACOPY ADD SWAP1 POP JUMPDEST POP SWAP1 POP PUSH1 0x0 DUP1 PUSH1 0x0 JUMPDEST PUSH1 0xC DUP7 ADD SLOAD DUP2 LT ISZERO PUSH2 0x2444 JUMPI DUP6 PUSH1 0xC ADD DUP2 DUP2 SLOAD DUP2 LT PUSH2 0x22D7 JUMPI PUSH2 0x22D7 PUSH2 0x578C JUMP JUMPDEST PUSH1 0x0 SWAP2 DUP3 MSTORE PUSH1 0x20 SWAP1 SWAP2 KECCAK256 PUSH1 0x4 SWAP1 SWAP2 MUL ADD SLOAD PUSH1 0x1 PUSH1 0x1 PUSH1 0xA0 SHL SUB AND DUP6 DUP5 PUSH2 0x22FC DUP2 PUSH2 0x58E8 JUMP JUMPDEST SWAP6 POP DUP2 MLOAD DUP2 LT PUSH2 0x230E JUMPI PUSH2 0x230E PUSH2 0x578C JUMP JUMPDEST PUSH1 0x1 PUSH1 0x1 PUSH1 0xA0 SHL SUB SWAP1 SWAP3 AND PUSH1 0x20 SWAP3 DUP4 MUL SWAP2 SWAP1 SWAP2 ADD SWAP1 SWAP2 ADD MSTORE PUSH1 0x3 PUSH1 0xD DUP8 ADD SLOAD PUSH1 0xFF AND PUSH1 0x3 DUP2 GT ISZERO PUSH2 0x2341 JUMPI PUSH2 0x2341 PUSH2 0x55AD JUMP JUMPDEST EQ PUSH2 0x23CE JUMPI PUSH1 0x0 JUMPDEST DUP7 PUSH1 0x1 ADD SLOAD DUP2 LT ISZERO PUSH2 0x23C8 JUMPI DUP7 PUSH1 0xC ADD DUP3 DUP2 SLOAD DUP2 LT PUSH2 0x236A JUMPI PUSH2 0x236A PUSH2 0x578C JUMP JUMPDEST SWAP1 PUSH1 0x0 MSTORE PUSH1 0x20 PUSH1 0x0 KECCAK256 SWAP1 PUSH1 0x4 MUL ADD PUSH1 0x3 ADD DUP2 DUP2 SLOAD DUP2 LT PUSH2 0x238C JUMPI PUSH2 0x238C PUSH2 0x578C JUMP JUMPDEST SWAP1 PUSH1 0x0 MSTORE PUSH1 0x20 PUSH1 0x0 KECCAK256 ADD SLOAD DUP6 DUP5 DUP1 PUSH2 0x23A3 SWAP1 PUSH2 0x58E8 JUMP JUMPDEST SWAP6 POP DUP2 MLOAD DUP2 LT PUSH2 0x23B5 JUMPI PUSH2 0x23B5 PUSH2 0x578C JUMP JUMPDEST PUSH1 0x20 SWAP1 DUP2 MUL SWAP2 SWAP1 SWAP2 ADD ADD MSTORE PUSH1 0x1 ADD PUSH2 0x2349 JUMP JUMPDEST POP PUSH2 0x243C JUMP JUMPDEST DUP6 PUSH1 0xC ADD DUP2 DUP2 SLOAD DUP2 LT PUSH2 0x23E3 JUMPI PUSH2 0x23E3 PUSH2 0x578C JUMP JUMPDEST SWAP1 PUSH1 0x0 MSTORE PUSH1 0x20 PUSH1 0x0 KECCAK256 SWAP1 PUSH1 0x4 MUL ADD PUSH1 0x3 ADD PUSH1 0x0 DUP2 SLOAD DUP2 LT PUSH2 0x2406 JUMPI PUSH2 0x2406 PUSH2 0x578C JUMP JUMPDEST SWAP1 PUSH1 0x0 MSTORE PUSH1 0x20 PUSH1 0x0 KECCAK256 ADD SLOAD DUP5 DUP4 DUP1 PUSH2 0x241D SWAP1 PUSH2 0x58E8 JUMP JUMPDEST SWAP5 POP DUP2 MLOAD DUP2 LT PUSH2 0x242F JUMPI PUSH2 0x242F PUSH2 0x578C JUMP JUMPDEST PUSH1 0x20 MUL PUSH1 0x20 ADD ADD DUP2 DUP2 MSTORE POP POP JUMPDEST PUSH1 0x1 ADD PUSH2 0x22B6 JUMP JUMPDEST POP SWAP2 SWAP8 SWAP3 SWAP7 POP SWAP2 SWAP5 POP POP POP POP POP JUMP JUMPDEST PUSH1 0x40 MLOAD PUSH4 0x70A08231 PUSH1 0xE0 SHL DUP2 MSTORE ADDRESS PUSH1 0x4 DUP3 ADD MSTORE PUSH1 0x0 SWAP1 PUSH1 0x60 SWAP1 DUP3 SWAP1 PUSH1 0x1 SWAP1 PUSH32 0x0 PUSH1 0x1 PUSH1 0x1 PUSH1 0xA0 SHL SUB AND SWAP1 PUSH4 0x70A08231 SWAP1 PUSH1 0x24 ADD PUSH1 0x20 PUSH1 0x40 MLOAD DUP1 DUP4 SUB DUP2 DUP7 GAS STATICCALL ISZERO DUP1 ISZERO PUSH2 0x24C2 JUMPI RETURNDATASIZE PUSH1 0x0 DUP1 RETURNDATACOPY RETURNDATASIZE PUSH1 0x0 REVERT JUMPDEST POP POP POP POP PUSH1 0x40 MLOAD RETURNDATASIZE PUSH1 0x1F NOT PUSH1 0x1F DUP3 ADD AND DUP3 ADD DUP1 PUSH1 0x40 MSTORE POP DUP2 ADD SWAP1 PUSH2 0x24E6 SWAP2 SWAP1 PUSH2 0x583D JUMP JUMPDEST LT ISZERO PUSH2 0x2504 JUMPI PUSH1 0x40 MLOAD PUSH3 0x461BCD PUSH1 0xE5 SHL DUP2 MSTORE PUSH1 0x4 ADD PUSH2 0xF3B SWAP1 PUSH2 0x5856 JUMP JUMPDEST PUSH1 0xD SLOAD PUSH1 0xFF AND ISZERO PUSH2 0x2550 JUMPI PUSH1 0x40 MLOAD PUSH3 0x461BCD PUSH1 0xE5 SHL DUP2 MSTORE PUSH1 0x20 PUSH1 0x4 DUP3 ADD MSTORE PUSH1 0x16 PUSH1 0x24 DUP3 ADD MSTORE PUSH22 0x416E6F7468657220526573756C742072756E6E696E67 PUSH1 0x50 SHL PUSH1 0x44 DUP3 ADD MSTORE PUSH1 0x64 ADD PUSH2 0xF3B JUMP JUMPDEST PUSH2 0x2558 PUSH2 0x3C1D JUMP JUMPDEST SWAP1 POP DUP1 ISZERO PUSH2 0x2565 JUMPI PUSH1 0x1 SWAP3 POP JUMPDEST POP POP PUSH1 0x40 DUP1 MLOAD PUSH1 0x20 DUP2 ADD SWAP1 SWAP2 MSTORE PUSH1 0x0 DUP2 MSTORE SWAP3 POP SWAP3 SWAP1 POP JUMP JUMPDEST PUSH1 0xB SLOAD PUSH1 0x1 PUSH1 0x1 PUSH1 0xA0 SHL SUB AND CALLER EQ PUSH2 0x25A7 JUMPI PUSH1 0x40 MLOAD PUSH3 0x461BCD PUSH1 0xE5 SHL DUP2 MSTORE PUSH1 0x4 ADD PUSH2 0xF3B SWAP1 PUSH2 0x5767 JUMP JUMPDEST PUSH1 0x1 PUSH1 0x1 PUSH1 0xA0 SHL SUB DUP2 AND PUSH2 0x25BA JUMPI PUSH1 0x0 DUP1 REVERT JUMPDEST PUSH1 0xB DUP1 SLOAD PUSH1 0x1 PUSH1 0x1 PUSH1 0xA0 SHL SUB NOT AND PUSH1 0x1 PUSH1 0x1 PUSH1 0xA0 SHL SUB SWAP3 SWAP1 SWAP3 AND SWAP2 SWAP1 SWAP2 OR SWAP1 SSTORE JUMP JUMPDEST PUSH1 0x13 PUSH1 0x20 MSTORE PUSH1 0x0 SWAP1 DUP2 MSTORE PUSH1 0x40 SWAP1 KECCAK256 DUP1 SLOAD DUP2 SWAP1 PUSH2 0x25F7 SWAP1 PUSH2 0x5901 JUMP JUMPDEST DUP1 PUSH1 0x1F ADD PUSH1 0x20 DUP1 SWAP2 DIV MUL PUSH1 0x20 ADD PUSH1 0x40 MLOAD SWAP1 DUP2 ADD PUSH1 0x40 MSTORE DUP1 SWAP3 SWAP2 SWAP1 DUP2 DUP2 MSTORE PUSH1 0x20 ADD DUP3 DUP1 SLOAD PUSH2 0x2623 SWAP1 PUSH2 0x5901 JUMP JUMPDEST DUP1 ISZERO PUSH2 0x2670 JUMPI DUP1 PUSH1 0x1F LT PUSH2 0x2645 JUMPI PUSH2 0x100 DUP1 DUP4 SLOAD DIV MUL DUP4 MSTORE SWAP2 PUSH1 0x20 ADD SWAP2 PUSH2 0x2670 JUMP JUMPDEST DUP3 ADD SWAP2 SWAP1 PUSH1 0x0 MSTORE PUSH1 0x20 PUSH1 0x0 KECCAK256 SWAP1 JUMPDEST DUP2 SLOAD DUP2 MSTORE SWAP1 PUSH1 0x1 ADD SWAP1 PUSH1 0x20 ADD DUP1 DUP4 GT PUSH2 0x2653 JUMPI DUP3 SWAP1 SUB PUSH1 0x1F AND DUP3 ADD SWAP2 JUMPDEST POP POP POP POP POP SWAP1 DUP1 PUSH1 0x1 ADD DUP1 SLOAD PUSH2 0x2685 SWAP1 PUSH2 0x5901 JUMP JUMPDEST DUP1 PUSH1 0x1F ADD PUSH1 0x20 DUP1 SWAP2 DIV MUL PUSH1 0x20 ADD PUSH1 0x40 MLOAD SWAP1 DUP2 ADD PUSH1 0x40 MSTORE DUP1 SWAP3 SWAP2 SWAP1 DUP2 DUP2 MSTORE PUSH1 0x20 ADD DUP3 DUP1 SLOAD PUSH2 0x26B1 SWAP1 PUSH2 0x5901 JUMP JUMPDEST DUP1 ISZERO PUSH2 0x26FE JUMPI DUP1 PUSH1 0x1F LT PUSH2 0x26D3 JUMPI PUSH2 0x100 DUP1 DUP4 SLOAD DIV MUL DUP4 MSTORE SWAP2 PUSH1 0x20 ADD SWAP2 PUSH2 0x26FE JUMP JUMPDEST DUP3 ADD SWAP2 SWAP1 PUSH1 0x0 MSTORE PUSH1 0x20 PUSH1 0x0 KECCAK256 SWAP1 JUMPDEST DUP2 SLOAD DUP2 MSTORE SWAP1 PUSH1 0x1 ADD SWAP1 PUSH1 0x20 ADD DUP1 DUP4 GT PUSH2 0x26E1 JUMPI DUP3 SWAP1 SUB PUSH1 0x1F AND DUP3 ADD SWAP2 JUMPDEST POP POP POP PUSH1 0x2 DUP5 ADD SLOAD PUSH1 0x3 DUP6 ADD DUP1 SLOAD SWAP5 SWAP6 PUSH1 0xFF SWAP1 SWAP3 AND SWAP5 SWAP2 SWAP4 POP SWAP2 POP PUSH2 0x2722 SWAP1 PUSH2 0x5901 JUMP JUMPDEST DUP1 PUSH1 0x1F ADD PUSH1 0x20 DUP1 SWAP2 DIV MUL PUSH1 0x20 ADD PUSH1 0x40 MLOAD SWAP1 DUP2 ADD PUSH1 0x40 MSTORE DUP1 SWAP3 SWAP2 SWAP1 DUP2 DUP2 MSTORE PUSH1 0x20 ADD DUP3 DUP1 SLOAD PUSH2 0x274E SWAP1 PUSH2 0x5901 JUMP JUMPDEST DUP1 ISZERO PUSH2 0x279B JUMPI DUP1 PUSH1 0x1F LT PUSH2 0x2770 JUMPI PUSH2 0x100 DUP1 DUP4 SLOAD DIV MUL DUP4 MSTORE SWAP2 PUSH1 0x20 ADD SWAP2 PUSH2 0x279B JUMP JUMPDEST DUP3 ADD SWAP2 SWAP1 PUSH1 0x0 MSTORE PUSH1 0x20 PUSH1 0x0 KECCAK256 SWAP1 JUMPDEST DUP2 SLOAD DUP2 MSTORE SWAP1 PUSH1 0x1 ADD SWAP1 PUSH1 0x20 ADD DUP1 DUP4 GT PUSH2 0x277E JUMPI DUP3 SWAP1 SUB PUSH1 0x1F AND DUP3 ADD SWAP2 JUMPDEST POP POP POP POP PUSH1 0x4 DUP4 ADD SLOAD PUSH1 0x5 DUP5 ADD SLOAD PUSH1 0x6 SWAP1 SWAP5 ADD SLOAD SWAP3 SWAP4 PUSH1 0x1 PUSH1 0x1 PUSH1 0xA0 SHL SUB SWAP1 SWAP2 AND SWAP3 SWAP1 SWAP2 POP DUP8 JUMP JUMPDEST PUSH1 0x1 SLOAD PUSH1 0x1 PUSH1 0x1 PUSH1 0xA0 SHL SUB AND CALLER EQ PUSH2 0x2816 JUMPI PUSH1 0x40 MLOAD PUSH3 0x461BCD PUSH1 0xE5 SHL DUP2 MSTORE PUSH1 0x20 PUSH1 0x4 DUP3 ADD MSTORE PUSH1 0x16 PUSH1 0x24 DUP3 ADD MSTORE PUSH22 0x26BAB9BA10313290383937B837B9B2B21037BBB732B9 PUSH1 0x51 SHL PUSH1 0x44 DUP3 ADD MSTORE PUSH1 0x64 ADD PUSH2 0xF3B JUMP JUMPDEST PUSH1 0x0 DUP1 SLOAD CALLER PUSH1 0x1 PUSH1 0x1 PUSH1 0xA0 SHL SUB NOT DUP1 DUP4 AND DUP3 OR DUP5 SSTORE PUSH1 0x1 DUP1 SLOAD SWAP1 SWAP2 AND SWAP1 SSTORE PUSH1 0x40 MLOAD PUSH1 0x1 PUSH1 0x1 PUSH1 0xA0 SHL SUB SWAP1 SWAP3 AND SWAP3 SWAP1 SWAP2 DUP4 SWAP2 PUSH32 0x8BE0079C531659141344CD1FD0A4F28419497F9722A3DAAFE3B4186F6B6457E0 SWAP2 LOG3 POP JUMP JUMPDEST PUSH1 0xB SLOAD PUSH1 0x1 PUSH1 0x1 PUSH1 0xA0 SHL SUB AND CALLER EQ PUSH2 0x2897 JUMPI PUSH1 0x40 MLOAD PUSH3 0x461BCD PUSH1 0xE5 SHL DUP2 MSTORE PUSH1 0x4 ADD PUSH2 0xF3B SWAP1 PUSH2 0x5767 JUMP JUMPDEST PUSH1 0x4 SWAP5 SWAP1 SWAP5 SSTORE PUSH1 0x5 SWAP3 SWAP1 SWAP3 SSTORE PUSH1 0x7 SSTORE PUSH1 0x6 SSTORE PUSH1 0x8 SSTORE JUMP JUMPDEST PUSH1 0x0 DUP2 DUP2 MSTORE PUSH1 0x15 PUSH1 0x20 SWAP1 DUP2 MSTORE PUSH1 0x40 DUP1 DUP4 KECCAK256 PUSH1 0x16 SWAP1 SWAP3 MSTORE SWAP1 SWAP2 KECCAK256 PUSH1 0x3 DUP3 ADD SLOAD CALLVALUE EQ PUSH2 0x28EA JUMPI PUSH1 0x40 MLOAD PUSH3 0x461BCD PUSH1 0xE5 SHL DUP2 MSTORE PUSH1 0x4 ADD PUSH2 0xF3B SWAP1 PUSH2 0x57F5 JUMP JUMPDEST PUSH1 0x40 DUP1 MLOAD PUSH1 0x1 DUP1 DUP3 MSTORE DUP2 DUP4 ADD SWAP1 SWAP3 MSTORE PUSH1 0x0 SWAP2 PUSH1 0x20 DUP1 DUP4 ADD SWAP1 DUP1 CALLDATASIZE DUP4 CALLDATACOPY ADD SWAP1 POP POP SWAP1 POP PUSH2 0x2915 DUP6 PUSH2 0xFD4 JUMP JUMPDEST DUP2 PUSH1 0x0 DUP2 MLOAD DUP2 LT PUSH2 0x2928 JUMPI PUSH2 0x2928 PUSH2 0x578C JUMP JUMPDEST PUSH1 0x20 MUL PUSH1 0x20 ADD ADD DUP2 DUP2 MSTORE POP POP PUSH2 0x2940 DUP5 CALLER CALLVALUE DUP5 PUSH2 0x3948 JUMP JUMPDEST PUSH1 0x0 DUP5 DUP2 MSTORE PUSH1 0x29 PUSH1 0x20 MSTORE PUSH1 0x40 SWAP1 KECCAK256 DUP1 SLOAD PUSH2 0x29E2 SWAP2 DUP8 SWAP2 PUSH2 0x295F SWAP1 PUSH2 0x5901 JUMP JUMPDEST DUP1 PUSH1 0x1F ADD PUSH1 0x20 DUP1 SWAP2 DIV MUL PUSH1 0x20 ADD PUSH1 0x40 MLOAD SWAP1 DUP2 ADD PUSH1 0x40 MSTORE DUP1 SWAP3 SWAP2 SWAP1 DUP2 DUP2 MSTORE PUSH1 0x20 ADD DUP3 DUP1 SLOAD PUSH2 0x298B SWAP1 PUSH2 0x5901 JUMP JUMPDEST DUP1 ISZERO PUSH2 0x29D8 JUMPI DUP1 PUSH1 0x1F LT PUSH2 0x29AD JUMPI PUSH2 0x100 DUP1 DUP4 SLOAD DIV MUL DUP4 MSTORE SWAP2 PUSH1 0x20 ADD SWAP2 PUSH2 0x29D8 JUMP JUMPDEST DUP3 ADD SWAP2 SWAP1 PUSH1 0x0 MSTORE PUSH1 0x20 PUSH1 0x0 KECCAK256 SWAP1 JUMPDEST DUP2 SLOAD DUP2 MSTORE SWAP1 PUSH1 0x1 ADD SWAP1 PUSH1 0x20 ADD DUP1 DUP4 GT PUSH2 0x29BB JUMPI DUP3 SWAP1 SUB PUSH1 0x1F AND DUP3 ADD SWAP2 JUMPDEST POP POP POP POP POP PUSH2 0x4252 JUMP JUMPDEST ISZERO PUSH2 0x2AE2 JUMPI PUSH32 0xAFFF1D58F304ACCD1464197B65B86CB5B77485EC7694A50A4CD755EE01F8C1CF PUSH1 0x0 MSTORE PUSH1 0x24 PUSH1 0x20 MSTORE PUSH32 0x9AD8C449D60CFE4294BE548D5AD541543A5D08782EE7F3ABAB9511DC23DB4449 DUP5 SWAP1 SSTORE PUSH1 0xB DUP4 ADD DUP1 SLOAD PUSH1 0x2 SWAP2 SWAP1 PUSH1 0xFF PUSH1 0xA0 SHL NOT AND PUSH1 0x1 PUSH1 0xA0 SHL DUP4 MUL OR SWAP1 SSTORE POP PUSH1 0xA DUP4 ADD DUP1 SLOAD PUSH1 0x1 PUSH1 0x1 PUSH1 0xA0 SHL SUB NOT AND CALLER OR SWAP1 SSTORE PUSH2 0x2A8E DUP5 PUSH32 0xAFFF1D58F304ACCD1464197B65B86CB5B77485EC7694A50A4CD755EE01F8C1CF PUSH2 0x1DB1 JUMP JUMPDEST PUSH1 0xB DUP4 ADD SLOAD PUSH1 0x40 MLOAD DUP6 SWAP2 PUSH32 0xB7E9A48CBB7529B6117347E16CBA725731BB1A27FDBD3B3FD97E98A8C2409B50 SWAP2 PUSH2 0x2AD5 SWAP2 CALLER SWAP2 PUSH1 0x1 PUSH1 0x1 PUSH1 0xA0 SHL SUB SWAP1 SWAP2 AND SWAP1 TIMESTAMP SWAP1 DUP12 SWAP1 PUSH2 0x593B JUMP JUMPDEST PUSH1 0x40 MLOAD DUP1 SWAP2 SUB SWAP1 LOG2 PUSH2 0x2AF7 JUMP JUMPDEST DUP2 PUSH1 0x3 ADD SLOAD TIMESTAMP GT ISZERO PUSH2 0x2AF7 JUMPI PUSH2 0x2AF7 DUP5 PUSH2 0x42AB JUMP JUMPDEST POP POP POP POP POP JUMP JUMPDEST PUSH1 0xB SLOAD PUSH1 0x1 PUSH1 0x1 PUSH1 0xA0 SHL SUB AND CALLER EQ PUSH2 0x2B28 JUMPI PUSH1 0x40 MLOAD PUSH3 0x461BCD PUSH1 0xE5 SHL DUP2 MSTORE PUSH1 0x4 ADD PUSH2 0xF3B SWAP1 PUSH2 0x5767 JUMP JUMPDEST PUSH1 0x40 MLOAD PUSH4 0x70A08231 PUSH1 0xE0 SHL DUP2 MSTORE ADDRESS PUSH1 0x4 DUP3 ADD MSTORE PUSH32 0x0 PUSH1 0x1 PUSH1 0x1 PUSH1 0xA0 SHL SUB AND SWAP1 PUSH4 0xA9059CBB SWAP1 CALLER SWAP1 DUP4 SWAP1 PUSH4 0x70A08231 SWAP1 PUSH1 0x24 ADD PUSH1 0x20 PUSH1 0x40 MLOAD DUP1 DUP4 SUB DUP2 DUP7 GAS STATICCALL ISZERO DUP1 ISZERO PUSH2 0x2B96 JUMPI RETURNDATASIZE PUSH1 0x0 DUP1 RETURNDATACOPY RETURNDATASIZE PUSH1 0x0 REVERT JUMPDEST POP POP POP POP PUSH1 0x40 MLOAD RETURNDATASIZE PUSH1 0x1F NOT PUSH1 0x1F DUP3 ADD AND DUP3 ADD DUP1 PUSH1 0x40 MSTORE POP DUP2 ADD SWAP1 PUSH2 0x2BBA SWAP2 SWAP1 PUSH2 0x583D JUMP JUMPDEST PUSH1 0x40 MLOAD PUSH1 0x1 PUSH1 0x1 PUSH1 0xE0 SHL SUB NOT PUSH1 0xE0 DUP6 SWAP1 SHL AND DUP2 MSTORE PUSH1 0x1 PUSH1 0x1 PUSH1 0xA0 SHL SUB SWAP1 SWAP3 AND PUSH1 0x4 DUP4 ADD MSTORE PUSH1 0x24 DUP3 ADD MSTORE PUSH1 0x44 ADD PUSH1 0x20 PUSH1 0x40 MLOAD DUP1 DUP4 SUB DUP2 PUSH1 0x0 DUP8 GAS CALL ISZERO DUP1 ISZERO PUSH2 0x2C05 JUMPI RETURNDATASIZE PUSH1 0x0 DUP1 RETURNDATACOPY RETURNDATASIZE PUSH1 0x0 REVERT JUMPDEST POP POP POP POP PUSH1 0x40 MLOAD RETURNDATASIZE PUSH1 0x1F NOT PUSH1 0x1F DUP3 ADD AND DUP3 ADD DUP1 PUSH1 0x40 MSTORE POP DUP2 ADD SWAP1 PUSH2 0x2C29 SWAP2 SWAP1 PUSH2 0x5820 JUMP JUMPDEST PUSH2 0x2C6A JUMPI PUSH1 0x40 MLOAD PUSH3 0x461BCD PUSH1 0xE5 SHL DUP2 MSTORE PUSH1 0x20 PUSH1 0x4 DUP3 ADD MSTORE PUSH1 0x12 PUSH1 0x24 DUP3 ADD MSTORE PUSH18 0x2AB730B13632903A37903A3930B739B332B9 PUSH1 0x71 SHL PUSH1 0x44 DUP3 ADD MSTORE PUSH1 0x64 ADD PUSH2 0xF3B JUMP JUMPDEST JUMP JUMPDEST CALLER PUSH1 0x0 DUP2 DUP2 MSTORE PUSH1 0x18 PUSH1 0x20 MSTORE PUSH1 0x40 DUP1 DUP3 KECCAK256 SLOAD SWAP1 MLOAD SWAP1 SWAP3 SWAP2 DUP4 ISZERO PUSH2 0x8FC MUL SWAP2 DUP5 SWAP2 DUP2 DUP2 DUP2 DUP6 DUP9 DUP9 CALL SWAP4 POP POP POP POP ISZERO DUP1 ISZERO PUSH2 0x2CA8 JUMPI RETURNDATASIZE PUSH1 0x0 DUP1 RETURNDATACOPY RETURNDATASIZE PUSH1 0x0 REVERT JUMPDEST POP POP CALLER PUSH1 0x0 SWAP1 DUP2 MSTORE PUSH1 0x18 PUSH1 0x20 MSTORE PUSH1 0x40 DUP2 KECCAK256 SSTORE JUMP JUMPDEST PUSH1 0x0 DUP2 DUP2 MSTORE PUSH1 0x28 PUSH1 0x20 MSTORE PUSH1 0x40 DUP2 KECCAK256 SLOAD PUSH1 0x60 SWAP2 SWAP1 PUSH1 0x1 PUSH1 0x1 PUSH1 0x40 SHL SUB DUP2 GT ISZERO PUSH2 0x2CE6 JUMPI PUSH2 0x2CE6 PUSH2 0x4FB3 JUMP JUMPDEST PUSH1 0x40 MLOAD SWAP1 DUP1 DUP3 MSTORE DUP1 PUSH1 0x20 MUL PUSH1 0x20 ADD DUP3 ADD PUSH1 0x40 MSTORE DUP1 ISZERO PUSH2 0x2D0F JUMPI DUP2 PUSH1 0x20 ADD PUSH1 0x20 DUP3 MUL DUP1 CALLDATASIZE DUP4 CALLDATACOPY ADD SWAP1 POP JUMPDEST POP SWAP1 POP PUSH1 0x0 DUP1 JUMPDEST PUSH1 0x0 DUP6 DUP2 MSTORE PUSH1 0x28 PUSH1 0x20 MSTORE PUSH1 0x40 SWAP1 KECCAK256 SLOAD DUP2 LT ISZERO PUSH2 0x2D88 JUMPI PUSH1 0x0 DUP6 DUP2 MSTORE PUSH1 0x28 PUSH1 0x20 MSTORE PUSH1 0x40 SWAP1 KECCAK256 DUP1 SLOAD DUP3 SWAP1 DUP2 LT PUSH2 0x2D4C JUMPI PUSH2 0x2D4C PUSH2 0x578C JUMP JUMPDEST SWAP1 PUSH1 0x0 MSTORE PUSH1 0x20 PUSH1 0x0 KECCAK256 ADD SLOAD DUP4 DUP4 DUP1 PUSH2 0x2D63 SWAP1 PUSH2 0x58E8 JUMP JUMPDEST SWAP5 POP DUP2 MLOAD DUP2 LT PUSH2 0x2D75 JUMPI PUSH2 0x2D75 PUSH2 0x578C JUMP JUMPDEST PUSH1 0x20 SWAP1 DUP2 MUL SWAP2 SWAP1 SWAP2 ADD ADD MSTORE PUSH1 0x1 ADD PUSH2 0x2D16 JUMP JUMPDEST POP SWAP1 SWAP4 SWAP3 POP POP POP JUMP JUMPDEST PUSH1 0x1 PUSH1 0x1 PUSH1 0xA0 SHL SUB DUP3 AND PUSH2 0x2DA7 JUMPI PUSH2 0x2DA7 PUSH2 0x5978 JUMP JUMPDEST PUSH1 0x1 PUSH1 0x1 PUSH1 0xA0 SHL SUB DUP3 DUP2 AND PUSH1 0x0 SWAP1 DUP2 MSTORE PUSH1 0x13 PUSH1 0x20 MSTORE PUSH1 0x40 SWAP1 KECCAK256 PUSH1 0x4 ADD SLOAD AND PUSH2 0x2EDE JUMPI PUSH1 0x3 DUP1 SLOAD SWAP1 PUSH1 0x0 PUSH2 0x2DD9 DUP4 PUSH2 0x58E8 JUMP JUMPDEST SWAP1 SWAP2 SSTORE POP POP PUSH1 0x3 DUP1 SLOAD PUSH1 0x0 SWAP1 DUP2 MSTORE PUSH1 0x14 PUSH1 0x20 SWAP1 DUP2 MSTORE PUSH1 0x40 DUP1 DUP4 KECCAK256 DUP1 SLOAD PUSH1 0x1 PUSH1 0x1 PUSH1 0xA0 SHL SUB NOT AND PUSH1 0x1 PUSH1 0x1 PUSH1 0xA0 SHL SUB DUP9 AND SWAP1 DUP2 OR SWAP1 SWAP2 SSTORE DUP2 MLOAD PUSH1 0xE0 DUP2 ADD DUP4 MSTORE DUP12 DUP2 MSTORE DUP1 DUP5 ADD DUP12 SWAP1 MSTORE DUP10 ISZERO ISZERO DUP2 DUP5 ADD MSTORE PUSH1 0x60 DUP2 ADD DUP10 SWAP1 MSTORE PUSH1 0x80 DUP2 ADD DUP3 SWAP1 MSTORE PUSH1 0xA0 DUP2 ADD DUP8 SWAP1 MSTORE SWAP5 SLOAD PUSH1 0xC0 DUP7 ADD MSTORE DUP4 MSTORE PUSH1 0x13 SWAP1 SWAP2 MSTORE SWAP1 KECCAK256 DUP2 MLOAD DUP2 SWAP1 PUSH2 0x2E5A SWAP1 DUP3 PUSH2 0x59DB JUMP JUMPDEST POP PUSH1 0x20 DUP3 ADD MLOAD PUSH1 0x1 DUP3 ADD SWAP1 PUSH2 0x2E6F SWAP1 DUP3 PUSH2 0x59DB JUMP JUMPDEST POP PUSH1 0x40 DUP3 ADD MLOAD PUSH1 0x2 DUP3 ADD DUP1 SLOAD PUSH1 0xFF NOT AND SWAP2 ISZERO ISZERO SWAP2 SWAP1 SWAP2 OR SWAP1 SSTORE PUSH1 0x60 DUP3 ADD MLOAD PUSH1 0x3 DUP3 ADD SWAP1 PUSH2 0x2E9C SWAP1 DUP3 PUSH2 0x59DB JUMP JUMPDEST POP PUSH1 0x80 DUP3 ADD MLOAD PUSH1 0x4 DUP3 ADD DUP1 SLOAD PUSH1 0x1 PUSH1 0x1 PUSH1 0xA0 SHL SUB NOT AND PUSH1 0x1 PUSH1 0x1 PUSH1 0xA0 SHL SUB SWAP1 SWAP3 AND SWAP2 SWAP1 SWAP2 OR SWAP1 SSTORE PUSH1 0xA0 DUP3 ADD MLOAD PUSH1 0x5 DUP3 ADD SSTORE PUSH1 0xC0 SWAP1 SWAP2 ADD MLOAD PUSH1 0x6 SWAP1 SWAP2 ADD SSTORE PUSH2 0x2FC7 JUMP JUMPDEST PUSH1 0x40 DUP1 MLOAD PUSH1 0xE0 DUP2 ADD DUP3 MSTORE DUP8 DUP2 MSTORE PUSH1 0x20 DUP1 DUP3 ADD DUP9 SWAP1 MSTORE DUP7 ISZERO ISZERO DUP3 DUP5 ADD MSTORE PUSH1 0x60 DUP3 ADD DUP7 SWAP1 MSTORE PUSH1 0x1 PUSH1 0x1 PUSH1 0xA0 SHL SUB DUP6 AND PUSH1 0x80 DUP4 ADD DUP2 SWAP1 MSTORE PUSH1 0xA0 DUP4 ADD DUP6 SWAP1 MSTORE PUSH1 0x0 DUP2 DUP2 MSTORE PUSH1 0x13 DUP1 DUP5 MSTORE SWAP5 DUP2 KECCAK256 PUSH1 0x6 DUP2 ADD SLOAD PUSH1 0xC0 DUP7 ADD MSTORE SWAP2 SWAP1 MSTORE SWAP3 SWAP1 MSTORE DUP1 MLOAD SWAP1 SWAP2 SWAP1 DUP2 SWAP1 PUSH2 0x2F47 SWAP1 DUP3 PUSH2 0x59DB JUMP JUMPDEST POP PUSH1 0x20 DUP3 ADD MLOAD PUSH1 0x1 DUP3 ADD SWAP1 PUSH2 0x2F5C SWAP1 DUP3 PUSH2 0x59DB JUMP JUMPDEST POP PUSH1 0x40 DUP3 ADD MLOAD PUSH1 0x2 DUP3 ADD DUP1 SLOAD PUSH1 0xFF NOT AND SWAP2 ISZERO ISZERO SWAP2 SWAP1 SWAP2 OR SWAP1 SSTORE PUSH1 0x60 DUP3 ADD MLOAD PUSH1 0x3 DUP3 ADD SWAP1 PUSH2 0x2F89 SWAP1 DUP3 PUSH2 0x59DB JUMP JUMPDEST POP PUSH1 0x80 DUP3 ADD MLOAD PUSH1 0x4 DUP3 ADD DUP1 SLOAD PUSH1 0x1 PUSH1 0x1 PUSH1 0xA0 SHL SUB NOT AND PUSH1 0x1 PUSH1 0x1 PUSH1 0xA0 SHL SUB SWAP1 SWAP3 AND SWAP2 SWAP1 SWAP2 OR SWAP1 SSTORE PUSH1 0xA0 DUP3 ADD MLOAD PUSH1 0x5 DUP3 ADD SSTORE PUSH1 0xC0 SWAP1 SWAP2 ADD MLOAD PUSH1 0x6 SWAP1 SWAP2 ADD SSTORE JUMPDEST PUSH32 0xC3A179C9AA91CFDC423543E35927DC2310BA28791DEEDA87A770191D653FBDD1 DUP7 DUP7 DUP7 DUP7 DUP7 TIMESTAMP PUSH1 0x40 MLOAD PUSH2 0x3000 SWAP7 SWAP6 SWAP5 SWAP4 SWAP3 SWAP2 SWAP1 PUSH2 0x5A9A JUMP JUMPDEST PUSH1 0x40 MLOAD DUP1 SWAP2 SUB SWAP1 LOG1 POP POP POP POP POP POP JUMP JUMPDEST PUSH1 0x28 PUSH1 0x20 MSTORE DUP2 PUSH1 0x0 MSTORE PUSH1 0x40 PUSH1 0x0 KECCAK256 DUP2 DUP2 SLOAD DUP2 LT PUSH2 0x302C JUMPI PUSH1 0x0 DUP1 REVERT JUMPDEST SWAP1 PUSH1 0x0 MSTORE PUSH1 0x20 PUSH1 0x0 KECCAK256 ADD PUSH1 0x0 SWAP2 POP SWAP2 POP POP SLOAD DUP2 JUMP JUMPDEST PUSH1 0xC DUP1 SLOAD PUSH2 0x304E SWAP1 PUSH2 0x5901 JUMP JUMPDEST DUP1 PUSH1 0x1F ADD PUSH1 0x20 DUP1 SWAP2 DIV MUL PUSH1 0x20 ADD PUSH1 0x40 MLOAD SWAP1 DUP2 ADD PUSH1 0x40 MSTORE DUP1 SWAP3 SWAP2 SWAP1 DUP2 DUP2 MSTORE PUSH1 0x20 ADD DUP3 DUP1 SLOAD PUSH2 0x307A SWAP1 PUSH2 0x5901 JUMP JUMPDEST DUP1 ISZERO PUSH2 0x30C7 JUMPI DUP1 PUSH1 0x1F LT PUSH2 0x309C JUMPI PUSH2 0x100 DUP1 DUP4 SLOAD DIV MUL DUP4 MSTORE SWAP2 PUSH1 0x20 ADD SWAP2 PUSH2 0x30C7 JUMP JUMPDEST DUP3 ADD SWAP2 SWAP1 PUSH1 0x0 MSTORE PUSH1 0x20 PUSH1 0x0 KECCAK256 SWAP1 JUMPDEST DUP2 SLOAD DUP2 MSTORE SWAP1 PUSH1 0x1 ADD SWAP1 PUSH1 0x20 ADD DUP1 DUP4 GT PUSH2 0x30AA JUMPI DUP3 SWAP1 SUB PUSH1 0x1F AND DUP3 ADD SWAP2 JUMPDEST POP POP POP POP POP DUP2 JUMP JUMPDEST PUSH1 0x1 PUSH1 0x1 PUSH1 0xA0 SHL SUB DUP2 AND PUSH1 0x0 SWAP1 DUP2 MSTORE PUSH1 0x2C PUSH1 0x20 MSTORE PUSH1 0x40 DUP2 KECCAK256 SLOAD PUSH1 0x60 SWAP2 SWAP1 PUSH1 0x1 PUSH1 0x1 PUSH1 0x40 SHL SUB DUP2 GT ISZERO PUSH2 0x3103 JUMPI PUSH2 0x3103 PUSH2 0x4FB3 JUMP JUMPDEST PUSH1 0x40 MLOAD SWAP1 DUP1 DUP3 MSTORE DUP1 PUSH1 0x20 MUL PUSH1 0x20 ADD DUP3 ADD PUSH1 0x40 MSTORE DUP1 ISZERO PUSH2 0x312C JUMPI DUP2 PUSH1 0x20 ADD PUSH1 0x20 DUP3 MUL DUP1 CALLDATASIZE DUP4 CALLDATACOPY ADD SWAP1 POP JUMPDEST POP SWAP1 POP PUSH1 0x0 JUMPDEST PUSH1 0x1 PUSH1 0x1 PUSH1 0xA0 SHL SUB DUP5 AND PUSH1 0x0 SWAP1 DUP2 MSTORE PUSH1 0x2C PUSH1 0x20 MSTORE PUSH1 0x40 SWAP1 KECCAK256 SLOAD DUP2 LT ISZERO PUSH2 0x1129 JUMPI PUSH1 0x1 PUSH1 0x1 PUSH1 0xA0 SHL SUB DUP5 AND PUSH1 0x0 SWAP1 DUP2 MSTORE PUSH1 0x2C PUSH1 0x20 MSTORE PUSH1 0x40 SWAP1 KECCAK256 DUP1 SLOAD DUP3 SWAP1 DUP2 LT PUSH2 0x317C JUMPI PUSH2 0x317C PUSH2 0x578C JUMP JUMPDEST SWAP1 PUSH1 0x0 MSTORE PUSH1 0x20 PUSH1 0x0 KECCAK256 ADD SLOAD DUP3 DUP3 DUP2 MLOAD DUP2 LT PUSH2 0x3199 JUMPI PUSH2 0x3199 PUSH2 0x578C JUMP JUMPDEST PUSH1 0x20 SWAP1 DUP2 MUL SWAP2 SWAP1 SWAP2 ADD ADD MSTORE PUSH1 0x1 ADD PUSH2 0x3132 JUMP JUMPDEST PUSH1 0xD SLOAD PUSH1 0x40 MLOAD PUSH3 0x91A5BD PUSH1 0xE1 SHL DUP2 MSTORE CALLER PUSH1 0x4 DUP3 ADD MSTORE PUSH1 0x0 SWAP2 DUP3 SWAP2 PUSH2 0x100 SWAP1 SWAP2 DIV PUSH1 0x1 PUSH1 0x1 PUSH1 0xA0 SHL SUB AND SWAP1 PUSH4 0x1234B7A SWAP1 PUSH1 0x24 ADD PUSH1 0x20 PUSH1 0x40 MLOAD DUP1 DUP4 SUB DUP2 DUP7 GAS STATICCALL ISZERO DUP1 ISZERO PUSH2 0x31FC JUMPI RETURNDATASIZE PUSH1 0x0 DUP1 RETURNDATACOPY RETURNDATASIZE PUSH1 0x0 REVERT JUMPDEST POP POP POP POP PUSH1 0x40 MLOAD RETURNDATASIZE PUSH1 0x1F NOT PUSH1 0x1F DUP3 ADD AND DUP3 ADD DUP1 PUSH1 0x40 MSTORE POP DUP2 ADD SWAP1 PUSH2 0x3220 SWAP2 SWAP1 PUSH2 0x583D JUMP JUMPDEST PUSH1 0xB SLOAD PUSH1 0x1 PUSH1 0x1 PUSH1 0xA0 SHL SUB AND PUSH1 0x0 SWAP1 DUP2 MSTORE PUSH1 0x1C PUSH1 0x20 MSTORE PUSH1 0x40 SWAP1 KECCAK256 SLOAD PUSH2 0x3245 SWAP2 SWAP1 PUSH2 0x57E2 JUMP JUMPDEST SWAP3 SWAP2 POP POP JUMP JUMPDEST PUSH1 0x1 PUSH1 0x1 PUSH1 0xA0 SHL SUB DUP2 AND PUSH1 0x0 SWAP1 DUP2 MSTORE PUSH1 0x2B PUSH1 0x20 MSTORE PUSH1 0x40 DUP2 KECCAK256 SLOAD PUSH1 0x60 SWAP2 SWAP1 PUSH1 0x1 PUSH1 0x1 PUSH1 0x40 SHL SUB DUP2 GT ISZERO PUSH2 0x327F JUMPI PUSH2 0x327F PUSH2 0x4FB3 JUMP JUMPDEST PUSH1 0x40 MLOAD SWAP1 DUP1 DUP3 MSTORE DUP1 PUSH1 0x20 MUL PUSH1 0x20 ADD DUP3 ADD PUSH1 0x40 MSTORE DUP1 ISZERO PUSH2 0x32A8 JUMPI DUP2 PUSH1 0x20 ADD PUSH1 0x20 DUP3 MUL DUP1 CALLDATASIZE DUP4 CALLDATACOPY ADD SWAP1 POP JUMPDEST POP SWAP1 POP PUSH1 0x0 JUMPDEST PUSH1 0x1 PUSH1 0x1 PUSH1 0xA0 SHL SUB DUP5 AND PUSH1 0x0 SWAP1 DUP2 MSTORE PUSH1 0x2B PUSH1 0x20 MSTORE PUSH1 0x40 SWAP1 KECCAK256 SLOAD DUP2 LT ISZERO PUSH2 0x1129 JUMPI PUSH1 0x1 PUSH1 0x1 PUSH1 0xA0 SHL SUB DUP5 AND PUSH1 0x0 SWAP1 DUP2 MSTORE PUSH1 0x2B PUSH1 0x20 MSTORE PUSH1 0x40 SWAP1 KECCAK256 DUP1 SLOAD DUP3 SWAP1 DUP2 LT PUSH2 0x32F8 JUMPI PUSH2 0x32F8 PUSH2 0x578C JUMP JUMPDEST SWAP1 PUSH1 0x0 MSTORE PUSH1 0x20 PUSH1 0x0 KECCAK256 ADD SLOAD DUP3 DUP3 DUP2 MLOAD DUP2 LT PUSH2 0x3315 JUMPI PUSH2 0x3315 PUSH2 0x578C JUMP JUMPDEST PUSH1 0x20 SWAP1 DUP2 MUL SWAP2 SWAP1 SWAP2 ADD ADD MSTORE PUSH1 0x1 ADD PUSH2 0x32AE JUMP JUMPDEST PUSH1 0xB SLOAD PUSH1 0x1 PUSH1 0x1 PUSH1 0xA0 SHL SUB AND CALLER EQ PUSH2 0x3352 JUMPI PUSH1 0x40 MLOAD PUSH3 0x461BCD PUSH1 0xE5 SHL DUP2 MSTORE PUSH1 0x4 ADD PUSH2 0xF3B SWAP1 PUSH2 0x5767 JUMP JUMPDEST PUSH1 0x40 MLOAD CALLER SWAP1 SELFBALANCE DUP1 ISZERO PUSH2 0x8FC MUL SWAP2 PUSH1 0x0 DUP2 DUP2 DUP2 DUP6 DUP9 DUP9 CALL SWAP4 POP POP POP POP ISZERO DUP1 ISZERO PUSH2 0x337E JUMPI RETURNDATASIZE PUSH1 0x0 DUP1 RETURNDATACOPY RETURNDATASIZE PUSH1 0x0 REVERT JUMPDEST POP JUMP JUMPDEST PUSH1 0x0 DUP2 DUP2 MSTORE PUSH1 0x15 PUSH1 0x20 SWAP1 DUP2 MSTORE PUSH1 0x40 DUP1 DUP4 KECCAK256 PUSH1 0x16 SWAP1 SWAP3 MSTORE SWAP1 SWAP2 KECCAK256 PUSH1 0x3 DUP3 ADD SLOAD CALLVALUE EQ PUSH2 0x33BD JUMPI PUSH1 0x40 MLOAD PUSH3 0x461BCD PUSH1 0xE5 SHL DUP2 MSTORE PUSH1 0x4 ADD PUSH2 0xF3B SWAP1 PUSH2 0x57F5 JUMP JUMPDEST DUP2 PUSH1 0x1 ADD SLOAD DUP5 MLOAD EQ PUSH2 0x3407 JUMPI PUSH1 0x40 MLOAD PUSH3 0x461BCD PUSH1 0xE5 SHL DUP2 MSTORE PUSH1 0x20 PUSH1 0x4 DUP3 ADD MSTORE PUSH1 0x13 PUSH1 0x24 DUP3 ADD MSTORE PUSH19 0x1CDB1BDD1CC81CDA5E99481B9BDD081B59595D PUSH1 0x6A SHL PUSH1 0x44 DUP3 ADD MSTORE PUSH1 0x64 ADD PUSH2 0xF3B JUMP JUMPDEST PUSH1 0x40 DUP1 MLOAD PUSH1 0x20 DUP2 ADD SWAP1 SWAP2 MSTORE PUSH1 0x0 DUP1 DUP3 MSTORE JUMPDEST DUP6 MLOAD DUP2 LT ISZERO PUSH2 0x346F JUMPI PUSH2 0x3443 DUP7 DUP3 DUP2 MLOAD DUP2 LT PUSH2 0x3436 JUMPI PUSH2 0x3436 PUSH2 0x578C JUMP JUMPDEST PUSH1 0x20 MUL PUSH1 0x20 ADD ADD MLOAD PUSH2 0x4408 JUMP JUMPDEST DUP3 PUSH1 0x40 MLOAD PUSH1 0x20 ADD PUSH2 0x3455 SWAP3 SWAP2 SWAP1 PUSH2 0x5AFA JUMP JUMPDEST PUSH1 0x40 DUP1 MLOAD PUSH1 0x1F NOT DUP2 DUP5 SUB ADD DUP2 MSTORE SWAP2 SWAP1 MSTORE SWAP2 POP PUSH1 0x1 ADD PUSH2 0x3418 JUMP JUMPDEST POP DUP1 PUSH2 0x347A DUP6 PUSH2 0x4408 JUMP JUMPDEST PUSH1 0x40 MLOAD PUSH1 0x20 ADD PUSH2 0x348B SWAP3 SWAP2 SWAP1 PUSH2 0x5B36 JUMP JUMPDEST PUSH1 0x40 MLOAD PUSH1 0x20 DUP2 DUP4 SUB SUB DUP2 MSTORE SWAP1 PUSH1 0x40 MSTORE SWAP1 POP PUSH1 0x0 PUSH1 0x1 PUSH1 0x1 PUSH1 0xA0 SHL SUB AND PUSH1 0x2E DUP3 PUSH1 0x40 MLOAD PUSH2 0x34B7 SWAP2 SWAP1 PUSH2 0x5B65 JUMP JUMPDEST SWAP1 DUP2 MSTORE PUSH1 0x40 MLOAD SWAP1 DUP2 SWAP1 SUB PUSH1 0x20 ADD SWAP1 KECCAK256 SLOAD PUSH1 0x1 PUSH1 0x1 PUSH1 0xA0 SHL SUB AND EQ PUSH2 0x350C JUMPI PUSH1 0x40 MLOAD PUSH3 0x461BCD PUSH1 0xE5 SHL DUP2 MSTORE PUSH1 0x20 PUSH1 0x4 DUP3 ADD MSTORE PUSH1 0xC PUSH1 0x24 DUP3 ADD MSTORE PUSH12 0x105B1C9958591E481CDBDB19 PUSH1 0xA2 SHL PUSH1 0x44 DUP3 ADD MSTORE PUSH1 0x64 ADD PUSH2 0xF3B JUMP JUMPDEST CALLER PUSH1 0x2E DUP3 PUSH1 0x40 MLOAD PUSH2 0x351D SWAP2 SWAP1 PUSH2 0x5B65 JUMP JUMPDEST SWAP1 DUP2 MSTORE PUSH1 0x40 MLOAD SWAP1 DUP2 SWAP1 SUB PUSH1 0x20 ADD SWAP1 KECCAK256 DUP1 SLOAD PUSH1 0x1 PUSH1 0x1 PUSH1 0xA0 SHL SUB SWAP3 SWAP1 SWAP3 AND PUSH1 0x1 PUSH1 0x1 PUSH1 0xA0 SHL SUB NOT SWAP1 SWAP3 AND SWAP2 SWAP1 SWAP2 OR SWAP1 SSTORE PUSH1 0x3 DUP3 ADD SLOAD TIMESTAMP GT ISZERO PUSH2 0x3561 JUMPI PUSH2 0x3561 DUP5 PUSH2 0x42AB JUMP JUMPDEST PUSH2 0x356D DUP5 CALLER CALLVALUE DUP9 PUSH2 0x3948 JUMP JUMPDEST PUSH1 0x1 PUSH1 0xD DUP5 ADD SLOAD PUSH1 0xFF AND PUSH1 0x3 DUP2 GT ISZERO PUSH2 0x3588 JUMPI PUSH2 0x3588 PUSH2 0x55AD JUMP JUMPDEST SUB PUSH2 0x2AF7 JUMPI PUSH1 0x0 DUP5 DUP2 MSTORE PUSH1 0x28 PUSH1 0x20 MSTORE PUSH1 0x40 DUP2 KECCAK256 DUP7 MLOAD SWAP1 SWAP2 DUP8 SWAP2 PUSH2 0x35AD JUMPI PUSH2 0x35AD PUSH2 0x578C JUMP JUMPDEST PUSH1 0x20 SWAP1 DUP2 MUL SWAP2 SWAP1 SWAP2 ADD DUP2 ADD MLOAD DUP3 SLOAD PUSH1 0x1 DUP2 ADD DUP5 SSTORE PUSH1 0x0 SWAP4 DUP5 MSTORE SWAP2 SWAP1 SWAP3 KECCAK256 ADD SSTORE POP POP POP POP POP JUMP JUMPDEST PUSH1 0xA SLOAD PUSH1 0x40 MLOAD PUSH4 0x70A08231 PUSH1 0xE0 SHL DUP2 MSTORE ADDRESS PUSH1 0x4 DUP3 ADD MSTORE PUSH1 0x1 PUSH1 0x1 PUSH1 0xA0 SHL SUB SWAP1 SWAP2 AND SWAP1 PUSH4 0x70A08231 SWAP1 PUSH1 0x24 ADD PUSH1 0x20 PUSH1 0x40 MLOAD DUP1 DUP4 SUB DUP2 DUP7 GAS STATICCALL ISZERO DUP1 ISZERO PUSH2 0x361B JUMPI RETURNDATASIZE PUSH1 0x0 DUP1 RETURNDATACOPY RETURNDATASIZE PUSH1 0x0 REVERT JUMPDEST POP POP POP POP PUSH1 0x40 MLOAD RETURNDATASIZE PUSH1 0x1F NOT PUSH1 0x1F DUP3 ADD AND DUP3 ADD DUP1 PUSH1 0x40 MSTORE POP DUP2 ADD SWAP1 PUSH2 0x363F SWAP2 SWAP1 PUSH2 0x583D JUMP JUMPDEST CALLER PUSH1 0x0 SWAP1 DUP2 MSTORE PUSH1 0x21 PUSH1 0x20 MSTORE PUSH1 0x40 SWAP1 KECCAK256 SLOAD GT ISZERO PUSH2 0x368B JUMPI PUSH1 0x40 MLOAD PUSH3 0x461BCD PUSH1 0xE5 SHL DUP2 MSTORE PUSH1 0x20 PUSH1 0x4 DUP3 ADD MSTORE PUSH1 0xB PUSH1 0x24 DUP3 ADD MSTORE PUSH11 0x6C6F772062616C616E6365 PUSH1 0xA8 SHL PUSH1 0x44 DUP3 ADD MSTORE PUSH1 0x64 ADD PUSH2 0xF3B JUMP JUMPDEST PUSH1 0xA SLOAD CALLER PUSH1 0x0 DUP2 DUP2 MSTORE PUSH1 0x21 PUSH1 0x20 MSTORE PUSH1 0x40 SWAP1 DUP2 SWAP1 KECCAK256 SLOAD SWAP1 MLOAD PUSH4 0xA9059CBB PUSH1 0xE0 SHL DUP2 MSTORE PUSH1 0x4 DUP2 ADD SWAP3 SWAP1 SWAP3 MSTORE PUSH1 0x24 DUP3 ADD MSTORE PUSH1 0x1 PUSH1 0x1 PUSH1 0xA0 SHL SUB SWAP1 SWAP2 AND SWAP1 PUSH4 0xA9059CBB SWAP1 PUSH1 0x44 ADD PUSH1 0x20 PUSH1 0x40 MLOAD DUP1 DUP4 SUB DUP2 PUSH1 0x0 DUP8 GAS CALL ISZERO DUP1 ISZERO PUSH2 0x36ED JUMPI RETURNDATASIZE PUSH1 0x0 DUP1 RETURNDATACOPY RETURNDATASIZE PUSH1 0x0 REVERT JUMPDEST POP POP POP POP PUSH1 0x40 MLOAD RETURNDATASIZE PUSH1 0x1F NOT PUSH1 0x1F DUP3 ADD AND DUP3 ADD DUP1 PUSH1 0x40 MSTORE POP DUP2 ADD SWAP1 PUSH2 0x3711 SWAP2 SWAP1 PUSH2 0x5820 JUMP JUMPDEST POP CALLER PUSH1 0x0 SWAP1 DUP2 MSTORE PUSH1 0x21 PUSH1 0x20 MSTORE PUSH1 0x40 DUP2 KECCAK256 SSTORE JUMP JUMPDEST PUSH2 0x372C PUSH2 0x4510 JUMP JUMPDEST PUSH2 0x337E DUP2 PUSH2 0x4563 JUMP JUMPDEST PUSH1 0x0 DUP3 DUP2 MSTORE PUSH1 0x12 PUSH1 0x20 MSTORE PUSH1 0x40 SWAP1 KECCAK256 SLOAD PUSH2 0x3784 JUMPI PUSH1 0x40 MLOAD PUSH3 0x461BCD PUSH1 0xE5 SHL DUP2 MSTORE PUSH1 0x20 PUSH1 0x4 DUP3 ADD MSTORE PUSH1 0x11 PUSH1 0x24 DUP3 ADD MSTORE PUSH17 0x1C995C5D595CDD081B9BDD08199BDD5B99 PUSH1 0x7A SHL PUSH1 0x44 DUP3 ADD MSTORE PUSH1 0x64 ADD PUSH2 0xF3B JUMP JUMPDEST PUSH1 0x0 DUP3 DUP2 MSTORE PUSH1 0x12 PUSH1 0x20 SWAP1 DUP2 MSTORE PUSH1 0x40 SWAP1 SWAP2 KECCAK256 PUSH1 0x1 DUP2 DUP2 ADD DUP1 SLOAD PUSH1 0xFF NOT AND SWAP1 SWAP2 OR SWAP1 SSTORE DUP3 MLOAD PUSH2 0x37B9 SWAP3 PUSH1 0x2 SWAP1 SWAP3 ADD SWAP2 DUP5 ADD SWAP1 PUSH2 0x4F2A JUMP JUMPDEST POP DUP1 PUSH1 0x0 DUP2 MLOAD DUP2 LT PUSH2 0x37CD JUMPI PUSH2 0x37CD PUSH2 0x578C JUMP JUMPDEST PUSH1 0x20 SWAP1 DUP2 MUL SWAP2 SWAP1 SWAP2 ADD DUP2 ADD MLOAD PUSH1 0x0 DUP5 DUP2 MSTORE PUSH1 0x25 DUP4 MSTORE PUSH1 0x40 DUP1 DUP3 KECCAK256 SWAP3 SWAP1 SWAP3 SSTORE PUSH1 0x12 SWAP1 SWAP3 MSTORE SWAP1 KECCAK256 PUSH1 0x1 ADD SLOAD PUSH2 0x100 SWAP1 DIV PUSH1 0xFF AND ISZERO PUSH2 0x3829 JUMPI PUSH1 0x0 DUP3 DUP2 MSTORE PUSH1 0x25 PUSH1 0x20 SWAP1 DUP2 MSTORE PUSH1 0x40 DUP1 DUP4 KECCAK256 SLOAD PUSH1 0x24 SWAP1 SWAP3 MSTORE SWAP1 SWAP2 KECCAK256 SLOAD PUSH2 0x1274 SWAP2 SWAP1 DUP5 PUSH2 0x460C JUMP JUMPDEST PUSH1 0x0 PUSH2 0x384E DUP3 PUSH1 0x0 DUP2 MLOAD DUP2 LT PUSH2 0x3841 JUMPI PUSH2 0x3841 PUSH2 0x578C JUMP JUMPDEST PUSH1 0x20 MUL PUSH1 0x20 ADD ADD MLOAD PUSH2 0x4796 JUMP JUMPDEST PUSH1 0x0 DUP5 DUP2 MSTORE PUSH1 0x24 PUSH1 0x20 SWAP1 DUP2 MSTORE PUSH1 0x40 DUP1 DUP4 KECCAK256 SLOAD DUP4 MSTORE PUSH1 0x15 DUP3 MSTORE DUP1 DUP4 KECCAK256 PUSH1 0x1 ADD SLOAD SWAP1 MLOAD SWAP4 SWAP5 POP SWAP2 SWAP3 PUSH2 0xFFFF DUP6 AND SWAP2 PUSH2 0x388A SWAP2 TIMESTAMP SWAP2 CALLER SWAP2 DUP9 SWAP2 ADD PUSH2 0x5B81 JUMP JUMPDEST PUSH1 0x40 MLOAD PUSH1 0x20 DUP2 DUP4 SUB SUB DUP2 MSTORE SWAP1 PUSH1 0x40 MSTORE DUP1 MLOAD SWAP1 PUSH1 0x20 ADD KECCAK256 PUSH1 0x0 SHR PUSH2 0x38AD SWAP2 SWAP1 PUSH2 0x5BB6 JUMP JUMPDEST PUSH2 0x38B7 SWAP2 SWAP1 PUSH2 0x57B8 JUMP JUMPDEST SWAP1 POP PUSH1 0x0 PUSH2 0x38FF PUSH2 0x38D4 DUP6 PUSH1 0x0 DUP2 MLOAD DUP2 LT PUSH2 0x3436 JUMPI PUSH2 0x3436 PUSH2 0x578C JUMP JUMPDEST PUSH1 0x0 DUP8 DUP2 MSTORE PUSH1 0x24 PUSH1 0x20 SWAP1 DUP2 MSTORE PUSH1 0x40 DUP1 DUP4 KECCAK256 SLOAD DUP4 MSTORE PUSH1 0x15 SWAP1 SWAP2 MSTORE SWAP1 KECCAK256 PUSH1 0x1 ADD SLOAD DUP5 SWAP1 PUSH2 0x55D SWAP1 DUP3 PUSH2 0x57E2 JUMP JUMPDEST PUSH1 0x0 DUP7 DUP2 MSTORE PUSH1 0x24 PUSH1 0x20 SWAP1 DUP2 MSTORE PUSH1 0x40 DUP1 DUP4 KECCAK256 DUP1 SLOAD DUP5 MSTORE PUSH1 0x15 DUP4 MSTORE DUP2 DUP5 KECCAK256 PUSH1 0xB ADD DUP1 SLOAD PUSH1 0xFF PUSH1 0xA0 SHL NOT AND SWAP1 SSTORE SLOAD DUP4 MSTORE PUSH1 0x29 SWAP1 SWAP2 MSTORE SWAP1 KECCAK256 SWAP1 SWAP2 POP PUSH2 0x3940 DUP3 DUP3 PUSH2 0x59DB JUMP JUMPDEST POP POP POP POP POP POP JUMP JUMPDEST PUSH1 0x0 DUP5 DUP2 MSTORE PUSH1 0x15 PUSH1 0x20 SWAP1 DUP2 MSTORE PUSH1 0x40 DUP1 DUP4 KECCAK256 PUSH1 0x2D DUP4 MSTORE DUP2 DUP5 KECCAK256 PUSH1 0x1 PUSH1 0x1 PUSH1 0xA0 SHL SUB DUP9 AND DUP6 MSTORE SWAP1 SWAP3 MSTORE DUP3 KECCAK256 DUP1 SLOAD SWAP2 SWAP3 PUSH1 0x1 SWAP3 PUSH2 0x3983 SWAP1 DUP5 SWAP1 PUSH2 0x57E2 JUMP JUMPDEST SWAP1 SWAP2 SSTORE POP POP PUSH1 0x40 DUP1 MLOAD PUSH1 0x80 DUP2 ADD DUP3 MSTORE PUSH1 0x1 PUSH1 0x1 PUSH1 0xA0 SHL SUB DUP7 DUP2 AND DUP3 MSTORE TIMESTAMP PUSH1 0x20 DUP1 DUP5 ADD SWAP2 DUP3 MSTORE SWAP4 DUP4 ADD DUP10 DUP2 MSTORE PUSH1 0x60 DUP5 ADD DUP8 DUP2 MSTORE PUSH1 0xC DUP8 ADD DUP1 SLOAD PUSH1 0x1 DUP1 DUP3 ADD DUP4 SSTORE PUSH1 0x0 SWAP3 DUP4 MSTORE SWAP2 DUP9 SWAP1 KECCAK256 DUP8 MLOAD PUSH1 0x4 SWAP1 SWAP3 MUL ADD DUP1 SLOAD PUSH1 0x1 PUSH1 0x1 PUSH1 0xA0 SHL SUB NOT AND SWAP2 SWAP1 SWAP7 AND OR DUP6 SSTORE SWAP3 MLOAD SWAP3 DUP5 ADD SWAP3 SWAP1 SWAP3 SSTORE MLOAD PUSH1 0x2 DUP4 ADD SSTORE MLOAD DUP1 MLOAD SWAP3 SWAP4 SWAP2 SWAP3 PUSH2 0x3A0C SWAP3 PUSH1 0x3 DUP6 ADD SWAP3 ADD SWAP1 PUSH2 0x4F2A JUMP JUMPDEST POP POP POP PUSH1 0x1 PUSH1 0x1 PUSH1 0xA0 SHL SUB DUP5 AND PUSH1 0x0 SWAP1 DUP2 MSTORE PUSH1 0x17 PUSH1 0x20 MSTORE PUSH1 0x40 DUP2 KECCAK256 DUP1 SLOAD DUP6 SWAP3 SWAP1 PUSH2 0x3A37 SWAP1 DUP5 SWAP1 PUSH2 0x57E2 JUMP JUMPDEST SWAP1 SWAP2 SSTORE POP POP PUSH1 0x9 SLOAD PUSH2 0x3A4A SWAP1 PUSH1 0x1 PUSH2 0x57E2 JUMP JUMPDEST PUSH1 0x9 SSTORE PUSH1 0x0 DUP6 DUP2 MSTORE PUSH1 0x1F PUSH1 0x20 MSTORE PUSH1 0x40 DUP2 KECCAK256 DUP1 SLOAD DUP6 SWAP3 SWAP1 PUSH2 0x3A6B SWAP1 DUP5 SWAP1 PUSH2 0x57E2 JUMP JUMPDEST SWAP1 SWAP2 SSTORE POP POP PUSH1 0xB DUP2 ADD SLOAD PUSH1 0x1 PUSH1 0x1 PUSH1 0xA0 SHL SUB AND PUSH1 0x0 SWAP1 DUP2 MSTORE PUSH1 0x1B PUSH1 0x20 MSTORE PUSH1 0x40 DUP2 KECCAK256 DUP1 SLOAD DUP6 SWAP3 SWAP1 PUSH2 0x3A9C SWAP1 DUP5 SWAP1 PUSH2 0x57E2 JUMP JUMPDEST SWAP1 SWAP2 SSTORE POP POP PUSH1 0x1 PUSH1 0x1 PUSH1 0xA0 SHL SUB DUP5 AND PUSH1 0x0 SWAP1 DUP2 MSTORE PUSH1 0x2A PUSH1 0x20 SWAP1 DUP2 MSTORE PUSH1 0x40 DUP1 DUP4 KECCAK256 DUP1 SLOAD PUSH1 0x1 DUP2 ADD DUP3 SSTORE SWAP1 DUP5 MSTORE DUP3 DUP5 KECCAK256 ADD DUP9 SWAP1 SSTORE DUP8 DUP4 MSTORE PUSH1 0x23 SWAP1 SWAP2 MSTORE DUP2 KECCAK256 DUP1 SLOAD SWAP2 PUSH2 0x3AE4 DUP4 PUSH2 0x58E8 JUMP JUMPDEST SWAP2 SWAP1 POP SSTORE POP PUSH2 0x3B00 PUSH1 0x64 PUSH1 0x7 SLOAD DUP4 PUSH1 0x3 ADD SLOAD PUSH2 0x1A42 SWAP2 SWAP1 PUSH2 0x57CB JUMP JUMPDEST PUSH1 0x1 PUSH1 0x1 PUSH1 0xA0 SHL SUB DUP6 AND PUSH1 0x0 SWAP1 DUP2 MSTORE PUSH1 0x21 PUSH1 0x20 MSTORE PUSH1 0x40 DUP2 KECCAK256 DUP1 SLOAD SWAP1 SWAP2 SWAP1 PUSH2 0x3B28 SWAP1 DUP5 SWAP1 PUSH2 0x57E2 JUMP JUMPDEST SWAP1 SWAP2 SSTORE POP POP PUSH1 0xB DUP2 ADD SLOAD PUSH1 0x3 DUP3 ADD SLOAD PUSH1 0x40 MLOAD PUSH1 0x1 PUSH1 0x1 PUSH1 0xA0 SHL SUB SWAP3 DUP4 AND SWAP3 DUP8 AND SWAP2 DUP9 SWAP2 PUSH31 0x847EE71F38F0CD3D8B3C9BF61603D5865CECBBE35F9B88EFAD5C3419E15559 SWAP2 PUSH2 0x3B7C SWAP2 DUP7 SWAP2 DUP10 SWAP2 TIMESTAMP SWAP2 SWAP1 PUSH2 0x5BCA JUMP JUMPDEST PUSH1 0x40 MLOAD DUP1 SWAP2 SUB SWAP1 LOG3 POP POP POP POP POP POP JUMP JUMPDEST PUSH1 0x0 PUSH2 0x3B99 DUP5 PUSH1 0x1 PUSH2 0x3D6D JUMP JUMPDEST PUSH1 0x0 DUP2 DUP2 MSTORE PUSH1 0x26 PUSH1 0x20 DUP2 DUP2 MSTORE PUSH1 0x40 DUP1 DUP5 KECCAK256 DUP9 DUP2 SSTORE PUSH1 0x27 DUP4 MSTORE SWAP4 DUP2 SWAP1 KECCAK256 DUP1 SLOAD PUSH1 0x1 PUSH1 0x1 PUSH1 0xA0 SHL SUB NOT AND PUSH1 0x1 PUSH1 0x1 PUSH1 0xA0 SHL SUB DUP10 AND SWAP1 DUP2 OR SWAP1 SWAP2 SSTORE SWAP3 DUP3 MSTORE SWAP3 SLOAD DUP4 MLOAD SWAP3 DUP4 MSTORE SWAP1 DUP3 ADD MSTORE SWAP1 DUP2 ADD DUP6 SWAP1 MSTORE SWAP1 SWAP2 POP DUP5 SWAP1 PUSH32 0x44B090DFA5478BF5E2EA21C76BA7BAF4AB87BB8F6DCFD5F4E220C1CAC931868E SWAP1 PUSH1 0x60 ADD PUSH1 0x40 MLOAD DUP1 SWAP2 SUB SWAP1 LOG2 POP POP POP POP JUMP JUMPDEST PUSH1 0x0 PUSH1 0x1 JUMPDEST PUSH1 0x2 SLOAD DUP2 LT ISZERO PUSH2 0x3D69 JUMPI PUSH1 0x2 PUSH1 0x0 DUP3 DUP2 MSTORE PUSH1 0x15 PUSH1 0x20 MSTORE PUSH1 0x40 SWAP1 KECCAK256 PUSH1 0xD ADD SLOAD PUSH1 0xFF AND PUSH1 0x3 DUP2 GT ISZERO PUSH2 0x3C54 JUMPI PUSH2 0x3C54 PUSH2 0x55AD JUMP JUMPDEST SUB PUSH2 0x3CCE JUMPI PUSH1 0x2 PUSH1 0x0 DUP3 DUP2 MSTORE PUSH1 0x15 PUSH1 0x20 MSTORE PUSH1 0x40 SWAP1 KECCAK256 PUSH1 0xB ADD SLOAD PUSH1 0x1 PUSH1 0xA0 SHL SWAP1 DIV PUSH1 0xFF AND PUSH1 0x6 DUP2 GT ISZERO PUSH2 0x3C88 JUMPI PUSH2 0x3C88 PUSH2 0x55AD JUMP JUMPDEST EQ PUSH2 0x3CCE JUMPI PUSH1 0x0 DUP2 DUP2 MSTORE PUSH1 0x23 PUSH1 0x20 SWAP1 DUP2 MSTORE PUSH1 0x40 DUP1 DUP4 KECCAK256 SLOAD PUSH1 0x15 SWAP1 SWAP3 MSTORE SWAP1 SWAP2 KECCAK256 PUSH1 0x5 ADD SLOAD GT PUSH2 0x3CCE JUMPI PUSH1 0x0 DUP2 DUP2 MSTORE PUSH1 0x16 PUSH1 0x20 MSTORE PUSH1 0x40 SWAP1 KECCAK256 PUSH1 0x3 ADD SLOAD TIMESTAMP GT ISZERO PUSH2 0x3CCE JUMPI SWAP2 SWAP1 POP JUMP JUMPDEST PUSH1 0x1 PUSH1 0x0 DUP3 DUP2 MSTORE PUSH1 0x15 PUSH1 0x20 MSTORE PUSH1 0x40 SWAP1 KECCAK256 PUSH1 0xD ADD SLOAD PUSH1 0xFF AND PUSH1 0x3 DUP2 GT ISZERO PUSH2 0x3CF6 JUMPI PUSH2 0x3CF6 PUSH2 0x55AD JUMP JUMPDEST EQ DUP1 ISZERO PUSH2 0x3D1E JUMPI POP PUSH1 0x0 DUP2 DUP2 MSTORE PUSH1 0x15 PUSH1 0x20 SWAP1 DUP2 MSTORE PUSH1 0x40 DUP1 DUP4 KECCAK256 PUSH1 0x2 ADD SLOAD PUSH1 0x23 SWAP1 SWAP3 MSTORE SWAP1 SWAP2 KECCAK256 SLOAD EQ JUMPDEST DUP1 ISZERO PUSH2 0x3D57 JUMPI POP PUSH1 0x2 PUSH1 0x0 DUP3 DUP2 MSTORE PUSH1 0x15 PUSH1 0x20 MSTORE PUSH1 0x40 SWAP1 KECCAK256 PUSH1 0xB ADD SLOAD PUSH1 0x1 PUSH1 0xA0 SHL SWAP1 DIV PUSH1 0xFF AND PUSH1 0x6 DUP2 GT ISZERO PUSH2 0x3D54 JUMPI PUSH2 0x3D54 PUSH2 0x55AD JUMP JUMPDEST EQ ISZERO JUMPDEST ISZERO PUSH2 0x3D61 JUMPI SWAP2 SWAP1 POP JUMP JUMPDEST PUSH1 0x1 ADD PUSH2 0x3C22 JUMP JUMPDEST POP SWAP1 JUMP JUMPDEST PUSH1 0x11 SLOAD PUSH1 0x0 SWAP1 DUP2 SWAP1 PUSH2 0x3DA0 SWAP1 PUSH4 0xFFFFFFFF DUP1 DUP3 AND SWAP2 PUSH2 0xFFFF PUSH5 0x100000000 DUP3 DIV AND SWAP2 PUSH7 0x1000000000000 SWAP1 SWAP2 DIV AND PUSH2 0x47C8 JUMP JUMPDEST PUSH1 0x0 DUP2 DUP2 MSTORE PUSH1 0x24 PUSH1 0x20 MSTORE PUSH1 0x40 SWAP1 DUP2 SWAP1 KECCAK256 DUP7 SWAP1 SSTORE DUP1 MLOAD PUSH1 0x80 DUP2 ADD SWAP2 DUP3 SWAP1 MSTORE PUSH1 0x11 SLOAD PUSH4 0x10C1B4D5 PUSH1 0xE2 SHL SWAP1 SWAP3 MSTORE PUSH4 0xFFFFFFFF SWAP1 SWAP2 AND PUSH1 0x84 DUP3 ADD MSTORE SWAP1 SWAP2 POP DUP1 PUSH32 0x0 PUSH1 0x1 PUSH1 0x1 PUSH1 0xA0 SHL SUB AND PUSH4 0x4306D354 PUSH1 0xA4 DUP4 ADD PUSH1 0x20 PUSH1 0x40 MLOAD DUP1 DUP4 SUB DUP2 DUP7 GAS STATICCALL ISZERO DUP1 ISZERO PUSH2 0x3E2C JUMPI RETURNDATASIZE PUSH1 0x0 DUP1 RETURNDATACOPY RETURNDATASIZE PUSH1 0x0 REVERT JUMPDEST POP POP POP POP PUSH1 0x40 MLOAD RETURNDATASIZE PUSH1 0x1F NOT PUSH1 0x1F DUP3 ADD AND DUP3 ADD DUP1 PUSH1 0x40 MSTORE POP DUP2 ADD SWAP1 PUSH2 0x3E50 SWAP2 SWAP1 PUSH2 0x583D JUMP JUMPDEST DUP2 MSTORE PUSH1 0x0 PUSH1 0x20 DUP1 DUP4 ADD DUP3 SWAP1 MSTORE DUP7 ISZERO ISZERO PUSH1 0x40 DUP1 DUP6 ADD SWAP2 SWAP1 SWAP2 MSTORE DUP1 MLOAD DUP4 DUP2 MSTORE SWAP2 DUP3 ADD SWAP1 MSTORE PUSH1 0x60 SWAP1 SWAP3 ADD SWAP2 SWAP1 POP SWAP1 MSTORE PUSH1 0x0 DUP3 DUP2 MSTORE PUSH1 0x12 PUSH1 0x20 SWAP1 DUP2 MSTORE PUSH1 0x40 SWAP2 DUP3 SWAP1 KECCAK256 DUP4 MLOAD DUP2 SSTORE DUP4 DUP3 ADD MLOAD PUSH1 0x1 DUP3 ADD DUP1 SLOAD SWAP5 DUP7 ADD MLOAD ISZERO ISZERO PUSH2 0x100 MUL PUSH2 0xFF00 NOT SWAP3 ISZERO ISZERO SWAP3 SWAP1 SWAP3 AND PUSH2 0xFFFF NOT SWAP1 SWAP6 AND SWAP5 SWAP1 SWAP5 OR OR SWAP1 SWAP3 SSTORE PUSH1 0x60 DUP4 ADD MLOAD DUP1 MLOAD PUSH2 0x3ED7 SWAP3 PUSH1 0x2 DUP6 ADD SWAP3 ADD SWAP1 PUSH2 0x4F2A JUMP JUMPDEST POP POP PUSH1 0x40 DUP1 MLOAD DUP4 DUP2 MSTORE PUSH1 0x20 DUP2 ADD DUP8 SWAP1 MSTORE PUSH32 0x9D2F3D98E62A8A1461B32E23B34B5D304F7B9A67C9B4C3AF7641E61F53B8706A SWAP3 POP ADD PUSH1 0x40 MLOAD DUP1 SWAP2 SUB SWAP1 LOG1 SWAP4 SWAP3 POP POP POP JUMP JUMPDEST PUSH1 0x0 PUSH2 0x3F26 DUP3 DUP5 PUSH2 0x57E2 JUMP JUMPDEST SWAP4 SWAP3 POP POP POP JUMP JUMPDEST DUP2 PUSH1 0x15 PUSH1 0x0 DUP16 DUP2 MSTORE PUSH1 0x20 ADD SWAP1 DUP2 MSTORE PUSH1 0x20 ADD PUSH1 0x0 KECCAK256 PUSH1 0x9 ADD PUSH1 0x0 PUSH2 0x100 EXP DUP2 SLOAD DUP2 PUSH1 0x1 PUSH1 0x1 PUSH1 0xA0 SHL SUB MUL NOT AND SWAP1 DUP4 PUSH1 0x1 PUSH1 0x1 PUSH1 0xA0 SHL SUB AND MUL OR SWAP1 SSTORE POP DUP13 PUSH1 0x15 PUSH1 0x0 DUP16 DUP2 MSTORE PUSH1 0x20 ADD SWAP1 DUP2 MSTORE PUSH1 0x20 ADD PUSH1 0x0 KECCAK256 PUSH1 0x0 ADD DUP2 SWAP1 SSTORE POP DUP5 PUSH1 0x15 PUSH1 0x0 DUP16 DUP2 MSTORE PUSH1 0x20 ADD SWAP1 DUP2 MSTORE PUSH1 0x20 ADD PUSH1 0x0 KECCAK256 PUSH1 0x7 ADD DUP2 SWAP1 SSTORE POP DUP12 PUSH1 0x15 PUSH1 0x0 DUP16 DUP2 MSTORE PUSH1 0x20 ADD SWAP1 DUP2 MSTORE PUSH1 0x20 ADD PUSH1 0x0 KECCAK256 PUSH1 0x3 ADD DUP2 SWAP1 SSTORE POP DUP11 PUSH1 0x15 PUSH1 0x0 DUP16 DUP2 MSTORE PUSH1 0x20 ADD SWAP1 DUP2 MSTORE PUSH1 0x20 ADD PUSH1 0x0 KECCAK256 PUSH1 0x1 ADD DUP2 SWAP1 SSTORE POP DUP10 PUSH1 0x15 PUSH1 0x0 DUP16 DUP2 MSTORE PUSH1 0x20 ADD SWAP1 DUP2 MSTORE PUSH1 0x20 ADD PUSH1 0x0 KECCAK256 PUSH1 0x4 ADD DUP2 SWAP1 SSTORE POP DUP9 PUSH1 0x16 PUSH1 0x0 DUP16 DUP2 MSTORE PUSH1 0x20 ADD SWAP1 DUP2 MSTORE PUSH1 0x20 ADD PUSH1 0x0 KECCAK256 PUSH1 0x1 ADD DUP2 SWAP1 SSTORE POP DUP8 PUSH1 0x16 PUSH1 0x0 DUP16 DUP2 MSTORE PUSH1 0x20 ADD SWAP1 DUP2 MSTORE PUSH1 0x20 ADD PUSH1 0x0 KECCAK256 PUSH1 0x2 ADD DUP2 SWAP1 SSTORE POP DUP13 PUSH1 0x16 PUSH1 0x0 DUP16 DUP2 MSTORE PUSH1 0x20 ADD SWAP1 DUP2 MSTORE PUSH1 0x20 ADD PUSH1 0x0 KECCAK256 PUSH1 0x0 ADD DUP2 SWAP1 SSTORE POP DUP7 PUSH1 0x16 PUSH1 0x0 DUP16 DUP2 MSTORE PUSH1 0x20 ADD SWAP1 DUP2 MSTORE PUSH1 0x20 ADD PUSH1 0x0 KECCAK256 PUSH1 0x3 ADD DUP2 SWAP1 SSTORE POP DUP3 PUSH1 0x16 PUSH1 0x0 DUP16 DUP2 MSTORE PUSH1 0x20 ADD SWAP1 DUP2 MSTORE PUSH1 0x20 ADD PUSH1 0x0 KECCAK256 PUSH1 0x4 ADD DUP2 SWAP1 SSTORE POP TIMESTAMP PUSH1 0x15 PUSH1 0x0 DUP16 DUP2 MSTORE PUSH1 0x20 ADD SWAP1 DUP2 MSTORE PUSH1 0x20 ADD PUSH1 0x0 KECCAK256 PUSH1 0x8 ADD DUP2 SWAP1 SSTORE POP DUP6 PUSH1 0x15 PUSH1 0x0 DUP16 DUP2 MSTORE PUSH1 0x20 ADD SWAP1 DUP2 MSTORE PUSH1 0x20 ADD PUSH1 0x0 KECCAK256 PUSH1 0x2 ADD DUP2 SWAP1 SSTORE POP DUP1 PUSH1 0x15 PUSH1 0x0 DUP16 DUP2 MSTORE PUSH1 0x20 ADD SWAP1 DUP2 MSTORE PUSH1 0x20 ADD PUSH1 0x0 KECCAK256 PUSH1 0xB ADD PUSH1 0x0 PUSH2 0x100 EXP DUP2 SLOAD DUP2 PUSH1 0x1 PUSH1 0x1 PUSH1 0xA0 SHL SUB MUL NOT AND SWAP1 DUP4 PUSH1 0x1 PUSH1 0x1 PUSH1 0xA0 SHL SUB AND MUL OR SWAP1 SSTORE POP DUP4 PUSH1 0x15 PUSH1 0x0 DUP16 DUP2 MSTORE PUSH1 0x20 ADD SWAP1 DUP2 MSTORE PUSH1 0x20 ADD PUSH1 0x0 KECCAK256 PUSH1 0x6 ADD DUP2 SWAP1 SSTORE POP PUSH1 0x2C PUSH1 0x0 DUP3 PUSH1 0x1 PUSH1 0x1 PUSH1 0xA0 SHL SUB AND PUSH1 0x1 PUSH1 0x1 PUSH1 0xA0 SHL SUB AND DUP2 MSTORE PUSH1 0x20 ADD SWAP1 DUP2 MSTORE PUSH1 0x20 ADD PUSH1 0x0 KECCAK256 DUP14 SWAP1 DUP1 PUSH1 0x1 DUP2 SLOAD ADD DUP1 DUP3 SSTORE DUP1 SWAP2 POP POP PUSH1 0x1 SWAP1 SUB SWAP1 PUSH1 0x0 MSTORE PUSH1 0x20 PUSH1 0x0 KECCAK256 ADD PUSH1 0x0 SWAP1 SWAP2 SWAP1 SWAP2 SWAP1 SWAP2 POP SSTORE PUSH1 0x2B PUSH1 0x0 DUP4 PUSH1 0x1 PUSH1 0x1 PUSH1 0xA0 SHL SUB AND PUSH1 0x1 PUSH1 0x1 PUSH1 0xA0 SHL SUB AND DUP2 MSTORE PUSH1 0x20 ADD SWAP1 DUP2 MSTORE PUSH1 0x20 ADD PUSH1 0x0 KECCAK256 DUP14 SWAP1 DUP1 PUSH1 0x1 DUP2 SLOAD ADD DUP1 DUP3 SSTORE DUP1 SWAP2 POP POP PUSH1 0x1 SWAP1 SUB SWAP1 PUSH1 0x0 MSTORE PUSH1 0x20 PUSH1 0x0 KECCAK256 ADD PUSH1 0x0 SWAP1 SWAP2 SWAP1 SWAP2 SWAP1 SWAP2 POP SSTORE PUSH2 0x41AD PUSH1 0x64 PUSH1 0x4 SLOAD DUP13 PUSH2 0x1A42 SWAP2 SWAP1 PUSH2 0x57CB JUMP JUMPDEST PUSH1 0xB SLOAD PUSH1 0x1 PUSH1 0x1 PUSH1 0xA0 SHL SUB AND PUSH1 0x0 SWAP1 DUP2 MSTORE PUSH1 0x1D PUSH1 0x20 MSTORE PUSH1 0x40 DUP2 KECCAK256 DUP1 SLOAD SWAP1 SWAP2 SWAP1 PUSH2 0x41D7 SWAP1 DUP5 SWAP1 PUSH2 0x57E2 JUMP JUMPDEST SWAP1 SWAP2 SSTORE POP POP PUSH1 0x4 SLOAD PUSH2 0x41F0 SWAP1 PUSH1 0x64 SWAP1 PUSH2 0x1A42 SWAP1 DUP14 PUSH2 0x57CB JUMP JUMPDEST PUSH1 0xB SLOAD PUSH1 0x1 PUSH1 0x1 PUSH1 0xA0 SHL SUB AND PUSH1 0x0 SWAP1 DUP2 MSTORE PUSH1 0x1C PUSH1 0x20 MSTORE PUSH1 0x40 DUP2 KECCAK256 DUP1 SLOAD SWAP1 SWAP2 SWAP1 PUSH2 0x421A SWAP1 DUP5 SWAP1 PUSH2 0x57E2 JUMP JUMPDEST SWAP1 SWAP2 SSTORE POP POP POP POP POP POP POP POP POP POP POP POP POP POP POP JUMP JUMPDEST PUSH1 0x0 PUSH2 0x3F26 DUP3 DUP5 PUSH2 0x57CB JUMP JUMPDEST PUSH1 0x0 PUSH2 0x3F26 DUP3 DUP5 PUSH2 0x58B7 JUMP JUMPDEST PUSH1 0x0 PUSH2 0x3F26 DUP3 DUP5 PUSH2 0x57B8 JUMP JUMPDEST PUSH1 0x0 DUP2 PUSH1 0x40 MLOAD PUSH1 0x20 ADD PUSH2 0x4265 SWAP2 SWAP1 PUSH2 0x5B65 JUMP JUMPDEST PUSH1 0x40 MLOAD PUSH1 0x20 DUP2 DUP4 SUB SUB DUP2 MSTORE SWAP1 PUSH1 0x40 MSTORE DUP1 MLOAD SWAP1 PUSH1 0x20 ADD KECCAK256 DUP4 PUSH1 0x40 MLOAD PUSH1 0x20 ADD PUSH2 0x428C SWAP2 SWAP1 PUSH2 0x5B65 JUMP JUMPDEST PUSH1 0x40 MLOAD PUSH1 0x20 DUP2 DUP4 SUB SUB DUP2 MSTORE SWAP1 PUSH1 0x40 MSTORE DUP1 MLOAD SWAP1 PUSH1 0x20 ADD KECCAK256 EQ SWAP1 POP SWAP3 SWAP2 POP POP JUMP JUMPDEST PUSH1 0x0 DUP2 DUP2 MSTORE PUSH1 0x15 PUSH1 0x20 SWAP1 DUP2 MSTORE PUSH1 0x40 DUP1 DUP4 KECCAK256 PUSH1 0x16 SWAP1 SWAP3 MSTORE SWAP1 SWAP2 KECCAK256 PUSH1 0xB DUP3 ADD SLOAD PUSH1 0x5 DUP3 ADD SLOAD PUSH1 0x1 PUSH1 0x1 PUSH1 0xA0 SHL SUB SWAP1 SWAP2 AND SWAP1 PUSH2 0x42E9 SWAP1 PUSH2 0xFFFF AND PUSH1 0x1 PUSH2 0x5C01 JUMP JUMPDEST PUSH1 0x5 DUP4 ADD DUP1 SLOAD PUSH2 0xFFFF NOT AND PUSH2 0xFFFF SWAP3 SWAP1 SWAP3 AND SWAP2 SWAP1 SWAP2 OR SWAP1 SSTORE PUSH1 0x4 DUP3 ADD SLOAD PUSH1 0x3 DUP4 ADD SLOAD PUSH2 0x4314 SWAP2 PUSH2 0x3F1A JUMP JUMPDEST PUSH1 0x3 DUP4 ADD SSTORE PUSH1 0xB DUP4 ADD DUP1 SLOAD PUSH1 0xFF PUSH1 0xA0 SHL NOT AND PUSH1 0x5 PUSH1 0xA0 SHL OR SWAP1 SSTORE PUSH1 0x7 DUP4 ADD SLOAD PUSH1 0x0 DUP6 DUP2 MSTORE PUSH1 0x1F PUSH1 0x20 MSTORE PUSH1 0x40 SWAP1 KECCAK256 SLOAD PUSH2 0x4362 SWAP2 PUSH2 0x4357 SWAP2 PUSH1 0x64 SWAP2 PUSH2 0x1A42 SWAP2 SWAP1 PUSH2 0x422E JUMP JUMPDEST PUSH1 0x4 DUP6 ADD SLOAD SWAP1 PUSH2 0x3F1A JUMP JUMPDEST PUSH1 0x4 DUP5 ADD SSTORE PUSH1 0x7 DUP4 ADD SLOAD PUSH1 0x0 DUP6 DUP2 MSTORE PUSH1 0x1F PUSH1 0x20 MSTORE PUSH1 0x40 SWAP1 KECCAK256 SLOAD PUSH2 0x438B SWAP2 PUSH1 0x64 SWAP2 PUSH2 0x1A42 SWAP2 PUSH2 0x422E JUMP JUMPDEST PUSH1 0xB DUP5 ADD SLOAD PUSH1 0x1 PUSH1 0x1 PUSH1 0xA0 SHL SUB AND PUSH1 0x0 SWAP1 DUP2 MSTORE PUSH1 0x1B PUSH1 0x20 MSTORE PUSH1 0x40 DUP2 KECCAK256 DUP1 SLOAD SWAP1 SWAP2 SWAP1 PUSH2 0x43B7 SWAP1 DUP5 SWAP1 PUSH2 0x57B8 JUMP JUMPDEST SWAP1 SWAP2 SSTORE POP POP PUSH1 0x4 DUP3 ADD SLOAD PUSH1 0x7 DUP5 ADD SLOAD PUSH1 0x40 MLOAD PUSH32 0x1EDC524ADCDF855D2C2BD191A6394A50DB23D0EBA2534BB50789EF594E2519B SWAP3 PUSH2 0x43FA SWAP3 DUP6 SWAP3 DUP10 SWAP3 SWAP2 SWAP1 PUSH2 0x5C1C JUMP JUMPDEST PUSH1 0x40 MLOAD DUP1 SWAP2 SUB SWAP1 LOG1 POP POP POP POP JUMP JUMPDEST PUSH1 0x60 DUP2 PUSH1 0x0 SUB PUSH2 0x442F JUMPI POP POP PUSH1 0x40 DUP1 MLOAD DUP1 DUP3 ADD SWAP1 SWAP2 MSTORE PUSH1 0x1 DUP2 MSTORE PUSH1 0x3 PUSH1 0xFC SHL PUSH1 0x20 DUP3 ADD MSTORE SWAP1 JUMP JUMPDEST DUP2 PUSH1 0x0 JUMPDEST DUP2 ISZERO PUSH2 0x4459 JUMPI DUP1 PUSH2 0x4443 DUP2 PUSH2 0x58E8 JUMP JUMPDEST SWAP2 POP PUSH2 0x4452 SWAP1 POP PUSH1 0xA DUP4 PUSH2 0x58B7 JUMP JUMPDEST SWAP2 POP PUSH2 0x4433 JUMP JUMPDEST PUSH1 0x0 DUP2 PUSH1 0x1 PUSH1 0x1 PUSH1 0x40 SHL SUB DUP2 GT ISZERO PUSH2 0x4473 JUMPI PUSH2 0x4473 PUSH2 0x4FB3 JUMP JUMPDEST PUSH1 0x40 MLOAD SWAP1 DUP1 DUP3 MSTORE DUP1 PUSH1 0x1F ADD PUSH1 0x1F NOT AND PUSH1 0x20 ADD DUP3 ADD PUSH1 0x40 MSTORE DUP1 ISZERO PUSH2 0x449D JUMPI PUSH1 0x20 DUP3 ADD DUP2 DUP1 CALLDATASIZE DUP4 CALLDATACOPY ADD SWAP1 POP JUMPDEST POP SWAP1 POP JUMPDEST DUP5 ISZERO PUSH2 0x4508 JUMPI PUSH2 0x44B2 PUSH1 0x1 DUP4 PUSH2 0x57B8 JUMP JUMPDEST SWAP2 POP PUSH2 0x44BF PUSH1 0xA DUP7 PUSH2 0x5BB6 JUMP JUMPDEST PUSH2 0x44CA SWAP1 PUSH1 0x30 PUSH2 0x57E2 JUMP JUMPDEST PUSH1 0xF8 SHL DUP2 DUP4 DUP2 MLOAD DUP2 LT PUSH2 0x44DF JUMPI PUSH2 0x44DF PUSH2 0x578C JUMP JUMPDEST PUSH1 0x20 ADD ADD SWAP1 PUSH1 0x1 PUSH1 0x1 PUSH1 0xF8 SHL SUB NOT AND SWAP1 DUP2 PUSH1 0x0 BYTE SWAP1 MSTORE8 POP PUSH2 0x4501 PUSH1 0xA DUP7 PUSH2 0x58B7 JUMP JUMPDEST SWAP5 POP PUSH2 0x44A1 JUMP JUMPDEST SWAP5 SWAP4 POP POP POP POP JUMP JUMPDEST PUSH1 0x0 SLOAD PUSH1 0x1 PUSH1 0x1 PUSH1 0xA0 SHL SUB AND CALLER EQ PUSH2 0x2C6A JUMPI PUSH1 0x40 MLOAD PUSH3 0x461BCD PUSH1 0xE5 SHL DUP2 MSTORE PUSH1 0x20 PUSH1 0x4 DUP3 ADD MSTORE PUSH1 0x16 PUSH1 0x24 DUP3 ADD MSTORE PUSH22 0x27B7363C9031B0B63630B1363290313C9037BBB732B9 PUSH1 0x51 SHL PUSH1 0x44 DUP3 ADD MSTORE PUSH1 0x64 ADD PUSH2 0xF3B JUMP JUMPDEST CALLER PUSH1 0x1 PUSH1 0x1 PUSH1 0xA0 SHL SUB DUP3 AND SUB PUSH2 0x45BB JUMPI PUSH1 0x40 MLOAD PUSH3 0x461BCD PUSH1 0xE5 SHL DUP2 MSTORE PUSH1 0x20 PUSH1 0x4 DUP3 ADD MSTORE PUSH1 0x17 PUSH1 0x24 DUP3 ADD MSTORE PUSH32 0x43616E6E6F74207472616E7366657220746F2073656C66000000000000000000 PUSH1 0x44 DUP3 ADD MSTORE PUSH1 0x64 ADD PUSH2 0xF3B JUMP JUMPDEST PUSH1 0x1 DUP1 SLOAD PUSH1 0x1 PUSH1 0x1 PUSH1 0xA0 SHL SUB NOT AND PUSH1 0x1 PUSH1 0x1 PUSH1 0xA0 SHL SUB DUP4 DUP2 AND SWAP2 DUP3 OR SWAP1 SWAP3 SSTORE PUSH1 0x0 DUP1 SLOAD PUSH1 0x40 MLOAD SWAP3 SWAP4 AND SWAP2 PUSH32 0xED8889F560326EB138920D842192F0EB3DD22B4F139C87A2C57538E05BAE1278 SWAP2 SWAP1 LOG3 POP JUMP JUMPDEST PUSH1 0x0 DUP3 DUP2 MSTORE PUSH1 0x15 PUSH1 0x20 MSTORE PUSH1 0x40 SWAP1 KECCAK256 PUSH1 0x2 PUSH1 0xD DUP3 ADD SLOAD PUSH1 0xFF AND PUSH1 0x3 DUP2 GT ISZERO PUSH2 0x4635 JUMPI PUSH2 0x4635 PUSH2 0x55AD JUMP JUMPDEST EQ DUP1 PUSH2 0x4659 JUMPI POP PUSH1 0x1 PUSH1 0xD DUP3 ADD SLOAD PUSH1 0xFF AND PUSH1 0x3 DUP2 GT ISZERO PUSH2 0x4657 JUMPI PUSH2 0x4657 PUSH2 0x55AD JUMP JUMPDEST EQ JUMPDEST ISZERO PUSH2 0x4678 JUMPI PUSH2 0x4673 DUP4 DUP6 DUP4 PUSH1 0x2 ADD SLOAD DUP5 PUSH1 0x1 ADD SLOAD DUP7 PUSH2 0x49A1 JUMP JUMPDEST PUSH2 0x477B JUMP JUMPDEST PUSH1 0x2 DUP2 ADD SLOAD PUSH2 0x4688 SWAP1 DUP6 SWAP1 PUSH2 0x4D15 JUMP JUMPDEST SWAP4 POP PUSH2 0x4695 DUP5 PUSH1 0x1 PUSH2 0x3F1A JUMP JUMPDEST PUSH1 0x0 DUP4 DUP2 MSTORE PUSH1 0x27 PUSH1 0x20 SWAP1 DUP2 MSTORE PUSH1 0x40 DUP1 DUP4 KECCAK256 SLOAD PUSH1 0xB DUP7 ADD SLOAD PUSH1 0x26 SWAP1 SWAP4 MSTORE SWAP3 DUP2 SWAP1 KECCAK256 SLOAD SWAP1 MLOAD SWAP4 SWAP8 POP DUP7 SWAP4 PUSH1 0x1 PUSH1 0x1 PUSH1 0xA0 SHL SUB SWAP4 DUP5 AND SWAP4 PUSH32 0xE9FDE21D121526866129AB4026662522F75FD0C8F3CB5101E9AAB2B843F0A1AC SWAP4 PUSH2 0x46FB SWAP4 SWAP2 AND SWAP2 DUP11 SWAP1 TIMESTAMP SWAP1 PUSH2 0x5C1C JUMP JUMPDEST PUSH1 0x40 MLOAD DUP1 SWAP2 SUB SWAP1 LOG3 PUSH1 0x0 DUP3 DUP2 MSTORE PUSH1 0x26 PUSH1 0x20 MSTORE PUSH1 0x40 SWAP1 KECCAK256 SLOAD DUP5 SWAP1 SUB PUSH2 0x4768 JUMPI PUSH1 0xB DUP2 ADD DUP1 SLOAD PUSH1 0xFF PUSH1 0xA0 SHL NOT AND PUSH1 0x1 PUSH1 0xA1 SHL OR SWAP1 SSTORE PUSH1 0x0 DUP3 DUP2 MSTORE PUSH1 0x27 PUSH1 0x20 MSTORE PUSH1 0x40 SWAP1 KECCAK256 SLOAD PUSH1 0xA DUP3 ADD DUP1 SLOAD PUSH1 0x1 PUSH1 0x1 PUSH1 0xA0 SHL SUB NOT AND PUSH1 0x1 PUSH1 0x1 PUSH1 0xA0 SHL SUB SWAP1 SWAP3 AND SWAP2 SWAP1 SWAP2 OR SWAP1 SSTORE PUSH2 0x4673 DUP4 DUP4 PUSH2 0x1DB1 JUMP JUMPDEST PUSH1 0xD DUP1 SLOAD PUSH1 0xFF NOT AND SWAP1 SSTORE PUSH2 0x477B DUP4 PUSH2 0x4D21 JUMP JUMPDEST PUSH1 0x10 DUP1 SLOAD SWAP1 PUSH1 0x0 PUSH2 0x478B DUP4 PUSH2 0x58E8 JUMP JUMPDEST SWAP2 SWAP1 POP SSTORE POP POP POP POP POP JUMP JUMPDEST PUSH1 0x0 DUP1 JUMPDEST DUP3 ISZERO PUSH2 0x47BF JUMPI PUSH2 0x47AB PUSH1 0xA DUP5 PUSH2 0x58B7 JUMP JUMPDEST SWAP3 POP DUP1 PUSH2 0x47B7 DUP2 PUSH2 0x5C42 JUMP JUMPDEST SWAP2 POP POP PUSH2 0x479A JUMP JUMPDEST PUSH1 0xFF AND SWAP3 SWAP2 POP POP JUMP JUMPDEST PUSH1 0x40 MLOAD PUSH4 0x10C1B4D5 PUSH1 0xE2 SHL DUP2 MSTORE PUSH4 0xFFFFFFFF DUP5 AND PUSH1 0x4 DUP3 ADD MSTORE PUSH1 0x0 SWAP1 PUSH1 0x1 PUSH1 0x1 PUSH1 0xA0 SHL SUB PUSH32 0x0 DUP2 AND SWAP2 PUSH4 0x4000AEA0 SWAP2 PUSH32 0x0 SWAP2 SWAP1 DUP3 AND SWAP1 PUSH4 0x4306D354 SWAP1 PUSH1 0x24 ADD PUSH1 0x20 PUSH1 0x40 MLOAD DUP1 DUP4 SUB DUP2 DUP7 GAS STATICCALL ISZERO DUP1 ISZERO PUSH2 0x4862 JUMPI RETURNDATASIZE PUSH1 0x0 DUP1 RETURNDATACOPY RETURNDATASIZE PUSH1 0x0 REVERT JUMPDEST POP POP POP POP PUSH1 0x40 MLOAD RETURNDATASIZE PUSH1 0x1F NOT PUSH1 0x1F DUP3 ADD AND DUP3 ADD DUP1 PUSH1 0x40 MSTORE POP DUP2 ADD SWAP1 PUSH2 0x4886 SWAP2 SWAP1 PUSH2 0x583D JUMP JUMPDEST PUSH1 0x40 DUP1 MLOAD PUSH4 0xFFFFFFFF DUP1 DUP12 AND PUSH1 0x20 DUP4 ADD MSTORE PUSH2 0xFFFF DUP11 AND SWAP3 DUP3 ADD SWAP3 SWAP1 SWAP3 MSTORE SWAP1 DUP8 AND PUSH1 0x60 DUP3 ADD MSTORE PUSH1 0x80 ADD PUSH1 0x40 MLOAD PUSH1 0x20 DUP2 DUP4 SUB SUB DUP2 MSTORE SWAP1 PUSH1 0x40 MSTORE PUSH1 0x40 MLOAD DUP5 PUSH4 0xFFFFFFFF AND PUSH1 0xE0 SHL DUP2 MSTORE PUSH1 0x4 ADD PUSH2 0x48DB SWAP4 SWAP3 SWAP2 SWAP1 PUSH2 0x5C61 JUMP JUMPDEST PUSH1 0x20 PUSH1 0x40 MLOAD DUP1 DUP4 SUB DUP2 PUSH1 0x0 DUP8 GAS CALL ISZERO DUP1 ISZERO PUSH2 0x48FA JUMPI RETURNDATASIZE PUSH1 0x0 DUP1 RETURNDATACOPY RETURNDATASIZE PUSH1 0x0 REVERT JUMPDEST POP POP POP POP PUSH1 0x40 MLOAD RETURNDATASIZE PUSH1 0x1F NOT PUSH1 0x1F DUP3 ADD AND DUP3 ADD DUP1 PUSH1 0x40 MSTORE POP DUP2 ADD SWAP1 PUSH2 0x491E SWAP2 SWAP1 PUSH2 0x5820 JUMP JUMPDEST POP PUSH32 0x0 PUSH1 0x1 PUSH1 0x1 PUSH1 0xA0 SHL SUB AND PUSH4 0xFC2A88C3 PUSH1 0x40 MLOAD DUP2 PUSH4 0xFFFFFFFF AND PUSH1 0xE0 SHL DUP2 MSTORE PUSH1 0x4 ADD PUSH1 0x20 PUSH1 0x40 MLOAD DUP1 DUP4 SUB DUP2 DUP7 GAS STATICCALL ISZERO DUP1 ISZERO PUSH2 0x497D JUMPI RETURNDATASIZE PUSH1 0x0 DUP1 RETURNDATACOPY RETURNDATASIZE PUSH1 0x0 REVERT JUMPDEST POP POP POP POP PUSH1 0x40 MLOAD RETURNDATASIZE PUSH1 0x1F NOT PUSH1 0x1F DUP3 ADD AND DUP3 ADD DUP1 PUSH1 0x40 MSTORE POP DUP2 ADD SWAP1 PUSH2 0x4508 SWAP2 SWAP1 PUSH2 0x583D JUMP JUMPDEST PUSH1 0x0 DUP6 DUP2 MSTORE PUSH1 0x15 PUSH1 0x20 SWAP1 DUP2 MSTORE PUSH1 0x40 DUP1 DUP4 KECCAK256 DUP2 MLOAD SWAP3 DUP4 ADD SWAP1 SWAP2 MSTORE DUP3 DUP3 MSTORE SWAP2 DUP1 PUSH2 0x49C8 DUP9 PUSH2 0x4796 JUMP JUMPDEST SWAP1 POP PUSH1 0x0 DUP1 DUP3 PUSH2 0xFFFF AND PUSH1 0x1 PUSH1 0x1 PUSH1 0x40 SHL SUB DUP2 GT ISZERO PUSH2 0x49E9 JUMPI PUSH2 0x49E9 PUSH2 0x4FB3 JUMP JUMPDEST PUSH1 0x40 MLOAD SWAP1 DUP1 DUP3 MSTORE DUP1 PUSH1 0x20 MUL PUSH1 0x20 ADD DUP3 ADD PUSH1 0x40 MSTORE DUP1 ISZERO PUSH2 0x4A12 JUMPI DUP2 PUSH1 0x20 ADD PUSH1 0x20 DUP3 MUL DUP1 CALLDATASIZE DUP4 CALLDATACOPY ADD SWAP1 POP JUMPDEST POP SWAP1 POP JUMPDEST DUP8 DUP5 LT ISZERO PUSH2 0x4BAE JUMPI PUSH1 0x0 PUSH2 0xFFFF DUP5 AND PUSH2 0x4A2F DUP5 TIMESTAMP PUSH2 0x57E2 JUMP JUMPDEST CALLER DUP7 PUSH1 0x40 MLOAD PUSH1 0x20 ADD PUSH2 0x4A43 SWAP4 SWAP3 SWAP2 SWAP1 PUSH2 0x5B81 JUMP JUMPDEST PUSH1 0x40 MLOAD PUSH1 0x20 DUP2 DUP4 SUB SUB DUP2 MSTORE SWAP1 PUSH1 0x40 MSTORE DUP1 MLOAD SWAP1 PUSH1 0x20 ADD KECCAK256 PUSH1 0x0 SHR PUSH2 0x4A66 SWAP2 SWAP1 PUSH2 0x5BB6 JUMP JUMPDEST SWAP1 POP PUSH1 0x0 PUSH1 0x2 PUSH2 0x4A76 DUP6 TIMESTAMP PUSH2 0x57E2 JUMP JUMPDEST PUSH1 0x40 DUP1 MLOAD PUSH1 0x20 DUP2 ADD SWAP3 SWAP1 SWAP3 MSTORE PUSH12 0xFFFFFFFFFFFFFFFFFFFFFFFF NOT CALLER PUSH1 0x60 SHL AND SWAP1 DUP3 ADD MSTORE PUSH1 0x54 DUP2 ADD DUP9 SWAP1 MSTORE PUSH1 0x74 ADD PUSH1 0x40 MLOAD PUSH1 0x20 DUP2 DUP4 SUB SUB DUP2 MSTORE SWAP1 PUSH1 0x40 MSTORE DUP1 MLOAD SWAP1 PUSH1 0x20 ADD KECCAK256 PUSH1 0x0 SHR PUSH2 0x4AC6 SWAP2 SWAP1 PUSH2 0x5BB6 JUMP JUMPDEST SWAP1 POP PUSH1 0x0 PUSH2 0x4AEC PUSH2 0x4AD6 DUP15 PUSH2 0x4408 JUMP JUMPDEST DUP5 PUSH2 0x4AE1 DUP6 DUP3 PUSH2 0x57E2 JUMP JUMPDEST PUSH2 0x55D SWAP1 PUSH1 0x1 PUSH2 0x57E2 JUMP JUMPDEST SWAP1 POP PUSH1 0x0 PUSH2 0x4AF9 DUP3 PUSH2 0xFD4 JUMP JUMPDEST GT DUP1 ISZERO PUSH2 0x4B0E JUMPI POP DUP12 PUSH2 0x4B0B DUP3 PUSH2 0xFD4 JUMP JUMPDEST GT ISZERO JUMPDEST DUP1 ISZERO PUSH2 0x4B3B JUMPI POP DUP4 PUSH2 0x4B1F DUP3 PUSH2 0xFD4 JUMP JUMPDEST DUP2 MLOAD DUP2 LT PUSH2 0x4B2F JUMPI PUSH2 0x4B2F PUSH2 0x578C JUMP JUMPDEST PUSH1 0x20 MUL PUSH1 0x20 ADD ADD MLOAD PUSH1 0x0 EQ JUMPDEST ISZERO PUSH2 0x4B99 JUMPI DUP1 DUP9 PUSH1 0x40 MLOAD PUSH1 0x20 ADD PUSH2 0x4B53 SWAP3 SWAP2 SWAP1 PUSH2 0x5AFA JUMP JUMPDEST PUSH1 0x40 MLOAD PUSH1 0x20 DUP2 DUP4 SUB SUB DUP2 MSTORE SWAP1 PUSH1 0x40 MSTORE SWAP8 POP PUSH1 0x1 DUP5 PUSH2 0x4B70 DUP4 PUSH2 0xFD4 JUMP JUMPDEST DUP2 MLOAD DUP2 LT PUSH2 0x4B80 JUMPI PUSH2 0x4B80 PUSH2 0x578C JUMP JUMPDEST PUSH1 0x20 SWAP1 DUP2 MUL SWAP2 SWAP1 SWAP2 ADD ADD MSTORE DUP7 PUSH2 0x4B95 DUP2 PUSH2 0x58E8 JUMP JUMPDEST SWAP8 POP POP JUMPDEST DUP5 PUSH2 0x4BA3 DUP2 PUSH2 0x58E8 JUMP JUMPDEST SWAP6 POP POP POP POP POP PUSH2 0x4A16 JUMP JUMPDEST DUP5 PUSH2 0x4BB8 DUP13 PUSH2 0x4408 JUMP JUMPDEST PUSH1 0x40 MLOAD PUSH1 0x20 ADD PUSH2 0x4BC9 SWAP3 SWAP2 SWAP1 PUSH2 0x5B36 JUMP JUMPDEST PUSH1 0x40 DUP1 MLOAD PUSH1 0x1F NOT DUP2 DUP5 SUB ADD DUP2 MSTORE SWAP2 SWAP1 MSTORE SWAP5 POP PUSH1 0xC PUSH2 0x4BE7 DUP7 DUP3 PUSH2 0x59DB JUMP JUMPDEST POP PUSH1 0x0 PUSH1 0x1 PUSH1 0x1 PUSH1 0xA0 SHL SUB AND PUSH1 0x2E DUP7 PUSH1 0x40 MLOAD PUSH2 0x4C03 SWAP2 SWAP1 PUSH2 0x5B65 JUMP JUMPDEST SWAP1 DUP2 MSTORE PUSH1 0x40 MLOAD SWAP1 DUP2 SWAP1 SUB PUSH1 0x20 ADD SWAP1 KECCAK256 SLOAD PUSH1 0x1 PUSH1 0x1 PUSH1 0xA0 SHL SUB AND EQ PUSH2 0x4CF4 JUMPI PUSH1 0xB DUP7 ADD DUP1 SLOAD PUSH1 0xFF PUSH1 0xA0 SHL NOT AND PUSH1 0x1 PUSH1 0xA1 SHL OR SWAP1 SSTORE PUSH1 0x40 MLOAD PUSH1 0x2E SWAP1 PUSH2 0x4C47 SWAP1 DUP8 SWAP1 PUSH2 0x5B65 JUMP JUMPDEST SWAP1 DUP2 MSTORE PUSH1 0x40 MLOAD SWAP1 DUP2 SWAP1 SUB PUSH1 0x20 ADD DUP2 KECCAK256 SLOAD PUSH1 0xA DUP9 ADD DUP1 SLOAD PUSH1 0x1 PUSH1 0x1 PUSH1 0xA0 SHL SUB NOT AND PUSH1 0x1 PUSH1 0x1 PUSH1 0xA0 SHL SUB SWAP1 SWAP3 AND SWAP2 SWAP1 SWAP2 OR SWAP1 SSTORE DUP12 SWAP1 PUSH32 0xB7E9A48CBB7529B6117347E16CBA725731BB1A27FDBD3B3FD97E98A8C2409B50 SWAP1 PUSH1 0x2E SWAP1 PUSH2 0x4CAA SWAP1 DUP10 SWAP1 PUSH2 0x5B65 JUMP JUMPDEST SWAP1 DUP2 MSTORE PUSH1 0x40 MLOAD SWAP1 DUP2 SWAP1 SUB PUSH1 0x20 ADD DUP2 KECCAK256 SLOAD PUSH1 0xB DUP11 ADD SLOAD PUSH2 0x4CDD SWAP3 PUSH1 0x1 PUSH1 0x1 PUSH1 0xA0 SHL SUB SWAP3 DUP4 AND SWAP3 SWAP2 SWAP1 SWAP2 AND SWAP1 TIMESTAMP SWAP1 DUP12 SWAP1 PUSH2 0x593B JUMP JUMPDEST PUSH1 0x40 MLOAD DUP1 SWAP2 SUB SWAP1 LOG2 PUSH2 0x4CEF DUP12 DUP9 PUSH2 0x1DB1 JUMP JUMPDEST PUSH2 0x4D08 JUMP JUMPDEST PUSH2 0x4CFD DUP12 PUSH2 0x42AB JUMP JUMPDEST PUSH1 0xD DUP1 SLOAD PUSH1 0xFF NOT AND SWAP1 SSTORE JUMPDEST POP POP POP POP POP POP POP POP POP POP POP JUMP JUMPDEST PUSH1 0x0 PUSH2 0x3F26 DUP3 DUP5 PUSH2 0x5BB6 JUMP JUMPDEST PUSH1 0x0 DUP2 DUP2 MSTORE PUSH1 0x15 PUSH1 0x20 SWAP1 DUP2 MSTORE PUSH1 0x40 DUP1 DUP4 KECCAK256 PUSH1 0x16 SWAP1 SWAP3 MSTORE DUP3 KECCAK256 PUSH1 0x7 DUP3 ADD SLOAD PUSH1 0x3 DUP4 ADD SLOAD SWAP3 SWAP4 SWAP2 SWAP3 PUSH2 0x4D57 SWAP2 PUSH1 0x64 SWAP2 PUSH2 0x1A42 SWAP2 PUSH2 0x422E JUMP JUMPDEST DUP4 PUSH1 0x4 ADD SLOAD PUSH2 0x4D66 SWAP2 SWAP1 PUSH2 0x57E2 JUMP JUMPDEST SWAP1 POP PUSH1 0x6 SLOAD DUP2 LT PUSH2 0x4F11 JUMPI PUSH2 0x4DDA PUSH1 0x2 SLOAD DUP5 PUSH1 0x3 ADD SLOAD DUP6 PUSH1 0x1 ADD SLOAD DUP5 DUP7 PUSH1 0x1 ADD SLOAD DUP8 PUSH1 0x2 ADD SLOAD DUP9 PUSH1 0x3 ADD SLOAD DUP11 PUSH1 0x2 ADD SLOAD DUP12 PUSH1 0x7 ADD SLOAD DUP13 PUSH1 0x6 ADD SLOAD DUP13 PUSH1 0x4 ADD SLOAD DUP15 PUSH1 0x9 ADD PUSH1 0x0 SWAP1 SLOAD SWAP1 PUSH2 0x100 EXP SWAP1 DIV PUSH1 0x1 PUSH1 0x1 PUSH1 0xA0 SHL SUB AND DUP16 PUSH1 0xB ADD PUSH1 0x0 SWAP1 SLOAD SWAP1 PUSH2 0x100 EXP SWAP1 DIV PUSH1 0x1 PUSH1 0x1 PUSH1 0xA0 SHL SUB AND PUSH2 0x3F2D JUMP JUMPDEST PUSH1 0xB DUP4 DUP2 ADD DUP1 SLOAD PUSH1 0xFF PUSH1 0xA0 SHL NOT SWAP1 DUP2 AND PUSH1 0x3 PUSH1 0xA0 SHL OR SWAP1 SWAP2 SSTORE PUSH1 0x2 DUP1 SLOAD PUSH1 0x0 SWAP1 DUP2 MSTORE PUSH1 0x15 PUSH1 0x20 MSTORE PUSH1 0x40 DUP1 DUP3 KECCAK256 SWAP1 SWAP5 ADD DUP1 SLOAD SWAP1 SWAP4 AND PUSH1 0x5 PUSH1 0xA0 SHL OR SWAP1 SWAP3 SSTORE PUSH1 0xD DUP1 DUP8 ADD SLOAD SWAP2 SLOAD DUP4 MSTORE SWAP3 SWAP1 SWAP2 KECCAK256 SWAP1 SWAP2 ADD DUP1 SLOAD PUSH1 0xFF SWAP1 SWAP3 AND SWAP2 PUSH1 0xFF NOT AND PUSH1 0x1 DUP4 PUSH1 0x3 DUP2 GT ISZERO PUSH2 0x4E48 JUMPI PUSH2 0x4E48 PUSH2 0x55AD JUMP JUMPDEST MUL OR SWAP1 SSTORE POP PUSH1 0x5 DUP1 DUP5 ADD SLOAD PUSH1 0x2 SLOAD PUSH1 0x0 SWAP1 DUP2 MSTORE PUSH1 0x15 PUSH1 0x20 MSTORE PUSH1 0x40 SWAP1 KECCAK256 DUP3 ADD SSTORE DUP3 ADD SLOAD PUSH2 0x4E79 SWAP1 PUSH2 0xFFFF AND PUSH1 0x1 PUSH2 0x5C01 JUMP JUMPDEST PUSH1 0x2 SLOAD PUSH1 0x0 SWAP1 DUP2 MSTORE PUSH1 0x16 PUSH1 0x20 MSTORE PUSH1 0x40 SWAP1 DUP2 SWAP1 KECCAK256 PUSH1 0x5 ADD DUP1 SLOAD PUSH2 0xFFFF NOT AND PUSH2 0xFFFF SWAP4 SWAP1 SWAP4 AND SWAP3 SWAP1 SWAP3 OR SWAP1 SWAP2 SSTORE PUSH1 0xB DUP5 ADD SLOAD PUSH1 0x4 DUP5 ADD SLOAD PUSH1 0x7 DUP7 ADD SLOAD SWAP3 MLOAD PUSH32 0x1EDC524ADCDF855D2C2BD191A6394A50DB23D0EBA2534BB50789EF594E2519B SWAP4 PUSH2 0x4EEF SWAP4 PUSH1 0x1 PUSH1 0x1 PUSH1 0xA0 SHL SUB AND SWAP3 DUP10 SWAP3 SWAP1 SWAP2 SWAP1 PUSH2 0x5C1C JUMP JUMPDEST PUSH1 0x40 MLOAD DUP1 SWAP2 SUB SWAP1 LOG1 PUSH1 0x2 DUP1 SLOAD SWAP1 PUSH1 0x0 PUSH2 0x4F07 DUP4 PUSH2 0x58E8 JUMP JUMPDEST SWAP2 SWAP1 POP SSTORE POP PUSH2 0x13F2 JUMP JUMPDEST POP POP PUSH1 0xB ADD DUP1 SLOAD PUSH1 0xFF PUSH1 0xA0 SHL NOT AND PUSH1 0x1 PUSH1 0xA0 SHL OR SWAP1 SSTORE POP JUMP JUMPDEST DUP3 DUP1 SLOAD DUP3 DUP3 SSTORE SWAP1 PUSH1 0x0 MSTORE PUSH1 0x20 PUSH1 0x0 KECCAK256 SWAP1 DUP2 ADD SWAP3 DUP3 ISZERO PUSH2 0x4F65 JUMPI SWAP2 PUSH1 0x20 MUL DUP3 ADD JUMPDEST DUP3 DUP2 GT ISZERO PUSH2 0x4F65 JUMPI DUP3 MLOAD DUP3 SSTORE SWAP2 PUSH1 0x20 ADD SWAP2 SWAP1 PUSH1 0x1 ADD SWAP1 PUSH2 0x4F4A JUMP JUMPDEST POP PUSH2 0x3D69 SWAP3 SWAP2 POP JUMPDEST DUP1 DUP3 GT ISZERO PUSH2 0x3D69 JUMPI PUSH1 0x0 DUP2 SSTORE PUSH1 0x1 ADD PUSH2 0x4F6D JUMP JUMPDEST PUSH1 0x1 PUSH1 0x1 PUSH1 0xA0 SHL SUB DUP2 AND DUP2 EQ PUSH2 0x337E JUMPI PUSH1 0x0 DUP1 REVERT JUMPDEST PUSH1 0x0 PUSH1 0x20 DUP3 DUP5 SUB SLT ISZERO PUSH2 0x4FA8 JUMPI PUSH1 0x0 DUP1 REVERT JUMPDEST DUP2 CALLDATALOAD PUSH2 0x3F26 DUP2 PUSH2 0x4F81 JUMP JUMPDEST PUSH4 0x4E487B71 PUSH1 0xE0 SHL PUSH1 0x0 MSTORE PUSH1 0x41 PUSH1 0x4 MSTORE PUSH1 0x24 PUSH1 0x0 REVERT JUMPDEST PUSH1 0x40 MLOAD PUSH1 0x1F DUP3 ADD PUSH1 0x1F NOT AND DUP2 ADD PUSH1 0x1 PUSH1 0x1 PUSH1 0x40 SHL SUB DUP2 GT DUP3 DUP3 LT OR ISZERO PUSH2 0x4FF1 JUMPI PUSH2 0x4FF1 PUSH2 0x4FB3 JUMP JUMPDEST PUSH1 0x40 MSTORE SWAP2 SWAP1 POP JUMP JUMPDEST PUSH1 0x0 DUP3 PUSH1 0x1F DUP4 ADD SLT PUSH2 0x500A JUMPI PUSH1 0x0 DUP1 REVERT JUMPDEST DUP2 CALLDATALOAD PUSH1 0x1 PUSH1 0x1 PUSH1 0x40 SHL SUB DUP2 GT ISZERO PUSH2 0x5023 JUMPI PUSH2 0x5023 PUSH2 0x4FB3 JUMP JUMPDEST PUSH2 0x5036 PUSH1 0x1F DUP3 ADD PUSH1 0x1F NOT AND PUSH1 0x20 ADD PUSH2 0x4FC9 JUMP JUMPDEST DUP2 DUP2 MSTORE DUP5 PUSH1 0x20 DUP4 DUP7 ADD ADD GT ISZERO PUSH2 0x504B JUMPI PUSH1 0x0 DUP1 REVERT JUMPDEST DUP2 PUSH1 0x20 DUP6 ADD PUSH1 0x20 DUP4 ADD CALLDATACOPY PUSH1 0x0 SWAP2 DUP2 ADD PUSH1 0x20 ADD SWAP2 SWAP1 SWAP2 MSTORE SWAP4 SWAP3 POP POP POP JUMP JUMPDEST PUSH1 0x0 PUSH1 0x20 DUP3 DUP5 SUB SLT ISZERO PUSH2 0x507A JUMPI PUSH1 0x0 DUP1 REVERT JUMPDEST DUP2 CALLDATALOAD PUSH1 0x1 PUSH1 0x1 PUSH1 0x40 SHL SUB DUP2 GT ISZERO PUSH2 0x5090 JUMPI PUSH1 0x0 DUP1 REVERT JUMPDEST PUSH2 0x4508 DUP5 DUP3 DUP6 ADD PUSH2 0x4FF9 JUMP JUMPDEST PUSH1 0x0 DUP2 MLOAD DUP1 DUP5 MSTORE PUSH1 0x20 DUP1 DUP6 ADD SWAP5 POP PUSH1 0x20 DUP5 ADD PUSH1 0x0 JUMPDEST DUP4 DUP2 LT ISZERO PUSH2 0x50CD JUMPI DUP2 MLOAD DUP8 MSTORE SWAP6 DUP3 ADD SWAP6 SWAP1 DUP3 ADD SWAP1 PUSH1 0x1 ADD PUSH2 0x50B1 JUMP JUMPDEST POP SWAP5 SWAP6 SWAP5 POP POP POP POP POP JUMP JUMPDEST PUSH1 0x20 DUP2 MSTORE PUSH1 0x0 PUSH2 0x3F26 PUSH1 0x20 DUP4 ADD DUP5 PUSH2 0x509C JUMP JUMPDEST PUSH1 0x0 DUP1 PUSH1 0x0 PUSH1 0x60 DUP5 DUP7 SUB SLT ISZERO PUSH2 0x5100 JUMPI PUSH1 0x0 DUP1 REVERT JUMPDEST DUP4 CALLDATALOAD PUSH1 0x1 PUSH1 0x1 PUSH1 0x40 SHL SUB DUP2 GT ISZERO PUSH2 0x5116 JUMPI PUSH1 0x0 DUP1 REVERT JUMPDEST PUSH2 0x5122 DUP7 DUP3 DUP8 ADD PUSH2 0x4FF9 JUMP JUMPDEST SWAP7 PUSH1 0x20 DUP7 ADD CALLDATALOAD SWAP7 POP PUSH1 0x40 SWAP1 SWAP6 ADD CALLDATALOAD SWAP5 SWAP4 POP POP POP POP JUMP JUMPDEST PUSH1 0x0 JUMPDEST DUP4 DUP2 LT ISZERO PUSH2 0x5153 JUMPI DUP2 DUP2 ADD MLOAD DUP4 DUP3 ADD MSTORE PUSH1 0x20 ADD PUSH2 0x513B JUMP JUMPDEST POP POP PUSH1 0x0 SWAP2 ADD MSTORE JUMP JUMPDEST PUSH1 0x0 DUP2 MLOAD DUP1 DUP5 MSTORE PUSH2 0x5174 DUP2 PUSH1 0x20 DUP7 ADD PUSH1 0x20 DUP7 ADD PUSH2 0x5138 JUMP JUMPDEST PUSH1 0x1F ADD PUSH1 0x1F NOT AND SWAP3 SWAP1 SWAP3 ADD PUSH1 0x20 ADD SWAP3 SWAP2 POP POP JUMP JUMPDEST PUSH1 0x20 DUP2 MSTORE PUSH1 0x0 PUSH2 0x3F26 PUSH1 0x20 DUP4 ADD DUP5 PUSH2 0x515C JUMP JUMPDEST PUSH1 0x0 DUP3 PUSH1 0x1F DUP4 ADD SLT PUSH2 0x51AC JUMPI PUSH1 0x0 DUP1 REVERT JUMPDEST DUP2 CALLDATALOAD PUSH1 0x20 PUSH1 0x1 PUSH1 0x1 PUSH1 0x40 SHL SUB DUP3 GT ISZERO PUSH2 0x51C7 JUMPI PUSH2 0x51C7 PUSH2 0x4FB3 JUMP JUMPDEST DUP2 PUSH1 0x5 SHL PUSH2 0x51D6 DUP3 DUP3 ADD PUSH2 0x4FC9 JUMP JUMPDEST SWAP3 DUP4 MSTORE DUP5 DUP2 ADD DUP3 ADD SWAP3 DUP3 DUP2 ADD SWAP1 DUP8 DUP6 GT ISZERO PUSH2 0x51F0 JUMPI PUSH1 0x0 DUP1 REVERT JUMPDEST DUP4 DUP8 ADD SWAP3 POP JUMPDEST DUP5 DUP4 LT ISZERO PUSH2 0x520F JUMPI DUP3 CALLDATALOAD DUP3 MSTORE SWAP2 DUP4 ADD SWAP2 SWAP1 DUP4 ADD SWAP1 PUSH2 0x51F6 JUMP JUMPDEST SWAP8 SWAP7 POP POP POP POP POP POP POP JUMP JUMPDEST PUSH1 0x0 DUP1 PUSH1 0x40 DUP4 DUP6 SUB SLT ISZERO PUSH2 0x522D JUMPI PUSH1 0x0 DUP1 REVERT JUMPDEST DUP3 CALLDATALOAD SWAP2 POP PUSH1 0x20 DUP4 ADD CALLDATALOAD PUSH1 0x1 PUSH1 0x1 PUSH1 0x40 SHL SUB DUP2 GT ISZERO PUSH2 0x524A JUMPI PUSH1 0x0 DUP1 REVERT JUMPDEST PUSH2 0x5256 DUP6 DUP3 DUP7 ADD PUSH2 0x519B JUMP JUMPDEST SWAP2 POP POP SWAP3 POP SWAP3 SWAP1 POP JUMP JUMPDEST PUSH1 0x0 PUSH1 0x20 DUP3 DUP5 SUB SLT ISZERO PUSH2 0x5272 JUMPI PUSH1 0x0 DUP1 REVERT JUMPDEST POP CALLDATALOAD SWAP2 SWAP1 POP JUMP JUMPDEST PUSH1 0x0 DUP1 PUSH1 0x40 DUP4 DUP6 SUB SLT ISZERO PUSH2 0x528C JUMPI PUSH1 0x0 DUP1 REVERT JUMPDEST DUP3 CALLDATALOAD SWAP2 POP PUSH1 0x20 DUP4 ADD CALLDATALOAD PUSH2 0x529E DUP2 PUSH2 0x4F81 JUMP JUMPDEST DUP1 SWAP2 POP POP SWAP3 POP SWAP3 SWAP1 POP JUMP JUMPDEST PUSH1 0x0 DUP1 PUSH1 0x40 DUP4 DUP6 SUB SLT ISZERO PUSH2 0x52BC JUMPI PUSH1 0x0 DUP1 REVERT JUMPDEST POP POP DUP1 CALLDATALOAD SWAP3 PUSH1 0x20 SWAP1 SWAP2 ADD CALLDATALOAD SWAP2 POP JUMP JUMPDEST PUSH1 0x0 DUP1 PUSH1 0x20 DUP4 DUP6 SUB SLT ISZERO PUSH2 0x52DE JUMPI PUSH1 0x0 DUP1 REVERT JUMPDEST DUP3 CALLDATALOAD PUSH1 0x1 PUSH1 0x1 PUSH1 0x40 SHL SUB DUP1 DUP3 GT ISZERO PUSH2 0x52F5 JUMPI PUSH1 0x0 DUP1 REVERT JUMPDEST DUP2 DUP6 ADD SWAP2 POP DUP6 PUSH1 0x1F DUP4 ADD SLT PUSH2 0x5309 JUMPI PUSH1 0x0 DUP1 REVERT JUMPDEST DUP2 CALLDATALOAD DUP2 DUP2 GT ISZERO PUSH2 0x5318 JUMPI PUSH1 0x0 DUP1 REVERT JUMPDEST DUP7 PUSH1 0x20 DUP3 DUP6 ADD ADD GT ISZERO PUSH2 0x532A JUMPI PUSH1 0x0 DUP1 REVERT JUMPDEST PUSH1 0x20 SWAP3 SWAP1 SWAP3 ADD SWAP7 SWAP2 SWAP6 POP SWAP1 SWAP4 POP POP POP POP JUMP JUMPDEST PUSH1 0x0 DUP1 PUSH1 0x0 DUP1 PUSH1 0x0 DUP1 PUSH1 0x0 DUP1 PUSH1 0x0 DUP1 PUSH1 0x0 DUP1 PUSH2 0x180 DUP14 DUP16 SUB SLT ISZERO PUSH2 0x535F JUMPI PUSH1 0x0 DUP1 REVERT JUMPDEST DUP13 CALLDATALOAD SWAP12 POP PUSH1 0x20 DUP14 ADD CALLDATALOAD SWAP11 POP PUSH1 0x40 DUP14 ADD CALLDATALOAD SWAP10 POP PUSH1 0x60 DUP14 ADD CALLDATALOAD SWAP9 POP PUSH1 0x80 DUP14 ADD CALLDATALOAD SWAP8 POP PUSH1 0xA0 DUP14 ADD CALLDATALOAD SWAP7 POP PUSH1 0xC0 DUP14 ADD CALLDATALOAD SWAP6 POP PUSH1 0xE0 DUP14 ADD CALLDATALOAD SWAP5 POP PUSH2 0x100 DUP14 ADD CALLDATALOAD SWAP4 POP PUSH2 0x120 DUP14 ADD CALLDATALOAD SWAP3 POP PUSH2 0x140 DUP14 ADD CALLDATALOAD PUSH2 0x53B3 DUP2 PUSH2 0x4F81 JUMP JUMPDEST SWAP2 POP PUSH2 0x160 DUP14 ADD CALLDATALOAD PUSH1 0x4 DUP2 LT PUSH2 0x53C8 JUMPI PUSH1 0x0 DUP1 REVERT JUMPDEST DUP1 SWAP2 POP POP SWAP3 SWAP6 SWAP9 SWAP12 POP SWAP3 SWAP6 SWAP9 SWAP12 POP SWAP3 SWAP6 SWAP9 SWAP12 JUMP JUMPDEST PUSH1 0x0 DUP1 PUSH1 0x0 PUSH1 0x60 DUP5 DUP7 SUB SLT ISZERO PUSH2 0x53F1 JUMPI PUSH1 0x0 DUP1 REVERT JUMPDEST DUP4 CALLDATALOAD SWAP3 POP PUSH1 0x20 DUP5 ADD CALLDATALOAD PUSH2 0x5403 DUP2 PUSH2 0x4F81 JUMP JUMPDEST SWAP2 POP PUSH1 0x40 DUP5 ADD CALLDATALOAD PUSH2 0x5413 DUP2 PUSH2 0x4F81 JUMP JUMPDEST DUP1 SWAP2 POP POP SWAP3 POP SWAP3 POP SWAP3 JUMP JUMPDEST PUSH1 0x40 DUP2 MSTORE PUSH1 0x0 PUSH2 0x5431 PUSH1 0x40 DUP4 ADD DUP6 PUSH2 0x509C JUMP JUMPDEST DUP3 DUP2 SUB PUSH1 0x20 DUP5 DUP2 ADD SWAP2 SWAP1 SWAP2 MSTORE DUP5 MLOAD DUP1 DUP4 MSTORE DUP6 DUP3 ADD SWAP3 DUP3 ADD SWAP1 PUSH1 0x0 JUMPDEST DUP2 DUP2 LT ISZERO PUSH2 0x5471 JUMPI DUP5 MLOAD PUSH1 0x1 PUSH1 0x1 PUSH1 0xA0 SHL SUB AND DUP4 MSTORE SWAP4 DUP4 ADD SWAP4 SWAP2 DUP4 ADD SWAP2 PUSH1 0x1 ADD PUSH2 0x544C JUMP JUMPDEST POP SWAP1 SWAP8 SWAP7 POP POP POP POP POP POP POP JUMP JUMPDEST DUP1 ISZERO ISZERO DUP2 EQ PUSH2 0x337E JUMPI PUSH1 0x0 DUP1 REVERT JUMPDEST PUSH1 0x0 PUSH1 0x20 DUP3 DUP5 SUB SLT ISZERO PUSH2 0x549E JUMPI PUSH1 0x0 DUP1 REVERT JUMPDEST DUP2 CALLDATALOAD PUSH2 0x3F26 DUP2 PUSH2 0x547E JUMP JUMPDEST DUP3 ISZERO ISZERO DUP2 MSTORE PUSH1 0x40 PUSH1 0x20 DUP3 ADD MSTORE PUSH1 0x0 PUSH2 0x4508 PUSH1 0x40 DUP4 ADD DUP5 PUSH2 0x515C JUMP JUMPDEST PUSH1 0xE0 DUP2 MSTORE PUSH1 0x0 PUSH2 0x54D7 PUSH1 0xE0 DUP4 ADD DUP11 PUSH2 0x515C JUMP JUMPDEST DUP3 DUP2 SUB PUSH1 0x20 DUP5 ADD MSTORE PUSH2 0x54E9 DUP2 DUP11 PUSH2 0x515C JUMP JUMPDEST SWAP1 POP DUP8 ISZERO ISZERO PUSH1 0x40 DUP5 ADD MSTORE DUP3 DUP2 SUB PUSH1 0x60 DUP5 ADD MSTORE PUSH2 0x5505 DUP2 DUP9 PUSH2 0x515C JUMP JUMPDEST PUSH1 0x1 PUSH1 0x1 PUSH1 0xA0 SHL SUB SWAP7 SWAP1 SWAP7 AND PUSH1 0x80 DUP5 ADD MSTORE POP POP PUSH1 0xA0 DUP2 ADD SWAP3 SWAP1 SWAP3 MSTORE PUSH1 0xC0 SWAP1 SWAP2 ADD MSTORE SWAP5 SWAP4 POP POP POP POP JUMP JUMPDEST PUSH1 0x0 DUP1 PUSH1 0x0 DUP1 PUSH1 0x0 PUSH1 0xA0 DUP7 DUP9 SUB SLT ISZERO PUSH2 0x5546 JUMPI PUSH1 0x0 DUP1 REVERT JUMPDEST POP POP DUP4 CALLDATALOAD SWAP6 PUSH1 0x20 DUP6 ADD CALLDATALOAD SWAP6 POP PUSH1 0x40 DUP6 ADD CALLDATALOAD SWAP5 PUSH1 0x60 DUP2 ADD CALLDATALOAD SWAP5 POP PUSH1 0x80 ADD CALLDATALOAD SWAP3 POP SWAP1 POP JUMP JUMPDEST PUSH1 0x0 DUP1 PUSH1 0x40 DUP4 DUP6 SUB SLT ISZERO PUSH2 0x557C JUMPI PUSH1 0x0 DUP1 REVERT JUMPDEST DUP3 CALLDATALOAD PUSH1 0x1 PUSH1 0x1 PUSH1 0x40 SHL SUB DUP2 GT ISZERO PUSH2 0x5592 JUMPI PUSH1 0x0 DUP1 REVERT JUMPDEST PUSH2 0x559E DUP6 DUP3 DUP7 ADD PUSH2 0x4FF9 JUMP JUMPDEST SWAP6 PUSH1 0x20 SWAP5 SWAP1 SWAP5 ADD CALLDATALOAD SWAP5 POP POP POP POP JUMP JUMPDEST PUSH4 0x4E487B71 PUSH1 0xE0 SHL PUSH1 0x0 MSTORE PUSH1 0x21 PUSH1 0x4 MSTORE PUSH1 0x24 PUSH1 0x0 REVERT JUMPDEST PUSH1 0x7 DUP2 LT PUSH2 0x55D3 JUMPI PUSH2 0x55D3 PUSH2 0x55AD JUMP JUMPDEST SWAP1 MSTORE JUMP JUMPDEST PUSH1 0x4 DUP2 LT PUSH2 0x55D3 JUMPI PUSH2 0x55D3 PUSH2 0x55AD JUMP JUMPDEST DUP15 DUP2 MSTORE PUSH1 0x20 DUP2 ADD DUP15 SWAP1 MSTORE PUSH1 0x40 DUP2 ADD DUP14 SWAP1 MSTORE PUSH1 0x60 DUP2 ADD DUP13 SWAP1 MSTORE PUSH1 0x80 DUP2 ADD DUP12 SWAP1 MSTORE PUSH1 0xA0 DUP2 ADD DUP11 SWAP1 MSTORE PUSH1 0xC0 DUP2 ADD DUP10 SWAP1 MSTORE PUSH1 0xE0 DUP2 ADD DUP9 SWAP1 MSTORE PUSH2 0x100 DUP2 ADD DUP8 SWAP1 MSTORE PUSH1 0x1 PUSH1 0x1 PUSH1 0xA0 SHL SUB DUP7 DUP2 AND PUSH2 0x120 DUP4 ADD MSTORE DUP6 DUP2 AND PUSH2 0x140 DUP4 ADD MSTORE DUP5 AND PUSH2 0x160 DUP3 ADD MSTORE PUSH2 0x1C0 DUP2 ADD PUSH2 0x5658 PUSH2 0x180 DUP4 ADD DUP6 PUSH2 0x55C3 JUMP JUMPDEST PUSH2 0x5666 PUSH2 0x1A0 DUP4 ADD DUP5 PUSH2 0x55D7 JUMP JUMPDEST SWAP16 SWAP15 POP POP POP POP POP POP POP POP POP POP POP POP POP POP POP JUMP JUMPDEST PUSH1 0x0 DUP1 PUSH1 0x0 DUP1 PUSH1 0x0 DUP1 PUSH1 0xC0 DUP8 DUP10 SUB SLT ISZERO PUSH2 0x5692 JUMPI PUSH1 0x0 DUP1 REVERT JUMPDEST DUP7 CALLDATALOAD PUSH1 0x1 PUSH1 0x1 PUSH1 0x40 SHL SUB DUP1 DUP3 GT ISZERO PUSH2 0x56A9 JUMPI PUSH1 0x0 DUP1 REVERT JUMPDEST PUSH2 0x56B5 DUP11 DUP4 DUP12 ADD PUSH2 0x4FF9 JUMP JUMPDEST SWAP8 POP PUSH1 0x20 DUP10 ADD CALLDATALOAD SWAP2 POP DUP1 DUP3 GT ISZERO PUSH2 0x56CB JUMPI PUSH1 0x0 DUP1 REVERT JUMPDEST PUSH2 0x56D7 DUP11 DUP4 DUP12 ADD PUSH2 0x4FF9 JUMP JUMPDEST SWAP7 POP PUSH1 0x40 DUP10 ADD CALLDATALOAD SWAP2 POP PUSH2 0x56E9 DUP3 PUSH2 0x547E JUMP JUMPDEST SWAP1 SWAP5 POP PUSH1 0x60 DUP9 ADD CALLDATALOAD SWAP1 DUP1 DUP3 GT ISZERO PUSH2 0x56FF JUMPI PUSH1 0x0 DUP1 REVERT JUMPDEST POP PUSH2 0x570C DUP10 DUP3 DUP11 ADD PUSH2 0x4FF9 JUMP JUMPDEST SWAP4 POP POP PUSH1 0x80 DUP8 ADD CALLDATALOAD PUSH2 0x571D DUP2 PUSH2 0x4F81 JUMP JUMPDEST DUP1 SWAP3 POP POP PUSH1 0xA0 DUP8 ADD CALLDATALOAD SWAP1 POP SWAP3 SWAP6 POP SWAP3 SWAP6 POP SWAP3 SWAP6 JUMP JUMPDEST PUSH1 0x0 DUP1 PUSH1 0x40 DUP4 DUP6 SUB SLT ISZERO PUSH2 0x5745 JUMPI PUSH1 0x0 DUP1 REVERT JUMPDEST DUP3 CALLDATALOAD PUSH1 0x1 PUSH1 0x1 PUSH1 0x40 SHL SUB DUP2 GT ISZERO PUSH2 0x575B JUMPI PUSH1 0x0 DUP1 REVERT JUMPDEST PUSH2 0x559E DUP6 DUP3 DUP7 ADD PUSH2 0x519B JUMP JUMPDEST PUSH1 0x20 DUP1 DUP3 MSTORE PUSH1 0xB SWAP1 DUP3 ADD MSTORE PUSH11 0x3737BA16B096B0B236B4B7 PUSH1 0xA9 SHL PUSH1 0x40 DUP3 ADD MSTORE PUSH1 0x60 ADD SWAP1 JUMP JUMPDEST PUSH4 0x4E487B71 PUSH1 0xE0 SHL PUSH1 0x0 MSTORE PUSH1 0x32 PUSH1 0x4 MSTORE PUSH1 0x24 PUSH1 0x0 REVERT JUMPDEST PUSH4 0x4E487B71 PUSH1 0xE0 SHL PUSH1 0x0 MSTORE PUSH1 0x11 PUSH1 0x4 MSTORE PUSH1 0x24 PUSH1 0x0 REVERT JUMPDEST DUP2 DUP2 SUB DUP2 DUP2 GT ISZERO PUSH2 0x3245 JUMPI PUSH2 0x3245 PUSH2 0x57A2 JUMP JUMPDEST DUP1 DUP3 MUL DUP2 ISZERO DUP3 DUP3 DIV DUP5 EQ OR PUSH2 0x3245 JUMPI PUSH2 0x3245 PUSH2 0x57A2 JUMP JUMPDEST DUP1 DUP3 ADD DUP1 DUP3 GT ISZERO PUSH2 0x3245 JUMPI PUSH2 0x3245 PUSH2 0x57A2 JUMP JUMPDEST PUSH1 0x20 DUP1 DUP3 MSTORE PUSH1 0x11 SWAP1 DUP3 ADD MSTORE PUSH17 0x115B9D1C9E48119959481B9BDD081B595D PUSH1 0x7A SHL PUSH1 0x40 DUP3 ADD MSTORE PUSH1 0x60 ADD SWAP1 JUMP JUMPDEST PUSH1 0x0 PUSH1 0x20 DUP3 DUP5 SUB SLT ISZERO PUSH2 0x5832 JUMPI PUSH1 0x0 DUP1 REVERT JUMPDEST DUP2 MLOAD PUSH2 0x3F26 DUP2 PUSH2 0x547E JUMP JUMPDEST PUSH1 0x0 PUSH1 0x20 DUP3 DUP5 SUB SLT ISZERO PUSH2 0x584F JUMPI PUSH1 0x0 DUP1 REVERT JUMPDEST POP MLOAD SWAP2 SWAP1 POP JUMP JUMPDEST PUSH1 0x20 DUP1 DUP3 MSTORE PUSH1 0x2B SWAP1 DUP3 ADD MSTORE PUSH32 0x4E6F7420656E6F756768204C494E4B202D2066696C6C20636F6E747261637420 PUSH1 0x40 DUP3 ADD MSTORE PUSH11 0x1DDA5D1A0819985D58D95D PUSH1 0xAA SHL PUSH1 0x60 DUP3 ADD MSTORE PUSH1 0x80 ADD SWAP1 JUMP JUMPDEST PUSH4 0x4E487B71 PUSH1 0xE0 SHL PUSH1 0x0 MSTORE PUSH1 0x12 PUSH1 0x4 MSTORE PUSH1 0x24 PUSH1 0x0 REVERT JUMPDEST PUSH1 0x0 DUP3 PUSH2 0x58C6 JUMPI PUSH2 0x58C6 PUSH2 0x58A1 JUMP JUMPDEST POP DIV SWAP1 JUMP JUMPDEST PUSH1 0x0 PUSH1 0x20 DUP3 DUP5 SUB SLT ISZERO PUSH2 0x58DD JUMPI PUSH1 0x0 DUP1 REVERT JUMPDEST DUP2 MLOAD PUSH2 0x3F26 DUP2 PUSH2 0x4F81 JUMP JUMPDEST PUSH1 0x0 PUSH1 0x1 DUP3 ADD PUSH2 0x58FA JUMPI PUSH2 0x58FA PUSH2 0x57A2 JUMP JUMPDEST POP PUSH1 0x1 ADD SWAP1 JUMP JUMPDEST PUSH1 0x1 DUP2 DUP2 SHR SWAP1 DUP3 AND DUP1 PUSH2 0x5915 JUMPI PUSH1 0x7F DUP3 AND SWAP2 POP JUMPDEST PUSH1 0x20 DUP3 LT DUP2 SUB PUSH2 0x5935 JUMPI PUSH4 0x4E487B71 PUSH1 0xE0 SHL PUSH1 0x0 MSTORE PUSH1 0x22 PUSH1 0x4 MSTORE PUSH1 0x24 PUSH1 0x0 REVERT JUMPDEST POP SWAP2 SWAP1 POP JUMP JUMPDEST PUSH1 0x1 PUSH1 0x1 PUSH1 0xA0 SHL SUB DUP6 DUP2 AND DUP3 MSTORE DUP5 AND PUSH1 0x20 DUP3 ADD MSTORE PUSH1 0x40 DUP2 ADD DUP4 SWAP1 MSTORE PUSH1 0x80 PUSH1 0x60 DUP3 ADD DUP2 SWAP1 MSTORE PUSH1 0x0 SWAP1 PUSH2 0x596E SWAP1 DUP4 ADD DUP5 PUSH2 0x515C JUMP JUMPDEST SWAP7 SWAP6 POP POP POP POP POP POP JUMP JUMPDEST PUSH4 0x4E487B71 PUSH1 0xE0 SHL PUSH1 0x0 MSTORE PUSH1 0x1 PUSH1 0x4 MSTORE PUSH1 0x24 PUSH1 0x0 REVERT JUMPDEST PUSH1 0x1F DUP3 GT ISZERO PUSH2 0x59D6 JUMPI PUSH1 0x0 DUP2 PUSH1 0x0 MSTORE PUSH1 0x20 PUSH1 0x0 KECCAK256 PUSH1 0x1F DUP6 ADD PUSH1 0x5 SHR DUP2 ADD PUSH1 0x20 DUP7 LT ISZERO PUSH2 0x59B7 JUMPI POP DUP1 JUMPDEST PUSH1 0x1F DUP6 ADD PUSH1 0x5 SHR DUP3 ADD SWAP2 POP JUMPDEST DUP2 DUP2 LT ISZERO PUSH2 0x3940 JUMPI DUP3 DUP2 SSTORE PUSH1 0x1 ADD PUSH2 0x59C3 JUMP JUMPDEST POP POP POP JUMP JUMPDEST DUP2 MLOAD PUSH1 0x1 PUSH1 0x1 PUSH1 0x40 SHL SUB DUP2 GT ISZERO PUSH2 0x59F4 JUMPI PUSH2 0x59F4 PUSH2 0x4FB3 JUMP JUMPDEST PUSH2 0x5A08 DUP2 PUSH2 0x5A02 DUP5 SLOAD PUSH2 0x5901 JUMP JUMPDEST DUP5 PUSH2 0x598E JUMP JUMPDEST PUSH1 0x20 DUP1 PUSH1 0x1F DUP4 GT PUSH1 0x1 DUP2 EQ PUSH2 0x5A3D JUMPI PUSH1 0x0 DUP5 ISZERO PUSH2 0x5A25 JUMPI POP DUP6 DUP4 ADD MLOAD JUMPDEST PUSH1 0x0 NOT PUSH1 0x3 DUP7 SWAP1 SHL SHR NOT AND PUSH1 0x1 DUP6 SWAP1 SHL OR DUP6 SSTORE PUSH2 0x3940 JUMP JUMPDEST PUSH1 0x0 DUP6 DUP2 MSTORE PUSH1 0x20 DUP2 KECCAK256 PUSH1 0x1F NOT DUP7 AND SWAP2 JUMPDEST DUP3 DUP2 LT ISZERO PUSH2 0x5A6C JUMPI DUP9 DUP7 ADD MLOAD DUP3 SSTORE SWAP5 DUP5 ADD SWAP5 PUSH1 0x1 SWAP1 SWAP2 ADD SWAP1 DUP5 ADD PUSH2 0x5A4D JUMP JUMPDEST POP DUP6 DUP3 LT ISZERO PUSH2 0x5A8A JUMPI DUP8 DUP6 ADD MLOAD PUSH1 0x0 NOT PUSH1 0x3 DUP9 SWAP1 SHL PUSH1 0xF8 AND SHR NOT AND DUP2 SSTORE JUMPDEST POP POP POP POP POP PUSH1 0x1 SWAP1 DUP2 SHL ADD SWAP1 SSTORE POP JUMP JUMPDEST PUSH1 0xC0 DUP2 MSTORE PUSH1 0x0 PUSH2 0x5AAD PUSH1 0xC0 DUP4 ADD DUP10 PUSH2 0x515C JUMP JUMPDEST DUP3 DUP2 SUB PUSH1 0x20 DUP5 ADD MSTORE PUSH2 0x5ABF DUP2 DUP10 PUSH2 0x515C JUMP JUMPDEST SWAP1 POP DUP7 ISZERO ISZERO PUSH1 0x40 DUP5 ADD MSTORE DUP3 DUP2 SUB PUSH1 0x60 DUP5 ADD MSTORE PUSH2 0x5ADB DUP2 DUP8 PUSH2 0x515C JUMP JUMPDEST PUSH1 0x1 PUSH1 0x1 PUSH1 0xA0 SHL SUB SWAP6 SWAP1 SWAP6 AND PUSH1 0x80 DUP5 ADD MSTORE POP POP PUSH1 0xA0 ADD MSTORE SWAP5 SWAP4 POP POP POP POP JUMP JUMPDEST PUSH1 0x0 DUP4 MLOAD PUSH2 0x5B0C DUP2 DUP5 PUSH1 0x20 DUP9 ADD PUSH2 0x5138 JUMP JUMPDEST PUSH1 0x2D PUSH1 0xF8 SHL SWAP1 DUP4 ADD SWAP1 DUP2 MSTORE DUP4 MLOAD PUSH2 0x5B2A DUP2 PUSH1 0x1 DUP5 ADD PUSH1 0x20 DUP9 ADD PUSH2 0x5138 JUMP JUMPDEST ADD PUSH1 0x1 ADD SWAP5 SWAP4 POP POP POP POP JUMP JUMPDEST PUSH1 0x0 DUP4 MLOAD PUSH2 0x5B48 DUP2 DUP5 PUSH1 0x20 DUP9 ADD PUSH2 0x5138 JUMP JUMPDEST DUP4 MLOAD SWAP1 DUP4 ADD SWAP1 PUSH2 0x5B5C DUP2 DUP4 PUSH1 0x20 DUP9 ADD PUSH2 0x5138 JUMP JUMPDEST ADD SWAP5 SWAP4 POP POP POP POP JUMP JUMPDEST PUSH1 0x0 DUP3 MLOAD PUSH2 0x5B77 DUP2 DUP5 PUSH1 0x20 DUP8 ADD PUSH2 0x5138 JUMP JUMPDEST SWAP2 SWAP1 SWAP2 ADD SWAP3 SWAP2 POP POP JUMP JUMPDEST SWAP3 DUP4 MSTORE PUSH1 0x60 SWAP2 SWAP1 SWAP2 SHL PUSH12 0xFFFFFFFFFFFFFFFFFFFFFFFF NOT AND PUSH1 0x20 DUP4 ADD MSTORE PUSH1 0xF0 SHL PUSH1 0x1 PUSH1 0x1 PUSH1 0xF0 SHL SUB NOT AND PUSH1 0x34 DUP3 ADD MSTORE PUSH1 0x36 ADD SWAP1 JUMP JUMPDEST PUSH1 0x0 DUP3 PUSH2 0x5BC5 JUMPI PUSH2 0x5BC5 PUSH2 0x58A1 JUMP JUMPDEST POP MOD SWAP1 JUMP JUMPDEST PUSH1 0x1 PUSH1 0x1 PUSH1 0xA0 SHL SUB DUP6 AND DUP2 MSTORE PUSH1 0x80 PUSH1 0x20 DUP3 ADD DUP2 SWAP1 MSTORE PUSH1 0x0 SWAP1 PUSH2 0x5BEE SWAP1 DUP4 ADD DUP7 PUSH2 0x509C JUMP JUMPDEST PUSH1 0x40 DUP4 ADD SWAP5 SWAP1 SWAP5 MSTORE POP PUSH1 0x60 ADD MSTORE SWAP3 SWAP2 POP POP JUMP JUMPDEST PUSH2 0xFFFF DUP2 DUP2 AND DUP4 DUP3 AND ADD SWAP1 DUP1 DUP3 GT ISZERO PUSH2 0x1129 JUMPI PUSH2 0x1129 PUSH2 0x57A2 JUMP JUMPDEST PUSH1 0x1 PUSH1 0x1 PUSH1 0xA0 SHL SUB SWAP5 SWAP1 SWAP5 AND DUP5 MSTORE PUSH1 0x20 DUP5 ADD SWAP3 SWAP1 SWAP3 MSTORE PUSH1 0x40 DUP4 ADD MSTORE PUSH1 0x60 DUP3 ADD MSTORE PUSH1 0x80 ADD SWAP1 JUMP JUMPDEST PUSH1 0x0 PUSH1 0xFF DUP3 AND PUSH1 0xFF DUP2 SUB PUSH2 0x5C58 JUMPI PUSH2 0x5C58 PUSH2 0x57A2 JUMP JUMPDEST PUSH1 0x1 ADD SWAP3 SWAP2 POP POP JUMP JUMPDEST PUSH1 0x1 DUP1 PUSH1 0xA0 SHL SUB DUP5 AND DUP2 MSTORE DUP3 PUSH1 0x20 DUP3 ADD MSTORE PUSH1 0x60 PUSH1 0x40 DUP3 ADD MSTORE PUSH1 0x0 PUSH2 0x5C88 PUSH1 0x60 DUP4 ADD DUP5 PUSH2 0x515C JUMP JUMPDEST SWAP6 SWAP5 POP POP POP POP POP JUMP INVALID LOG2 PUSH5 0x6970667358 0x22 SLT KECCAK256 SHR CODECOPY PUSH20 0x7368ECA4088E6DCF3D994FDA58A1D1E47B88A0DF PUSH17 0x7A2D0D92CE456A5364736F6C6343000816 STOP CALLER "},"methodIdentifiers":{"TicketsList(string)":"b43f0b2b","acceptOwnership()":"79ba5097","addEditPartnerDetails(string,string,bool,string,address,uint256)":"b85dfeaa","admin()":"f851a440","amountEarned(address)":"09deaa24","amountLocked(address)":"f6c788b2","amountspend(address)":"2751134a","amountwon(address)":"bef7e5a2","autobetUseraddress()":"076e316f","buyMissilelottery(string,uint256)":"8ac9a601","buyNormalLottery(uint256[],uint256)":"e3a7f155","buySpinnerLottery(uint256,uint256)":"2f24d5dc","callresult()":"94d1283a","checkUpkeep(bytes)":"6e04ff0d","commissionEarned(address)":"e79d8a07","createLottery(uint256,uint256,uint256,uint256,uint256,uint256,uint256,uint256,uint256,uint256,address,uint8)":"47d5fcc6","defaultRolloverday()":"4e204920","getLotteryNumbers(uint256)":"5f8e26a7","getMineLotteryNumbers(uint256)":"ada9dcb9","getOrglotteries(address)":"c41ce92e","getPartnerlotteries(address)":"dd73656d","getUserlotteries(address)":"1c9c8e99","lastresult()":"bd3491f2","lottery(uint256)":"a57d1560","lotteryCreateFee()":"75e9340a","lotteryDates(uint256)":"aa10304c","lotteryId()":"e580f47b","lotterySales(uint256)":"e043e7bc","lotteryTickets(uint256,address)":"26617ddb","minelottery(uint256,uint256)":"bc112e93","minimumRollover()":"e87122d6","owner()":"8da5cb5b","partnerId()":"aa37db6c","partnerPayAmount(address)":"81efc756","partnerbyaddr(address)":"7782d576","partnerids(uint256)":"f489bd3d","paywinner(uint256,uint256)":"4b3b408a","performUpkeep(bytes)":"4585e33b","randomNumber(uint256)":"f970dd02","rawFulfillRandomWords(uint256,uint256[])":"1fe543e3","redeemTokens()":"e9a9c50c","refereeEarned(address)":"3de55f95","requestIds(uint256)":"8796ba8c","s_requests(uint256)":"a168fa89","setCallresult(bool)":"6bf8dc74","setTokenAddress(address)":"26a4e8d2","spinBuyer(uint256)":"c0dae685","spinNumbers(uint256)":"67eecd5a","stringToUint(string)":"1bd95155","substring(string,uint256,uint256)":"1dcd9b55","tokenAddress()":"9d76ea58","tokenEarnPercent()":"d7e2368f","tokenearned(address)":"96169995","tokenredeemed(address)":"16a1a468","totalCommissionEarned()":"c73cdd23","totalDraws()":"137ef049","totalLotteryCreationFees(address)":"1ed1936f","totalPartnerPay()":"944f59de","totalProfits(uint256)":"2071be7b","totalSale()":"ea4ce239","totalWinnerAmount(address)":"ea123d1a","totalWinners()":"bcc941b6","transferAdmin(address)":"75829def","transferFeePerc()":"b2dd29f3","transferOwnership(address)":"f2fde38b","transferToken(uint256,address,address)":"4a2a1fb0","updateFee(uint256,uint256,uint256,uint256,uint256)":"7c9315f3","winnerTax(address)":"48c096a7","withdrawAdmin()":"04c76af0","withdrawETH()":"e086e5ec","withdrawLink()":"8dc654a2","withdrawcommission()":"51d4568f","withdrawrefereecommission()":"91489105"}}}}}