{
  "_format": "hh-sol-artifact-1",
  "contractName": "autobetUser",
  "sourceName": "Contract/Phase_3.1_SEPOLIA_ETH/SplittedContract/autobetUser.sol",
  "abi": [
    {
      "inputs": [],
      "stateMutability": "nonpayable",
      "type": "constructor"
    },
    {
      "anonymous": false,
      "inputs": [
        {
          "indexed": false,
          "internalType": "uint256",
          "name": "id",
          "type": "uint256"
        },
        {
          "indexed": false,
          "internalType": "address",
          "name": "owner",
          "type": "address"
        },
        {
          "indexed": false,
          "internalType": "address",
          "name": "referee",
          "type": "address"
        },
        {
          "indexed": false,
          "internalType": "string",
          "name": "name",
          "type": "string"
        },
        {
          "indexed": false,
          "internalType": "string",
          "name": "phoneno",
          "type": "string"
        },
        {
          "indexed": false,
          "internalType": "uint256",
          "name": "dob",
          "type": "uint256"
        },
        {
          "indexed": false,
          "internalType": "string",
          "name": "email",
          "type": "string"
        },
        {
          "indexed": false,
          "internalType": "string",
          "name": "resiAddress",
          "type": "string"
        },
        {
          "indexed": false,
          "internalType": "uint256",
          "name": "minPrize",
          "type": "uint256"
        },
        {
          "indexed": false,
          "internalType": "uint256",
          "name": "maxPrize",
          "type": "uint256"
        }
      ],
      "name": "OrganisationAdded",
      "type": "event"
    },
    {
      "inputs": [
        {
          "internalType": "address",
          "name": "_owner",
          "type": "address"
        },
        {
          "internalType": "address",
          "name": "_referee",
          "type": "address"
        },
        {
          "internalType": "string",
          "name": "_name",
          "type": "string"
        },
        {
          "internalType": "string",
          "name": "_phoneno",
          "type": "string"
        },
        {
          "internalType": "uint256",
          "name": "_dob",
          "type": "uint256"
        },
        {
          "internalType": "string",
          "name": "_email",
          "type": "string"
        },
        {
          "internalType": "string",
          "name": "_resiAddress",
          "type": "string"
        },
        {
          "internalType": "uint256",
          "name": "_minPrize",
          "type": "uint256"
        },
        {
          "internalType": "uint256",
          "name": "_maxPrize",
          "type": "uint256"
        }
      ],
      "name": "addOrganisation",
      "outputs": [],
      "stateMutability": "payable",
      "type": "function"
    },
    {
      "inputs": [],
      "name": "admin",
      "outputs": [
        {
          "internalType": "address",
          "name": "",
          "type": "address"
        }
      ],
      "stateMutability": "view",
      "type": "function"
    },
    {
      "inputs": [
        {
          "internalType": "address",
          "name": "",
          "type": "address"
        }
      ],
      "name": "amountEarned",
      "outputs": [
        {
          "internalType": "uint256",
          "name": "",
          "type": "uint256"
        }
      ],
      "stateMutability": "view",
      "type": "function"
    },
    {
      "inputs": [],
      "name": "bregisterFee",
      "outputs": [
        {
          "internalType": "uint256",
          "name": "",
          "type": "uint256"
        }
      ],
      "stateMutability": "view",
      "type": "function"
    },
    {
      "inputs": [
        {
          "internalType": "address",
          "name": "userAddress",
          "type": "address"
        }
      ],
      "name": "getCreatorAddress",
      "outputs": [
        {
          "internalType": "address",
          "name": "",
          "type": "address"
        }
      ],
      "stateMutability": "view",
      "type": "function"
    },
    {
      "inputs": [
        {
          "internalType": "address",
          "name": "creatorAddress",
          "type": "address"
        }
      ],
      "name": "getCreatorId",
      "outputs": [
        {
          "internalType": "uint256",
          "name": "",
          "type": "uint256"
        }
      ],
      "stateMutability": "view",
      "type": "function"
    },
    {
      "inputs": [
        {
          "internalType": "address",
          "name": "creatorAddress",
          "type": "address"
        }
      ],
      "name": "getMaxPrize",
      "outputs": [
        {
          "internalType": "uint256",
          "name": "",
          "type": "uint256"
        }
      ],
      "stateMutability": "view",
      "type": "function"
    },
    {
      "inputs": [
        {
          "internalType": "address",
          "name": "creatorAddress",
          "type": "address"
        }
      ],
      "name": "getMinPrize",
      "outputs": [
        {
          "internalType": "uint256",
          "name": "",
          "type": "uint256"
        }
      ],
      "stateMutability": "view",
      "type": "function"
    },
    {
      "inputs": [
        {
          "internalType": "address",
          "name": "creatorAddress",
          "type": "address"
        }
      ],
      "name": "getReferee",
      "outputs": [
        {
          "internalType": "address",
          "name": "",
          "type": "address"
        }
      ],
      "stateMutability": "view",
      "type": "function"
    },
    {
      "inputs": [
        {
          "internalType": "address",
          "name": "_user",
          "type": "address"
        }
      ],
      "name": "getRegistrationFees",
      "outputs": [
        {
          "internalType": "uint256",
          "name": "",
          "type": "uint256"
        }
      ],
      "stateMutability": "view",
      "type": "function"
    },
    {
      "inputs": [
        {
          "internalType": "address",
          "name": "creatorAddress",
          "type": "address"
        }
      ],
      "name": "isCreator",
      "outputs": [
        {
          "internalType": "bool",
          "name": "",
          "type": "bool"
        }
      ],
      "stateMutability": "view",
      "type": "function"
    },
    {
      "inputs": [
        {
          "internalType": "address",
          "name": "",
          "type": "address"
        }
      ],
      "name": "organisationbyaddr",
      "outputs": [
        {
          "internalType": "bool",
          "name": "active",
          "type": "bool"
        },
        {
          "internalType": "address",
          "name": "userAddress",
          "type": "address"
        },
        {
          "internalType": "address",
          "name": "referee",
          "type": "address"
        },
        {
          "internalType": "string",
          "name": "name",
          "type": "string"
        },
        {
          "internalType": "string",
          "name": "phoneno",
          "type": "string"
        },
        {
          "internalType": "uint256",
          "name": "dob",
          "type": "uint256"
        },
        {
          "internalType": "string",
          "name": "email",
          "type": "string"
        },
        {
          "internalType": "string",
          "name": "resiAddress",
          "type": "string"
        },
        {
          "internalType": "uint256",
          "name": "id",
          "type": "uint256"
        },
        {
          "internalType": "uint256",
          "name": "maxPrize",
          "type": "uint256"
        },
        {
          "internalType": "uint256",
          "name": "minPrize",
          "type": "uint256"
        }
      ],
      "stateMutability": "view",
      "type": "function"
    },
    {
      "inputs": [
        {
          "internalType": "uint256",
          "name": "",
          "type": "uint256"
        }
      ],
      "name": "organisationbyid",
      "outputs": [
        {
          "internalType": "address",
          "name": "",
          "type": "address"
        }
      ],
      "stateMutability": "view",
      "type": "function"
    },
    {
      "inputs": [],
      "name": "ownerId",
      "outputs": [
        {
          "internalType": "uint256",
          "name": "",
          "type": "uint256"
        }
      ],
      "stateMutability": "view",
      "type": "function"
    },
    {
      "inputs": [
        {
          "internalType": "address",
          "name": "",
          "type": "address"
        }
      ],
      "name": "registrationFees",
      "outputs": [
        {
          "internalType": "uint256",
          "name": "",
          "type": "uint256"
        }
      ],
      "stateMutability": "view",
      "type": "function"
    },
    {
      "inputs": [
        {
          "internalType": "address",
          "name": "newAdmin",
          "type": "address"
        }
      ],
      "name": "transferAdmin",
      "outputs": [],
      "stateMutability": "nonpayable",
      "type": "function"
    },
    {
      "inputs": [
        {
          "internalType": "uint256",
          "name": "_minPrize",
          "type": "uint256"
        },
        {
          "internalType": "uint256",
          "name": "_maxPrize",
          "type": "uint256"
        }
      ],
      "name": "updateMinMax",
      "outputs": [],
      "stateMutability": "payable",
      "type": "function"
    },
    {
      "inputs": [],
      "name": "withdrawETH",
      "outputs": [],
      "stateMutability": "payable",
      "type": "function"
    },
    {
      "inputs": [],
      "name": "withdrawRegisterationFees",
      "outputs": [],
      "stateMutability": "payable",
      "type": "function"
    }
  ],
  "bytecode": "0x6080604052600a60005560016002553480156200001b57600080fd5b5060018054336001600160a01b031991821681178355604080516101608101825284815260208082018481526000838501818152855180870187526007815266105d5d1bd8995d60ca1b818601526060860190815286518086018852838152608087015260a0860183905286518088018852601881527f6175746f6265746c6f747465727940676d61696c2e636f6d00000000000000008187015260c08701528651808601885283815260e087015260028054610100808901919091526c0c9f2c9cd04674edea4000000061012089015261014088018590529884526003909552959091208451815493516001600160a81b0319909416901515610100600160a81b031916176001600160a01b039384169097029690961786555196850180549096169616959095179093555191929091908201906200015c9082620002e5565b5060808201516003820190620001739082620002e5565b5060a0820151600482015560c08201516005820190620001949082620002e5565b5060e08201516006820190620001ab9082620002e5565b506101008201516007820155610120820151600882015561014090910151600990910155336000818152600460209081526040808320839055600590915281208190556002805460069291826200020283620003b1565b91905055815260200190815260200160002060006101000a8154816001600160a01b0302191690836001600160a01b03160217905550620003d9565b634e487b7160e01b600052604160045260246000fd5b600181811c908216806200026957607f821691505b6020821081036200028a57634e487b7160e01b600052602260045260246000fd5b50919050565b601f821115620002e0576000816000526020600020601f850160051c81016020861015620002bb5750805b601f850160051c820191505b81811015620002dc57828155600101620002c7565b5050505b505050565b81516001600160401b038111156200030157620003016200023e565b620003198162000312845462000254565b8462000290565b602080601f831160018114620003515760008415620003385750858301515b600019600386901b1c1916600185901b178555620002dc565b600085815260208120601f198616915b82811015620003825788860151825594840194600190910190840162000361565b5085821015620003a15787850151600019600388901b60f8161c191681555b5050505050600190811b01905550565b600060018201620003d257634e487b7160e01b600052601160045260246000fd5b5060010190565b6114f180620003e96000396000f3fe6080604052600436106101145760003560e01c80636b65e844116100a0578063e086e5ec11610064578063e086e5ec1461037c578063ec852fd914610384578063efd46065146103b1578063f851a440146103fa578063f90c16481461041a57600080fd5b80636b65e8441461027257806375829def146102a957806391240f44146102c9578063b0a9279114610305578063c082c30c1461033e57600080fd5b8063341158d4116100e7578063341158d4146101f35780633bbd391e1461022c5780634c4426e8146102415780634e7abe251461025457806355a2d1781461026a57600080fd5b806301234b7a14610119578063019c08f51461016257806309deaa24146101785780633295b5b0146101a5575b600080fd5b34801561012557600080fd5b5061014f610134366004610e85565b6001600160a01b031660009081526005602052604090205490565b6040519081526020015b60405180910390f35b34801561016e57600080fd5b5061014f60025481565b34801561018457600080fd5b5061014f610193366004610e85565b60046020526000908152604090205481565b3480156101b157600080fd5b506101db6101c0366004610ea0565b6006602052600090815260409020546001600160a01b031681565b6040516001600160a01b039091168152602001610159565b3480156101ff57600080fd5b5061014f61020e366004610e85565b6001600160a01b031660009081526003602052604090206007015490565b61023f61023a366004610eb9565b610453565b005b61023f61024f366004610f7e565b610612565b34801561026057600080fd5b5061014f60005481565b61023f61097a565b34801561027e57600080fd5b5061029261028d366004610e85565b610a0c565b6040516101599b9a999897969594939291906110b0565b3480156102b557600080fd5b5061023f6102c4366004610e85565b610c91565b3480156102d557600080fd5b506101db6102e4366004610e85565b6001600160a01b039081166000908152600360205260409020600101541690565b34801561031157600080fd5b5061014f610320366004610e85565b6001600160a01b031660009081526003602052604090206008015490565b34801561034a57600080fd5b506101db610359366004610e85565b6001600160a01b0390811660009081526003602052604090205461010090041690565b61023f610de3565b34801561039057600080fd5b5061014f61039f366004610e85565b60056020526000908152604090205481565b3480156103bd57600080fd5b506103ea6103cc366004610e85565b6001600160a01b031660009081526003602052604090205460ff1690565b6040519015158152602001610159565b34801561040657600080fd5b506001546101db906001600160a01b031681565b34801561042657600080fd5b5061014f610435366004610e85565b6001600160a01b031660009081526003602052604090206009015490565b3360009081526003602052604090205460ff166104ac5760405162461bcd60e51b81526020600482015260126024820152712737ba10309037b933b0b734b9b0ba34b7b760711b60448201526064015b60405180910390fd5b600081116104f15760405162461bcd60e51b815260206004820152601260248201527143616e742062652062656c6f77207a65726f60701b60448201526064016104a3565b600082116105365760405162461bcd60e51b815260206004820152601260248201527143616e742062652062656c6f77207a65726f60701b60448201526064016104a3565b600061055f6002610559670de0b6b3a76400006105538787610e3c565b90610e51565b90610e5d565b905060006105766064600054846105599190611164565b90503481146105c35760405162461bcd60e51b8152602060048201526019602482015278526567697374657220466565206e6f74206d61746368696e6760381b60448201526064016104a3565b336000908152600360209081526040808320600981018890556008018690556001546001600160a01b0316835260059091528120805434929061060790849061117b565b909155505050505050565b6001600160a01b0389166106285761062861118e565b60006002610636838561117b565b61064091906111a4565b905060006064600054836106549190611164565b61065e91906111a4565b6001600160a01b038c811660009081526003602052604090205491925061010090910416156106c45760405162461bcd60e51b8152602060048201526012602482015271105b1c9958591e481c9959da5cdd195c995960721b60448201526064016104a3565b34811461070f5760405162461bcd60e51b8152602060048201526019602482015278526567697374657220466565206e6f74206d61746368696e6760381b60448201526064016104a3565b6040518061016001604052806001151581526020018c6001600160a01b031681526020018b6001600160a01b031681526020018a8152602001898152602001888152602001878152602001868152602001600254815260200184815260200185815250600360008d6001600160a01b03166001600160a01b0316815260200190815260200160002060008201518160000160006101000a81548160ff02191690831515021790555060208201518160000160016101000a8154816001600160a01b0302191690836001600160a01b0316021790555060408201518160010160006101000a8154816001600160a01b0302191690836001600160a01b0316021790555060608201518160020190816108269190611251565b506080820151600382019061083b9082611251565b5060a0820151600482015560c0820151600582019061085a9082611251565b5060e0820151600682019061086f9082611251565b5061010082015160078201556101208201516008820155610140909101516009909101556001600160a01b03808c16600090815260046020908152604080832083905560015490931682526005905290812080543492906108d190849061117b565b9091555050600280548c91600691600091826108ec83611311565b91905055815260200190815260200160002060006101000a8154816001600160a01b0302191690836001600160a01b031602179055507f109bd5f91d0f93f58822dfd1e9e66e96073b80fc1edcfedfc03d589561c8e4466002548c8c8c8c8c8c8c8c8c6040516109659a9998979695949392919061132a565b60405180910390a15050505050505050505050565b6001546001600160a01b031633146109a45760405162461bcd60e51b81526004016104a3906113bb565b6001546001600160a01b03166000908152600560205260408082205490519091339183156108fc0291849190818181858888f193505050501580156109ed573d6000803e3d6000fd5b50506001546001600160a01b0316600090815260056020526040812055565b60036020526000908152604090208054600182015460028301805460ff8416946101009094046001600160a01b03908116949316929190610a4c906111c6565b80601f0160208091040260200160405190810160405280929190818152602001828054610a78906111c6565b8015610ac55780601f10610a9a57610100808354040283529160200191610ac5565b820191906000526020600020905b815481529060010190602001808311610aa857829003601f168201915b505050505090806003018054610ada906111c6565b80601f0160208091040260200160405190810160405280929190818152602001828054610b06906111c6565b8015610b535780601f10610b2857610100808354040283529160200191610b53565b820191906000526020600020905b815481529060010190602001808311610b3657829003601f168201915b505050505090806004015490806005018054610b6e906111c6565b80601f0160208091040260200160405190810160405280929190818152602001828054610b9a906111c6565b8015610be75780601f10610bbc57610100808354040283529160200191610be7565b820191906000526020600020905b815481529060010190602001808311610bca57829003601f168201915b505050505090806006018054610bfc906111c6565b80601f0160208091040260200160405190810160405280929190818152602001828054610c28906111c6565b8015610c755780601f10610c4a57610100808354040283529160200191610c75565b820191906000526020600020905b815481529060010190602001808311610c5857829003601f168201915b505050505090806007015490806008015490806009015490508b565b6001546001600160a01b03163314610cbb5760405162461bcd60e51b81526004016104a3906113bb565b6001600160a01b038116610cce57600080fd5b336000908152600360205260408082206001600160a01b038481168452919092208254815460ff909116151560ff19821681178355845461010090819004851602610100600160a81b03199091166001600160a81b03199092169190911717815560018084015490820180546001600160a01b0319169190931617909155600280820190610d5e908401826113e0565b50600381810190610d71908401826113e0565b506004820154816004015560058201816005019081610d9091906113e0565b50600681810190610da3908401826113e0565b506007828101549082015560088083015490820155600991820154910155600180546001600160a01b0319166001600160a01b0392909216919091179055565b6001546001600160a01b03163314610e0d5760405162461bcd60e51b81526004016104a3906113bb565b60405133904780156108fc02916000818181858888f19350505050158015610e39573d6000803e3d6000fd5b50565b6000610e48828461117b565b90505b92915050565b6000610e488284611164565b6000610e4882846111a4565b80356001600160a01b0381168114610e8057600080fd5b919050565b600060208284031215610e9757600080fd5b610e4882610e69565b600060208284031215610eb257600080fd5b5035919050565b60008060408385031215610ecc57600080fd5b50508035926020909101359150565b634e487b7160e01b600052604160045260246000fd5b600082601f830112610f0257600080fd5b813567ffffffffffffffff80821115610f1d57610f1d610edb565b604051601f8301601f19908116603f01168101908282118183101715610f4557610f45610edb565b81604052838152866020858801011115610f5e57600080fd5b836020870160208301376000602085830101528094505050505092915050565b60008060008060008060008060006101208a8c031215610f9d57600080fd5b610fa68a610e69565b9850610fb460208b01610e69565b975060408a013567ffffffffffffffff80821115610fd157600080fd5b610fdd8d838e01610ef1565b985060608c0135915080821115610ff357600080fd5b610fff8d838e01610ef1565b975060808c0135965060a08c013591508082111561101c57600080fd5b6110288d838e01610ef1565b955060c08c013591508082111561103e57600080fd5b5061104b8c828d01610ef1565b93505060e08a013591506101008a013590509295985092959850929598565b6000815180845260005b8181101561109057602081850181015186830182015201611074565b506000602082860101526020601f19601f83011685010191505092915050565b8b151581526001600160a01b038b811660208301528a166040820152610160606082018190526000906110e58382018c61106a565b905082810360808401526110f9818b61106a565b90508860a084015282810360c0840152611113818961106a565b905082810360e0840152611127818861106a565b61010084019690965250506101208101929092526101409091015298975050505050505050565b634e487b7160e01b600052601160045260246000fd5b8082028115828204841417610e4b57610e4b61114e565b80820180821115610e4b57610e4b61114e565b634e487b7160e01b600052600160045260246000fd5b6000826111c157634e487b7160e01b600052601260045260246000fd5b500490565b600181811c908216806111da57607f821691505b6020821081036111fa57634e487b7160e01b600052602260045260246000fd5b50919050565b601f82111561124c576000816000526020600020601f850160051c810160208610156112295750805b601f850160051c820191505b8181101561124857828155600101611235565b5050505b505050565b815167ffffffffffffffff81111561126b5761126b610edb565b61127f8161127984546111c6565b84611200565b602080601f8311600181146112b4576000841561129c5750858301515b600019600386901b1c1916600185901b178555611248565b600085815260208120601f198616915b828110156112e3578886015182559484019460019091019084016112c4565b50858210156113015787850151600019600388901b60f8161c191681555b5050505050600190811b01905550565b6000600182016113235761132361114e565b5060010190565b8a81526001600160a01b038a81166020830152891660408201526101406060820181905260009061135d8382018b61106a565b90508281036080840152611371818a61106a565b90508760a084015282810360c084015261138b818861106a565b905082810360e084015261139f818761106a565b6101008401959095525050610120015298975050505050505050565b6020808252600b908201526a3737ba16b096b0b236b4b760a91b604082015260600190565b8181036113eb575050565b6113f582546111c6565b67ffffffffffffffff81111561140d5761140d610edb565b61141b8161127984546111c6565b6000601f82116001811461144f57600083156114375750848201545b600019600385901b1c1916600184901b1784556114b4565b600085815260209020601f19841690600086815260209020845b838110156114895782860154825560019586019590910190602001611469565b50858310156114a75781850154600019600388901b60f8161c191681555b50505060018360011b0184555b505050505056fea264697066735822122095383934516b2ceb9fefcebf7194c11857241e946a134708ae33f4795321538864736f6c63430008160033",
  "linkReferences": {},
  "deployedLinkReferences": {}
}