{
  "_format": "hh-sol-artifact-1",
  "contractName": "Autobet",
  "sourceName": "Contract/Phase_3.1_SEPOLIA_ETH/LotteryContract_sepoil_VRFV2.sol",
  "abi": [
    {
      "inputs": [
        {
          "internalType": "address",
          "name": "_tokenAddress",
          "type": "address"
        }
      ],
      "stateMutability": "nonpayable",
      "type": "constructor"
    },
    {
      "anonymous": false,
      "inputs": [
        {
          "indexed": true,
          "internalType": "uint256",
          "name": "lotteryId",
          "type": "uint256"
        },
        {
          "indexed": false,
          "internalType": "uint256",
          "name": "entryfee",
          "type": "uint256"
        },
        {
          "indexed": false,
          "internalType": "uint256",
          "name": "picknumbers",
          "type": "uint256"
        },
        {
          "indexed": false,
          "internalType": "uint256",
          "name": "totalPrize",
          "type": "uint256"
        },
        {
          "indexed": false,
          "internalType": "uint256",
          "name": "capacity",
          "type": "uint256"
        },
        {
          "indexed": true,
          "internalType": "address",
          "name": "owner",
          "type": "address"
        },
        {
          "indexed": false,
          "internalType": "uint256",
          "name": "startTime",
          "type": "uint256"
        },
        {
          "indexed": true,
          "internalType": "uint256",
          "name": "ownerid",
          "type": "uint256"
        }
      ],
      "name": "CreatedLottery",
      "type": "event"
    },
    {
      "anonymous": false,
      "inputs": [
        {
          "indexed": false,
          "internalType": "uint256[]",
          "name": "numbers",
          "type": "uint256[]"
        },
        {
          "indexed": true,
          "internalType": "uint256",
          "name": "lotteryId",
          "type": "uint256"
        },
        {
          "indexed": false,
          "internalType": "uint256",
          "name": "boughtOn",
          "type": "uint256"
        },
        {
          "indexed": true,
          "internalType": "address",
          "name": "useraddress",
          "type": "address"
        },
        {
          "indexed": false,
          "internalType": "uint256",
          "name": "drawOn",
          "type": "uint256"
        },
        {
          "indexed": false,
          "internalType": "uint256",
          "name": "paid",
          "type": "uint256"
        }
      ],
      "name": "LotteryBought",
      "type": "event"
    },
    {
      "anonymous": false,
      "inputs": [
        {
          "indexed": false,
          "internalType": "address",
          "name": "useraddressdata",
          "type": "address"
        },
        {
          "indexed": true,
          "internalType": "uint256",
          "name": "lotteryId",
          "type": "uint256"
        },
        {
          "indexed": false,
          "internalType": "uint256",
          "name": "drawOn",
          "type": "uint256"
        }
      ],
      "name": "LotteryResult",
      "type": "event"
    },
    {
      "anonymous": false,
      "inputs": [
        {
          "indexed": true,
          "internalType": "address",
          "name": "from",
          "type": "address"
        },
        {
          "indexed": true,
          "internalType": "address",
          "name": "to",
          "type": "address"
        }
      ],
      "name": "OwnershipTransferRequested",
      "type": "event"
    },
    {
      "anonymous": false,
      "inputs": [
        {
          "indexed": true,
          "internalType": "address",
          "name": "from",
          "type": "address"
        },
        {
          "indexed": true,
          "internalType": "address",
          "name": "to",
          "type": "address"
        }
      ],
      "name": "OwnershipTransferred",
      "type": "event"
    },
    {
      "anonymous": false,
      "inputs": [
        {
          "indexed": true,
          "internalType": "uint256",
          "name": "ownerId",
          "type": "uint256"
        },
        {
          "indexed": false,
          "internalType": "address",
          "name": "_owner",
          "type": "address"
        },
        {
          "indexed": false,
          "internalType": "string",
          "name": "_name",
          "type": "string"
        },
        {
          "indexed": false,
          "internalType": "address",
          "name": "_referee",
          "type": "address"
        }
      ],
      "name": "RegisterBookie",
      "type": "event"
    },
    {
      "anonymous": false,
      "inputs": [
        {
          "indexed": true,
          "internalType": "address",
          "name": "useraddressdata",
          "type": "address"
        },
        {
          "indexed": true,
          "internalType": "uint256",
          "name": "lotteryId",
          "type": "uint256"
        },
        {
          "indexed": false,
          "internalType": "uint256",
          "name": "selectedNum",
          "type": "uint256"
        },
        {
          "indexed": false,
          "internalType": "uint256",
          "name": "winnerNum",
          "type": "uint256"
        },
        {
          "indexed": false,
          "internalType": "uint256",
          "name": "date",
          "type": "uint256"
        }
      ],
      "name": "SpinLotteryResult",
      "type": "event"
    },
    {
      "anonymous": false,
      "inputs": [
        {
          "indexed": true,
          "internalType": "address",
          "name": "useraddressdata",
          "type": "address"
        },
        {
          "indexed": true,
          "internalType": "uint256",
          "name": "lotteryId",
          "type": "uint256"
        },
        {
          "indexed": false,
          "internalType": "uint256",
          "name": "amountwon",
          "type": "uint256"
        }
      ],
      "name": "WinnerPaid",
      "type": "event"
    },
    {
      "anonymous": false,
      "inputs": [
        {
          "indexed": false,
          "internalType": "uint256",
          "name": "partnerId",
          "type": "uint256"
        },
        {
          "indexed": false,
          "internalType": "string",
          "name": "_name",
          "type": "string"
        },
        {
          "indexed": false,
          "internalType": "string",
          "name": "_LogoHash",
          "type": "string"
        },
        {
          "indexed": false,
          "internalType": "bool",
          "name": "status",
          "type": "bool"
        },
        {
          "indexed": false,
          "internalType": "string",
          "name": "_websiteAdd",
          "type": "string"
        },
        {
          "indexed": false,
          "internalType": "address",
          "name": "_PartnerAddress",
          "type": "address"
        },
        {
          "indexed": false,
          "internalType": "uint256",
          "name": "_CreatedOn",
          "type": "uint256"
        }
      ],
      "name": "partneradded",
      "type": "event"
    },
    {
      "inputs": [
        {
          "internalType": "string",
          "name": "_name",
          "type": "string"
        },
        {
          "internalType": "string",
          "name": "_logoHash",
          "type": "string"
        },
        {
          "internalType": "bool",
          "name": "_status",
          "type": "bool"
        },
        {
          "internalType": "string",
          "name": "_websiteAdd",
          "type": "string"
        },
        {
          "internalType": "address",
          "name": "_partnerAddress",
          "type": "address"
        },
        {
          "internalType": "uint256",
          "name": "_createdOn",
          "type": "uint256"
        }
      ],
      "name": "EditPartnerDetails",
      "outputs": [],
      "stateMutability": "nonpayable",
      "type": "function"
    },
    {
      "inputs": [],
      "name": "RID",
      "outputs": [
        {
          "internalType": "uint256",
          "name": "",
          "type": "uint256"
        }
      ],
      "stateMutability": "view",
      "type": "function"
    },
    {
      "inputs": [
        {
          "internalType": "string",
          "name": "",
          "type": "string"
        }
      ],
      "name": "TicketsList",
      "outputs": [
        {
          "internalType": "bool",
          "name": "",
          "type": "bool"
        }
      ],
      "stateMutability": "view",
      "type": "function"
    },
    {
      "inputs": [],
      "name": "acceptOwnership",
      "outputs": [],
      "stateMutability": "nonpayable",
      "type": "function"
    },
    {
      "inputs": [
        {
          "internalType": "address",
          "name": "_owner",
          "type": "address"
        },
        {
          "internalType": "address",
          "name": "_referee",
          "type": "address"
        },
        {
          "internalType": "string",
          "name": "_name",
          "type": "string"
        },
        {
          "internalType": "string",
          "name": "_phoneno",
          "type": "string"
        },
        {
          "internalType": "uint256",
          "name": "_dob",
          "type": "uint256"
        },
        {
          "internalType": "string",
          "name": "_email",
          "type": "string"
        },
        {
          "internalType": "string",
          "name": "_resiAddress",
          "type": "string"
        },
        {
          "internalType": "uint256",
          "name": "_minPrize",
          "type": "uint256"
        },
        {
          "internalType": "uint256",
          "name": "_maxPrize",
          "type": "uint256"
        }
      ],
      "name": "addOrganisation",
      "outputs": [],
      "stateMutability": "payable",
      "type": "function"
    },
    {
      "inputs": [
        {
          "internalType": "string",
          "name": "_name",
          "type": "string"
        },
        {
          "internalType": "string",
          "name": "_logoHash",
          "type": "string"
        },
        {
          "internalType": "bool",
          "name": "_status",
          "type": "bool"
        },
        {
          "internalType": "string",
          "name": "_websiteAdd",
          "type": "string"
        },
        {
          "internalType": "address",
          "name": "_partnerAddress",
          "type": "address"
        },
        {
          "internalType": "uint256",
          "name": "_createdOn",
          "type": "uint256"
        }
      ],
      "name": "addPartnerDetails",
      "outputs": [],
      "stateMutability": "nonpayable",
      "type": "function"
    },
    {
      "inputs": [],
      "name": "admin",
      "outputs": [
        {
          "internalType": "address",
          "name": "",
          "type": "address"
        }
      ],
      "stateMutability": "view",
      "type": "function"
    },
    {
      "inputs": [
        {
          "internalType": "address",
          "name": "",
          "type": "address"
        }
      ],
      "name": "amountspend",
      "outputs": [
        {
          "internalType": "uint256",
          "name": "",
          "type": "uint256"
        }
      ],
      "stateMutability": "view",
      "type": "function"
    },
    {
      "inputs": [
        {
          "internalType": "address",
          "name": "",
          "type": "address"
        }
      ],
      "name": "amountwon",
      "outputs": [
        {
          "internalType": "uint256",
          "name": "",
          "type": "uint256"
        }
      ],
      "stateMutability": "view",
      "type": "function"
    },
    {
      "inputs": [],
      "name": "bregisterFee",
      "outputs": [
        {
          "internalType": "uint256",
          "name": "",
          "type": "uint256"
        }
      ],
      "stateMutability": "view",
      "type": "function"
    },
    {
      "inputs": [
        {
          "internalType": "uint256[]",
          "name": "numbers",
          "type": "uint256[]"
        },
        {
          "internalType": "uint256",
          "name": "lotteryid",
          "type": "uint256"
        },
        {
          "internalType": "string",
          "name": "hash",
          "type": "string"
        }
      ],
      "name": "buyNormalLottery",
      "outputs": [],
      "stateMutability": "payable",
      "type": "function"
    },
    {
      "inputs": [
        {
          "internalType": "uint256",
          "name": "numbers",
          "type": "uint256"
        },
        {
          "internalType": "uint256",
          "name": "lotteryid",
          "type": "uint256"
        }
      ],
      "name": "buySpinnerLottery",
      "outputs": [],
      "stateMutability": "payable",
      "type": "function"
    },
    {
      "inputs": [],
      "name": "callresult",
      "outputs": [
        {
          "internalType": "bool",
          "name": "",
          "type": "bool"
        }
      ],
      "stateMutability": "view",
      "type": "function"
    },
    {
      "inputs": [
        {
          "internalType": "bytes",
          "name": "",
          "type": "bytes"
        }
      ],
      "name": "checkUpkeep",
      "outputs": [
        {
          "internalType": "bool",
          "name": "upkeepNeeded",
          "type": "bool"
        },
        {
          "internalType": "bytes",
          "name": "result",
          "type": "bytes"
        }
      ],
      "stateMutability": "view",
      "type": "function"
    },
    {
      "inputs": [],
      "name": "contractBalance",
      "outputs": [
        {
          "internalType": "uint256",
          "name": "balance",
          "type": "uint256"
        }
      ],
      "stateMutability": "view",
      "type": "function"
    },
    {
      "inputs": [
        {
          "internalType": "uint256",
          "name": "entryfee",
          "type": "uint256"
        },
        {
          "internalType": "uint256",
          "name": "picknumbers",
          "type": "uint256"
        },
        {
          "internalType": "uint256",
          "name": "totalPrize",
          "type": "uint256"
        },
        {
          "internalType": "uint256",
          "name": "startTime",
          "type": "uint256"
        },
        {
          "internalType": "uint256",
          "name": "endtime",
          "type": "uint256"
        },
        {
          "internalType": "uint256",
          "name": "drawtime",
          "type": "uint256"
        },
        {
          "internalType": "uint256",
          "name": "capacity",
          "type": "uint256"
        },
        {
          "internalType": "uint256",
          "name": "partner",
          "type": "uint256"
        },
        {
          "internalType": "uint256",
          "name": "rolloverperct",
          "type": "uint256"
        },
        {
          "internalType": "enum Autobet.LotteryType",
          "name": "lottype",
          "type": "uint8"
        }
      ],
      "name": "createLottery",
      "outputs": [],
      "stateMutability": "payable",
      "type": "function"
    },
    {
      "inputs": [
        {
          "internalType": "uint256",
          "name": "lotteryid",
          "type": "uint256"
        }
      ],
      "name": "getLotteryNumbers",
      "outputs": [
        {
          "internalType": "uint256[]",
          "name": "tickets",
          "type": "uint256[]"
        },
        {
          "internalType": "address[]",
          "name": "useraddress",
          "type": "address[]"
        }
      ],
      "stateMutability": "view",
      "type": "function"
    },
    {
      "inputs": [
        {
          "internalType": "address",
          "name": "useraddress",
          "type": "address"
        }
      ],
      "name": "getOrglotteries",
      "outputs": [
        {
          "internalType": "uint256[]",
          "name": "lotterids",
          "type": "uint256[]"
        }
      ],
      "stateMutability": "view",
      "type": "function"
    },
    {
      "inputs": [
        {
          "internalType": "address",
          "name": "partneraddress",
          "type": "address"
        }
      ],
      "name": "getPartnerlotteries",
      "outputs": [
        {
          "internalType": "uint256[]",
          "name": "lotteryids",
          "type": "uint256[]"
        }
      ],
      "stateMutability": "view",
      "type": "function"
    },
    {
      "inputs": [
        {
          "internalType": "address",
          "name": "useraddress",
          "type": "address"
        }
      ],
      "name": "getUserlotteries",
      "outputs": [
        {
          "internalType": "uint256[]",
          "name": "lotteryids",
          "type": "uint256[]"
        }
      ],
      "stateMutability": "view",
      "type": "function"
    },
    {
      "inputs": [
        {
          "internalType": "uint256",
          "name": "",
          "type": "uint256"
        }
      ],
      "name": "lottery",
      "outputs": [
        {
          "internalType": "uint256",
          "name": "lotteryId",
          "type": "uint256"
        },
        {
          "internalType": "uint256",
          "name": "pickNumbers",
          "type": "uint256"
        },
        {
          "internalType": "uint256",
          "name": "capacity",
          "type": "uint256"
        },
        {
          "internalType": "uint256",
          "name": "entryFee",
          "type": "uint256"
        },
        {
          "internalType": "uint256",
          "name": "totalPrize",
          "type": "uint256"
        },
        {
          "internalType": "uint256",
          "name": "minPlayers",
          "type": "uint256"
        },
        {
          "internalType": "uint256",
          "name": "partnerId",
          "type": "uint256"
        },
        {
          "internalType": "uint256",
          "name": "rolloverperct",
          "type": "uint256"
        },
        {
          "internalType": "address",
          "name": "lotteryWinner",
          "type": "address"
        },
        {
          "internalType": "address",
          "name": "ownerAddress",
          "type": "address"
        },
        {
          "internalType": "enum Autobet.LotteryState",
          "name": "status",
          "type": "uint8"
        },
        {
          "internalType": "enum Autobet.LotteryType",
          "name": "lotteryType",
          "type": "uint8"
        }
      ],
      "stateMutability": "view",
      "type": "function"
    },
    {
      "inputs": [],
      "name": "lotteryCreateFee",
      "outputs": [
        {
          "internalType": "uint256",
          "name": "",
          "type": "uint256"
        }
      ],
      "stateMutability": "view",
      "type": "function"
    },
    {
      "inputs": [
        {
          "internalType": "uint256",
          "name": "",
          "type": "uint256"
        }
      ],
      "name": "lotteryDates",
      "outputs": [
        {
          "internalType": "uint256",
          "name": "lotteryId",
          "type": "uint256"
        },
        {
          "internalType": "uint256",
          "name": "startTime",
          "type": "uint256"
        },
        {
          "internalType": "uint256",
          "name": "endTime",
          "type": "uint256"
        },
        {
          "internalType": "uint256",
          "name": "drawTime",
          "type": "uint256"
        }
      ],
      "stateMutability": "view",
      "type": "function"
    },
    {
      "inputs": [],
      "name": "lotteryId",
      "outputs": [
        {
          "internalType": "uint256",
          "name": "",
          "type": "uint256"
        }
      ],
      "stateMutability": "view",
      "type": "function"
    },
    {
      "inputs": [
        {
          "internalType": "uint256",
          "name": "",
          "type": "uint256"
        }
      ],
      "name": "lotterySales",
      "outputs": [
        {
          "internalType": "uint256",
          "name": "",
          "type": "uint256"
        }
      ],
      "stateMutability": "view",
      "type": "function"
    },
    {
      "inputs": [
        {
          "internalType": "uint256",
          "name": "",
          "type": "uint256"
        },
        {
          "internalType": "address",
          "name": "",
          "type": "address"
        }
      ],
      "name": "lotteryTickets",
      "outputs": [
        {
          "internalType": "uint256",
          "name": "",
          "type": "uint256"
        }
      ],
      "stateMutability": "view",
      "type": "function"
    },
    {
      "inputs": [
        {
          "internalType": "address",
          "name": "",
          "type": "address"
        }
      ],
      "name": "organisationbyaddr",
      "outputs": [
        {
          "internalType": "bool",
          "name": "active",
          "type": "bool"
        },
        {
          "internalType": "address",
          "name": "userAddress",
          "type": "address"
        },
        {
          "internalType": "address",
          "name": "referee",
          "type": "address"
        },
        {
          "internalType": "string",
          "name": "name",
          "type": "string"
        },
        {
          "internalType": "string",
          "name": "phoneno",
          "type": "string"
        },
        {
          "internalType": "uint256",
          "name": "dob",
          "type": "uint256"
        },
        {
          "internalType": "string",
          "name": "email",
          "type": "string"
        },
        {
          "internalType": "string",
          "name": "resiAddress",
          "type": "string"
        },
        {
          "internalType": "uint256",
          "name": "id",
          "type": "uint256"
        },
        {
          "internalType": "uint256",
          "name": "amountEarned",
          "type": "uint256"
        },
        {
          "internalType": "uint256",
          "name": "commissionEarned",
          "type": "uint256"
        },
        {
          "internalType": "uint256",
          "name": "maxPrize",
          "type": "uint256"
        },
        {
          "internalType": "uint256",
          "name": "minPrize",
          "type": "uint256"
        }
      ],
      "stateMutability": "view",
      "type": "function"
    },
    {
      "inputs": [
        {
          "internalType": "uint256",
          "name": "",
          "type": "uint256"
        }
      ],
      "name": "organisationbyid",
      "outputs": [
        {
          "internalType": "bool",
          "name": "active",
          "type": "bool"
        },
        {
          "internalType": "address",
          "name": "userAddress",
          "type": "address"
        },
        {
          "internalType": "address",
          "name": "referee",
          "type": "address"
        },
        {
          "internalType": "string",
          "name": "name",
          "type": "string"
        },
        {
          "internalType": "string",
          "name": "phoneno",
          "type": "string"
        },
        {
          "internalType": "uint256",
          "name": "dob",
          "type": "uint256"
        },
        {
          "internalType": "string",
          "name": "email",
          "type": "string"
        },
        {
          "internalType": "string",
          "name": "resiAddress",
          "type": "string"
        },
        {
          "internalType": "uint256",
          "name": "id",
          "type": "uint256"
        },
        {
          "internalType": "uint256",
          "name": "amountEarned",
          "type": "uint256"
        },
        {
          "internalType": "uint256",
          "name": "commissionEarned",
          "type": "uint256"
        },
        {
          "internalType": "uint256",
          "name": "maxPrize",
          "type": "uint256"
        },
        {
          "internalType": "uint256",
          "name": "minPrize",
          "type": "uint256"
        }
      ],
      "stateMutability": "view",
      "type": "function"
    },
    {
      "inputs": [],
      "name": "owner",
      "outputs": [
        {
          "internalType": "address",
          "name": "",
          "type": "address"
        }
      ],
      "stateMutability": "view",
      "type": "function"
    },
    {
      "inputs": [],
      "name": "ownerId",
      "outputs": [
        {
          "internalType": "uint256",
          "name": "",
          "type": "uint256"
        }
      ],
      "stateMutability": "view",
      "type": "function"
    },
    {
      "inputs": [],
      "name": "partnerId",
      "outputs": [
        {
          "internalType": "uint256",
          "name": "",
          "type": "uint256"
        }
      ],
      "stateMutability": "view",
      "type": "function"
    },
    {
      "inputs": [],
      "name": "partnerRewardPerc",
      "outputs": [
        {
          "internalType": "uint256",
          "name": "",
          "type": "uint256"
        }
      ],
      "stateMutability": "view",
      "type": "function"
    },
    {
      "inputs": [
        {
          "internalType": "address",
          "name": "",
          "type": "address"
        }
      ],
      "name": "partnerbyaddr",
      "outputs": [
        {
          "internalType": "string",
          "name": "name",
          "type": "string"
        },
        {
          "internalType": "string",
          "name": "logoHash",
          "type": "string"
        },
        {
          "internalType": "bool",
          "name": "status",
          "type": "bool"
        },
        {
          "internalType": "string",
          "name": "websiteAdd",
          "type": "string"
        },
        {
          "internalType": "address",
          "name": "partnerAddress",
          "type": "address"
        },
        {
          "internalType": "uint256",
          "name": "createdOn",
          "type": "uint256"
        },
        {
          "internalType": "uint256",
          "name": "partnerId",
          "type": "uint256"
        }
      ],
      "stateMutability": "view",
      "type": "function"
    },
    {
      "inputs": [
        {
          "internalType": "uint256",
          "name": "",
          "type": "uint256"
        }
      ],
      "name": "partnerbyid",
      "outputs": [
        {
          "internalType": "string",
          "name": "name",
          "type": "string"
        },
        {
          "internalType": "string",
          "name": "logoHash",
          "type": "string"
        },
        {
          "internalType": "bool",
          "name": "status",
          "type": "bool"
        },
        {
          "internalType": "string",
          "name": "websiteAdd",
          "type": "string"
        },
        {
          "internalType": "address",
          "name": "partnerAddress",
          "type": "address"
        },
        {
          "internalType": "uint256",
          "name": "createdOn",
          "type": "uint256"
        },
        {
          "internalType": "uint256",
          "name": "partnerId",
          "type": "uint256"
        }
      ],
      "stateMutability": "view",
      "type": "function"
    },
    {
      "inputs": [
        {
          "internalType": "address",
          "name": "useraddressdata",
          "type": "address"
        },
        {
          "internalType": "uint256",
          "name": "lotteryid",
          "type": "uint256"
        },
        {
          "internalType": "uint256",
          "name": "requestId",
          "type": "uint256"
        }
      ],
      "name": "paywinner",
      "outputs": [],
      "stateMutability": "payable",
      "type": "function"
    },
    {
      "inputs": [
        {
          "internalType": "bytes",
          "name": "",
          "type": "bytes"
        }
      ],
      "name": "performUpkeep",
      "outputs": [],
      "stateMutability": "nonpayable",
      "type": "function"
    },
    {
      "inputs": [
        {
          "internalType": "uint256",
          "name": "",
          "type": "uint256"
        }
      ],
      "name": "randomNumber",
      "outputs": [
        {
          "internalType": "uint256",
          "name": "",
          "type": "uint256"
        }
      ],
      "stateMutability": "view",
      "type": "function"
    },
    {
      "inputs": [
        {
          "internalType": "uint256",
          "name": "_requestId",
          "type": "uint256"
        },
        {
          "internalType": "uint256[]",
          "name": "_randomWords",
          "type": "uint256[]"
        }
      ],
      "name": "rawFulfillRandomWords",
      "outputs": [],
      "stateMutability": "nonpayable",
      "type": "function"
    },
    {
      "inputs": [],
      "name": "redeemTokens",
      "outputs": [],
      "stateMutability": "nonpayable",
      "type": "function"
    },
    {
      "inputs": [
        {
          "internalType": "address",
          "name": "",
          "type": "address"
        }
      ],
      "name": "refereeEarned",
      "outputs": [
        {
          "internalType": "uint256",
          "name": "",
          "type": "uint256"
        }
      ],
      "stateMutability": "view",
      "type": "function"
    },
    {
      "inputs": [
        {
          "internalType": "uint256",
          "name": "",
          "type": "uint256"
        }
      ],
      "name": "requestIds",
      "outputs": [
        {
          "internalType": "uint256",
          "name": "",
          "type": "uint256"
        }
      ],
      "stateMutability": "view",
      "type": "function"
    },
    {
      "inputs": [
        {
          "internalType": "uint256",
          "name": "",
          "type": "uint256"
        }
      ],
      "name": "s_requests",
      "outputs": [
        {
          "internalType": "uint256",
          "name": "paid",
          "type": "uint256"
        },
        {
          "internalType": "bool",
          "name": "fulfilled",
          "type": "bool"
        }
      ],
      "stateMutability": "view",
      "type": "function"
    },
    {
      "inputs": [
        {
          "internalType": "bool",
          "name": "_callresult",
          "type": "bool"
        }
      ],
      "name": "setCallresult",
      "outputs": [],
      "stateMutability": "nonpayable",
      "type": "function"
    },
    {
      "inputs": [
        {
          "internalType": "address",
          "name": "_tokenAddress",
          "type": "address"
        }
      ],
      "name": "setTokenAddress",
      "outputs": [],
      "stateMutability": "nonpayable",
      "type": "function"
    },
    {
      "inputs": [
        {
          "internalType": "uint256",
          "name": "",
          "type": "uint256"
        }
      ],
      "name": "spinBuyer",
      "outputs": [
        {
          "internalType": "address",
          "name": "",
          "type": "address"
        }
      ],
      "stateMutability": "view",
      "type": "function"
    },
    {
      "inputs": [
        {
          "internalType": "uint256",
          "name": "",
          "type": "uint256"
        }
      ],
      "name": "spinNumbers",
      "outputs": [
        {
          "internalType": "uint256",
          "name": "",
          "type": "uint256"
        }
      ],
      "stateMutability": "view",
      "type": "function"
    },
    {
      "inputs": [],
      "name": "tokenAddress",
      "outputs": [
        {
          "internalType": "address",
          "name": "",
          "type": "address"
        }
      ],
      "stateMutability": "view",
      "type": "function"
    },
    {
      "inputs": [],
      "name": "tokenEarnPercent",
      "outputs": [
        {
          "internalType": "uint256",
          "name": "",
          "type": "uint256"
        }
      ],
      "stateMutability": "view",
      "type": "function"
    },
    {
      "inputs": [
        {
          "internalType": "address",
          "name": "",
          "type": "address"
        }
      ],
      "name": "tokenearned",
      "outputs": [
        {
          "internalType": "uint256",
          "name": "",
          "type": "uint256"
        }
      ],
      "stateMutability": "view",
      "type": "function"
    },
    {
      "inputs": [
        {
          "internalType": "address",
          "name": "",
          "type": "address"
        }
      ],
      "name": "tokenredeemed",
      "outputs": [
        {
          "internalType": "uint256",
          "name": "",
          "type": "uint256"
        }
      ],
      "stateMutability": "view",
      "type": "function"
    },
    {
      "inputs": [
        {
          "internalType": "address",
          "name": "newAdmin",
          "type": "address"
        }
      ],
      "name": "transferAdmin",
      "outputs": [],
      "stateMutability": "nonpayable",
      "type": "function"
    },
    {
      "inputs": [],
      "name": "transferFeePerc",
      "outputs": [
        {
          "internalType": "uint256",
          "name": "",
          "type": "uint256"
        }
      ],
      "stateMutability": "view",
      "type": "function"
    },
    {
      "inputs": [
        {
          "internalType": "address",
          "name": "to",
          "type": "address"
        }
      ],
      "name": "transferOwnership",
      "outputs": [],
      "stateMutability": "nonpayable",
      "type": "function"
    },
    {
      "inputs": [
        {
          "internalType": "uint256",
          "name": "amount",
          "type": "uint256"
        },
        {
          "internalType": "address",
          "name": "to",
          "type": "address"
        },
        {
          "internalType": "address",
          "name": "tokenAdd",
          "type": "address"
        }
      ],
      "name": "transferToken",
      "outputs": [],
      "stateMutability": "nonpayable",
      "type": "function"
    },
    {
      "inputs": [
        {
          "internalType": "uint256",
          "name": "_lotteryCreateFee",
          "type": "uint256"
        },
        {
          "internalType": "uint256",
          "name": "_transferFeePerc",
          "type": "uint256"
        },
        {
          "internalType": "uint256",
          "name": "_tokenEarnPercent",
          "type": "uint256"
        },
        {
          "internalType": "uint256",
          "name": "_partnerRewardPerc",
          "type": "uint256"
        }
      ],
      "name": "updateFee",
      "outputs": [],
      "stateMutability": "nonpayable",
      "type": "function"
    },
    {
      "inputs": [
        {
          "internalType": "uint256",
          "name": "_minPrize",
          "type": "uint256"
        },
        {
          "internalType": "uint256",
          "name": "_maxPrize",
          "type": "uint256"
        }
      ],
      "name": "updateMinMax",
      "outputs": [],
      "stateMutability": "payable",
      "type": "function"
    },
    {
      "inputs": [],
      "name": "withdrawAdmin",
      "outputs": [],
      "stateMutability": "payable",
      "type": "function"
    },
    {
      "inputs": [],
      "name": "withdrawETH",
      "outputs": [],
      "stateMutability": "payable",
      "type": "function"
    },
    {
      "inputs": [],
      "name": "withdrawLink",
      "outputs": [],
      "stateMutability": "nonpayable",
      "type": "function"
    },
    {
      "inputs": [],
      "name": "withdrawcommission",
      "outputs": [],
      "stateMutability": "payable",
      "type": "function"
    },
    {
      "inputs": [],
      "name": "withdrawrefereecommission",
      "outputs": [],
      "stateMutability": "payable",
      "type": "function"
    }
  ],
  "bytecode": "0x60c06040526001600381905560045560006005908155600a600681905560078190556008819055600981905555600f80546001600160501b031916660100030007a1201790553480156200005257600080fd5b5060405162006069380380620060698339810160408190526200007591620006d9565b7f779877a7b0d9e8603169ddbd7836e478b46247890000000000000000000000006080527fab18414cd93297b0d12ac29e63ca20f515b3db4600000000000000000000000060a0523380600081620001145760405162461bcd60e51b815260206004820152601860248201527f43616e6e6f7420736574206f776e657220746f207a65726f000000000000000060448201526064015b60405180910390fd5b600080546001600160a01b0319166001600160a01b03848116919091179091558116156200014757620001478162000587565b5050600d8054336001600160a01b03199182168117909255600b805482166001600160a01b0386811691909117909155604080516101a081018252600180825260208083018781526000848601818152865180880188526007815266105d5d1bd8995d60ca1b818601526060870190815287518086018952838152608088015260a0870183905287518089018952601881527f6175746f6265746c6f747465727940676d61696c2e636f6d00000000000000008187015260c08801528751808601895283815260e088015260045461010080890191909152610120880184905261014088018490526c0c9f2c9cd04674edea4000000061016089015261018088018490529a835260118552969091208551815493516001600160a81b0319909416901515610100600160a81b031916179288169099029190911788555191870180549096169190941617909355518051929450620002af926002850192919091019062000633565b5060808201518051620002cd91600384019160209091019062000633565b5060a0820151600482015560c08201518051620002f591600584019160209091019062000633565b5060e082015180516200031391600684019160209091019062000633565b5061010082015181600701556101208201518160080155610140820151816009015561016082015181600a015561018082015181600b0155905050604051806101a00160405280600115158152602001336001600160a01b0316815260200160006001600160a01b0316815260200160405180604001604052806007815260200166105d5d1bd8995d60ca1b8152508152602001604051806020016040528060008152508152602001600081526020016040518060400160405280601881526020017f6175746f6265746c6f747465727940676d61696c2e636f6d00000000000000008152508152602001604051806020016040528060008152508152602001600454815260200160008152602001600081526020016c0c9f2c9cd04674edea400000008152602001600081525060106000600460008154809291906200045a9062000748565b909155508152602080820192909252604090810160002083518154858501516001600160a81b0319909116911515610100600160a81b031916919091176101006001600160a01b0392831602178255918401516001820180546001600160a01b0319169190931617909155606083015180519192620004e29260028501929091019062000633565b50608082015180516200050091600384019160209091019062000633565b5060a0820151600482015560c082015180516200052891600584019160209091019062000633565b5060e082015180516200054691600684019160209091019062000633565b50610100820151600782015561012082015160088201556101408201516009820155610160820151600a82015561018090910151600b909101555062000772565b6001600160a01b038116331415620005e25760405162461bcd60e51b815260206004820152601760248201527f43616e6e6f74207472616e7366657220746f2073656c6600000000000000000060448201526064016200010b565b600180546001600160a01b0319166001600160a01b0383811691821790925560008054604051929316917fed8889f560326eb138920d842192f0eb3dd22b4f139c87a2c57538e05bae12789190a350565b82805462000641906200070b565b90600052602060002090601f016020900481019282620006655760008555620006b0565b82601f106200068057805160ff1916838001178555620006b0565b82800160010185558215620006b0579182015b82811115620006b057825182559160200191906001019062000693565b50620006be929150620006c2565b5090565b5b80821115620006be5760008155600101620006c3565b600060208284031215620006ec57600080fd5b81516001600160a01b03811681146200070457600080fd5b9392505050565b600181811c908216806200072057607f821691505b602082108114156200074257634e487b7160e01b600052602260045260246000fd5b50919050565b60006000198214156200076b57634e487b7160e01b600052601160045260246000fd5b5060010190565b60805160601c60a05160601c6158af620007ba60003960008181610e1e0152818161409b015281816149b80152614adf015260008181613045015261498e01526158af6000f3fe6080604052600436106103a25760003560e01c80638796ba8c116101e7578063bb0ae2171161010d578063e043e7bc116100a0578063ea9fae801161006f578063ea9fae8014610bdf578063f2fde38b14610bff578063f851a44014610c1f578063f970dd0214610c3f57600080fd5b8063e043e7bc14610b7f578063e086e5ec14610bac578063e580f47b14610bb4578063e9a9c50c14610bca57600080fd5b8063c6b7cb69116100dc578063c6b7cb6914610b16578063d61752fe14610b36578063d7e2368f14610b49578063dd73656d14610b5f57600080fd5b8063bb0ae21714610a80578063bef7e5a214610a93578063c0dae68514610ac0578063c41ce92e14610af657600080fd5b80639d76ea5811610185578063aa10304c11610154578063aa10304c146109b7578063aa37db6c14610a19578063b2dd29f314610a2f578063b43f0b2b14610a4557600080fd5b80639d76ea5814610884578063a168fa89146108a4578063a57d1560146108f0578063a8a7ac441461099757600080fd5b80638dc654a2116101c15780638dc654a214610809578063914891051461081e57806394d1283a14610826578063961699951461085757600080fd5b80638796ba8c146107955780638b7afe2e146107c25780638da5cb5b146107d757600080fd5b80634c4426e8116102cc5780636b65e8441161026a57806375829def1161023957806375829def1461071757806375e9340a146107375780637782d5761461074d57806379ba50971461078057600080fd5b80636b65e8441461067a5780636bf8dc741461069a5780636e04ff0d146106d35780636edf72831461070157600080fd5b806351d4568f116102a657806351d4568f146105f75780635f8e26a7146105ff57806363551e891461062d57806367eecd5a1461064d57600080fd5b80634c4426e8146105bb5780634ce6873b146105ce5780634e7abe25146105e157600080fd5b80632751134a116103445780633bbd391e116103135780633bbd391e1461053b5780633de55f951461054e5780634585e33b1461057b5780634a2a1fb01461059b57600080fd5b80632751134a146104ac5780632f24d5dc146104d95780633295b5b0146104ec578063355b90981461052557600080fd5b80631c9c8e99116103805780631c9c8e99146104075780631fe543e31461043457806326617ddb1461045457806326a4e8d21461048c57600080fd5b8063019c08f5146103a757806304c76af0146103d057806316a1a468146103da575b600080fd5b3480156103b357600080fd5b506103bd60045481565b6040519081526020015b60405180910390f35b6103d8610c6c565b005b3480156103e657600080fd5b506103bd6103f5366004614df5565b601a6020526000908152604090205481565b34801561041357600080fd5b50610427610422366004614df5565b610d27565b6040516103c791906153cc565b34801561044057600080fd5b506103d861044f3660046151cd565b610e13565b34801561046057600080fd5b506103bd61046f366004615165565b602360209081526000928352604080842090915290825290205481565b34801561049857600080fd5b506103d86104a7366004614df5565b610e99565b3480156104b857600080fd5b506103bd6104c7366004614df5565b60166020526000908152604090205481565b6103d86104e7366004615214565b610f03565b3480156104f857600080fd5b5061050c610507366004615133565b611246565b6040516103c79d9c9b9a9998979695949392919061546e565b34801561053157600080fd5b506103bd60095481565b6103d8610549366004615214565b6114d7565b34801561055a57600080fd5b506103bd610569366004614df5565b60176020526000908152604090205481565b34801561058757600080fd5b506103d8610596366004614fd6565b6116d2565b3480156105a757600080fd5b506103d86105b6366004615191565b61180a565b6103d86105c9366004614e10565b611958565b6103d86105dc366004615268565b611e72565b3480156105ed57600080fd5b506103bd60065481565b6103d8612567565b34801561060b57600080fd5b5061061f61061a366004615133565b612643565b6040516103c79291906153df565b34801561063957600080fd5b506103d861064836600461507d565b612828565b34801561065957600080fd5b506103bd610668366004615133565b601e6020526000908152604090205481565b34801561068657600080fd5b5061050c610695366004614df5565b612b03565b3480156106a657600080fd5b506103d86106b5366004614f9c565b600d8054911515600160a01b0260ff60a01b19909216919091179055565b3480156106df57600080fd5b506106f36106ee366004614fd6565b612b43565b6040516103c792919061551f565b34801561070d57600080fd5b506103bd60025481565b34801561072357600080fd5b506103d8610732366004614df5565b612c83565b34801561074357600080fd5b506103bd60075481565b34801561075957600080fd5b5061076d610768366004614df5565b612d00565b6040516103c7979695949392919061554d565b34801561078c57600080fd5b506103d8612ee7565b3480156107a157600080fd5b506103bd6107b0366004615133565b601c6020526000908152604090205481565b3480156107ce57600080fd5b506103bd612f98565b3480156107e357600080fd5b506000546001600160a01b03165b6040516001600160a01b0390911681526020016103c7565b34801561081557600080fd5b506103d8612fe8565b6103d86131b5565b34801561083257600080fd5b50600d5461084790600160a01b900460ff1681565b60405190151581526020016103c7565b34801561086357600080fd5b506103bd610872366004614df5565b60196020526000908152604090205481565b34801561089057600080fd5b50600b546107f1906001600160a01b031681565b3480156108b057600080fd5b506108db6108bf366004615133565b600e602052600090815260409020805460019091015460ff1682565b604080519283529015156020830152016103c7565b3480156108fc57600080fd5b5061097f61090b366004615133565b601460205260009081526040902080546001820154600283015460038401546004850154600586015460068701546007880154600889015460098a0154600b909a0154989997989697959694959394929391926001600160a01b03918216929182169160ff600160a01b909104811691168c565b6040516103c79c9b9a9998979695949392919061561e565b3480156109a357600080fd5b506103d86109b236600461507d565b613205565b3480156109c357600080fd5b506109f96109d2366004615133565b60156020526000908152604090208054600182015460028301546003909301549192909184565b6040805194855260208501939093529183015260608201526080016103c7565b348015610a2557600080fd5b506103bd60055481565b348015610a3b57600080fd5b506103bd60085481565b348015610a5157600080fd5b50610847610a60366004615048565b805160208183018101805160248252928201919093012091525460ff1681565b6103d8610a8e366004614efc565b6134dc565b348015610a9f57600080fd5b506103bd610aae366004614df5565b60186020526000908152604090205481565b348015610acc57600080fd5b506107f1610adb366004615133565b601f602052600090815260409020546001600160a01b031681565b348015610b0257600080fd5b50610427610b11366004614df5565b6136d7565b348015610b2257600080fd5b5061076d610b31366004615133565b6137bf565b6103d8610b44366004614f2f565b6137da565b348015610b5557600080fd5b506103bd600a5481565b348015610b6b57600080fd5b50610427610b7a366004614df5565b613b61565b348015610b8b57600080fd5b506103bd610b9a366004615133565b601b6020526000908152604090205481565b6103d8613c49565b348015610bc057600080fd5b506103bd60035481565b348015610bd657600080fd5b506103d8613cc0565b348015610beb57600080fd5b506103d8610bfa366004615236565b613e41565b348015610c0b57600080fd5b506103d8610c1a366004614df5565b613e9d565b348015610c2b57600080fd5b50600d546107f1906001600160a01b031681565b348015610c4b57600080fd5b506103bd610c5a366004615133565b601d6020526000908152604090205481565b600d546001600160a01b03163314610cb95760405162461bcd60e51b815260206004820152600b60248201526a3737ba16b096b0b236b4b760a91b60448201526064015b60405180910390fd5b600d546001600160a01b03166000908152601160205260408082206009015490519091339183156108fc0291849190818181858888f19350505050158015610d05573d6000803e3d6000fd5b5050600d546001600160a01b0316600090815260116020526040812060090155565b6001600160a01b03811660009081526020805260408120546060919067ffffffffffffffff811115610d5b57610d5b615837565b604051908082528060200260200182016040528015610d84578160200160208202803683370190505b50905060005b6001600160a01b0384166000908152602080526040902054811015610e0c576001600160a01b03841660009081526020805260409020805482908110610dd257610dd2615821565b9060005260206000200154828281518110610def57610def615821565b602090810291909101015280610e048161579a565b915050610d8a565b5092915050565b336001600160a01b037f00000000000000000000000000000000000000000000000000000000000000001614610e8b5760405162461bcd60e51b815260206004820152601f60248201527f6f6e6c792056524620563220777261707065722063616e2066756c66696c6c006044820152606401610cb0565b610e958282613eae565b5050565b600d546001600160a01b03163314610ee15760405162461bcd60e51b815260206004820152600b60248201526a3737ba16b096b0b236b4b760a91b6044820152606401610cb0565b600b80546001600160a01b0319166001600160a01b0392909216919091179055565b6000818152601460209081526040808320601590925290912060038201543414610f6f5760405162461bcd60e51b815260206004820152601160248201527f456e74727920466565206e6f74206d65740000000000000000000000000000006044820152606401610cb0565b80600201544210610fc25760405162461bcd60e51b815260206004820152601260248201527f54696d652070617373656420746f2062757900000000000000000000000000006044820152606401610cb0565b60088201546001600160a01b03161561101d5760405162461bcd60e51b815260206004820152600b60248201527f57696e6e657220646f6e650000000000000000000000000000000000000000006044820152606401610cb0565b60408051600180825281830190925260009160208083019080368337019050509050848160008151811061105357611053615821565b602090810291909101810191909152600085815260238252604080822033835290925290812080546001929061108a9084906156d1565b90915550506040805160808101825233815242602080830191825292820187815260608301858152600a8801805460018082018355600092835291879020865160049092020180546001600160a01b0319166001600160a01b0390921691909117815593519084015590516002830155518051929391926111119260038501920190614c10565b505033600090815260166020526040812080543493509091906111359084906156d1565b909155505060098301546001600160a01b0316600090815260116020526040812060080180543492906111699084906156d1565b909155505033600090815260208080526040808320805460018101825590845282842001879055868352601b90915281208054916111a68361579a565b91905055506111c86064600a5485600301546111c291906156fd565b90613fa8565b33600090815260196020526040812080549091906111e79084906156d1565b909155505060038083015490840154604051339287927feebeef70159cab2afd7f0275b057d4672073bc52648b266b673fdbb3a856103d9261122c928792429261543f565b60405180910390a361123f848633613ff3565b5050505050565b60106020526000908152604090208054600182015460028301805460ff8416946101009094046001600160a01b039081169493169291906112869061575f565b80601f01602080910402602001604051908101604052809291908181526020018280546112b29061575f565b80156112ff5780601f106112d4576101008083540402835291602001916112ff565b820191906000526020600020905b8154815290600101906020018083116112e257829003601f168201915b5050505050908060030180546113149061575f565b80601f01602080910402602001604051908101604052809291908181526020018280546113409061575f565b801561138d5780601f106113625761010080835404028352916020019161138d565b820191906000526020600020905b81548152906001019060200180831161137057829003601f168201915b5050505050908060040154908060050180546113a89061575f565b80601f01602080910402602001604051908101604052809291908181526020018280546113d49061575f565b80156114215780601f106113f657610100808354040283529160200191611421565b820191906000526020600020905b81548152906001019060200180831161140457829003601f168201915b5050505050908060060180546114369061575f565b80601f01602080910402602001604051908101604052809291908181526020018280546114629061575f565b80156114af5780601f10611484576101008083540402835291602001916114af565b820191906000526020600020905b81548152906001019060200180831161149257829003601f168201915b50505050509080600701549080600801549080600901549080600a01549080600b015490508d565b3360009081526011602052604090205460ff166115365760405162461bcd60e51b815260206004820152601260248201527f4e6f742061206f7267616e69736174696f6e00000000000000000000000000006044820152606401610cb0565b600081116115865760405162461bcd60e51b815260206004820152601260248201527f43616e742062652062656c6f77207a65726f00000000000000000000000000006044820152606401610cb0565b600082116115d65760405162461bcd60e51b815260206004820152601260248201527f43616e742062652062656c6f77207a65726f00000000000000000000000000006044820152606401610cb0565b60006115f960026111c2670de0b6b3a76400006115f38787614178565b906141d7565b905060006116106064600654846111c291906156fd565b90503481146116615760405162461bcd60e51b815260206004820152601960248201527f526567697374657220466565206e6f74206d61746368696e67000000000000006044820152606401610cb0565b3360009081526011602081815260408084206007810154600b8083018b9055600a9283018a9055818752601085528387209081018b9055909101889055600d546001600160a01b031685529290915282206009018054919234926116c69084906156d1565b90915550505050505050565b600d54600160a01b900460ff161561172c5760405162461bcd60e51b815260206004820152601260248201527f72657175697265642063616c6c207472756500000000000000000000000000006044820152606401610cb0565b600d805460ff60a01b1916600160a01b17905560015b6003548110156118055760026000828152601460205260409020600b015460ff1660038111156117745761177461580b565b14156117f3576002600082815260146020526040902060090154600160a01b900460ff1660038111156117a9576117a961580b565b146117f3576000818152601b6020908152604080832054601490925290912060050154116117f3576000818152601560205260409020600301544211156117f3576117f381614272565b806117fd8161579a565b915050611742565b505050565b6040516370a0823160e01b81523060048201526001600160a01b038216906370a082319060240160206040518083038186803b15801561184957600080fd5b505afa15801561185d573d6000803e3d6000fd5b505050506040513d601f19601f82011682018060405250810190611881919061514c565b8311156118d05760405162461bcd60e51b815260206004820152600b60248201527f6c6f772062616c616e63650000000000000000000000000000000000000000006044820152606401610cb0565b60405163a9059cbb60e01b81526001600160a01b0383811660048301526024820185905282169063a9059cbb90604401602060405180830381600087803b15801561191a57600080fd5b505af115801561192e573d6000803e3d6000fd5b505050506040513d601f19601f820116820180604052508101906119529190614fb9565b50505050565b6001600160a01b03891661196e5761196e6157c9565b600061197f60026111c28585614178565b905060006119966064600654846111c291906156fd565b6001600160a01b038c81166000908152601160205260409020549192506101009091041615611a075760405162461bcd60e51b815260206004820152601260248201527f416c7265616479207265676973746572656400000000000000000000000000006044820152606401610cb0565b348114611a565760405162461bcd60e51b815260206004820152601960248201527f526567697374657220466565206e6f74206d61746368696e67000000000000006044820152606401610cb0565b604051806101a001604052806001151581526020018c6001600160a01b031681526020018b6001600160a01b031681526020018a81526020018981526020018881526020018781526020018681526020016004548152602001600081526020016000815260200184815260200185815250601160008d6001600160a01b03166001600160a01b0316815260200190815260200160002060008201518160000160006101000a81548160ff02191690831515021790555060208201518160000160016101000a8154816001600160a01b0302191690836001600160a01b0316021790555060408201518160010160006101000a8154816001600160a01b0302191690836001600160a01b031602179055506060820151816002019080519060200190611b82929190614c5b565b5060808201518051611b9e916003840191602090910190614c5b565b5060a0820151600482015560c08201518051611bc4916005840191602090910190614c5b565b5060e08201518051611be0916006840191602090910190614c5b565b5061010082015181600701556101208201518160080155610140820151816009015561016082015181600a015561018082015181600b0155905050604051806101a001604052806001151581526020018c6001600160a01b031681526020018b6001600160a01b031681526020018a815260200189815260200188815260200187815260200186815260200160045481526020016000815260200160008152602001858152602001858152506010600060046000815480929190611ca39061579a565b909155508152602080820192909252604090810160002083518154858501517fffffffffffffffffffffff0000000000000000000000000000000000000000009091169115157fffffffffffffffffffffff0000000000000000000000000000000000000000ff16919091176101006001600160a01b0392831602178255918401516001820180546001600160a01b0319169190931617909155606083015180519192611d5892600285019290910190614c5b565b5060808201518051611d74916003840191602090910190614c5b565b5060a0820151600482015560c08201518051611d9a916005840191602090910190614c5b565b5060e08201518051611db6916006840191602090910190614c5b565b5061010082015160078201556101208201516008820155610140820151600980830191909155610160830151600a83015561018090920151600b90910155600d546001600160a01b031660009081526011602052604081209091018054349290611e219084906156d1565b90915550506004546040517f337cd441473f6e4d26f96eb02885394c00cd7271e43ed7e206dd43664b98598c90611e5d908e908d908f9061536e565b60405180910390a25050505050505050505050565b3360009081526011602052604090205460ff16611ed15760405162461bcd60e51b815260206004820152601260248201527f4e6f742061206f7267616e69736174696f6e00000000000000000000000000006044820152606401610cb0565b336000908152601160205260409020600b0154881015611f335760405162461bcd60e51b815260206004820152601a60248201527f4e6f7420616c6c6f7765642077696e6e696e6720616d6f756e740000000000006044820152606401610cb0565b336000908152601160205260409020600a0154881115611f955760405162461bcd60e51b815260206004820152601a60248201527f4e6f7420616c6c6f7765642077696e6e696e6720616d6f756e740000000000006044820152606401610cb0565b60008811611fe55760405162461bcd60e51b815260206004820152600e60248201527f4c6f7720746f74616c50726963650000000000000000000000000000000000006044820152606401610cb0565b34612003611ffc60646007548c6111c291906156fd565b8a90614178565b146120505760405162461bcd60e51b815260206004820152601360248201527f416d6f756e74206e6f74206d61746368696e67000000000000000000000000006044820152606401610cb0565b838911156120a05760405162461bcd60e51b815260206004820152601060248201527f6361706163697479206973206c657373000000000000000000000000000000006044820152606401610cb0565b428710156120f05760405162461bcd60e51b815260206004820152601160248201527f53746172742074696d65207061737365640000000000000000000000000000006044820152606401610cb0565b85871061213f5760405162461bcd60e51b815260206004820152601d60248201527f456e642074696d65206c657373207468616e2073746172742074696d650000006044820152606401610cb0565b60328211156121b65760405162461bcd60e51b815260206004820152602960248201527f526f6c6c6f7665722070657263656e746167652063616e2774206265206d6f7260448201527f65207468616e20353000000000000000000000000000000000000000000000006064820152608401610cb0565b60008160038111156121ca576121ca61580b565b141561222057886001146122205760405162461bcd60e51b815260206004820152601560248201527f4f6e6c792031206e756d62657220616c6c6f77656400000000000000000000006044820152606401610cb0565b60018160038111156122345761223461580b565b141561228a578860011461228a5760405162461bcd60e51b815260206004820152601560248201527f4f6e6c792031206e756d62657220616c6c6f77656400000000000000000000006044820152606401610cb0565b60038054600090815260146020818152604080842060060188905584548085528185209081556007018790558454845280842085018f90558454845280842060019081018f9055855485528185206004018e9055855485526015835281852081018d90558554855281852060029081018d9055865480875283872090815587018c90558654865293909252808420909201889055835483528183206009908101805460ff60a01b19169055845484528284200180546001600160a01b03191633179055835483529120600b0180548493919260ff199091169184908111156123745761237461580b565b021790555061238b60646111c28c818c600a6141d7565b612395898c613fa8565b61239f91906156d1565b60038054600090815260146020908152604080832060050194909455338252602281529281209154825460018101845592825292902001556007546123eb906064906111c2908b6156fd565b600d546001600160a01b0316600090815260116020526040812060090180549091906124189084906156d1565b9091555050336000908152601160205260409020600101546001600160a01b0316156124a657612449886064613fa8565b336000908152601160209081526040808320600101546001600160a01b03168352601790915290205461247c91906156d1565b336000908152601160209081526040808320600101546001600160a01b0316835260179091529020555b6000838152601360209081526040808320600401546001600160a01b03168352602182528083206003805482546001810184559286528486209092019190915533808552601184529382902060070154905482518f81529384018e90529183018c905260608301889052608083018b905292917fe6e4222b2c2ddb82eb8817d7bd8ec6fc5eb5f915b4d7b36c260aa77ba04da7db9060a00160405180910390a4600380549060006125568361579a565b919050555050505050505050505050565b3360009081526011602052604081206008908101549054909190612593906064906111c29085906141d7565b905060006125a183836142bd565b604051909150339082156108fc029083906000818181858888f193505050501580156125d1573d6000803e3d6000fd5b50600d546001600160a01b0316600090815260116020526040812060090180548492906125ff9084906156d1565b909155505033600090815260116020526040812060090180548392906126269084906156d1565b909155505033600090815260116020526040812060080155505050565b6000818152601460205260408120600a81015460609283929167ffffffffffffffff81111561267457612674615837565b60405190808252806020026020018201604052801561269d578160200160208202803683370190505b506001830154600a8401549192506000916126b891906156fd565b67ffffffffffffffff8111156126d0576126d0615837565b6040519080825280602002602001820160405280156126f9578160200160208202803683370190505b50905060008060005b600a8601548110156128195785600a01818154811061272357612723615821565b60009182526020909120600490910201546001600160a01b031685846127488161579a565b95508151811061275a5761275a615821565b60200260200101906001600160a01b031690816001600160a01b03168152505060005b86600101548110156128065786600a01828154811061279e5761279e615821565b906000526020600020906004020160030181815481106127c0576127c0615821565b90600052602060002001548584806127d79061579a565b9550815181106127e9576127e9615821565b6020908102919091010152806127fe8161579a565b91505061277d565b50806128118161579a565b915050612702565b50919792965091945050505050565b6001600160a01b03821661283e5761283e6157c9565b6001600160a01b03828116600090815260126020526040902060040154166128a85760405162461bcd60e51b815260206004820152601660248201527f4e6f7420416c72656164792072656769737465726564000000000000000000006044820152606401610cb0565b6001600160a01b03808316600081815260126020526040902060040154909116146129155760405162461bcd60e51b815260206004820152601760248201527f57726f6e67206164647265737320746f207570646174650000000000000000006044820152606401610cb0565b6040805160e081018252878152602080820188905286151582840152606082018690526001600160a01b0385166080830181905260a0830185905260008181526012808452948120600681015460c0860152919052928152815180519293926129819284920190614c5b565b50602082810151805161299a9260018501920190614c5b565b50604082015160028201805460ff1916911515919091179055606082015180516129ce916003840191602090910190614c5b565b506080828101516004830180546001600160a01b0319166001600160a01b0392831617905560a080850151600585015560c0948501516006948501556040805160e0810182528c815260208082018d90528b151582840152606082018b90529389169481018590529182018790526000938452601283528084209094015494810185905293825260138152919020825180519192612a7192849290910190614c5b565b506020828101518051612a8a9260018501920190614c5b565b50604082015160028201805460ff191691151591909117905560608201518051612abe916003840191602090910190614c5b565b5060808201516004820180546001600160a01b0319166001600160a01b0390921691909117905560a0820151600582015560c090910151600690910155505050505050565b60116020526000908152604090208054600182015460028301805460ff8416946101009094046001600160a01b039081169493169291906112869061575f565b600d54600090606090600160a01b900460ff1615612ba35760405162461bcd60e51b815260206004820152601660248201527f416e6f7468657220526573756c742072756e6e696e67000000000000000000006044820152606401610cb0565b60015b600354811015612c7a5760026000828152601460205260409020600b015460ff166003811115612bd857612bd861580b565b1415612c68576002600082815260146020526040902060090154600160a01b900460ff166003811115612c0d57612c0d61580b565b14612c68576000818152601b602090815260408083205460149092529091206005015411612c6857600081815260156020526040902060030154421115612c6857505060408051602081019091526000815260019150612c7c565b80612c728161579a565b915050612ba6565b505b9250929050565b600d546001600160a01b03163314612ccb5760405162461bcd60e51b815260206004820152600b60248201526a3737ba16b096b0b236b4b760a91b6044820152606401610cb0565b6001600160a01b038116612cde57600080fd5b600d80546001600160a01b0319166001600160a01b0392909216919091179055565b601260205260009081526040902080548190612d1b9061575f565b80601f0160208091040260200160405190810160405280929190818152602001828054612d479061575f565b8015612d945780601f10612d6957610100808354040283529160200191612d94565b820191906000526020600020905b815481529060010190602001808311612d7757829003601f168201915b505050505090806001018054612da99061575f565b80601f0160208091040260200160405190810160405280929190818152602001828054612dd59061575f565b8015612e225780601f10612df757610100808354040283529160200191612e22565b820191906000526020600020905b815481529060010190602001808311612e0557829003601f168201915b5050506002840154600385018054949560ff909216949193509150612e469061575f565b80601f0160208091040260200160405190810160405280929190818152602001828054612e729061575f565b8015612ebf5780601f10612e9457610100808354040283529160200191612ebf565b820191906000526020600020905b815481529060010190602001808311612ea257829003601f168201915b505050506004830154600584015460069094015492936001600160a01b039091169290915087565b6001546001600160a01b03163314612f415760405162461bcd60e51b815260206004820152601660248201527f4d7573742062652070726f706f736564206f776e6572000000000000000000006044820152606401610cb0565b60008054336001600160a01b0319808316821784556001805490911690556040516001600160a01b0390921692909183917f8be0079c531659141344cd1fd0a4f28419497f9722a3daafe3b4186f6b6457e091a350565b600d546000906001600160a01b03163314612fe35760405162461bcd60e51b815260206004820152600b60248201526a3737ba16b096b0b236b4b760a91b6044820152606401610cb0565b504790565b600d546001600160a01b031633146130305760405162461bcd60e51b815260206004820152600b60248201526a3737ba16b096b0b236b4b760a91b6044820152606401610cb0565b6040516370a0823160e01b81523060048201527f00000000000000000000000000000000000000000000000000000000000000006001600160a01b03169063a9059cbb90339083906370a082319060240160206040518083038186803b15801561309957600080fd5b505afa1580156130ad573d6000803e3d6000fd5b505050506040513d601f19601f820116820180604052508101906130d1919061514c565b6040517fffffffff0000000000000000000000000000000000000000000000000000000060e085901b1681526001600160a01b0390921660048301526024820152604401602060405180830381600087803b15801561312f57600080fd5b505af1158015613143573d6000803e3d6000fd5b505050506040513d601f19601f820116820180604052508101906131679190614fb9565b6131b35760405162461bcd60e51b815260206004820152601260248201527f556e61626c6520746f207472616e7366657200000000000000000000000000006044820152606401610cb0565b565b3360008181526017602052604080822054905190929183156108fc02918491818181858888f193505050501580156131f1573d6000803e3d6000fd5b505033600090815260176020526040812055565b6001600160a01b03821661321b5761321b6157c9565b6001600160a01b0382811660009081526012602052604090206004015416156132865760405162461bcd60e51b815260206004820152601260248201527f416c7265616479207265676973746572656400000000000000000000000000006044820152606401610cb0565b600580549060006132968361579a565b90915550506040805160e081018252878152602080820188905286151582840152606082018690526001600160a01b0385166080830181905260a0830185905260055460c08401526000908152601282529290922081518051929391926133009284920190614c5b565b5060208281015180516133199260018501920190614c5b565b50604082015160028201805460ff19169115159190911790556060820151805161334d916003840191602090910190614c5b565b5060808201518160040160006101000a8154816001600160a01b0302191690836001600160a01b0316021790555060a0820151816005015560c082015181600601559050506040518060e001604052808781526020018681526020018515158152602001848152602001836001600160a01b031681526020018281526020016005548152506013600060055481526020019081526020016000206000820151816000019080519060200190613403929190614c5b565b50602082810151805161341c9260018501920190614c5b565b50604082015160028201805460ff191691151591909117905560608201518051613450916003840191602090910190614c5b565b5060808201516004820180546001600160a01b0319166001600160a01b0390921691909117905560a082015160058083019190915560c090920151600690910155546040517f5d2686854affb7128976377a11057b30e12303652d58c2f9bdd9610be758519c916134cc918990899089908990899089906155b7565b60405180910390a1505050505050565b6000818152601c602052604090205482146135395760405162461bcd60e51b815260206004820152601360248201527f4c6f7474657279204964206d69736d61746368000000000000000000000000006044820152606401610cb0565b60008281526014602052604090206001600160a01b038416156136c4576004810154600854600090613573906064906111c29085906141d7565b9050600061358183836142bd565b6040519091506001600160a01b0388169082156108fc029083906000818181858888f193505050501580156135ba573d6000803e3d6000fd5b50600d546001600160a01b0316600090815260116020526040812060090180548492906135e89084906156d1565b9091555060009050600b85015460ff1660038111156136095761360961580b565b141561367c57600061362b60646111c2600954876141d790919063ffffffff16565b60068601546000908152601360205260408082206004015490519293506001600160a01b03169183156108fc0291849190818181858888f19350505050158015613679573d6000803e3d6000fd5b50505b85876001600160a01b03167f88f3705f0c4d3c5b1a1d29fe4fd3f87e889a5a0ce0a1e37989766b3248603fe9836040516136b891815260200190565b60405180910390a35050505b5050600d805460ff60a01b191690555050565b6001600160a01b0381166000908152602260205260408120546060919067ffffffffffffffff81111561370c5761370c615837565b604051908082528060200260200182016040528015613735578160200160208202803683370190505b50905060005b6001600160a01b038416600090815260226020526040902054811015610e0c576001600160a01b038416600090815260226020526040902080548290811061378557613785615821565b90600052602060002001548282815181106137a2576137a2615821565b6020908102919091010152806137b78161579a565b91505061373b565b601360205260009081526040902080548190612d1b9061575f565b60008281526014602090815260408083206015909252909120600382015434146138465760405162461bcd60e51b815260206004820152601160248201527f456e74727920466565206e6f74206d65740000000000000000000000000000006044820152606401610cb0565b816001015485511461389a5760405162461bcd60e51b815260206004820152601360248201527f736c6f74732073697a65206e6f74206d656574000000000000000000000000006044820152606401610cb0565b806002015442106138ed5760405162461bcd60e51b815260206004820152601260248201527f54696d652070617373656420746f2062757900000000000000000000000000006044820152606401610cb0565b6024836040516138fd9190615352565b9081526040519081900360200190205460ff161561395d5760405162461bcd60e51b815260206004820152601660248201527f4e756d62657220416c726561647920636c61696d6564000000000000000000006044820152606401610cb0565b600160248460405161396f9190615352565b9081526040805160209281900383019020805460ff1916931515939093179092556000868152602382528281203382529091529081208054600192906139b69084906156d1565b90915550506040805160808101825233815242602080830191825292820187815260608301898152600a8701805460018082018355600092835291879020865160049092020180546001600160a01b0319166001600160a01b039092169190911781559351908401559051600283015551805192939192613a3d9260038501920190614c10565b50503360009081526016602052604081208054349350909190613a619084906156d1565b909155505060098201546001600160a01b031660009081526011602052604081206008018054349290613a959084906156d1565b909155505033600090815260208080526040808320805460018101825590845282842001879055868352601b9091528120805491613ad28361579a565b9190505550613aee6064600a5484600301546111c291906156fd565b3360009081526019602052604081208054909190613b0d9084906156d1565b909155505060038082015490830154604051339287927feebeef70159cab2afd7f0275b057d4672073bc52648b266b673fdbb3a856103d92613b52928b92429261543f565b60405180910390a35050505050565b6001600160a01b0381166000908152602160205260408120546060919067ffffffffffffffff811115613b9657613b96615837565b604051908082528060200260200182016040528015613bbf578160200160208202803683370190505b50905060005b6001600160a01b038416600090815260216020526040902054811015610e0c576001600160a01b0384166000908152602160205260409020805482908110613c0f57613c0f615821565b9060005260206000200154828281518110613c2c57613c2c615821565b602090810291909101015280613c418161579a565b915050613bc5565b600d546001600160a01b03163314613c915760405162461bcd60e51b815260206004820152600b60248201526a3737ba16b096b0b236b4b760a91b6044820152606401610cb0565b60405133904780156108fc02916000818181858888f19350505050158015613cbd573d6000803e3d6000fd5b50565b600b546040516370a0823160e01b81523060048201526001600160a01b03909116906370a082319060240160206040518083038186803b158015613d0357600080fd5b505afa158015613d17573d6000803e3d6000fd5b505050506040513d601f19601f82011682018060405250810190613d3b919061514c565b336000908152601960205260409020541115613d995760405162461bcd60e51b815260206004820152600b60248201527f6c6f772062616c616e63650000000000000000000000000000000000000000006044820152606401610cb0565b600b54336000818152601960205260409081902054905163a9059cbb60e01b8152600481019290925260248201526001600160a01b039091169063a9059cbb90604401602060405180830381600087803b158015613df657600080fd5b505af1158015613e0a573d6000803e3d6000fd5b505050506040513d601f19601f82011682018060405250810190613e2e9190614fb9565b5033600090815260196020526040812055565b600d546001600160a01b03163314613e895760405162461bcd60e51b815260206004820152600b60248201526a3737ba16b096b0b236b4b760a91b6044820152606401610cb0565b600793909355600891909155600a55600955565b613ea56142ff565b613cbd81614359565b6000828152600e6020526040902054613f095760405162461bcd60e51b815260206004820152601160248201527f72657175657374206e6f7420666f756e640000000000000000000000000000006044820152606401610cb0565b6000828152600e602090815260409091206001818101805460ff191690911790558251613f3e92600290920191840190614c10565b5080600081518110613f5257613f52615821565b6020026020010151601d600084815260200190815260200160002081905550610e95818381518110613f8657613f86615821565b6020026020010151601c60008581526020019081526020016000205484614403565b6000613fea83836040518060400160405280601a81526020017f536166654d6174683a206469766973696f6e206279207a65726f000000000000815250614931565b90505b92915050565b600f546000906140249063ffffffff8082169161ffff64010000000082041691660100000000000090910416614968565b60028190556000818152601c60209081526040808320889055601e8252808320879055601f9091529081902080546001600160a01b0319166001600160a01b038681169190911790915581516060810192839052600f546310c1b4d560e21b90935263ffffffff90921660648301529192509081907f000000000000000000000000000000000000000000000000000000000000000016634306d3546084830160206040518083038186803b1580156140dc57600080fd5b505afa1580156140f0573d6000803e3d6000fd5b505050506040513d601f19601f82011682018060405250810190614114919061514c565b81526000602080830182905260408051838152808301825293810193909352848252600e815290829020835181558382015160018201805460ff191691151591909117905591830151805161416f9260028501920190614c10565b50505050505050565b60008061418583856156d1565b905083811015613fea5760405162461bcd60e51b815260206004820152601b60248201527f536166654d6174683a206164646974696f6e206f766572666c6f7700000000006044820152606401610cb0565b6000826141e657506000613fed565b60006141f283856156fd565b9050826141ff85836156e9565b14613fea5760405162461bcd60e51b815260206004820152602160248201527f536166654d6174683a206d756c7469706c69636174696f6e206f766572666c6f60448201527f77000000000000000000000000000000000000000000000000000000000000006064820152608401610cb0565b600f546000906142a39063ffffffff8082169161ffff64010000000082041691660100000000000090910416614968565b60028190556000908152601c602052604090209190915550565b6000613fea83836040518060400160405280601e81526020017f536166654d6174683a207375627472616374696f6e206f766572666c6f770000815250614b76565b6000546001600160a01b031633146131b35760405162461bcd60e51b815260206004820152601660248201527f4f6e6c792063616c6c61626c65206279206f776e6572000000000000000000006044820152606401610cb0565b6001600160a01b0381163314156143b25760405162461bcd60e51b815260206004820152601760248201527f43616e6e6f74207472616e7366657220746f2073656c660000000000000000006044820152606401610cb0565b600180546001600160a01b0319166001600160a01b0383811691821790925560008054604051929316917fed8889f560326eb138920d842192f0eb3dd22b4f139c87a2c57538e05bae12789190a350565b600082815260146020908152604080832060159092529091206002600b83015460ff1660038111156144375761443761580b565b141561456b57600a82015461444d908690614ba7565b60098301805460ff60a01b191674020000000000000000000000000000000000000000179055600a83018054919650908690811061448d5761448d615821565b60009182526020909120600490910201546008830180546001600160a01b0319166001600160a01b03909216919091179055600a8201805485917fc95b83a8055606bd947ee12d6a33519292d859712d214efd6c587938a891e24b91889081106144f9576144f9615821565b600091825260209182902060049091020154604080516001600160a01b03909216825242928201929092520160405180910390a261456682600a01868154811061454557614545615821565b60009182526020909120600490910201546001600160a01b031685856134dc565b61123f565b600282015461457b908690614ba7565b6000848152601f6020908152604080832080546008880180546001600160a01b0319166001600160a01b039283161790559054601e8452938290205482519081529283018590524283830152905193985087939216917f50e6d276e04bb48de52a4c1fcef42f86470ee30c5461da3e6edb4eba3a15c468916060908290030190a36000838152601e60205260409020548514156146745760098201805460ff60a01b1916740200000000000000000000000000000000000000001790556000838152601f6020526040902080546008840180546001600160a01b0319166001600160a01b039283161790559054614566911685856134dc565b60098201805460ff60a01b19167403000000000000000000000000000000000000000017905560075460048301546000916146b6916064916111c291906141d7565b6146d660646111c2866007015487600401546141d790919063ffffffff16565b6146e0919061571c565b600684810154600380546000908152601460208181526040808420909601949094558254808352858320908155838a0154908401556001808a01548454845286842082015583548352858320600401879055888101548454845260158087528785208301919091556007808c0154865486528488528886209091015560028a8101548654865291875287852081019190915584548085528785209081558a86015490860155808b0154855485529290955285832090940155815481528381206009908101805460ff60a01b19169055808901548354835285832090910180546001600160a01b0319166001600160a01b03909216919091179055600b80890154835483529490912001805494955060ff9093169360ff19169190849081111561480b5761480b61580b565b0217905550600580840154600380546000908152601460209081526040808320909501939093556009808801546001600160a01b039081168352602285528583209354845460018101865594845285842090940193909355600d549092168152601190925291812090910180548392906148869084906156d1565b909155505060098301546001600160a01b03166000818152601160209081526040918290206007015460038054908801546001808a015460028b0154918a01548751938452958301529481018790526060810194909452608084019290925292917fe6e4222b2c2ddb82eb8817d7bd8ec6fc5eb5f915b4d7b36c260aa77ba04da7db9060a00160405180910390a4600380549060006149248361579a565b9190505550505050505050565b600081836149525760405162461bcd60e51b8152600401610cb0919061553a565b50600061495f84866156e9565b95945050505050565b6040516310c1b4d560e21b815263ffffffff841660048201526000906001600160a01b037f0000000000000000000000000000000000000000000000000000000000000000811691634000aea0917f00000000000000000000000000000000000000000000000000000000000000009190821690634306d3549060240160206040518083038186803b1580156149fd57600080fd5b505afa158015614a11573d6000803e3d6000fd5b505050506040513d601f19601f82011682018060405250810190614a35919061514c565b6040805163ffffffff808b16602083015261ffff8a169282019290925290871660608201526080016040516020818303038152906040526040518463ffffffff1660e01b8152600401614a8a939291906153a4565b602060405180830381600087803b158015614aa457600080fd5b505af1158015614ab8573d6000803e3d6000fd5b505050506040513d601f19601f82011682018060405250810190614adc9190614fb9565b507f00000000000000000000000000000000000000000000000000000000000000006001600160a01b031663fc2a88c36040518163ffffffff1660e01b815260040160206040518083038186803b158015614b3657600080fd5b505afa158015614b4a573d6000803e3d6000fd5b505050506040513d601f19601f82011682018060405250810190614b6e919061514c565b949350505050565b60008184841115614b9a5760405162461bcd60e51b8152600401610cb0919061553a565b50600061495f848661571c565b6000613fea83836040518060400160405280601881526020017f536166654d6174683a206d6f64756c6f206279207a65726f000000000000000081525060008183614c055760405162461bcd60e51b8152600401610cb0919061553a565b50614b6e83856157b5565b828054828255906000526020600020908101928215614c4b579160200282015b82811115614c4b578251825591602001919060010190614c30565b50614c57929150614cce565b5090565b828054614c679061575f565b90600052602060002090601f016020900481019282614c895760008555614c4b565b82601f10614ca257805160ff1916838001178555614c4b565b82800160010185558215614c4b5791820182811115614c4b578251825591602001919060010190614c30565b5b80821115614c575760008155600101614ccf565b80356001600160a01b0381168114614cfa57600080fd5b919050565b600082601f830112614d1057600080fd5b8135602067ffffffffffffffff821115614d2c57614d2c615837565b8160051b614d3b8282016156a0565b838152828101908684018388018501891015614d5657600080fd5b600093505b85841015614d79578035835260019390930192918401918401614d5b565b50979650505050505050565b600082601f830112614d9657600080fd5b813567ffffffffffffffff811115614db057614db0615837565b614dc3601f8201601f19166020016156a0565b818152846020838601011115614dd857600080fd5b816020850160208301376000918101602001919091529392505050565b600060208284031215614e0757600080fd5b613fea82614ce3565b60008060008060008060008060006101208a8c031215614e2f57600080fd5b614e388a614ce3565b9850614e4660208b01614ce3565b975060408a013567ffffffffffffffff80821115614e6357600080fd5b614e6f8d838e01614d85565b985060608c0135915080821115614e8557600080fd5b614e918d838e01614d85565b975060808c0135965060a08c0135915080821115614eae57600080fd5b614eba8d838e01614d85565b955060c08c0135915080821115614ed057600080fd5b50614edd8c828d01614d85565b93505060e08a013591506101008a013590509295985092959850929598565b600080600060608486031215614f1157600080fd5b614f1a84614ce3565b95602085013595506040909401359392505050565b600080600060608486031215614f4457600080fd5b833567ffffffffffffffff80821115614f5c57600080fd5b614f6887838801614cff565b9450602086013593506040860135915080821115614f8557600080fd5b50614f9286828701614d85565b9150509250925092565b600060208284031215614fae57600080fd5b8135613fea8161586b565b600060208284031215614fcb57600080fd5b8151613fea8161586b565b60008060208385031215614fe957600080fd5b823567ffffffffffffffff8082111561500157600080fd5b818501915085601f83011261501557600080fd5b81358181111561502457600080fd5b86602082850101111561503657600080fd5b60209290920196919550909350505050565b60006020828403121561505a57600080fd5b813567ffffffffffffffff81111561507157600080fd5b614b6e84828501614d85565b60008060008060008060c0878903121561509657600080fd5b863567ffffffffffffffff808211156150ae57600080fd5b6150ba8a838b01614d85565b975060208901359150808211156150d057600080fd5b6150dc8a838b01614d85565b9650604089013591506150ee8261586b565b9094506060880135908082111561510457600080fd5b5061511189828a01614d85565b93505061512060808801614ce3565b915060a087013590509295509295509295565b60006020828403121561514557600080fd5b5035919050565b60006020828403121561515e57600080fd5b5051919050565b6000806040838503121561517857600080fd5b8235915061518860208401614ce3565b90509250929050565b6000806000606084860312156151a657600080fd5b833592506151b660208501614ce3565b91506151c460408501614ce3565b90509250925092565b600080604083850312156151e057600080fd5b82359150602083013567ffffffffffffffff8111156151fe57600080fd5b61520a85828601614cff565b9150509250929050565b6000806040838503121561522757600080fd5b50508035926020909101359150565b6000806000806080858703121561524c57600080fd5b5050823594602084013594506040840135936060013592509050565b6000806000806000806000806000806101408b8d03121561528857600080fd5b8a35995060208b0135985060408b0135975060608b0135965060808b0135955060a08b0135945060c08b0135935060e08b013592506101008b013591506101208b0135600481106152d857600080fd5b809150509295989b9194979a5092959850565b600081518084526020808501945080840160005b8381101561531b578151875295820195908201906001016152ff565b509495945050505050565b6000815180845261533e816020860160208601615733565b601f01601f19169290920160200192915050565b60008251615364818460208701615733565b9190910192915050565b60006001600160a01b038086168352606060208401526153916060840186615326565b9150808416604084015250949350505050565b6001600160a01b038416815282602082015260606040820152600061495f6060830184615326565b602081526000613fea60208301846152eb565b6040815260006153f260408301856152eb565b82810360208481019190915284518083528582019282019060005b818110156154325784516001600160a01b03168352938301939183019160010161540d565b5090979650505050505050565b60808152600061545260808301876152eb565b6020830195909552506040810192909252606090910152919050565b8d151581526001600160a01b038d1660208201526001600160a01b038c1660408201526101a0606082015260006154a96101a083018d615326565b82810360808401526154bb818d615326565b90508a60a084015282810360c08401526154d5818b615326565b905082810360e08401526154e9818a615326565b61010084019890985250506101208101949094526101408401929092526101608301526101809091015298975050505050505050565b8215158152604060208201526000614b6e6040830184615326565b602081526000613fea6020830184615326565b60e08152600061556060e083018a615326565b8281036020840152615572818a615326565b90508715156040840152828103606084015261558e8188615326565b6001600160a01b03969096166080840152505060a081019290925260c090910152949350505050565b87815260e0602082015260006155d060e0830189615326565b82810360408401526155e28189615326565b9050861515606084015282810360808401526155fe8187615326565b6001600160a01b039590951660a0840152505060c0015295945050505050565b6000610180820190508d82528c60208301528b60408301528a60608301528960808301528860a08301528760c08301528660e08301526001600160a01b03808716610100840152808616610120840152506156788461584d565b836101408301526156888361584d565b826101608301529d9c50505050505050505050505050565b604051601f8201601f1916810167ffffffffffffffff811182821017156156c9576156c9615837565b604052919050565b600082198211156156e4576156e46157df565b500190565b6000826156f8576156f86157f5565b500490565b6000816000190483118215151615615717576157176157df565b500290565b60008282101561572e5761572e6157df565b500390565b60005b8381101561574e578181015183820152602001615736565b838111156119525750506000910152565b600181811c9082168061577357607f821691505b6020821081141561579457634e487b7160e01b600052602260045260246000fd5b50919050565b60006000198214156157ae576157ae6157df565b5060010190565b6000826157c4576157c46157f5565b500690565b634e487b7160e01b600052600160045260246000fd5b634e487b7160e01b600052601160045260246000fd5b634e487b7160e01b600052601260045260246000fd5b634e487b7160e01b600052602160045260246000fd5b634e487b7160e01b600052603260045260246000fd5b634e487b7160e01b600052604160045260246000fd5b60048110613cbd57634e487b7160e01b600052602160045260246000fd5b8015158114613cbd57600080fdfea26469706673582212206ee910070f943bbbf7de130a831436b1db14865617b44c88d4e43264db76a82c64736f6c63430008070033",
  "linkReferences": {},
  "deployedLinkReferences": {}
}